{
  "_format": "hh-sol-artifact-1",
  "contractName": "BullaFactoringAutomationCheckerV2",
  "sourceName": "contracts/BullaFactoringAutomationChecker.sol",
  "abi": [
    {
      "inputs": [
        {
          "internalType": "address",
          "name": "poolAddress",
          "type": "address"
        }
      ],
      "name": "checker",
      "outputs": [
        {
          "internalType": "bool",
          "name": "canExec",
          "type": "bool"
        },
        {
          "internalType": "bytes",
          "name": "execPayload",
          "type": "bytes"
        }
      ],
      "stateMutability": "view",
      "type": "function"
    }
  ],
  "bytecode": "0x608080604052346015576103a4908161001a8239f35b5f80fdfe6080806040526004361015610012575f80fd5b5f3560e01c63016c683c14610025575f80fd5b34610188576020366003190112610188576004356001600160a01b0381169081900361018857816004815f936356984d9f60e01b82525afa90811561018c575f905f926100e4575b5051905181018091116100d057606060405191602083016376138f5560e01b81526004845261009d602485610197565b60405193849215158352604060208401525180918160408501528484015e5f828201840152601f01601f19168101030190f35b634e487b7160e01b5f52601160045260245ffd5b9150503d805f833e6100f68183610197565b81019060808183031261018857805167ffffffffffffffff811161018857826101209183016101e5565b90602081015167ffffffffffffffff81116101885783610141918301610263565b50604081015167ffffffffffffffff811161018857836101629183016101e5565b92606082015167ffffffffffffffff8111610188576101819201610263565b505f61006d565b5f80fd5b6040513d5f823e3d90fd5b90601f8019910116810190811067ffffffffffffffff8211176101b957604052565b634e487b7160e01b5f52604160045260245ffd5b67ffffffffffffffff81116101b95760051b60200190565b9080601f830112156101885781516101fc816101cd565b9261020a6040519485610197565b81845260208085019260051b82010192831161018857602001905b8282106102325750505090565b8151815260209182019101610225565b51906001600160a01b038216820361018857565b5190811515820361018857565b81601f820112156101885780519061027a826101cd565b926102886040519485610197565b828452602061012081860194028301019181831161018857602001925b8284106102b3575050505090565b61012084830312610188576040519061012082019082821067ffffffffffffffff8311176101b95761012092602092604052865181526102f4838801610242565b8382015261030460408801610242565b60408201526060870151606082015261031f60808801610242565b608082015260a087015160a082015261033a60c08801610256565b60c082015261034b60e08801610256565b60e082015261035d6101008801610256565b6101008201528152019301926102a556fea2646970667358221220c9f8fbc303e6bc8ee2c57e39b7e413ea1c9976fabf9a3358439fc59fa964976464736f6c634300081e0033",
  "linkReferences": {},
  "deployedLinkReferences": {}
}