{"abi":[{"type":"fallback","stateMutability":"nonpayable"},{"type":"function","name":"setFallbackHandler","inputs":[{"name":"handler","type":"address","internalType":"address"}],"outputs":[],"stateMutability":"nonpayable"},{"type":"event","name":"ChangedFallbackHandler","inputs":[{"name":"handler","type":"address","indexed":false,"internalType":"address"}],"anonymous":false}],"bytecode":{"object":"0x6080806040523460155761014f908161001a8239f35b5f80fdfe60806040526004361015610019575b34156100c8575b5f80fd5b5f3560e01c63f08a03230361000e5734610015576020366003190112610015576004356001600160a01b03811690818103610015573033036100a2577f6c9a6c4a39284e37ed1cf53d337577d14212a4870fb976a4366c693b939918d5556080527f5ac6c46c93c8d0e53714ba3b53db3e7c046da994313d7ed0d192028bc7c228b060206080a1005b62461bcd60e51b6080526020608452600560a45264475330333160d81b60c45260646080fd5b7f6c9a6c4a39284e37ed1cf53d337577d14212a4870fb976a4366c693b939918d5548015610117575f8091368280373360601b3652818060143601925af13d5f803e15610113573d5ff35b3d5ffd5b00fea2646970667358221220b542e29d58d4ae245654e0b3d953e991374ad5ba221176248a5593c46dfc93ce64736f6c634300081e0033","linkReferences":{}},"methodIdentifiers":{"setFallbackHandler(address)":"f08a0323"},"id":73}