{"abi":[{"type":"function","name":"computeInterest","inputs":[{"name":"remainingPrincipal","type":"uint256","internalType":"uint256"},{"name":"interestStartTimestamp","type":"uint256","internalType":"uint256"},{"name":"config","type":"tuple","internalType":"struct InterestConfig","components":[{"name":"interestRateBps","type":"uint16","internalType":"uint16"},{"name":"numberOfPeriodsPerYear","type":"uint16","internalType":"uint16"}]},{"name":"state","type":"tuple","internalType":"struct InterestComputationState","components":[{"name":"accruedInterest","type":"uint256","internalType":"uint256"},{"name":"latestPeriodNumber","type":"uint256","internalType":"uint256"},{"name":"protocolFeeBps","type":"uint16","internalType":"uint16"},{"name":"totalGrossInterestPaid","type":"uint256","internalType":"uint256"}]}],"outputs":[{"name":"","type":"tuple","internalType":"struct InterestComputationState","components":[{"name":"accruedInterest","type":"uint256","internalType":"uint256"},{"name":"latestPeriodNumber","type":"uint256","internalType":"uint256"},{"name":"protocolFeeBps","type":"uint16","internalType":"uint16"},{"name":"totalGrossInterestPaid","type":"uint256","internalType":"uint256"}]}],"stateMutability":"view"},{"type":"function","name":"validateInterestConfig","inputs":[{"name":"config","type":"tuple","internalType":"struct InterestConfig","components":[{"name":"interestRateBps","type":"uint16","internalType":"uint16"},{"name":"numberOfPeriodsPerYear","type":"uint16","internalType":"uint16"}]}],"outputs":[],"stateMutability":"pure"},{"type":"error","name":"InvalidPeriodsPerYear","inputs":[]}],"bytecode":{"object":"0x6080806040523460195761072b908161001e823930815050f35b5f80fdfe60806040526004361015610011575f80fd5b5f3560e01c80639d6c6ae7146100f15763ff7f44431461002f575f80fd5b6101003660031901126100ed5760403660431901126100ed57610050610168565b60443561ffff811681036100ed57815260643561ffff811681036100ed57602082015260803660831901126100ed57610087610134565b608435815260a435602082015260c4359061ffff821682036100ed576080926100c292604083015260e4356060830152602435600435610240565b606060405191805183526020810151602084015261ffff604082015116604084015201516060820152f35b5f80fd5b60403660031901126100ed57610105610168565b60043561ffff811681036100ed5781526024359061ffff821682036100ed57610132916020820152610188565b005b604051906080820182811067ffffffffffffffff82111761015457604052565b634e487b7160e01b5f52604160045260245ffd5b604051906040820182811067ffffffffffffffff82111761015457604052565b61ffff815116156101b55761ffff602061016d92015116116101a657565b6319d712d560e11b5f5260045ffd5b50565b6101c0610134565b905f82525f60208301525f60408301525f6060830152565b81156101e2570490565b634e487b7160e01b5f52601260045260245ffd5b9190820391821161020357565b634e487b7160e01b5f52601160045260245ffd5b9061ffff8091169116019061ffff821161020357565b8181029291811591840414171561020357565b92909261024b6101b8565b5061ffff835116158015610413575b801561040b575b8015610401575b80156103f9575b6103f2576020830161ffff815116156103e2575161ffff169384156101e2578042115f146103da576102b1906102ac866301e133800491426101f6565b6101d8565b925b6020830151808511156103d2576102ca90856101f6565b905b81156103c95761ffff9051169461ffff6102ee60408601978289511690610217565b169061271081029081046127100361020357610309916104b2565b670de0b6b3a7640000019081670de0b6b3a76400001161020357670de0b6b3a764000091815b61037d5750508251820190818311610203576060926103546103599261ffff94610565565b6101f6565b94511691015191610368610134565b93845260208401526040830152606082015290565b6001808316146103a7575b61039b81670de0b6b3a76400009261022d565b049060011c908161032f565b9161039b670de0b6b3a76400006103bf85829461022d565b0493915050610388565b50505091505090565b505f906102cc565b505f926102b3565b50916103ef934293610426565b90565b5091505090565b50801561026f565b5042841015610268565b508315610261565b5061016d61ffff6020850151161161025a565b93620151809161043e916104386101b8565b506101f6565b0480156104ab5761048660609261048161ffff61045b81956105fb565b9251169661047b8561047560408a019a828c511690610217565b16610671565b90610565565b610565565b93511691015190610495610134565b9283525f60208401526040830152606082015290565b5050905090565b5f19670de0b6b3a7640000820991670de0b6b3a7640000820291828085109403938085039414610559578382111561054157670de0b6b3a7640000829109815f0382168092046002816003021880820260020302808202600203028082026002030280820260020302808202600203028091026002030293600183805f03040190848311900302920304170290565b50634e487b715f52156003026011186020526024601cfd5b50906103ef92506101d8565b9091905f905f1984820990848102928380841093039280840393146105e85782670de0b6b3a764000011156105d657507faccb18165bd6fe31ae1cf318dc5b51eee0e1ba569b88cd74c1773b91fac106699394670de0b6b3a7640000910990828211900360ee1b910360121c170290565b634e487b71905260116020526024601cfd5b505050670de0b6b3a76400009192500490565b5f905f19670de0b6b3a7640000820991670de0b6b3a7640000820292838082109103818114610665570361016d11156105d657509061016d670de0b6b3a76400007f4ff4c73064ff4c73064ff4c73064ff4c73064ff4c73064ff4c73064ff4c73065930990030290565b5050505061016d900490565b905f5f19670de0b6b3a76400008409670de0b6b3a76400008402918280831092039180830392146106ea578161271011156105d65750612710670de0b6b3a76400007fbc01a36e2eb1c432ca57a786c226809d495182a9930be0ded288ce703afb7e9194950990828211900360fc1b910360041c170290565b50506127109004915056fea26469706673582212207250da267210464060f7aa7db2d11f59a754a901bad427a15e9f513a08c6983464736f6c634300081e0033","linkReferences":{}},"methodIdentifiers":{"computeInterest(uint256,uint256,InterestConfig,InterestComputationState)":"ff7f4443","validateInterestConfig(InterestConfig)":"9d6c6ae7"},"id":69}