{"abi":[{"type":"constructor","inputs":[{"name":"bullaClaim","type":"address","internalType":"address"},{"name":"_owner","type":"address","internalType":"address"},{"name":"_protocolFeeBPS","type":"uint16","internalType":"uint16"}],"stateMutability":"nonpayable"},{"type":"function","name":"_bullaClaim","inputs":[],"outputs":[{"name":"","type":"address","internalType":"contract IBullaClaimV2"}],"stateMutability":"view"},{"type":"function","name":"acceptLoan","inputs":[{"name":"offerId","type":"uint256","internalType":"uint256"}],"outputs":[{"name":"","type":"uint256","internalType":"uint256"}],"stateMutability":"payable"},{"type":"function","name":"acceptLoanWithReceiver","inputs":[{"name":"offerId","type":"uint256","internalType":"uint256"},{"name":"receiver","type":"address","internalType":"address"}],"outputs":[{"name":"","type":"uint256","internalType":"uint256"}],"stateMutability":"payable"},{"type":"function","name":"addToCallbackWhitelist","inputs":[{"name":"callbackContract","type":"address","internalType":"address"},{"name":"selector","type":"bytes4","internalType":"bytes4"}],"outputs":[],"stateMutability":"nonpayable"},{"type":"function","name":"addToFeeTokenWhitelist","inputs":[{"name":"token","type":"address","internalType":"address"}],"outputs":[],"stateMutability":"nonpayable"},{"type":"function","name":"admin","inputs":[],"outputs":[{"name":"","type":"address","internalType":"address"}],"stateMutability":"view"},{"type":"function","name":"approve","inputs":[{"name":"to","type":"address","internalType":"address"},{"name":"tokenId","type":"uint256","internalType":"uint256"}],"outputs":[],"stateMutability":"nonpayable"},{"type":"function","name":"balanceOf","inputs":[{"name":"owner","type":"address","internalType":"address"}],"outputs":[{"name":"","type":"uint256","internalType":"uint256"}],"stateMutability":"view"},{"type":"function","name":"callbackWhitelist","inputs":[{"name":"","type":"address","internalType":"address"},{"name":"","type":"bytes4","internalType":"bytes4"}],"outputs":[{"name":"","type":"bool","internalType":"bool"}],"stateMutability":"view"},{"type":"function","name":"getApproved","inputs":[{"name":"tokenId","type":"uint256","internalType":"uint256"}],"outputs":[{"name":"","type":"address","internalType":"address"}],"stateMutability":"view"},{"type":"function","name":"getLoan","inputs":[{"name":"claimId","type":"uint256","internalType":"uint256"}],"outputs":[{"name":"","type":"tuple","internalType":"struct Loan","components":[{"name":"claimAmount","type":"uint256","internalType":"uint256"},{"name":"paidAmount","type":"uint256","internalType":"uint256"},{"name":"status","type":"uint8","internalType":"enum Status"},{"name":"binding","type":"uint8","internalType":"enum ClaimBinding"},{"name":"debtor","type":"address","internalType":"address"},{"name":"creditor","type":"address","internalType":"address"},{"name":"token","type":"address","internalType":"address"},{"name":"controller","type":"address","internalType":"address"},{"name":"dueBy","type":"uint256","internalType":"uint256"},{"name":"acceptedAt","type":"uint256","internalType":"uint256"},{"name":"interestConfig","type":"tuple","internalType":"struct InterestConfig","components":[{"name":"interestRateBps","type":"uint16","internalType":"uint16"},{"name":"numberOfPeriodsPerYear","type":"uint16","internalType":"uint16"}]},{"name":"interestComputationState","type":"tuple","internalType":"struct InterestComputationState","components":[{"name":"accruedInterest","type":"uint256","internalType":"uint256"},{"name":"latestPeriodNumber","type":"uint256","internalType":"uint256"},{"name":"protocolFeeBps","type":"uint16","internalType":"uint16"},{"name":"totalGrossInterestPaid","type":"uint256","internalType":"uint256"}]}]}],"stateMutability":"view"},{"type":"function","name":"getLoanOffer","inputs":[{"name":"offerId","type":"uint256","internalType":"uint256"}],"outputs":[{"name":"","type":"tuple","internalType":"struct LoanOffer","components":[{"name":"params","type":"tuple","internalType":"struct LoanRequestParams","components":[{"name":"termLength","type":"uint256","internalType":"uint256"},{"name":"interestConfig","type":"tuple","internalType":"struct InterestConfig","components":[{"name":"interestRateBps","type":"uint16","internalType":"uint16"},{"name":"numberOfPeriodsPerYear","type":"uint16","internalType":"uint16"}]},{"name":"loanAmount","type":"uint256","internalType":"uint256"},{"name":"creditor","type":"address","internalType":"address"},{"name":"debtor","type":"address","internalType":"address"},{"name":"description","type":"string","internalType":"string"},{"name":"token","type":"address","internalType":"address"},{"name":"impairmentGracePeriod","type":"uint256","internalType":"uint256"},{"name":"expiresAt","type":"uint256","internalType":"uint256"},{"name":"callbackContract","type":"address","internalType":"address"},{"name":"callbackSelector","type":"bytes4","internalType":"bytes4"}]},{"name":"requestedByCreditor","type":"bool","internalType":"bool"}]}],"stateMutability":"view"},{"type":"function","name":"getLoanOfferMetadata","inputs":[{"name":"offerId","type":"uint256","internalType":"uint256"}],"outputs":[{"name":"","type":"tuple","internalType":"struct ClaimMetadata","components":[{"name":"tokenURI","type":"string","internalType":"string"},{"name":"attachmentURI","type":"string","internalType":"string"}]}],"stateMutability":"view"},{"type":"function","name":"getTotalAmountDue","inputs":[{"name":"claimId","type":"uint256","internalType":"uint256"}],"outputs":[{"name":"remainingPrincipal","type":"uint256","internalType":"uint256"},{"name":"grossInterest","type":"uint256","internalType":"uint256"}],"stateMutability":"view"},{"type":"function","name":"impairLoan","inputs":[{"name":"claimId","type":"uint256","internalType":"uint256"}],"outputs":[],"stateMutability":"nonpayable"},{"type":"function","name":"isApprovedForAll","inputs":[{"name":"owner","type":"address","internalType":"address"},{"name":"operator","type":"address","internalType":"address"}],"outputs":[{"name":"","type":"bool","internalType":"bool"}],"stateMutability":"view"},{"type":"function","name":"isCallbackWhitelisted","inputs":[{"name":"callbackContract","type":"address","internalType":"address"},{"name":"selector","type":"bytes4","internalType":"bytes4"}],"outputs":[{"name":"","type":"bool","internalType":"bool"}],"stateMutability":"view"},{"type":"function","name":"loanOfferCount","inputs":[],"outputs":[{"name":"","type":"uint256","internalType":"uint256"}],"stateMutability":"view"},{"type":"function","name":"markLoanAsPaid","inputs":[{"name":"claimId","type":"uint256","internalType":"uint256"}],"outputs":[],"stateMutability":"nonpayable"},{"type":"function","name":"offerLoan","inputs":[{"name":"offer","type":"tuple","internalType":"struct LoanRequestParams","components":[{"name":"termLength","type":"uint256","internalType":"uint256"},{"name":"interestConfig","type":"tuple","internalType":"struct InterestConfig","components":[{"name":"interestRateBps","type":"uint16","internalType":"uint16"},{"name":"numberOfPeriodsPerYear","type":"uint16","internalType":"uint16"}]},{"name":"loanAmount","type":"uint256","internalType":"uint256"},{"name":"creditor","type":"address","internalType":"address"},{"name":"debtor","type":"address","internalType":"address"},{"name":"description","type":"string","internalType":"string"},{"name":"token","type":"address","internalType":"address"},{"name":"impairmentGracePeriod","type":"uint256","internalType":"uint256"},{"name":"expiresAt","type":"uint256","internalType":"uint256"},{"name":"callbackContract","type":"address","internalType":"address"},{"name":"callbackSelector","type":"bytes4","internalType":"bytes4"}]}],"outputs":[{"name":"","type":"uint256","internalType":"uint256"}],"stateMutability":"nonpayable"},{"type":"function","name":"offerLoanWithMetadata","inputs":[{"name":"offer","type":"tuple","internalType":"struct LoanRequestParams","components":[{"name":"termLength","type":"uint256","internalType":"uint256"},{"name":"interestConfig","type":"tuple","internalType":"struct InterestConfig","components":[{"name":"interestRateBps","type":"uint16","internalType":"uint16"},{"name":"numberOfPeriodsPerYear","type":"uint16","internalType":"uint16"}]},{"name":"loanAmount","type":"uint256","internalType":"uint256"},{"name":"creditor","type":"address","internalType":"address"},{"name":"debtor","type":"address","internalType":"address"},{"name":"description","type":"string","internalType":"string"},{"name":"token","type":"address","internalType":"address"},{"name":"impairmentGracePeriod","type":"uint256","internalType":"uint256"},{"name":"expiresAt","type":"uint256","internalType":"uint256"},{"name":"callbackContract","type":"address","internalType":"address"},{"name":"callbackSelector","type":"bytes4","internalType":"bytes4"}]},{"name":"metadata","type":"tuple","internalType":"struct ClaimMetadata","components":[{"name":"tokenURI","type":"string","internalType":"string"},{"name":"attachmentURI","type":"string","internalType":"string"}]}],"outputs":[{"name":"","type":"uint256","internalType":"uint256"}],"stateMutability":"nonpayable"},{"type":"function","name":"owner","inputs":[],"outputs":[{"name":"","type":"address","internalType":"address"}],"stateMutability":"view"},{"type":"function","name":"ownerOf","inputs":[{"name":"tokenId","type":"uint256","internalType":"uint256"}],"outputs":[{"name":"","type":"address","internalType":"address"}],"stateMutability":"view"},{"type":"function","name":"payLoan","inputs":[{"name":"claimId","type":"uint256","internalType":"uint256"},{"name":"paymentAmount","type":"uint256","internalType":"uint256"}],"outputs":[],"stateMutability":"nonpayable"},{"type":"function","name":"protocolFeeBPS","inputs":[],"outputs":[{"name":"","type":"uint16","internalType":"uint16"}],"stateMutability":"view"},{"type":"function","name":"protocolFeeTokenWhitelist","inputs":[{"name":"","type":"address","internalType":"address"}],"outputs":[{"name":"","type":"bool","internalType":"bool"}],"stateMutability":"view"},{"type":"function","name":"protocolFeesByToken","inputs":[{"name":"","type":"address","internalType":"address"}],"outputs":[{"name":"","type":"uint256","internalType":"uint256"}],"stateMutability":"view"},{"type":"function","name":"rejectLoanOffer","inputs":[{"name":"offerId","type":"uint256","internalType":"uint256"}],"outputs":[],"stateMutability":"nonpayable"},{"type":"function","name":"removeFromCallbackWhitelist","inputs":[{"name":"callbackContract","type":"address","internalType":"address"},{"name":"selector","type":"bytes4","internalType":"bytes4"}],"outputs":[],"stateMutability":"nonpayable"},{"type":"function","name":"removeFromFeeTokenWhitelist","inputs":[{"name":"token","type":"address","internalType":"address"}],"outputs":[],"stateMutability":"nonpayable"},{"type":"function","name":"renounceOwnership","inputs":[],"outputs":[],"stateMutability":"nonpayable"},{"type":"function","name":"safeTransferFrom","inputs":[{"name":"from","type":"address","internalType":"address"},{"name":"to","type":"address","internalType":"address"},{"name":"tokenId","type":"uint256","internalType":"uint256"}],"outputs":[],"stateMutability":"nonpayable"},{"type":"function","name":"safeTransferFrom","inputs":[{"name":"from","type":"address","internalType":"address"},{"name":"to","type":"address","internalType":"address"},{"name":"tokenId","type":"uint256","internalType":"uint256"},{"name":"data","type":"bytes","internalType":"bytes"}],"outputs":[],"stateMutability":"nonpayable"},{"type":"function","name":"setApprovalForAll","inputs":[{"name":"operator","type":"address","internalType":"address"},{"name":"approved","type":"bool","internalType":"bool"}],"outputs":[],"stateMutability":"nonpayable"},{"type":"function","name":"setProtocolFee","inputs":[{"name":"_protocolFeeBPS","type":"uint16","internalType":"uint16"}],"outputs":[],"stateMutability":"nonpayable"},{"type":"function","name":"supportsInterface","inputs":[{"name":"interfaceId","type":"bytes4","internalType":"bytes4"}],"outputs":[{"name":"","type":"bool","internalType":"bool"}],"stateMutability":"view"},{"type":"function","name":"transferFrom","inputs":[{"name":"from","type":"address","internalType":"address"},{"name":"to","type":"address","internalType":"address"},{"name":"tokenId","type":"uint256","internalType":"uint256"}],"outputs":[],"stateMutability":"nonpayable"},{"type":"function","name":"transferOwnership","inputs":[{"name":"newOwner","type":"address","internalType":"address"}],"outputs":[],"stateMutability":"nonpayable"},{"type":"function","name":"whitelistedProtocolFeeTokens","inputs":[{"name":"","type":"uint256","internalType":"uint256"}],"outputs":[{"name":"","type":"address","internalType":"address"}],"stateMutability":"view"},{"type":"function","name":"withdrawAllFees","inputs":[],"outputs":[],"stateMutability":"nonpayable"},{"type":"event","name":"Approval","inputs":[{"name":"owner","type":"address","indexed":true,"internalType":"address"},{"name":"approved","type":"address","indexed":true,"internalType":"address"},{"name":"tokenId","type":"uint256","indexed":true,"internalType":"uint256"}],"anonymous":false},{"type":"event","name":"ApprovalForAll","inputs":[{"name":"owner","type":"address","indexed":true,"internalType":"address"},{"name":"operator","type":"address","indexed":true,"internalType":"address"},{"name":"approved","type":"bool","indexed":false,"internalType":"bool"}],"anonymous":false},{"type":"event","name":"CallbackRemovedFromWhitelist","inputs":[{"name":"callbackContract","type":"address","indexed":true,"internalType":"address"},{"name":"selector","type":"bytes4","indexed":true,"internalType":"bytes4"}],"anonymous":false},{"type":"event","name":"CallbackWhitelisted","inputs":[{"name":"callbackContract","type":"address","indexed":true,"internalType":"address"},{"name":"selector","type":"bytes4","indexed":true,"internalType":"bytes4"}],"anonymous":false},{"type":"event","name":"FeeWithdrawn","inputs":[{"name":"admin","type":"address","indexed":true,"internalType":"address"},{"name":"token","type":"address","indexed":true,"internalType":"address"},{"name":"amount","type":"uint256","indexed":false,"internalType":"uint256"}],"anonymous":false},{"type":"event","name":"LoanOfferAccepted","inputs":[{"name":"offerId","type":"uint256","indexed":true,"internalType":"uint256"},{"name":"claimId","type":"uint256","indexed":true,"internalType":"uint256"},{"name":"receiver","type":"address","indexed":true,"internalType":"address"},{"name":"fee","type":"uint256","indexed":false,"internalType":"uint256"},{"name":"metadata","type":"tuple","indexed":false,"internalType":"struct ClaimMetadata","components":[{"name":"tokenURI","type":"string","internalType":"string"},{"name":"attachmentURI","type":"string","internalType":"string"}]}],"anonymous":false},{"type":"event","name":"LoanOfferRejected","inputs":[{"name":"offerId","type":"uint256","indexed":true,"internalType":"uint256"},{"name":"rejectedBy","type":"address","indexed":true,"internalType":"address"}],"anonymous":false},{"type":"event","name":"LoanOffered","inputs":[{"name":"offerId","type":"uint256","indexed":true,"internalType":"uint256"},{"name":"offeredBy","type":"address","indexed":true,"internalType":"address"},{"name":"loanOffer","type":"tuple","indexed":false,"internalType":"struct LoanRequestParams","components":[{"name":"termLength","type":"uint256","internalType":"uint256"},{"name":"interestConfig","type":"tuple","internalType":"struct InterestConfig","components":[{"name":"interestRateBps","type":"uint16","internalType":"uint16"},{"name":"numberOfPeriodsPerYear","type":"uint16","internalType":"uint16"}]},{"name":"loanAmount","type":"uint256","internalType":"uint256"},{"name":"creditor","type":"address","internalType":"address"},{"name":"debtor","type":"address","internalType":"address"},{"name":"description","type":"string","internalType":"string"},{"name":"token","type":"address","internalType":"address"},{"name":"impairmentGracePeriod","type":"uint256","internalType":"uint256"},{"name":"expiresAt","type":"uint256","internalType":"uint256"},{"name":"callbackContract","type":"address","internalType":"address"},{"name":"callbackSelector","type":"bytes4","internalType":"bytes4"}]},{"name":"metadata","type":"tuple","indexed":false,"internalType":"struct ClaimMetadata","components":[{"name":"tokenURI","type":"string","internalType":"string"},{"name":"attachmentURI","type":"string","internalType":"string"}]}],"anonymous":false},{"type":"event","name":"LoanPayment","inputs":[{"name":"claimId","type":"uint256","indexed":true,"internalType":"uint256"},{"name":"grossInterestPaid","type":"uint256","indexed":false,"internalType":"uint256"},{"name":"principalPaid","type":"uint256","indexed":false,"internalType":"uint256"},{"name":"protocolFee","type":"uint256","indexed":false,"internalType":"uint256"}],"anonymous":false},{"type":"event","name":"OwnershipTransferred","inputs":[{"name":"previousOwner","type":"address","indexed":true,"internalType":"address"},{"name":"newOwner","type":"address","indexed":true,"internalType":"address"}],"anonymous":false},{"type":"event","name":"ProtocolFeeUpdated","inputs":[{"name":"oldFee","type":"uint16","indexed":false,"internalType":"uint16"},{"name":"newFee","type":"uint16","indexed":false,"internalType":"uint16"}],"anonymous":false},{"type":"event","name":"TokenAddedToFeesWhitelist","inputs":[{"name":"token","type":"address","indexed":true,"internalType":"address"}],"anonymous":false},{"type":"event","name":"TokenRemovedFromFeesWhitelist","inputs":[{"name":"token","type":"address","indexed":true,"internalType":"address"}],"anonymous":false},{"type":"event","name":"Transfer","inputs":[{"name":"from","type":"address","indexed":true,"internalType":"address"},{"name":"to","type":"address","indexed":true,"internalType":"address"},{"name":"tokenId","type":"uint256","indexed":true,"internalType":"uint256"}],"anonymous":false},{"type":"error","name":"CallbackFailed","inputs":[{"name":"data","type":"bytes","internalType":"bytes"}]},{"type":"error","name":"CallbackNotWhitelisted","inputs":[]},{"type":"error","name":"IncorrectFee","inputs":[]},{"type":"error","name":"InvalidGracePeriod","inputs":[]},{"type":"error","name":"InvalidProtocolFee","inputs":[]},{"type":"error","name":"InvalidTermLength","inputs":[]},{"type":"error","name":"LoanOfferExpired","inputs":[]},{"type":"error","name":"LoanOfferNotFound","inputs":[]},{"type":"error","name":"NativeTokenNotSupported","inputs":[]},{"type":"error","name":"NotController","inputs":[{"name":"sender","type":"address","internalType":"address"}]},{"type":"error","name":"NotCreditor","inputs":[]},{"type":"error","name":"NotCreditorOrDebtor","inputs":[]},{"type":"error","name":"NotDebtor","inputs":[]},{"type":"error","name":"OwnableInvalidOwner","inputs":[{"name":"owner","type":"address","internalType":"address"}]},{"type":"error","name":"OwnableUnauthorizedAccount","inputs":[{"name":"account","type":"address","internalType":"address"}]}],"bytecode":{"object":"0x60a060405234610437576144556060813803918261001c8161043b565b9384928339810103126104375761003281610460565b90604061004160208301610460565b9101519161ffff8316809303610437576001600160a01b03908116608052168015610424575f80546001600160a01b03198116831782556001600160a01b0316907f8be0079c531659141344cd1fd0a4f28419497f9722a3daafe3b4186f6b6457e09080a361271081116104155761ffff1960025416176002556040516040810181811060018060401b03821117610328576040526100e0602061043b565b5f815281526100ef602061043b565b5f815260208201908152905180519091906001600160401b03811161032857600a54600181811c9116801561040b575b602082101461030a57601f81116103a8575b50602092601f821160011461034757928192935f9261033c575b50508160011b915f199060031b1c191617600a555b5180516001600160401b03811161032857600b54600181811c9116801561031e575b602082101461030a57601f81116102a7575b50602091601f8211600114610247579181925f9261023c575b50508160011b915f199060031b1c191617600b555b604051613fe0908161047582396080518181816103e4015281816104a90152818161064c015281816106fa01528181610c1801528181610e8901528181610f1d01528181611164015281816113f4015281816115cb015281816116ce01528181611fe80152818161269201528181612b7201526131cc0152f35b015190505f806101ad565b601f19821692600b5f52805f20915f5b85811061028f57508360019510610277575b505050811b01600b556101c2565b01515f1960f88460031b161c191690555f8080610269565b91926020600181928685015181550194019201610257565b600b5f527f0175b7a638427703f0dbe7bb9bbf987a2551717b34e79f33b5b1008d1fa01db9601f830160051c81019160208410610300575b601f0160051c01905b8181106102f55750610194565b5f81556001016102e8565b90915081906102df565b634e487b7160e01b5f52602260045260245ffd5b90607f1690610182565b634e487b7160e01b5f52604160045260245ffd5b015190505f8061014b565b601f19821693600a5f52805f20915f5b8681106103905750836001959610610378575b505050811b01600a55610160565b01515f1960f88460031b161c191690555f808061036a565b91926020600181928685015181550194019201610357565b600a5f527fc65a7bb8d6351c1cf70c95a316cc6a92839c986682d98bc35f958f4883f9d2a8601f830160051c81019160208410610401575b601f0160051c01905b8181106103f65750610131565b5f81556001016103e9565b90915081906103e0565b90607f169061011f565b631752ff0760e31b5f5260045ffd5b631e4fbdf760e01b5f525f60045260245ffd5b5f80fd5b6040519190601f01601f191682016001600160401b0381118382101761032857604052565b51906001600160a01b03821682036104375756fe60806040526004361015610011575f80fd5b5f3560e01c806301ffc9a71461028a57806304dbf91314610203578063081812fc14610285578063095ea7b314610280578063150a64221461027b5780631bc7cd3d1461027657806323b872dd146102715780632b538af51461026c5780632d1982ff14610267578063307a80881461026257806339737e071461025d57806342842e0e146102585780634be18e9414610253578063504006ca1461024e578063520eb076146102495780636208d89c14610244578063623fb7ce1461023f578063631f1a3c1461023a5780636352211e1461023557806370a0823114610230578063715018a61461022b5780638245999514610226578063880461461461022157806389306e611461021c5780638da5cb5b146101d157806396daa32214610217578063a15c24f314610212578063a22cb4651461020d578063a5cc6a7f14610208578063a64d6beb14610203578063adfbe22f146101fe578063af236af4146101f9578063b88d4fde146101f4578063b9108c03146101ef578063d4251f9e146101ea578063db4e0899146101e5578063e4467f35146101e0578063e985e9c5146101db578063f2fde38b146101d65763f851a440146101d1575f80fd5b6114e3565b6126f7565b612637565b6125b2565b612551565b612480565b611f93565b611f2c565b611ce5565b611687565b610364565b611647565b61159e565b61152b565b61150a565b6111e7565b611131565b610fe7565b610f90565b610ed6565b610e53565b610da9565b610be5565b610ada565b610a66565b610951565b6108b0565b610856565b61081b565b6107fc565b610738565b6106e5565b61061d565b6105bb565b61059e565b61046a565b6103ae565b6102b2565b6001600160e01b03198116036102a157565b5f80fd5b35906102b08261028f565b565b346102a15760203660031901126102a15760206004356102d18161028f565b63ffffffff60e01b1663f1b5a49f60e01b811490811561030f575b81156102fe575b506040519015158152f35b6301ffc9a760e01b1490505f6102f3565b6380ac58cd60e01b811491506102ec565b6001600160a01b038116036102a157565b35906102b082610320565b60409060031901126102a15760043561035481610320565b906024356103618161028f565b90565b346102a157602060ff6103a26103793661033c565b9060018060a01b03165f526006845260405f209063ffffffff60e01b165f5260205260405f2090565b54166040519015158152f35b346102a15760203660031901126102a15760405163020604bf60e21b815260048035908201526020816024816001600160a01b037f0000000000000000000000000000000000000000000000000000000000000000165afa801561046557610432915f91610436575b506040516001600160a01b0390911681529081906020820190565b0390f35b610458915060203d60201161045e575b6104508183611e6c565b81019061278b565b5f610417565b503d610446565b6127a0565b346102a15760403660031901126102a15760043561048781610320565b604051635aef244760e01b815260248035600483018190526001600160a01b037f0000000000000000000000000000000000000000000000000000000000000000169392909161016090829081875afa8015610465576101006104fe91610503935f91610565575b5001516001600160a01b031690565b6132e9565b823b156102a1576040516352ec852960e01b81523360048201526001600160a01b0390921660248301526044820152905f908290818381606481015b03925af180156104655761054f57005b8061055d5f61056393611e6c565b80610594565b005b61058791506101603d811161058d575b61057f8183611e6c565b8101906127c5565b5f6104ef565b503d610575565b5f9103126102a157565b346102a1575f3660031901126102a1576020600154604051908152f35b346102a15760203660031901126102a1576105df6105da600435612b44565b61330f565b60408051928352602083019190915290f35b60609060031901126102a15760043561060981610320565b9060243561061681610320565b9060443590565b346102a15761062b366105f1565b604051635aef244760e01b8152600481018290529192916001600160a01b037f0000000000000000000000000000000000000000000000000000000000000000169061016081602481855afa8015610465576101006104fe9161069d935f91610565575001516001600160a01b031690565b803b156102a1576040516357cff26f60e11b81523360048201526001600160a01b03938416602482015293909216604484015260648301525f9082908183816084810161053f565b346102a1575f3660031901126102a1576040517f00000000000000000000000000000000000000000000000000000000000000006001600160a01b03168152602090f35b90816101809103126102a15790565b346102a15760403660031901126102a1576004356001600160401b0381116102a157610768903690600401610729565b6024356001600160401b0381116102a157604060031982360301126102a15760405161079381611df9565b81600401356001600160401b0381116102a1576107b6906004369185010161287b565b81526024820135926001600160401b0384116102a1576107e26107ec936004610432963692010161287b565b60208301526138e0565b6040519081529081906020820190565b346102a15761056361080d3661033c565b90610816613b4d565b612896565b346102a15760203660031901126102a15760043561083881610320565b60018060a01b03165f526004602052602060405f2054604051908152f35b346102a157610563610867366105f1565b9060405192610877602085611e6c565b5f84526131ab565b634e487b7160e01b5f52603260045260245ffd5b6003548110156108ab5760035f5260205f2001905f90565b61087f565b346102a15760203660031901126102a1576004356003548110156102a15760035f527fc2575a0e9e593c00f959f8c92f12db2869c3395a3b0502d05e2516446f71f85b01546040516001600160a01b039091168152602090f35b634e487b7160e01b5f52602160045260245ffd5b6006111561092857565b61090a565b9060068210156109285752565b6003111561092857565b9060038210156109285752565b346102a15760203660031901126102a157610200610970600435612b44565b610a6461016060405192805184526020810151602085015261099a6040820151604086019061092d565b6109ac60608201516060860190610944565b6080818101516001600160a01b03169085015260a0818101516001600160a01b03169085015260c0818101516001600160a01b03169085015260e0818101516001600160a01b031690850152610100810151610100850152610120810151610120850152610a3461014082015161014086019061ffff60208092828151168552015116910152565b0151805161018084015260208101516101a0840152604081015161ffff166101c0840152606001516101e0830152565bf35b346102a157610a743661033c565b90610a7d613b4d565b6001600160a01b03165f8181526006602090815260408083206001600160e01b031995909516808452949091528120805460ff191690557f36112db5f88f36037ce600104320a87f5636f34183686bbc76a66ec5588fccc99080a3005b346102a15760203660031901126102a157600435610b08610b03825f52600760205260405f2090565b612ebe565b8051606001516001600160a01b031615610bd657516060810151610b3c906001600160a01b03165b6001600160a01b031690565b3314159081610bb6575b50610ba757610b65610b60825f52600760205260405f2090565b61302a565b610b7f610b7a825f52600960205260405f2090565b613071565b33907f5c6eae33ff1cd222fb8964d3a9cb61f3c59d868bb587b0ad1f131fb6d99328ad5f80a3005b632eb6da6160e11b5f5260045ffd5b60800151610bcd91506001600160a01b0316610b30565b3314155f610b46565b631d044d6160e01b5f5260045ffd5b346102a15760203660031901126102a157604051635aef244760e01b815260048035908201819052906001600160a01b037f0000000000000000000000000000000000000000000000000000000000000000169061016081602481855afa8015610465576101006104fe91610c69935f91610565575001516001600160a01b031690565b803b156102a157604051631840f6c560e11b815233600482015260248101839052905f9082908183816044810161053f565b805180835260209291819084018484015e5f828201840152601f01601f1916010190565b610361906020815260406020845194828285015285516060850152610cfb82870151608086019061ffff60208092828151168552015116910152565b8583015160c085015260608601516001600160a01b031660e085015260808601516001600160a01b0316610100850152610da0610140610d4d60a08901516101806101208901526101e0880190610c9b565b60c08901516001600160a01b0316878301529760e08101516101608801526101008101516101808801526101208101516001600160a01b03166101a088015201516001600160e01b0319166101c0860152565b01511515910152565b346102a15760203660031901126102a1576004355f6020604051610dcc81611df9565b604051610dd881611e19565b838152610de3612925565b83820152836040820152836060820152836080820152606060a08201528360c08201528360e082015283610100820152836101208201528361014082015281520152600154811015610bd657610e47610b03610432925f52600760205260405f2090565b60405191829182610cbf565b346102a15760203660031901126102a1576040516331a9108f60e11b815260048035908201526020816024816001600160a01b037f0000000000000000000000000000000000000000000000000000000000000000165afa801561046557610432915f9161043657506040516001600160a01b0390911681529081906020820190565b346102a15760203660031901126102a157600435610ef381610320565b6040516370a0823160e01b81526001600160a01b03918216600482015290602090829060249082907f0000000000000000000000000000000000000000000000000000000000000000165afa801561046557610432915f91610f61575b506040519081529081906020820190565b610f83915060203d602011610f89575b610f7b8183611e6c565b810190613086565b5f610f50565b503d610f71565b346102a1575f3660031901126102a157610fa8613b4d565b5f80546001600160a01b0319811682556001600160a01b03167f8be0079c531659141344cd1fd0a4f28419497f9722a3daafe3b4186f6b6457e08280a3005b346102a15760203660031901126102a15760043561100481610320565b61100c613b4d565b6001600160a01b0381165f90815260056020526040902061102f905b5460ff1690565b611063575b6001600160a01b03167fceeec53cbb10af8d416c74d15b37f2c8761d65af488132f6de71b01176ad23345f80a2005b6001600160a01b0381165f818152600560205260408120805460ff191690555b6003548082101561112957826110b261109b84610893565b90546001600160a01b039260039290921b1c821690565b16146110c15750600101611083565b61111c92506110f26110dd6110d86110f893612a6a565b610893565b905460039190911b1c6001600160a01b031690565b91610893565b81546001600160a01b0393841660039290921b91821b9390911b1916919091179055565b611124613095565b611034565b505050611034565b346102a15760203660031901126102a157604051635aef244760e01b815260048035908201819052906001600160a01b037f0000000000000000000000000000000000000000000000000000000000000000169061016081602481855afa8015610465576101006104fe916111b5935f91610565575001516001600160a01b031690565b803b156102a157604051632a982aeb60e01b815233600482015260248101839052905f9082908183816044810161053f565b346102a15760403660031901126102a15760043560243561120782612b44565b9061123b61122961123061121a8561330f565b90928186188287100290911890565b8094612a7d565b818082109118021890565b9061016083016112b361125083835151612a7d565b8251611294602082015191611278876060611270604085015161ffff1690565b9301516130fc565b92611281611e8d565b948552602085015261ffff166040840152565b606082015260026112ad885f52600860205260405f2090565b01613109565b6112bd83836130fc565b906112dd60066112d5885f52600860205260405f2090565b015460ff1690565b80156114db575b156114a857505f905b611300846112fb8486612a7d565b6130fc565b94846113f2575b907f06283ce23ea8ff00b2f5df7b85dc1a077d69a207b3b48ecdaf73bf2189dd2e0f9561135593928261135a575b505050604051938493846040919493926060820195825260208201520152565b0390a2005b836113c5575b60c08101805190936113879161137e906001600160a01b0316610b30565b30903390613b97565b8115611335576113b760a06113a8610b306113bd965160018060a01b031690565b9201516001600160a01b031690565b90613c11565b5f8080611335565b60c08101516001600160a01b03165f9081526004602052604090206113eb8582546130fc565b9055611360565b7f00000000000000000000000000000000000000000000000000000000000000006001600160a01b03169590929190863b156102a157604051628c107560e01b81523360048201526024810189905260448101879052965f908890606490829084905af1938415610465577f06283ce23ea8ff00b2f5df7b85dc1a077d69a207b3b48ecdaf73bf2189dd2e0f9761135595611494575b50919293509550611307565b8061055d5f6114a293611e6c565b5f611488565b6114d5906114ce60406114c361014089015161ffff90511690565b9251015161ffff1690565b9084613b73565b906112ed565b5082156112e4565b346102a1575f3660031901126102a1575f546040516001600160a01b039091168152602090f35b346102a1575f3660031901126102a157602061ffff60025416604051908152f35b346102a15760203660031901126102a1576004356001600160401b0381116102a15761158c6115606020923690600401610729565b6040519061156d82611df9565b611577600a612e20565b8252611583600b612e20565b848301526138e0565b604051908152f35b801515036102a157565b346102a1575f60403660031901126102a1576004356115bc81610320565b602435906115c982611594565b7f00000000000000000000000000000000000000000000000000000000000000006001600160a01b031691823b156102a15760405163a22cb46560e01b81526001600160a01b03909216600483015215156024820152905f908290604490829084905af180156104655761163b575080f35b61056391505f90611e6c565b346102a15760203660031901126102a15760043561166481610320565b60018060a01b03165f526005602052602060ff60405f2054166040519015158152f35b60203660031901126102a1576004355f6116ac610b03835f52600760205260405f2090565b8051606001516001600160a01b031615610bd6576040516234595d60e31b81527f00000000000000000000000000000000000000000000000000000000000000006001600160a01b031693602082600481885afa91821561046557611752926020915f91611cc8575b508451608001516001600160a01b03165b60405163babcc53960e01b81526001600160a01b03909116600482015293849190829081906024820190565b03916001600160a01b03165afa918215610465575f92611ca7575b508115611bcf575b8115611b85575f925b833403611b7657610100815101518015159081611b6c575b50611b5d57602081015115611b26578051608001516117bd906001600160a01b0316610b30565b3303611b17575b8415611b0357845b6117e66117e1845f52600960205260405f2090565b613145565b906117fc610b60855f52600760205260405f2090565b611811610b7a855f52600960205260405f2090565b825160608101516001600160a01b031660808201519091906001600160a01b0316906118ae60408201519160a081015161185f61185760c084015160018060a01b031690565b9251426130fc565b9361189460e08b51015196611884611875611ecb565b6001600160a01b03909a168a52565b6001600160a01b03166020890152565b604087015260608601526001600160a01b03166080850152565b600260a084015260c083015260e082015282515115801590611af5575b15611a6f578351608001516119069960209285928a906001600160a01b0316604051624b382960e01b81529d8e958694859360048501613d21565b03925af1928315610465576119a2885f516020613f8b5f395f51905f529560209b61198b9b91611a52575b50998a985b84518d0151928115611a4557805b61196661194f611e8d565b8281526020810183905261ffff9093166040840152565b6060820152611973611e8d565b934285528e8501526040840152606083019015159052565b61199d885f52600860205260405f2090565b613d57565b805160c08101516119dd919084906119c2906001600160a01b0316610b30565b6060830151604090930151926001600160a01b031690613b97565b51610120810151869086906001600160a01b031680611a1e575b50505050611a1360405192839260018060a01b03169783613dea565b0390a4604051908152f35b611a36610140611a3c95015163ffffffff60e01b1690565b90613ec4565b5f8585826119f7565b60025461ffff1690611944565b611a6991508c3d8e11610f8957610f7b8183611e6c565b5f611931565b835160800151604051630a30f89360e11b8152996020928b9283918b918391611aa4916001600160a01b031660048401613cff565b03925af1928315610465576119a2885f516020613f8b5f395f51905f529560209b61198b9b91611ad8575b50998a98611936565b611aef91508c3d8e11610f8957610f7b8183611e6c565b5f611acf565b5060208301515115156118cb565b8051608001516001600160a01b03166117cc565b630b857edf60e21b8552600485fd5b805160600151909450611b41906001600160a01b0316610b30565b3303611b4e575f936117c4565b6370b72a5f60e11b5f5260045ffd5b6301da00bf60e21b5f5260045ffd5b905042115f611796565b63cd3cb2bb60e01b5f5260045ffd5b604051638204c62760e01b8152602081600481895afa908115610465575f91611bb0575b509261177e565b611bc9915060203d602011610f8957610f7b8183611e6c565b5f611ba9565b6040516234595d60e31b8152909150602081600481885afa90811561046557611c39916020915f91611c8a575b508451606001516001600160a01b03165b60405163babcc53960e01b81526001600160a01b03909116600482015292839190829081906024820190565b03916001600160a01b03165afa908115610465575f91611c5b575b5090611775565b611c7d915060203d602011611c83575b611c758183611e6c565b8101906132d4565b5f611c54565b503d611c6b565b611ca19150823d841161045e576104508183611e6c565b5f611bfc565b611cc191925060203d602011611c8357611c758183611e6c565b905f61176d565b611cdf9150823d841161045e576104508183611e6c565b5f611715565b346102a1575f3660031901126102a157611cfd613b4d565b5f5b600354811015610563577fc2575a0e9e593c00f959f8c92f12db2869c3395a3b0502d05e2516446f71f85b8101546001600160a01b03165f818152600460205260409020546001929181611d56575b505001611cff565b6001600160a01b0381165f90815260046020526040812055838060a01b031690611d9081611d8a5f5460018060a01b031690565b84613c11565b7eed5939179dc194223f0edd1517ecee2210b22da7f82c8e4b1795e93b9f06aa611ddb858060a01b03611dc95f5460018060a01b031690565b60405194855216929081906020820190565b0390a35f80611d4e565b634e487b7160e01b5f52604160045260245ffd5b604081019081106001600160401b03821117611e1457604052565b611de5565b61016081019081106001600160401b03821117611e1457604052565b61018081019081106001600160401b03821117611e1457604052565b608081019081106001600160401b03821117611e1457604052565b90601f801991011681019081106001600160401b03821117611e1457604052565b604051906102b0608083611e6c565b604051906102b061016083611e6c565b604051906102b061018083611e6c565b604051906102b0604083611e6c565b604051906102b061010083611e6c565b6001600160401b038111611e1457601f01601f191660200190565b929192611f0282611edb565b91611f106040519384611e6c565b8294818452818301116102a1578281602093845f960137010152565b346102a15760803660031901126102a157600435611f4981610320565b60243590611f5682610320565b604435606435926001600160401b0384116102a157366023850112156102a157611f8d610563943690602481600401359101611ef6565b926131ab565b60403660031901126102a157602435600435611fae82610320565b611fc3610b03825f52600760205260405f2090565b8051606001519092906001600160a01b031615610bd6576040516234595d60e31b81527f00000000000000000000000000000000000000000000000000000000000000006001600160a01b031692602082600481875afa91821561046557612044926020915f91612463575b508651608001516001600160a01b0316611726565b03916001600160a01b03165afa918215610465575f92612442575b5081156123a2575b8115612358575f925b833403611b765761010086510151801515908161234e575b50611b5d57602086015115612312578551608001516120af906001600160a01b0316610b30565b3303612303575b6001600160a01b038116156122ed57935b6120dc6117e1835f52600960205260405f2090565b6120f1610b60845f52600760205260405f2090565b612106610b7a845f52600960205260405f2090565b865160608101516001600160a01b03166080820151909190899061216c906001600160a01b031692604081015160a08201519061189460e061215c61215460c087015160018060a01b031690565b9551426130fc565b9651015196611884611875611ecb565b600260a084015260c083015260e0820152815151158015906122df575b1561225c578751608001516121c493602092849289906001600160a01b0316604051624b382960e01b81529788958694859360048501613d21565b03925af1958615610465576020976119a2975f516020613f8b5f395f51905f52945f9161223f575b509788965b61198b8b8451015191805f14612233575f5b61222561220e611e8d565b915f83528f5f90840152604083019061ffff169052565b5f6060820152611973611e8d565b60025461ffff16612203565b61225691508a3d8c11610f8957610f7b8183611e6c565b5f6121ec565b875160800151604051630a30f89360e11b815293602092859283918a918391612291916001600160a01b031660048401613cff565b03925af1958615610465576020976119a2975f516020613f8b5f395f51905f52945f916122c2575b509788966121f1565b6122d991508a3d8c11610f8957610f7b8183611e6c565b5f6122b9565b506020820151511515612189565b508451608001516001600160a01b0316936120c7565b630b857edf60e21b5f5260045ffd5b85516060015161232a906001600160a01b0316610b30565b3303611b4e576001600160a01b038116156120b657630b857edf60e21b5f5260045ffd5b905042115f612088565b604051638204c62760e01b8152602081600481885afa908115610465575f91612383575b5092612070565b61239c915060203d602011610f8957610f7b8183611e6c565b5f61237c565b6040516234595d60e31b8152909150602081600481875afa908115610465576123e4916020915f91612425575b508651606001516001600160a01b0316611c0d565b03916001600160a01b03165afa908115610465575f91612406575b5090612067565b61241f915060203d602011611c8357611c758183611e6c565b5f6123ff565b61243c9150823d841161045e576104508183611e6c565b5f6123cf565b61245c91925060203d602011611c8357611c758183611e6c565b905f61205f565b61247a9150823d841161045e576104508183611e6c565b5f61202f565b346102a15760203660031901126102a15760043561249d81610320565b6124a5613b4d565b6001600160a01b0381165f8181526005602052604090205490919060ff16156124f0575b507f8ac7e85f445e8ee1c850abbfcd9da63ccb7b527c076290946108a7c2802470965f80a2005b61251090825f52600560205260405f20600160ff19825416179055613267565b5f6124c9565b61036191602061252f8351604084526040840190610c9b565b920151906020818403910152610c9b565b906020610361928181520190612516565b346102a15760203660031901126102a1576004356060602060405161257581611df9565b8281520152600154811015610bd6575f52600960205261043261259a60405f20613145565b60405191829182612540565b61ffff8116036102a157565b346102a15760203660031901126102a15761ffff6004356125d2816125a6565b6125da613b4d565b1661271081116126285760407f26bc4a9b6ef30ec448ec7094c0f1002b0c6b8363d6a56be88ce399f1ac3d92f991600254908061ffff1983161760025561ffff8351921682526020820152a1005b631752ff0760e31b5f5260045ffd5b346102a15760403660031901126102a15760043561265481610320565b60243561266081610320565b60405163e985e9c560e01b81526001600160a01b039283166004820152908216602482015290602090829060449082907f0000000000000000000000000000000000000000000000000000000000000000165afa801561046557610432915f916126d8575b5060405190151581529081906020820190565b6126f1915060203d602011611c8357611c758183611e6c565b5f6126c5565b346102a15760203660031901126102a15760043561271481610320565b61271c613b4d565b6001600160a01b0316801561276d575f80546001600160a01b03198116831782556001600160a01b0316907f8be0079c531659141344cd1fd0a4f28419497f9722a3daafe3b4186f6b6457e09080a3005b631e4fbdf760e01b5f525f60045260245ffd5b51906102b082610320565b908160209103126102a1575161036181610320565b6040513d5f823e3d90fd5b519060068210156102a157565b519060038210156102a157565b90816101609103126102a1576128726101406127df611e9c565b928051845260208101516020850152604081015160408501526060810151606085015261280e60808201612780565b608085015261281f60a08201612780565b60a085015261283060c08201612780565b60c085015261284160e08201612780565b60e08501526128536101008201612780565b61010085015261286661012082016127ab565b610120850152016127b8565b61014082015290565b9080601f830112156102a15781602061036193359101611ef6565b6001600160a01b03169081158015612913575b61290f57815f5260066020526128d38160405f209063ffffffff60e01b165f5260205260405f2090565b805460ff191660011790556001600160e01b031916907f177c467a5dec0610cb3afa435a1f7efa9cd39bf81ff2273f06ae7668a00e310b5f80a3565b5050565b506001600160e01b03198116156128a9565b6040519061293282611df9565b5f6020838281520152565b6040519061294a82611e35565b815f81525f60208201525f60408201525f60608201525f60808201525f60a08201525f60c08201525f60e08201525f6101008201525f61012082015261298e612925565b610140820152610160604051916129a483611e51565b5f83525f60208401525f60408401525f60608401520152565b906040516129ca81611df9565b602061ffff829454818116845260101c16910152565b906102b06040516129f081611e51565b6060612a4f6006839680548552612a09600182016129bd565b6020860152604051612a1a81611e51565b600282015481526003820154602082015261ffff60048301541660408201526005820154858201526040860152015460ff1690565b1515910152565b634e487b7160e01b5f52601160045260245ffd5b5f19810191908211612a7857565b612a56565b91908203918211612a7857565b908160809103126102a157606060405191612aa483611e51565b80518352602081015160208401526040810151612ac0816125a6565b60408401520151606082015290565b612b036102b09460809397969461010084019884526020840152604083019061ffff60208092828151168552015116910152565b019060608091805184526020810151602085015261ffff60408201511660408501520151910152565b60068210156109285752565b60038210156109285752565b612b4c61293d565b50604051635aef244760e01b815260048101829052610160816024816001600160a01b037f0000000000000000000000000000000000000000000000000000000000000000165afa908115610465575f91612dc9575b50612bd5612bd0610100830193612bc26104fe865160018060a01b031690565b5f52600860205260405f2090565b6129e0565b6101208201918251612be68161091e565b612bef8161091e565b158015612dac575b8015612d8f575b612cf0575b8051936020820151935191612c178361091e565b61014081015191612c278361093a565b60a08201516001600160a01b031660c08301516001600160a01b031660e08401519091906001600160a01b031692516001600160a01b03169360400151948751966020890151986040015199612c7b611eac565b9b8c5260208c0152612c909060408c01612b2c565b612c9d9060608b01612b38565b6001600160a01b031660808901526001600160a01b031660a08801526001600160a01b031660c08701526001600160a01b031660e086015261010085015261012084015261014083015261016082015290565b612d008151602083015190612a7d565b82519060806020850151926040860192612d308451604051968794859463ff7f444360e01b865260048601612acf565b038173__$09d4d2ef7b19ad896b68909a5b9f536be4$__5af4918215610465575f92612d5e575b5052612c03565b612d8191925060803d608011612d88575b612d798183611e6c565b810190612a8a565b905f612d57565b503d612d6f565b5060058351612d9d8161091e565b612da68161091e565b14612bfe565b5060018351612dba8161091e565b612dc38161091e565b14612bf7565b612de291506101603d811161058d5761057f8183611e6c565b5f612ba2565b90600182811c92168015612e16575b6020831014612e0257565b634e487b7160e01b5f52602260045260245ffd5b91607f1691612df7565b9060405191825f825492612e3384612de8565b8084529360018116908115612e9c5750600114612e58575b506102b092500383611e6c565b90505f9291925260205f20905f915b818310612e805750509060206102b0928201015f612e4b565b6020919350806001915483858901015201910190918492612e67565b9050602092506102b094915060ff191682840152151560051b8201015f612e4b565b906102b0604051612ece81611df9565b6020612a4f600a8396612edf611e9c565b81548152612eef600183016129bd565b858201526002820154604082015260038201546001600160a01b0316606082015260048201546001600160a01b03166080820152612f2f60058301612e20565b60a08201526006820154612f57906001600160a01b03165b6001600160a01b031660c0830152565b600782015460e0820152600882015461010082015260098201546001600160a01b038116610120830152612fab90612f999060401b6001600160e01b03191690565b6001600160e01b031916610140830152565b8552015460ff1690565b818110612fc0575050565b5f8155600101612fb5565b612fd58154612de8565b9081612fdf575050565b81601f5f9311600114612ff0575055565b8183526020832061300c91601f0160051c810190600101612fb5565b808252602082209081548360011b9084198560031b1c191617905555565b600a5f9182815582600182015582600282015582600382015582600482015561305560058201612fcb565b8260068201558260078201558260088201558260098201550155565b60016102b09161308081612fcb565b01612fcb565b908160209103126102a1575190565b60035480156130e8575f198101906003548210156108ab5760035f8190527fc2575a0e9e593c00f959f8c92f12db2869c3395a3b0502d05e2516446f71f85a90910180546001600160a01b031916905555565b634e487b7160e01b5f52603160045260245ffd5b91908201809211612a7857565b906060600391805184556020810151600185015561313e61ffff604083015116600286019061ffff1661ffff19825416179055565b0151910155565b9060405161315281611df9565b602061316c6001839561316481612e20565b855201612e20565b910152565b6001600160a01b03918216815291811660208301529091166040820152606081019190915260a06080820181905261036192910190610c9b565b604051635aef244760e01b8152600481018490529092916001600160a01b037f0000000000000000000000000000000000000000000000000000000000000000169161016081602481865afa8015610465576101006104fe9161321d935f91610565575001516001600160a01b031690565b813b156102a1575f8094613248604051978896879586946307e79c8f60e51b86523360048701613171565b03925af18015610465576132595750565b8061055d5f6102b093611e6c565b6003549068010000000000000000821015611e1457600182016003556003548210156108ab5760035f527fc2575a0e9e593c00f959f8c92f12db2869c3395a3b0502d05e2516446f71f85b90910180546001600160a01b0319166001600160a01b03909216919091179055565b908160209103126102a1575161036181611594565b306001600160a01b03909116036132fc57565b633338cdbd60e11b5f523360045260245ffd5b90815160208301518103908111612a7857610160909201515190565b3561036181610320565b5f198114612a785760010190565b91908260409103126102a15760405161335b81611df9565b6020808294803561336b816125a6565b8452013591613379836125a6565b0152565b919091610180818403126102a157613393611e9c565b92813584526133a58160208401613343565b6020850152606082013560408501526133c060808301610331565b60608501526133d160a08301610331565b608085015260c0820135916001600160401b0383116102a1576133fc6101609261344294830161287b565b60a086015261340d60e08201610331565b60c086015261010081013560e08601526101208101356101008601526134366101408201610331565b610120860152016102a5565b610140830152565b9190601f811161345957505050565b6102b0925f5260205f20906020601f840160051c83019310613483575b601f0160051c0190612fb5565b9091508190613476565b91909182516001600160401b038111611e14576134b4816134ae8454612de8565b8461344a565b6020601f82116001146134f35781906134e49394955f926134e8575b50508160011b915f199060031b1c19161790565b9055565b015190505f806134d0565b601f19821690613506845f5260205f2090565b915f5b81811061354057509583600195969710613528575b505050811b019055565b01515f1960f88460031b161c191690555f808061351e565b9192602060018192868b015181550194019201613509565b600a61367560206102b09461366e8151805187556135a584820151600189018151815460209093015163ffffffff1990931661ffff9091161760109290921b63ffff000016919091179055565b6040810151600288015560608101516003880180546001600160a01b039283166001600160a01b031991821617909155608083015160048a01805491909316911617905560a08101516135fb906005890161348d565b60c08101516006880180546001600160a01b0319166001600160a01b0392831617905560e0820151600789015561010082015160088901556101208201516009890180546101409094015163ffffffff60a01b60409190911c166001600160c01b03199094169190921617919091179055565b0151151590565b91019060ff801983541691151516179055565b91909182519283516001600160401b038111611e14576136b2816136ac8554612de8565b8561344a565b6020601f82116001146136f557916136e9826020936001956102b098995f926134e85750508160011b915f199060031b1c19161790565b84555b0151910161348d565b601f19821695613708855f5260205f2090565b965f5b81811061374e5750926102b096976001959386938360209710613736575b505050811b0184556136ec565b01515f1960f88460031b161c191690555f8080613729565b8383015189556001909801976020938401930161370b565b61ffff60208092828135613779816125a6565b1685520135613787816125a6565b16910152565b9035601e19823603018112156102a15701602081359101916001600160401b0382116102a15781360383136102a157565b908060209392818452848401375f828201840152601f01601f1916010190565b916103619260408152823560408201526137fe6060820160208501613766565b606083013560a0820152613817612f4760808501610331565b61383661382660a08501610331565b6001600160a01b031660e0830152565b6138d36138c161016061386361384f60c088018861378d565b6101806101008801526101c08701916137be565b9561388461387360e08301610331565b6001600160a01b0316610120870152565b610100810135610140860152610120810135828601526138bb6138aa6101408301610331565b6001600160a01b0316610180870152565b016102a5565b6001600160e01b0319166101a0830152565b6020818403910152612516565b60808101356138ee81610320565b6001600160a01b03163314801580613b35575b610ba757813515613b26576001600160a01b0361392060e0840161332b565b1615613b175764ffffffffff61010083013511613b08576101208201358015159081613afe575b50611b5d57610140820161395d610b308261332b565b613a91575b5073__$09d4d2ef7b19ad896b68909a5b9f536be4$__803b156102a1575f6040518092639d6c6ae760e01b825281806139a16020890160048301613e0b565b03915af4801561046557613a2a947fa94a87c6a478ee9e74c583560db13c9b623c84cf97e82551f872fcd1a4800ffc92613a4992613a7d575b506001549586946139f26139ed87613335565b600155565b613a136139fd611ebc565b91613a08368a61337d565b835215156020830152565b613a25865f52600760205260405f2090565b613558565b80515115801590613a6f575b613a4f575b6040519182913396836137de565b0390a390565b613a6a81613a65865f52600960205260405f2090565b613688565b613a3b565b506020810151511515613a36565b8061055d5f613a8b93611e6c565b5f6139da565b613ae1611028613abf613aa6613ae59461332b565b6001600160a01b03165f90815260066020526040902090565b613acc6101608701613e01565b63ffffffff60e01b165f5260205260405f2090565b1590565b613aef575f613962565b638e792a0560e01b5f5260045ffd5b905042115f613947565b63d7c43e0f60e01b5f5260045ffd5b635885ca3f60e11b5f5260045ffd5b63d88194e160e01b5f5260045ffd5b50613b45610b3060a0840161332b565b331415613901565b5f546001600160a01b03163303613b6057565b63118cdaa760e01b5f523360045260245ffd5b9061ffff80931692839116019161ffff8311612a785761ffff610361931691613e39565b905f6064926020958295604051946323b872dd60e01b86526004860152602485015260448401525af13d15601f3d1160015f511416171615613bd557565b60405162461bcd60e51b81526020600482015260146024820152731514905394d1915497d19493d357d1905253115160621b6044820152606490fd5b5f91826044926020956040519363a9059cbb60e01b8552600485015260248401525af13d15601f3d1160015f511416171615613c4957565b60405162461bcd60e51b815260206004820152600f60248201526e1514905394d1915497d19052531151608a1b6044820152606490fd5b9060018060a01b03825116815260018060a01b0360208301511660208201526040820151604082015260e080613cc760608501516101006060860152610100850190610c9b565b6080808601516001600160a01b03169085015293613ced60a082015160a0860190610944565b60c081015160c0850152015191015290565b6001600160a01b03909116815260406020820181905261036192910190613c80565b6001600160a01b039091168152606060208201819052610361939192613d4991840190613c80565b916040818403910152612516565b600661367560606102b0948051855560018501602080830151613d8b61ffff825116849061ffff1661ffff19825416179055565b015163ffff000082549160101b169063ffff000019161790558160408201518051600288015560208101516003880155613ddc61ffff604083015116600489019061ffff1661ffff19825416179055565b015160058601550151151590565b604090610361939281528160208201520190612516565b356103618161028f565b6040810192916102b09190613766565b8115613e25570490565b634e487b7160e01b5f52601260045260245ffd5b91613e448284613f67565b9290938415613eb75784831115613eaa5790829109815f0382168092046002816003021880820260020302808202600203028082026002030280820260020302808202600203028091026002030293600183805f03040190848311900302920304170290565b6011600384150218613f7a565b5050906103619250613e1b565b905f8094613f018295613ef3604051938492602084019788526024840160209093929193604081019481520152565b03601f198101835282611e6c565b51925af13d15613f5f573d90613f1682611edb565b91613f246040519384611e6c565b82523d5f602084013e5b15613f365750565b6040516330b9b6dd60e01b815260206004820152908190613f5b906024830190610c9b565b0390fd5b606090613f2e565b905f198183099102908180821091030391565b634e487b715f526020526024601cfdfe63ed3086527ad0676b4719a7f0d73002be987ac3050d97a6e2dfc20fe0a2c7d2a26469706673582212207ebf675dd48d1bc6baa292b55fd2d2b030bf73e68e6ec7ada420d3cef5585db264736f6c634300081e0033","linkReferences":{"node_modules/@bulla/contracts-v2/src/libraries/CompoundInterestLib.sol":{"CompoundInterestLib":[{"start":12713,"length":20},{"start":15834,"length":20}]}}},"methodIdentifiers":{"_bullaClaim()":"2b538af5","acceptLoan(uint256)":"adfbe22f","acceptLoanWithReceiver(uint256,address)":"b9108c03","addToCallbackWhitelist(address,bytes4)":"307a8088","addToFeeTokenWhitelist(address)":"d4251f9e","admin()":"f851a440","approve(address,uint256)":"095ea7b3","balanceOf(address)":"70a08231","callbackWhitelist(address,bytes4)":"04dbf913","getApproved(uint256)":"081812fc","getLoan(uint256)":"504006ca","getLoanOffer(uint256)":"631f1a3c","getLoanOfferMetadata(uint256)":"db4e0899","getTotalAmountDue(uint256)":"1bc7cd3d","impairLoan(uint256)":"623fb7ce","isApprovedForAll(address,address)":"e985e9c5","isCallbackWhitelisted(address,bytes4)":"a64d6beb","loanOfferCount()":"150a6422","markLoanAsPaid(uint256)":"88046146","offerLoan((uint256,(uint16,uint16),uint256,address,address,string,address,uint256,uint256,address,bytes4))":"a15c24f3","offerLoanWithMetadata((uint256,(uint16,uint16),uint256,address,address,string,address,uint256,uint256,address,bytes4),(string,string))":"2d1982ff","owner()":"8da5cb5b","ownerOf(uint256)":"6352211e","payLoan(uint256,uint256)":"89306e61","protocolFeeBPS()":"96daa322","protocolFeeTokenWhitelist(address)":"a5cc6a7f","protocolFeesByToken(address)":"39737e07","rejectLoanOffer(uint256)":"6208d89c","removeFromCallbackWhitelist(address,bytes4)":"520eb076","removeFromFeeTokenWhitelist(address)":"82459995","renounceOwnership()":"715018a6","safeTransferFrom(address,address,uint256)":"42842e0e","safeTransferFrom(address,address,uint256,bytes)":"b88d4fde","setApprovalForAll(address,bool)":"a22cb465","setProtocolFee(uint16)":"e4467f35","supportsInterface(bytes4)":"01ffc9a7","transferFrom(address,address,uint256)":"23b872dd","transferOwnership(address)":"f2fde38b","whitelistedProtocolFeeTokens(uint256)":"4be18e94","withdrawAllFees()":"af236af4"},"id":55}