{"abi":[{"type":"constructor","inputs":[{"name":"bullaClaim","type":"address","internalType":"address"},{"name":"_owner","type":"address","internalType":"address"},{"name":"_protocolFeeBPS","type":"uint16","internalType":"uint16"},{"name":"_processingFeeBPS","type":"uint16","internalType":"uint16"}],"stateMutability":"nonpayable"},{"type":"function","name":"_bullaClaim","inputs":[],"outputs":[{"name":"","type":"address","internalType":"contract IBullaClaimV2"}],"stateMutability":"view"},{"type":"function","name":"acceptLoan","inputs":[{"name":"offerId","type":"uint256","internalType":"uint256"}],"outputs":[{"name":"","type":"uint256","internalType":"uint256"}],"stateMutability":"payable"},{"type":"function","name":"acceptLoanWithReceiver","inputs":[{"name":"offerId","type":"uint256","internalType":"uint256"},{"name":"receiver","type":"address","internalType":"address"}],"outputs":[{"name":"","type":"uint256","internalType":"uint256"}],"stateMutability":"payable"},{"type":"function","name":"addToCallbackWhitelist","inputs":[{"name":"callbackContract","type":"address","internalType":"address"},{"name":"selector","type":"bytes4","internalType":"bytes4"}],"outputs":[],"stateMutability":"nonpayable"},{"type":"function","name":"addToFeeTokenWhitelist","inputs":[{"name":"token","type":"address","internalType":"address"}],"outputs":[],"stateMutability":"nonpayable"},{"type":"function","name":"admin","inputs":[],"outputs":[{"name":"","type":"address","internalType":"address"}],"stateMutability":"view"},{"type":"function","name":"approve","inputs":[{"name":"to","type":"address","internalType":"address"},{"name":"tokenId","type":"uint256","internalType":"uint256"}],"outputs":[],"stateMutability":"nonpayable"},{"type":"function","name":"balanceOf","inputs":[{"name":"owner","type":"address","internalType":"address"}],"outputs":[{"name":"","type":"uint256","internalType":"uint256"}],"stateMutability":"view"},{"type":"function","name":"callbackWhitelist","inputs":[{"name":"","type":"address","internalType":"address"},{"name":"","type":"bytes4","internalType":"bytes4"}],"outputs":[{"name":"","type":"bool","internalType":"bool"}],"stateMutability":"view"},{"type":"function","name":"getApproved","inputs":[{"name":"tokenId","type":"uint256","internalType":"uint256"}],"outputs":[{"name":"","type":"address","internalType":"address"}],"stateMutability":"view"},{"type":"function","name":"getLoan","inputs":[{"name":"claimId","type":"uint256","internalType":"uint256"}],"outputs":[{"name":"","type":"tuple","internalType":"struct Loan","components":[{"name":"claimAmount","type":"uint256","internalType":"uint256"},{"name":"paidAmount","type":"uint256","internalType":"uint256"},{"name":"status","type":"uint8","internalType":"enum Status"},{"name":"binding","type":"uint8","internalType":"enum ClaimBinding"},{"name":"debtor","type":"address","internalType":"address"},{"name":"creditor","type":"address","internalType":"address"},{"name":"token","type":"address","internalType":"address"},{"name":"controller","type":"address","internalType":"address"},{"name":"dueBy","type":"uint256","internalType":"uint256"},{"name":"acceptedAt","type":"uint256","internalType":"uint256"},{"name":"interestConfig","type":"tuple","internalType":"struct InterestConfig","components":[{"name":"interestRateBps","type":"uint16","internalType":"uint16"},{"name":"numberOfPeriodsPerYear","type":"uint16","internalType":"uint16"}]},{"name":"interestComputationState","type":"tuple","internalType":"struct InterestComputationState","components":[{"name":"accruedInterest","type":"uint256","internalType":"uint256"},{"name":"latestPeriodNumber","type":"uint256","internalType":"uint256"},{"name":"protocolFeeBps","type":"uint16","internalType":"uint16"},{"name":"totalGrossInterestPaid","type":"uint256","internalType":"uint256"}]}]}],"stateMutability":"view"},{"type":"function","name":"getLoanOffer","inputs":[{"name":"offerId","type":"uint256","internalType":"uint256"}],"outputs":[{"name":"","type":"tuple","internalType":"struct LoanOffer","components":[{"name":"params","type":"tuple","internalType":"struct LoanRequestParams","components":[{"name":"termLength","type":"uint256","internalType":"uint256"},{"name":"interestConfig","type":"tuple","internalType":"struct InterestConfig","components":[{"name":"interestRateBps","type":"uint16","internalType":"uint16"},{"name":"numberOfPeriodsPerYear","type":"uint16","internalType":"uint16"}]},{"name":"loanAmount","type":"uint256","internalType":"uint256"},{"name":"creditor","type":"address","internalType":"address"},{"name":"debtor","type":"address","internalType":"address"},{"name":"description","type":"string","internalType":"string"},{"name":"token","type":"address","internalType":"address"},{"name":"impairmentGracePeriod","type":"uint256","internalType":"uint256"},{"name":"expiresAt","type":"uint256","internalType":"uint256"},{"name":"callbackContract","type":"address","internalType":"address"},{"name":"callbackSelector","type":"bytes4","internalType":"bytes4"}]},{"name":"requestedByCreditor","type":"bool","internalType":"bool"}]}],"stateMutability":"view"},{"type":"function","name":"getLoanOfferMetadata","inputs":[{"name":"offerId","type":"uint256","internalType":"uint256"}],"outputs":[{"name":"","type":"tuple","internalType":"struct ClaimMetadata","components":[{"name":"tokenURI","type":"string","internalType":"string"},{"name":"attachmentURI","type":"string","internalType":"string"}]}],"stateMutability":"view"},{"type":"function","name":"getTotalAmountDue","inputs":[{"name":"claimId","type":"uint256","internalType":"uint256"}],"outputs":[{"name":"remainingPrincipal","type":"uint256","internalType":"uint256"},{"name":"grossInterest","type":"uint256","internalType":"uint256"}],"stateMutability":"view"},{"type":"function","name":"impairLoan","inputs":[{"name":"claimId","type":"uint256","internalType":"uint256"}],"outputs":[],"stateMutability":"nonpayable"},{"type":"function","name":"isApprovedForAll","inputs":[{"name":"owner","type":"address","internalType":"address"},{"name":"operator","type":"address","internalType":"address"}],"outputs":[{"name":"","type":"bool","internalType":"bool"}],"stateMutability":"view"},{"type":"function","name":"isCallbackWhitelisted","inputs":[{"name":"callbackContract","type":"address","internalType":"address"},{"name":"selector","type":"bytes4","internalType":"bytes4"}],"outputs":[{"name":"","type":"bool","internalType":"bool"}],"stateMutability":"view"},{"type":"function","name":"loanOfferCount","inputs":[],"outputs":[{"name":"","type":"uint256","internalType":"uint256"}],"stateMutability":"view"},{"type":"function","name":"markLoanAsPaid","inputs":[{"name":"claimId","type":"uint256","internalType":"uint256"}],"outputs":[],"stateMutability":"nonpayable"},{"type":"function","name":"offerLoan","inputs":[{"name":"offer","type":"tuple","internalType":"struct LoanRequestParams","components":[{"name":"termLength","type":"uint256","internalType":"uint256"},{"name":"interestConfig","type":"tuple","internalType":"struct InterestConfig","components":[{"name":"interestRateBps","type":"uint16","internalType":"uint16"},{"name":"numberOfPeriodsPerYear","type":"uint16","internalType":"uint16"}]},{"name":"loanAmount","type":"uint256","internalType":"uint256"},{"name":"creditor","type":"address","internalType":"address"},{"name":"debtor","type":"address","internalType":"address"},{"name":"description","type":"string","internalType":"string"},{"name":"token","type":"address","internalType":"address"},{"name":"impairmentGracePeriod","type":"uint256","internalType":"uint256"},{"name":"expiresAt","type":"uint256","internalType":"uint256"},{"name":"callbackContract","type":"address","internalType":"address"},{"name":"callbackSelector","type":"bytes4","internalType":"bytes4"}]}],"outputs":[{"name":"","type":"uint256","internalType":"uint256"}],"stateMutability":"nonpayable"},{"type":"function","name":"offerLoanWithMetadata","inputs":[{"name":"offer","type":"tuple","internalType":"struct LoanRequestParams","components":[{"name":"termLength","type":"uint256","internalType":"uint256"},{"name":"interestConfig","type":"tuple","internalType":"struct InterestConfig","components":[{"name":"interestRateBps","type":"uint16","internalType":"uint16"},{"name":"numberOfPeriodsPerYear","type":"uint16","internalType":"uint16"}]},{"name":"loanAmount","type":"uint256","internalType":"uint256"},{"name":"creditor","type":"address","internalType":"address"},{"name":"debtor","type":"address","internalType":"address"},{"name":"description","type":"string","internalType":"string"},{"name":"token","type":"address","internalType":"address"},{"name":"impairmentGracePeriod","type":"uint256","internalType":"uint256"},{"name":"expiresAt","type":"uint256","internalType":"uint256"},{"name":"callbackContract","type":"address","internalType":"address"},{"name":"callbackSelector","type":"bytes4","internalType":"bytes4"}]},{"name":"metadata","type":"tuple","internalType":"struct ClaimMetadata","components":[{"name":"tokenURI","type":"string","internalType":"string"},{"name":"attachmentURI","type":"string","internalType":"string"}]}],"outputs":[{"name":"","type":"uint256","internalType":"uint256"}],"stateMutability":"nonpayable"},{"type":"function","name":"owner","inputs":[],"outputs":[{"name":"","type":"address","internalType":"address"}],"stateMutability":"view"},{"type":"function","name":"ownerOf","inputs":[{"name":"tokenId","type":"uint256","internalType":"uint256"}],"outputs":[{"name":"","type":"address","internalType":"address"}],"stateMutability":"view"},{"type":"function","name":"payLoan","inputs":[{"name":"claimId","type":"uint256","internalType":"uint256"},{"name":"paymentAmount","type":"uint256","internalType":"uint256"}],"outputs":[],"stateMutability":"nonpayable"},{"type":"function","name":"processingFeeBPS","inputs":[],"outputs":[{"name":"","type":"uint16","internalType":"uint16"}],"stateMutability":"view"},{"type":"function","name":"protocolFeeBPS","inputs":[],"outputs":[{"name":"","type":"uint16","internalType":"uint16"}],"stateMutability":"view"},{"type":"function","name":"protocolFeeTokenWhitelist","inputs":[{"name":"","type":"address","internalType":"address"}],"outputs":[{"name":"","type":"bool","internalType":"bool"}],"stateMutability":"view"},{"type":"function","name":"protocolFeesByToken","inputs":[{"name":"","type":"address","internalType":"address"}],"outputs":[{"name":"","type":"uint256","internalType":"uint256"}],"stateMutability":"view"},{"type":"function","name":"rejectLoanOffer","inputs":[{"name":"offerId","type":"uint256","internalType":"uint256"}],"outputs":[],"stateMutability":"nonpayable"},{"type":"function","name":"removeFromCallbackWhitelist","inputs":[{"name":"callbackContract","type":"address","internalType":"address"},{"name":"selector","type":"bytes4","internalType":"bytes4"}],"outputs":[],"stateMutability":"nonpayable"},{"type":"function","name":"removeFromFeeTokenWhitelist","inputs":[{"name":"token","type":"address","internalType":"address"}],"outputs":[],"stateMutability":"nonpayable"},{"type":"function","name":"renounceOwnership","inputs":[],"outputs":[],"stateMutability":"nonpayable"},{"type":"function","name":"safeTransferFrom","inputs":[{"name":"from","type":"address","internalType":"address"},{"name":"to","type":"address","internalType":"address"},{"name":"tokenId","type":"uint256","internalType":"uint256"}],"outputs":[],"stateMutability":"nonpayable"},{"type":"function","name":"safeTransferFrom","inputs":[{"name":"from","type":"address","internalType":"address"},{"name":"to","type":"address","internalType":"address"},{"name":"tokenId","type":"uint256","internalType":"uint256"},{"name":"data","type":"bytes","internalType":"bytes"}],"outputs":[],"stateMutability":"nonpayable"},{"type":"function","name":"setApprovalForAll","inputs":[{"name":"operator","type":"address","internalType":"address"},{"name":"approved","type":"bool","internalType":"bool"}],"outputs":[],"stateMutability":"nonpayable"},{"type":"function","name":"setProcessingFee","inputs":[{"name":"_processingFeeBPS","type":"uint16","internalType":"uint16"}],"outputs":[],"stateMutability":"nonpayable"},{"type":"function","name":"setProtocolFee","inputs":[{"name":"_protocolFeeBPS","type":"uint16","internalType":"uint16"}],"outputs":[],"stateMutability":"nonpayable"},{"type":"function","name":"supportsInterface","inputs":[{"name":"interfaceId","type":"bytes4","internalType":"bytes4"}],"outputs":[{"name":"","type":"bool","internalType":"bool"}],"stateMutability":"view"},{"type":"function","name":"transferFrom","inputs":[{"name":"from","type":"address","internalType":"address"},{"name":"to","type":"address","internalType":"address"},{"name":"tokenId","type":"uint256","internalType":"uint256"}],"outputs":[],"stateMutability":"nonpayable"},{"type":"function","name":"transferOwnership","inputs":[{"name":"newOwner","type":"address","internalType":"address"}],"outputs":[],"stateMutability":"nonpayable"},{"type":"function","name":"whitelistedProtocolFeeTokens","inputs":[{"name":"","type":"uint256","internalType":"uint256"}],"outputs":[{"name":"","type":"address","internalType":"address"}],"stateMutability":"view"},{"type":"function","name":"withdrawAllFees","inputs":[],"outputs":[],"stateMutability":"nonpayable"},{"type":"event","name":"Approval","inputs":[{"name":"owner","type":"address","indexed":true,"internalType":"address"},{"name":"approved","type":"address","indexed":true,"internalType":"address"},{"name":"tokenId","type":"uint256","indexed":true,"internalType":"uint256"}],"anonymous":false},{"type":"event","name":"ApprovalForAll","inputs":[{"name":"owner","type":"address","indexed":true,"internalType":"address"},{"name":"operator","type":"address","indexed":true,"internalType":"address"},{"name":"approved","type":"bool","indexed":false,"internalType":"bool"}],"anonymous":false},{"type":"event","name":"CallbackRemovedFromWhitelist","inputs":[{"name":"callbackContract","type":"address","indexed":true,"internalType":"address"},{"name":"selector","type":"bytes4","indexed":true,"internalType":"bytes4"}],"anonymous":false},{"type":"event","name":"CallbackWhitelisted","inputs":[{"name":"callbackContract","type":"address","indexed":true,"internalType":"address"},{"name":"selector","type":"bytes4","indexed":true,"internalType":"bytes4"}],"anonymous":false},{"type":"event","name":"FeeWithdrawn","inputs":[{"name":"admin","type":"address","indexed":true,"internalType":"address"},{"name":"token","type":"address","indexed":true,"internalType":"address"},{"name":"amount","type":"uint256","indexed":false,"internalType":"uint256"}],"anonymous":false},{"type":"event","name":"LoanOfferAccepted","inputs":[{"name":"offerId","type":"uint256","indexed":true,"internalType":"uint256"},{"name":"claimId","type":"uint256","indexed":true,"internalType":"uint256"},{"name":"receiver","type":"address","indexed":true,"internalType":"address"},{"name":"fee","type":"uint256","indexed":false,"internalType":"uint256"},{"name":"processingFee","type":"uint256","indexed":false,"internalType":"uint256"},{"name":"metadata","type":"tuple","indexed":false,"internalType":"struct ClaimMetadata","components":[{"name":"tokenURI","type":"string","internalType":"string"},{"name":"attachmentURI","type":"string","internalType":"string"}]}],"anonymous":false},{"type":"event","name":"LoanOfferRejected","inputs":[{"name":"offerId","type":"uint256","indexed":true,"internalType":"uint256"},{"name":"rejectedBy","type":"address","indexed":true,"internalType":"address"}],"anonymous":false},{"type":"event","name":"LoanOffered","inputs":[{"name":"offerId","type":"uint256","indexed":true,"internalType":"uint256"},{"name":"offeredBy","type":"address","indexed":true,"internalType":"address"},{"name":"loanOffer","type":"tuple","indexed":false,"internalType":"struct LoanRequestParams","components":[{"name":"termLength","type":"uint256","internalType":"uint256"},{"name":"interestConfig","type":"tuple","internalType":"struct InterestConfig","components":[{"name":"interestRateBps","type":"uint16","internalType":"uint16"},{"name":"numberOfPeriodsPerYear","type":"uint16","internalType":"uint16"}]},{"name":"loanAmount","type":"uint256","internalType":"uint256"},{"name":"creditor","type":"address","internalType":"address"},{"name":"debtor","type":"address","internalType":"address"},{"name":"description","type":"string","internalType":"string"},{"name":"token","type":"address","internalType":"address"},{"name":"impairmentGracePeriod","type":"uint256","internalType":"uint256"},{"name":"expiresAt","type":"uint256","internalType":"uint256"},{"name":"callbackContract","type":"address","internalType":"address"},{"name":"callbackSelector","type":"bytes4","internalType":"bytes4"}]},{"name":"metadata","type":"tuple","indexed":false,"internalType":"struct ClaimMetadata","components":[{"name":"tokenURI","type":"string","internalType":"string"},{"name":"attachmentURI","type":"string","internalType":"string"}]}],"anonymous":false},{"type":"event","name":"LoanPayment","inputs":[{"name":"claimId","type":"uint256","indexed":true,"internalType":"uint256"},{"name":"grossInterestPaid","type":"uint256","indexed":false,"internalType":"uint256"},{"name":"principalPaid","type":"uint256","indexed":false,"internalType":"uint256"},{"name":"protocolFee","type":"uint256","indexed":false,"internalType":"uint256"}],"anonymous":false},{"type":"event","name":"OwnershipTransferred","inputs":[{"name":"previousOwner","type":"address","indexed":true,"internalType":"address"},{"name":"newOwner","type":"address","indexed":true,"internalType":"address"}],"anonymous":false},{"type":"event","name":"ProcessingFeeUpdated","inputs":[{"name":"oldFee","type":"uint16","indexed":false,"internalType":"uint16"},{"name":"newFee","type":"uint16","indexed":false,"internalType":"uint16"}],"anonymous":false},{"type":"event","name":"ProtocolFeeUpdated","inputs":[{"name":"oldFee","type":"uint16","indexed":false,"internalType":"uint16"},{"name":"newFee","type":"uint16","indexed":false,"internalType":"uint16"}],"anonymous":false},{"type":"event","name":"TokenAddedToFeesWhitelist","inputs":[{"name":"token","type":"address","indexed":true,"internalType":"address"}],"anonymous":false},{"type":"event","name":"TokenRemovedFromFeesWhitelist","inputs":[{"name":"token","type":"address","indexed":true,"internalType":"address"}],"anonymous":false},{"type":"event","name":"Transfer","inputs":[{"name":"from","type":"address","indexed":true,"internalType":"address"},{"name":"to","type":"address","indexed":true,"internalType":"address"},{"name":"tokenId","type":"uint256","indexed":true,"internalType":"uint256"}],"anonymous":false},{"type":"error","name":"CallbackFailed","inputs":[{"name":"data","type":"bytes","internalType":"bytes"}]},{"type":"error","name":"CallbackNotWhitelisted","inputs":[]},{"type":"error","name":"IncorrectFee","inputs":[]},{"type":"error","name":"InvalidGracePeriod","inputs":[]},{"type":"error","name":"InvalidProtocolFee","inputs":[]},{"type":"error","name":"InvalidTermLength","inputs":[]},{"type":"error","name":"LoanOfferExpired","inputs":[]},{"type":"error","name":"LoanOfferNotFound","inputs":[]},{"type":"error","name":"NativeTokenNotSupported","inputs":[]},{"type":"error","name":"NotController","inputs":[{"name":"sender","type":"address","internalType":"address"}]},{"type":"error","name":"NotCreditor","inputs":[]},{"type":"error","name":"NotCreditorOrDebtor","inputs":[]},{"type":"error","name":"NotDebtor","inputs":[]},{"type":"error","name":"OwnableInvalidOwner","inputs":[{"name":"owner","type":"address","internalType":"address"}]},{"type":"error","name":"OwnableUnauthorizedAccount","inputs":[{"name":"account","type":"address","internalType":"address"}]}],"bytecode":{"object":"0x60a060405234610462576146746080813803918261001c81610466565b938492833981010312610462576100328161048b565b9061003f6020820161048b565b61005760606100506040850161049f565b930161049f565b6001600160a01b03938416608052921690811561044f575f80546001600160a01b031981168417825561ffff93916001600160a01b03909116907f8be0079c531659141344cd1fd0a4f28419497f9722a3daafe3b4186f6b6457e09080a31661271081116104405761271061ffff8316116104405763ffff00006002549260101b169163ffffffff191617176002556040516040810181811060018060401b038211176103535760405261010b6020610466565b5f8152815261011a6020610466565b5f815260208201908152905180519091906001600160401b03811161035357600a54600181811c91168015610436575b602082101461033557601f81116103d3575b50602092601f821160011461037257928192935f92610367575b50508160011b915f199060031b1c191617600a555b5180516001600160401b03811161035357600b54600181811c91168015610349575b602082101461033557601f81116102d2575b50602091601f8211600114610272579181925f92610267575b50508160011b915f199060031b1c191617600b555b6040516141c590816104af8239608051818181610404015281816104c90152818161066c0152818161071a01528181610cf101528181610f6201528181610ff60152818161123d015281816114de015281816116b5015281816117bc01528181612171015281816127f001528181612cf4015261334e0152f35b015190505f806101d8565b601f19821692600b5f52805f20915f5b8581106102ba575083600195106102a2575b505050811b01600b556101ed565b01515f1960f88460031b161c191690555f8080610294565b91926020600181928685015181550194019201610282565b600b5f527f0175b7a638427703f0dbe7bb9bbf987a2551717b34e79f33b5b1008d1fa01db9601f830160051c8101916020841061032b575b601f0160051c01905b81811061032057506101bf565b5f8155600101610313565b909150819061030a565b634e487b7160e01b5f52602260045260245ffd5b90607f16906101ad565b634e487b7160e01b5f52604160045260245ffd5b015190505f80610176565b601f19821693600a5f52805f20915f5b8681106103bb57508360019596106103a3575b505050811b01600a5561018b565b01515f1960f88460031b161c191690555f8080610395565b91926020600181928685015181550194019201610382565b600a5f527fc65a7bb8d6351c1cf70c95a316cc6a92839c986682d98bc35f958f4883f9d2a8601f830160051c8101916020841061042c575b601f0160051c01905b818110610421575061015c565b5f8155600101610414565b909150819061040b565b90607f169061014a565b631752ff0760e31b5f5260045ffd5b631e4fbdf760e01b5f525f60045260245ffd5b5f80fd5b6040519190601f01601f191682016001600160401b0381118382101761035357604052565b51906001600160a01b038216820361046257565b519061ffff821682036104625756fe60806040526004361015610011575f80fd5b5f3560e01c806301ffc9a7146102aa57806304dbf9131461021e578063081812fc146102a5578063095ea7b3146102a0578063150a64221461029b5780631bc7cd3d1461029657806323b872dd146102915780632b538af51461028c5780632d1982ff14610287578063307a80881461028257806339737e071461027d57806342842e0e146102785780634be18e9414610273578063504006ca1461026e578063520eb0761461026957806352331cf8146102645780636208d89c1461025f578063623fb7ce1461025a578063631f1a3c146102555780636352211e1461025057806370a082311461024b578063715018a6146102465780638245999514610241578063880461461461023c57806389306e61146102375780638da5cb5b146101ec57806396daa32214610232578063a15c24f31461022d578063a22cb46514610228578063a5cc6a7f14610223578063a64d6beb1461021e578063adfbe22f14610219578063af236af414610214578063b88d4fde1461020f578063b9108c031461020a578063d4251f9e14610205578063db4e089914610200578063e4467f35146101fb578063e985e9c5146101f6578063f2fde38b146101f1578063f851a440146101ec5763fce5f608146101e7575f80fd5b6128de565b6115cd565b612855565b612795565b612712565b6126bd565b6125ec565b61211c565b6120b5565b611e6e565b611771565b610384565b611731565b611688565b611615565b6115f4565b6112c0565b61120a565b6110c0565b611069565b610faf565b610f2c565b610e82565b610cbe565b610bb3565b610b06565b610a86565b610971565b6108d0565b610876565b61083b565b61081c565b610758565b610705565b61063d565b6105db565b6105be565b61048a565b6103ce565b6102d2565b6001600160e01b03198116036102c157565b5f80fd5b35906102d0826102af565b565b346102c15760203660031901126102c15760206004356102f1816102af565b63ffffffff60e01b16635f634e6f60e01b811490811561032f575b811561031e575b506040519015158152f35b6301ffc9a760e01b1490505f610313565b6380ac58cd60e01b8114915061030c565b6001600160a01b038116036102c157565b35906102d082610340565b60409060031901126102c15760043561037481610340565b90602435610381816102af565b90565b346102c157602060ff6103c26103993661035c565b9060018060a01b03165f526006845260405f209063ffffffff60e01b165f5260205260405f2090565b54166040519015158152f35b346102c15760203660031901126102c15760405163020604bf60e21b815260048035908201526020816024816001600160a01b037f0000000000000000000000000000000000000000000000000000000000000000165afa801561048557610452915f91610456575b506040516001600160a01b0390911681529081906020820190565b0390f35b610478915060203d60201161047e575b6104708183611ff5565b81019061290d565b5f610437565b503d610466565b612922565b346102c15760403660031901126102c1576004356104a781610340565b604051635aef244760e01b815260248035600483018190526001600160a01b037f0000000000000000000000000000000000000000000000000000000000000000169392909161016090829081875afa80156104855761010061051e91610523935f91610585575b5001516001600160a01b031690565b61346b565b823b156102c1576040516352ec852960e01b81523360048201526001600160a01b0390921660248301526044820152905f908290818381606481015b03925af180156104855761056f57005b8061057d5f61058393611ff5565b806105b4565b005b6105a791506101603d81116105ad575b61059f8183611ff5565b810190612947565b5f61050f565b503d610595565b5f9103126102c157565b346102c1575f3660031901126102c1576020600154604051908152f35b346102c15760203660031901126102c1576105ff6105fa600435612cc6565b613491565b60408051928352602083019190915290f35b60609060031901126102c15760043561062981610340565b9060243561063681610340565b9060443590565b346102c15761064b36610611565b604051635aef244760e01b8152600481018290529192916001600160a01b037f0000000000000000000000000000000000000000000000000000000000000000169061016081602481855afa80156104855761010061051e916106bd935f91610585575001516001600160a01b031690565b803b156102c1576040516357cff26f60e11b81523360048201526001600160a01b03938416602482015293909216604484015260648301525f9082908183816084810161055f565b346102c1575f3660031901126102c1576040517f00000000000000000000000000000000000000000000000000000000000000006001600160a01b03168152602090f35b90816101809103126102c15790565b346102c15760403660031901126102c1576004356001600160401b0381116102c157610788903690600401610749565b6024356001600160401b0381116102c157604060031982360301126102c1576040516107b381611f82565b81600401356001600160401b0381116102c1576107d690600436918501016129fd565b81526024820135926001600160401b0384116102c15761080261080c93600461045296369201016129fd565b6020830152613a6e565b6040519081529081906020820190565b346102c15761058361082d3661035c565b90610836613cdb565b612a18565b346102c15760203660031901126102c15760043561085881610340565b60018060a01b03165f526004602052602060405f2054604051908152f35b346102c15761058361088736610611565b9060405192610897602085611ff5565b5f845261332d565b634e487b7160e01b5f52603260045260245ffd5b6003548110156108cb5760035f5260205f2001905f90565b61089f565b346102c15760203660031901126102c1576004356003548110156102c15760035f527fc2575a0e9e593c00f959f8c92f12db2869c3395a3b0502d05e2516446f71f85b01546040516001600160a01b039091168152602090f35b634e487b7160e01b5f52602160045260245ffd5b6006111561094857565b61092a565b9060068210156109485752565b6003111561094857565b9060038210156109485752565b346102c15760203660031901126102c157610200610990600435612cc6565b610a846101606040519280518452602081015160208501526109ba6040820151604086019061094d565b6109cc60608201516060860190610964565b6080818101516001600160a01b03169085015260a0818101516001600160a01b03169085015260c0818101516001600160a01b03169085015260e0818101516001600160a01b031690850152610100810151610100850152610120810151610120850152610a5461014082015161014086019061ffff60208092828151168552015116910152565b0151805161018084015260208101516101a0840152604081015161ffff166101c0840152606001516101e0830152565bf35b346102c157610a943661035c565b90610a9d613cdb565b6001600160a01b03165f8181526006602090815260408083206001600160e01b031995909516808452949091528120805460ff191690557f36112db5f88f36037ce600104320a87f5636f34183686bbc76a66ec5588fccc99080a3005b61ffff8116036102c157565b346102c15760203660031901126102c157600435610b2381610afa565b610b2b613cdb565b61271061ffff821611610ba4577f94d513c10ff5e8f0454d36f41da1d81583ca73420fcfff120599b4b73cdf1e6d9061ffff60025460101c1660025463ffff00008360101b169063ffff0000191617600255610b9f6040519283928390929161ffff60209181604085019616845216910152565b0390a1005b631752ff0760e31b5f5260045ffd5b346102c15760203660031901126102c157600435610be1610bdc825f52600760205260405f2090565b613040565b8051606001516001600160a01b031615610caf57516060810151610c15906001600160a01b03165b6001600160a01b031690565b3314159081610c8f575b50610c8057610c3e610c39825f52600760205260405f2090565b6131ac565b610c58610c53825f52600960205260405f2090565b6131f3565b33907f5c6eae33ff1cd222fb8964d3a9cb61f3c59d868bb587b0ad1f131fb6d99328ad5f80a3005b632eb6da6160e11b5f5260045ffd5b60800151610ca691506001600160a01b0316610c09565b3314155f610c1f565b631d044d6160e01b5f5260045ffd5b346102c15760203660031901126102c157604051635aef244760e01b815260048035908201819052906001600160a01b037f0000000000000000000000000000000000000000000000000000000000000000169061016081602481855afa80156104855761010061051e91610d42935f91610585575001516001600160a01b031690565b803b156102c157604051631840f6c560e11b815233600482015260248101839052905f9082908183816044810161055f565b805180835260209291819084018484015e5f828201840152601f01601f1916010190565b610381906020815260406020845194828285015285516060850152610dd482870151608086019061ffff60208092828151168552015116910152565b8583015160c085015260608601516001600160a01b031660e085015260808601516001600160a01b0316610100850152610e79610140610e2660a08901516101806101208901526101e0880190610d74565b60c08901516001600160a01b0316878301529760e08101516101608801526101008101516101808801526101208101516001600160a01b03166101a088015201516001600160e01b0319166101c0860152565b01511515910152565b346102c15760203660031901126102c1576004355f6020604051610ea581611f82565b604051610eb181611fa2565b838152610ebc612aa7565b83820152836040820152836060820152836080820152606060a08201528360c08201528360e082015283610100820152836101208201528361014082015281520152600154811015610caf57610f20610bdc610452925f52600760205260405f2090565b60405191829182610d98565b346102c15760203660031901126102c1576040516331a9108f60e11b815260048035908201526020816024816001600160a01b037f0000000000000000000000000000000000000000000000000000000000000000165afa801561048557610452915f9161045657506040516001600160a01b0390911681529081906020820190565b346102c15760203660031901126102c157600435610fcc81610340565b6040516370a0823160e01b81526001600160a01b03918216600482015290602090829060249082907f0000000000000000000000000000000000000000000000000000000000000000165afa801561048557610452915f9161103a575b506040519081529081906020820190565b61105c915060203d602011611062575b6110548183611ff5565b810190613208565b5f611029565b503d61104a565b346102c1575f3660031901126102c157611081613cdb565b5f80546001600160a01b0319811682556001600160a01b03167f8be0079c531659141344cd1fd0a4f28419497f9722a3daafe3b4186f6b6457e08280a3005b346102c15760203660031901126102c1576004356110dd81610340565b6110e5613cdb565b6001600160a01b0381165f908152600560205260409020611108905b5460ff1690565b61113c575b6001600160a01b03167fceeec53cbb10af8d416c74d15b37f2c8761d65af488132f6de71b01176ad23345f80a2005b6001600160a01b0381165f818152600560205260408120805460ff191690555b60035480821015611202578261118b611174846108b3565b90546001600160a01b039260039290921b1c821690565b161461119a575060010161115c565b6111f592506111cb6111b66111b16111d193612bec565b6108b3565b905460039190911b1c6001600160a01b031690565b916108b3565b81546001600160a01b0393841660039290921b91821b9390911b1916919091179055565b6111fd613217565b61110d565b50505061110d565b346102c15760203660031901126102c157604051635aef244760e01b815260048035908201819052906001600160a01b037f0000000000000000000000000000000000000000000000000000000000000000169061016081602481855afa80156104855761010061051e9161128e935f91610585575001516001600160a01b031690565b803b156102c157604051632a982aeb60e01b815233600482015260248101839052905f9082908183816044810161055f565b346102c15760403660031901126102c1576004356024356112e082612cc6565b906113146113026113096112f385613491565b90928186188287100290911890565b8094612bff565b818082109118021890565b90610160830161138c61132983835151612bff565b825161136d602082015191611351876060611349604085015161ffff1690565b93015161327e565b9261135a612016565b948552602085015261ffff166040840152565b60608201526002611386885f52600860205260405f2090565b0161328b565b611396838361327e565b906113b660066113ae885f52600860205260405f2090565b015460ff1690565b80156115c5575b1561159257505f905b6113d9846113d48486612bff565b61327e565b94846114dc575b907f06283ce23ea8ff00b2f5df7b85dc1a077d69a207b3b48ecdaf73bf2189dd2e0f9561142e939282611433575b505050604051938493846040919493926060820195825260208201520152565b0390a2005b8361149e575b60c081018051909361146091611457906001600160a01b0316610c09565b30903390613d25565b811561140e5761149060a0611481610c09611496965160018060a01b031690565b9201516001600160a01b031690565b90613d9f565b5f808061140e565b60c08101516114ca906001600160a01b03165b6001600160a01b03165f90815260046020526040902090565b6114d585825461327e565b9055611439565b7f00000000000000000000000000000000000000000000000000000000000000006001600160a01b03169590929190863b156102c157604051628c107560e01b81523360048201526024810189905260448101879052965f908890606490829084905af1938415610485577f06283ce23ea8ff00b2f5df7b85dc1a077d69a207b3b48ecdaf73bf2189dd2e0f9761142e9561157e575b509192935095506113e0565b8061057d5f61158c93611ff5565b5f611572565b6115bf906115b860406115ad61014089015161ffff90511690565b9251015161ffff1690565b9084613d01565b906113c6565b5082156113bd565b346102c1575f3660031901126102c1575f546040516001600160a01b039091168152602090f35b346102c1575f3660031901126102c157602061ffff60025416604051908152f35b346102c15760203660031901126102c1576004356001600160401b0381116102c15761167661164a6020923690600401610749565b6040519061165782611f82565b611661600a612fa2565b825261166d600b612fa2565b84830152613a6e565b604051908152f35b801515036102c157565b346102c1575f60403660031901126102c1576004356116a681610340565b602435906116b38261167e565b7f00000000000000000000000000000000000000000000000000000000000000006001600160a01b031691823b156102c15760405163a22cb46560e01b81526001600160a01b03909216600483015215156024820152905f908290604490829084905af1801561048557611725575080f35b61058391505f90611ff5565b346102c15760203660031901126102c15760043561174e81610340565b60018060a01b03165f526005602052602060ff60405f2054166040519015158152f35b60203660031901126102c1576004355f90611797610bdc825f52600760205260405f2090565b8051606001519092906001600160a01b031615610caf576040516234595d60e31b81527f00000000000000000000000000000000000000000000000000000000000000006001600160a01b031692602082600481875afa91821561048557611840926020915f91611e51575b508651608001516001600160a01b03165b60405163babcc53960e01b81526001600160a01b03909116600482015293849190829081906024820190565b03916001600160a01b03165afa918215610485575f92611e30575b508115611d58575b8115611d0e575f925b833403611cff57610100865101518015159081611cf5575b50611ce657602086015115611cb2578551608001516118ab906001600160a01b0316610c09565b3303611ca3575b8015611c8e5780955b6118d56118d0845f52600960205260405f2090565b6132c7565b9687966118ed610c39865f52600760205260405f2090565b611902610c53865f52600960205260405f2090565b825160608101516001600160a01b031660808201519091906001600160a01b03169061199f60408201519160a081015161195061194860c084015160018060a01b031690565b92514261327e565b9361198560e08b51015196611975611966612054565b6001600160a01b03909a168a52565b6001600160a01b03166020890152565b604087015260608601526001600160a01b03166080850152565b600260a084015260c083015260e082015288515115801590611c80575b15611bf7578351608001516119fa99602093909290918a906001600160a01b03165b604051624b382960e01b81529c8d958694859360048501613eaf565b03925af1801561048557602098611a9985611b4793611a829b5f5160206141705f395f51905f529891611bda575b509a8b995b87518e0151928115611bcd57805b611a5d611a46612016565b8281526020810183905261ffff9093166040840152565b6060820152611a6a612016565b934285528f8501526040840152606083019015159052565b611a94895f52600860205260405f2090565b613ee5565b611abd60408551015161ffff611ab660025461ffff9060101c1690565b1690613fb7565b93611acd85604083510151612bff565b85611ba3575b815160c0810151611b0d9190611af1906001600160a01b0316610c09565b60608201516040906001600160a01b0316920151913091613d25565b80611b79575b5051610120810151889088906001600160a01b031680611b52575b5050505060405193849360018060a01b03169884613f63565b0390a4604051908152f35b611b6a610140611b7095015163ffffffff60e01b1690565b906140a9565b5f878782611b2e565b815160c00151611b9d91908690611b98906001600160a01b0316610c09565b613d9f565b5f611b13565b815160c00151611bbb906001600160a01b03166114b1565b611bc687825461327e565b9055611ad3565b60025461ffff1690611a3b565b611bf191508d3d8f11611062576110548183611ff5565b5f611a28565b835160800151611c2c9950602092906001600160a01b031689604051809c81958294630a30f89360e11b845260048401613e8d565b03925af1801561048557602098611a9985611b4793611a829b5f5160206141705f395f51905f529891611c63575b509a8b99611a2d565b611c7a91508d3d8f11611062576110548183611ff5565b5f611c5a565b5060208901515115156119bc565b8551608001516001600160a01b0316956118bb565b630b857edf60e21b8152600490fd5b50845160600151611ccb906001600160a01b0316610c09565b3303611cd7575f6118b2565b6370b72a5f60e11b5f5260045ffd5b6301da00bf60e21b5f5260045ffd5b905042115f611884565b63cd3cb2bb60e01b5f5260045ffd5b604051638204c62760e01b8152602081600481885afa908115610485575f91611d39575b509261186c565b611d52915060203d602011611062576110548183611ff5565b5f611d32565b6040516234595d60e31b8152909150602081600481875afa90811561048557611dc2916020915f91611e13575b508651606001516001600160a01b03165b60405163babcc53960e01b81526001600160a01b03909116600482015292839190829081906024820190565b03916001600160a01b03165afa908115610485575f91611de4575b5090611863565b611e06915060203d602011611e0c575b611dfe8183611ff5565b810190613456565b5f611ddd565b503d611df4565b611e2a9150823d841161047e576104708183611ff5565b5f611d85565b611e4a91925060203d602011611e0c57611dfe8183611ff5565b905f61185b565b611e689150823d841161047e576104708183611ff5565b5f611803565b346102c1575f3660031901126102c157611e86613cdb565b5f5b600354811015610583577fc2575a0e9e593c00f959f8c92f12db2869c3395a3b0502d05e2516446f71f85b8101546001600160a01b03165f818152600460205260409020546001929181611edf575b505001611e88565b6001600160a01b0381165f90815260046020526040812055838060a01b031690611f1981611f135f5460018060a01b031690565b84613d9f565b7eed5939179dc194223f0edd1517ecee2210b22da7f82c8e4b1795e93b9f06aa611f64858060a01b03611f525f5460018060a01b031690565b60405194855216929081906020820190565b0390a35f80611ed7565b634e487b7160e01b5f52604160045260245ffd5b604081019081106001600160401b03821117611f9d57604052565b611f6e565b61016081019081106001600160401b03821117611f9d57604052565b61018081019081106001600160401b03821117611f9d57604052565b608081019081106001600160401b03821117611f9d57604052565b90601f801991011681019081106001600160401b03821117611f9d57604052565b604051906102d0608083611ff5565b604051906102d061016083611ff5565b604051906102d061018083611ff5565b604051906102d0604083611ff5565b604051906102d061010083611ff5565b6001600160401b038111611f9d57601f01601f191660200190565b92919261208b82612064565b916120996040519384611ff5565b8294818452818301116102c1578281602093845f960137010152565b346102c15760803660031901126102c1576004356120d281610340565b602435906120df82610340565b604435606435926001600160401b0384116102c157366023850112156102c15761211661058394369060248160040135910161207f565b9261332d565b60403660031901126102c15760043560243561213781610340565b61214c610bdc835f52600760205260405f2090565b8051606001519091906001600160a01b031615610caf576040516234595d60e31b81527f00000000000000000000000000000000000000000000000000000000000000006001600160a01b031693602082600481885afa918215610485576121cd926020915f916125cf575b508551608001516001600160a01b0316611814565b03916001600160a01b03165afa918215610485575f926125ae575b50811561250e575b81156124c4575f925b833403611cff576101008551015180151590816124ba575b50611ce65760208501511561247e57845160800151612238906001600160a01b0316610c09565b330361246f575b6001600160a01b0381161561245a575b6122646118d0835f52600960205260405f2090565b9461227a610c39845f52600760205260405f2090565b61228f610c53845f52600960205260405f2090565b805160608101516001600160a01b031660808201519091906001600160a01b0316906122eb60408201519160a08101516122d561194860c084015160018060a01b031690565b9361198560e08951015196611975611966612054565b600260a084015260c083015260e08201528651511580159061244c575b156123c65781516080015161232c98602092899289906001600160a01b03166119de565b03925af191821561048557611b47611a99975f5160206141705f395f51905f529460209a5f916123a9575b509889975b611a828c8751015191805f1461239d575f5b61238f612379612016565b5f808252602082015261ffff9092166040830152565b5f6060820152611a6a612016565b60025461ffff1661236e565b6123c091508b3d8d11611062576110548183611ff5565b5f612357565b815160800151604051630a30f89360e11b8152986020928a9283918a9183916123fb916001600160a01b031660048401613e8d565b03925af191821561048557611b47611a99975f5160206141705f395f51905f529460209a5f9161242f575b5098899761235c565b61244691508b3d8d11611062576110548183611ff5565b5f612426565b506020870151511515612308565b508351608001516001600160a01b031661224f565b630b857edf60e21b5f5260045ffd5b845160600151612496906001600160a01b0316610c09565b3303611cd7576001600160a01b0381161561223f57630b857edf60e21b5f5260045ffd5b905042115f612211565b604051638204c62760e01b8152602081600481895afa908115610485575f916124ef575b50926121f9565b612508915060203d602011611062576110548183611ff5565b5f6124e8565b6040516234595d60e31b8152909150602081600481885afa90811561048557612550916020915f91612591575b508551606001516001600160a01b0316611d96565b03916001600160a01b03165afa908115610485575f91612572575b50906121f0565b61258b915060203d602011611e0c57611dfe8183611ff5565b5f61256b565b6125a89150823d841161047e576104708183611ff5565b5f61253b565b6125c891925060203d602011611e0c57611dfe8183611ff5565b905f6121e8565b6125e69150823d841161047e576104708183611ff5565b5f6121b8565b346102c15760203660031901126102c15760043561260981610340565b612611613cdb565b6001600160a01b0381165f8181526005602052604090205490919060ff161561265c575b507f8ac7e85f445e8ee1c850abbfcd9da63ccb7b527c076290946108a7c2802470965f80a2005b61267c90825f52600560205260405f20600160ff198254161790556133e9565b5f612635565b61038191602061269b8351604084526040840190610d74565b920151906020818403910152610d74565b906020610381928181520190612682565b346102c15760203660031901126102c157600435606060206040516126e181611f82565b8281520152600154811015610caf575f52600960205261045261270660405f206132c7565b604051918291826126ac565b346102c15760203660031901126102c15760043561272f81610afa565b612737613cdb565b61ffff8116906127108211610ba4576002805461ffff19811690931790556040805161ffff93841681529190921660208201527f26bc4a9b6ef30ec448ec7094c0f1002b0c6b8363d6a56be88ce399f1ac3d92f99181908101610b9f565b346102c15760403660031901126102c1576004356127b281610340565b6024356127be81610340565b60405163e985e9c560e01b81526001600160a01b039283166004820152908216602482015290602090829060449082907f0000000000000000000000000000000000000000000000000000000000000000165afa801561048557610452915f91612836575b5060405190151581529081906020820190565b61284f915060203d602011611e0c57611dfe8183611ff5565b5f612823565b346102c15760203660031901126102c15760043561287281610340565b61287a613cdb565b6001600160a01b031680156128cb575f80546001600160a01b03198116831782556001600160a01b0316907f8be0079c531659141344cd1fd0a4f28419497f9722a3daafe3b4186f6b6457e09080a3005b631e4fbdf760e01b5f525f60045260245ffd5b346102c1575f3660031901126102c157602061ffff60025460101c16604051908152f35b51906102d082610340565b908160209103126102c1575161038181610340565b6040513d5f823e3d90fd5b519060068210156102c157565b519060038210156102c157565b90816101609103126102c1576129f4610140612961612025565b928051845260208101516020850152604081015160408501526060810151606085015261299060808201612902565b60808501526129a160a08201612902565b60a08501526129b260c08201612902565b60c08501526129c360e08201612902565b60e08501526129d56101008201612902565b6101008501526129e8610120820161292d565b6101208501520161293a565b61014082015290565b9080601f830112156102c1578160206103819335910161207f565b6001600160a01b03169081158015612a95575b612a9157815f526006602052612a558160405f209063ffffffff60e01b165f5260205260405f2090565b805460ff191660011790556001600160e01b031916907f177c467a5dec0610cb3afa435a1f7efa9cd39bf81ff2273f06ae7668a00e310b5f80a3565b5050565b506001600160e01b0319811615612a2b565b60405190612ab482611f82565b5f6020838281520152565b60405190612acc82611fbe565b815f81525f60208201525f60408201525f60608201525f60808201525f60a08201525f60c08201525f60e08201525f6101008201525f610120820152612b10612aa7565b61014082015261016060405191612b2683611fda565b5f83525f60208401525f60408401525f60608401520152565b90604051612b4c81611f82565b602061ffff829454818116845260101c16910152565b906102d0604051612b7281611fda565b6060612bd16006839680548552612b8b60018201612b3f565b6020860152604051612b9c81611fda565b600282015481526003820154602082015261ffff60048301541660408201526005820154858201526040860152015460ff1690565b1515910152565b634e487b7160e01b5f52601160045260245ffd5b5f19810191908211612bfa57565b612bd8565b91908203918211612bfa57565b908160809103126102c157606060405191612c2683611fda565b80518352602081015160208401526040810151612c4281610afa565b60408401520151606082015290565b612c856102d09460809397969461010084019884526020840152604083019061ffff60208092828151168552015116910152565b019060608091805184526020810151602085015261ffff60408201511660408501520151910152565b60068210156109485752565b60038210156109485752565b612cce612abf565b50604051635aef244760e01b815260048101829052610160816024816001600160a01b037f0000000000000000000000000000000000000000000000000000000000000000165afa908115610485575f91612f4b575b50612d57612d52610100830193612d4461051e865160018060a01b031690565b5f52600860205260405f2090565b612b62565b6101208201918251612d688161093e565b612d718161093e565b158015612f2e575b8015612f11575b612e72575b8051936020820151935191612d998361093e565b61014081015191612da98361095a565b60a08201516001600160a01b031660c08301516001600160a01b031660e08401519091906001600160a01b031692516001600160a01b03169360400151948751966020890151986040015199612dfd612035565b9b8c5260208c0152612e129060408c01612cae565b612e1f9060608b01612cba565b6001600160a01b031660808901526001600160a01b031660a08801526001600160a01b031660c08701526001600160a01b031660e086015261010085015261012084015261014083015261016082015290565b612e828151602083015190612bff565b82519060806020850151926040860192612eb28451604051968794859463ff7f444360e01b865260048601612c51565b038173__$09d4d2ef7b19ad896b68909a5b9f536be4$__5af4918215610485575f92612ee0575b5052612d85565b612f0391925060803d608011612f0a575b612efb8183611ff5565b810190612c0c565b905f612ed9565b503d612ef1565b5060058351612f1f8161093e565b612f288161093e565b14612d80565b5060018351612f3c8161093e565b612f458161093e565b14612d79565b612f6491506101603d81116105ad5761059f8183611ff5565b5f612d24565b90600182811c92168015612f98575b6020831014612f8457565b634e487b7160e01b5f52602260045260245ffd5b91607f1691612f79565b9060405191825f825492612fb584612f6a565b808452936001811690811561301e5750600114612fda575b506102d092500383611ff5565b90505f9291925260205f20905f915b8183106130025750509060206102d0928201015f612fcd565b6020919350806001915483858901015201910190918492612fe9565b9050602092506102d094915060ff191682840152151560051b8201015f612fcd565b906102d060405161305081611f82565b6020612bd1600a8396613061612025565b8154815261307160018301612b3f565b858201526002820154604082015260038201546001600160a01b0316606082015260048201546001600160a01b031660808201526130b160058301612fa2565b60a082015260068201546130d9906001600160a01b03165b6001600160a01b031660c0830152565b600782015460e0820152600882015461010082015260098201546001600160a01b03811661012083015261312d9061311b9060401b6001600160e01b03191690565b6001600160e01b031916610140830152565b8552015460ff1690565b818110613142575050565b5f8155600101613137565b6131578154612f6a565b9081613161575050565b81601f5f9311600114613172575055565b8183526020832061318e91601f0160051c810190600101613137565b808252602082209081548360011b9084198560031b1c191617905555565b600a5f918281558260018201558260028201558260038201558260048201556131d76005820161314d565b8260068201558260078201558260088201558260098201550155565b60016102d0916132028161314d565b0161314d565b908160209103126102c1575190565b600354801561326a575f198101906003548210156108cb5760035f8190527fc2575a0e9e593c00f959f8c92f12db2869c3395a3b0502d05e2516446f71f85a90910180546001600160a01b031916905555565b634e487b7160e01b5f52603160045260245ffd5b91908201809211612bfa57565b90606060039180518455602081015160018501556132c061ffff604083015116600286019061ffff1661ffff19825416179055565b0151910155565b906040516132d481611f82565b60206132ee600183956132e681612fa2565b855201612fa2565b910152565b6001600160a01b03918216815291811660208301529091166040820152606081019190915260a06080820181905261038192910190610d74565b604051635aef244760e01b8152600481018490529092916001600160a01b037f0000000000000000000000000000000000000000000000000000000000000000169161016081602481865afa80156104855761010061051e9161339f935f91610585575001516001600160a01b031690565b813b156102c1575f80946133ca604051978896879586946307e79c8f60e51b865233600487016132f3565b03925af18015610485576133db5750565b8061057d5f6102d093611ff5565b6003549068010000000000000000821015611f9d57600182016003556003548210156108cb5760035f527fc2575a0e9e593c00f959f8c92f12db2869c3395a3b0502d05e2516446f71f85b90910180546001600160a01b0319166001600160a01b03909216919091179055565b908160209103126102c157516103818161167e565b306001600160a01b039091160361347e57565b633338cdbd60e11b5f523360045260245ffd5b90815160208301518103908111612bfa57610160909201515190565b3561038181610340565b5f198114612bfa5760010190565b91908260409103126102c1576040516134dd81611f82565b602080829480356134ed81610afa565b84520135916134fb83610afa565b0152565b919091610180818403126102c157613515612025565b928135845261352781602084016134c5565b60208501526060820135604085015261354260808301610351565b606085015261355360a08301610351565b608085015260c0820135916001600160401b0383116102c15761357e610160926135c49483016129fd565b60a086015261358f60e08201610351565b60c086015261010081013560e08601526101208101356101008601526135b86101408201610351565b610120860152016102c5565b610140830152565b8151815461ffff191661ffff9182161782556102d0926020905b0151825463ffff00001916911660101b63ffff000016179055565b9190601f811161361057505050565b6102d0925f5260205f20906020601f840160051c8301931061363a575b601f0160051c0190613137565b909150819061362d565b91909182516001600160401b038111611f9d5761366b816136658454612f6a565b84613601565b6020601f82116001146136aa57819061369b9394955f9261369f575b50508160011b915f199060031b1c19161790565b9055565b015190505f80613687565b601f198216906136bd845f5260205f2090565b915f5b8181106136f7575095836001959697106136df575b505050811b019055565b01515f1960f88460031b161c191690555f80806136d5565b9192602060018192868b0151815501940192016136c0565b600a61380360206102d0946137fc81518051875561373384820151600189016135cc565b6040810151600288015560608101516003880180546001600160a01b039283166001600160a01b031991821617909155608083015160048a01805491909316911617905560a08101516137899060058901613644565b60c08101516006880180546001600160a01b0319166001600160a01b0392831617905560e0820151600789015561010082015160088901556101208201516009890180546101409094015163ffffffff60a01b60409190911c166001600160c01b03199094169190921617919091179055565b0151151590565b91019060ff801983541691151516179055565b91909182519283516001600160401b038111611f9d576138408161383a8554612f6a565b85613601565b6020601f82116001146138835791613877826020936001956102d098995f9261369f5750508160011b915f199060031b1c19161790565b84555b01519101613644565b601f19821695613896855f5260205f2090565b965f5b8181106138dc5750926102d0969760019593869383602097106138c4575b505050811b01845561387a565b01515f1960f88460031b161c191690555f80806138b7565b83830151895560019098019760209384019301613899565b61ffff6020809282813561390781610afa565b168552013561391581610afa565b16910152565b9035601e19823603018112156102c15701602081359101916001600160401b0382116102c15781360383136102c157565b908060209392818452848401375f828201840152601f01601f1916010190565b9161038192604081528235604082015261398c60608201602085016138f4565b606083013560a08201526139a56130c960808501610351565b6139c46139b460a08501610351565b6001600160a01b031660e0830152565b613a61613a4f6101606139f16139dd60c088018861391b565b6101806101008801526101c087019161394c565b95613a12613a0160e08301610351565b6001600160a01b0316610120870152565b61010081013561014086015261012081013582860152613a49613a386101408301610351565b6001600160a01b0316610180870152565b016102c5565b6001600160e01b0319166101a0830152565b6020818403910152612682565b6080810135613a7c81610340565b6001600160a01b03163314801580613cc3575b610c8057813515613cb4576001600160a01b03613aae60e084016134ad565b1615613ca55764ffffffffff61010083013511613c96576101208201358015159081613c8c575b50611ce6576101408201613aeb610c09826134ad565b613c1f575b5073__$09d4d2ef7b19ad896b68909a5b9f536be4$__803b156102c1575f6040518092639d6c6ae760e01b82528180613b2f6020890160048301613f89565b03915af4801561048557613bb8947fa94a87c6a478ee9e74c583560db13c9b623c84cf97e82551f872fcd1a4800ffc92613bd792613c0b575b50600154958694613b80613b7b876134b7565b600155565b613ba1613b8b612045565b91613b96368a6134ff565b835215156020830152565b613bb3865f52600760205260405f2090565b61370f565b80515115801590613bfd575b613bdd575b60405191829133968361396c565b0390a390565b613bf881613bf3865f52600960205260405f2090565b613816565b613bc9565b506020810151511515613bc4565b8061057d5f613c1993611ff5565b5f613b68565b613c6f611101613c4d613c34613c73946134ad565b6001600160a01b03165f90815260066020526040902090565b613c5a6101608701613f7f565b63ffffffff60e01b165f5260205260405f2090565b1590565b613c7d575f613af0565b638e792a0560e01b5f5260045ffd5b905042115f613ad5565b63d7c43e0f60e01b5f5260045ffd5b635885ca3f60e11b5f5260045ffd5b63d88194e160e01b5f5260045ffd5b50613cd3610c0960a084016134ad565b331415613a8f565b5f546001600160a01b03163303613cee57565b63118cdaa760e01b5f523360045260245ffd5b9061ffff80931692839116019161ffff8311612bfa5761ffff61038193169161401e565b905f6064926020958295604051946323b872dd60e01b86526004860152602485015260448401525af13d15601f3d1160015f511416171615613d6357565b60405162461bcd60e51b81526020600482015260146024820152731514905394d1915497d19493d357d1905253115160621b6044820152606490fd5b5f91826044926020956040519363a9059cbb60e01b8552600485015260248401525af13d15601f3d1160015f511416171615613dd757565b60405162461bcd60e51b815260206004820152600f60248201526e1514905394d1915497d19052531151608a1b6044820152606490fd5b9060018060a01b03825116815260018060a01b0360208301511660208201526040820151604082015260e080613e5560608501516101006060860152610100850190610d74565b6080808601516001600160a01b03169085015293613e7b60a082015160a0860190610964565b60c081015160c0850152015191015290565b6001600160a01b03909116815260406020820181905261038192910190613e0e565b6001600160a01b039091168152606060208201819052610381939192613ed791840190613e0e565b916040818403910152612682565b600661380360606102d09480518555613f1d6001860161ffff6020808501516135e683825116859061ffff1661ffff19825416179055565b8160408201518051600288015560208101516003880155613f5561ffff604083015116600489019061ffff1661ffff19825416179055565b015160058601550151151590565b6103819392606092825260208201528160408201520190612682565b35610381816102af565b6040810192916102d091906138f4565b8115613fa3570490565b634e487b7160e01b5f52601260045260245ffd5b613fc1828261414c565b9181156140135781612710111561400c577fbc01a36e2eb1c432ca57a786c226809d495182a9930be0ded288ce703afb7e9193612710910990828211900360fc1b910360041c170290565b601161415f565b506127109250500490565b91614029828461414c565b929093841561409c578483111561408f5790829109815f0382168092046002816003021880820260020302808202600203028082026002030280820260020302808202600203028091026002030293600183805f03040190848311900302920304170290565b601160038415021861415f565b5050906103819250613f99565b905f80946140e682956140d8604051938492602084019788526024840160209093929193604081019481520152565b03601f198101835282611ff5565b51925af13d15614144573d906140fb82612064565b916141096040519384611ff5565b82523d5f602084013e5b1561411b5750565b6040516330b9b6dd60e01b815260206004820152908190614140906024830190610d74565b0390fd5b606090614113565b905f198183099102908180821091030391565b634e487b715f526020526024601cfdfe2a82588a72d442d0ca15bc61c1abab1812c42c9eab1d127cb645dd934fa9136ea26469706673582212201981392151c6c61de1d522fb3c53430e91fe988e71669f88b5288acc25f677fd64736f6c634300081e0033","linkReferences":{"node_modules/@bulla/contracts-v2/src/libraries/CompoundInterestLib.sol":{"CompoundInterestLib":[{"start":13157,"length":20},{"start":16290,"length":20}]}}},"methodIdentifiers":{"_bullaClaim()":"2b538af5","acceptLoan(uint256)":"adfbe22f","acceptLoanWithReceiver(uint256,address)":"b9108c03","addToCallbackWhitelist(address,bytes4)":"307a8088","addToFeeTokenWhitelist(address)":"d4251f9e","admin()":"f851a440","approve(address,uint256)":"095ea7b3","balanceOf(address)":"70a08231","callbackWhitelist(address,bytes4)":"04dbf913","getApproved(uint256)":"081812fc","getLoan(uint256)":"504006ca","getLoanOffer(uint256)":"631f1a3c","getLoanOfferMetadata(uint256)":"db4e0899","getTotalAmountDue(uint256)":"1bc7cd3d","impairLoan(uint256)":"623fb7ce","isApprovedForAll(address,address)":"e985e9c5","isCallbackWhitelisted(address,bytes4)":"a64d6beb","loanOfferCount()":"150a6422","markLoanAsPaid(uint256)":"88046146","offerLoan((uint256,(uint16,uint16),uint256,address,address,string,address,uint256,uint256,address,bytes4))":"a15c24f3","offerLoanWithMetadata((uint256,(uint16,uint16),uint256,address,address,string,address,uint256,uint256,address,bytes4),(string,string))":"2d1982ff","owner()":"8da5cb5b","ownerOf(uint256)":"6352211e","payLoan(uint256,uint256)":"89306e61","processingFeeBPS()":"fce5f608","protocolFeeBPS()":"96daa322","protocolFeeTokenWhitelist(address)":"a5cc6a7f","protocolFeesByToken(address)":"39737e07","rejectLoanOffer(uint256)":"6208d89c","removeFromCallbackWhitelist(address,bytes4)":"520eb076","removeFromFeeTokenWhitelist(address)":"82459995","renounceOwnership()":"715018a6","safeTransferFrom(address,address,uint256)":"42842e0e","safeTransferFrom(address,address,uint256,bytes)":"b88d4fde","setApprovalForAll(address,bool)":"a22cb465","setProcessingFee(uint16)":"52331cf8","setProtocolFee(uint16)":"e4467f35","supportsInterface(bytes4)":"01ffc9a7","transferFrom(address,address,uint256)":"23b872dd","transferOwnership(address)":"f2fde38b","whitelistedProtocolFeeTokens(uint256)":"4be18e94","withdrawAllFees()":"af236af4"},"id":57}