{
  "_format": "hh-sol-artifact-1",
  "contractName": "TestSafe",
  "sourceName": "contracts/mocks/gnosisSafe.sol",
  "abi": [
    {
      "inputs": [
        {
          "internalType": "address[]",
          "name": "owners",
          "type": "address[]"
        },
        {
          "internalType": "uint8",
          "name": "threshold",
          "type": "uint8"
        }
      ],
      "stateMutability": "nonpayable",
      "type": "constructor"
    },
    {
      "anonymous": false,
      "inputs": [
        {
          "indexed": false,
          "internalType": "address",
          "name": "owner",
          "type": "address"
        }
      ],
      "name": "AddedOwner",
      "type": "event"
    },
    {
      "anonymous": false,
      "inputs": [
        {
          "indexed": false,
          "internalType": "uint256",
          "name": "threshold",
          "type": "uint256"
        }
      ],
      "name": "ChangedThreshold",
      "type": "event"
    },
    {
      "anonymous": false,
      "inputs": [
        {
          "indexed": false,
          "internalType": "address",
          "name": "owner",
          "type": "address"
        }
      ],
      "name": "RemovedOwner",
      "type": "event"
    },
    {
      "inputs": [
        {
          "internalType": "address",
          "name": "owner",
          "type": "address"
        },
        {
          "internalType": "uint256",
          "name": "_threshold",
          "type": "uint256"
        }
      ],
      "name": "addOwnerWithThreshold",
      "outputs": [],
      "stateMutability": "nonpayable",
      "type": "function"
    },
    {
      "inputs": [
        {
          "internalType": "uint256",
          "name": "_threshold",
          "type": "uint256"
        }
      ],
      "name": "changeThreshold",
      "outputs": [],
      "stateMutability": "nonpayable",
      "type": "function"
    },
    {
      "inputs": [
        {
          "internalType": "address",
          "name": "",
          "type": "address"
        },
        {
          "internalType": "address",
          "name": "",
          "type": "address"
        }
      ],
      "name": "disableModule",
      "outputs": [],
      "stateMutability": "nonpayable",
      "type": "function"
    },
    {
      "inputs": [
        {
          "internalType": "address",
          "name": "_module",
          "type": "address"
        }
      ],
      "name": "enableModule",
      "outputs": [],
      "stateMutability": "nonpayable",
      "type": "function"
    },
    {
      "inputs": [
        {
          "internalType": "address payable",
          "name": "to",
          "type": "address"
        },
        {
          "internalType": "uint256",
          "name": "value",
          "type": "uint256"
        },
        {
          "internalType": "bytes",
          "name": "data",
          "type": "bytes"
        },
        {
          "internalType": "uint8",
          "name": "operation",
          "type": "uint8"
        }
      ],
      "name": "execTransactionFromModule",
      "outputs": [
        {
          "internalType": "bool",
          "name": "success",
          "type": "bool"
        }
      ],
      "stateMutability": "nonpayable",
      "type": "function"
    },
    {
      "inputs": [],
      "name": "getOwners",
      "outputs": [
        {
          "internalType": "address[]",
          "name": "",
          "type": "address[]"
        }
      ],
      "stateMutability": "view",
      "type": "function"
    },
    {
      "inputs": [],
      "name": "getThreshold",
      "outputs": [
        {
          "internalType": "uint256",
          "name": "",
          "type": "uint256"
        }
      ],
      "stateMutability": "view",
      "type": "function"
    },
    {
      "inputs": [
        {
          "internalType": "address",
          "name": "_module",
          "type": "address"
        }
      ],
      "name": "isModuleEnabled",
      "outputs": [
        {
          "internalType": "bool",
          "name": "",
          "type": "bool"
        }
      ],
      "stateMutability": "view",
      "type": "function"
    },
    {
      "inputs": [
        {
          "internalType": "address",
          "name": "owner",
          "type": "address"
        }
      ],
      "name": "isOwner",
      "outputs": [
        {
          "internalType": "bool",
          "name": "",
          "type": "bool"
        }
      ],
      "stateMutability": "view",
      "type": "function"
    },
    {
      "inputs": [],
      "name": "module",
      "outputs": [
        {
          "internalType": "address",
          "name": "",
          "type": "address"
        }
      ],
      "stateMutability": "view",
      "type": "function"
    },
    {
      "inputs": [
        {
          "internalType": "address",
          "name": "",
          "type": "address"
        },
        {
          "internalType": "address",
          "name": "",
          "type": "address"
        },
        {
          "internalType": "uint256",
          "name": "",
          "type": "uint256"
        },
        {
          "internalType": "bytes",
          "name": "",
          "type": "bytes"
        }
      ],
      "name": "onERC721Received",
      "outputs": [
        {
          "internalType": "bytes4",
          "name": "",
          "type": "bytes4"
        }
      ],
      "stateMutability": "pure",
      "type": "function"
    },
    {
      "inputs": [
        {
          "internalType": "address",
          "name": "prevOwner",
          "type": "address"
        },
        {
          "internalType": "address",
          "name": "owner",
          "type": "address"
        },
        {
          "internalType": "uint256",
          "name": "_threshold",
          "type": "uint256"
        }
      ],
      "name": "removeOwner",
      "outputs": [],
      "stateMutability": "nonpayable",
      "type": "function"
    },
    {
      "inputs": [
        {
          "internalType": "address",
          "name": "prevOwner",
          "type": "address"
        },
        {
          "internalType": "address",
          "name": "oldOwner",
          "type": "address"
        },
        {
          "internalType": "address",
          "name": "newOwner",
          "type": "address"
        }
      ],
      "name": "swapOwner",
      "outputs": [],
      "stateMutability": "nonpayable",
      "type": "function"
    }
  ],
  "bytecode": "0x604060808152346200029d5762000e15803803806200001e81620002e4565b928339810182828203126200029d5781516001600160401b03908181116200029d5783019282601f850112156200029d578351918211620002ce5760059282841b602095868062000071818501620002e4565b8097815201928201019283116200029d5790868094939201905b828210620002a25750505001519260ff84168094036200029d5760025462000273578151841162000249576001928385106200021f5783906000825b62000108575b50506001600160a01b031660009081529081905284902080546001600160a01b0319168317905551905560025551610b0a90816200030b8239f35b90918451821015620002185781831b85018401516001600160a01b0390811691821515806200020d575b8062000202575b80620001f5575b15620001cb578260005260008652818a6000205416620001a15716600090815280855288902080546001600160a01b031916821790559160001982146200018b5790850185620000c7565b634e487b7160e01b600052601160045260246000fd5b606486868c519162461bcd60e51b8352600483015260248201526411d4cc8c0d60da1b6044820152fd5b606486868c519162461bcd60e51b83526004830152602482015264475332303360d81b6044820152fd5b5082828216141562000140565b503083141562000139565b508783141562000132565b91620000cd565b6064925085519162461bcd60e51b8352600483015260248201526423a999181960d91b6044820152fd5b6064908386519162461bcd60e51b83526004830152602482015264475332303160d81b6044820152fd5b6064908386519162461bcd60e51b83526004830152602482015264047533230360dc1b6044820152fd5b600080fd5b815193945091929091906001600160a01b03811681036200029d5781528693929184019084016200008b565b634e487b7160e01b600052604160045260246000fd5b6040519190601f01601f191682016001600160401b03811183821017620002ce5760405256fe60406080815260048036101561001457600080fd5b600091823560e01c80630d582f13146107ab578063150b7a02146107545780632d9ad53d146107255780632f54bf6e146106ce578063468721a7146105d9578063610b5925146105a0578063694e80c31461053b578063a0e67e2b14610439578063b86d529814610410578063e009cfde146103da578063e318b52b14610282578063e75235b81461025f5763f8dc5dd9146100af57600080fd5b3461025b57606036600319011261025b576100c861089b565b916100d16108b6565b92604435936100de610a43565b600154600019919082810190811161024857866100fc911015610987565b6001600160a01b039081169281908415158061023d575b61011c906108fa565b1690818852876020526101358482888b205416146109bb565b8388528760205285882054169087528487206001600160601b0360a01b9182825416179055828752848720908154169055600154801561022a577ff8d49fc529812e9a7c5c50e69c20f0dccc0db8fa95c98bc58cc9a4f1c1299eaf916020910192836001558551908152a183600254036101ad578480f35b6101c1906101b9610a43565b841115610987565b600183106102005750816020917f610f7ff2b304ae8903c3de74c60c6ab1f7d6226b3f52c5161905bb5ad4039c939360025551908152a1388080808480f35b6020606492519162461bcd60e51b8352820152600560248201526423a999181960d91b6044820152fd5b634e487b7160e01b875260118452602487fd5b506001851415610113565b634e487b7160e01b885260118552602488fd5b8280fd5b83823461027e578160031936011261027e576020906002549051908152f35b5080fd5b83823461027e57606036600319011261027e5761029d61089b565b906102a66108b6565b6001600160a01b0391604435838116929086908490036103d7577f9465fa0c962cc76958e6373a993326400c1c94f8be2fe3a952adfa7f60b2ea26958580807ff8d49fc529812e9a7c5c50e69c20f0dccc0db8fa95c98bc58cc9a4f1c1299eaf9561033f60209a898c98610318610a43565b8c1515806103cc575b806103c2575b610330906108fa565b8c8152808a522054161561092e565b1692831515806103b7575b610353906108fa565b1690818a5289845261036b8382888d205416146109bb565b828a52898452858a20541690868a52858a206001600160601b0360a01b9283825416179055895284892086828254161790558189528489209081541690558351908152a151908152a180f35b50600184141561034a565b50308d1415610327565b5060018d1415610321565b80fd5b83823461027e573660031901126103d7576103f361089b565b506103fc6108b6565b50600380546001600160a01b031916905580f35b83823461027e578160031936011261027e5760035490516001600160a01b039091168152602090f35b5082346103d757806003193601126103d757600190815461046d61046461045f83610a2b565b6109ef565b91808352610a2b565b6020828101969091601f1901368837848452838252858420546001600160a01b03919085908316875b6104d6575b505050855195828701938388525180945286019693905b8382106104bf5786880387f35b8451811688529682019693820193908501906104b2565b969896949593948316808a1461052f57865182101561051c5790818a92878360051b8a0101528552848652610510848a8720541691610962565b91979996959496610496565b634e487b7160e01b855260328352602485fd5b9896989594939561049b565b503461025b57602036600319011261025b57813591610558610a43565b610566600154841115610987565b600183106102005750816020917f610f7ff2b304ae8903c3de74c60c6ab1f7d6226b3f52c5161905bb5ad4039c939360025551908152a180f35b83346103d75760203660031901126103d7576001600160a01b036105c261089b565b166001600160601b0360a01b600354161760035580f35b5082346103d75760803660031901126103d75782356001600160a01b038181169182900361025b5760443567ffffffffffffffff81116106ca5761062090369087016108cc565b916064359060ff82168092036106c6576003541633036106925760209650849392919060010361066e578186519283928337810184815203915af4610663610a98565b50905b519015158152f35b818651928392833781018481520391602435905af161068b610a98565b5090610666565b855162461bcd60e51b8152602081890152600e60248201526d139bdd08185d5d1a1bdc9a5e995960921b6044820152606490fd5b8580fd5b8380fd5b83823461027e57602036600319011261027e576020916001600160a01b03806106f561089b565b16916001831415928361070f575b50505090519015158152f35b8492935081528085522054161515838080610703565b83823461027e57602036600319011261027e5760209061074b61074661089b565b610a79565b90519015158152f35b5082346103d75760803660031901126103d75761076f61089b565b506107786108b6565b506064359067ffffffffffffffff82116103d7575060209261079c913691016108cc565b505051630a85bd0160e11b8152f35b503461025b578060031936011261025b576107c461089b565b91602435926107d1610a43565b6001600160a01b039081169081151580610890575b80610886575b6107f5906108fa565b8186528560205261080b8185882054161561092e565b600186528560205283862054168186528386206001600160601b0360a01b91828254161790556001865281848720918254161790557f9465fa0c962cc76958e6373a993326400c1c94f8be2fe3a952adfa7f60b2ea26602061086e600154610962565b92836001558551908152a183600254036101ad578480f35b50308214156107ec565b5060018214156107e6565b600435906001600160a01b03821682036108b157565b600080fd5b602435906001600160a01b03821682036108b157565b9181601f840112156108b15782359167ffffffffffffffff83116108b157602083818601950101116108b157565b1561090157565b60405162461bcd60e51b8152602060048201526005602482015264475332303360d81b6044820152606490fd5b1561093557565b60405162461bcd60e51b815260206004820152600560248201526411d4cc8c0d60da1b6044820152606490fd5b60001981146109715760010190565b634e487b7160e01b600052601160045260246000fd5b1561098e57565b60405162461bcd60e51b8152602060048201526005602482015264475332303160d81b6044820152606490fd5b156109c257565b60405162461bcd60e51b8152602060048201526005602482015264475332303560d81b6044820152606490fd5b6040519190601f01601f1916820167ffffffffffffffff811183821017610a1557604052565b634e487b7160e01b600052604160045260246000fd5b67ffffffffffffffff8111610a155760051b60200190565b303303610a4c57565b60405162461bcd60e51b8152602060048201526005602482015264475330333160d81b6044820152606490fd5b6003546001600160a01b03918216911603610a9357600190565b600090565b3d15610acf573d9067ffffffffffffffff8211610a1557610ac2601f8301601f19166020016109ef565b9182523d6000602084013e565b60609056fea2646970667358221220f0fa85aba2ac23d558b76ff5735ac7a9094df5004da06fa127c6841598d6c9ea64736f6c63430008140033",
  "linkReferences": {},
  "deployedLinkReferences": {}
}