{
  "_format": "hh-sol-artifact-1",
  "contractName": "BullaClaimInvoiceProviderAdapter",
  "sourceName": "contracts/BullaClaimInvoiceProviderAdapter.sol",
  "abi": [
    {
      "inputs": [
        {
          "internalType": "contract IBullaClaim",
          "name": "_bullaClaimAddress",
          "type": "address"
        }
      ],
      "stateMutability": "nonpayable",
      "type": "constructor"
    },
    {
      "inputs": [],
      "name": "InexistentInvoice",
      "type": "error"
    },
    {
      "inputs": [],
      "name": "getInvoiceContractAddress",
      "outputs": [
        {
          "internalType": "address",
          "name": "",
          "type": "address"
        }
      ],
      "stateMutability": "view",
      "type": "function"
    },
    {
      "inputs": [
        {
          "internalType": "uint256",
          "name": "invoiceId",
          "type": "uint256"
        }
      ],
      "name": "getInvoiceDetails",
      "outputs": [
        {
          "components": [
            {
              "internalType": "uint256",
              "name": "faceValue",
              "type": "uint256"
            },
            {
              "internalType": "address",
              "name": "creditor",
              "type": "address"
            },
            {
              "internalType": "address",
              "name": "debtor",
              "type": "address"
            },
            {
              "internalType": "uint256",
              "name": "dueDate",
              "type": "uint256"
            },
            {
              "internalType": "address",
              "name": "tokenAddress",
              "type": "address"
            },
            {
              "internalType": "uint256",
              "name": "paidAmount",
              "type": "uint256"
            },
            {
              "internalType": "bool",
              "name": "isCanceled",
              "type": "bool"
            }
          ],
          "internalType": "struct IInvoiceProviderAdapter.Invoice",
          "name": "",
          "type": "tuple"
        }
      ],
      "stateMutability": "view",
      "type": "function"
    }
  ],
  "bytecode": "0x60803461007457601f6104fe38819003918201601f19168301916001600160401b038311848410176100795780849260209460405283398101031261007457516001600160a01b0381169081900361007457600080546001600160a01b03191691909117905560405161046e90816100908239f35b600080fd5b634e487b7160e01b600052604160045260246000fdfe608060408181526004918236101561001657600080fd5b600090813560e01c9081633c65168214610399575063909a708a1461003a57600080fd5b34610396576020918260031936011261039257805190843561005b836103bd565b83835283858401528382840152606090848285015260809185838601528560c060a0968288820152015260018060a01b0391828754169480518096635aef244760e01b8252838c8301528160246101209384935afa9687156102475789976102a7575b5050868601918483511615610297578151631e328b4160e11b8152908a828d81305afa91821561028d57908b918b93610251575b5060248d88865195869485936331a9108f60e11b8552840152165afa90811561024757899161020e575b508651998587890151169186868a01519551169c84838b01519a019b8c5160058110156101fb576003149c8d156101c0575b50505091869182859460e09f9897968f8e60c092519161016d836103bd565b825284868301941684528882019687528a8201998a528d82019b8c5281019d8e5201809e1515905285519e8f525116908d01525116908a01525190880152511690850152519083015251151560c0820152f35b9091929e98999a9b9c50519060058210156101e85750969c96149998979695818760e061014e565b634e487b7160e01b815260218352602490fd5b506021602492634e487b7160e01b835252fd5b90508981813d8311610240575b61022581836103ef565b8101031261023c5761023690610411565b3861011c565b8880fd5b503d61021b565b82513d8b823e3d90fd5b8281939294503d8311610286575b61026981836103ef565b810103126102825761027b8b91610411565b91386100f2565b8980fd5b503d61025f565b83513d8c823e3d90fd5b8151632d34562f60e21b81528b90fd5b8181929398503d841161038b575b6102bf81836103ef565b81010391821261023c578651916102d5836103bd565b815183528a8201518b840152878201516005811015610387578389015281850151838601528490610307888401610411565b888501526103168a8401610411565b848b015260bf19011261023c5786519084820182811067ffffffffffffffff8211176103745761036391610100918a5260c0810151845261035960e0820161042a565b8d8501520161042a565b8782015260c08201529438806100be565b634e487b7160e01b8b5260418d5260248bfd5b8a80fd5b503d6102b5565b5080fd5b80fd5b90503461039257816003193601126103925790546001600160a01b03168152602090f35b60e0810190811067ffffffffffffffff8211176103d957604052565b634e487b7160e01b600052604160045260246000fd5b90601f8019910116810190811067ffffffffffffffff8211176103d957604052565b51906001600160a01b038216820361042557565b600080fd5b519060ff821682036104255756fea2646970667358221220351b66d8b3f6c88a5820700bb22d5a7116e973461ca7e329f3563642ea46b72c64736f6c63430008140033",
  "linkReferences": {},
  "deployedLinkReferences": {}
}