{
  "address": "0x79B14C823A20DC5556A6922291020785B31274D5",
  "abi": [
    {
      "anonymous": false,
      "inputs": [
        {
          "indexed": true,
          "internalType": "address",
          "name": "_account",
          "type": "address"
        }
      ],
      "name": "AccessGranted",
      "type": "event"
    },
    {
      "anonymous": false,
      "inputs": [
        {
          "indexed": true,
          "internalType": "address",
          "name": "_account",
          "type": "address"
        }
      ],
      "name": "AccessRevoked",
      "type": "event"
    },
    {
      "inputs": [
        {
          "internalType": "address",
          "name": "_address",
          "type": "address"
        }
      ],
      "name": "allow",
      "outputs": [],
      "stateMutability": "nonpayable",
      "type": "function"
    },
    {
      "inputs": [
        {
          "internalType": "address",
          "name": "",
          "type": "address"
        }
      ],
      "name": "allowedAddresses",
      "outputs": [
        {
          "internalType": "bool",
          "name": "",
          "type": "bool"
        }
      ],
      "stateMutability": "view",
      "type": "function"
    },
    {
      "inputs": [
        {
          "internalType": "address",
          "name": "_address",
          "type": "address"
        }
      ],
      "name": "disallow",
      "outputs": [],
      "stateMutability": "nonpayable",
      "type": "function"
    },
    {
      "inputs": [
        {
          "internalType": "address",
          "name": "_address",
          "type": "address"
        }
      ],
      "name": "isAllowed",
      "outputs": [
        {
          "internalType": "bool",
          "name": "",
          "type": "bool"
        }
      ],
      "stateMutability": "view",
      "type": "function"
    }
  ],
  "transactionHash": "0x9f7f50dec6006e319d3fc1f060e509fd4672d0712c11ddda5c65bef4852c76e6",
  "args": [],
  "numDeployments": 1,
  "solcInputHash": "30c4700776732f9db943e29e7c0f0659",
  "bytecode": "0x608080604052346100165761017e908161001b8239f35b5f80fdfe608060408181526004361015610013575f80fd5b5f91823560e01c9081634120657a1461010857508063a9ed9cb8146100ce578063babcc5391461008f5763ff9913e81461004b575f80fd5b3461008b57602036600319011261008b576004356001600160a01b03811690819003610087578252816020528120600160ff1982541617905580f35b8280fd5b5080fd5b503461008b57602036600319011261008b576004356001600160a01b0381169081900361008757818360ff926020955280855220541690519015158152f35b503461008b57602036600319011261008b576004356001600160a01b0381169081900361008757825281602052812060ff19815416905580f35b91905034610087576020366003190112610087576004356001600160a01b03811690819003610144578352602083815292205460ff1615158152f35b8380fdfea26469706673582212207f1e2b72e06491b0e00ba6065d1bfb3d91279feab83e99b6e610678cb10c2ef564736f6c63430008140033",
  "devdoc": {
    "kind": "dev",
    "methods": {},
    "version": 1
  },
  "userdoc": {
    "kind": "user",
    "methods": {},
    "version": 1
  },
  "storageLayout": {
    "storage": [
      {
        "astId": 26,
        "contract": "contracts/mocks/MockFactoringPermissions.sol:MockFactoringPermissions",
        "label": "allowedAddresses",
        "offset": 0,
        "slot": "0",
        "type": "t_mapping(t_address,t_bool)"
      }
    ],
    "types": {
      "t_address": {
        "encoding": "inplace",
        "label": "address",
        "numberOfBytes": "20"
      },
      "t_bool": {
        "encoding": "inplace",
        "label": "bool",
        "numberOfBytes": "1"
      },
      "t_mapping(t_address,t_bool)": {
        "encoding": "mapping",
        "key": "t_address",
        "label": "mapping(address => bool)",
        "numberOfBytes": "32",
        "value": "t_bool"
      }
    }
  }
}