{
  "address": "0x052E0d83BCeF4e75917Fcc10aB89D3F0F505926b",
  "abi": [
    {
      "anonymous": false,
      "inputs": [
        {
          "indexed": true,
          "internalType": "address",
          "name": "_account",
          "type": "address"
        }
      ],
      "name": "AccessGranted",
      "type": "event"
    },
    {
      "anonymous": false,
      "inputs": [
        {
          "indexed": true,
          "internalType": "address",
          "name": "_account",
          "type": "address"
        }
      ],
      "name": "AccessRevoked",
      "type": "event"
    },
    {
      "inputs": [
        {
          "internalType": "address",
          "name": "_address",
          "type": "address"
        }
      ],
      "name": "allow",
      "outputs": [],
      "stateMutability": "nonpayable",
      "type": "function"
    },
    {
      "inputs": [
        {
          "internalType": "address",
          "name": "",
          "type": "address"
        }
      ],
      "name": "allowedAddresses",
      "outputs": [
        {
          "internalType": "bool",
          "name": "",
          "type": "bool"
        }
      ],
      "stateMutability": "view",
      "type": "function"
    },
    {
      "inputs": [
        {
          "internalType": "address",
          "name": "_address",
          "type": "address"
        }
      ],
      "name": "disallow",
      "outputs": [],
      "stateMutability": "nonpayable",
      "type": "function"
    },
    {
      "inputs": [
        {
          "internalType": "address",
          "name": "_address",
          "type": "address"
        }
      ],
      "name": "isAllowed",
      "outputs": [
        {
          "internalType": "bool",
          "name": "",
          "type": "bool"
        }
      ],
      "stateMutability": "view",
      "type": "function"
    }
  ],
  "transactionHash": "0xa46f97c2304adde6381e055a384cf70081be6e4da29195906539d930808eb5c3",
  "args": [],
  "numDeployments": 1,
  "solcInputHash": "84b8e5ded567685db023088c6797acd1",
  "bytecode": "0x608080604052346100165761017e908161001b8239f35b5f80fdfe608060408181526004361015610013575f80fd5b5f91823560e01c9081634120657a1461010857508063a9ed9cb8146100ce578063babcc5391461008f5763ff9913e81461004b575f80fd5b3461008b57602036600319011261008b576004356001600160a01b03811690819003610087578252816020528120600160ff1982541617905580f35b8280fd5b5080fd5b503461008b57602036600319011261008b576004356001600160a01b0381169081900361008757818360ff926020955280855220541690519015158152f35b503461008b57602036600319011261008b576004356001600160a01b0381169081900361008757825281602052812060ff19815416905580f35b91905034610087576020366003190112610087576004356001600160a01b03811690819003610144578352602083815292205460ff1615158152f35b8380fdfea26469706673582212206521734dd78b025a143b49ba591ca2906bb2fec4b5c3761b29d1bcddedfda6f964736f6c63430008140033",
  "devdoc": {
    "kind": "dev",
    "methods": {},
    "version": 1
  },
  "userdoc": {
    "kind": "user",
    "methods": {},
    "version": 1
  },
  "storageLayout": {
    "storage": [
      {
        "astId": 9897,
        "contract": "contracts/mocks/MockPermissions.sol:MockPermissions",
        "label": "allowedAddresses",
        "offset": 0,
        "slot": "0",
        "type": "t_mapping(t_address,t_bool)"
      }
    ],
    "types": {
      "t_address": {
        "encoding": "inplace",
        "label": "address",
        "numberOfBytes": "20"
      },
      "t_bool": {
        "encoding": "inplace",
        "label": "bool",
        "numberOfBytes": "1"
      },
      "t_mapping(t_address,t_bool)": {
        "encoding": "mapping",
        "key": "t_address",
        "label": "mapping(address => bool)",
        "numberOfBytes": "32",
        "value": "t_bool"
      }
    }
  }
}