{"abi":[{"type":"function","name":"deposit","inputs":[{"name":"_token","type":"address","internalType":"address"},{"name":"_amount","type":"uint256","internalType":"uint256"},{"name":"_reference","type":"string","internalType":"string"}],"outputs":[],"stateMutability":"payable"},{"type":"function","name":"execute","inputs":[{"name":"callId","type":"bytes32","internalType":"bytes32"},{"name":"_actions","type":"tuple[]","internalType":"struct IDAO.Action[]","components":[{"name":"to","type":"address","internalType":"address"},{"name":"value","type":"uint256","internalType":"uint256"},{"name":"data","type":"bytes","internalType":"bytes"}]},{"name":"allowFailureMap","type":"uint256","internalType":"uint256"}],"outputs":[{"name":"execResults","type":"bytes[]","internalType":"bytes[]"},{"name":"failureMap","type":"uint256","internalType":"uint256"}],"stateMutability":"nonpayable"},{"type":"function","name":"getTrustedForwarder","inputs":[],"outputs":[{"name":"","type":"address","internalType":"address"}],"stateMutability":"pure"},{"type":"function","name":"hasPermission","inputs":[{"name":"_where","type":"address","internalType":"address"},{"name":"_who","type":"address","internalType":"address"},{"name":"_permissionId","type":"bytes32","internalType":"bytes32"},{"name":"_data","type":"bytes","internalType":"bytes"}],"outputs":[{"name":"","type":"bool","internalType":"bool"}],"stateMutability":"view"},{"type":"function","name":"hasPermissionReturnValueMock","inputs":[],"outputs":[{"name":"","type":"bool","internalType":"bool"}],"stateMutability":"view"},{"type":"function","name":"isValidSignature","inputs":[{"name":"_hash","type":"bytes32","internalType":"bytes32"},{"name":"_signature","type":"bytes","internalType":"bytes"}],"outputs":[{"name":"","type":"bytes4","internalType":"bytes4"}],"stateMutability":"pure"},{"type":"function","name":"registerStandardCallback","inputs":[{"name":"_interfaceId","type":"bytes4","internalType":"bytes4"},{"name":"_callbackSelector","type":"bytes4","internalType":"bytes4"},{"name":"_magicNumber","type":"bytes4","internalType":"bytes4"}],"outputs":[],"stateMutability":"pure"},{"type":"function","name":"setHasPermissionReturnValueMock","inputs":[{"name":"_hasPermissionReturnValueMock","type":"bool","internalType":"bool"}],"outputs":[],"stateMutability":"nonpayable"},{"type":"function","name":"setMetadata","inputs":[{"name":"_metadata","type":"bytes","internalType":"bytes"}],"outputs":[],"stateMutability":"pure"},{"type":"function","name":"setSignatureValidator","inputs":[{"name":"_signatureValidator","type":"address","internalType":"address"}],"outputs":[],"stateMutability":"pure"},{"type":"function","name":"setTrustedForwarder","inputs":[{"name":"_trustedForwarder","type":"address","internalType":"address"}],"outputs":[],"stateMutability":"pure"},{"type":"event","name":"Deposited","inputs":[{"name":"sender","type":"address","indexed":true,"internalType":"address"},{"name":"token","type":"address","indexed":true,"internalType":"address"},{"name":"amount","type":"uint256","indexed":false,"internalType":"uint256"},{"name":"_reference","type":"string","indexed":false,"internalType":"string"}],"anonymous":false},{"type":"event","name":"Executed","inputs":[{"name":"actor","type":"address","indexed":true,"internalType":"address"},{"name":"callId","type":"bytes32","indexed":false,"internalType":"bytes32"},{"name":"actions","type":"tuple[]","indexed":false,"internalType":"struct IDAO.Action[]","components":[{"name":"to","type":"address","internalType":"address"},{"name":"value","type":"uint256","internalType":"uint256"},{"name":"data","type":"bytes","internalType":"bytes"}]},{"name":"allowFailureMap","type":"uint256","indexed":false,"internalType":"uint256"},{"name":"failureMap","type":"uint256","indexed":false,"internalType":"uint256"},{"name":"execResults","type":"bytes[]","indexed":false,"internalType":"bytes[]"}],"anonymous":false},{"type":"event","name":"MetadataSet","inputs":[{"name":"metadata","type":"bytes","indexed":false,"internalType":"bytes"}],"anonymous":false},{"type":"event","name":"NativeTokenDeposited","inputs":[{"name":"sender","type":"address","indexed":false,"internalType":"address"},{"name":"amount","type":"uint256","indexed":false,"internalType":"uint256"}],"anonymous":false},{"type":"event","name":"StandardCallbackRegistered","inputs":[{"name":"interfaceId","type":"bytes4","indexed":false,"internalType":"bytes4"},{"name":"callbackSelector","type":"bytes4","indexed":false,"internalType":"bytes4"},{"name":"magicNumber","type":"bytes4","indexed":false,"internalType":"bytes4"}],"anonymous":false},{"type":"event","name":"TrustedForwarderSet","inputs":[{"name":"forwarder","type":"address","indexed":false,"internalType":"address"}],"anonymous":false}],"bytecode":{"object":"0x60808060405234601557610613908161001a8239f35b5f80fdfe6080806040526004361015610012575f80fd5b5f3560e01c9081630a1f41ca14610413575080631626ba7e146103d75780633e2ab0d91461012157806380e4cbe1146103a9578063bfe07da614610374578063c4a5014514610349578063c71bf32414610140578063ce1b815f14610126578063da74222814610121578063ee57e36f146100ee5763fdef910614610095575f80fd5b346100ea5760803660031901126100ea576100ae6104a9565b506100b76104bf565b5060643567ffffffffffffffff81116100ea576100d8903690600401610457565b50602060ff5f54166040519015158152f35b5f80fd5b346100ea5760203660031901126100ea5760043567ffffffffffffffff81116100ea5761011f9036906004016104ee565b005b6104d5565b346100ea575f3660031901126100ea5760206040515f8152f35b346100ea5760603660031901126100ea5760243567ffffffffffffffff81116100ea57366023820112156100ea57806004013567ffffffffffffffff8111610335578060051b916020610194818501610431565b80938152019060248294820101903682116100ea5760248101925b82841061029c5785856040519060a0820190600435835260a060208401525180915260c082019060c08160051b84010193915f905b82821061024f5760443560408601525f60608601528486036080860152337fd4e57c2049f004fb297ef78591cd409503ceb6b2c722d7ffed032fc99e5f3b58868061022e8a610585565b0390a2604051604081528061024560408201610585565b5f60208301520390f35b9091929460208061028e60019360bf19898203018652606060408b51878060a01b03815116845285810151868501520151918160408201520190610561565b9701920192019092916101e4565b833567ffffffffffffffff81116100ea578201606060231982360301126100ea57604051916060830183811067ffffffffffffffff8211176103355760405260248201356001600160a01b03811681036100ea5783526044820135602084015260648201359267ffffffffffffffff84116100ea57610325602094936024869536920101610457565b60408201528152019301926101af565b634e487b7160e01b5f52604160045260245ffd5b346100ea5760603660031901126100ea5761036261051c565b5061036b610533565b5061011f61054a565b60603660031901126100ea576103886104a9565b5060443567ffffffffffffffff81116100ea5761011f9036906004016104ee565b346100ea5760203660031901126100ea576004358015158091036100ea5760ff80195f54169116175f555f80f35b346100ea5760403660031901126100ea5760243567ffffffffffffffff81116100ea57610408903690600401610457565b5060206040515f8152f35b346100ea575f3660031901126100ea5760209060ff5f541615158152f35b6040519190601f01601f1916820167ffffffffffffffff81118382101761033557604052565b81601f820112156100ea5780359067ffffffffffffffff821161033557610487601f8301601f1916602001610431565b92828452602083830101116100ea57815f926020809301838601378301015290565b600435906001600160a01b03821682036100ea57565b602435906001600160a01b03821682036100ea57565b346100ea5760203660031901126100ea5761011f6104a9565b9181601f840112156100ea5782359167ffffffffffffffff83116100ea57602083818601950101116100ea57565b600435906001600160e01b0319821682036100ea57565b602435906001600160e01b0319821682036100ea57565b604435906001600160e01b0319821682036100ea57565b805180835260209291819084018484015e5f828201840152601f01601f1916010190565b80602060605191828152019060208160051b840101926080925f915b8383106105b057505050505090565b90919293946020806105ce600193601f198682030187528951610561565b970193019301919392906105a156fea2646970667358221220e85461d9a5ca6a2bf9673c0dfa624fda89fa37c92b3b020189cb79c41207cd7d64736f6c634300081e0033","linkReferences":{}},"methodIdentifiers":{"deposit(address,uint256,string)":"bfe07da6","execute(bytes32,(address,uint256,bytes)[],uint256)":"c71bf324","getTrustedForwarder()":"ce1b815f","hasPermission(address,address,bytes32,bytes)":"fdef9106","hasPermissionReturnValueMock()":"0a1f41ca","isValidSignature(bytes32,bytes)":"1626ba7e","registerStandardCallback(bytes4,bytes4,bytes4)":"c4a50145","setHasPermissionReturnValueMock(bool)":"80e4cbe1","setMetadata(bytes)":"ee57e36f","setSignatureValidator(address)":"3e2ab0d9","setTrustedForwarder(address)":"da742228"},"id":16}