{
  "_format": "hh-sol-artifact-1",
  "contractName": "PermissionsWithSafe",
  "sourceName": "contracts/PermissionsWithSafe.sol",
  "abi": [
    {
      "inputs": [
        {
          "internalType": "address",
          "name": "_safeAddress",
          "type": "address"
        }
      ],
      "stateMutability": "nonpayable",
      "type": "constructor"
    },
    {
      "anonymous": false,
      "inputs": [
        {
          "indexed": true,
          "internalType": "address",
          "name": "_account",
          "type": "address"
        }
      ],
      "name": "AccessGranted",
      "type": "event"
    },
    {
      "anonymous": false,
      "inputs": [
        {
          "indexed": true,
          "internalType": "address",
          "name": "_account",
          "type": "address"
        }
      ],
      "name": "AccessRevoked",
      "type": "event"
    },
    {
      "inputs": [
        {
          "internalType": "address",
          "name": "_address",
          "type": "address"
        }
      ],
      "name": "isAllowed",
      "outputs": [
        {
          "internalType": "bool",
          "name": "",
          "type": "bool"
        }
      ],
      "stateMutability": "view",
      "type": "function"
    },
    {
      "inputs": [],
      "name": "safe",
      "outputs": [
        {
          "internalType": "contract GnosisSafe",
          "name": "",
          "type": "address"
        }
      ],
      "stateMutability": "view",
      "type": "function"
    }
  ],
  "bytecode": "0x6080346100bf57601f61024a38819003918201601f19168301916001600160401b038311848410176100c4578084926020946040528339810103126100bf57516001600160a01b038116908190036100bf57801561007a57600080546001600160a01b03191691909117905560405161016f90816100db8239f35b60405162461bcd60e51b815260206004820152601460248201527f496e76616c6964205361666520616464726573730000000000000000000000006044820152606490fd5b600080fd5b634e487b7160e01b600052604160045260246000fdfe608080604052600436101561001357600080fd5b600090813560e01c908163186f035414610115575063babcc5391461003757600080fd5b346100e657602090816003193601126100e6576004356001600160a01b0381811692918390036100e9578390825416926024604051809581936317aa5fb760e11b835260048301525afa91821561010857819261009b575b50506040519015158152f35b909150823d8411610101575b601f8101601f1916820167ffffffffffffffff8111838210176100ed5784918391604052810103126100e957519081151582036100e65750388061008f565b80fd5b5080fd5b634e487b7160e01b84526041600452602484fd5b503d6100a7565b50604051903d90823e3d90fd5b9050346100e957816003193601126100e95790546001600160a01b03168152602090f3fea264697066735822122004982d68834f8bc9d5168243be74254a146f99f5841ce7655e30fad07581fcbb64736f6c63430008140033",
  "linkReferences": {},
  "deployedLinkReferences": {}
}