{"abi":[{"type":"constructor","inputs":[{"name":"_bullaClaimV2Address","type":"address","internalType":"address"},{"name":"_bullaFrendLend","type":"address","internalType":"address"},{"name":"_bullaInvoice","type":"address","internalType":"address"}],"stateMutability":"nonpayable"},{"type":"function","name":"getImpairTarget","inputs":[{"name":"invoiceId","type":"uint256","internalType":"uint256"}],"outputs":[{"name":"target","type":"address","internalType":"address"},{"name":"selector","type":"bytes4","internalType":"bytes4"}],"stateMutability":"view"},{"type":"function","name":"getInvoiceContractAddress","inputs":[{"name":"tokenId","type":"uint256","internalType":"uint256"}],"outputs":[{"name":"","type":"address","internalType":"address"}],"stateMutability":"view"},{"type":"function","name":"getInvoiceDetails","inputs":[{"name":"invoiceId","type":"uint256","internalType":"uint256"}],"outputs":[{"name":"","type":"tuple","internalType":"struct IInvoiceProviderAdapterV2.Invoice","components":[{"name":"invoiceAmount","type":"uint256","internalType":"uint256"},{"name":"creditor","type":"address","internalType":"address"},{"name":"debtor","type":"address","internalType":"address"},{"name":"dueDate","type":"uint256","internalType":"uint256"},{"name":"tokenAddress","type":"address","internalType":"address"},{"name":"paidAmount","type":"uint256","internalType":"uint256"},{"name":"isCanceled","type":"bool","internalType":"bool"},{"name":"isPaid","type":"bool","internalType":"bool"},{"name":"impairmentGracePeriod","type":"uint256","internalType":"uint256"}]}],"stateMutability":"view"},{"type":"function","name":"initializeInvoice","inputs":[{"name":"invoiceId","type":"uint256","internalType":"uint256"}],"outputs":[],"stateMutability":"nonpayable"},{"type":"error","name":"InexistentInvoice","inputs":[]},{"type":"error","name":"UnknownClaimType","inputs":[]}],"bytecode":{"object":"0x60c0346100b457601f610c7938819003918201601f19168301916001600160401b038311848410176100b8578084926060946040528339810103126100b457610047816100cc565b906100606040610059602084016100cc565b92016100cc565b5f80546001600160a01b0319166001600160a01b039485161790559082166080521660a052604051610b9890816100e182396080518181816102c701526106e3015260a05181818161030601526109030152f35b5f80fd5b634e487b7160e01b5f52604160045260245ffd5b51906001600160a01b03821682036100b45756fe60806040526004361015610011575f80fd5b5f3560e01c80630d219c0f1461025757806387bb8b3c14610133578063909a708a1461009d5763e8a5bfb814610045575f80fd5b3461009957602036600319011261009957610061600435610b25565b6001600160a01b03811661009157505f546020906001600160a01b03165b6040516001600160a01b039091168152f35b60209061007f565b5f80fd5b34610099576020366003190112610099576101206100bc600435610560565b610100604051918051835260018060a01b03602082015116602084015260018060a01b0360408201511660408401526060810151606084015260018060a01b03608082015116608084015260a081015160a084015260c0810151151560c084015260e0810151151560e08401520151610100820152f35b34610099576020366003190112610099575f54604051635aef244760e01b8152600480359082018190529161016090829060249082906001600160a01b03165afa90811561024c575f9161021d575b5060c08101516001600160a01b03161580610208575b6101f95760609060018060a01b0361010082015116835f52600160205260405f20906bffffffffffffffffffffffff60a01b8254161790550151815f52600260205260405f20555f52600360205260405f20600160ff198254161790555f80f35b632d34562f60e21b5f5260045ffd5b5060a08101516001600160a01b031615610198565b61023f91506101603d8111610245575b610237818361039f565b8101906103d5565b82610182565b503d61022d565b6040513d5f823e3d90fd5b34610099576020366003190112610099576040610275600435610295565b82516001600160a01b0390921682526001600160e01b0319166020820152f35b6001600160a01b03906102a790610b25565b16806102c557505f546001600160a01b031690630a3d829f60e21b90565b7f00000000000000000000000000000000000000000000000000000000000000006001600160a01b03169080820361030457509063311fdbe760e11b90565b7f00000000000000000000000000000000000000000000000000000000000000006001600160a01b03169150810361034257906306f9313560e21b90565b636db370e760e01b5f5260045ffd5b610160810190811067ffffffffffffffff82111761036e57604052565b634e487b7160e01b5f52604160045260245ffd5b610120810190811067ffffffffffffffff82111761036e57604052565b90601f8019910116810190811067ffffffffffffffff82111761036e57604052565b51906001600160a01b038216820361009957565b908161016091031261009957604051906103ee82610351565b8051825260208101516020830152604081015160408301526060810151606083015261041c608082016103c1565b608083015261042d60a082016103c1565b60a083015261043e60c082016103c1565b60c083015261044f60e082016103c1565b60e083015261046161010082016103c1565b6101008301526101208101519060068210156100995761014091610120840152015160038110156100995761014082015290565b519061ffff8216820361009957565b9190826040910312610099576040516040810181811067ffffffffffffffff82111761036e5760405260206104e68183956104de81610495565b855201610495565b910152565b9190826080910312610099576040516080810181811067ffffffffffffffff82111761036e576040526060808294805184526020810151602085015261053360408201610495565b60408501520151910152565b9190820180921161054c57565b634e487b7160e01b5f52601160045260245ffd5b60405161056c81610382565b5f81525f60208201525f60408201525f60608201525f60808201525f60a08201525f60c08201525f60e08201525f6101008201525060018060a01b036105b182610b25565b16806106e157505f54604051635aef244760e01b8152600481019290925261016090829060249082906001600160a01b03165afa90811561024c575f916106c2575b50602081015181519160018060a01b0360c0820151169160018060a01b0360a0830151169060408301519060018060a01b0360e08501511661012085019283516006811015610698576003149384156106ac575b51946006861015610698576060600297015197604051996106678b610382565b8a5260208a015260408901526060880152608087015260a0860152151560c08501521460e083015261010082015290565b634e487b7160e01b5f52602160045260245ffd5b8094505160068110156106985760041493610647565b6106db91506101603d811161024557610237818361039f565b5f6105f3565b7f00000000000000000000000000000000000000000000000000000000000000006001600160a01b031690808203610901575061020060249160405192838092632820036560e11b82528660048301525afa90811561024c575f916107f8575b5061016081015191610772606084015193519361076d61076582602087015161053f565b95855161053f565b61053f565b60a0830151608084015161010085015160c08601516040909601805194976001600160a01b039485169793851695919490931691906006811015610698576003149384156107e2575b51946006861015610698576002965f528660205260405f205497604051996106678b610382565b80945051600681101561069857600414936107bb565b90506102003d81116108fa575b61080f818361039f565b810190610200818303126100995760405191610180830183811067ffffffffffffffff82111761036e5760405281518352602082015160208401526040820151600681101561009957604084015260608201516003811015610099576108ee92610180916060860152610884608082016103c1565b608086015261089560a082016103c1565b60a08601526108a660c082016103c1565b60c08601526108b760e082016103c1565b60e08601526101008101516101008601526101208101516101208601526108e28361014083016104a4565b610140860152016104eb565b6101608201525f610741565b503d610805565b7f00000000000000000000000000000000000000000000000000000000000000006001600160a01b0316915081036103425761022060249160405192838092631d11e60560e11b82528660048301525afa90811561024c575f916109f2575b5061014081015191610984606084015193519361076d61076582602087015161053f565b60608301516080840151604085015160a086015160c0909601805194976001600160a01b039485169793851695919490931691906006811015610698576003149384156107e25751946006861015610698576002965f528660205260405f205497604051996106678b610382565b90506102203d8111610b1e575b610a09818361039f565b8101908082039161022083126100995760405192610a2684610351565b825184526020830151602085015260408301516040850152610a4a606084016103c1565b6060850152610a5b608084016103c1565b6080850152610a6c60a084016103c1565b60a085015260c083015160068110156100995760c085015260e08301519060038210156100995760609160e086015260ff19011261009957604051916060830183811067ffffffffffffffff82111761036e576040526101008101518352610120810151602084015261014081015190811515820361009957836101a0926040610b12960152610100860152610b068361016083016104a4565b610120860152016104eb565b6101408201525f610960565b503d6109ff565b805f52600360205260ff60405f205416610b4857632d34562f60e21b5f5260045ffd5b5f908152600160205260409020546001600160a01b03169056fea264697066735822122083023363c1aee48d01cabf352614d0bc1cc4c1ce56dd246966c8806adc20668764736f6c634300081e0033","linkReferences":{}},"methodIdentifiers":{"getImpairTarget(uint256)":"0d219c0f","getInvoiceContractAddress(uint256)":"e8a5bfb8","getInvoiceDetails(uint256)":"909a708a","initializeInvoice(uint256)":"87bb8b3c"},"id":1}