{
  "_format": "hh-sol-artifact-1",
  "contractName": "PermissionsWithAragon",
  "sourceName": "contracts/PermissionsWithAragon.sol",
  "abi": [
    {
      "inputs": [
        {
          "internalType": "address",
          "name": "_daoAddress",
          "type": "address"
        },
        {
          "internalType": "bytes32",
          "name": "_permissionsId",
          "type": "bytes32"
        }
      ],
      "stateMutability": "nonpayable",
      "type": "constructor"
    },
    {
      "anonymous": false,
      "inputs": [
        {
          "indexed": true,
          "internalType": "address",
          "name": "_account",
          "type": "address"
        }
      ],
      "name": "AccessGranted",
      "type": "event"
    },
    {
      "anonymous": false,
      "inputs": [
        {
          "indexed": true,
          "internalType": "address",
          "name": "_account",
          "type": "address"
        }
      ],
      "name": "AccessRevoked",
      "type": "event"
    },
    {
      "inputs": [],
      "name": "aragonDao",
      "outputs": [
        {
          "internalType": "contract IDAO",
          "name": "",
          "type": "address"
        }
      ],
      "stateMutability": "view",
      "type": "function"
    },
    {
      "inputs": [
        {
          "internalType": "address",
          "name": "_address",
          "type": "address"
        }
      ],
      "name": "isAllowed",
      "outputs": [
        {
          "internalType": "bool",
          "name": "",
          "type": "bool"
        }
      ],
      "stateMutability": "view",
      "type": "function"
    }
  ],
  "bytecode": "0x6080346100c857601f61027038819003918201601f19168301916001600160401b038311848410176100cd5780849260409485528339810103126100c85780516001600160a01b03811691908290036100c8576020015190801561008357600080546001600160a01b03191691909117905560015560405161018c90816100e48239f35b60405162461bcd60e51b815260206004820152601360248201527f496e76616c69642044414f2061646472657373000000000000000000000000006044820152606490fd5b600080fd5b634e487b7160e01b600052604160045260246000fdfe608080604052600436101561001357600080fd5b600090813560e01c90816329b9ea1414610132575063babcc5391461003757600080fd5b346101035760209081600319360112610103576004356001600160a01b0381811692918390036101065783908254169260a4600154916040519586938492637ef7c88360e11b845230600485015260248401526044830152608060648301528560848301525afa9182156101255781926100b8575b50506040519015158152f35b909150823d841161011e575b601f8101601f1916820167ffffffffffffffff81118382101761010a5784918391604052810103126101065751908115158203610103575038806100ac565b80fd5b5080fd5b634e487b7160e01b84526041600452602484fd5b503d6100c4565b50604051903d90823e3d90fd5b90503461010657816003193601126101065790546001600160a01b03168152602090f3fea26469706673582212205d80a6f5844bccbd2b9d93f0effa66543733ad0b502d23c75588f0e5bfac4f3364736f6c63430008140033",
  "linkReferences": {},
  "deployedLinkReferences": {}
}