{
  "_format": "hh-sol-artifact-1",
  "contractName": "BullaFactoringFundManager",
  "sourceName": "contracts/FactoringFundManager.sol",
  "abi": [
    {
      "inputs": [
        {
          "internalType": "contract IERC4626",
          "name": "_factoringPool",
          "type": "address"
        },
        {
          "internalType": "uint256",
          "name": "_minInvestment",
          "type": "uint256"
        },
        {
          "internalType": "address",
          "name": "_capitalCaller",
          "type": "address"
        }
      ],
      "stateMutability": "nonpayable",
      "type": "constructor"
    },
    {
      "inputs": [],
      "name": "AlreadyAllowlisted",
      "type": "error"
    },
    {
      "inputs": [
        {
          "internalType": "uint256",
          "name": "actual",
          "type": "uint256"
        }
      ],
      "name": "BadERC20Allowance",
      "type": "error"
    },
    {
      "inputs": [
        {
          "internalType": "uint256",
          "name": "actual",
          "type": "uint256"
        }
      ],
      "name": "BadERC20Balance",
      "type": "error"
    },
    {
      "inputs": [],
      "name": "BadInvestorParams",
      "type": "error"
    },
    {
      "inputs": [],
      "name": "CallTooHigh",
      "type": "error"
    },
    {
      "inputs": [],
      "name": "CallTooLow",
      "type": "error"
    },
    {
      "inputs": [],
      "name": "CannotRenounceOwnership",
      "type": "error"
    },
    {
      "inputs": [],
      "name": "CommitmentTooHigh",
      "type": "error"
    },
    {
      "inputs": [],
      "name": "CommitmentTooLow",
      "type": "error"
    },
    {
      "inputs": [],
      "name": "MinInvestmentTooLow",
      "type": "error"
    },
    {
      "inputs": [
        {
          "internalType": "address",
          "name": "owner",
          "type": "address"
        }
      ],
      "name": "OwnableInvalidOwner",
      "type": "error"
    },
    {
      "inputs": [
        {
          "internalType": "address",
          "name": "account",
          "type": "address"
        }
      ],
      "name": "OwnableUnauthorizedAccount",
      "type": "error"
    },
    {
      "inputs": [],
      "name": "Unauthorized",
      "type": "error"
    },
    {
      "anonymous": false,
      "inputs": [
        {
          "indexed": false,
          "internalType": "address[]",
          "name": "investors",
          "type": "address[]"
        },
        {
          "indexed": false,
          "internalType": "uint256",
          "name": "callAmount",
          "type": "uint256"
        }
      ],
      "name": "CapitalCallComplete",
      "type": "event"
    },
    {
      "anonymous": false,
      "inputs": [
        {
          "indexed": true,
          "internalType": "address",
          "name": "investor",
          "type": "address"
        },
        {
          "indexed": true,
          "internalType": "address",
          "name": "owner",
          "type": "address"
        }
      ],
      "name": "InvestorAllowlisted",
      "type": "event"
    },
    {
      "anonymous": false,
      "inputs": [
        {
          "indexed": true,
          "internalType": "address",
          "name": "investor",
          "type": "address"
        },
        {
          "indexed": false,
          "internalType": "uint256",
          "name": "amount",
          "type": "uint256"
        }
      ],
      "name": "InvestorCommitment",
      "type": "event"
    },
    {
      "anonymous": false,
      "inputs": [
        {
          "indexed": true,
          "internalType": "address",
          "name": "investor",
          "type": "address"
        },
        {
          "indexed": false,
          "internalType": "uint256",
          "name": "amountRequested",
          "type": "uint256"
        }
      ],
      "name": "InvestorInsolvent",
      "type": "event"
    },
    {
      "anonymous": false,
      "inputs": [
        {
          "indexed": true,
          "internalType": "address",
          "name": "previousOwner",
          "type": "address"
        },
        {
          "indexed": true,
          "internalType": "address",
          "name": "newOwner",
          "type": "address"
        }
      ],
      "name": "OwnershipTransferred",
      "type": "event"
    },
    {
      "inputs": [
        {
          "internalType": "address",
          "name": "investor",
          "type": "address"
        }
      ],
      "name": "allowlistInvestor",
      "outputs": [],
      "stateMutability": "nonpayable",
      "type": "function"
    },
    {
      "inputs": [],
      "name": "asset",
      "outputs": [
        {
          "internalType": "contract IERC20",
          "name": "",
          "type": "address"
        }
      ],
      "stateMutability": "view",
      "type": "function"
    },
    {
      "inputs": [
        {
          "internalType": "address",
          "name": "_investor",
          "type": "address"
        }
      ],
      "name": "blocklistInvestor",
      "outputs": [],
      "stateMutability": "nonpayable",
      "type": "function"
    },
    {
      "inputs": [
        {
          "internalType": "uint256",
          "name": "targetCallAmount",
          "type": "uint256"
        }
      ],
      "name": "capitalCall",
      "outputs": [
        {
          "internalType": "uint256",
          "name": "",
          "type": "uint256"
        },
        {
          "internalType": "uint256",
          "name": "",
          "type": "uint256"
        }
      ],
      "stateMutability": "nonpayable",
      "type": "function"
    },
    {
      "inputs": [],
      "name": "capitalCaller",
      "outputs": [
        {
          "internalType": "address",
          "name": "",
          "type": "address"
        }
      ],
      "stateMutability": "view",
      "type": "function"
    },
    {
      "inputs": [
        {
          "internalType": "address",
          "name": "",
          "type": "address"
        }
      ],
      "name": "capitalCommitments",
      "outputs": [
        {
          "internalType": "bool",
          "name": "isAllowed",
          "type": "bool"
        },
        {
          "internalType": "uint144",
          "name": "commitment",
          "type": "uint144"
        }
      ],
      "stateMutability": "view",
      "type": "function"
    },
    {
      "inputs": [
        {
          "internalType": "uint256",
          "name": "amount",
          "type": "uint256"
        }
      ],
      "name": "commit",
      "outputs": [],
      "stateMutability": "nonpayable",
      "type": "function"
    },
    {
      "inputs": [],
      "name": "factoringPool",
      "outputs": [
        {
          "internalType": "contract IERC4626",
          "name": "",
          "type": "address"
        }
      ],
      "stateMutability": "view",
      "type": "function"
    },
    {
      "inputs": [],
      "name": "getInvestors",
      "outputs": [
        {
          "internalType": "address[]",
          "name": "",
          "type": "address[]"
        }
      ],
      "stateMutability": "view",
      "type": "function"
    },
    {
      "inputs": [],
      "name": "investorCount",
      "outputs": [
        {
          "internalType": "uint256",
          "name": "",
          "type": "uint256"
        }
      ],
      "stateMutability": "view",
      "type": "function"
    },
    {
      "inputs": [
        {
          "internalType": "uint256",
          "name": "",
          "type": "uint256"
        }
      ],
      "name": "investors",
      "outputs": [
        {
          "internalType": "address",
          "name": "",
          "type": "address"
        }
      ],
      "stateMutability": "view",
      "type": "function"
    },
    {
      "inputs": [],
      "name": "minInvestment",
      "outputs": [
        {
          "internalType": "uint256",
          "name": "",
          "type": "uint256"
        }
      ],
      "stateMutability": "view",
      "type": "function"
    },
    {
      "inputs": [],
      "name": "owner",
      "outputs": [
        {
          "internalType": "address",
          "name": "",
          "type": "address"
        }
      ],
      "stateMutability": "view",
      "type": "function"
    },
    {
      "inputs": [],
      "name": "pauseCommitments",
      "outputs": [],
      "stateMutability": "nonpayable",
      "type": "function"
    },
    {
      "inputs": [],
      "name": "renounceOwnership",
      "outputs": [],
      "stateMutability": "pure",
      "type": "function"
    },
    {
      "inputs": [
        {
          "internalType": "address",
          "name": "_capitalCaller",
          "type": "address"
        }
      ],
      "name": "setCapitalCaller",
      "outputs": [],
      "stateMutability": "nonpayable",
      "type": "function"
    },
    {
      "inputs": [
        {
          "internalType": "uint256",
          "name": "_minInvestment",
          "type": "uint256"
        }
      ],
      "name": "setMinInvestment",
      "outputs": [],
      "stateMutability": "nonpayable",
      "type": "function"
    },
    {
      "inputs": [],
      "name": "totalCommitted",
      "outputs": [
        {
          "internalType": "uint256",
          "name": "",
          "type": "uint256"
        }
      ],
      "stateMutability": "view",
      "type": "function"
    },
    {
      "inputs": [
        {
          "internalType": "address",
          "name": "newOwner",
          "type": "address"
        }
      ],
      "name": "transferOwnership",
      "outputs": [],
      "stateMutability": "nonpayable",
      "type": "function"
    }
  ],
  "bytecode": "0x60e080604052346101be576060816111b7803803809161001f8285610227565b8339810103126101be5780516001600160a01b0381168082036101be5761004d60406020850151940161025e565b913315610214575f8054336001600160a01b03198216811783556040519460209486946004948694916001600160a01b03909116907f8be0079c531659141344cd1fd0a4f28419497f9722a3daafe3b4186f6b6457e09080a36080526338d52e0f60e01b82525afa9081156101ca575f916101d5575b506001600160a01b031660a081905260405163313ce56760e01b815290602090829060049082905afa80156101ca575f90610189575b60ff915016604d811161017557600a0a60c052600180546001600160a01b0319166001600160a01b0392909216919091179055600255604051610f44908161027382396080518181816105260152610b7a015260a0518181816101e10152818161057001528181610b190152610dc7015260c051816104ed0152f35b634e487b7160e01b5f52601160045260245ffd5b506020813d6020116101c2575b816101a360209383610227565b810103126101be575160ff811681036101be5760ff906100f9565b5f80fd5b3d9150610196565b6040513d5f823e3d90fd5b90506020813d60201161020c575b816101f060209383610227565b810103126101be57602061020560049261025e565b91506100c3565b3d91506101e3565b631e4fbdf760e01b5f525f60045260245ffd5b601f909101601f19168101906001600160401b0382119082101761024a57604052565b634e487b7160e01b5f52604160045260245ffd5b51906001600160a01b03821682036101be5756fe60806040526004361015610011575f80fd5b5f3560e01c806301e287c014610ba957806309e375e914610b655780631d3231d414610b4857806338d52e0f14610b045780633feb5f2b14610ac2578063715018a614610aa357806376c012a7146109b35780637d1f3c92146109625780638ac2c680146109455780638da5cb5b1461091e578063a0089b97146108f7578063b2f5a54c146108c4578063ba7ed2ff1461088e578063d41c08cd14610866578063d5ef873c14610470578063d7e64c0014610453578063f2fde38b146103b7578063f4f98ad51461015d5763f51b669b146100ea575f80fd5b34610159576020366003190112610159576004356001600160a01b03811680820361015957610117610d7b565b5f5b600454811015610157578161012d82610bf3565b905460039190911b1c6001600160a01b03161461014c57600101610119565b905061015791610e5a565b005b5f80fd5b3461015957602036600319011261015957600435335f52600560205260405f206040519061018a82610c5b565b546001600160901b03602060ff8316159384158152019160081c168152600354916103a9576001600160901b03831161039a57600254831061038b57604051636eb1769f60e11b81523360048201523060248201527f00000000000000000000000000000000000000000000000000000000000000006001600160a01b031690602081604481855afa90811561033c575f91610359575b5084811061034757506020602491604051928380926370a0823160e01b82523360048301525afa90811561033c575f9161030a575b508381106102f857506102b8916001600160901b0384925116806102e9575b50335f908152600560205260409020805472ffffffffffffffffffffffffffffffffffff001916600884901b610100600160981b0316179055610d61565b610d61565b6003556040519081527fa5662f8ce6b88e3414116f804cc5c81df1491631d6b6da0ef042d25b682926c660203392a2005b6102f291610d6e565b84610275565b63d70c18c560e01b5f5260045260245ffd5b90506020813d602011610334575b8161032560209383610c77565b81010312610159575184610256565b3d9150610318565b6040513d5f823e3d90fd5b633717b6a160e01b5f5260045260245ffd5b90506020813d602011610383575b8161037460209383610c77565b81010312610159575185610221565b3d9150610367565b636d62dd6160e11b5f5260045ffd5b63589487a560e11b5f5260045ffd5b6282b42960e81b5f5260045ffd5b34610159576020366003190112610159576004356001600160a01b03811690819003610159575f546001600160a01b0381169033820361044057821561042d576001600160a01b03191682175f9081557f8be0079c531659141344cd1fd0a4f28419497f9722a3daafe3b4186f6b6457e09080a3005b631e4fbdf760e01b5f525f60045260245ffd5b63118cdaa760e01b5f523360045260245ffd5b34610159575f366003190112610159576020600454604051908152f35b346101595760203660031901126101595760043560018060a01b036001541633141580610852575b6103a9576003546104a7610c99565b90808311610843578215610834575f905f9383516104c481610cec565b906104d26040519283610c77565b8082526104e1601f1991610cec565b0136602083013761051c7f0000000000000000000000000000000000000000000000000000000000000000936105178585610d04565b610d17565b9260018060a01b037f000000000000000000000000000000000000000000000000000000000000000016926040519063095ea7b360e01b825284600483015260248201526020816044815f60018060a01b037f0000000000000000000000000000000000000000000000000000000000000000165af1801561033c57610807575b505f945b865186101561074e576001600160a01b036105bc8789610d4d565b511690815f526005602052602060405f20604051906105da82610c5b565b54906001600160901b0360ff831615928315835260081c16928391015261074357836105178861060993610d04565b916106148382610d8e565b156106f357604051636e553f6560e01b81528360048201528160248201526020816044815f8b5af1801561033c576106c5575b505f52600560205260405f20916001600160901b0381166001600160901b03845460081c1603916001600160901b0383116106b1576102b36106a89360019590610100600160981b0382549160081b1690610100600160981b031916179055565b955b01946105a1565b634e487b7160e01b5f52601160045260245ffd5b6020813d82116106eb575b816106dd60209383610c77565b810103126101595751610647565b3d91506106d0565b909689929091905f1984146106b15760207ffb8a2b6efa27df1c7d3b06efbd4874a50a3a9bca80f6f0d9ae417a40275cd3ff918461073660018098019e8a610d4d565b52604051908152a26106aa565b5095600191506106aa565b879087845f5b8481106107b957604084867f50ed9ba8471e986daea25eb4601f81b108ab0ea5060a51b224396e3b2f0fcd776107a48761079085600354610d6e565b600355855191829187835287830190610c1f565b8560208301520390a182519182526020820152f35b5f198501908582116106b1576108016107d482600194610d6e565b6107fa848060a01b036107f16107ea8489610d4d565b5189610d4d565b51169186610d4d565b5190610e5a565b01610754565b6108289060203d60201161082d575b6108208183610c77565b810190610d35565b61059d565b503d610816565b63aca9251160e01b5f5260045ffd5b633fda2f2360e11b5f5260045ffd5b505f546001600160a01b0316331415610498565b34610159575f366003190112610159576001546040516001600160a01b039091168152602090f35b34610159576020366003190112610159576004356108aa610d7b565b80156108b557600255005b6324e7f60f60e21b5f5260045ffd5b34610159575f366003190112610159576108f36108df610c99565b604051918291602083526020830190610c1f565b0390f35b34610159575f3660031901126101595761090f610d7b565b610917610d7b565b5f19600255005b34610159575f366003190112610159575f546040516001600160a01b039091168152602090f35b34610159575f366003190112610159576020600254604051908152f35b34610159576020366003190112610159576004356001600160a01b03811690819003610159575f5260056020526040805f20546001600160901b0382519160ff81161515835260081c166020820152f35b34610159576020366003190112610159576004356001600160a01b03811690818103610159576109e1610d7b565b815f52600560205260ff60405f205416610a9457815f52600560205260405f20600160ff198254161790556004549068010000000000000000821015610a8057610a34826001610a589401600455610bf3565b81546001600160a01b0393841660039290921b91821b9390911b1916919091179055565b33907fb3f701caa918ec20384ffb64faa4c584a2b840391ca0bdbcb4e8311204e93f4f5f80a3005b634e487b7160e01b5f52604160045260245ffd5b63be05bbed60e01b5f5260045ffd5b34610159575f366003190112610159576377aeb0ad60e01b5f5260045ffd5b346101595760203660031901126101595760043560045481101561015957610aeb602091610bf3565b905460405160039290921b1c6001600160a01b03168152f35b34610159575f366003190112610159576040517f00000000000000000000000000000000000000000000000000000000000000006001600160a01b03168152602090f35b34610159575f366003190112610159576020600354604051908152f35b34610159575f366003190112610159576040517f00000000000000000000000000000000000000000000000000000000000000006001600160a01b03168152602090f35b34610159576020366003190112610159576004356001600160a01b0381169081900361015957610bd7610d7b565b6bffffffffffffffffffffffff60a01b60015416176001555f80f35b600454811015610c0b5760045f5260205f2001905f90565b634e487b7160e01b5f52603260045260245ffd5b90602080835192838152019201905f5b818110610c3c5750505090565b82516001600160a01b0316845260209384019390920191600101610c2f565b6040810190811067ffffffffffffffff821117610a8057604052565b90601f8019910116810190811067ffffffffffffffff821117610a8057604052565b60405190600454808352826020810160045f5260205f20925f5b818110610cca575050610cc892500383610c77565b565b84546001600160a01b0316835260019485019487945060209093019201610cb3565b67ffffffffffffffff8111610a805760051b60200190565b818102929181159184041417156106b157565b8115610d21570490565b634e487b7160e01b5f52601260045260245ffd5b90816020910312610159575180151581036101595790565b8051821015610c0b5760209160051b010190565b919082018092116106b157565b919082039182116106b157565b5f546001600160a01b031633036103a957565b6040516323b872dd60e01b81526001600160a01b0391821660048201523060248201526044810192909252602090829060649082905f907f0000000000000000000000000000000000000000000000000000000000000000165af15f9181610e39575b50610e3657503d15610e32573d67ffffffffffffffff8111610a805760405190610e25601f8201601f191660200183610c77565b81525f60203d92013e5f90565b5f90565b90565b610e5391925060203d60201161082d576108208183610c77565b905f610df1565b6001600160a01b03165f908152600560205260408120805491905560045460089190911c6001600160901b0316915f1982019182116106b157610a34610ea2610eba93610bf3565b905460039190911b1c6001600160a01b031691610bf3565b600454908115610efa57610ef5915f1901610ed481610bf3565b81546001600160a01b03600392831b1b191690915560049190915554610d6e565b600355565b634e487b7160e01b5f52603160045260245ffdfea2646970667358221220cdeb3277ef2f20e1ae2cc36eed06a64e8311ae54def6044add293547991247b064736f6c634300081e0033",
  "linkReferences": {},
  "deployedLinkReferences": {}
}