{
  "_format": "hh-sol-artifact-1",
  "contractName": "PermissionsWithReconcile",
  "sourceName": "contracts/PermissionsWithReconcile.sol",
  "abi": [
    {
      "inputs": [],
      "stateMutability": "nonpayable",
      "type": "constructor"
    },
    {
      "inputs": [
        {
          "internalType": "address",
          "name": "owner",
          "type": "address"
        }
      ],
      "name": "OwnableInvalidOwner",
      "type": "error"
    },
    {
      "inputs": [
        {
          "internalType": "address",
          "name": "account",
          "type": "address"
        }
      ],
      "name": "OwnableUnauthorizedAccount",
      "type": "error"
    },
    {
      "anonymous": false,
      "inputs": [
        {
          "indexed": true,
          "internalType": "address",
          "name": "_account",
          "type": "address"
        }
      ],
      "name": "AccessGranted",
      "type": "event"
    },
    {
      "anonymous": false,
      "inputs": [
        {
          "indexed": true,
          "internalType": "address",
          "name": "_account",
          "type": "address"
        }
      ],
      "name": "AccessRevoked",
      "type": "event"
    },
    {
      "anonymous": false,
      "inputs": [
        {
          "indexed": true,
          "internalType": "address",
          "name": "previousOwner",
          "type": "address"
        },
        {
          "indexed": true,
          "internalType": "address",
          "name": "newOwner",
          "type": "address"
        }
      ],
      "name": "OwnershipTransferred",
      "type": "event"
    },
    {
      "inputs": [
        {
          "internalType": "address",
          "name": "_address",
          "type": "address"
        }
      ],
      "name": "allow",
      "outputs": [],
      "stateMutability": "nonpayable",
      "type": "function"
    },
    {
      "inputs": [
        {
          "internalType": "address",
          "name": "",
          "type": "address"
        }
      ],
      "name": "allowedAddresses",
      "outputs": [
        {
          "internalType": "bool",
          "name": "",
          "type": "bool"
        }
      ],
      "stateMutability": "view",
      "type": "function"
    },
    {
      "inputs": [],
      "name": "bullaFactoringPool",
      "outputs": [
        {
          "internalType": "contract IBullaFactoring",
          "name": "",
          "type": "address"
        }
      ],
      "stateMutability": "view",
      "type": "function"
    },
    {
      "inputs": [
        {
          "internalType": "address",
          "name": "_address",
          "type": "address"
        }
      ],
      "name": "disallow",
      "outputs": [],
      "stateMutability": "nonpayable",
      "type": "function"
    },
    {
      "inputs": [
        {
          "internalType": "address",
          "name": "_address",
          "type": "address"
        }
      ],
      "name": "isAllowed",
      "outputs": [
        {
          "internalType": "bool",
          "name": "",
          "type": "bool"
        }
      ],
      "stateMutability": "view",
      "type": "function"
    },
    {
      "inputs": [],
      "name": "owner",
      "outputs": [
        {
          "internalType": "address",
          "name": "",
          "type": "address"
        }
      ],
      "stateMutability": "view",
      "type": "function"
    },
    {
      "inputs": [],
      "name": "renounceOwnership",
      "outputs": [],
      "stateMutability": "nonpayable",
      "type": "function"
    },
    {
      "inputs": [
        {
          "internalType": "address",
          "name": "_bullaFactoringPool",
          "type": "address"
        }
      ],
      "name": "setBullaFactoringPool",
      "outputs": [],
      "stateMutability": "nonpayable",
      "type": "function"
    },
    {
      "inputs": [
        {
          "internalType": "address",
          "name": "newOwner",
          "type": "address"
        }
      ],
      "name": "transferOwnership",
      "outputs": [],
      "stateMutability": "nonpayable",
      "type": "function"
    }
  ],
  "bytecode": "0x6080806040523461007a5733156100645760008054336001600160a01b03198216811783556040519290916001600160a01b0316907f8be0079c531659141344cd1fd0a4f28419497f9722a3daafe3b4186f6b6457e09080a36104db90816100808239f35b631e4fbdf760e01b815260006004820152602490fd5b600080fdfe6080604081815260048036101561001557600080fd5b600092833560e01c9081634120657a146102d057508063715018a6146102765780638da5cb5b1461024e578063932af08014610205578063a9ed9cb8146101c4578063babcc53914610188578063be3f6a871461015b578063f2fde38b146100cd5763ff9913e81461008657600080fd5b346100c95760203660031901126100c957356001600160a01b038116908190036100c9576100b2610311565b825260016020528120600160ff1982541617905580f35b8280fd5b5090346100c95760203660031901126100c9576001600160a01b0382358181169391929084900361015757610100610311565b831561014157505082546001600160a01b0319811683178455167f8be0079c531659141344cd1fd0a4f28419497f9722a3daafe3b4186f6b6457e08380a380f35b51631e4fbdf760e01b8152908101849052602490fd5b8480fd5b50503461018457816003193601126101845760025490516001600160a01b039091168152602090f35b5080fd5b50346100c95760203660031901126100c95735916001600160a01b03831683036101c157506101b86020926103e1565b90519015158152f35b80fd5b50346100c95760203660031901126100c957356001600160a01b038116908190036100c9576101f1610311565b825260016020528120805460ff1916905580f35b83823461018457602036600319011261018457356001600160a01b0381169081900361018457610233610311565b6bffffffffffffffffffffffff60a01b600254161760025580f35b505034610184578160031936011261018457905490516001600160a01b039091168152602090f35b83346101c157806003193601126101c15761028f610311565b80546001600160a01b03198116825581906001600160a01b03167f8be0079c531659141344cd1fd0a4f28419497f9722a3daafe3b4186f6b6457e08280a380f35b929190503461030d57602036600319011261030d57356001600160a01b0381169081900361030d5783526001602090815292205460ff1615158152f35b8380fd5b6000546001600160a01b0316330361032557565b60405163118cdaa760e01b8152336004820152602490fd5b90601f8019910116810190811067ffffffffffffffff82111761035f57604052565b634e487b7160e01b600052604160045260246000fd5b9080601f830112156103dc5781519067ffffffffffffffff821161035f578160051b604051936020936103aa8584018761033d565b855283808601928201019283116103dc578301905b8282106103cd575050505090565b815181529083019083016103bf565b600080fd5b60018060a01b038060009216825260016020528160ff604082205416156104a0576002546040516356984d9f60e01b81529283916004918391165afa90811561049557829161043a575b50516104375750600190565b90565b90503d8083833e61044b818361033d565b81016040828203126100c957815167ffffffffffffffff908181116101575782610476918501610375565b9260208101519182116101575761048e929101610375565b503861042b565b6040513d84823e3d90fd5b50509056fea26469706673582212202a4c7a5ea15c4e877074485f32d3abe38db3093edf589c8800be07bbe73d208264736f6c63430008140033",
  "linkReferences": {},
  "deployedLinkReferences": {}
}