{"abi":[{"type":"function","name":"addOwnerWithThreshold","inputs":[{"name":"owner","type":"address","internalType":"address"},{"name":"_threshold","type":"uint256","internalType":"uint256"}],"outputs":[],"stateMutability":"nonpayable"},{"type":"function","name":"changeThreshold","inputs":[{"name":"_threshold","type":"uint256","internalType":"uint256"}],"outputs":[],"stateMutability":"nonpayable"},{"type":"function","name":"getOwners","inputs":[],"outputs":[{"name":"","type":"address[]","internalType":"address[]"}],"stateMutability":"view"},{"type":"function","name":"getThreshold","inputs":[],"outputs":[{"name":"","type":"uint256","internalType":"uint256"}],"stateMutability":"view"},{"type":"function","name":"isOwner","inputs":[{"name":"owner","type":"address","internalType":"address"}],"outputs":[{"name":"","type":"bool","internalType":"bool"}],"stateMutability":"view"},{"type":"function","name":"removeOwner","inputs":[{"name":"prevOwner","type":"address","internalType":"address"},{"name":"owner","type":"address","internalType":"address"},{"name":"_threshold","type":"uint256","internalType":"uint256"}],"outputs":[],"stateMutability":"nonpayable"},{"type":"function","name":"swapOwner","inputs":[{"name":"prevOwner","type":"address","internalType":"address"},{"name":"oldOwner","type":"address","internalType":"address"},{"name":"newOwner","type":"address","internalType":"address"}],"outputs":[],"stateMutability":"nonpayable"},{"type":"event","name":"AddedOwner","inputs":[{"name":"owner","type":"address","indexed":false,"internalType":"address"}],"anonymous":false},{"type":"event","name":"ChangedThreshold","inputs":[{"name":"threshold","type":"uint256","indexed":false,"internalType":"uint256"}],"anonymous":false},{"type":"event","name":"RemovedOwner","inputs":[{"name":"owner","type":"address","indexed":false,"internalType":"address"}],"anonymous":false}],"bytecode":{"object":"0x6080806040523460155761082b908161001a8239f35b5f80fdfe60806040526004361015610011575f80fd5b5f3560e01c80630d582f13146105835780632f54bf6e14610529578063694e80c3146104ff578063a0e67e2b146103af578063e318b52b1461022f578063e75235b8146102125763f8dc5dd914610066575f80fd5b3461020e57606036600319011261020e5761007f61069d565b6100876106b3565b90604435916100946107bf565b6001545f1981019081116101ef57836100ae91101561073f565b6001600160a01b03169081151580610203575b6100ca906106c9565b6001600160a01b039081165f8181526020819052604090205490916100f19116831461078b565b5f82815260208190526040808220805493835290822080546001600160a01b039094166001600160a01b0319948516179055908390528054909116905560015480156101ef5760207ff8d49fc529812e9a7c5c50e69c20f0dccc0db8fa95c98bc58cc9a4f1c1299eaf915f19019283600155604051908152a1816002540361017557005b610189906101816107bf565b82111561073f565b600181106101c2576020817f610f7ff2b304ae8903c3de74c60c6ab1f7d6226b3f52c5161905bb5ad4039c9392600255604051908152a1005b60405162461bcd60e51b815260206004820152600560248201526423a999181960d91b6044820152606490fd5b634e487b7160e01b5f52601160045260245ffd5b5060018214156100c1565b5f80fd5b3461020e575f36600319011261020e576020600254604051908152f35b3461020e57606036600319011261020e5761024861069d565b6102506106b3565b6044356001600160a01b0381169081900361020e577ff8d49fc529812e9a7c5c50e69c20f0dccc0db8fa95c98bc58cc9a4f1c1299eaf60207f9465fa0c962cc76958e6373a993326400c1c94f8be2fe3a952adfa7f60b2ea269481946102b46107bf565b841515806103a4575b8061039a575b6102cc906106c9565b5f85815280845260409020546102eb906001600160a01b0316156106fd565b6001600160a01b0316908115158061038f575b610307906106c9565b6001600160a01b039081165f8181528085526040902054909161032c9116831461078b565b5f82815280845260408082205487835282865281832080546001600160a01b039092166001600160a01b0319928316179055928252818552808220805484168817905583825281855290819020805490921690915551908152a1604051908152a1005b5060018214156102fe565b50308514156102c3565b5060018514156102bd565b3461020e575f36600319011261020e576001546103cb81610773565b60405191601f909101601f191682019067ffffffffffffffff8211838310176104eb576103fd91604052808352610773565b6020820190601f190136823760015f90815260208190527fada5013122d395ba3c54772283fb069b10426056ef8ca54750cb9bb552a59e7d549091906001600160a01b03165b6001600160a01b03166001811461049e57835183101561048a578060208460051b860101525f525f60205261048460018060a01b0360405f20541692610731565b91610443565b634e487b7160e01b5f52603260045260245ffd5b8184604051918291602083019060208452518091526040830191905f5b8181106104c9575050500390f35b82516001600160a01b03168452859450602093840193909201916001016104bb565b634e487b7160e01b5f52604160045260245ffd5b3461020e57602036600319011261020e5760043561051b6107bf565b61018960015482111561073f565b3461020e57602036600319011261020e576001600160a01b0361054a61069d565b16600181141580610563575b6020906040519015158152f35b505f90815260208181526040909120546001600160a01b03161515610556565b3461020e57604036600319011261020e5761059c61069d565b602435906105a86107bf565b6001600160a01b031680151580610692575b80610688575b6105c9906106c9565b5f818152602081905260409020546105ea906001600160a01b0316156106fd565b5f60208181527fada5013122d395ba3c54772283fb069b10426056ef8ca54750cb9bb552a59e7d80548484526040842080546001600160a01b039092166001600160a01b03199283161790556001938490528154168417905590547f9465fa0c962cc76958e6373a993326400c1c94f8be2fe3a952adfa7f60b2ea26919061067190610731565b9283600155604051908152a1816002540361017557005b50308114156105c0565b5060018114156105ba565b600435906001600160a01b038216820361020e57565b602435906001600160a01b038216820361020e57565b156106d057565b60405162461bcd60e51b8152602060048201526005602482015264475332303360d81b6044820152606490fd5b1561070457565b60405162461bcd60e51b815260206004820152600560248201526411d4cc8c0d60da1b6044820152606490fd5b5f1981146101ef5760010190565b1561074657565b60405162461bcd60e51b8152602060048201526005602482015264475332303160d81b6044820152606490fd5b67ffffffffffffffff81116104eb5760051b60200190565b1561079257565b60405162461bcd60e51b8152602060048201526005602482015264475332303560d81b6044820152606490fd5b3033036107c857565b60405162461bcd60e51b8152602060048201526005602482015264475330333160d81b6044820152606490fdfea2646970667358221220ea637df4ee8d2db377ce0f1199c565f9bd576fb011dfebd6403e4b9822ff665f64736f6c634300081e0033","linkReferences":{}},"methodIdentifiers":{"addOwnerWithThreshold(address,uint256)":"0d582f13","changeThreshold(uint256)":"694e80c3","getOwners()":"a0e67e2b","getThreshold()":"e75235b8","isOwner(address)":"2f54bf6e","removeOwner(address,address,uint256)":"f8dc5dd9","swapOwner(address,address,address)":"e318b52b"},"id":78}