{"abi":[{"type":"constructor","inputs":[],"stateMutability":"nonpayable"},{"type":"function","name":"DEFAULT_CONTROLLER_NAME","inputs":[],"outputs":[{"name":"","type":"string","internalType":"string"}],"stateMutability":"view"},{"type":"function","name":"getControllerName","inputs":[{"name":"_controllerAddress","type":"address","internalType":"address"}],"outputs":[{"name":"","type":"string","internalType":"string"}],"stateMutability":"view"},{"type":"function","name":"owner","inputs":[],"outputs":[{"name":"","type":"address","internalType":"address"}],"stateMutability":"view"},{"type":"function","name":"setControllerName","inputs":[{"name":"controller","type":"address","internalType":"address"},{"name":"name","type":"string","internalType":"string"}],"outputs":[],"stateMutability":"nonpayable"},{"type":"function","name":"setOwner","inputs":[{"name":"newOwner","type":"address","internalType":"address"}],"outputs":[],"stateMutability":"nonpayable"},{"type":"event","name":"OwnerUpdated","inputs":[{"name":"user","type":"address","indexed":true,"internalType":"address"},{"name":"newOwner","type":"address","indexed":true,"internalType":"address"}],"anonymous":false}],"bytecode":{"object":"0x60808060405234604d575f80546001600160a01b031916339081178255907f8292fce18fa69edf4db7b94ea2e58241df0ae57f97e0a6c9b29067028bf92d768180a36104d690816100528239f35b5f80fdfe60806040526004361015610011575f80fd5b5f3560e01c806313af40351461032e5780638da5cb5b14610307578063ad63d7f6146102e0578063da84f081146101cc5763f51438fc14610050575f80fd5b346101c85760403660031901126101c8576100696103a3565b6024359067ffffffffffffffff82116101c857366023830112156101c85781600401359067ffffffffffffffff82116101c85736602483850101116101c8576100bc60018060a01b035f5416331461042d565b60018060a01b03165f52600160205260405f20906100da8254610468565b601f8111610183575b505f601f821160011461011f578192935f92610111575b50505f19600383901b1c191660019190911b179055005b602492500101355f806100fa565b601f19821693835f5260205f20915f5b868110610168575083600195961061014c575b505050811b019055005b01602401355f19600384901b60f8161c191690555f8080610142565b9092602060018192602487870101358155019401910161012f565b825f5260205f20601f830160051c810191602084106101be575b601f0160051c01905b8181106101b357506100e3565b5f81556001016101a6565b909150819061019d565b5f80fd5b346101c85760203660031901126101c8576001600160a01b036101ed6103a3565b165f52600160205260405f20604051905f9080549061020b82610468565b80855291600181169081156102c2575060011461028a575b5050819003601f01601f1916810167ffffffffffffffff81118282101761027657604052805115610263575b61025f9060405191829182610403565b0390f35b5061025f61026f6103b9565b905061024f565b634e487b7160e01b5f52604160045260245ffd5b9091505f5260205f205f905b8282106102ac5750602091508201018280610223565b6001816020925483858801015201910190610296565b9150506020925060ff191682840152151560051b8201018280610223565b346101c8575f3660031901126101c85761025f6102fb6103b9565b60405191829182610403565b346101c8575f3660031901126101c8575f546040516001600160a01b039091168152602090f35b346101c85760203660031901126101c8576103476103a3565b5f549061035e336001600160a01b0384161461042d565b60018060a01b031680916bffffffffffffffffffffffff60a01b16175f55337f8292fce18fa69edf4db7b94ea2e58241df0ae57f97e0a6c9b29067028bf92d765f80a3005b600435906001600160a01b03821682036101c857565b604051906040820182811067ffffffffffffffff82111761027657604052601982527f5741524e494e473a20434f4e545241435420554e4b4e4f574e000000000000006020830152565b602060409281835280519182918282860152018484015e5f828201840152601f01601f1916010190565b1561043457565b60405162461bcd60e51b815260206004820152600c60248201526b15539055551213d49256915160a21b6044820152606490fd5b90600182811c92168015610496575b602083101461048257565b634e487b7160e01b5f52602260045260245ffd5b91607f169161047756fea2646970667358221220968767e561393ef7e3f9d95ab0a5a8a70b074742ea306c08be8d321ac579f8c464736f6c634300081e0033","linkReferences":{}},"methodIdentifiers":{"DEFAULT_CONTROLLER_NAME()":"ad63d7f6","getControllerName(address)":"da84f081","owner()":"8da5cb5b","setControllerName(address,string)":"f51438fc","setOwner(address)":"13af4035"},"id":54}