{"abi":[{"type":"function","name":"getStorageAt","inputs":[{"name":"offset","type":"uint256","internalType":"uint256"},{"name":"length","type":"uint256","internalType":"uint256"}],"outputs":[{"name":"","type":"bytes","internalType":"bytes"}],"stateMutability":"view"},{"type":"function","name":"simulateAndRevert","inputs":[{"name":"targetContract","type":"address","internalType":"address"},{"name":"calldataPayload","type":"bytes","internalType":"bytes"}],"outputs":[],"stateMutability":"nonpayable"}],"bytecode":{"object":"0x6080806040523460155761021e908161001a8239f35b5f80fdfe60806040526004361015610011575f80fd5b5f3560e01c80635624b25b146100345763b4faba091461002f575f80fd5b610155565b346100cc5760403660031901126100cc576004356024358060051b91818304602014821517156100b85761006f61006a84610139565b61010e565b9280845261007f601f1991610139565b013660208501375f5b8281106100a1576040518061009d86826100d0565b0390f35b8060019183015460208260051b8701015201610088565b634e487b7160e01b5f52601160045260245ffd5b5f80fd5b602060409281835280519182918282860152018484015e5f828201840152601f01601f1916010190565b634e487b7160e01b5f52604160045260245ffd5b6040519190601f01601f1916820167ffffffffffffffff81118382101761013457604052565b6100fa565b67ffffffffffffffff811161013457601f01601f191660200190565b346100cc5760403660031901126100cc576004356001600160a01b03811681036100cc576024359067ffffffffffffffff82116100cc57366023830112156100cc5781600401356101a861006a82610139565b9281845236602483830101116100cc57815f9260246020930183870137840101525f918291602082519201905af45f523d6020523d5f60403e60403d015ffdfea2646970667358221220afa2ed3c4e50e4f686df9372a94a26c39a29e55f27554253e57796ac4b0472e964736f6c634300081e0033","linkReferences":{}},"methodIdentifiers":{"getStorageAt(uint256,uint256)":"5624b25b","simulateAndRevert(address,bytes)":"b4faba09"},"id":85}