{"abi":[{"type":"constructor","inputs":[{"name":"bullaClaim","type":"address","internalType":"address"},{"name":"_owner","type":"address","internalType":"address"},{"name":"_protocolFeeBPS","type":"uint16","internalType":"uint16"}],"stateMutability":"nonpayable"},{"type":"function","name":"EMPTY_METADATA","inputs":[],"outputs":[{"name":"tokenURI","type":"string","internalType":"string"},{"name":"attachmentURI","type":"string","internalType":"string"}],"stateMutability":"view"},{"type":"function","name":"_bullaClaim","inputs":[],"outputs":[{"name":"","type":"address","internalType":"contract IBullaClaimV2"}],"stateMutability":"view"},{"type":"function","name":"acceptPurchaseOrder","inputs":[{"name":"claimId","type":"uint256","internalType":"uint256"},{"name":"depositAmount","type":"uint256","internalType":"uint256"}],"outputs":[],"stateMutability":"payable"},{"type":"function","name":"addToFeeTokenWhitelist","inputs":[{"name":"token","type":"address","internalType":"address"}],"outputs":[],"stateMutability":"nonpayable"},{"type":"function","name":"admin","inputs":[],"outputs":[{"name":"","type":"address","internalType":"address"}],"stateMutability":"view"},{"type":"function","name":"approve","inputs":[{"name":"to","type":"address","internalType":"address"},{"name":"tokenId","type":"uint256","internalType":"uint256"}],"outputs":[],"stateMutability":"nonpayable"},{"type":"function","name":"balanceOf","inputs":[{"name":"owner","type":"address","internalType":"address"}],"outputs":[{"name":"","type":"uint256","internalType":"uint256"}],"stateMutability":"view"},{"type":"function","name":"cancelInvoice","inputs":[{"name":"claimId","type":"uint256","internalType":"uint256"},{"name":"note","type":"string","internalType":"string"}],"outputs":[],"stateMutability":"nonpayable"},{"type":"function","name":"createInvoice","inputs":[{"name":"params","type":"tuple","internalType":"struct CreateInvoiceParams","components":[{"name":"debtor","type":"address","internalType":"address"},{"name":"creditor","type":"address","internalType":"address"},{"name":"claimAmount","type":"uint256","internalType":"uint256"},{"name":"dueBy","type":"uint256","internalType":"uint256"},{"name":"deliveryDate","type":"uint256","internalType":"uint256"},{"name":"description","type":"string","internalType":"string"},{"name":"token","type":"address","internalType":"address"},{"name":"binding","type":"uint8","internalType":"enum ClaimBinding"},{"name":"lateFeeConfig","type":"tuple","internalType":"struct InterestConfig","components":[{"name":"interestRateBps","type":"uint16","internalType":"uint16"},{"name":"numberOfPeriodsPerYear","type":"uint16","internalType":"uint16"}]},{"name":"impairmentGracePeriod","type":"uint256","internalType":"uint256"},{"name":"depositAmount","type":"uint256","internalType":"uint256"}]}],"outputs":[{"name":"","type":"uint256","internalType":"uint256"}],"stateMutability":"payable"},{"type":"function","name":"createInvoiceWithMetadata","inputs":[{"name":"params","type":"tuple","internalType":"struct CreateInvoiceParams","components":[{"name":"debtor","type":"address","internalType":"address"},{"name":"creditor","type":"address","internalType":"address"},{"name":"claimAmount","type":"uint256","internalType":"uint256"},{"name":"dueBy","type":"uint256","internalType":"uint256"},{"name":"deliveryDate","type":"uint256","internalType":"uint256"},{"name":"description","type":"string","internalType":"string"},{"name":"token","type":"address","internalType":"address"},{"name":"binding","type":"uint8","internalType":"enum ClaimBinding"},{"name":"lateFeeConfig","type":"tuple","internalType":"struct InterestConfig","components":[{"name":"interestRateBps","type":"uint16","internalType":"uint16"},{"name":"numberOfPeriodsPerYear","type":"uint16","internalType":"uint16"}]},{"name":"impairmentGracePeriod","type":"uint256","internalType":"uint256"},{"name":"depositAmount","type":"uint256","internalType":"uint256"}]},{"name":"metadata","type":"tuple","internalType":"struct ClaimMetadata","components":[{"name":"tokenURI","type":"string","internalType":"string"},{"name":"attachmentURI","type":"string","internalType":"string"}]}],"outputs":[{"name":"","type":"uint256","internalType":"uint256"}],"stateMutability":"payable"},{"type":"function","name":"deliverPurchaseOrder","inputs":[{"name":"claimId","type":"uint256","internalType":"uint256"}],"outputs":[],"stateMutability":"nonpayable"},{"type":"function","name":"getApproved","inputs":[{"name":"tokenId","type":"uint256","internalType":"uint256"}],"outputs":[{"name":"","type":"address","internalType":"address"}],"stateMutability":"view"},{"type":"function","name":"getInvoice","inputs":[{"name":"claimId","type":"uint256","internalType":"uint256"}],"outputs":[{"name":"","type":"tuple","internalType":"struct Invoice","components":[{"name":"claimAmount","type":"uint256","internalType":"uint256"},{"name":"paidAmount","type":"uint256","internalType":"uint256"},{"name":"dueBy","type":"uint256","internalType":"uint256"},{"name":"creditor","type":"address","internalType":"address"},{"name":"debtor","type":"address","internalType":"address"},{"name":"token","type":"address","internalType":"address"},{"name":"status","type":"uint8","internalType":"enum Status"},{"name":"binding","type":"uint8","internalType":"enum ClaimBinding"},{"name":"purchaseOrder","type":"tuple","internalType":"struct PurchaseOrderState","components":[{"name":"deliveryDate","type":"uint256","internalType":"uint256"},{"name":"depositAmount","type":"uint256","internalType":"uint256"},{"name":"isDelivered","type":"bool","internalType":"bool"}]},{"name":"lateFeeConfig","type":"tuple","internalType":"struct InterestConfig","components":[{"name":"interestRateBps","type":"uint16","internalType":"uint16"},{"name":"numberOfPeriodsPerYear","type":"uint16","internalType":"uint16"}]},{"name":"interestComputationState","type":"tuple","internalType":"struct InterestComputationState","components":[{"name":"accruedInterest","type":"uint256","internalType":"uint256"},{"name":"latestPeriodNumber","type":"uint256","internalType":"uint256"},{"name":"protocolFeeBps","type":"uint16","internalType":"uint16"},{"name":"totalGrossInterestPaid","type":"uint256","internalType":"uint256"}]}]}],"stateMutability":"view"},{"type":"function","name":"getTotalAmountNeededForPurchaseOrderDeposit","inputs":[{"name":"claimId","type":"uint256","internalType":"uint256"}],"outputs":[{"name":"","type":"uint256","internalType":"uint256"}],"stateMutability":"nonpayable"},{"type":"function","name":"impairInvoice","inputs":[{"name":"claimId","type":"uint256","internalType":"uint256"}],"outputs":[],"stateMutability":"nonpayable"},{"type":"function","name":"isApprovedForAll","inputs":[{"name":"owner","type":"address","internalType":"address"},{"name":"operator","type":"address","internalType":"address"}],"outputs":[{"name":"","type":"bool","internalType":"bool"}],"stateMutability":"view"},{"type":"function","name":"markInvoiceAsPaid","inputs":[{"name":"claimId","type":"uint256","internalType":"uint256"}],"outputs":[],"stateMutability":"nonpayable"},{"type":"function","name":"owner","inputs":[],"outputs":[{"name":"","type":"address","internalType":"address"}],"stateMutability":"view"},{"type":"function","name":"ownerOf","inputs":[{"name":"tokenId","type":"uint256","internalType":"uint256"}],"outputs":[{"name":"","type":"address","internalType":"address"}],"stateMutability":"view"},{"type":"function","name":"payInvoice","inputs":[{"name":"claimId","type":"uint256","internalType":"uint256"},{"name":"paymentAmount","type":"uint256","internalType":"uint256"}],"outputs":[],"stateMutability":"payable"},{"type":"function","name":"protocolFeeBPS","inputs":[],"outputs":[{"name":"","type":"uint16","internalType":"uint16"}],"stateMutability":"view"},{"type":"function","name":"protocolFeeTokenWhitelist","inputs":[{"name":"","type":"address","internalType":"address"}],"outputs":[{"name":"","type":"bool","internalType":"bool"}],"stateMutability":"view"},{"type":"function","name":"protocolFeesByToken","inputs":[{"name":"","type":"address","internalType":"address"}],"outputs":[{"name":"","type":"uint256","internalType":"uint256"}],"stateMutability":"view"},{"type":"function","name":"removeFromFeeTokenWhitelist","inputs":[{"name":"token","type":"address","internalType":"address"}],"outputs":[],"stateMutability":"nonpayable"},{"type":"function","name":"renounceOwnership","inputs":[],"outputs":[],"stateMutability":"nonpayable"},{"type":"function","name":"safeTransferFrom","inputs":[{"name":"from","type":"address","internalType":"address"},{"name":"to","type":"address","internalType":"address"},{"name":"tokenId","type":"uint256","internalType":"uint256"}],"outputs":[],"stateMutability":"nonpayable"},{"type":"function","name":"safeTransferFrom","inputs":[{"name":"from","type":"address","internalType":"address"},{"name":"to","type":"address","internalType":"address"},{"name":"tokenId","type":"uint256","internalType":"uint256"},{"name":"data","type":"bytes","internalType":"bytes"}],"outputs":[],"stateMutability":"nonpayable"},{"type":"function","name":"setApprovalForAll","inputs":[{"name":"operator","type":"address","internalType":"address"},{"name":"approved","type":"bool","internalType":"bool"}],"outputs":[],"stateMutability":"nonpayable"},{"type":"function","name":"setProtocolFee","inputs":[{"name":"_protocolFeeBPS","type":"uint16","internalType":"uint16"}],"outputs":[],"stateMutability":"nonpayable"},{"type":"function","name":"supportsInterface","inputs":[{"name":"interfaceId","type":"bytes4","internalType":"bytes4"}],"outputs":[{"name":"","type":"bool","internalType":"bool"}],"stateMutability":"view"},{"type":"function","name":"transferFrom","inputs":[{"name":"from","type":"address","internalType":"address"},{"name":"to","type":"address","internalType":"address"},{"name":"tokenId","type":"uint256","internalType":"uint256"}],"outputs":[],"stateMutability":"nonpayable"},{"type":"function","name":"transferOwnership","inputs":[{"name":"newOwner","type":"address","internalType":"address"}],"outputs":[],"stateMutability":"nonpayable"},{"type":"function","name":"updateBinding","inputs":[{"name":"claimId","type":"uint256","internalType":"uint256"},{"name":"binding","type":"uint8","internalType":"enum ClaimBinding"}],"outputs":[],"stateMutability":"nonpayable"},{"type":"function","name":"whitelistedProtocolFeeTokens","inputs":[{"name":"","type":"uint256","internalType":"uint256"}],"outputs":[{"name":"","type":"address","internalType":"address"}],"stateMutability":"view"},{"type":"function","name":"withdrawAllFees","inputs":[],"outputs":[],"stateMutability":"nonpayable"},{"type":"event","name":"Approval","inputs":[{"name":"owner","type":"address","indexed":true,"internalType":"address"},{"name":"approved","type":"address","indexed":true,"internalType":"address"},{"name":"tokenId","type":"uint256","indexed":true,"internalType":"uint256"}],"anonymous":false},{"type":"event","name":"ApprovalForAll","inputs":[{"name":"owner","type":"address","indexed":true,"internalType":"address"},{"name":"operator","type":"address","indexed":true,"internalType":"address"},{"name":"approved","type":"bool","indexed":false,"internalType":"bool"}],"anonymous":false},{"type":"event","name":"FeeWithdrawn","inputs":[{"name":"admin","type":"address","indexed":true,"internalType":"address"},{"name":"token","type":"address","indexed":true,"internalType":"address"},{"name":"amount","type":"uint256","indexed":false,"internalType":"uint256"}],"anonymous":false},{"type":"event","name":"InvoiceCreated","inputs":[{"name":"claimId","type":"uint256","indexed":true,"internalType":"uint256"},{"name":"invoiceDetails","type":"tuple","indexed":false,"internalType":"struct InvoiceDetails","components":[{"name":"requestedByCreditor","type":"bool","internalType":"bool"},{"name":"isProtocolFeeExempt","type":"bool","internalType":"bool"},{"name":"purchaseOrder","type":"tuple","internalType":"struct PurchaseOrderState","components":[{"name":"deliveryDate","type":"uint256","internalType":"uint256"},{"name":"depositAmount","type":"uint256","internalType":"uint256"},{"name":"isDelivered","type":"bool","internalType":"bool"}]},{"name":"lateFeeConfig","type":"tuple","internalType":"struct InterestConfig","components":[{"name":"interestRateBps","type":"uint16","internalType":"uint16"},{"name":"numberOfPeriodsPerYear","type":"uint16","internalType":"uint16"}]},{"name":"interestComputationState","type":"tuple","internalType":"struct InterestComputationState","components":[{"name":"accruedInterest","type":"uint256","internalType":"uint256"},{"name":"latestPeriodNumber","type":"uint256","internalType":"uint256"},{"name":"protocolFeeBps","type":"uint16","internalType":"uint16"},{"name":"totalGrossInterestPaid","type":"uint256","internalType":"uint256"}]}]},{"name":"fee","type":"uint256","indexed":false,"internalType":"uint256"},{"name":"metadata","type":"tuple","indexed":false,"internalType":"struct ClaimMetadata","components":[{"name":"tokenURI","type":"string","internalType":"string"},{"name":"attachmentURI","type":"string","internalType":"string"}]}],"anonymous":false},{"type":"event","name":"InvoicePaid","inputs":[{"name":"claimId","type":"uint256","indexed":true,"internalType":"uint256"},{"name":"grossInterestPaid","type":"uint256","indexed":false,"internalType":"uint256"},{"name":"principalPaid","type":"uint256","indexed":false,"internalType":"uint256"},{"name":"protocolFee","type":"uint256","indexed":false,"internalType":"uint256"}],"anonymous":false},{"type":"event","name":"OwnershipTransferred","inputs":[{"name":"previousOwner","type":"address","indexed":true,"internalType":"address"},{"name":"newOwner","type":"address","indexed":true,"internalType":"address"}],"anonymous":false},{"type":"event","name":"ProtocolFeeUpdated","inputs":[{"name":"oldFee","type":"uint16","indexed":false,"internalType":"uint16"},{"name":"newFee","type":"uint16","indexed":false,"internalType":"uint16"}],"anonymous":false},{"type":"event","name":"PurchaseOrderAccepted","inputs":[{"name":"claimId","type":"uint256","indexed":true,"internalType":"uint256"},{"name":"debtor","type":"address","indexed":true,"internalType":"address"},{"name":"depositAmount","type":"uint256","indexed":false,"internalType":"uint256"},{"name":"bound","type":"bool","indexed":false,"internalType":"bool"}],"anonymous":false},{"type":"event","name":"PurchaseOrderDelivered","inputs":[{"name":"claimId","type":"uint256","indexed":true,"internalType":"uint256"}],"anonymous":false},{"type":"event","name":"TokenAddedToFeesWhitelist","inputs":[{"name":"token","type":"address","indexed":true,"internalType":"address"}],"anonymous":false},{"type":"event","name":"TokenRemovedFromFeesWhitelist","inputs":[{"name":"token","type":"address","indexed":true,"internalType":"address"}],"anonymous":false},{"type":"event","name":"Transfer","inputs":[{"name":"from","type":"address","indexed":true,"internalType":"address"},{"name":"to","type":"address","indexed":true,"internalType":"address"},{"name":"tokenId","type":"uint256","indexed":true,"internalType":"uint256"}],"anonymous":false},{"type":"error","name":"IncorrectFee","inputs":[]},{"type":"error","name":"IncorrectMsgValue","inputs":[]},{"type":"error","name":"InvalidDeliveryDate","inputs":[]},{"type":"error","name":"InvalidDepositAmount","inputs":[]},{"type":"error","name":"InvalidMsgValue","inputs":[]},{"type":"error","name":"InvalidProtocolFee","inputs":[]},{"type":"error","name":"InvoiceNotPending","inputs":[]},{"type":"error","name":"NotAuthorizedForBinding","inputs":[]},{"type":"error","name":"NotController","inputs":[{"name":"sender","type":"address","internalType":"address"}]},{"type":"error","name":"NotCreditorOrDebtor","inputs":[]},{"type":"error","name":"NotOriginalCreditor","inputs":[]},{"type":"error","name":"NotPurchaseOrder","inputs":[]},{"type":"error","name":"OwnableInvalidOwner","inputs":[{"name":"owner","type":"address","internalType":"address"}]},{"type":"error","name":"OwnableUnauthorizedAccount","inputs":[{"name":"account","type":"address","internalType":"address"}]},{"type":"error","name":"PayingZero","inputs":[]},{"type":"error","name":"PurchaseOrderAlreadyDelivered","inputs":[]}],"bytecode":{"object":"0x60a06040523461047657613d8b6060813803918261001c8161047a565b938492833981010312610476576100328161049f565b9060406100416020830161049f565b9101519061ffff821692838303610476576001600160a01b03908116608052168015610463575f80546001600160a01b03198116831782556001600160a01b0316907f8be0079c531659141344cd1fd0a4f28419497f9722a3daafe3b4186f6b6457e09080a360408051929083016001600160401b03811184821017610374576040526100ce602061047a565b5f815283526100dd602061047a565b5f815260208401908152925180519093906001600160401b03811161037457600154600181811c91168015610459575b602082101461035657601f81116103f6575b50602094601f8211600114610393579481929394955f92610388575b50508160011b915f199060031b1c1916176001555b518051906001600160401b03821161037457600254600181811c9116801561036a575b602082101461035657601f81116102f3575b50602090601f831160011461028a576127109392915f918361027f575b50508160011b915f199060031b1c1916176002555b11610270575f805461ffff60a01b191660a09290921b61ffff60a01b169190911790556040516138d790816104b482396080518181816102e7015281816103ca015281816104e80152818161059e0152818161067c015281816107340152818161092b01528181610d6701528181611055015281816111080152818161118f01528181611348015281816115f301528181611ac001528181611b68015281816126250152818161280d015281816128d5015261303a0152f35b631752ff0760e31b5f5260045ffd5b015190505f806101a2565b90601f1983169160025f52815f20925f5b8181106102db5750916001939185612710979694106102c3575b505050811b016002556101b7565b01515f1960f88460031b161c191690555f80806102b5565b9293602060018192878601518155019501930161029b565b60025f527f405787fa12a823e0f2b7631cc41b3ba8828b3321ca811111fa75cd3aa3bb5ace601f840160051c8101916020851061034c575b601f0160051c01905b8181106103415750610185565b5f8155600101610334565b909150819061032b565b634e487b7160e01b5f52602260045260245ffd5b90607f1690610173565b634e487b7160e01b5f52604160045260245ffd5b015190505f8061013b565b601f1982169560015f52805f20915f5b8881106103de575083600195969798106103c6575b505050811b01600155610150565b01515f1960f88460031b161c191690555f80806103b8565b919260206001819286850151815501940192016103a3565b60015f527fb10e2d527612073b26eecdfd717e6a320cf44b4afac2b0732d9fcbe2b7fa0cf6601f830160051c8101916020841061044f575b601f0160051c01905b818110610444575061011f565b5f8155600101610437565b909150819061042e565b90607f169061010d565b631e4fbdf760e01b5f525f60045260245ffd5b5f80fd5b6040519190601f01601f191682016001600160401b0381118382101761037457604052565b51906001600160a01b03821682036104765756fe60806040526004361015610011575f80fd5b5f3560e01c806301ffc9a71461023f578063081812fc1461023a578063095ea7b3146102355780630f2c513d146102305780631be4c4d41461022b57806323b872dd146102265780632b538af51461022157806339737e071461021c5780633a23cc0a146102175780633f97833b1461021257806342842e0e1461020d5780634be18e94146102085780634ef5494e146102035780635edc84eb146101fe5780636352211e146101f957806367d1f062146101f457806370a08231146101ef578063715018a6146101ea57806382459995146101e557806389339744146101e05780638da5cb5b1461019f57806396daa322146101db578063a22cb465146101d6578063a4a1d84e146101d1578063a5cc6a7f146101cc578063af236af4146101c7578063b88d4fde146101c2578063cc368b1d146101bd578063d4251f9e146101b8578063e4467f35146101b3578063e985e9c5146101ae578063f02f03fc146101a9578063f2fde38b146101a4578063f851a4401461019f5763fac6f2151461019a575f80fd5b61214f565b611572565b611f26565b611b35565b611a65565b6119d0565b61193a565b611920565b6118b9565b61176e565b61172e565b61166f565b6115c6565b611599565b611554565b611412565b6113bb565b611301565b611155565b6110d2565b611017565b610fb7565b610e3f565b610de5565b610d16565b6108e8565b610763565b61071f565b61064d565b61056b565b6104b5565b61038b565b6102b1565b346102ad5760203660031901126102ad5760043563ffffffff60e01b81168091036102ad57633df2ca5b60e01b811490811561029c575b811561028b575b506040519015158152602090f35b6301ffc9a760e01b1490505f61027d565b6380ac58cd60e01b81149150610276565b5f80fd5b346102ad5760203660031901126102ad5760405163020604bf60e21b815260048035908201526020816024816001600160a01b037f0000000000000000000000000000000000000000000000000000000000000000165afa801561036857610335915f91610339575b506040516001600160a01b0390911681529081906020820190565b0390f35b61035b915060203d602011610361575b6103538183610c45565b8101906121a2565b5f61031a565b503d610349565b6121b7565b6001600160a01b038116036102ad57565b35906103898261036d565b565b346102ad5760403660031901126102ad576004356103a88161036d565b604051635aef244760e01b815260248035600483018190526001600160a01b037f0000000000000000000000000000000000000000000000000000000000000000169392909161016090829081875afa80156103685761010061041f91610424935f91610486575b5001516001600160a01b031690565b612da7565b823b156102ad576040516352ec852960e01b81523360048201526001600160a01b0390921660248301526044820152905f908290818381606481015b03925af180156103685761047057005b8061047e5f61048493610c45565b80610715565b005b6104a891506101603d81116104ae575b6104a08183610c45565b8101906121da565b5f610410565b503d610496565b346102ad5760203660031901126102ad57604051635aef244760e01b815260048035908201819052906001600160a01b037f0000000000000000000000000000000000000000000000000000000000000000169061016081602481855afa80156103685761010061041f91610539935f91610486575001516001600160a01b031690565b803b156102ad57604051632a982aeb60e01b815233600482015260248101839052905f90829081838160448101610460565b346102ad5760203660031901126102ad57604051635aef244760e01b815260048035908201819052906001600160a01b037f0000000000000000000000000000000000000000000000000000000000000000169061016081602481855afa80156103685761010061041f916105ef935f91610486575001516001600160a01b031690565b803b156102ad57604051631840f6c560e11b815233600482015260248101839052905f90829081838160448101610460565b60609060031901126102ad576004356106398161036d565b906024356106468161036d565b9060443590565b346102ad5761065b36610621565b604051635aef244760e01b8152600481018290529192916001600160a01b037f0000000000000000000000000000000000000000000000000000000000000000169061016081602481855afa80156103685761010061041f916106cd935f91610486575001516001600160a01b031690565b803b156102ad576040516357cff26f60e11b81523360048201526001600160a01b03938416602482015293909216604484015260648301525f90829081838160848101610460565b5f9103126102ad57565b346102ad575f3660031901126102ad576040517f00000000000000000000000000000000000000000000000000000000000000006001600160a01b03168152602090f35b346102ad5760203660031901126102ad576004356107808161036d565b60018060a01b03165f526004602052602060405f2054604051908152f35b634e487b7160e01b5f52602160045260245ffd5b600611156107bc57565b61079e565b9060068210156107bc5752565b600311156107bc57565b9060038210156107bc5752565b8151815260208083015190820152604080830151908201526060808301516001600160a01b0316908201526102208101929161038991906101a090610140906080818101516001600160a01b03169085015260a0818101516001600160a01b03169085015261085c60c082015160c08601906107c1565b61086e60e082015160e08601906107d8565b61089861010082015161010086019060408091805184526020810151602085015201511515910152565b6108bc61012082015161016086019061ffff60208092828151168552015116910152565b015191019060608091805184526020810151602085015261ffff60408201511660408501520151910152565b346102ad5760203660031901126102ad576004356109046122cc565b50604051635aef244760e01b81526004810182905290610160826024816001600160a01b037f0000000000000000000000000000000000000000000000000000000000000000165afa918215610368575f92610b7b575b5061010082015161098f9161098a9161097c906001600160a01b0316612da7565b5f52600660205260405f2090565b61239f565b61012082019081516109a0816107b2565b6109a9816107b2565b158015610b5e575b8015610b41575b610aa0575b825192602081015192516109d0816107b2565b610140820151906109e0826107ce565b60a08301516001600160a01b031660c08401519093906001600160a01b031660e08201519094906001600160a01b03169160400151946040870151956060880151976080015198610a2f610c66565b9a8b5260208b015260408a01526001600160a01b031660608901526001600160a01b031660808801526001600160a01b031660a0870152610a739060c087016124e9565b610a809060e086016124f5565b6101008401526101208301526101408201526040516103358192826107e5565b610ab0835160208501519061243a565b604084015190608060608401519281850192610ae28451604051968794859463ff7f444360e01b86526004860161248c565b038173__$09d4d2ef7b19ad896b68909a5b9f536be4$__5af4918215610368575f92610b10575b50526109bd565b610b3391925060803d608011610b3a575b610b2b8183610c45565b810190612447565b905f610b09565b503d610b21565b5060058251610b4f816107b2565b610b58816107b2565b146109b8565b5060018251610b6c816107b2565b610b75816107b2565b146109b1565b61098f919250610b9c61098a916101603d81116104ae576104a08183610c45565b92915061095b565b634e487b7160e01b5f52604160045260245ffd5b604081019081106001600160401b03821117610bd357604052565b610ba4565b608081019081106001600160401b03821117610bd357604052565b61016081019081106001600160401b03821117610bd357604052565b606081019081106001600160401b03821117610bd357604052565b60a081019081106001600160401b03821117610bd357604052565b90601f801991011681019081106001600160401b03821117610bd357604052565b6040519061038961016083610c45565b60405190610389608083610c45565b6040519061038961010083610c45565b60405190610389606083610c45565b6040519061038960a083610c45565b9291926001600160401b038211610bd35760405191610cdc601f8201601f191660200184610c45565b8294818452818301116102ad578281602093845f960137010152565b9080601f830112156102ad57816020610d1393359101610cb3565b90565b346102ad5760403660031901126102ad576004356024356001600160401b0381116102ad57610d49903690600401610cf8565b604051635aef244760e01b8152600481018390526001600160a01b037f00000000000000000000000000000000000000000000000000000000000000001692919061016081602481875afa80156103685761010061041f91610dba935f91610486575001516001600160a01b031690565b823b156102ad57610460925f92836040518096819582946338467c1960e11b84523360048501612501565b346102ad57610484610df636610621565b9060405192610e06602085610c45565b5f84526127ec565b634e487b7160e01b5f52603260045260245ffd5b600354811015610e3a5760035f5260205f2001905f90565b610e0e565b346102ad5760203660031901126102ad576004356003548110156102ad5760035f527fc2575a0e9e593c00f959f8c92f12db2869c3395a3b0502d05e2516446f71f85b01546040516001600160a01b039091168152602090f35b600311156102ad57565b359061038982610e99565b61ffff8116036102ad57565b91908260409103126102ad57604051610ed281610bb8565b60208082948035610ee281610eae565b8452013591610ef083610eae565b0152565b9190610180838203126102ad57610f09610c66565b92610f138161037e565b8452610f216020820161037e565b602085015260408101356040850152606081013560608501526080810135608085015260a08101356001600160401b0381116102ad5782610f6a61016094610f9b938501610cf8565b60a0870152610f7b60c0840161037e565b60c0870152610f8c60e08401610ea3565b60e08701526101008301610eba565b6101008501526101408101356101208501520135610140830152565b60203660031901126102ad576004356001600160401b0381116102ad5761100f610fe76020923690600401610ef4565b60405190610ff482610bb8565b610ffc611faf565b8252611006612084565b8483015261302c565b604051908152f35b346102ad5760403660031901126102ad5760243560043561103782610e99565b604051635aef244760e01b8152600481018290526001600160a01b037f000000000000000000000000000000000000000000000000000000000000000016929061016081602481875afa80156103685761010061041f916110a7935f91610486575001516001600160a01b031690565b823b156102ad57610460925f9283604051809681958294636418bde960e01b84523360048501612525565b346102ad5760203660031901126102ad576040516331a9108f60e11b815260048035908201526020816024816001600160a01b037f0000000000000000000000000000000000000000000000000000000000000000165afa801561036857610335915f9161033957506040516001600160a01b0390911681529081906020820190565b346102ad5760203660031901126102ad57604051635aef244760e01b81526004803590820181905290610160816024816001600160a01b037f0000000000000000000000000000000000000000000000000000000000000000165afa908115610368575f916112e2575b506101008101516111d8906001600160a01b0316612da7565b6111ed61098a835f52600660205260405f2090565b6080820151336001600160a01b03909116036112d357604001805151156112c45751604001516112b657610120018051611226816107b2565b61122f816107b2565b15159081611297575b50611288576112626003611254835f52600660205260405f2090565b01805460ff19166001179055565b7f13840a69aa8d3b45706f548e51e80334bbba1a83284633b2af26778afa692d355f80a2005b633ade232d60e11b5f5260045ffd5b60019150516112a5816107b2565b6112ae816107b2565b14155f611238565b62b626b560e81b5f5260045ffd5b63011f386960e51b5f5260045ffd5b630148884b60e21b5f5260045ffd5b6112fb91506101603d81116104ae576104a08183610c45565b5f6111bf565b346102ad5760203660031901126102ad5760043561131e8161036d565b6040516370a0823160e01b81526001600160a01b03918216600482015290602090829060249082907f0000000000000000000000000000000000000000000000000000000000000000165afa801561036857610335915f9161138c575b506040519081529081906020820190565b6113ae915060203d6020116113b4575b6113a68183610c45565b81019061254d565b5f61137b565b503d61139c565b346102ad575f3660031901126102ad576113d36134d7565b5f80546001600160a01b0319811682556001600160a01b03167f8be0079c531659141344cd1fd0a4f28419497f9722a3daafe3b4186f6b6457e08280a3005b346102ad5760203660031901126102ad5760043561142f8161036d565b6114376134d7565b6001600160a01b0381165f9081526005602052604090205460ff16611486575b6001600160a01b03167fceeec53cbb10af8d416c74d15b37f2c8761d65af488132f6de71b01176ad23345f80a2005b6001600160a01b0381165f818152600560205260408120805460ff191690555b6003548082101561154c57826114d56114be84610e22565b90546001600160a01b039260039290921b1c821690565b16146114e457506001016114a6565b61153f92506115156115006114fb61151b93612427565b610e22565b905460039190911b1c6001600160a01b031690565b91610e22565b81546001600160a01b0393841660039290921b91821b9390911b1916919091179055565b61154761255c565b611457565b505050611457565b346102ad5760203660031901126102ad57602061100f6004356125ff565b346102ad575f3660031901126102ad575f546040516001600160a01b039091168152602090f35b346102ad575f3660031901126102ad57602061ffff5f5460a01c16604051908152f35b801515036102ad57565b346102ad575f60403660031901126102ad576004356115e48161036d565b602435906115f1826115bc565b7f00000000000000000000000000000000000000000000000000000000000000006001600160a01b031691823b156102ad5760405163a22cb46560e01b81526001600160a01b03909216600483015215156024820152905f908290604490829084905af1801561036857611663575080f35b61048491505f90610c45565b60403660031901126102ad576004356001600160401b0381116102ad5761169a903690600401610ef4565b6024356001600160401b0381116102ad57604060031982360301126102ad576040516116c581610bb8565b81600401356001600160401b0381116102ad576116e89060043691850101610cf8565b81526024820135926001600160401b0384116102ad5761171461171e9360046103359636920101610cf8565b602083015261302c565b6040519081529081906020820190565b346102ad5760203660031901126102ad5760043561174b8161036d565b60018060a01b03165f526005602052602060ff60405f2054166040519015158152f35b346102ad575f3660031901126102ad576117866134d7565b478061185f575b505f5b60035481101561048457806117a9611500600193610e22565b6001600160a01b0381165f9081526004602052604090205490816117d0575b505001611790565b6001600160a01b0381165f90815260046020526040812055838060a01b03169061180a816118045f5460018060a01b031690565b84613597565b7eed5939179dc194223f0edd1517ecee2210b22da7f82c8e4b1795e93b9f06aa611855858060a01b036118435f5460018060a01b031690565b60405194855216929081906020820190565b0390a35f806117c8565b5f80549091906118799082906001600160a01b031661354d565b81547eed5939179dc194223f0edd1517ecee2210b22da7f82c8e4b1795e93b9f06aa906118b0906001600160a01b03908116611843565b0390a35f61178d565b346102ad5760803660031901126102ad576004356118d68161036d565b602435906118e38261036d565b604435606435926001600160401b0384116102ad57366023850112156102ad5761191a610484943690602481600401359101610cb3565b926127ec565b60403660031901126102ad576104846024356004356128b5565b346102ad5760203660031901126102ad576004356119578161036d565b61195f6134d7565b6001600160a01b0381165f8181526005602052604090205490919060ff16156119aa575b507f8ac7e85f445e8ee1c850abbfcd9da63ccb7b527c076290946108a7c2802470965f80a2005b6119ca90825f52600560205260405f20600160ff19825416179055612d25565b5f611983565b346102ad5760203660031901126102ad576004356119ed81610eae565b6119f56134d7565b61ffff81166127108111611a56577f26bc4a9b6ef30ec448ec7094c0f1002b0c6b8363d6a56be88ce399f1ac3d92f9916040915f549161ffff60a01b9060a01b1661ffff60a01b198316175f5561ffff83519260a01c1682526020820152a1005b631752ff0760e31b5f5260045ffd5b346102ad5760403660031901126102ad57600435611a828161036d565b602435611a8e8161036d565b60405163e985e9c560e01b81526001600160a01b039283166004820152908216602482015290602090829060449082907f0000000000000000000000000000000000000000000000000000000000000000165afa801561036857610335915f91611b06575b5060405190151581529081906020820190565b611b28915060203d602011611b2e575b611b208183610c45565b810190612d92565b5f611af3565b503d611b16565b60403660031901126102ad57604051635aef244760e01b8152600480359082018190526024803592906001600160a01b037f0000000000000000000000000000000000000000000000000000000000000000169061016090839081845afa918215610368575f92611f05575b50610100820151611bba906001600160a01b0316612da7565b611bcf61098a845f52600660205260405f2090565b91604083015151156112c45760a0810151611bfa906001600160a01b03165b6001600160a01b031690565b3303611ef6578051611c12602083019182519061243a565b8611611ee75781519051611c259161243a565b604082015160806060860191825193611c5683890151604051968794859463ff7f444360e01b86526004860161248c565b038173__$09d4d2ef7b19ad896b68909a5b9f536be4$__5af4918215610368575f92611ebe575b50515161ffff9081165b16611e9b575b5f938615611dfa57505060e001516001600160a01b0316611de557833403611dd6575b611cba84846128b5565b604051635aef244760e01b81526004810184905261016081602481855afa801561036857611d0a915f91611db7575b50611cff61098a865f52600660205260405f2090565b6080810151916134fd565b15611d55575b50611d507f66a6a86a5c930b3a42f66989d8a24892cdb4a959c55279cdf81733205bb3d64f915b6040805195865290151560208601523394918291820190565b0390a3005b8091503b156102ad57604051636418bde960e01b81523360048201526024810183905260026044820152905f908290606490829084905af1801561036857611da3575b506001611d50611d10565b8061047e5f611db193610c45565b5f611d98565b611dd091506101603d81116104ae576104a08183610c45565b5f611ce9565b631841b4e160e01b5f5260045ffd5b3415611cb057631841b4e160e01b5f5260045ffd5b34611dd657611e08926134fd565b15611e39575b50611d507f66a6a86a5c930b3a42f66989d8a24892cdb4a959c55279cdf81733205bb3d64f91611d37565b8091503b156102ad57604051636418bde960e01b81523360048201526024810183905260026044820152905f908290606490829084905af1801561036857611e87575b506001611d50611e0e565b8061047e5f611e9593610c45565b5f611e7c565b611eb9816005611eb3885f52600660205260405f2090565b016125c3565b611c8d565b61ffff919250611edf611c879160803d608011610b3a57610b2b8183610c45565b929150611c7d565b63fe9ba5cd60e01b5f5260045ffd5b63b7cb8b5b60e01b5f5260045ffd5b611f1f9192506101603d81116104ae576104a08183610c45565b905f611ba1565b346102ad5760203660031901126102ad57600435611f438161036d565b611f4b6134d7565b6001600160a01b03168015611f9c575f80546001600160a01b03198116831782556001600160a01b0316907f8be0079c531659141344cd1fd0a4f28419497f9722a3daafe3b4186f6b6457e09080a3005b631e4fbdf760e01b5f525f60045260245ffd5b604051905f6001548060011c9160018216801561207a575b602084108114612066578386528592602084019190811561204d5750600114611ff8575b5061038992500383610c45565b60015f90815291507fb10e2d527612073b26eecdfd717e6a320cf44b4afac2b0732d9fcbe2b7fa0cf65b84831061203657506103899350015f611feb565b805482840152869350602090920191600101612022565b60ff191682525061038993151560051b0190505f611feb565b634e487b7160e01b5f52602260045260245ffd5b92607f1692611fc7565b604051905f6002548060011c91600182168015612121575b602084108114612066578386528592602084019190811561204d57506001146120cc575061038992500383610c45565b60025f90815291507f405787fa12a823e0f2b7631cc41b3ba8828b3321ca811111fa75cd3aa3bb5ace5b84831061210a57506103899350015f611feb565b8054828401528693506020909201916001016120f6565b92607f169261209c565b805180835260209291819084018484015e5f828201840152601f01601f1916010190565b346102ad575f3660031901126102ad5761218961216a611faf565b610335612175612084565b60405193849360408552604085019061212b565b90838203602085015261212b565b51906103898261036d565b908160209103126102ad5751610d138161036d565b6040513d5f823e3d90fd5b519060068210156102ad57565b519061038982610e99565b90816101609103126102ad576122876101406121f4610c66565b928051845260208101516020850152604081015160408501526060810151606085015261222360808201612197565b608085015261223460a08201612197565b60a085015261224560c08201612197565b60c085015261225660e08201612197565b60e08501526122686101008201612197565b61010085015261227b61012082016121c2565b610120850152016121cf565b61014082015290565b6040519061229d82610bb8565b5f6020838281520152565b604051906122b582610bd8565b5f6060838281528260208201528260408201520152565b604051906122d982610bf3565b815f81525f60208201525f60408201525f60608201525f60808201525f60a08201525f60c08201525f60e082015260405161231381610c0f565b5f81525f60208201525f6040820152610100820152612330612290565b6101208201526101406123416122a8565b910152565b9060405161235381610bb8565b602061ffff829454818116845260101c16910152565b9060405161237681610bd8565b606060038294805484526001810154602085015261ffff60028201541660408501520154910152565b906040516123ac81610c2a565b60806123416005839560ff81548181161515875260081c16151560208601526040516123d781610c0f565b600182015481526002820154602082015260ff60038301541615156040820152604086015261240860048201612346565b606086015201612369565b634e487b7160e01b5f52601160045260245ffd5b5f1981019190821161243557565b612413565b9190820391821161243557565b908160809103126102ad5760606040519161246183610bd8565b8051835260208101516020840152604081015161247d81610eae565b60408401520151606082015290565b6124c06103899460809397969461010084019884526020840152604083019061ffff60208092828151168552015116910152565b019060608091805184526020810151602085015261ffff60408201511660408501520151910152565b60068210156107bc5752565b60038210156107bc5752565b610d13939260609260018060a01b031682526020820152816040820152019061212b565b6001600160a01b039091168152602081019190915260608101929161038991604001906107d8565b908160209103126102ad575190565b60035480156125af575f19810190600354821015610e3a5760035f8190527fc2575a0e9e593c00f959f8c92f12db2869c3395a3b0502d05e2516446f71f85a90910180546001600160a01b031916905555565b634e487b7160e01b5f52603160045260245ffd5b90606060039180518455602081015160018501556125f861ffff604083015116600286019061ffff1661ffff19825416179055565b0151910155565b604051635aef244760e01b81526004810182905290610160826024816001600160a01b037f0000000000000000000000000000000000000000000000000000000000000000165afa918215610368575f92612791575b5061010082015161266e906001600160a01b0316612da7565b61268361098a825f52600660205260405f2090565b60408101518051151580612777575b61269f575b505050505f90565b60200151602084015180911115612697576126bb90845161243a565b92604081015192608060608401948551966126ee83870151604051998a94859463ff7f444360e01b86526004860161248c565b038173__$09d4d2ef7b19ad896b68909a5b9f536be4$__5af493841561036857610d13955f95612750575b505151849061ffff9081165b16612732575b50506134fd565b6005611eb3612749935f52600660205260405f2090565b5f8361272b565b612725955061277061ffff9160803d608011610b3a57610b2b8183610c45565b9550612719565b5061278c6127886040830151151590565b1590565b612692565b6127ab9192506101603d81116104ae576104a08183610c45565b905f612655565b6001600160a01b03918216815291811660208301529091166040820152606081019190915260a060808201819052610d139291019061212b565b604051635aef244760e01b8152600481018490529092916001600160a01b037f0000000000000000000000000000000000000000000000000000000000000000169161016081602481865afa80156103685761010061041f9161285e935f91610486575001516001600160a01b031690565b813b156102ad575f8094612889604051978896879586946307e79c8f60e51b865233600487016127b2565b03925af180156103685761289a5750565b8061047e5f61038993610c45565b9190820180921161243557565b604051635aef244760e01b81526004810182905290916001600160a01b037f000000000000000000000000000000000000000000000000000000000000000016919061016082602481865afa918215610368575f92612d04575b50610100820151612928906001600160a01b0316612da7565b61293d61098a855f52600660205260405f2090565b928251612950602085019182519061243a565b60408501519160608701906080825194818a01946129848651604051988994859463ff7f444360e01b86526004860161248c565b038173__$09d4d2ef7b19ad896b68909a5b9f536be4$__5af4938415610368575f94612cdf575b506129e5906129d96129ce6129c787518a818082109118021890565b809961243a565b91895190519061243a565b90818082109118021890565b956129f086886128a8565b928315612cd0576040516331a9108f60e11b8152600481018b90529860208a6024818a5afa998a15610368575f9a612caa575b506020015115155b8015612ca2575b15612c80575f945b612a4d89612a48888b61243a565b6128a8565b9689612c18575b5061ffff612a6860e0955161ffff90511690565b16612ba6575b50500180516001600160a01b031680612af95750503403612aea577fcb45df05119b18cc11d631cba00e4efd64b2cd9b92ab174d4a7b7678d416f9b29482612ad593612ada575b50505b604051938493846040919493926060820195825260208201520152565b0390a2565b612ae39161354d565b5f80612ab5565b6326ea953d60e01b5f5260045ffd5b96612b49612ad59592937fcb45df05119b18cc11d631cba00e4efd64b2cd9b92ab174d4a7b7678d416f9b29986612b7d575b508451612b40906001600160a01b0316611bee565b3090339061362a565b81612b57575b505050612ab8565b9151612b759290612b70906001600160a01b0316611bee565b613597565b5f8080612b4f565b6001600160a01b03165f908152600460205260409020612b9e8782546128a8565b90555f612b2b565b612c1191612bf86020612bba8b855161243a565b9301519151612bdc8b6060612bd4604085015161ffff1690565b9301516128a8565b92612be5610c76565b948552602085015261ffff166040840152565b60608201526005611eb38c5f52600660205260405f2090565b5f80612a6e565b803b156102ad57604051628c107560e01b8152336004820152602481018d9052604481018b9052905f908290606490829084905af180156103685760e09561ffff92612a6892612c6c575b50955050612a54565b8061047e5f612c7a93610c45565b5f612c63565b825151612c9c9061ffff1682516040015161ffff169089613606565b94612a3a565b508615612a32565b612a2b919a50612cc8602091823d8411610361576103538183610c45565b9a9150612a23565b63924614c760e01b5f5260045ffd5b6129e5919450612cfd9060803d608011610b3a57610b2b8183610c45565b93906129ab565b612d1e9192506101603d81116104ae576104a08183610c45565b905f61290f565b6003549068010000000000000000821015610bd35760018201600355600354821015610e3a5760035f527fc2575a0e9e593c00f959f8c92f12db2869c3395a3b0502d05e2516446f71f85b90910180546001600160a01b0319166001600160a01b03909216919091179055565b908160209103126102ad5751610d13816115bc565b306001600160a01b0390911603612dba57565b633338cdbd60e11b5f523360045260245ffd5b9060018060a01b03825116815260018060a01b0360208301511660208201526040820151604082015260e080612e146060850151610100606086015261010085019061212b565b6080808601516001600160a01b03169085015293612e3a60a082015160a08601906107d8565b60c081015160c0850152015191015290565b6001600160a01b039091168152604060208201819052610d1392910190612dcd565b610d13916020612e87835160408452604084019061212b565b92015190602081840391015261212b565b6001600160a01b039091168152606060208201819052610d13939192612ec091840190612dcd565b916040818403910152612e6e565b6005608061038993612eef81511515859060ff801983541691151516179055565b6020810151151561ff0085549160081b169061ff001916178455612f3c604080830151805160018801556020810151600288015501511515600386019060ff801983541691151516179055565b612f766060820151600486018151815460209093015163ffffffff1990931661ffff9091161760109290921b63ffff000016919091179055565b015191016125c3565b610d13939261301860806101a094805115158552602081015115156020860152612fc76040820151604087019060408091805184526020810151602085015201511515910152565b612fe9606082015160a087019061ffff60208092828151168552015116910152565b0151805160e08501526020810151610100850152604081015161ffff1661012085015260600151610140840152565b610160820152816101808201520190612e6e565b6040516234595d60e31b81527f00000000000000000000000000000000000000000000000000000000000000006001600160a01b03169290602081600481875afa908115610368576130bb916020915f916134ba575b5084516001600160a01b03165b60405163babcc53960e01b81526001600160a01b03909116600482015292839190829081906024820190565b03916001600160a01b03165afa908115610368575f9161349b575b508015613400575b80156133b6575f905b6130f182856136c5565b602084018051909584916001600160a01b031686516001600160a01b03168761319f604082015161319660a084015161313360c086015160018060a01b031690565b9060e086015193613143856107ce565b61317c61012060608901519801519861316c61315d610c85565b6001600160a01b03909c168c52565b6001600160a01b031660208b0152565b604089015260608801526001600160a01b03166080870152565b60a085016124f5565b60c083015260e0820152846020840151511515806133ab575b1561332557916131e29391602093604051809681958294624b382960e01b84523360048501612e98565b03925af1938415610368577fb6dfbc3da80493595ba218d832d250d3eb44a42999a31cbef77bd27ccd9038b5946132e1925f91613306575b509687965b610100608082015191610140810151613236610c95565b93845260208401525f604084015201519085156132e7576132ab61328d611bee5f955b61327a613264610c76565b5f808252602082015261ffff9098166040890152565b5f6060880152516001600160a01b031690565b3314966132a261329b610ca4565b9815158952565b15156020880152565b6040860152606085015260808401526132d5836132d0885f52600660205260405f2090565b612ece565b60405193849384612f7f565b0390a290565b6132ab61328d611bee6133005f5461ffff9060a01c1690565b95613259565b61331f915060203d6020116113b4576113a68183610c45565b5f61321a565b925060209161334b91604051948580948193630a30f89360e11b83523360048401612e4c565b03925af1938415610368577fb6dfbc3da80493595ba218d832d250d3eb44a42999a31cbef77bd27ccd9038b5946132e1925f9161338c575b5096879661321f565b6133a5915060203d6020116113b4576113a68183610c45565b5f613383565b5083515115156131b8565b604051638204c62760e01b8152602081600481885afa908115610368575f916133e1575b50906130e7565b6133fa915060203d6020116113b4576113a68183610c45565b5f6133da565b506040516234595d60e31b8152602081600481875afa9081156103685761343e916020915f9161347e575b50848201516001600160a01b031661308f565b03916001600160a01b03165afa908115610368575f9161345f575b506130de565b613478915060203d602011611b2e57611b208183610c45565b5f613459565b6134959150823d8411610361576103538183610c45565b5f61342b565b6134b4915060203d602011611b2e57611b208183610c45565b5f6130d6565b6134d19150823d8411610361576103538183610c45565b5f613082565b5f546001600160a01b031633036134ea57565b63118cdaa760e01b5f523360045260245ffd5b9190604001518051151580613541575b613519575b5050505f90565b6020809101519201518083111561351257820391821161243557519081018091116124355790565b5060408101511561350d565b5f80809381935af11561355c57565b60405162461bcd60e51b815260206004820152601360248201527211551217d514905394d1915497d19052531151606a1b6044820152606490fd5b5f91826044926020956040519363a9059cbb60e01b8552600485015260248401525af13d15601f3d1160015f5114161716156135cf57565b60405162461bcd60e51b815260206004820152600f60248201526e1514905394d1915497d19052531151608a1b6044820152606490fd5b9061ffff80931692839116019161ffff83116124355761ffff610d139316916137f3565b905f6064926020958295604051946323b872dd60e01b86526004860152602485015260448401525af13d15601f3d1160015f51141617161561366857565b60405162461bcd60e51b81526020600482015260146024820152731514905394d1915497d19493d357d1905253115160621b6044820152606490fd5b61038990929192604081019361ffff60208092828151168552015116910152565b80519091906136dc906001600160a01b0316611bee565b331415806137b5575b6137a65760808201518015159081613784575b5061377557610140820151604083015110611ee757340361376657610100015173__$09d4d2ef7b19ad896b68909a5b9f536be4$__803b156102ad57613755915f916040518080958194639d6c6ae760e01b8352600483016136a4565b03915af480156103685761289a5750565b63cd3cb2bb60e01b5f5260045ffd5b631054a47960e21b5f5260045ffd5b42811091508115613797575b505f6136f8565b64ffffffffff9150115f613790565b632eb6da6160e11b5f5260045ffd5b5060208201516137cd906001600160a01b0316611bee565b3314156136e5565b81156137df570490565b634e487b7160e01b5f52601260045260245ffd5b916137fe828461387e565b929093841561387157848311156138645790829109815f0382168092046002816003021880820260020302808202600203028082026002030280820260020302808202600203028091026002030293600183805f03040190848311900302920304170290565b6011600384150218613891565b505090610d1392506137d5565b905f198183099102908180821091030391565b634e487b715f526020526024601cfdfea264697066735822122044baf887697dd8e34e1da0af2f7f434e1e71a190534f9aa5d878831118d742d964736f6c634300081e0033","linkReferences":{"node_modules/@bulla/contracts-v2/src/libraries/CompoundInterestLib.sol":{"CompoundInterestLib":[{"start":3994,"length":20},{"start":8462,"length":20},{"start":11174,"length":20},{"start":11836,"length":20},{"start":15310,"length":20}]}}},"methodIdentifiers":{"EMPTY_METADATA()":"fac6f215","_bullaClaim()":"2b538af5","acceptPurchaseOrder(uint256,uint256)":"f02f03fc","addToFeeTokenWhitelist(address)":"d4251f9e","admin()":"f851a440","approve(address,uint256)":"095ea7b3","balanceOf(address)":"70a08231","cancelInvoice(uint256,string)":"3f97833b","createInvoice((address,address,uint256,uint256,uint256,string,address,uint8,(uint16,uint16),uint256,uint256))":"4ef5494e","createInvoiceWithMetadata((address,address,uint256,uint256,uint256,string,address,uint8,(uint16,uint16),uint256,uint256),(string,string))":"a4a1d84e","deliverPurchaseOrder(uint256)":"67d1f062","getApproved(uint256)":"081812fc","getInvoice(uint256)":"3a23cc0a","getTotalAmountNeededForPurchaseOrderDeposit(uint256)":"89339744","impairInvoice(uint256)":"1be4c4d4","isApprovedForAll(address,address)":"e985e9c5","markInvoiceAsPaid(uint256)":"0f2c513d","owner()":"8da5cb5b","ownerOf(uint256)":"6352211e","payInvoice(uint256,uint256)":"cc368b1d","protocolFeeBPS()":"96daa322","protocolFeeTokenWhitelist(address)":"a5cc6a7f","protocolFeesByToken(address)":"39737e07","removeFromFeeTokenWhitelist(address)":"82459995","renounceOwnership()":"715018a6","safeTransferFrom(address,address,uint256)":"42842e0e","safeTransferFrom(address,address,uint256,bytes)":"b88d4fde","setApprovalForAll(address,bool)":"a22cb465","setProtocolFee(uint16)":"e4467f35","supportsInterface(bytes4)":"01ffc9a7","transferFrom(address,address,uint256)":"23b872dd","transferOwnership(address)":"f2fde38b","updateBinding(uint256,uint8)":"5edc84eb","whitelistedProtocolFeeTokens(uint256)":"4be18e94","withdrawAllFees()":"af236af4"},"id":56}