{"abi":[{"type":"constructor","inputs":[],"stateMutability":"nonpayable"},{"type":"function","name":"allow","inputs":[{"name":"_address","type":"address","internalType":"address"}],"outputs":[],"stateMutability":"nonpayable"},{"type":"function","name":"allowedAddresses","inputs":[{"name":"","type":"address","internalType":"address"}],"outputs":[{"name":"","type":"bool","internalType":"bool"}],"stateMutability":"view"},{"type":"function","name":"disallow","inputs":[{"name":"_address","type":"address","internalType":"address"}],"outputs":[],"stateMutability":"nonpayable"},{"type":"function","name":"isAllowed","inputs":[{"name":"_address","type":"address","internalType":"address"}],"outputs":[{"name":"","type":"bool","internalType":"bool"}],"stateMutability":"view"},{"type":"function","name":"owner","inputs":[],"outputs":[{"name":"","type":"address","internalType":"address"}],"stateMutability":"view"},{"type":"function","name":"renounceOwnership","inputs":[],"outputs":[],"stateMutability":"nonpayable"},{"type":"function","name":"transferOwnership","inputs":[{"name":"newOwner","type":"address","internalType":"address"}],"outputs":[],"stateMutability":"nonpayable"},{"type":"event","name":"AccessGranted","inputs":[{"name":"_account","type":"address","indexed":true,"internalType":"address"}],"anonymous":false},{"type":"event","name":"AccessRevoked","inputs":[{"name":"_account","type":"address","indexed":true,"internalType":"address"}],"anonymous":false},{"type":"event","name":"OwnershipTransferred","inputs":[{"name":"previousOwner","type":"address","indexed":true,"internalType":"address"},{"name":"newOwner","type":"address","indexed":true,"internalType":"address"}],"anonymous":false},{"type":"error","name":"OwnableInvalidOwner","inputs":[{"name":"owner","type":"address","internalType":"address"}]},{"type":"error","name":"OwnableUnauthorizedAccount","inputs":[{"name":"account","type":"address","internalType":"address"}]}],"bytecode":{"object":"0x608080604052346071573315605e575f8054336001600160a01b0319821681178355916001600160a01b03909116907f8be0079c531659141344cd1fd0a4f28419497f9722a3daafe3b4186f6b6457e09080a36102dc90816100768239f35b631e4fbdf760e01b5f525f60045260245ffd5b5f80fdfe6080806040526004361015610012575f80fd5b5f3560e01c9081634120657a1461024257508063715018a6146101eb5780638da5cb5b146101c4578063a9ed9cb81461017f578063babcc5391461013e578063f2fde38b146100b55763ff9913e814610069575f80fd5b346100b15760203660031901126100b1576004356001600160a01b038116908190036100b157610097610280565b5f52600160205260405f20600160ff198254161790555f80f35b5f80fd5b346100b15760203660031901126100b1576004356001600160a01b038116908190036100b1576100e3610280565b801561012b575f80546001600160a01b03198116831782556001600160a01b0316907f8be0079c531659141344cd1fd0a4f28419497f9722a3daafe3b4186f6b6457e09080a3005b631e4fbdf760e01b5f525f60045260245ffd5b346100b15760203660031901126100b1576004356001600160a01b038116908190036100b1575f526001602052602060ff60405f2054166040519015158152f35b346100b15760203660031901126100b1576004356001600160a01b038116908190036100b1576101ad610280565b5f908152600160205260409020805460ff19169055005b346100b1575f3660031901126100b1575f546040516001600160a01b039091168152602090f35b346100b1575f3660031901126100b157610203610280565b5f80546001600160a01b0319811682556001600160a01b03167f8be0079c531659141344cd1fd0a4f28419497f9722a3daafe3b4186f6b6457e08280a3005b346100b15760203660031901126100b1576004356001600160a01b03811691908290036100b1576020915f526001825260ff60405f20541615158152f35b5f546001600160a01b0316330361029357565b63118cdaa760e01b5f523360045260245ffdfea26469706673582212202241c53046f0ea0a60db5ad8c34e79fb43ba87d7caed1a3b010a360ddedb0ec564736f6c634300081e0033","linkReferences":{}},"methodIdentifiers":{"allow(address)":"ff9913e8","allowedAddresses(address)":"4120657a","disallow(address)":"a9ed9cb8","isAllowed(address)":"babcc539","owner()":"8da5cb5b","renounceOwnership()":"715018a6","transferOwnership(address)":"f2fde38b"},"id":4}