{"abi":[{"type":"function","name":"validateAndCalculatePayment","inputs":[{"name":"from","type":"address","internalType":"address"},{"name":"claim","type":"tuple","internalType":"struct Claim","components":[{"name":"claimAmount","type":"uint256","internalType":"uint256"},{"name":"paidAmount","type":"uint256","internalType":"uint256"},{"name":"dueBy","type":"uint256","internalType":"uint256"},{"name":"impairmentGracePeriod","type":"uint256","internalType":"uint256"},{"name":"originalCreditor","type":"address","internalType":"address"},{"name":"debtor","type":"address","internalType":"address"},{"name":"creditor","type":"address","internalType":"address"},{"name":"token","type":"address","internalType":"address"},{"name":"controller","type":"address","internalType":"address"},{"name":"status","type":"Status","internalType":"enum Status"},{"name":"binding","type":"ClaimBinding","internalType":"enum ClaimBinding"}]},{"name":"paymentAmount","type":"uint256","internalType":"uint256"}],"outputs":[{"name":"totalPaidAmount","type":"uint256","internalType":"uint256"},{"name":"claimPaid","type":"bool","internalType":"bool"}],"stateMutability":"pure"},{"type":"function","name":"validateBindingUpdate","inputs":[{"name":"from","type":"address","internalType":"address"},{"name":"claim","type":"tuple","internalType":"struct Claim","components":[{"name":"claimAmount","type":"uint256","internalType":"uint256"},{"name":"paidAmount","type":"uint256","internalType":"uint256"},{"name":"dueBy","type":"uint256","internalType":"uint256"},{"name":"impairmentGracePeriod","type":"uint256","internalType":"uint256"},{"name":"originalCreditor","type":"address","internalType":"address"},{"name":"debtor","type":"address","internalType":"address"},{"name":"creditor","type":"address","internalType":"address"},{"name":"token","type":"address","internalType":"address"},{"name":"controller","type":"address","internalType":"address"},{"name":"status","type":"Status","internalType":"enum Status"},{"name":"binding","type":"ClaimBinding","internalType":"enum ClaimBinding"}]},{"name":"creditor","type":"address","internalType":"address"},{"name":"binding","type":"ClaimBinding","internalType":"enum ClaimBinding"}],"outputs":[],"stateMutability":"pure"},{"type":"function","name":"validateClaimCancellation","inputs":[{"name":"from","type":"address","internalType":"address"},{"name":"claim","type":"tuple","internalType":"struct Claim","components":[{"name":"claimAmount","type":"uint256","internalType":"uint256"},{"name":"paidAmount","type":"uint256","internalType":"uint256"},{"name":"dueBy","type":"uint256","internalType":"uint256"},{"name":"impairmentGracePeriod","type":"uint256","internalType":"uint256"},{"name":"originalCreditor","type":"address","internalType":"address"},{"name":"debtor","type":"address","internalType":"address"},{"name":"creditor","type":"address","internalType":"address"},{"name":"token","type":"address","internalType":"address"},{"name":"controller","type":"address","internalType":"address"},{"name":"status","type":"Status","internalType":"enum Status"},{"name":"binding","type":"ClaimBinding","internalType":"enum ClaimBinding"}]},{"name":"creditor","type":"address","internalType":"address"}],"outputs":[],"stateMutability":"pure"},{"type":"function","name":"validateClaimImpairment","inputs":[{"name":"from","type":"address","internalType":"address"},{"name":"claim","type":"tuple","internalType":"struct Claim","components":[{"name":"claimAmount","type":"uint256","internalType":"uint256"},{"name":"paidAmount","type":"uint256","internalType":"uint256"},{"name":"dueBy","type":"uint256","internalType":"uint256"},{"name":"impairmentGracePeriod","type":"uint256","internalType":"uint256"},{"name":"originalCreditor","type":"address","internalType":"address"},{"name":"debtor","type":"address","internalType":"address"},{"name":"creditor","type":"address","internalType":"address"},{"name":"token","type":"address","internalType":"address"},{"name":"controller","type":"address","internalType":"address"},{"name":"status","type":"Status","internalType":"enum Status"},{"name":"binding","type":"ClaimBinding","internalType":"enum ClaimBinding"}]},{"name":"creditor","type":"address","internalType":"address"}],"outputs":[],"stateMutability":"view"},{"type":"function","name":"validateCreateClaimApproval","inputs":[{"name":"approval","type":"tuple","internalType":"struct CreateClaimApproval","components":[{"name":"isBindingAllowed","type":"bool","internalType":"bool"},{"name":"approvalType","type":"CreateClaimApprovalType","internalType":"enum CreateClaimApprovalType"},{"name":"approvalCount","type":"uint64","internalType":"uint64"},{"name":"nonce","type":"uint64","internalType":"uint64"}]},{"name":"from","type":"address","internalType":"address"},{"name":"creditor","type":"address","internalType":"address"},{"name":"debtor","type":"address","internalType":"address"},{"name":"binding","type":"ClaimBinding","internalType":"enum ClaimBinding"}],"outputs":[],"stateMutability":"pure"},{"type":"function","name":"validateCreateClaimParams","inputs":[{"name":"from","type":"address","internalType":"address"},{"name":"params","type":"tuple","internalType":"struct CreateClaimParams","components":[{"name":"creditor","type":"address","internalType":"address"},{"name":"debtor","type":"address","internalType":"address"},{"name":"claimAmount","type":"uint256","internalType":"uint256"},{"name":"description","type":"string","internalType":"string"},{"name":"token","type":"address","internalType":"address"},{"name":"binding","type":"ClaimBinding","internalType":"enum ClaimBinding"},{"name":"dueBy","type":"uint256","internalType":"uint256"},{"name":"impairmentGracePeriod","type":"uint256","internalType":"uint256"}]},{"name":"feeExemptions","type":"IPermissions","internalType":"contract IPermissions"},{"name":"CORE_PROTOCOL_FEE","type":"uint256","internalType":"uint256"},{"name":"_msgValue","type":"uint256","internalType":"uint256"}],"outputs":[],"stateMutability":"view"},{"type":"function","name":"validateMarkAsPaid","inputs":[{"name":"from","type":"address","internalType":"address"},{"name":"claim","type":"tuple","internalType":"struct Claim","components":[{"name":"claimAmount","type":"uint256","internalType":"uint256"},{"name":"paidAmount","type":"uint256","internalType":"uint256"},{"name":"dueBy","type":"uint256","internalType":"uint256"},{"name":"impairmentGracePeriod","type":"uint256","internalType":"uint256"},{"name":"originalCreditor","type":"address","internalType":"address"},{"name":"debtor","type":"address","internalType":"address"},{"name":"creditor","type":"address","internalType":"address"},{"name":"token","type":"address","internalType":"address"},{"name":"controller","type":"address","internalType":"address"},{"name":"status","type":"Status","internalType":"enum Status"},{"name":"binding","type":"ClaimBinding","internalType":"enum ClaimBinding"}]},{"name":"creditor","type":"address","internalType":"address"}],"outputs":[],"stateMutability":"pure"},{"type":"error","name":"CannotBindClaim","inputs":[]},{"type":"error","name":"ClaimBound","inputs":[]},{"type":"error","name":"ClaimNotPending","inputs":[]},{"type":"error","name":"IncorrectFee","inputs":[]},{"type":"error","name":"InvalidDueBy","inputs":[]},{"type":"error","name":"NoDueBy","inputs":[]},{"type":"error","name":"NotApproved","inputs":[]},{"type":"error","name":"NotCreditor","inputs":[]},{"type":"error","name":"NotCreditorOrDebtor","inputs":[]},{"type":"error","name":"NotDebtor","inputs":[]},{"type":"error","name":"OverPaying","inputs":[{"name":"paymentAmount","type":"uint256","internalType":"uint256"}]},{"type":"error","name":"PastApprovalDeadline","inputs":[]},{"type":"error","name":"PayingZero","inputs":[]},{"type":"error","name":"PaymentUnderApproved","inputs":[]},{"type":"error","name":"StillInGracePeriod","inputs":[]},{"type":"error","name":"ZeroAmount","inputs":[]}],"bytecode":{"object":"0x60808060405234601957610a2e908161001e823930815050f35b5f80fdfe60806040526004361015610011575f80fd5b5f3560e01c806320727a0d146107c75780633b5d59161461073c578063490080a61461067d5780636bc7636f1461042057806381f0780e146102fc578063a7e4e161146101785763cc11e50b14610066575f80fd5b6101a03660031901126101745761007b61086e565b610084366108bd565b610184359182156101655761012082018051600681101561013a571515908161014e575b81610124575b506101155760a08201516001600160a01b03908116911603610106576100d88260208301516109ab565b90518082116100f35760408093505191808352146020820152f35b82638663097560e01b5f5260045260245ffd5b630b857edf60e21b5f5260045ffd5b6348f8d3b160e01b5f5260045ffd5b905051600681101561013a57600514155f6100ae565b634e487b7160e01b5f52602160045260245ffd5b80915051600681101561013a5760011415906100a8565b63924614c760e01b5f5260045ffd5b5f80fd5b3660031901610100811261017457608013610174576040516080810181811067ffffffffffffffff8211176102e85760405260043580151581036101745781526024356004811015610174576020820190815260443567ffffffffffffffff81169081810361017457604084015260643567ffffffffffffffff811681036101745760608401526084356001600160a01b03811692908390036101745760a4356001600160a01b03811694908590036101745760c4356001600160a01b03811693908490036101745760e43590600382101561017457156102885760021490816102de575b506102cf578051600481101561013a5760011493846102c4575b508315610297575b50505061028857005b63c19f17a960e01b5f5260045ffd5b9091925051600481101561013a5760021491826102b9575b505081808061027f565b1415905081806102af565b831415935084610277565b63dd8f07cb60e01b5f5260045ffd5b905051158561025d565b634e487b7160e01b5f52604160045260245ffd5b6101c03660031901126101745761031161086e565b61031a366108bd565b90610323610884565b906101a4359060038210156101745761012084018051600681101561013a5715159081610409575b816103f3575b50610115576001600160a01b0390811692168214908115806103dc575b6103cd57816103c2575b506102cf5760a08201516001600160a01b03161490816103a9575b5061039a57005b63ab9d400360e01b5f5260045ffd5b61014091500151600381101561013a5760021481610393565b600291501483610378565b632eb6da6160e11b5f5260045ffd5b5060a08401516001600160a01b031683141561036e565b905051600681101561013a576005141585610351565b80915051600681101561013a57600114159061034b565b60a03660031901126101745761043461086e565b6024359067ffffffffffffffff82116101745781600401906101006003198436030112610174576044356001600160a01b038116929083900361017457602484019261047f846109cc565b60405163babcc53960e01b81526001600160a01b039091166004820152602081602481855afa908115610653575f9161065e575b501590816105da575b50806105cc575b6105bd576001600160a01b036104d8846109cc565b6001600160a01b03909316921682141590816105a0575b506103cd5760c4830135801515908161057e575b5061056f5764ffffffffff60e48401351161056f5760a48301356003811015610174576002149182610550575b50506102cf57604401351561054157005b631f2a200560e01b5f5260045ffd5b9091506001600160a01b0390610565906109cc565b1614158280610530565b6309c0242b60e11b5f5260045ffd5b42811091508115610591575b5084610503565b64ffffffffff9150118461058a565b6001600160a01b0391506105b3906109cc565b16811415846104ef565b63cd3cb2bb60e01b5f5260045ffd5b5060643560843514156104c3565b905060206105e7836109cc565b60405163babcc53960e01b81526001600160a01b03909116600482015291829060249082905afa908115610653575f91610624575b5015856104bc565b610646915060203d60201161064c575b61063e818361089b565b8101906109e0565b8561061c565b503d610634565b6040513d5f823e3d90fd5b610677915060203d60201161064c5761063e818361089b565b866104b3565b6101a03660031901126101745761069261086e565b61069b366108bd565b906106a4610884565b61012083018051600681101561013a5715159081610726575b50610115576001600160a01b039081169116036107175760408101908151156107085760606106f09251910151906109ab565b4211156106f957005b637f8de3c160e01b5f5260045ffd5b630b1b7a2b60e11b5f5260045ffd5b6370b72a5f60e11b5f5260045ffd5b905051600681101561013a5760011415846106bd565b6101a03660031901126101745761075161086e565b61075a366108bd565b610120610765610884565b91018051600681101561013a57151590816107b0575b8161079a575b50610115576001600160a01b0390811691160361071757005b905051600681101561013a576005141583610781565b80915051600681101561013a57600114159061077b565b6101a0366003190112610174576107dc61086e565b6107e5366108bd565b906107ee610884565b91610140810151600381101561013a5760021480610855575b61039a57610120810151600681101561013a576101155760a001516001600160a01b0391821691168114159182610841575b50506103cd57005b6001600160a01b0316141590508180610839565b5060a08101516001600160a01b03838116911614610807565b600435906001600160a01b038216820361017457565b61018435906001600160a01b038216820361017457565b90601f8019910116810190811067ffffffffffffffff8211176102e857604052565b6101609060231901126101745760405190610160820182811067ffffffffffffffff8211176102e8576040908152602435835260443560208401526064359083015260843560608301528160a4356001600160a01b038116810361017457608082015260c4356001600160a01b03811681036101745760a082015260e4356001600160a01b03811681036101745760c0820152610104356001600160a01b03811681036101745760e0820152610124356001600160a01b0381168103610174576101008201526101443560068110156101745761012082015261016435906003821015610174576101400152565b919082018092116109b857565b634e487b7160e01b5f52601160045260245ffd5b356001600160a01b03811681036101745790565b9081602091031261017457518015158103610174579056fea2646970667358221220de50eeba2018895594a17d3ddc5885e07f23160d9d70d42742060e1a48ac0eb364736f6c634300081e0033","linkReferences":{}},"methodIdentifiers":{"validateAndCalculatePayment(address,Claim,uint256)":"cc11e50b","validateBindingUpdate(address,Claim,address,ClaimBinding)":"81f0780e","validateClaimCancellation(address,Claim,address)":"20727a0d","validateClaimImpairment(address,Claim,address)":"490080a6","validateCreateClaimApproval(CreateClaimApproval,address,address,address,ClaimBinding)":"a7e4e161","validateCreateClaimParams(address,CreateClaimParams,IPermissions,uint256,uint256)":"6bc7636f","validateMarkAsPaid(address,Claim,address)":"3b5d5916"},"id":70}