{"abi":[{"type":"function","name":"setGuard","inputs":[{"name":"guard","type":"address","internalType":"address"}],"outputs":[],"stateMutability":"nonpayable"},{"type":"event","name":"ChangedGuard","inputs":[{"name":"guard","type":"address","indexed":false,"internalType":"address"}],"anonymous":false}],"bytecode":{"object":"0x60808060405234601557610100908161001a8239f35b5f80fdfe60808060405260043610156011575f80fd5b5f3560e01c63e19a9dd9146023575f80fd5b3460c657602036600319011260c6576004356001600160a01b0381169182820360c657303303609c577f1151116914515bc0891ff9047a6cb32cf902546f83066499bcf8ba33d2353fa2602084847f4a204f620c8c5ccdca3fd54d003badd85ba500436a431f0cbda4f558c93c34c855604051908152a1005b62461bcd60e51b8152602060048201526005602482015264475330333160d81b6044820152606490fd5b5f80fdfea2646970667358221220045f9571c532a672a42216f67a24b79658fe44a684e0960261e34b2995e1d1a864736f6c634300081e0033","linkReferences":{}},"methodIdentifiers":{"setGuard(address)":"e19a9dd9"},"id":74}