{
  "_format": "hh-sol-artifact-1",
  "contractName": "GnosisSafe",
  "sourceName": "@gnosis.pm/safe-contracts/contracts/GnosisSafe.sol",
  "abi": [
    {
      "inputs": [],
      "stateMutability": "nonpayable",
      "type": "constructor"
    },
    {
      "anonymous": false,
      "inputs": [
        {
          "indexed": false,
          "internalType": "address",
          "name": "owner",
          "type": "address"
        }
      ],
      "name": "AddedOwner",
      "type": "event"
    },
    {
      "anonymous": false,
      "inputs": [
        {
          "indexed": true,
          "internalType": "bytes32",
          "name": "approvedHash",
          "type": "bytes32"
        },
        {
          "indexed": true,
          "internalType": "address",
          "name": "owner",
          "type": "address"
        }
      ],
      "name": "ApproveHash",
      "type": "event"
    },
    {
      "anonymous": false,
      "inputs": [
        {
          "indexed": false,
          "internalType": "address",
          "name": "handler",
          "type": "address"
        }
      ],
      "name": "ChangedFallbackHandler",
      "type": "event"
    },
    {
      "anonymous": false,
      "inputs": [
        {
          "indexed": false,
          "internalType": "address",
          "name": "guard",
          "type": "address"
        }
      ],
      "name": "ChangedGuard",
      "type": "event"
    },
    {
      "anonymous": false,
      "inputs": [
        {
          "indexed": false,
          "internalType": "uint256",
          "name": "threshold",
          "type": "uint256"
        }
      ],
      "name": "ChangedThreshold",
      "type": "event"
    },
    {
      "anonymous": false,
      "inputs": [
        {
          "indexed": false,
          "internalType": "address",
          "name": "module",
          "type": "address"
        }
      ],
      "name": "DisabledModule",
      "type": "event"
    },
    {
      "anonymous": false,
      "inputs": [
        {
          "indexed": false,
          "internalType": "address",
          "name": "module",
          "type": "address"
        }
      ],
      "name": "EnabledModule",
      "type": "event"
    },
    {
      "anonymous": false,
      "inputs": [
        {
          "indexed": false,
          "internalType": "bytes32",
          "name": "txHash",
          "type": "bytes32"
        },
        {
          "indexed": false,
          "internalType": "uint256",
          "name": "payment",
          "type": "uint256"
        }
      ],
      "name": "ExecutionFailure",
      "type": "event"
    },
    {
      "anonymous": false,
      "inputs": [
        {
          "indexed": true,
          "internalType": "address",
          "name": "module",
          "type": "address"
        }
      ],
      "name": "ExecutionFromModuleFailure",
      "type": "event"
    },
    {
      "anonymous": false,
      "inputs": [
        {
          "indexed": true,
          "internalType": "address",
          "name": "module",
          "type": "address"
        }
      ],
      "name": "ExecutionFromModuleSuccess",
      "type": "event"
    },
    {
      "anonymous": false,
      "inputs": [
        {
          "indexed": false,
          "internalType": "bytes32",
          "name": "txHash",
          "type": "bytes32"
        },
        {
          "indexed": false,
          "internalType": "uint256",
          "name": "payment",
          "type": "uint256"
        }
      ],
      "name": "ExecutionSuccess",
      "type": "event"
    },
    {
      "anonymous": false,
      "inputs": [
        {
          "indexed": false,
          "internalType": "address",
          "name": "owner",
          "type": "address"
        }
      ],
      "name": "RemovedOwner",
      "type": "event"
    },
    {
      "anonymous": false,
      "inputs": [
        {
          "indexed": true,
          "internalType": "address",
          "name": "sender",
          "type": "address"
        },
        {
          "indexed": false,
          "internalType": "uint256",
          "name": "value",
          "type": "uint256"
        }
      ],
      "name": "SafeReceived",
      "type": "event"
    },
    {
      "anonymous": false,
      "inputs": [
        {
          "indexed": true,
          "internalType": "address",
          "name": "initiator",
          "type": "address"
        },
        {
          "indexed": false,
          "internalType": "address[]",
          "name": "owners",
          "type": "address[]"
        },
        {
          "indexed": false,
          "internalType": "uint256",
          "name": "threshold",
          "type": "uint256"
        },
        {
          "indexed": false,
          "internalType": "address",
          "name": "initializer",
          "type": "address"
        },
        {
          "indexed": false,
          "internalType": "address",
          "name": "fallbackHandler",
          "type": "address"
        }
      ],
      "name": "SafeSetup",
      "type": "event"
    },
    {
      "anonymous": false,
      "inputs": [
        {
          "indexed": true,
          "internalType": "bytes32",
          "name": "msgHash",
          "type": "bytes32"
        }
      ],
      "name": "SignMsg",
      "type": "event"
    },
    {
      "stateMutability": "nonpayable",
      "type": "fallback"
    },
    {
      "inputs": [],
      "name": "VERSION",
      "outputs": [
        {
          "internalType": "string",
          "name": "",
          "type": "string"
        }
      ],
      "stateMutability": "view",
      "type": "function"
    },
    {
      "inputs": [
        {
          "internalType": "address",
          "name": "owner",
          "type": "address"
        },
        {
          "internalType": "uint256",
          "name": "_threshold",
          "type": "uint256"
        }
      ],
      "name": "addOwnerWithThreshold",
      "outputs": [],
      "stateMutability": "nonpayable",
      "type": "function"
    },
    {
      "inputs": [
        {
          "internalType": "bytes32",
          "name": "hashToApprove",
          "type": "bytes32"
        }
      ],
      "name": "approveHash",
      "outputs": [],
      "stateMutability": "nonpayable",
      "type": "function"
    },
    {
      "inputs": [
        {
          "internalType": "address",
          "name": "",
          "type": "address"
        },
        {
          "internalType": "bytes32",
          "name": "",
          "type": "bytes32"
        }
      ],
      "name": "approvedHashes",
      "outputs": [
        {
          "internalType": "uint256",
          "name": "",
          "type": "uint256"
        }
      ],
      "stateMutability": "view",
      "type": "function"
    },
    {
      "inputs": [
        {
          "internalType": "uint256",
          "name": "_threshold",
          "type": "uint256"
        }
      ],
      "name": "changeThreshold",
      "outputs": [],
      "stateMutability": "nonpayable",
      "type": "function"
    },
    {
      "inputs": [
        {
          "internalType": "bytes32",
          "name": "dataHash",
          "type": "bytes32"
        },
        {
          "internalType": "bytes",
          "name": "data",
          "type": "bytes"
        },
        {
          "internalType": "bytes",
          "name": "signatures",
          "type": "bytes"
        },
        {
          "internalType": "uint256",
          "name": "requiredSignatures",
          "type": "uint256"
        }
      ],
      "name": "checkNSignatures",
      "outputs": [],
      "stateMutability": "view",
      "type": "function"
    },
    {
      "inputs": [
        {
          "internalType": "bytes32",
          "name": "dataHash",
          "type": "bytes32"
        },
        {
          "internalType": "bytes",
          "name": "data",
          "type": "bytes"
        },
        {
          "internalType": "bytes",
          "name": "signatures",
          "type": "bytes"
        }
      ],
      "name": "checkSignatures",
      "outputs": [],
      "stateMutability": "view",
      "type": "function"
    },
    {
      "inputs": [
        {
          "internalType": "address",
          "name": "prevModule",
          "type": "address"
        },
        {
          "internalType": "address",
          "name": "module",
          "type": "address"
        }
      ],
      "name": "disableModule",
      "outputs": [],
      "stateMutability": "nonpayable",
      "type": "function"
    },
    {
      "inputs": [],
      "name": "domainSeparator",
      "outputs": [
        {
          "internalType": "bytes32",
          "name": "",
          "type": "bytes32"
        }
      ],
      "stateMutability": "view",
      "type": "function"
    },
    {
      "inputs": [
        {
          "internalType": "address",
          "name": "module",
          "type": "address"
        }
      ],
      "name": "enableModule",
      "outputs": [],
      "stateMutability": "nonpayable",
      "type": "function"
    },
    {
      "inputs": [
        {
          "internalType": "address",
          "name": "to",
          "type": "address"
        },
        {
          "internalType": "uint256",
          "name": "value",
          "type": "uint256"
        },
        {
          "internalType": "bytes",
          "name": "data",
          "type": "bytes"
        },
        {
          "internalType": "enum Enum.Operation",
          "name": "operation",
          "type": "uint8"
        },
        {
          "internalType": "uint256",
          "name": "safeTxGas",
          "type": "uint256"
        },
        {
          "internalType": "uint256",
          "name": "baseGas",
          "type": "uint256"
        },
        {
          "internalType": "uint256",
          "name": "gasPrice",
          "type": "uint256"
        },
        {
          "internalType": "address",
          "name": "gasToken",
          "type": "address"
        },
        {
          "internalType": "address",
          "name": "refundReceiver",
          "type": "address"
        },
        {
          "internalType": "uint256",
          "name": "_nonce",
          "type": "uint256"
        }
      ],
      "name": "encodeTransactionData",
      "outputs": [
        {
          "internalType": "bytes",
          "name": "",
          "type": "bytes"
        }
      ],
      "stateMutability": "view",
      "type": "function"
    },
    {
      "inputs": [
        {
          "internalType": "address",
          "name": "to",
          "type": "address"
        },
        {
          "internalType": "uint256",
          "name": "value",
          "type": "uint256"
        },
        {
          "internalType": "bytes",
          "name": "data",
          "type": "bytes"
        },
        {
          "internalType": "enum Enum.Operation",
          "name": "operation",
          "type": "uint8"
        },
        {
          "internalType": "uint256",
          "name": "safeTxGas",
          "type": "uint256"
        },
        {
          "internalType": "uint256",
          "name": "baseGas",
          "type": "uint256"
        },
        {
          "internalType": "uint256",
          "name": "gasPrice",
          "type": "uint256"
        },
        {
          "internalType": "address",
          "name": "gasToken",
          "type": "address"
        },
        {
          "internalType": "address payable",
          "name": "refundReceiver",
          "type": "address"
        },
        {
          "internalType": "bytes",
          "name": "signatures",
          "type": "bytes"
        }
      ],
      "name": "execTransaction",
      "outputs": [
        {
          "internalType": "bool",
          "name": "success",
          "type": "bool"
        }
      ],
      "stateMutability": "payable",
      "type": "function"
    },
    {
      "inputs": [
        {
          "internalType": "address",
          "name": "to",
          "type": "address"
        },
        {
          "internalType": "uint256",
          "name": "value",
          "type": "uint256"
        },
        {
          "internalType": "bytes",
          "name": "data",
          "type": "bytes"
        },
        {
          "internalType": "enum Enum.Operation",
          "name": "operation",
          "type": "uint8"
        }
      ],
      "name": "execTransactionFromModule",
      "outputs": [
        {
          "internalType": "bool",
          "name": "success",
          "type": "bool"
        }
      ],
      "stateMutability": "nonpayable",
      "type": "function"
    },
    {
      "inputs": [
        {
          "internalType": "address",
          "name": "to",
          "type": "address"
        },
        {
          "internalType": "uint256",
          "name": "value",
          "type": "uint256"
        },
        {
          "internalType": "bytes",
          "name": "data",
          "type": "bytes"
        },
        {
          "internalType": "enum Enum.Operation",
          "name": "operation",
          "type": "uint8"
        }
      ],
      "name": "execTransactionFromModuleReturnData",
      "outputs": [
        {
          "internalType": "bool",
          "name": "success",
          "type": "bool"
        },
        {
          "internalType": "bytes",
          "name": "returnData",
          "type": "bytes"
        }
      ],
      "stateMutability": "nonpayable",
      "type": "function"
    },
    {
      "inputs": [],
      "name": "getChainId",
      "outputs": [
        {
          "internalType": "uint256",
          "name": "",
          "type": "uint256"
        }
      ],
      "stateMutability": "view",
      "type": "function"
    },
    {
      "inputs": [
        {
          "internalType": "address",
          "name": "start",
          "type": "address"
        },
        {
          "internalType": "uint256",
          "name": "pageSize",
          "type": "uint256"
        }
      ],
      "name": "getModulesPaginated",
      "outputs": [
        {
          "internalType": "address[]",
          "name": "array",
          "type": "address[]"
        },
        {
          "internalType": "address",
          "name": "next",
          "type": "address"
        }
      ],
      "stateMutability": "view",
      "type": "function"
    },
    {
      "inputs": [],
      "name": "getOwners",
      "outputs": [
        {
          "internalType": "address[]",
          "name": "",
          "type": "address[]"
        }
      ],
      "stateMutability": "view",
      "type": "function"
    },
    {
      "inputs": [
        {
          "internalType": "uint256",
          "name": "offset",
          "type": "uint256"
        },
        {
          "internalType": "uint256",
          "name": "length",
          "type": "uint256"
        }
      ],
      "name": "getStorageAt",
      "outputs": [
        {
          "internalType": "bytes",
          "name": "",
          "type": "bytes"
        }
      ],
      "stateMutability": "view",
      "type": "function"
    },
    {
      "inputs": [],
      "name": "getThreshold",
      "outputs": [
        {
          "internalType": "uint256",
          "name": "",
          "type": "uint256"
        }
      ],
      "stateMutability": "view",
      "type": "function"
    },
    {
      "inputs": [
        {
          "internalType": "address",
          "name": "to",
          "type": "address"
        },
        {
          "internalType": "uint256",
          "name": "value",
          "type": "uint256"
        },
        {
          "internalType": "bytes",
          "name": "data",
          "type": "bytes"
        },
        {
          "internalType": "enum Enum.Operation",
          "name": "operation",
          "type": "uint8"
        },
        {
          "internalType": "uint256",
          "name": "safeTxGas",
          "type": "uint256"
        },
        {
          "internalType": "uint256",
          "name": "baseGas",
          "type": "uint256"
        },
        {
          "internalType": "uint256",
          "name": "gasPrice",
          "type": "uint256"
        },
        {
          "internalType": "address",
          "name": "gasToken",
          "type": "address"
        },
        {
          "internalType": "address",
          "name": "refundReceiver",
          "type": "address"
        },
        {
          "internalType": "uint256",
          "name": "_nonce",
          "type": "uint256"
        }
      ],
      "name": "getTransactionHash",
      "outputs": [
        {
          "internalType": "bytes32",
          "name": "",
          "type": "bytes32"
        }
      ],
      "stateMutability": "view",
      "type": "function"
    },
    {
      "inputs": [
        {
          "internalType": "address",
          "name": "module",
          "type": "address"
        }
      ],
      "name": "isModuleEnabled",
      "outputs": [
        {
          "internalType": "bool",
          "name": "",
          "type": "bool"
        }
      ],
      "stateMutability": "view",
      "type": "function"
    },
    {
      "inputs": [
        {
          "internalType": "address",
          "name": "owner",
          "type": "address"
        }
      ],
      "name": "isOwner",
      "outputs": [
        {
          "internalType": "bool",
          "name": "",
          "type": "bool"
        }
      ],
      "stateMutability": "view",
      "type": "function"
    },
    {
      "inputs": [],
      "name": "nonce",
      "outputs": [
        {
          "internalType": "uint256",
          "name": "",
          "type": "uint256"
        }
      ],
      "stateMutability": "view",
      "type": "function"
    },
    {
      "inputs": [
        {
          "internalType": "address",
          "name": "prevOwner",
          "type": "address"
        },
        {
          "internalType": "address",
          "name": "owner",
          "type": "address"
        },
        {
          "internalType": "uint256",
          "name": "_threshold",
          "type": "uint256"
        }
      ],
      "name": "removeOwner",
      "outputs": [],
      "stateMutability": "nonpayable",
      "type": "function"
    },
    {
      "inputs": [
        {
          "internalType": "address",
          "name": "to",
          "type": "address"
        },
        {
          "internalType": "uint256",
          "name": "value",
          "type": "uint256"
        },
        {
          "internalType": "bytes",
          "name": "data",
          "type": "bytes"
        },
        {
          "internalType": "enum Enum.Operation",
          "name": "operation",
          "type": "uint8"
        }
      ],
      "name": "requiredTxGas",
      "outputs": [
        {
          "internalType": "uint256",
          "name": "",
          "type": "uint256"
        }
      ],
      "stateMutability": "nonpayable",
      "type": "function"
    },
    {
      "inputs": [
        {
          "internalType": "address",
          "name": "handler",
          "type": "address"
        }
      ],
      "name": "setFallbackHandler",
      "outputs": [],
      "stateMutability": "nonpayable",
      "type": "function"
    },
    {
      "inputs": [
        {
          "internalType": "address",
          "name": "guard",
          "type": "address"
        }
      ],
      "name": "setGuard",
      "outputs": [],
      "stateMutability": "nonpayable",
      "type": "function"
    },
    {
      "inputs": [
        {
          "internalType": "address[]",
          "name": "_owners",
          "type": "address[]"
        },
        {
          "internalType": "uint256",
          "name": "_threshold",
          "type": "uint256"
        },
        {
          "internalType": "address",
          "name": "to",
          "type": "address"
        },
        {
          "internalType": "bytes",
          "name": "data",
          "type": "bytes"
        },
        {
          "internalType": "address",
          "name": "fallbackHandler",
          "type": "address"
        },
        {
          "internalType": "address",
          "name": "paymentToken",
          "type": "address"
        },
        {
          "internalType": "uint256",
          "name": "payment",
          "type": "uint256"
        },
        {
          "internalType": "address payable",
          "name": "paymentReceiver",
          "type": "address"
        }
      ],
      "name": "setup",
      "outputs": [],
      "stateMutability": "nonpayable",
      "type": "function"
    },
    {
      "inputs": [
        {
          "internalType": "bytes32",
          "name": "",
          "type": "bytes32"
        }
      ],
      "name": "signedMessages",
      "outputs": [
        {
          "internalType": "uint256",
          "name": "",
          "type": "uint256"
        }
      ],
      "stateMutability": "view",
      "type": "function"
    },
    {
      "inputs": [
        {
          "internalType": "address",
          "name": "targetContract",
          "type": "address"
        },
        {
          "internalType": "bytes",
          "name": "calldataPayload",
          "type": "bytes"
        }
      ],
      "name": "simulateAndRevert",
      "outputs": [],
      "stateMutability": "nonpayable",
      "type": "function"
    },
    {
      "inputs": [
        {
          "internalType": "address",
          "name": "prevOwner",
          "type": "address"
        },
        {
          "internalType": "address",
          "name": "oldOwner",
          "type": "address"
        },
        {
          "internalType": "address",
          "name": "newOwner",
          "type": "address"
        }
      ],
      "name": "swapOwner",
      "outputs": [],
      "stateMutability": "nonpayable",
      "type": "function"
    },
    {
      "stateMutability": "payable",
      "type": "receive"
    }
  ],
  "bytecode": "0x6080806040523461001b576001600455612a8790816100218239f35b600080fdfe6080604052600436101561002a575b36156100205734156123ab575b600080fd5b61002861290f565b005b60003560e01c80630d582f131461021a57806312fb68e0146102155780632d9ad53d146102105780632f54bf6e1461020b5780633408e47014610206578063468721a7146102015780635229073f146101fc5780635624b25b146101f75780635ae6bd37146101f2578063610b5925146101ed578063694e80c3146101e85780636a761202146101e35780637d832974146101de578063934f3a11146101d9578063a0e67e2b146101d4578063affed0e0146101cf578063b4faba09146101ca578063b63e800d146101c5578063c4ca3a9c146101c0578063cc2f8452146101bb578063d4d9bdcd146101b6578063d8d11f78146101b1578063e009cfde146101ac578063e19a9dd9146101a7578063e318b52b146101a2578063e75235b81461019d578063e86637db14610198578063f08a032314610193578063f698da251461018e578063f8dc5dd9146101895763ffa1ad740361000e57611553565b611453565b611430565b6113b1565b611389565b61136b565b6111ae565b61112f565b610ffc565b610fc9565b610e98565b610dbd565b610cee565b610c57565b610bf8565b610bda565b610b48565b610ab6565b610a6b565b6109ca565b610928565b610837565b61080b565b61077b565b61071f565b6106b9565b610644565b6105dd565b610580565b610528565b610266565b6001600160a01b0381160361001b57565b60e4359061023d8261021f565b565b6044359061023d8261021f565b6084359061023d8261021f565b60a4359061023d8261021f565b3461001b57604036600319011261001b576004356102838161021f565b7f9465fa0c962cc76958e6373a993326400c1c94f8be2fe3a952adfa7f60b2ea266103e9602435926102b361293d565b6102d66001600160a01b038216801515908161040b575b81610400575b506126f3565b61031a6103146103086102fb8460018060a01b03166000526002602052604060002090565b546001600160a01b031690565b6001600160a01b031690565b15612727565b600160005260026020526103886103507fe90b7bceb6e7df5418fb78d8ee546e97c83a08bbccc01a0644d599ccd2a7c2e06102fb565b6001600160a01b03831660009081526002602052604090205b80546001600160a01b0319166001600160a01b03909216919091179055565b600160005260026020526103bc817fe90b7bceb6e7df5418fb78d8ee546e97c83a08bbccc01a0644d599ccd2a7c2e0610369565b6103cf6103ca600354611744565b600355565b6040516001600160a01b0390911681529081906020820190565b0390a180600454036103f757005b610028906128bb565b9050301415386102d0565b600181141591506102ca565b634e487b7160e01b600052604160045260246000fd5b6001600160401b03811161044057604052565b610417565b604081019081106001600160401b0382111761044057604052565b608081019081106001600160401b0382111761044057604052565b61018081019081106001600160401b0382111761044057604052565b90601f801991011681019081106001600160401b0382111761044057604052565b6001600160401b03811161044057601f01601f191660200190565b9291926104df826104b8565b916104ed6040519384610497565b82948184528183011161001b578281602093846000960137010152565b9080601f8301121561001b57816020610525933591016104d3565b90565b3461001b57608036600319011261001b576001600160401b0360243581811161001b5761055990369060040161050a565b60443591821161001b5761057461002892369060040161050a565b60643591600435611f58565b3461001b57602036600319011261001b57602060043561059f8161021f565b6001600160a01b0390811660018114159190826105c3575b50506040519015158152f35b9091506000526001825260406000205416151538806105b7565b3461001b57602036600319011261001b5760206004356105fc8161021f565b6001600160a01b03908116600181141591908261061f5750506040519015158152f35b9091506000526002825260406000205416151538806105b7565b600091031261001b57565b3461001b57600036600319011261001b576020604051468152f35b60643590600282101561001b57565b608060031982011261001b576004356106868161021f565b9160243591604435906001600160401b03821161001b576106a99160040161050a565b90606435600281101561001b5790565b3461001b5760206106d56106cc3661066e565b92919091612537565b6040519015158152f35b919082519283825260005b84811061070b575050826000602080949584010152601f8019910116010190565b6020818301810151848301820152016106ea565b3461001b576107306106cc3661066e565b6040519060203d8301016040523d82523d6000602084013e610766604051928392151583526040602084015260408301906106df565b0390f35b9060206105259281815201906106df565b3461001b57604036600319011261001b57600435602435600581811b92602090838504821484151715610806576107b1856104b8565b946107bf6040519687610497565b8086526107ce601f19916104b8565b01368387013760005b8481106107ec5760405180610766888261076a565b80610801918301548482871b89010152611744565b6107d7565b61172e565b3461001b57602036600319011261001b5760043560005260076020526020604060002054604051908152f35b3461001b57602036600319011261001b577fecdf3a3effea5783a3c4c2140e677577666428d44ed9d474a0b3a4c9943f84406109186004356108788161021f565b61088061293d565b6108b56001600160a01b038281168015158061091d575b6108a0906124cf565b60005260016020526040600020541615612503565b600160008190526020526108f66108d9600080516020612a328339815191526102fb565b6001600160a01b0383166000908152600160205260409020610369565b600160008190526020526103cf81600080516020612a32833981519152610369565b0390a1005b506001811415610897565b3461001b57602036600319011261001b577f610f7ff2b304ae8903c3de74c60c6ab1f7d6226b3f52c5161905bb5ad4039c93602060043561096761293d565b61097560035482111561268b565b61098260018210156126bf565b80600455604051908152a1005b9181601f8401121561001b578235916001600160401b03831161001b576020838186019501011161001b57565b610104359061023d8261021f565b61014036600319011261001b576004356109e38161021f565b6001600160401b0360443581811161001b57610a0390369060040161098f565b90610a0c61065f565b9160e43590610a1a8261021f565b610a226109bc565b926101243595861161001b5761076696610a43610a5997369060040161050a565b9560c4359360a435936084359360243590611913565b60405190151581529081906020820190565b3461001b57604036600319011261001b57600435610a888161021f565b60018060a01b0316600052600860205260406000206024356000526020526020604060002054604051908152f35b3461001b57606036600319011261001b576001600160401b0360243581811161001b57610ae790369060040161050a565b60443591821161001b57610b0261002892369060040161050a565b90600435611d53565b90815180825260208080930193019160005b828110610b2b575050505090565b83516001600160a01b031685529381019392810192600101610b1d565b3461001b57600080600319360112610bd757610b656003546125fb565b9080600191828252600260209281845260018060a01b039160409386848685205416905b610ba0575b855187815280610766818a018c610b0b565b8416878114610bd25790818892610bb7838c61262d565b528452828752610bcc85878620541691611744565b91610b89565b610b8e565b80fd5b3461001b57600036600319011261001b576020600554604051908152f35b3461001b57604036600319011261001b57600435610c158161021f565b6024356001600160401b03811161001b57600091610c388392369060040161050a565b90602082519201905af46000523d6020523d600060403e60403d016000fd5b3461001b5761010036600319011261001b576001600160401b0360043581811161001b573660238201121561001b57806004013582811161001b573660248260051b8401011161001b57610ca961023f565b60643593841161001b57610cc461002894369060040161098f565b610ccc61024c565b91610cd5610259565b93610cde610230565b9660c4359660248035920161161e565b3461001b57608036600319011261001b57600435610d0b8161021f565b6044356001600160401b03811161001b57610d2d610d5091369060040161098f565b9092610d3761065f565b90610d465a955a9436916104d3565b906024359061237b565b1561001b575a810390811161080657610d919060405190602082015260208152610d7981610445565b60405162461bcd60e51b81529182916004830161076a565b0390fd5b90610dad602091949394604084526040840190610b0b565b6001600160a01b03909416910152565b3461001b57604036600319011261001b57600435610dda8161021f565b60243590610de7826125fb565b9060009060018060a01b03809116825260019384918260205280604085205416955b610e22575b505050815261076660405192839283610d95565b9091929481811680151580610e8e575b80610e85575b15610e7d57610e6f6102fb869493610e7593610e548b8b61262d565b526001600160a01b0316600090815260016020526040902090565b96611744565b939291610e09565b509492610e0e565b50838710610e38565b5084811415610e32565b3461001b57602036600319011261001b5733600090815260026020526040812054600435906001600160a01b031615610f2357336000908152600860205260409020610efa90610ef49083905b90600052602052604060002090565b60019055565b33907ff2a0eb156472d1440255b0d7c1e19cc07115d1051fe605b0dce69acfec884d9c8380a380f35b60405162461bcd60e51b8152602060048201526005602482015264047533033360dc1b6044820152606490fd5b61014060031982011261001b57600435610f698161021f565b9160243591604435906001600160401b03821161001b57610f8c9160040161098f565b9091606435600281101561001b57906084359060a4359060c4359060e435610fb38161021f565b9061010435610fc18161021f565b906101243590565b3461001b576020610fee610fdc36610f50565b9998909897919796929695939561229b565b818151910120604051908152f35b3461001b57604036600319011261001b576004356110198161021f565b602435906110268261021f565b61102e61293d565b6001600160a01b038281169081151580611124575b61104c906124cf565b808316600052600160205260406000205416036110f757816110ca610918926103696110ae6102fb7faab4fa2b463f581b2b32cb3b7e3b704b9ce37cc209b5fb4d77e593ace40542769760018060a01b03166000526001602052604060002090565b6001600160a01b03909216600090815260016020526040902090565b6001600160a01b03811660009081526001602052604090206103cf905b80546001600160a01b0319169055565b60405162461bcd60e51b8152602060048201526005602482015264475331303360d81b6044820152606490fd5b506001821415611043565b3461001b57602036600319011261001b577f1151116914515bc0891ff9047a6cb32cf902546f83066499bcf8ba33d2353fa2602060043561116f8161021f565b61117761293d565b7f4a204f620c8c5ccdca3fd54d003badd85ba500436a431f0cbda4f558c93c34c88190556040516001600160a01b039091168152a1005b3461001b57606036600319011261001b577f9465fa0c962cc76958e6373a993326400c1c94f8be2fe3a952adfa7f60b2ea266109186103697ff8d49fc529812e9a7c5c50e69c20f0dccc0db8fa95c98bc58cc9a4f1c1299eaf6113436004356112168161021f565b611322602435916112268361021f565b6044359586916112358361021f565b61123d61293d565b6112c66001600160a01b03611262858216801515908161040b578161040057506126f3565b6112876103146103086102fb8860018060a01b03166000526002602052604060002090565b861680151580611360575b61129b906126f3565b6001600160a01b03831660009081526002602052604090206112c090610308906102fb565b1461287a565b6001600160a01b0385166000908152600260205260409020611308906112eb906102fb565b6001600160a01b0385166000908152600260205260409020610369565b6001600160a01b0316600090815260026020526040902090565b6001600160a01b03811660009081526002602052604090206103cf906110e7565b0390a16040516001600160a01b0390911681529081906020820190565b506001811415611292565b3461001b57600036600319011261001b576020600454604051908152f35b3461001b5761076661139d610fdc36610f50565b6040519182916020835260208301906106df565b3461001b57602036600319011261001b577f5ac6c46c93c8d0e53714ba3b53db3e7c046da994313d7ed0d192028bc7c228b060206004356113f18161021f565b6113f961293d565b7f6c9a6c4a39284e37ed1cf53d337577d14212a4870fb976a4366c693b939918d58190556040516001600160a01b039091168152a1005b3461001b57600036600319011261001b57602061144b612251565b604051908152f35b3461001b57606036600319011261001b576004356114708161021f565b7ff8d49fc529812e9a7c5c50e69c20f0dccc0db8fa95c98bc58cc9a4f1c1299eaf6103e96024356114a08161021f565b611524604435946114af61293d565b6114c5866114be6003546118c0565b101561268b565b6114e36001600160a01b038416801515806113605761129b906126f3565b6001600160a01b038316600090815260026020526040902061036990611508906102fb565b6001600160a01b03909216600090815260026020526040902090565b6001600160a01b0381166000908152600260205260409020611545906110e7565b6103cf6103ca6003546128ae565b3461001b57600036600319011261001b5761076660405161157381610445565b60058152640312e332e360dc1b60208201526040519182916020835260208301906106df565b6001600160401b0381116104405760051b60200190565b93929594918060808601608087525260a08501919060005b8181106115f35750505060208401959095526001600160a01b03918216604084015216606090910152565b90919260019084356116048161021f565b828060a01b031681526020809101940191019190916115c8565b98929497939096919761163088611599565b61163d6040519182610497565b88815260208082018a60051b8d019036821161001b578d905b82821061171557505050506116b46116d19795938b9a9997959361169e7f141df868a6331af528e38c83b7aa03edc19be66e37ae67f9285bf4f8e3c6a1a89d6116ba9561275b565b6001600160a01b0389166116e8575b36916104d3565b856123fc565b826116d6575b5050506040519485943398866115b0565b0390a2565b6116df92611c06565b503880806116c0565b611710897f6c9a6c4a39284e37ed1cf53d337577d14212a4870fb976a4366c693b939918d555565b6116ad565b83809183356117238161021f565b815201910190611656565b634e487b7160e01b600052601160045260246000fd5b60001981146108065760010190565b9060028210156117605752565b634e487b7160e01b600052602160045260246000fd5b9c9b9992959760c08e61023d9d996118199b6117da611807996101409f97986117f69960018060a01b03168652602086015280610160806040880152860152806101809d8e87013760008582018e0152601f01601f191684019a6060850190611753565b608083015260a082015201526001600160a01b031660e08d0152565b6001600160a01b03166101008b0152565b81898203016101208a015201906106df565b6001600160a01b03909216940193909352565b6040513d6000823e3d90fd5b908160061b918083046040149015171561080657565b8115611858570490565b634e487b7160e01b600052601260045260246000fd5b906109c4820180921161080657565b906101f4820180921161080657565b1561189357565b60405162461bcd60e51b8152602060048201526005602482015264047533031360dc1b6044820152606490fd5b60001981019190821161080657565b6109c31981019190821161080657565b156118e657565b60405162461bcd60e51b8152602060048201526005602482015264475330313360d81b6044820152606490fd5b9793838a8c9b97939d9c99958b8f96809b978a8a8a8a8a600554988997600160a01b60019003809c16976119469a61229b565b9061195090611744565b600555805160208201209c611965918e611d53565b7f4a204f620c8c5ccdca3fd54d003badd85ba500436a431f0cbda4f558c93c34c85416998a1515998a611b2b575b5090611a04926119fc926119d55a6119ce6119c96119ba6119b38b611838565b603f900490565b6119c38b61186e565b90612a20565b61187d565b111561188c565b5a9f6119f689159c8d600014611b24576119ee5a6118cf565b9536916104d3565b9161237b565b9b5a906129e3565b908b908c15611b1a575b508015611b12575b611a1f906118df565b60009515611afe575b505050505085600014611ac7576040805185815260208101929092527f442e715f626346e8c54381002da614f62bee8d27386535b2521ec8540898556e91a15b611a70575050565b803b1561001b57604051631264e26d60e31b8152600481019290925283151560248301526000908290604490829084905af18015611ac257611aaf5750565b80611abc61023d9261042d565b80610639565b61182c565b6040805185815260208101929092527f23428b18acfb3ea64b08dc0c1d296ea9c09702c09083ca5272e64d115b687d2391a1611a68565b611b089550611ce7565b3880808080611a28565b508515611a16565b9050151538611a0e565b88956116ad565b8b9291923b1561001b578b8f8b85859288958e8e8e8e8e6040519e8f9a8b9a633af85da960e11b8c52339960048d019b611b649c611776565b03815a6000948591f1928315611ac257611a04946119fc94611b8b575b5091925092611993565b80611abc611b989261042d565b38611b81565b15611ba557565b60405162461bcd60e51b815260206004820152600560248201526423a998189960d91b6044820152606490fd5b15611bd957565b60405162461bcd60e51b8152602060048201526005602482015264475330313160d81b6044820152606490fd5b9092916001600160a01b0390818116611ce1575032935b808216611c695750600080808093611c4461023d963a6001108414611c62576001906129be565b97889183918315611c58575b1690f1611bd2565b6108fc9250611c50565b3a906129be565b611c746020936129a2565b9460008093604051908682019363a9059cbb60e01b855216602482015287604482015260448152611ca481610460565b519261270f195a01f13d8015611cd757602014611cc6575061023d6000611b9e565b61023d906000511590151715611b9e565b5061023d90611b9e565b93611c1d565b92949390926001600160a01b039291838116611d4d575032955b808416611d38575060008093611c448294611d2061023d988596612a0c565b903a81108514611d3057906129be565b503a906129be565b91611d48602095611c7493612a0c565b6129be565b95611d01565b91600454918215611d675761023d93611f58565b60405162461bcd60e51b8152602060048201526005602482015264475330303160d81b6044820152606490fd5b15611d9b57565b60405162461bcd60e51b8152602060048201526005602482015264047533032360dc1b6044820152606490fd5b60ff6003199116019060ff821161080657565b15611de257565b60405162461bcd60e51b8152602060048201526005602482015264475330323560d81b6044820152606490fd5b15611e1657565b60405162461bcd60e51b8152602060048201526005602482015264475330323160d81b6044820152606490fd5b15611e4a57565b60405162461bcd60e51b815260206004820152600560248201526423a998191960d91b6044820152606490fd5b15611e7e57565b60405162461bcd60e51b8152602060048201526005602482015264475330323360d81b6044820152606490fd5b9081602091031261001b57516001600160e01b03198116810361001b5790565b9091611ee2610525936040845260408401906106df565b9160208184039101526106df565b15611ef757565b60405162461bcd60e51b815260206004820152600560248201526411d4cc0c8d60da1b6044820152606490fd5b15611f2b57565b60405162461bcd60e51b815260206004820152600560248201526423a998191b60d91b6044820152606490fd5b91929092611f718151611f6a84612973565b1115611d94565b600090815b838310611f8557505050505050565b8590611fa78484906041020160208101519060ff604160408301519201511692565b929160ff8116806120fc5750506001600160a01b0316916120319190611fd7611fcf89612973565b821015611e0f565b611fec611fe3826129f7565b87511015611e43565b60208161201561200c8380958b0101926120078451916129f7565b612a0c565b89511015611e77565b604051809581926320c13b0b60e01b998a845260048401611ecb565b0381875afa948515611ac25761208e9561208894612063936000926120cf575b50506001600160e01b03191614611ef0565b6001600160a01b0390811683821690811191826120a0575b5081612094575b50611f24565b92611744565b91611f76565b60019150141538612082565b6001600160a01b0385166000908152600260205260409020919250906120c5906102fb565b161515903861207b565b6120ee9250803d106120f5575b6120e68183610497565b810190611eab565b3880612051565b503d6120dc565b91939092945060019182811460001461216e575061208e946001600160a01b039094169361208893509150503383148015612140575b61213b90611ddb565b612063565b5061213b61216489610ee58660018060a01b03166000526008602052604060002090565b5415159050612132565b929392601e101561222057600092936122046040928351966121df8d6020996121d6816121c88d82019485603c917f19457468657265756d205369676e6564204d6573736167653a0a3332000000008252601c8201520190565b03601f198101835282610497565b51902094611dc8565b9451948594859094939260ff6060936080840197845216602083015260408201520152565b84805203915afa15611ac25761208e9061208860005191612063565b916020936122046000946040519384938d859094939260ff6060936080840197845216602083015260408201520152565b60405160208101907f47e79534a245952e8b16893a336b85a3d9ea9fa8c573f3d803afb92a7946921882524660408201523060608201526060815261229581610460565b51902090565b94909895917fbb8310d486368db6bd6f849402fdd73ad53d316b5a4b2644ad6efe0f941286d89a98946122d661230b9260409a9636916104d3565b6020815191012089519b60208d019d8e528c60018060a01b039b8c809b1691015260608d015260808c015260a08b0190611753565b60c089015260e088015261010087015216610120850152166101408301526101609081830152815261233c8161047b565b51902061052561234a612251565b604051601960f81b6020820152600160f81b60218201526022810191909152604281019290925281606281016121c8565b939093600284101561176057600094859460010361239f575060208351930191f490565b9060208451940192f190565b7f6c9a6c4a39284e37ed1cf53d337577d14212a4870fb976a4366c693b939918d5548015610028576000808092368280373360601b3652818060143601925af13d82803e156123f8573d90f35b3d90fd5b60016000819052602052600080516020612a32833981519152546001600160a01b039081166124a25760016000819052602052612455600080516020612a328339815191525b80546001600160a01b0319166001179055565b811661245f575050565b60009182915a9060208351930191f41561247557565b60405162461bcd60e51b8152602060048201526005602482015264047533030360dc1b6044820152606490fd5b60405162461bcd60e51b8152602060048201526005602482015264047533130360dc1b6044820152606490fd5b156124d657565b60405162461bcd60e51b8152602060048201526005602482015264475331303160d81b6044820152606490fd5b1561250a57565b60405162461bcd60e51b815260206004820152600560248201526423a998981960d91b6044820152606490fd5b919290926001331415806125da575b156125ad57612556935a9361237b565b90811561258557337f6895c13664aa4f67288b25d7a21d7aaa34916e355fb9b6fae0a139a9085becb8600080a2565b337facd2c8702804128fdb0db2bb49f6d127dd0181c13fd45dbfe16de0930e2bd375600080a2565b60405162461bcd60e51b815260206004820152600560248201526411d4cc4c0d60da1b6044820152606490fd5b50336000908152600160205260409020546001600160a01b03161515612546565b9061260582611599565b6126126040519182610497565b8281528092612623601f1991611599565b0190602036910137565b80518210156126415760209160051b010190565b634e487b7160e01b600052603260045260246000fd5b1561265e57565b60405162461bcd60e51b8152602060048201526005602482015264047533230360dc1b6044820152606490fd5b1561269257565b60405162461bcd60e51b8152602060048201526005602482015264475332303160d81b6044820152606490fd5b156126c657565b60405162461bcd60e51b815260206004820152600560248201526423a999181960d91b6044820152606490fd5b156126fa57565b60405162461bcd60e51b8152602060048201526005602482015264475332303360d81b6044820152606490fd5b1561272e57565b60405162461bcd60e51b815260206004820152600560248201526411d4cc8c0d60da1b6044820152606490fd5b61276760045415612657565b612774815183111561268b565b6001612782818410156126bf565b600081805b6127c2575b50506001600160a01b0316600090815260026020526040902061023d92916127bd916127b790612442565b51600355565b600455565b909183518310156128745761284b61036961284584936127f26127e5888a61262d565b516001600160a01b031690565b9283916128206001600160a01b038085168015159182612869575b8261285e575b82612851575b50506126f3565b6113086103146103086102fb8660018060a01b03166000526002602052604060002090565b93611744565b91612787565b8416141590503880612819565b308214159250612813565b818b1415925061280d565b9161278c565b1561288157565b60405162461bcd60e51b8152602060048201526005602482015264475332303560d81b6044820152606490fd5b8015610806576000190190565b60207f610f7ff2b304ae8903c3de74c60c6ab1f7d6226b3f52c5161905bb5ad4039c93916128e761293d565b6128f560035482111561268b565b61290260018210156126bf565b80600455604051908152a1565b6040513481527f3d0ce9bfc3ed7d6862dbb28b2dea94561fe714a1b4d019aa8af39730d1ad7c3d60203392a2565b30330361294657565b60405162461bcd60e51b8152602060048201526005602482015264475330333160d81b6044820152606490fd5b801561299c576041810290808204604103610806576129946041918361184e565b0361001b5790565b50600090565b801561299c57808004600103610806576001612994828061184e565b9081156129dc5780820291808304820361080657612994908361184e565b5050600090565b9081811161001b5781039081116108065790565b602081019081811161080657811061001b5790565b9081019081811161080657811061001b5790565b90808210612a2c575090565b90509056fecc69885fda6bcc1a4ace058b4a62bf5e179ea78fd58a1ccd71c22cc9b688792fa2646970667358221220b4e7f933f0de631aaf4ac1231731ff739a2df769a280d612d8db3bbdc6c0177764736f6c63430008140033",
  "linkReferences": {},
  "deployedLinkReferences": {}
}