{"abi":[{"type":"constructor","inputs":[{"name":"_controllerRegistry","type":"address","internalType":"address"}],"stateMutability":"nonpayable"},{"type":"function","name":"DOMAIN_SEPARATOR","inputs":[],"outputs":[{"name":"","type":"bytes32","internalType":"bytes32"}],"stateMutability":"view"},{"type":"function","name":"approvals","inputs":[{"name":"","type":"address","internalType":"address"},{"name":"","type":"address","internalType":"address"}],"outputs":[{"name":"createClaim","type":"tuple","internalType":"struct CreateClaimApproval","components":[{"name":"isBindingAllowed","type":"bool","internalType":"bool"},{"name":"approvalType","type":"uint8","internalType":"enum CreateClaimApprovalType"},{"name":"approvalCount","type":"uint64","internalType":"uint64"},{"name":"nonce","type":"uint64","internalType":"uint64"}]}],"stateMutability":"view"},{"type":"function","name":"approveCreateClaim","inputs":[{"name":"controller","type":"address","internalType":"address"},{"name":"approvalType","type":"uint8","internalType":"enum CreateClaimApprovalType"},{"name":"approvalCount","type":"uint64","internalType":"uint64"},{"name":"isBindingAllowed","type":"bool","internalType":"bool"}],"outputs":[],"stateMutability":"nonpayable"},{"type":"function","name":"authorizedContracts","inputs":[{"name":"","type":"address","internalType":"address"}],"outputs":[{"name":"","type":"bool","internalType":"bool"}],"stateMutability":"view"},{"type":"function","name":"controllerRegistry","inputs":[],"outputs":[{"name":"","type":"address","internalType":"contract IBullaControllerRegistry"}],"stateMutability":"view"},{"type":"function","name":"eip712Domain","inputs":[],"outputs":[{"name":"fields","type":"bytes1","internalType":"bytes1"},{"name":"name","type":"string","internalType":"string"},{"name":"version","type":"string","internalType":"string"},{"name":"chainId","type":"uint256","internalType":"uint256"},{"name":"verifyingContract","type":"address","internalType":"address"},{"name":"salt","type":"bytes32","internalType":"bytes32"},{"name":"extensions","type":"uint256[]","internalType":"uint256[]"}],"stateMutability":"view"},{"type":"function","name":"getApprovals","inputs":[{"name":"user","type":"address","internalType":"address"},{"name":"controller","type":"address","internalType":"address"}],"outputs":[{"name":"createClaim","type":"tuple","internalType":"struct CreateClaimApproval","components":[{"name":"isBindingAllowed","type":"bool","internalType":"bool"},{"name":"approvalType","type":"uint8","internalType":"enum CreateClaimApprovalType"},{"name":"approvalCount","type":"uint64","internalType":"uint64"},{"name":"nonce","type":"uint64","internalType":"uint64"}]}],"stateMutability":"view"},{"type":"function","name":"isAuthorizedContract","inputs":[{"name":"contractAddress","type":"address","internalType":"address"}],"outputs":[{"name":"","type":"bool","internalType":"bool"}],"stateMutability":"view"},{"type":"function","name":"owner","inputs":[],"outputs":[{"name":"","type":"address","internalType":"address"}],"stateMutability":"view"},{"type":"function","name":"permitCreateClaim","inputs":[{"name":"user","type":"address","internalType":"address"},{"name":"controller","type":"address","internalType":"address"},{"name":"approvalType","type":"uint8","internalType":"enum CreateClaimApprovalType"},{"name":"approvalCount","type":"uint64","internalType":"uint64"},{"name":"isBindingAllowed","type":"bool","internalType":"bool"},{"name":"signature","type":"bytes","internalType":"bytes"}],"outputs":[],"stateMutability":"nonpayable"},{"type":"function","name":"renounceOwnership","inputs":[],"outputs":[],"stateMutability":"nonpayable"},{"type":"function","name":"setAuthorizedContract","inputs":[{"name":"contractAddress","type":"address","internalType":"address"},{"name":"authorized","type":"bool","internalType":"bool"}],"outputs":[],"stateMutability":"nonpayable"},{"type":"function","name":"setControllerRegistry","inputs":[{"name":"_controllerRegistry","type":"address","internalType":"address"}],"outputs":[],"stateMutability":"nonpayable"},{"type":"function","name":"spendCreateClaimApproval","inputs":[{"name":"user","type":"address","internalType":"address"},{"name":"controller","type":"address","internalType":"address"},{"name":"creditor","type":"address","internalType":"address"},{"name":"debtor","type":"address","internalType":"address"},{"name":"binding","type":"uint8","internalType":"enum ClaimBinding"}],"outputs":[],"stateMutability":"nonpayable"},{"type":"function","name":"transferOwnership","inputs":[{"name":"newOwner","type":"address","internalType":"address"}],"outputs":[],"stateMutability":"nonpayable"},{"type":"event","name":"ContractAuthorized","inputs":[{"name":"contractAddress","type":"address","indexed":true,"internalType":"address"},{"name":"authorized","type":"bool","indexed":false,"internalType":"bool"}],"anonymous":false},{"type":"event","name":"CreateClaimApproved","inputs":[{"name":"user","type":"address","indexed":true,"internalType":"address"},{"name":"controller","type":"address","indexed":true,"internalType":"address"},{"name":"approvalType","type":"uint8","indexed":true,"internalType":"enum CreateClaimApprovalType"},{"name":"approvalCount","type":"uint256","indexed":false,"internalType":"uint256"},{"name":"isBindingAllowed","type":"bool","indexed":false,"internalType":"bool"},{"name":"nonce","type":"uint256","indexed":false,"internalType":"uint256"}],"anonymous":false},{"type":"event","name":"EIP712DomainChanged","inputs":[],"anonymous":false},{"type":"event","name":"OwnershipTransferred","inputs":[{"name":"previousOwner","type":"address","indexed":true,"internalType":"address"},{"name":"newOwner","type":"address","indexed":true,"internalType":"address"}],"anonymous":false},{"type":"error","name":"ApprovalExpired","inputs":[]},{"type":"error","name":"InvalidApproval","inputs":[]},{"type":"error","name":"InvalidShortString","inputs":[]},{"type":"error","name":"InvalidSignature","inputs":[]},{"type":"error","name":"NotAuthorized","inputs":[]},{"type":"error","name":"OwnableInvalidOwner","inputs":[{"name":"owner","type":"address","internalType":"address"}]},{"type":"error","name":"OwnableUnauthorizedAccount","inputs":[{"name":"account","type":"address","internalType":"address"}]},{"type":"error","name":"PastApprovalDeadline","inputs":[]},{"type":"error","name":"PaymentUnderApproved","inputs":[]},{"type":"error","name":"StringTooLong","inputs":[{"name":"str","type":"string","internalType":"string"}]}],"bytecode":{"object":"0x61016080604052346101e15760208161136c803803809161002082856101e5565b8339810103126101e157516001600160a01b038116908190036101e15760405161004b6040826101e5565b6015815260208101907f42756c6c61417070726f76616c526567697374727900000000000000000000008252604051916100866040846101e5565b600183526020830191603160f81b835233156101ce575f8054336001600160a01b0319821681178355916001600160a01b03909116907f8be0079c531659141344cd1fd0a4f28419497f9722a3daafe3b4186f6b6457e09080a36100e98161021c565b610120526100f6846103b7565b61014052519020918260e05251902080610100524660a0526040519060208201927f8b73c3c69bb8fe3d512ecc4cf759cc79239f7b179b0ffacaa9a75d522b39400f8452604083015260608201524660808201523060a082015260a0815261015f60c0826101e5565b5190206080523060c052600580546001600160a01b031916919091179055604051610e7c90816104f0823960805181610b44015260a05181610c01015260c05181610b0e015260e05181610b9301526101005181610bb9015261012051816105350152610140518161055f0152f35b631e4fbdf760e01b5f525f60045260245ffd5b5f80fd5b601f909101601f19168101906001600160401b0382119082101761020857604052565b634e487b7160e01b5f52604160045260245ffd5b908151602081105f14610296575090601f815111610256576020815191015160208210610247571790565b5f198260200360031b1b161790565b604460209160405192839163305a27a960e01b83528160048401528051918291826024860152018484015e5f828201840152601f01601f19168101030190fd5b6001600160401b03811161020857600154600181811c911680156103ad575b602082101461039957601f8111610366575b50602092601f821160011461030557928192935f926102fa575b50508160011b915f199060031b1c19161760015560ff90565b015190505f806102e1565b601f1982169360015f52805f20915f5b86811061034e5750836001959610610336575b505050811b0160015560ff90565b01515f1960f88460031b161c191690555f8080610328565b91926020600181928685015181550194019201610315565b60015f52601f60205f20910160051c810190601f830160051c015b81811061038e57506102c7565b5f8155600101610381565b634e487b7160e01b5f52602260045260245ffd5b90607f16906102b5565b908151602081105f146103e2575090601f815111610256576020815191015160208210610247571790565b6001600160401b03811161020857600254600181811c911680156104e5575b602082101461039957601f81116104b2575b50602092601f821160011461045157928192935f92610446575b50508160011b915f199060031b1c19161760025560ff90565b015190505f8061042d565b601f1982169360025f52805f20915f5b86811061049a5750836001959610610482575b505050811b0160025560ff90565b01515f1960f88460031b161c191690555f8080610474565b91926020600181928685015181550194019201610461565b60025f52601f60205f20910160051c810190601f830160051c015b8181106104da5750610413565b5f81556001016104cd565b90607f169061040156fe6080806040526004361015610012575f80fd5b5f905f3560e01c9081630ee174ec14610967575080631ee447e6146107ab5780633644e515146107885780633e06ec8f1461067157806366d0ead3146103e6578063715018a61461061757806384b0196e1461051b57806385fd6cf3146104d65780638da5cb5b146104af578063a32ce11e1461044e578063bbc4541b14610425578063d5b9221b146103e6578063e5a39c92146101ce578063f2fa73921461014b5763f2fde38b146100c3575f80fd5b34610148576020366003190112610148576100dc6109d5565b6100e4610c27565b6001600160a01b031680156101345781546001600160a01b03198116821783556001600160a01b03167f8be0079c531659141344cd1fd0a4f28419497f9722a3daafe3b4186f6b6457e08380a380f35b631e4fbdf760e01b82526004829052602482fd5b80fd5b5034610148576040366003190112610148576101656109d5565b602435908115158092036101ca5760207f3213ab8ec2ed122402f038736b41878b69ae9f61f49a7edd0666bce891d29fc99161019f610c27565b6001600160a01b0316808552600482526040808620805460ff191660ff87161790555193845292a280f35b8280fd5b50346101485760a0366003190112610148576101e86109d5565b6101f06109eb565b906044356001600160a01b03811691908290036103c0576064356001600160a01b03811691908290036103cf576084359060038210156103e257338652600460205260ff604087205416156103d35790859160018060a01b03169384835260036020526040832060018060a01b0387165f5260205261027160405f20610abd565b9373__$8c7a8ea2c745cf0f3428950d07c69423ac$__803b156103cf57849261010491604051958694859363a7e4e16160e01b85526102b3600486018c610a22565b8b608486015260a485015260c484015260e48301525af480156103c4576103ab575b50506040015167ffffffffffffffff1667fffffffffffffffe1981016102f9578380f35b60011461037c575b82526003602052604082209060018060a01b03165f5260205260405f2080545f1967ffffffffffffffff8260101c160167ffffffffffffffff81116103685769ffffffffffffffff00009060101b169069ffffffffffffffff000019161790555f80808380f35b634e487b7160e01b84526011600452602484fd5b8083526003602090815260408085206001600160a01b0385165f90815292529020805461ff0019169055610301565b816103b591610a77565b6103c057835f6102d5565b8380fd5b6040513d84823e3d90fd5b8480fd5b63ea8e4eb560e01b8652600486fd5b8580fd5b50346101485760203660031901126101485760209060ff906040906001600160a01b036104116109d5565b168152600484522054166040519015158152f35b50346101485780600319360112610148576005546040516001600160a01b039091168152602090f35b503461014857604036600319011261014857604061046a6109d5565b916104736109eb565b9260018060a01b031681526003602052209060018060a01b03165f5260205260806104a060405f20610abd565b6104ad6040518092610a22565bf35b5034610148578060031936011261014857546040516001600160a01b039091168152602090f35b5034610148576020366003190112610148576104f06109d5565b6104f8610c27565b60018060a01b03166bffffffffffffffffffffffff60a01b600554161760055580f35b50346101485780600319360112610148576105bb906105597f0000000000000000000000000000000000000000000000000000000000000000610c4d565b906105837f0000000000000000000000000000000000000000000000000000000000000000610d76565b9060206105c9604051936105978386610a77565b8385525f368137604051968796600f60f81b885260e08589015260e0880190610a99565b908682036040880152610a99565b904660608601523060808601528260a086015284820360c08601528080855193848152019401925b82811061060057505050500390f35b8351855286955093810193928101926001016105f1565b5034610148578060031936011261014857610630610c27565b80546001600160a01b03198116825581906001600160a01b03167f8be0079c531659141344cd1fd0a4f28419497f9722a3daafe3b4186f6b6457e08280a380f35b5034610148576080366003190112610148578061068c6109d5565b602435906004821015610784576044359167ffffffffffffffff831680930361078257606435908115158092036103cf573385526003602090815260408087206001600160a01b038681165f90815291909352206005549091169273__$46f1644a4a848422e30082bae652fcef70$__90610705610b0b565b96823b1561077e57610754610104958a986040519a8b998a9863f920569560e01b8a5260048a01526024890152604488015233606488015260018060a01b0316608487015260a4860190610a01565b60c484015260e48301525af480156103c45761076d5750f35b8161077791610a77565b6101485780f35b8880fd5b505b5050fd5b503461014857806003193601126101485760206107a3610b0b565b604051908152f35b503461094f5760c036600319011261094f576107c56109d5565b6107cd6109eb565b60443591600483101561094f576064359067ffffffffffffffff821680920361094f5760843580151580910361094f5760a43567ffffffffffffffff811161094f573660238201121561094f57806004013567ffffffffffffffff81116109535760405191610846601f8301601f191660200184610a77565b818352366024838301011161094f57815f9260246020930183860137830101526001600160a01b039283165f81815260036020908152604080832089881684529091529020600554919773__$46f1644a4a848422e30082bae652fcef70$__9592909216939092906108b6610b0b565b96863b1561094f57610906610924945f9a6040519c8d9b8c9a8b9a63b2f4bc3960e01b8c5260048c015260248b015260448a0152606489015260018060a01b0316608488015260a4870190610a01565b60c485015260e4840152610120610104840152610124830190610a99565b03915af4801561094457610936575080f35b61094291505f90610a77565b005b6040513d5f823e3d90fd5b5f80fd5b634e487b7160e01b5f52604160045260245ffd5b3461094f57604036600319011261094f576109806109d5565b5f606061098b6109eb565b9361099581610a5b565b828152826020820152826040820152015260018060a01b03165f52600360205260405f209060018060a01b03165f5260205260806104a060405f20610abd565b600435906001600160a01b038216820361094f57565b602435906001600160a01b038216820361094f57565b906004821015610a0e5752565b634e487b7160e01b5f52602160045260245ffd5b67ffffffffffffffff60608092805115158552610a4760208201516020870190610a01565b826040820151166040860152015116910152565b6080810190811067ffffffffffffffff82111761095357604052565b90601f8019910116810190811067ffffffffffffffff82111761095357604052565b805180835260209291819084018484015e5f828201840152601f01601f1916010190565b90604051610aca81610a5b565b80925460ff81161515825260ff8160081c166004811015610a0e5760609167ffffffffffffffff916020850152818160101c16604085015260501c16910152565b307f00000000000000000000000000000000000000000000000000000000000000006001600160a01b03161480610bfe575b15610b66577f000000000000000000000000000000000000000000000000000000000000000090565b60405160208101907f8b73c3c69bb8fe3d512ecc4cf759cc79239f7b179b0ffacaa9a75d522b39400f82527f000000000000000000000000000000000000000000000000000000000000000060408201527f000000000000000000000000000000000000000000000000000000000000000060608201524660808201523060a082015260a08152610bf860c082610a77565b51902090565b507f00000000000000000000000000000000000000000000000000000000000000004614610b3d565b5f546001600160a01b03163303610c3a57565b63118cdaa760e01b5f523360045260245ffd5b60ff8114610c935760ff811690601f8211610c845760405191610c71604084610a77565b6020808452838101919036833783525290565b632cd44ac360e21b5f5260045ffd5b506040515f6001548060011c9160018216918215610d6c575b602084108314610d58578385528492908115610d395750600114610cda575b610cd792500382610a77565b90565b5060015f90815290917fb10e2d527612073b26eecdfd717e6a320cf44b4afac2b0732d9fcbe2b7fa0cf65b818310610d1d575050906020610cd792820101610ccb565b6020919350806001915483858801015201910190918392610d05565b60209250610cd794915060ff191682840152151560051b820101610ccb565b634e487b7160e01b5f52602260045260245ffd5b92607f1692610cac565b60ff8114610d9a5760ff811690601f8211610c845760405191610c71604084610a77565b506040515f6002548060011c9160018216918215610e3c575b602084108314610d58578385528492908115610d395750600114610ddd57610cd792500382610a77565b5060025f90815290917f405787fa12a823e0f2b7631cc41b3ba8828b3321ca811111fa75cd3aa3bb5ace5b818310610e20575050906020610cd792820101610ccb565b6020919350806001915483858801015201910190918392610e08565b92607f1692610db356fea2646970667358221220162a57c6af0ec458e43d1e5ca73668a9c646fad899a994dd0b86a2e8a83be69064736f6c634300081e0033","linkReferences":{"node_modules/@bulla/contracts-v2/src/libraries/BullaClaimPermitLib.sol":{"BullaClaimPermitLib":[{"start":3033,"length":20},{"start":3458,"length":20}]},"node_modules/@bulla/contracts-v2/src/libraries/BullaClaimValidationLib.sol":{"BullaClaimValidationLib":[{"start":1892,"length":20}]}}},"methodIdentifiers":{"DOMAIN_SEPARATOR()":"3644e515","approvals(address,address)":"a32ce11e","approveCreateClaim(address,uint8,uint64,bool)":"3e06ec8f","authorizedContracts(address)":"d5b9221b","controllerRegistry()":"bbc4541b","eip712Domain()":"84b0196e","getApprovals(address,address)":"0ee174ec","isAuthorizedContract(address)":"66d0ead3","owner()":"8da5cb5b","permitCreateClaim(address,address,uint8,uint64,bool,bytes)":"1ee447e6","renounceOwnership()":"715018a6","setAuthorizedContract(address,bool)":"f2fa7392","setControllerRegistry(address)":"85fd6cf3","spendCreateClaimApproval(address,address,address,address,uint8)":"e5a39c92","transferOwnership(address)":"f2fde38b"},"id":53}