{
  "address": "0x078Dc29cDaf3B3c7F616109Ac6e752c846490BAf",
  "abi": [
    {
      "inputs": [
        {
          "internalType": "contract IERC20",
          "name": "_asset",
          "type": "address"
        },
        {
          "internalType": "contract IInvoiceProviderAdapterV2",
          "name": "_invoiceProviderAdapter",
          "type": "address"
        },
        {
          "internalType": "contract IBullaFrendLend",
          "name": "_bullaFrendLend",
          "type": "address"
        },
        {
          "internalType": "address",
          "name": "_underwriter",
          "type": "address"
        },
        {
          "internalType": "contract Permissions",
          "name": "_depositPermissions",
          "type": "address"
        },
        {
          "internalType": "contract Permissions",
          "name": "_redeemPermissions",
          "type": "address"
        },
        {
          "internalType": "contract Permissions",
          "name": "_factoringPermissions",
          "type": "address"
        },
        {
          "internalType": "address",
          "name": "_bullaDao",
          "type": "address"
        },
        {
          "internalType": "uint16",
          "name": "_protocolFeeBps",
          "type": "uint16"
        },
        {
          "internalType": "uint16",
          "name": "_adminFeeBps",
          "type": "uint16"
        },
        {
          "internalType": "string",
          "name": "_poolName",
          "type": "string"
        },
        {
          "internalType": "uint16",
          "name": "_targetYieldBps",
          "type": "uint16"
        },
        {
          "internalType": "string",
          "name": "_tokenName",
          "type": "string"
        },
        {
          "internalType": "string",
          "name": "_tokenSymbol",
          "type": "string"
        }
      ],
      "stateMutability": "nonpayable",
      "type": "constructor"
    },
    {
      "inputs": [],
      "name": "ApprovalExpired",
      "type": "error"
    },
    {
      "inputs": [],
      "name": "CallerNotBullaDao",
      "type": "error"
    },
    {
      "inputs": [],
      "name": "CallerNotBullaFrendLend",
      "type": "error"
    },
    {
      "inputs": [],
      "name": "CallerNotOriginalCreditor",
      "type": "error"
    },
    {
      "inputs": [],
      "name": "CallerNotUnderwriter",
      "type": "error"
    },
    {
      "inputs": [],
      "name": "DeductionsExceedsRealisedGains",
      "type": "error"
    },
    {
      "inputs": [
        {
          "internalType": "address",
          "name": "spender",
          "type": "address"
        },
        {
          "internalType": "uint256",
          "name": "allowance",
          "type": "uint256"
        },
        {
          "internalType": "uint256",
          "name": "needed",
          "type": "uint256"
        }
      ],
      "name": "ERC20InsufficientAllowance",
      "type": "error"
    },
    {
      "inputs": [
        {
          "internalType": "address",
          "name": "sender",
          "type": "address"
        },
        {
          "internalType": "uint256",
          "name": "balance",
          "type": "uint256"
        },
        {
          "internalType": "uint256",
          "name": "needed",
          "type": "uint256"
        }
      ],
      "name": "ERC20InsufficientBalance",
      "type": "error"
    },
    {
      "inputs": [
        {
          "internalType": "address",
          "name": "approver",
          "type": "address"
        }
      ],
      "name": "ERC20InvalidApprover",
      "type": "error"
    },
    {
      "inputs": [
        {
          "internalType": "address",
          "name": "receiver",
          "type": "address"
        }
      ],
      "name": "ERC20InvalidReceiver",
      "type": "error"
    },
    {
      "inputs": [
        {
          "internalType": "address",
          "name": "sender",
          "type": "address"
        }
      ],
      "name": "ERC20InvalidSender",
      "type": "error"
    },
    {
      "inputs": [
        {
          "internalType": "address",
          "name": "spender",
          "type": "address"
        }
      ],
      "name": "ERC20InvalidSpender",
      "type": "error"
    },
    {
      "inputs": [
        {
          "internalType": "address",
          "name": "receiver",
          "type": "address"
        },
        {
          "internalType": "uint256",
          "name": "assets",
          "type": "uint256"
        },
        {
          "internalType": "uint256",
          "name": "max",
          "type": "uint256"
        }
      ],
      "name": "ERC4626ExceededMaxDeposit",
      "type": "error"
    },
    {
      "inputs": [
        {
          "internalType": "address",
          "name": "receiver",
          "type": "address"
        },
        {
          "internalType": "uint256",
          "name": "shares",
          "type": "uint256"
        },
        {
          "internalType": "uint256",
          "name": "max",
          "type": "uint256"
        }
      ],
      "name": "ERC4626ExceededMaxMint",
      "type": "error"
    },
    {
      "inputs": [
        {
          "internalType": "address",
          "name": "owner",
          "type": "address"
        },
        {
          "internalType": "uint256",
          "name": "shares",
          "type": "uint256"
        },
        {
          "internalType": "uint256",
          "name": "max",
          "type": "uint256"
        }
      ],
      "name": "ERC4626ExceededMaxRedeem",
      "type": "error"
    },
    {
      "inputs": [
        {
          "internalType": "address",
          "name": "owner",
          "type": "address"
        },
        {
          "internalType": "uint256",
          "name": "assets",
          "type": "uint256"
        },
        {
          "internalType": "uint256",
          "name": "max",
          "type": "uint256"
        }
      ],
      "name": "ERC4626ExceededMaxWithdraw",
      "type": "error"
    },
    {
      "inputs": [],
      "name": "FunctionNotSupported",
      "type": "error"
    },
    {
      "inputs": [],
      "name": "ImpairReserveMustBeGreater",
      "type": "error"
    },
    {
      "inputs": [],
      "name": "ImpairReserveNotSet",
      "type": "error"
    },
    {
      "inputs": [],
      "name": "InvalidAddress",
      "type": "error"
    },
    {
      "inputs": [],
      "name": "InvalidPercentage",
      "type": "error"
    },
    {
      "inputs": [],
      "name": "InvoiceAlreadyFunded",
      "type": "error"
    },
    {
      "inputs": [],
      "name": "InvoiceAlreadyImpairedByFund",
      "type": "error"
    },
    {
      "inputs": [],
      "name": "InvoiceAlreadyPaid",
      "type": "error"
    },
    {
      "inputs": [],
      "name": "InvoiceCanceled",
      "type": "error"
    },
    {
      "inputs": [],
      "name": "InvoiceCannotBePaid",
      "type": "error"
    },
    {
      "inputs": [],
      "name": "InvoiceCreditorChanged",
      "type": "error"
    },
    {
      "inputs": [],
      "name": "InvoiceNotApproved",
      "type": "error"
    },
    {
      "inputs": [],
      "name": "InvoiceNotImpaired",
      "type": "error"
    },
    {
      "inputs": [],
      "name": "InvoicePaidAmountChanged",
      "type": "error"
    },
    {
      "inputs": [],
      "name": "InvoiceTokenMismatch",
      "type": "error"
    },
    {
      "inputs": [],
      "name": "LoanOfferAlreadyAccepted",
      "type": "error"
    },
    {
      "inputs": [],
      "name": "LoanOfferNotExists",
      "type": "error"
    },
    {
      "inputs": [],
      "name": "NoFeesToWithdraw",
      "type": "error"
    },
    {
      "inputs": [
        {
          "internalType": "address",
          "name": "owner",
          "type": "address"
        }
      ],
      "name": "OwnableInvalidOwner",
      "type": "error"
    },
    {
      "inputs": [
        {
          "internalType": "address",
          "name": "account",
          "type": "address"
        }
      ],
      "name": "OwnableUnauthorizedAccount",
      "type": "error"
    },
    {
      "inputs": [
        {
          "internalType": "address",
          "name": "token",
          "type": "address"
        }
      ],
      "name": "SafeERC20FailedOperation",
      "type": "error"
    },
    {
      "inputs": [
        {
          "internalType": "address",
          "name": "caller",
          "type": "address"
        }
      ],
      "name": "UnauthorizedDeposit",
      "type": "error"
    },
    {
      "inputs": [
        {
          "internalType": "address",
          "name": "caller",
          "type": "address"
        }
      ],
      "name": "UnauthorizedFactoring",
      "type": "error"
    },
    {
      "inputs": [],
      "name": "UnpaidInvoice",
      "type": "error"
    },
    {
      "anonymous": false,
      "inputs": [
        {
          "indexed": false,
          "internalType": "uint256[]",
          "name": "paidInvoiceIds",
          "type": "uint256[]"
        }
      ],
      "name": "ActivePaidInvoicesReconciled",
      "type": "event"
    },
    {
      "anonymous": false,
      "inputs": [
        {
          "indexed": true,
          "internalType": "uint16",
          "name": "oldFeeBps",
          "type": "uint16"
        },
        {
          "indexed": true,
          "internalType": "uint16",
          "name": "newFeeBps",
          "type": "uint16"
        }
      ],
      "name": "AdminFeeBpsChanged",
      "type": "event"
    },
    {
      "anonymous": false,
      "inputs": [
        {
          "indexed": true,
          "internalType": "address",
          "name": "bullaDao",
          "type": "address"
        },
        {
          "indexed": false,
          "internalType": "uint256",
          "name": "amount",
          "type": "uint256"
        }
      ],
      "name": "AdminFeesWithdrawn",
      "type": "event"
    },
    {
      "anonymous": false,
      "inputs": [
        {
          "indexed": true,
          "internalType": "address",
          "name": "owner",
          "type": "address"
        },
        {
          "indexed": true,
          "internalType": "address",
          "name": "spender",
          "type": "address"
        },
        {
          "indexed": false,
          "internalType": "uint256",
          "name": "value",
          "type": "uint256"
        }
      ],
      "name": "Approval",
      "type": "event"
    },
    {
      "anonymous": false,
      "inputs": [
        {
          "indexed": false,
          "internalType": "uint256",
          "name": "newDuration",
          "type": "uint256"
        }
      ],
      "name": "ApprovalDurationChanged",
      "type": "event"
    },
    {
      "anonymous": false,
      "inputs": [
        {
          "indexed": true,
          "internalType": "address",
          "name": "oldAddress",
          "type": "address"
        },
        {
          "indexed": true,
          "internalType": "address",
          "name": "newAddress",
          "type": "address"
        }
      ],
      "name": "BullaDaoAddressChanged",
      "type": "event"
    },
    {
      "anonymous": false,
      "inputs": [
        {
          "indexed": true,
          "internalType": "address",
          "name": "sender",
          "type": "address"
        },
        {
          "indexed": true,
          "internalType": "address",
          "name": "owner",
          "type": "address"
        },
        {
          "indexed": false,
          "internalType": "uint256",
          "name": "assets",
          "type": "uint256"
        },
        {
          "indexed": false,
          "internalType": "uint256",
          "name": "shares",
          "type": "uint256"
        }
      ],
      "name": "Deposit",
      "type": "event"
    },
    {
      "anonymous": false,
      "inputs": [
        {
          "indexed": true,
          "internalType": "address",
          "name": "depositor",
          "type": "address"
        },
        {
          "indexed": false,
          "internalType": "uint256",
          "name": "assets",
          "type": "uint256"
        },
        {
          "indexed": false,
          "internalType": "uint256",
          "name": "shares",
          "type": "uint256"
        },
        {
          "components": [
            {
              "internalType": "bytes32",
              "name": "hash",
              "type": "bytes32"
            },
            {
              "internalType": "uint8",
              "name": "hashFunction",
              "type": "uint8"
            },
            {
              "internalType": "uint8",
              "name": "size",
              "type": "uint8"
            }
          ],
          "indexed": false,
          "internalType": "struct IBullaFactoringV2.Multihash",
          "name": "attachment",
          "type": "tuple"
        }
      ],
      "name": "DepositMadeWithAttachment",
      "type": "event"
    },
    {
      "anonymous": false,
      "inputs": [
        {
          "indexed": false,
          "internalType": "address",
          "name": "newAddress",
          "type": "address"
        }
      ],
      "name": "DepositPermissionsChanged",
      "type": "event"
    },
    {
      "anonymous": false,
      "inputs": [
        {
          "indexed": false,
          "internalType": "address",
          "name": "newAddress",
          "type": "address"
        }
      ],
      "name": "FactoringPermissionsChanged",
      "type": "event"
    },
    {
      "anonymous": false,
      "inputs": [
        {
          "indexed": false,
          "internalType": "uint256",
          "name": "newGracePeriodDays",
          "type": "uint256"
        }
      ],
      "name": "GracePeriodDaysChanged",
      "type": "event"
    },
    {
      "anonymous": false,
      "inputs": [
        {
          "indexed": false,
          "internalType": "uint256",
          "name": "newImpairReserve",
          "type": "uint256"
        }
      ],
      "name": "ImpairReserveChanged",
      "type": "event"
    },
    {
      "anonymous": false,
      "inputs": [
        {
          "indexed": true,
          "internalType": "uint256",
          "name": "invoiceId",
          "type": "uint256"
        },
        {
          "indexed": false,
          "internalType": "uint256",
          "name": "validUntil",
          "type": "uint256"
        },
        {
          "components": [
            {
              "internalType": "uint16",
              "name": "targetYieldBps",
              "type": "uint16"
            },
            {
              "internalType": "uint16",
              "name": "spreadBps",
              "type": "uint16"
            },
            {
              "internalType": "uint16",
              "name": "upfrontBps",
              "type": "uint16"
            },
            {
              "internalType": "uint16",
              "name": "protocolFeeBps",
              "type": "uint16"
            },
            {
              "internalType": "uint16",
              "name": "adminFeeBps",
              "type": "uint16"
            },
            {
              "internalType": "uint16",
              "name": "minDaysInterestApplied",
              "type": "uint16"
            }
          ],
          "indexed": false,
          "internalType": "struct IBullaFactoringV2.FeeParams",
          "name": "feeParams",
          "type": "tuple"
        }
      ],
      "name": "InvoiceApproved",
      "type": "event"
    },
    {
      "anonymous": false,
      "inputs": [
        {
          "indexed": true,
          "internalType": "uint256",
          "name": "invoiceId",
          "type": "uint256"
        },
        {
          "indexed": false,
          "internalType": "uint256",
          "name": "fundedAmount",
          "type": "uint256"
        },
        {
          "indexed": true,
          "internalType": "address",
          "name": "originalCreditor",
          "type": "address"
        },
        {
          "indexed": false,
          "internalType": "uint256",
          "name": "dueDate",
          "type": "uint256"
        },
        {
          "indexed": false,
          "internalType": "uint16",
          "name": "upfrontBps",
          "type": "uint16"
        }
      ],
      "name": "InvoiceFunded",
      "type": "event"
    },
    {
      "anonymous": false,
      "inputs": [
        {
          "indexed": true,
          "internalType": "uint256",
          "name": "invoiceId",
          "type": "uint256"
        },
        {
          "indexed": false,
          "internalType": "uint256",
          "name": "lossAmount",
          "type": "uint256"
        },
        {
          "indexed": false,
          "internalType": "uint256",
          "name": "gainAmount",
          "type": "uint256"
        }
      ],
      "name": "InvoiceImpaired",
      "type": "event"
    },
    {
      "anonymous": false,
      "inputs": [
        {
          "indexed": true,
          "internalType": "uint256",
          "name": "invoiceId",
          "type": "uint256"
        },
        {
          "indexed": false,
          "internalType": "uint256",
          "name": "kickbackAmount",
          "type": "uint256"
        },
        {
          "indexed": true,
          "internalType": "address",
          "name": "originalCreditor",
          "type": "address"
        }
      ],
      "name": "InvoiceKickbackAmountSent",
      "type": "event"
    },
    {
      "anonymous": false,
      "inputs": [
        {
          "indexed": true,
          "internalType": "uint256",
          "name": "invoiceId",
          "type": "uint256"
        },
        {
          "indexed": false,
          "internalType": "uint256",
          "name": "trueInterest",
          "type": "uint256"
        },
        {
          "indexed": false,
          "internalType": "uint256",
          "name": "trueSpreadAmount",
          "type": "uint256"
        },
        {
          "indexed": false,
          "internalType": "uint256",
          "name": "trueProtocolFee",
          "type": "uint256"
        },
        {
          "indexed": false,
          "internalType": "uint256",
          "name": "trueAdminFee",
          "type": "uint256"
        },
        {
          "indexed": false,
          "internalType": "uint256",
          "name": "fundedAmountNet",
          "type": "uint256"
        },
        {
          "indexed": false,
          "internalType": "uint256",
          "name": "kickbackAmount",
          "type": "uint256"
        },
        {
          "indexed": true,
          "internalType": "address",
          "name": "originalCreditor",
          "type": "address"
        }
      ],
      "name": "InvoicePaid",
      "type": "event"
    },
    {
      "anonymous": false,
      "inputs": [
        {
          "indexed": true,
          "internalType": "uint256",
          "name": "invoiceId",
          "type": "uint256"
        },
        {
          "indexed": false,
          "internalType": "address",
          "name": "originalCreditor",
          "type": "address"
        },
        {
          "indexed": false,
          "internalType": "int256",
          "name": "totalRefundOrPaymentAmount",
          "type": "int256"
        },
        {
          "indexed": false,
          "internalType": "uint256",
          "name": "interestToCharge",
          "type": "uint256"
        },
        {
          "indexed": false,
          "internalType": "uint256",
          "name": "spreadAmount",
          "type": "uint256"
        },
        {
          "indexed": false,
          "internalType": "uint256",
          "name": "protocolFee",
          "type": "uint256"
        },
        {
          "indexed": false,
          "internalType": "uint256",
          "name": "adminFee",
          "type": "uint256"
        }
      ],
      "name": "InvoiceUnfactored",
      "type": "event"
    },
    {
      "anonymous": false,
      "inputs": [
        {
          "indexed": true,
          "internalType": "address",
          "name": "previousOwner",
          "type": "address"
        },
        {
          "indexed": true,
          "internalType": "address",
          "name": "newOwner",
          "type": "address"
        }
      ],
      "name": "OwnershipTransferred",
      "type": "event"
    },
    {
      "anonymous": false,
      "inputs": [
        {
          "indexed": false,
          "internalType": "uint16",
          "name": "oldProtocolFeeBps",
          "type": "uint16"
        },
        {
          "indexed": false,
          "internalType": "uint16",
          "name": "newProtocolFeeBps",
          "type": "uint16"
        }
      ],
      "name": "ProtocolFeeBpsChanged",
      "type": "event"
    },
    {
      "anonymous": false,
      "inputs": [
        {
          "indexed": true,
          "internalType": "address",
          "name": "bullaDao",
          "type": "address"
        },
        {
          "indexed": false,
          "internalType": "uint256",
          "name": "amount",
          "type": "uint256"
        }
      ],
      "name": "ProtocolFeesWithdrawn",
      "type": "event"
    },
    {
      "anonymous": false,
      "inputs": [
        {
          "indexed": false,
          "internalType": "address",
          "name": "newAddress",
          "type": "address"
        }
      ],
      "name": "RedeemPermissionsChanged",
      "type": "event"
    },
    {
      "anonymous": false,
      "inputs": [
        {
          "indexed": true,
          "internalType": "address",
          "name": "redeemer",
          "type": "address"
        },
        {
          "indexed": false,
          "internalType": "uint256",
          "name": "shares",
          "type": "uint256"
        },
        {
          "indexed": false,
          "internalType": "uint256",
          "name": "assets",
          "type": "uint256"
        },
        {
          "components": [
            {
              "internalType": "bytes32",
              "name": "hash",
              "type": "bytes32"
            },
            {
              "internalType": "uint8",
              "name": "hashFunction",
              "type": "uint8"
            },
            {
              "internalType": "uint8",
              "name": "size",
              "type": "uint8"
            }
          ],
          "indexed": false,
          "internalType": "struct IBullaFactoringV2.Multihash",
          "name": "attachment",
          "type": "tuple"
        }
      ],
      "name": "SharesRedeemedWithAttachment",
      "type": "event"
    },
    {
      "anonymous": false,
      "inputs": [
        {
          "indexed": true,
          "internalType": "address",
          "name": "owner",
          "type": "address"
        },
        {
          "indexed": false,
          "internalType": "uint256",
          "name": "amount",
          "type": "uint256"
        }
      ],
      "name": "SpreadGainsWithdrawn",
      "type": "event"
    },
    {
      "anonymous": false,
      "inputs": [
        {
          "indexed": false,
          "internalType": "uint16",
          "name": "newTargetYield",
          "type": "uint16"
        }
      ],
      "name": "TargetYieldChanged",
      "type": "event"
    },
    {
      "anonymous": false,
      "inputs": [
        {
          "indexed": true,
          "internalType": "address",
          "name": "from",
          "type": "address"
        },
        {
          "indexed": true,
          "internalType": "address",
          "name": "to",
          "type": "address"
        },
        {
          "indexed": false,
          "internalType": "uint256",
          "name": "value",
          "type": "uint256"
        }
      ],
      "name": "Transfer",
      "type": "event"
    },
    {
      "anonymous": false,
      "inputs": [
        {
          "indexed": true,
          "internalType": "address",
          "name": "oldUnderwriter",
          "type": "address"
        },
        {
          "indexed": true,
          "internalType": "address",
          "name": "newUnderwriter",
          "type": "address"
        }
      ],
      "name": "UnderwriterChanged",
      "type": "event"
    },
    {
      "anonymous": false,
      "inputs": [
        {
          "indexed": true,
          "internalType": "address",
          "name": "sender",
          "type": "address"
        },
        {
          "indexed": true,
          "internalType": "address",
          "name": "receiver",
          "type": "address"
        },
        {
          "indexed": true,
          "internalType": "address",
          "name": "owner",
          "type": "address"
        },
        {
          "indexed": false,
          "internalType": "uint256",
          "name": "assets",
          "type": "uint256"
        },
        {
          "indexed": false,
          "internalType": "uint256",
          "name": "shares",
          "type": "uint256"
        }
      ],
      "name": "Withdraw",
      "type": "event"
    },
    {
      "inputs": [
        {
          "internalType": "uint256",
          "name": "",
          "type": "uint256"
        }
      ],
      "name": "activeInvoices",
      "outputs": [
        {
          "internalType": "uint256",
          "name": "",
          "type": "uint256"
        }
      ],
      "stateMutability": "view",
      "type": "function"
    },
    {
      "inputs": [],
      "name": "adminFeeBalance",
      "outputs": [
        {
          "internalType": "uint256",
          "name": "",
          "type": "uint256"
        }
      ],
      "stateMutability": "view",
      "type": "function"
    },
    {
      "inputs": [],
      "name": "adminFeeBps",
      "outputs": [
        {
          "internalType": "uint16",
          "name": "",
          "type": "uint16"
        }
      ],
      "stateMutability": "view",
      "type": "function"
    },
    {
      "inputs": [
        {
          "internalType": "address",
          "name": "owner",
          "type": "address"
        },
        {
          "internalType": "address",
          "name": "spender",
          "type": "address"
        }
      ],
      "name": "allowance",
      "outputs": [
        {
          "internalType": "uint256",
          "name": "",
          "type": "uint256"
        }
      ],
      "stateMutability": "view",
      "type": "function"
    },
    {
      "inputs": [],
      "name": "approvalDuration",
      "outputs": [
        {
          "internalType": "uint256",
          "name": "",
          "type": "uint256"
        }
      ],
      "stateMutability": "view",
      "type": "function"
    },
    {
      "inputs": [
        {
          "internalType": "address",
          "name": "spender",
          "type": "address"
        },
        {
          "internalType": "uint256",
          "name": "value",
          "type": "uint256"
        }
      ],
      "name": "approve",
      "outputs": [
        {
          "internalType": "bool",
          "name": "",
          "type": "bool"
        }
      ],
      "stateMutability": "nonpayable",
      "type": "function"
    },
    {
      "inputs": [
        {
          "internalType": "uint256",
          "name": "invoiceId",
          "type": "uint256"
        },
        {
          "internalType": "uint16",
          "name": "_targetYieldBps",
          "type": "uint16"
        },
        {
          "internalType": "uint16",
          "name": "_spreadBps",
          "type": "uint16"
        },
        {
          "internalType": "uint16",
          "name": "_upfrontBps",
          "type": "uint16"
        },
        {
          "internalType": "uint16",
          "name": "minDaysInterestApplied",
          "type": "uint16"
        }
      ],
      "name": "approveInvoice",
      "outputs": [],
      "stateMutability": "nonpayable",
      "type": "function"
    },
    {
      "inputs": [
        {
          "internalType": "uint256",
          "name": "",
          "type": "uint256"
        }
      ],
      "name": "approvedInvoices",
      "outputs": [
        {
          "internalType": "bool",
          "name": "approved",
          "type": "bool"
        },
        {
          "internalType": "address",
          "name": "creditor",
          "type": "address"
        },
        {
          "internalType": "uint256",
          "name": "validUntil",
          "type": "uint256"
        },
        {
          "internalType": "uint256",
          "name": "invoiceDueDate",
          "type": "uint256"
        },
        {
          "internalType": "uint256",
          "name": "fundedTimestamp",
          "type": "uint256"
        },
        {
          "components": [
            {
              "internalType": "uint16",
              "name": "targetYieldBps",
              "type": "uint16"
            },
            {
              "internalType": "uint16",
              "name": "spreadBps",
              "type": "uint16"
            },
            {
              "internalType": "uint16",
              "name": "upfrontBps",
              "type": "uint16"
            },
            {
              "internalType": "uint16",
              "name": "protocolFeeBps",
              "type": "uint16"
            },
            {
              "internalType": "uint16",
              "name": "adminFeeBps",
              "type": "uint16"
            },
            {
              "internalType": "uint16",
              "name": "minDaysInterestApplied",
              "type": "uint16"
            }
          ],
          "internalType": "struct IBullaFactoringV2.FeeParams",
          "name": "feeParams",
          "type": "tuple"
        },
        {
          "internalType": "uint256",
          "name": "fundedAmountGross",
          "type": "uint256"
        },
        {
          "internalType": "uint256",
          "name": "fundedAmountNet",
          "type": "uint256"
        },
        {
          "internalType": "uint256",
          "name": "initialFullInvoiceAmount",
          "type": "uint256"
        },
        {
          "internalType": "uint256",
          "name": "initialPaidAmount",
          "type": "uint256"
        },
        {
          "internalType": "address",
          "name": "receiverAddress",
          "type": "address"
        }
      ],
      "stateMutability": "view",
      "type": "function"
    },
    {
      "inputs": [],
      "name": "asset",
      "outputs": [
        {
          "internalType": "address",
          "name": "",
          "type": "address"
        }
      ],
      "stateMutability": "view",
      "type": "function"
    },
    {
      "inputs": [],
      "name": "assetAddress",
      "outputs": [
        {
          "internalType": "contract IERC20",
          "name": "",
          "type": "address"
        }
      ],
      "stateMutability": "view",
      "type": "function"
    },
    {
      "inputs": [
        {
          "internalType": "address",
          "name": "account",
          "type": "address"
        }
      ],
      "name": "balanceOf",
      "outputs": [
        {
          "internalType": "uint256",
          "name": "",
          "type": "uint256"
        }
      ],
      "stateMutability": "view",
      "type": "function"
    },
    {
      "inputs": [],
      "name": "bullaDao",
      "outputs": [
        {
          "internalType": "address",
          "name": "",
          "type": "address"
        }
      ],
      "stateMutability": "view",
      "type": "function"
    },
    {
      "inputs": [],
      "name": "bullaFrendLend",
      "outputs": [
        {
          "internalType": "contract IBullaFrendLend",
          "name": "",
          "type": "address"
        }
      ],
      "stateMutability": "view",
      "type": "function"
    },
    {
      "inputs": [],
      "name": "calculateAccruedProfits",
      "outputs": [
        {
          "internalType": "uint256",
          "name": "accruedProfits",
          "type": "uint256"
        }
      ],
      "stateMutability": "view",
      "type": "function"
    },
    {
      "inputs": [],
      "name": "calculateCapitalAccount",
      "outputs": [
        {
          "internalType": "uint256",
          "name": "",
          "type": "uint256"
        }
      ],
      "stateMutability": "view",
      "type": "function"
    },
    {
      "inputs": [
        {
          "internalType": "uint256",
          "name": "invoiceId",
          "type": "uint256"
        }
      ],
      "name": "calculateKickbackAmount",
      "outputs": [
        {
          "internalType": "uint256",
          "name": "kickbackAmount",
          "type": "uint256"
        },
        {
          "internalType": "uint256",
          "name": "trueInterest",
          "type": "uint256"
        },
        {
          "internalType": "uint256",
          "name": "trueSpreadAmount",
          "type": "uint256"
        },
        {
          "internalType": "uint256",
          "name": "trueProtocolFee",
          "type": "uint256"
        },
        {
          "internalType": "uint256",
          "name": "trueAdminFee",
          "type": "uint256"
        }
      ],
      "stateMutability": "view",
      "type": "function"
    },
    {
      "inputs": [],
      "name": "calculateRealizedGainLoss",
      "outputs": [
        {
          "internalType": "int256",
          "name": "",
          "type": "int256"
        }
      ],
      "stateMutability": "view",
      "type": "function"
    },
    {
      "inputs": [
        {
          "internalType": "uint256",
          "name": "invoiceId",
          "type": "uint256"
        },
        {
          "internalType": "uint16",
          "name": "factorerUpfrontBps",
          "type": "uint16"
        }
      ],
      "name": "calculateTargetFees",
      "outputs": [
        {
          "internalType": "uint256",
          "name": "fundedAmountGross",
          "type": "uint256"
        },
        {
          "internalType": "uint256",
          "name": "adminFee",
          "type": "uint256"
        },
        {
          "internalType": "uint256",
          "name": "targetInterest",
          "type": "uint256"
        },
        {
          "internalType": "uint256",
          "name": "targetSpreadAmount",
          "type": "uint256"
        },
        {
          "internalType": "uint256",
          "name": "targetProtocolFee",
          "type": "uint256"
        },
        {
          "internalType": "uint256",
          "name": "netFundedAmount",
          "type": "uint256"
        }
      ],
      "stateMutability": "view",
      "type": "function"
    },
    {
      "inputs": [
        {
          "internalType": "uint256",
          "name": "shares",
          "type": "uint256"
        }
      ],
      "name": "convertToAssets",
      "outputs": [
        {
          "internalType": "uint256",
          "name": "",
          "type": "uint256"
        }
      ],
      "stateMutability": "view",
      "type": "function"
    },
    {
      "inputs": [
        {
          "internalType": "uint256",
          "name": "assets",
          "type": "uint256"
        }
      ],
      "name": "convertToShares",
      "outputs": [
        {
          "internalType": "uint256",
          "name": "",
          "type": "uint256"
        }
      ],
      "stateMutability": "view",
      "type": "function"
    },
    {
      "inputs": [],
      "name": "creationTimestamp",
      "outputs": [
        {
          "internalType": "uint256",
          "name": "",
          "type": "uint256"
        }
      ],
      "stateMutability": "view",
      "type": "function"
    },
    {
      "inputs": [],
      "name": "decimals",
      "outputs": [
        {
          "internalType": "uint8",
          "name": "",
          "type": "uint8"
        }
      ],
      "stateMutability": "view",
      "type": "function"
    },
    {
      "inputs": [],
      "name": "deployedCapitalForActiveInvoicesExcludingImpaired",
      "outputs": [
        {
          "internalType": "uint256",
          "name": "",
          "type": "uint256"
        }
      ],
      "stateMutability": "view",
      "type": "function"
    },
    {
      "inputs": [
        {
          "internalType": "uint256",
          "name": "assets",
          "type": "uint256"
        },
        {
          "internalType": "address",
          "name": "receiver",
          "type": "address"
        }
      ],
      "name": "deposit",
      "outputs": [
        {
          "internalType": "uint256",
          "name": "",
          "type": "uint256"
        }
      ],
      "stateMutability": "nonpayable",
      "type": "function"
    },
    {
      "inputs": [],
      "name": "depositPermissions",
      "outputs": [
        {
          "internalType": "contract Permissions",
          "name": "",
          "type": "address"
        }
      ],
      "stateMutability": "view",
      "type": "function"
    },
    {
      "inputs": [
        {
          "internalType": "uint256",
          "name": "assets",
          "type": "uint256"
        },
        {
          "internalType": "address",
          "name": "receiver",
          "type": "address"
        },
        {
          "components": [
            {
              "internalType": "bytes32",
              "name": "hash",
              "type": "bytes32"
            },
            {
              "internalType": "uint8",
              "name": "hashFunction",
              "type": "uint8"
            },
            {
              "internalType": "uint8",
              "name": "size",
              "type": "uint8"
            }
          ],
          "internalType": "struct IBullaFactoringV2.Multihash",
          "name": "attachment",
          "type": "tuple"
        }
      ],
      "name": "depositWithAttachment",
      "outputs": [
        {
          "internalType": "uint256",
          "name": "",
          "type": "uint256"
        }
      ],
      "stateMutability": "nonpayable",
      "type": "function"
    },
    {
      "inputs": [],
      "name": "factoringPermissions",
      "outputs": [
        {
          "internalType": "contract Permissions",
          "name": "",
          "type": "address"
        }
      ],
      "stateMutability": "view",
      "type": "function"
    },
    {
      "inputs": [
        {
          "internalType": "uint256",
          "name": "invoiceId",
          "type": "uint256"
        },
        {
          "internalType": "uint16",
          "name": "factorerUpfrontBps",
          "type": "uint16"
        },
        {
          "internalType": "address",
          "name": "receiverAddress",
          "type": "address"
        }
      ],
      "name": "fundInvoice",
      "outputs": [
        {
          "internalType": "uint256",
          "name": "",
          "type": "uint256"
        }
      ],
      "stateMutability": "nonpayable",
      "type": "function"
    },
    {
      "inputs": [],
      "name": "getFundInfo",
      "outputs": [
        {
          "components": [
            {
              "internalType": "string",
              "name": "name",
              "type": "string"
            },
            {
              "internalType": "uint256",
              "name": "creationTimestamp",
              "type": "uint256"
            },
            {
              "internalType": "uint256",
              "name": "fundBalance",
              "type": "uint256"
            },
            {
              "internalType": "uint256",
              "name": "deployedCapital",
              "type": "uint256"
            },
            {
              "internalType": "uint256",
              "name": "capitalAccount",
              "type": "uint256"
            },
            {
              "internalType": "uint256",
              "name": "price",
              "type": "uint256"
            },
            {
              "internalType": "uint256",
              "name": "tokensAvailableForRedemption",
              "type": "uint256"
            },
            {
              "internalType": "uint16",
              "name": "adminFeeBps",
              "type": "uint16"
            },
            {
              "internalType": "uint256",
              "name": "impairReserve",
              "type": "uint256"
            },
            {
              "internalType": "uint256",
              "name": "targetYieldBps",
              "type": "uint256"
            }
          ],
          "internalType": "struct IBullaFactoringV2.FundInfo",
          "name": "",
          "type": "tuple"
        }
      ],
      "stateMutability": "view",
      "type": "function"
    },
    {
      "inputs": [
        {
          "internalType": "uint256",
          "name": "invoiceId",
          "type": "uint256"
        }
      ],
      "name": "getFundedAmount",
      "outputs": [
        {
          "internalType": "uint256",
          "name": "",
          "type": "uint256"
        }
      ],
      "stateMutability": "view",
      "type": "function"
    },
    {
      "inputs": [],
      "name": "gracePeriodDays",
      "outputs": [
        {
          "internalType": "uint256",
          "name": "",
          "type": "uint256"
        }
      ],
      "stateMutability": "view",
      "type": "function"
    },
    {
      "inputs": [
        {
          "internalType": "uint256",
          "name": "invoiceId",
          "type": "uint256"
        }
      ],
      "name": "impairInvoice",
      "outputs": [],
      "stateMutability": "nonpayable",
      "type": "function"
    },
    {
      "inputs": [],
      "name": "impairReserve",
      "outputs": [
        {
          "internalType": "uint256",
          "name": "",
          "type": "uint256"
        }
      ],
      "stateMutability": "view",
      "type": "function"
    },
    {
      "inputs": [
        {
          "internalType": "uint256",
          "name": "",
          "type": "uint256"
        }
      ],
      "name": "impairments",
      "outputs": [
        {
          "internalType": "uint256",
          "name": "gainAmount",
          "type": "uint256"
        },
        {
          "internalType": "uint256",
          "name": "lossAmount",
          "type": "uint256"
        },
        {
          "internalType": "bool",
          "name": "isImpaired",
          "type": "bool"
        }
      ],
      "stateMutability": "view",
      "type": "function"
    },
    {
      "inputs": [],
      "name": "invoiceProviderAdapter",
      "outputs": [
        {
          "internalType": "contract IInvoiceProviderAdapterV2",
          "name": "",
          "type": "address"
        }
      ],
      "stateMutability": "view",
      "type": "function"
    },
    {
      "inputs": [
        {
          "internalType": "address",
          "name": "",
          "type": "address"
        }
      ],
      "name": "maxDeposit",
      "outputs": [
        {
          "internalType": "uint256",
          "name": "",
          "type": "uint256"
        }
      ],
      "stateMutability": "view",
      "type": "function"
    },
    {
      "inputs": [
        {
          "internalType": "address",
          "name": "",
          "type": "address"
        }
      ],
      "name": "maxMint",
      "outputs": [
        {
          "internalType": "uint256",
          "name": "",
          "type": "uint256"
        }
      ],
      "stateMutability": "view",
      "type": "function"
    },
    {
      "inputs": [],
      "name": "maxRedeem",
      "outputs": [
        {
          "internalType": "uint256",
          "name": "",
          "type": "uint256"
        }
      ],
      "stateMutability": "view",
      "type": "function"
    },
    {
      "inputs": [
        {
          "internalType": "address",
          "name": "_owner",
          "type": "address"
        }
      ],
      "name": "maxRedeem",
      "outputs": [
        {
          "internalType": "uint256",
          "name": "",
          "type": "uint256"
        }
      ],
      "stateMutability": "view",
      "type": "function"
    },
    {
      "inputs": [
        {
          "internalType": "address",
          "name": "_owner",
          "type": "address"
        }
      ],
      "name": "maxWithdraw",
      "outputs": [
        {
          "internalType": "uint256",
          "name": "",
          "type": "uint256"
        }
      ],
      "stateMutability": "view",
      "type": "function"
    },
    {
      "inputs": [
        {
          "internalType": "uint256",
          "name": "",
          "type": "uint256"
        },
        {
          "internalType": "address",
          "name": "",
          "type": "address"
        }
      ],
      "name": "mint",
      "outputs": [
        {
          "internalType": "uint256",
          "name": "",
          "type": "uint256"
        }
      ],
      "stateMutability": "pure",
      "type": "function"
    },
    {
      "inputs": [],
      "name": "name",
      "outputs": [
        {
          "internalType": "string",
          "name": "",
          "type": "string"
        }
      ],
      "stateMutability": "view",
      "type": "function"
    },
    {
      "inputs": [
        {
          "internalType": "address",
          "name": "debtor",
          "type": "address"
        },
        {
          "internalType": "uint16",
          "name": "_targetYieldBps",
          "type": "uint16"
        },
        {
          "internalType": "uint16",
          "name": "spreadBps",
          "type": "uint16"
        },
        {
          "internalType": "uint256",
          "name": "principalAmount",
          "type": "uint256"
        },
        {
          "internalType": "uint256",
          "name": "termLength",
          "type": "uint256"
        },
        {
          "internalType": "string",
          "name": "description",
          "type": "string"
        }
      ],
      "name": "offerLoan",
      "outputs": [],
      "stateMutability": "nonpayable",
      "type": "function"
    },
    {
      "inputs": [
        {
          "internalType": "uint256",
          "name": "loanOfferId",
          "type": "uint256"
        },
        {
          "internalType": "uint256",
          "name": "loanId",
          "type": "uint256"
        }
      ],
      "name": "onLoanOfferAccepted",
      "outputs": [],
      "stateMutability": "nonpayable",
      "type": "function"
    },
    {
      "inputs": [
        {
          "internalType": "uint256",
          "name": "",
          "type": "uint256"
        }
      ],
      "name": "originalCreditors",
      "outputs": [
        {
          "internalType": "address",
          "name": "",
          "type": "address"
        }
      ],
      "stateMutability": "view",
      "type": "function"
    },
    {
      "inputs": [],
      "name": "owner",
      "outputs": [
        {
          "internalType": "address",
          "name": "",
          "type": "address"
        }
      ],
      "stateMutability": "view",
      "type": "function"
    },
    {
      "inputs": [
        {
          "internalType": "uint256",
          "name": "",
          "type": "uint256"
        }
      ],
      "name": "paidInvoicesGain",
      "outputs": [
        {
          "internalType": "uint256",
          "name": "",
          "type": "uint256"
        }
      ],
      "stateMutability": "view",
      "type": "function"
    },
    {
      "inputs": [
        {
          "internalType": "uint256",
          "name": "",
          "type": "uint256"
        }
      ],
      "name": "paidInvoicesSpreadGain",
      "outputs": [
        {
          "internalType": "uint256",
          "name": "",
          "type": "uint256"
        }
      ],
      "stateMutability": "view",
      "type": "function"
    },
    {
      "inputs": [
        {
          "internalType": "uint256",
          "name": "",
          "type": "uint256"
        }
      ],
      "name": "pendingLoanOffersByLoanOfferId",
      "outputs": [
        {
          "internalType": "bool",
          "name": "exists",
          "type": "bool"
        },
        {
          "internalType": "uint256",
          "name": "offeredAt",
          "type": "uint256"
        },
        {
          "internalType": "uint256",
          "name": "principalAmount",
          "type": "uint256"
        },
        {
          "internalType": "uint256",
          "name": "termLength",
          "type": "uint256"
        },
        {
          "components": [
            {
              "internalType": "uint16",
              "name": "targetYieldBps",
              "type": "uint16"
            },
            {
              "internalType": "uint16",
              "name": "spreadBps",
              "type": "uint16"
            },
            {
              "internalType": "uint16",
              "name": "upfrontBps",
              "type": "uint16"
            },
            {
              "internalType": "uint16",
              "name": "protocolFeeBps",
              "type": "uint16"
            },
            {
              "internalType": "uint16",
              "name": "adminFeeBps",
              "type": "uint16"
            },
            {
              "internalType": "uint16",
              "name": "minDaysInterestApplied",
              "type": "uint16"
            }
          ],
          "internalType": "struct IBullaFactoringV2.FeeParams",
          "name": "feeParams",
          "type": "tuple"
        }
      ],
      "stateMutability": "view",
      "type": "function"
    },
    {
      "inputs": [
        {
          "internalType": "uint256",
          "name": "",
          "type": "uint256"
        }
      ],
      "name": "pendingLoanOffersIds",
      "outputs": [
        {
          "internalType": "uint256",
          "name": "",
          "type": "uint256"
        }
      ],
      "stateMutability": "view",
      "type": "function"
    },
    {
      "inputs": [],
      "name": "poolName",
      "outputs": [
        {
          "internalType": "string",
          "name": "",
          "type": "string"
        }
      ],
      "stateMutability": "view",
      "type": "function"
    },
    {
      "inputs": [
        {
          "internalType": "uint256",
          "name": "assets",
          "type": "uint256"
        }
      ],
      "name": "previewDeposit",
      "outputs": [
        {
          "internalType": "uint256",
          "name": "",
          "type": "uint256"
        }
      ],
      "stateMutability": "view",
      "type": "function"
    },
    {
      "inputs": [
        {
          "internalType": "uint256",
          "name": "shares",
          "type": "uint256"
        }
      ],
      "name": "previewMint",
      "outputs": [
        {
          "internalType": "uint256",
          "name": "",
          "type": "uint256"
        }
      ],
      "stateMutability": "view",
      "type": "function"
    },
    {
      "inputs": [
        {
          "internalType": "uint256",
          "name": "shares",
          "type": "uint256"
        }
      ],
      "name": "previewRedeem",
      "outputs": [
        {
          "internalType": "uint256",
          "name": "",
          "type": "uint256"
        }
      ],
      "stateMutability": "view",
      "type": "function"
    },
    {
      "inputs": [
        {
          "internalType": "uint256",
          "name": "assets",
          "type": "uint256"
        }
      ],
      "name": "previewWithdraw",
      "outputs": [
        {
          "internalType": "uint256",
          "name": "",
          "type": "uint256"
        }
      ],
      "stateMutability": "view",
      "type": "function"
    },
    {
      "inputs": [],
      "name": "pricePerShare",
      "outputs": [
        {
          "internalType": "uint256",
          "name": "",
          "type": "uint256"
        }
      ],
      "stateMutability": "view",
      "type": "function"
    },
    {
      "inputs": [],
      "name": "protocolFeeBalance",
      "outputs": [
        {
          "internalType": "uint256",
          "name": "",
          "type": "uint256"
        }
      ],
      "stateMutability": "view",
      "type": "function"
    },
    {
      "inputs": [],
      "name": "protocolFeeBps",
      "outputs": [
        {
          "internalType": "uint16",
          "name": "",
          "type": "uint16"
        }
      ],
      "stateMutability": "view",
      "type": "function"
    },
    {
      "inputs": [],
      "name": "reconcileActivePaidInvoices",
      "outputs": [],
      "stateMutability": "nonpayable",
      "type": "function"
    },
    {
      "inputs": [
        {
          "internalType": "uint256",
          "name": "shares",
          "type": "uint256"
        },
        {
          "internalType": "address",
          "name": "receiver",
          "type": "address"
        },
        {
          "internalType": "address",
          "name": "_owner",
          "type": "address"
        }
      ],
      "name": "redeem",
      "outputs": [
        {
          "internalType": "uint256",
          "name": "",
          "type": "uint256"
        }
      ],
      "stateMutability": "nonpayable",
      "type": "function"
    },
    {
      "inputs": [],
      "name": "redeemPermissions",
      "outputs": [
        {
          "internalType": "contract Permissions",
          "name": "",
          "type": "address"
        }
      ],
      "stateMutability": "view",
      "type": "function"
    },
    {
      "inputs": [
        {
          "internalType": "uint256",
          "name": "shares",
          "type": "uint256"
        },
        {
          "internalType": "address",
          "name": "receiver",
          "type": "address"
        },
        {
          "internalType": "address",
          "name": "_owner",
          "type": "address"
        },
        {
          "components": [
            {
              "internalType": "bytes32",
              "name": "hash",
              "type": "bytes32"
            },
            {
              "internalType": "uint8",
              "name": "hashFunction",
              "type": "uint8"
            },
            {
              "internalType": "uint8",
              "name": "size",
              "type": "uint8"
            }
          ],
          "internalType": "struct IBullaFactoringV2.Multihash",
          "name": "attachment",
          "type": "tuple"
        }
      ],
      "name": "redeemWithAttachment",
      "outputs": [
        {
          "internalType": "uint256",
          "name": "",
          "type": "uint256"
        }
      ],
      "stateMutability": "nonpayable",
      "type": "function"
    },
    {
      "inputs": [],
      "name": "renounceOwnership",
      "outputs": [],
      "stateMutability": "nonpayable",
      "type": "function"
    },
    {
      "inputs": [
        {
          "internalType": "uint16",
          "name": "_newAdminFeeBps",
          "type": "uint16"
        }
      ],
      "name": "setAdminFeeBps",
      "outputs": [],
      "stateMutability": "nonpayable",
      "type": "function"
    },
    {
      "inputs": [
        {
          "internalType": "uint256",
          "name": "_duration",
          "type": "uint256"
        }
      ],
      "name": "setApprovalDuration",
      "outputs": [],
      "stateMutability": "nonpayable",
      "type": "function"
    },
    {
      "inputs": [
        {
          "internalType": "address",
          "name": "_newBullaDao",
          "type": "address"
        }
      ],
      "name": "setBullaDaoAddress",
      "outputs": [],
      "stateMutability": "nonpayable",
      "type": "function"
    },
    {
      "inputs": [
        {
          "internalType": "address",
          "name": "_newDepositPermissionsAddress",
          "type": "address"
        }
      ],
      "name": "setDepositPermissions",
      "outputs": [],
      "stateMutability": "nonpayable",
      "type": "function"
    },
    {
      "inputs": [
        {
          "internalType": "address",
          "name": "_newFactoringPermissionsAddress",
          "type": "address"
        }
      ],
      "name": "setFactoringPermissions",
      "outputs": [],
      "stateMutability": "nonpayable",
      "type": "function"
    },
    {
      "inputs": [
        {
          "internalType": "uint256",
          "name": "_days",
          "type": "uint256"
        }
      ],
      "name": "setGracePeriodDays",
      "outputs": [],
      "stateMutability": "nonpayable",
      "type": "function"
    },
    {
      "inputs": [
        {
          "internalType": "uint256",
          "name": "_impairReserve",
          "type": "uint256"
        }
      ],
      "name": "setImpairReserve",
      "outputs": [],
      "stateMutability": "nonpayable",
      "type": "function"
    },
    {
      "inputs": [
        {
          "internalType": "uint16",
          "name": "_newProtocolFeeBps",
          "type": "uint16"
        }
      ],
      "name": "setProtocolFeeBps",
      "outputs": [],
      "stateMutability": "nonpayable",
      "type": "function"
    },
    {
      "inputs": [
        {
          "internalType": "address",
          "name": "_newRedeemPermissionsAddress",
          "type": "address"
        }
      ],
      "name": "setRedeemPermissions",
      "outputs": [],
      "stateMutability": "nonpayable",
      "type": "function"
    },
    {
      "inputs": [
        {
          "internalType": "uint16",
          "name": "_targetYieldBps",
          "type": "uint16"
        }
      ],
      "name": "setTargetYield",
      "outputs": [],
      "stateMutability": "nonpayable",
      "type": "function"
    },
    {
      "inputs": [
        {
          "internalType": "address",
          "name": "_newUnderwriter",
          "type": "address"
        }
      ],
      "name": "setUnderwriter",
      "outputs": [],
      "stateMutability": "nonpayable",
      "type": "function"
    },
    {
      "inputs": [],
      "name": "spreadGainsBalance",
      "outputs": [
        {
          "internalType": "uint256",
          "name": "",
          "type": "uint256"
        }
      ],
      "stateMutability": "view",
      "type": "function"
    },
    {
      "inputs": [],
      "name": "symbol",
      "outputs": [
        {
          "internalType": "string",
          "name": "",
          "type": "string"
        }
      ],
      "stateMutability": "view",
      "type": "function"
    },
    {
      "inputs": [],
      "name": "targetYieldBps",
      "outputs": [
        {
          "internalType": "uint16",
          "name": "",
          "type": "uint16"
        }
      ],
      "stateMutability": "view",
      "type": "function"
    },
    {
      "inputs": [],
      "name": "totalAssets",
      "outputs": [
        {
          "internalType": "uint256",
          "name": "",
          "type": "uint256"
        }
      ],
      "stateMutability": "view",
      "type": "function"
    },
    {
      "inputs": [],
      "name": "totalSupply",
      "outputs": [
        {
          "internalType": "uint256",
          "name": "",
          "type": "uint256"
        }
      ],
      "stateMutability": "view",
      "type": "function"
    },
    {
      "inputs": [
        {
          "internalType": "address",
          "name": "to",
          "type": "address"
        },
        {
          "internalType": "uint256",
          "name": "value",
          "type": "uint256"
        }
      ],
      "name": "transfer",
      "outputs": [
        {
          "internalType": "bool",
          "name": "",
          "type": "bool"
        }
      ],
      "stateMutability": "nonpayable",
      "type": "function"
    },
    {
      "inputs": [
        {
          "internalType": "address",
          "name": "from",
          "type": "address"
        },
        {
          "internalType": "address",
          "name": "to",
          "type": "address"
        },
        {
          "internalType": "uint256",
          "name": "value",
          "type": "uint256"
        }
      ],
      "name": "transferFrom",
      "outputs": [
        {
          "internalType": "bool",
          "name": "",
          "type": "bool"
        }
      ],
      "stateMutability": "nonpayable",
      "type": "function"
    },
    {
      "inputs": [
        {
          "internalType": "address",
          "name": "newOwner",
          "type": "address"
        }
      ],
      "name": "transferOwnership",
      "outputs": [],
      "stateMutability": "nonpayable",
      "type": "function"
    },
    {
      "inputs": [],
      "name": "underwriter",
      "outputs": [
        {
          "internalType": "address",
          "name": "",
          "type": "address"
        }
      ],
      "stateMutability": "view",
      "type": "function"
    },
    {
      "inputs": [
        {
          "internalType": "uint256",
          "name": "invoiceId",
          "type": "uint256"
        }
      ],
      "name": "unfactorInvoice",
      "outputs": [],
      "stateMutability": "nonpayable",
      "type": "function"
    },
    {
      "inputs": [],
      "name": "viewPoolStatus",
      "outputs": [
        {
          "internalType": "uint256[]",
          "name": "paidInvoices",
          "type": "uint256[]"
        },
        {
          "internalType": "uint256[]",
          "name": "impairedInvoices",
          "type": "uint256[]"
        }
      ],
      "stateMutability": "view",
      "type": "function"
    },
    {
      "inputs": [
        {
          "internalType": "uint256",
          "name": "assets",
          "type": "uint256"
        },
        {
          "internalType": "address",
          "name": "receiver",
          "type": "address"
        },
        {
          "internalType": "address",
          "name": "_owner",
          "type": "address"
        }
      ],
      "name": "withdraw",
      "outputs": [
        {
          "internalType": "uint256",
          "name": "",
          "type": "uint256"
        }
      ],
      "stateMutability": "nonpayable",
      "type": "function"
    },
    {
      "inputs": [],
      "name": "withdrawAdminFeesAndSpreadGains",
      "outputs": [],
      "stateMutability": "nonpayable",
      "type": "function"
    },
    {
      "inputs": [],
      "name": "withdrawProtocolFees",
      "outputs": [],
      "stateMutability": "nonpayable",
      "type": "function"
    }
  ],
  "transactionHash": "0x1a181b8690860e10e149fbe4a9362dd6b0c449f1aa07bad46d92fb49e6d39ea6",
  "args": [
    "0x94a9D9AC8a22534E3FaCa9F4e7F2E2cf85d5E4C8",
    "0x15ef2BD80BE2247C9007A35c761Ea9aDBe1063C5",
    "0x0000000000000000000000000000000000000000",
    "0x5d72984B2e1170EAA0DA4BC22B25C87729C5EBB3",
    "0xB39bF6Fcd9bd97F7616FAD7b6118Fc2E911eA1d8",
    "0x0000000000000000000000000000000000000000",
    "0x996e2beFD170CeB741b0072AE97E524Bdf410E9e",
    "0x89e03e7980c92fd81ed3a9b72f5c73fdf57e5e6d",
    25,
    50,
    "Bulla TCS Factoring Pool Sepolia Test v2.1",
    730,
    "Bulla TCS Factoring Pool",
    "BFT-TCS"
  ],
  "numDeployments": 1,
  "solcInputHash": "d5c262a319397ffc57285603608a08d4",
  "bytecode": "0x60c0806040523461070157615a28803803809161001c8285610705565b833981016101c0828203126107015781516001600160a01b0381168082036107015760208401516001600160a01b03811692908390036107015760408501516001600160a01b038116908190036107015761007960608701610728565b61008560808801610728565b61009160a08901610728565b9161009e60c08a01610728565b936100ab60e08b01610728565b976100b96101008c0161073c565b976100c76101208d0161073c565b6101408d01519b9098906001600160401b038d11610701576100fb6101608f9e8f6100f491859101610766565b9f0161073c565b6101808e0151909d906001600160401b038111610701578261011e918301610766565b6101a08201519092906001600160401b0381116107015761013f9201610766565b815190916001600160401b0382116104d95760035490600182811c921680156106f7575b60208310146104bb5781601f849311610689575b50602090601f8311600114610623575f92610618575b50508160011b915f199060031b1c1916176003555b8051906001600160401b0382116104d95760045490600182811c9216801561060e575b60208310146104bb5781601f8493116105a0575b50602090601f831160011461053a575f9261052f575b50508160011b915f199060031b1c1916176004555b61020d816107ac565b9015610527575b60a05260805233156105145760058054336001600160a01b0319821681179092556001600160a01b03167f8be0079c531659141344cd1fd0a4f28419497f9722a3daafe3b4186f6b6457e05f80a3603c601455610e10601c5561ffff89168015908115610508575b506104ed5761ffff881680159081156104fc575b506104ed57600a80546001600160a01b0319908116929092179055600b8054821692909217909155600e8054821692909217909155600f805482166001600160a01b03938416179055601580548216938316939093179092556016805483169382169390931790925560178054909116928216929092179091556006805460a09490941b61ffff60a01b166001600160c01b031990941694909116939093179190911760b09190911b61ffff60b01b16179055426010558151916001600160401b0383116104d957601254600181811c911680156104cf575b60208210146104bb57601f8111610458575b50602090601f84116001146103f05761ffff93915f91836103e5575b50508160011b915f199060031b1c1916176012555b1661ffff1960135416176013556040516151d89081610850823960805181818161121501528181614a9b0152615105015260a051815050f35b015190505f80610397565b90601f1984169160125f52815f20925f5b818110610440575091600193918661ffff979410610428575b505050811b016012556103ac565b01515f1960f88460031b161c191690555f808061041a565b92936020600181928786015181550195019301610401565b60125f527fbb8a6a4669ba250d26cd7a459eca9d215f8307e33aebe50379bc5a3617ec3444601f850160051c810191602086106104b1575b601f0160051c01905b8181106104a6575061037b565b5f8155600101610499565b9091508190610490565b634e487b7160e01b5f52602260045260245ffd5b90607f1690610369565b634e487b7160e01b5f52604160045260245ffd5b631f3b85d360e01b5f5260045ffd5b6127109150115f610290565b6127109150115f61027c565b631e4fbdf760e01b5f525f60045260245ffd5b506012610214565b015190505f806101ef565b60045f9081528281209350601f198516905b8181106105885750908460019594939210610570575b505050811b01600455610204565b01515f1960f88460031b161c191690555f8080610562565b9293602060018192878601518155019501930161054c565b60045f529091507f8a35acfbc15ff81a39ae7d344fd709f28e8600b4aa8c65c6b64bfe7fe36bd19b601f840160051c81019160208510610604575b90601f859493920160051c01905b8181106105f657506101d9565b5f81558493506001016105e9565b90915081906105db565b91607f16916101c5565b015190505f8061018d565b60035f9081528281209350601f198516905b8181106106715750908460019594939210610659575b505050811b016003556101a2565b01515f1960f88460031b161c191690555f808061064b565b92936020600181928786015181550195019301610635565b60035f529091507fc2575a0e9e593c00f959f8c92f12db2869c3395a3b0502d05e2516446f71f85b601f840160051c810191602085106106ed575b90601f859493920160051c01905b8181106106df5750610177565b5f81558493506001016106d2565b90915081906106c4565b91607f1691610163565b5f80fd5b601f909101601f19168101906001600160401b038211908210176104d957604052565b51906001600160a01b038216820361070157565b519061ffff8216820361070157565b6001600160401b0381116104d957601f01601f191660200190565b81601f820112156107015780519061077d8261074b565b9261078b6040519485610705565b8284526020838301011161070157815f9260208093018386015e8301015290565b5f8091604051602081019063313ce56760e01b8252600481526107d0602482610705565b51916001600160a01b03165afa3d15610847573d906107ee8261074b565b916107fc6040519384610705565b82523d5f602084013e5b8061083b575b610818575b505f905f90565b602081805181010312610701576020015160ff8111610811579060ff6001921690565b5060208151101561080c565b60609061080656fe60806040526004361015610011575f80fd5b5f3560e01c8063015995ad1461058a57806301e1d1141461058557806306fdde031461058057806307a2d13a1461051257806308bb5f7b1461057b578063095ea7b3146105765780630a22d68c146105715780630a28a4771461056c5780630ce6b419146105675780631348ed5e14610562578063173693241461055d57806318160ddd146105585780631859caa8146105535780631ba46cfd1461054e5780631be4c4d41461054957806323b872dd146105445780632d896b2a1461053f5780632f3183e71461053a5780632f5d8aa914610535578063313ce5671461053057806335659fb81461052b57806338d52e0f14610526578063402d267d1461044f57806342b3b12b1461052157806344fcb5cc1461051c57806345b36773146105175780634cdad5061461051257806353a3417b1461050d57806356984d9f14610508578063591e1788146105035780635e20bfc8146104fe5780636e553f65146104f95780636f31ab34146104f4578063706a3f7d146104ef57806370a08231146104ea578063715018a6146104e557806372c5c144146104e057806376138f55146104db5780637fbc9622146104d6578063800120fa146104d157806383de3aed146104cc5780638795cccb146104c75780638c335f9b146104c25780638da5cb5b146104bd5780638e73836c146104b857806394bf804d146104b3578063951e4bee146104ae57806395d89b41146104a957806398769926146104a45780639948ff451461049f57806399530b061461049a578063a36e9fe714610495578063a3d1612c14610490578063a85f57141461048b578063a9059cbb14610486578063ac27a24f14610481578063b33110861461047c578063b3d7f6b914610477578063b460af9414610472578063b73afe8c1461046d578063b9b060b014610468578063ba08765214610463578063be37b12c1461045e578063c42f18f514610459578063c5c1d24614610454578063c63d75b61461044f578063c6e6f5921461044a578063ce96cb7714610445578063cec5a55814610440578063cf0160f91461043b578063d8cf9e3814610436578063d905777e14610431578063dc2dc8ff1461042c578063dd0a12bc14610427578063dd62ed3e14610422578063e22ddb521461041d578063e300a0f414610418578063e6f0681c14610413578063e72f0f051461040e578063e9ff17ef14610409578063ec23368414610404578063ef8b30f7146103ff578063efe0707b146103fa578063f00db260146103f5578063f2fde38b146103f0578063f3466dfa146103eb578063f74916f1146103e65763fa1fc2e9146103e1575f80fd5b6130bb565b613011565b612fe2565b612e97565b612e6f565b612df6565b612dd8565b612d08565b612c58565b612c3b565b612c17565b612bda565b612bb2565b612b53565b612b32565b612895565b61285a565b61280a565b612721565b6126d5565b6126ae565b612690565b611244565b612668565b612611565b612581565b612568565b6124b8565b612450565b61231d565b6122d6565b6122b9565b612240565b612216565b6121ee565b6121bc565b61213a565b6120a7565b61207f565b612065565b611fb0565b611f86565b611f5b565b611f41565b611f19565b611a6f565b6119cd565b6119b3565b611943565b61191b565b611734565b61171a565b6116bf565b611683565b61163e565b611624565b6115fa565b6115dd565b61159f565b61155c565b6114be565b610ab3565b611314565b611288565b61126b565b611200565b6111dc565b6111b7565b611147565b6110d0565b6110b3565b611068565b610f2d565b610f05565b610d0e565b610cf1565b610cc9565b610cac565b610c60565b610c42565b610c25565b610b68565b610ae2565b6109c0565b610966565b6105e8565b6024359061ffff821682036105a057565b5f80fd5b6044359061ffff821682036105a057565b6064359061ffff821682036105a057565b6084359061ffff821682036105a057565b6004359061ffff821682036105a057565b346105a05760a03660031901126105a05760043561060461058f565b61060c6105a4565b906106156105b5565b9161061e6105c6565b9261ffff81168015908115610950575b5061094157600f54610650906001600160a01b03165b6001600160a01b031690565b330361093257610662601c5442613149565b600b5490949061067a906001600160a01b0316610644565b60405163484d384560e11b8152600481018890529093909261010084602481885afa9384156108d0575f94610901575b508351946106be60a0860196875190613201565b156108f257602060049160405192838092631e328b4160e11b82525afa80156108d05789602091610711935f916108d5575b5060405180809581946331a9108f60e11b8352600483019190602083019252565b03916001600160a01b03165afa9081156108d0575f916108a1575b506001600160a01b031630146108925760808401516001600160a01b0316600a5461076190610644906001600160a01b031681565b6001600160a01b0390911603610883576006549060a082901c61ffff169160b01c61ffff169261078f611396565b61ffff909816885261ffff16602088015261ffff16604087015261ffff16606086015261ffff16608085015261ffff1660a084015260208101516001600160a01b0316918151905191606001516107e46113a7565b60018152936001600160a01b031660208501528560408501526060840152608083015f90528360a084015260c083015f905260e083015f905261010083015261012082015261014081015f9052610843845f52601b60205260405f2090565b9061084d91613223565b60405191829161085d9183613393565b037f9a6de9d77d72a8097b391e8a8de244f0be5f1344b06d6c4f000bd98f08c7b16691a2005b6322b96ac960e01b5f5260045ffd5b639c20501360e01b5f5260045ffd5b6108c3915060203d6020116108c9575b6108bb8183611374565b81019061320e565b5f61072c565b503d6108b1565b6131f6565b6108ec9150833d85116108c9576108bb8183611374565b5f6106f0565b63c627ace960e01b5f5260045ffd5b6109249194506101003d811161092b575b61091c8183611374565b81019061316e565b925f6106aa565b503d610912565b632e83528960e01b5f5260045ffd5b631f3b85d360e01b5f5260045ffd5b6127109150115f61062e565b5f9103126105a057565b346105a0575f3660031901126105a05760206109806133a9565b604051908152f35b805180835260209291819084018484015e5f828201840152601f01601f1916010190565b9060206109bd928181520190610988565b90565b346105a0575f3660031901126105a0576040515f6003548060011c9060018116908115610aa9575b602083108214610a95578285526020850191908115610a7c5750600114610a2a575b610a2684610a1a81860382611374565b604051918291826109ac565b0390f35b60035f9081529250907fc2575a0e9e593c00f959f8c92f12db2869c3395a3b0502d05e2516446f71f85b5b818410610a6857505001610a1a82610a0a565b805484840152602090930192600101610a55565b60ff191682525090151560051b019050610a1a82610a0a565b634e487b7160e01b5f52602260045260245ffd5b91607f16916109e8565b346105a05760203660031901126105a05760206109806004356143a7565b6001600160a01b038116036105a057565b346105a05760203660031901126105a057600435610aff81610ad1565b610b076143e0565b6001600160a01b03168015610b5957600f80546001600160a01b0319811683179091556001600160a01b03167fae536502f25a82de70abed467008489d54fa0cbf58cdc51718efe6d49406724f5f80a3005b63e6c4247b60e01b5f5260045ffd5b346105a05760403660031901126105a057600435610b8581610ad1565b6024353315610c12576001600160a01b038216918215610bff57610bc58291335f52600160205260405f209060018060a01b03165f5260205260405f2090565b5560405190815233907f8c5be1e5ebec7d5bd14f71427d1e84f3dd0314c0f7b2291e5b200ac8c7c3b92590602090a3602060405160018152f35b634a1406b160e11b5f525f60045260245ffd5b63e602df0560e01b5f525f60045260245ffd5b346105a0575f3660031901126105a0576020600754604051908152f35b346105a05760203660031901126105a0576020610980600435614407565b346105a05760203660031901126105a0577fe595c99430465234d1ec90ffa3458590c544d5349139442d6911452a7b8e82fa6020600435610c9f6143e0565b80601455604051908152a1005b346105a0575f3660031901126105a0576020601454604051908152f35b346105a0575f3660031901126105a0576015546040516001600160a01b039091168152602090f35b346105a0575f3660031901126105a0576020600254604051908152f35b346105a05760403660031901126105a057600435602435600e54610d3c90610644906001600160a01b031681565b3303610ef657610d5c610d57835f52602160205260405f2090565b613425565b610d6d610d698251151590565b1590565b610ee757610d8d610d86845f52601b60205260405f2090565b5460ff1690565b610ed85782610eb96040610eae7f35284f4a1ce24397c38a20540fd2ed28844bd658c44b1f0bd206c8fd3861262494610dde610dd4610e0d995f52602160205260405f2090565b805460ff19169055565b610de78561443c565b610e676020820151610e626080840197885194878101956060875192019d8e5142613149565b610e156113a7565b60018152953060208801528a870152606086015242608086015260a08501528060c08501528060e08501526101008401525f6101208401525f6101408401525f52601b60205260405f2090565b613223565b610e9c30610e7d895f52601a60205260405f2090565b80546001600160a01b0319166001600160a01b03909216919091179055565b610ea58761347e565b51965142613149565b9251015161ffff1690565b60408051958652602086019290925261ffff16908401523092606090a3005b631df7d2dd60e01b5f5260045ffd5b632c0d11d960e01b5f5260045ffd5b6332d10c3f60e01b5f5260045ffd5b346105a0575f3660031901126105a057600a546040516001600160a01b039091168152602090f35b346105a05760203660031901126105a057600435610f496143e0565b601154801561105957610f5e610d6983614521565b61104a57610f806002610f78845f526020805260405f2090565b015460ff1690565b61103b577ff95dd13343beabbe284b7f97d54b2d4fda5841bab502d60164e8ede601fbe3ac906006610fba845f52601b60205260405f2090565b0154610fd8610fd3610fcc8460011c90565b8094613201565b601155565b610fe18461459a565b610fea846134b4565b611021610ff56113b7565b83815282602082015261100b6040820160019052565b61101c865f526020805260405f2090565b613569565b60408051918252602082019290925290819081015b0390a2005b633235e0c760e21b5f5260045ffd5b632d9bb54f60e11b5f5260045ffd5b6357154c3f60e01b5f5260045ffd5b346105a05760603660031901126105a0576110a860043561108881610ad1565b60243561109481610ad1565b604435916110a383338361463b565b6146e3565b602060405160018152f35b346105a0575f3660031901126105a0576020600854604051908152f35b346105a05760a03660031901126105a0576024356004356110f082610ad1565b60603660431901126105a057611108602092826139b8565b907f393f5b2cbcf0aa47eaec63eb01049e213dc0a29e5bf9b323471be5f5125fc50c6040518061113c6044863396846135a1565b0390a2604051908152f35b346105a05760203660031901126105a0577f93e489c437f6f04520047095a2da3d2f1ee89075b945d9283437bd175a6a79a1602060043561118781610ad1565b61118f6143e0565b601680546001600160a01b0319166001600160a01b03929092169182179055604051908152a1005b346105a0575f3660031901126105a05760206111d16135e4565b60ff60405191168152f35b346105a0575f3660031901126105a057602061ffff60065460a01c16604051908152f35b346105a0575f3660031901126105a0576040517f00000000000000000000000000000000000000000000000000000000000000006001600160a01b03168152602090f35b346105a05760203660031901126105a057611260600435610ad1565b60206040515f198152f35b346105a0575f3660031901126105a0576020600954604051908152f35b346105a05760203660031901126105a0576004356112a46143e0565b601154808210611305578103818111611300577f96ef0ad874bac1a0f28dd6bb42d3cd79816d65910307ac7d95d97bb464cbb94a916112f360209260018060a01b03600a5416309033906147df565b80601155604051908152a1005b613135565b631506ed4b60e01b5f5260045ffd5b346105a05760203660031901126105a0576004355f526019602052602060405f2054604051908152f35b634e487b7160e01b5f52604160045260245ffd5b610100810190811067ffffffffffffffff82111761136f57604052565b61133e565b90601f8019910116810190811067ffffffffffffffff82111761136f57604052565b604051906113a560c083611374565b565b604051906113a561016083611374565b604051906113a5606083611374565b604051906113a561014083611374565b604051906113a5604083611374565b604051906113a560a083611374565b9060405160c081019080821067ffffffffffffffff83111761136f576113a59160405260a061147082955461ffff8116845261ffff8160101c16602085015261ffff8160201c16604085015261145861ffff8260301c16606086019061ffff169052565b61ffff604082901c16608085015260501c61ffff1690565b61ffff16910152565b61ffff60a08092828151168552826020820151166020860152826040820151166040860152826060820151166060860152826080820151166080860152015116910152565b346105a05760203660031901126105a0576004355f52602160205261014060405f2061152760ff8254169160018101549060028101546115056004600384015493016113f4565b9260405195151586526020860152604085015260608401526080830190611479565bf35b90602080835192838152019201905f5b8181106115465750505090565b8251845260209384019390920191600101611539565b346105a0575f3660031901126105a057611591610a2661157a6136bc565b604092919251938493604085526040850190611529565b908382036020850152611529565b346105a05760203660031901126105a05760a06115bd600435613875565b926040929192519485526020850152604084015260608301526080820152f35b346105a0575f3660031901126105a0576020601c54604051908152f35b346105a05760403660031901126105a057602061098060243560043561161f82610ad1565b6139b8565b346105a0575f3660031901126105a0576020610980613a38565b346105a05760203660031901126105a0576004355f5260208052606060405f2080549060ff600260018301549201541690604051928352602083015215156040820152f35b346105a05760203660031901126105a05760206109806004356116a581610ad1565b6001600160a01b03165f9081526020819052604090205490565b346105a0575f3660031901126105a0576116d76143e0565b600580546001600160a01b031981169091555f906001600160a01b03167f8be0079c531659141344cd1fd0a4f28419497f9722a3daafe3b4186f6b6457e08280a3005b346105a0575f3660031901126105a0576020610980613a8e565b346105a0575f3660031901126105a05761174c6136bc565b505f5b81518110156118e65780611870611768600193856136a8565b517ff4b7ee7b3c866d6de6f4e7e344e9be6acc18862b774122bedba082657a30e8d161179382613875565b92969193906117a58482878b8b614b70565b6117ca60096117bc895f52601b60205260405f2090565b01546001600160a01b031690565b9382611887575b6117e76002610f788a5f526020805260405f2090565b15611879576117f588614c40565b61181a611809895f526020805260405f2090565b60025f918281558260018201550155565b60e06118366118318a5f52601b60205260405f2090565b6137b1565b0151916040519687968d8060a01b03169a879260a094919796959260c0850198855260208501526040840152606083015260808201520152565b0390a30161174f565b6118828861459a565b61181a565b600a546118a090849087906001600160a01b0316614c05565b604051887ff0552a3665368b7e77abbd2bbfe72b2615793841acfd3da5b7df5f330cc00eae8d8060a01b03881692806118de88829190602083019252565b0390a36117d1565b6040517f71c060a755cff9c84db9f4be3b4fac0b83f3ffe4e7ff3ebc0be0420d28fb1de090806119168582613b80565b0390a1005b346105a0575f3660031901126105a057600b546040516001600160a01b039091168152602090f35b346105a05760203660031901126105a0577fbc05deec4ecd4d9295d36f7434b1feee89ac308d4040e0133f06bff4635cf70a602060043561198381610ad1565b61198b6143e0565b601780546001600160a01b0319166001600160a01b03929092169182179055604051908152a1005b346105a0575f3660031901126105a0576020610980613b91565b346105a0575f3660031901126105a0576006546001600160a01b031633819003611a6057600754908115611a51575f600755600a54611a169183916001600160a01b0316614c05565b6006546040519182526001600160a01b0316907fa087657e3d85162090ffd700fbfdf5070d816f63aa5da00063f6ffd369c8a6db90602090a2005b630d00db4d60e31b5f5260045ffd5b6307c68f0f60e11b5f5260045ffd5b346105a05760603660031901126105a057600435611a8b61058f565b60443590611a9882610ad1565b601754611aad906001600160a01b0316610644565b60405163babcc53960e01b815233600482015290602090829060249082905afa9081156108d0575f91611eea575b5015611ed757611af9610d69610d86855f52601b60205260405f2090565b611ec857611b2a611b236004611b17865f52601b60205260405f2090565b015460201c61ffff1690565b61ffff1690565b61ffff8216908111908115611ebf575b50610941576001611b53845f52601b60205260405f2090565b01544211611eb057600b54611b70906001600160a01b0316610644565b60405163484d384560e11b8152600481018590529061010090829060249082905afa9081156108d0575f91611e91575b5060c0810151611e82576008611bbe855f52601b60205260405f2090565b015460a082015103611e7357611c066106446020611bf7611be7885f52601b60205260405f2090565b5460081c6001600160a01b031690565b9301516001600160a01b031690565b6001600160a01b0390911603611e6457611c208184613d73565b969493505050506005611c3b865f52601b60205260405f2090565b0155826006611c52865f52601b60205260405f2090565b0155426003611c69865f52601b60205260405f2090565b0155611ca2826004611c83875f52601b60205260405f2090565b019065ffff0000000082549160201b169065ffff000000001916179055565b826001600160a01b038216611e5b57611d019150335b611cf0816009611cd0895f52601b60205260405f2090565b0180546001600160a01b0319166001600160a01b03909216919091179055565b600a546001600160a01b0316614c05565b600b54600490602090611d1c906001600160a01b0316610644565b604051631e328b4160e11b815292839182905afa9081156108d0575f91611e3c575b506001600160a01b031692833b156105a0576040516323b872dd60e01b815233600482015230602482015260448101829052935f908590606490829084905af19384156108d057610a2694611e22575b50611da533610e7d835f52601a60205260405f2090565b611dae8161347e565b7f35284f4a1ce24397c38a20540fd2ed28844bd658c44b1f0bd206c8fd38612624611e0f6002611de6845f52601b60205260405f2090565b0154936040519182913396888491604091949361ffff9160608501968552602085015216910152565b0390a36040519081529081906020820190565b80611e305f611e3693611374565b8061095c565b5f611d8e565b611e55915060203d6020116108c9576108bb8183611374565b5f611d3e565b611d0191611cb8565b63f18c77f960e01b5f5260045ffd5b63971ccc7760e01b5f5260045ffd5b637ccc2bd960e11b5f5260045ffd5b611eaa91506101003d811161092b5761091c8183611374565b5f611ba0565b634aad99a560e11b5f5260045ffd5b9050155f611b3a565b63649ac74160e11b5f5260045ffd5b637190a79560e11b5f523360045260245ffd5b611f0c915060203d602011611f12575b611f048183611374565b8101906139a4565b5f611adb565b503d611efa565b346105a0575f3660031901126105a0576005546040516001600160a01b039091168152602090f35b346105a0575f3660031901126105a0576020610980613bfb565b346105a05760403660031901126105a057611f77602435610ad1565b6369bd111d60e11b5f5260045ffd5b346105a05760203660031901126105a0576004355f526018602052602060405f2054604051908152f35b346105a0575f3660031901126105a0576040515f6004548060011c906001811690811561205b575b602083108214610a95578285526020850191908115610a7c575060011461200957610a2684610a1a81860382611374565b60045f9081529250907f8a35acfbc15ff81a39ae7d344fd709f28e8600b4aa8c65c6b64bfe7fe36bd19b5b81841061204757505001610a1a82610a0a565b805484840152602090930192600101612034565b91607f1691611fd8565b346105a0575f3660031901126105a0576020610980613c25565b346105a0575f3660031901126105a0576006546040516001600160a01b039091168152602090f35b346105a0575f3660031901126105a05760206109806120cc6120c76135e4565b613c88565b6143a7565b999693612114936101e09a97939d9c9996929d6102008d019e15158d5260018060a01b031660208d015260408c015260608b015260808a015260a0890190611479565b6101608701526101808601526101a08501526101c08401526001600160a01b0316910152565b346105a05760203660031901126105a0576004355f52601b60205260405f208054610a26600183015492600281015490600381015461217b600483016113f4565b6005830154600684015491600785015493600886015495600960018060a01b0391015416966040519a8b9a60ff60018060a01b038260081c1691168c6120d1565b346105a05760203660031901126105a0576004355f52601a602052602060018060a01b0360405f205416604051908152f35b346105a0575f3660031901126105a0576017546040516001600160a01b039091168152602090f35b346105a05760403660031901126105a0576110a860043561223681610ad1565b60243590336146e3565b346105a05760203660031901126105a0576122596105d7565b6122616143e0565b61ffff8116906127108211610941576006805461ffff60b01b19811660b093841b61ffff60b01b1617909155901c61ffff167fcc9b1d1e60d76e8755bd2ceaeb3d3ccfe5e5bb556097b7ce618b0a60480ef3e15f80a3005b346105a0575f3660031901126105a0576020601054604051908152f35b346105a05760203660031901126105a05760206109806004356143c8565b60609060031901126105a0576004359060243561231081610ad1565b906044356109bd81610ad1565b346105a05761232b366122f4565b60165490929190612344906001600160a01b0316610644565b60405163babcc53960e01b8152336004820152602081602481855afa9081156108d0575f91612431575b501561241e5760405163babcc53960e01b81526001600160a01b038516600482015290602090829060249082905afa9081156108d0575f916123ff575b50156123e3576123ce6123c5610a26946123d39385614cf4565b92600d54613149565b600d55565b6040519081529081906020820190565b635ebb5e2160e11b5f526001600160a01b03831660045260245ffd5b612418915060203d602011611f1257611f048183611374565b5f6123ab565b635ebb5e2160e11b5f523360045260245ffd5b61244a915060203d602011611f1257611f048183611374565b5f61236e565b346105a05760203660031901126105a05761ffff61246c6105d7565b6124746143e0565b166127108111610941576020817f70804697a7389a86ccbf4594ad23c117ecf0a1ffb94ae9516dc15f85ac7c29c89261ffff196013541617601355604051908152a1005b346105a0575f3660031901126105a0576124d06143e0565b60085460095490818101808211611300578015611a51575f6008819055600955600a54612508919033906001600160a01b0316614c05565b6040519081527fcdcaff67ac16639664e5f9343c9223a1dc9c972ec367b69ae9fc1325c7be547460203392a260405190815233907f0af619ed8af584dcf5cc78faac4031c6286187dd1d2d7a82e466a0e6242e3b35908060208101611036565b346105a057602061098061257b366122f4565b91613c99565b346105a05760203660031901126105a05761259a6105d7565b600654906001600160a01b0382163303611a605761ffff81169161271083116109415761ffff60a01b19811660a092831b61ffff60a01b1617600655604080519190921c61ffff16815260208101929092527f2ea630a8e6f6f7590aa81eb8993a1c4a49a0913effd00467ddd761d45867a3ee91a1005b346105a05760403660031901126105a057610a2661263960043561263361058f565b90613d73565b604080519687526020870195909552938501929092526060840152608083015260a082015290819060c0820190565b346105a0575f3660031901126105a057600e546040516001600160a01b039091168152602090f35b346105a05760203660031901126105a0576020610980600435614425565b346105a05760203660031901126105a05760206109806004356126d081610ad1565b613e43565b346105a05760203660031901126105a0577f6afefcb7619ccdb73c8fdd4304d507509f1d2327b6f29ff2b9c77a1fa760687d60206004356127146143e0565b80601c55604051908152a1005b346105a05760203660031901126105a0577ff6a412f75fe107fb805f9acb0408b3ac23ff1d0381fc83f6ef4352a8c9727f89602060043561276181610ad1565b6127696143e0565b601580546001600160a01b0319166001600160a01b03929092169182179055604051908152a1005b634e487b7160e01b5f52603260045260245ffd5b601d548110156127bd57601d5f5260205f2001905f90565b612791565b601f548110156127bd57601f5f5260205f2001905f90565b601e548110156127bd57601e5f5260205f2001905f90565b6022548110156127bd5760225f5260205f2001905f90565b346105a05760203660031901126105a0576004356022548110156105a05760209060225f527f61035b26e3e9eee00e0d72fd1ee8ddca6894550dca6916ea2ac6baa90d11e5100154604051908152f35b346105a05760203660031901126105a057602061287c6004356116a581610ad1565b612884613a38565b908180821091180218604051908152f35b346105a05760203660031901126105a0576004356128b281614828565b612b23576128d86128cb825f52601a60205260405f2090565b546001600160a01b031690565b336001600160a01b03821603612b145761294b612900611831845f52601b60205260405f2090565b9161294b61294b61295f61295061293c60e08801519760808101518042115f14612b0c576129316129369142613201565b61488d565b9061490c565b9582829a8589969a959d613149565b613149565b61295988614f59565b90613a76565b935f851315612adf57600a546129829086906001600160a01b03168630916147df565b600b5460049060209061299d906001600160a01b0316610644565b604051631e328b4160e11b815292839182905afa9081156108d0575f91612ac0575b506001600160a01b031695863b156105a0576040516323b872dd60e01b81523060048201526001600160a01b038616602482015260448101899052965f908890606490829084905af19384156108d0577f7b7fc0959014b873972d408951ea66a16dde2b5e376c2ce9b0eb3bc7b6d30b329761103695612aac575b50612a448961459a565b612a51848484848d614b70565b612a76612a668a5f52601a60205260405f2090565b80546001600160a01b0319169055565b604051968796879260a094919796959260c0850198600180881b0316855260208501526040840152606083015260808201520152565b80611e305f612aba93611374565b5f612a3a565b612ad9915060203d6020116108c9576108bb8183611374565b5f6129bf565b5f85121561298257600a54612b07906001600160a01b031685612b0188613e72565b91614c05565b612982565b505f9061490c565b6398c1b40760e01b5f5260045ffd5b631915f32960e11b5f5260045ffd5b346105a0575f3660031901126105a057602061ffff60135416604051908152f35b346105a05760403660031901126105a0576020612ba9600435612b7581610ad1565b60243590612b8282610ad1565b60018060a01b03165f526001835260405f209060018060a01b03165f5260205260405f2090565b54604051908152f35b346105a0575f3660031901126105a0576016546040516001600160a01b039091168152602090f35b346105a05760203660031901126105a057600435601d548110156105a057602090601d5f525f5160206151835f395f51905f520154604051908152f35b346105a0575f3660031901126105a057602061ffff60065460b01c16604051908152f35b346105a0575f3660031901126105a0576020601154604051908152f35b346105a05760203660031901126105a05760206109806004355f52601b602052600660405f20015490565b60208152610140610120612ca38451836020860152610160850190610988565b93602081015160408501526040810151606085015260608101516080850152608081015160a085015260a081015160c085015260c081015160e0850152612cf660e082015161010086019061ffff169052565b61010081015182850152015191015290565b346105a0575f3660031901126105a057612d20613e82565b50610a26612d2c6133a9565b61ffff612d37613b91565b91612d40613bfb565b92612dbf612d526120cc6120c76135e4565b94612d5b613a38565b60105496612d7060065461ffff9060b01c1690565b9260115495612d8260135461ffff1690565b97612d8b6113c6565b9a612d94612f21565b8c5260208c015260408b015260608a0152608089015260a088015260c087015261ffff1660e0860152565b6101008401521661012082015260405191829182612c83565b346105a05760203660031901126105a0576020610980600435613edf565b346105a05760203660031901126105a057600435612e1381610ad1565b600654906001600160a01b0382169033829003611a60576001600160a01b0316918215610b59576001600160a01b03191682176006557f2e7dcd5549bd379d2c481c56fc3dbe7db94761cb60cbbc301f807e31cc4a99445f80a3005b346105a0575f3660031901126105a057600f546040516001600160a01b039091168152602090f35b346105a05760203660031901126105a057600435612eb481610ad1565b612ebc6143e0565b6001600160a01b03168015612f0e57600580546001600160a01b0319811683179091556001600160a01b03167f8be0079c531659141344cd1fd0a4f28419497f9722a3daafe3b4186f6b6457e05f80a3005b631e4fbdf760e01b5f525f60045260245ffd5b604051905f6012548060011c91600182168015612fd8575b602084108114610a955783865285926020840191908115612fbf5750600114612f6a575b506113a592500383611374565b60125f90815291507fbb8a6a4669ba250d26cd7a459eca9d215f8307e33aebe50379bc5a3617ec34445b848310612fa857506113a59350015f612f5d565b805482840152869350602090920191600101612f94565b60ff19168252506113a593151560051b0190505f612f5d565b92607f1692612f39565b346105a0575f3660031901126105a057610a26612ffd612f21565b604051918291602083526020830190610988565b346105a05760c03660031901126105a05760043561302e81610ad1565b61303661058f565b9061303f6105a4565b6064356084359160a4359467ffffffffffffffff86116105a057366023870112156105a05785600401359467ffffffffffffffff861161136f5760405195613091601f8201601f191660200188611374565b808752366024828a0101116105a0576020815f9260246130b99b01838b013788010152614153565b005b346105a05760c03660031901126105a0576024356004356130db82610ad1565b604435916130e883610ad1565b60603660631901126105a0576020926131019183613c99565b907f8b96c40bd23d041868dce7135e6994e68df1b292276db8f707c6c35873c1e2016040518061113c6064863396846135a1565b634e487b7160e01b5f52601160045260245ffd5b9190820180921161130057565b51906113a582610ad1565b519081151582036105a057565b90816101009103126105a0576131ee60e06040519261318c84611352565b8051845261319c60208201613156565b60208501526131ad60408201613156565b6040850152606081015160608501526131c860808201613156565b608085015260a081015160a08501526131e360c08201613161565b60c085015201613161565b60e082015290565b6040513d5f823e3d90fd5b9190820391821161130057565b908160209103126105a057516109bd81610ad1565b60096133726101406113a59461324e61323c8251151590565b869060ff801983541691151516179055565b6020810151613282906001600160a01b03168654610100600160a81b03191660089190911b610100600160a81b0316178655565b60408101516001860155606081015160028601556080810151600386015561333a60a082015160048701815181546020808501516040808701516060880151608089015160a0909901519890921b61ffff60401b1660309290921b67ffff00000000000016931b65ffff000000001660109290921b63ffff00001661ffff9095166bffffffffffffffffffffffff19909416939093179390931792909217919091171760509290921b61ffff60501b16919091179055565b60c0810151600586015560e081015160068601556101008101516007860155610120810151600886015501516001600160a01b031690565b910180546001600160a01b0319166001600160a01b03909216919091179055565b90815260e0810192916113a59160200190611479565b6133b1613bfb565b6133b9613b91565b810390811161130057601d545f929091835b83851015613418575f5160206151835f395f51905f528501545f908152601b60205260409020600581015490600601548103908111611300578101809111611300576001909401936133cb565b9193506109bd9250613201565b9060405160a0810181811067ffffffffffffffff82111761136f5760405260806134796004839560ff81541615158552600181015460208601526002810154604086015260038101546060860152016113f4565b910152565b601d54600160401b81101561136f5760018101601d55601d548110156127bd57601d5f525f5160206151835f395f51905f520155565b601f54600160401b81101561136f5760018101601f55601f548110156127bd57601f5f527fa03837a25210ee280c2113ff4b77ca23440b19d4866cca721c801278fd08d8070155565b602254600160401b81101561136f57600181016022556022548110156127bd5760225f527f61035b26e3e9eee00e0d72fd1ee8ddca6894550dca6916ea2ac6baa90d11e5100155565b634e487b7160e01b5f52601260045260245ffd5b8115613564570490565b613546565b600260406113a59380518455602081015160018501550151151591019060ff801983541691151516179055565b60ff8116036105a057565b916040608092959460ff9260a0860197865260208601528035828601528260208201356135cd81613596565b16606086015201356135de81613596565b16910152565b600a5460405163313ce56760e01b815290602090829060049082906001600160a01b03165afa9081156108d0575f9161361b575090565b90506020813d602011613648575b8161363660209383611374565b810103126105a057516109bd81613596565b3d9150613629565b67ffffffffffffffff811161136f5760051b60200190565b9061367282613650565b61367f6040519182611374565b8281528092613690601f1991613650565b0190602036910137565b5f1981146113005760010190565b80518210156127bd5760209160051b010190565b601d5490601f54916136d66136d18483613149565b613668565b906136e081613668565b935f905f925f5b81811061374b5750505f5b818110613703575050825283529190565b8061371c6137126001936127c2565b90549060031b1c90565b61372581614828565b613731575b50016136f2565b61374461373d8661369a565b95886136a8565b525f61372a565b8061375a6137126001936127a5565b61376381614828565b156137835761377b6137748761369a565b96896136a8565b525b016136e7565b61378c81614521565b613797575b5061377d565b6137aa6137a38861369a565b978b6136a8565b525f613791565b906113a561386460096137c26113a7565b946137fd6137ed82546137de6137d88260ff1690565b15158a52565b60081c6001600160a01b031690565b6001600160a01b03166020880152565b600181015460408701526002810154606087015260038101546080870152613827600482016113f4565b60a0870152600581015460c0870152600681015460e08701526007810154610100870152600881015461012087015201546001600160a01b031690565b6001600160a01b0316610140840152565b6138c8610100613890611831845f52601b60205260405f2090565b600b549093906138a8906001600160a01b0316610644565b604051808095819463484d384560e11b8352600483019190602083019252565b03915afa9081156108d057613950936139509360e061395561395095613950955f91613985575b5060808401518042115f14613978576139326139116129316139389342613201565b60a08781015101516139269061ffff16611b23565b90818082119118021890565b8561490c565b9892809c8a849d849d9497516101208c015190613201565b613201565b910151808211156139705761396991613201565b9493929190565b50505f613969565b506139386139325f613911565b61399e91506101003d811161092b5761091c8183611374565b5f6138ef565b908160209103126105a0576109bd90613161565b60155460405163babcc53960e01b815233600482015291929190602090829060249082906001600160a01b03165afa9081156108d0575f91613a19575b501561241e57613a14613a0b6109bd9284614a88565b92600c54613149565b600c55565b613a32915060203d602011611f1257611f048183611374565b5f6139f5565b613a406133a9565b613a48613bfb565b15613a56576109bd90614425565b505f90565b9190915f838201938412911290801582169115161761130057565b81810392915f13801582851316918412161761130057565b5f5f601e545b808210613b535750505f601f545b808210613b09575050601d545f5b818110613abc57505090565b613ac8613712826127a5565b613ad181614521565b613adf575b50600101613ab0565b600191936006613afa613b02935f52601b60205260405f2090565b015490613a76565b9290613ad6565b9091613b4b60019182613afa613b3d613b24613712896127c2565b93613b36855f526020805260405f2090565b5490613a5b565b925f526020805260405f2090565b920190613aa2565b9091613b78600191613b36613b6a613712876127da565b5f52601860205260405f2090565b920190613a94565b9060206109bd928181520190611529565b601d545f91825b82841015613bf557601d5f52835f5160206151835f395f51905f520154613bbe81614521565b15613bda57505f5b810180911161130057600190930192613b98565b613bf0905f52601b602052600660405f20015490565b613bc6565b92509050565b613c1a613c06613a8e565b613c15600c54600d5490613a76565b613a5b565b5f811315613a565790565b601d545f91825b82811015613c8357601d5f52805f5160206151835f395f51905f520154613c5281614521565b15613c61575b50600101613c2c565b613c6d90949194613875565b5050509050810180911161130057926001613c58565b509050565b60ff16604d811161130057600a0a90565b601654613cae906001600160a01b0316610644565b60405163babcc53960e01b8152336004820152602081602481855afa9081156108d0575f91613d54575b501561241e5760405163babcc53960e01b81526001600160a01b038516600482015290602090829060249082905afa9081156108d0575f91613d35575b50156123e35790613d269291614d44565b6109bd6123ce82600d54613149565b613d4e915060203d602011611f1257611f048183611374565b5f613d15565b613d6d915060203d602011611f1257611f048183611374565b5f613cd8565b611831613d8b919392935f52601b60205260405f2090565b91613d99610d698451151590565b611ec85760a083019261ffff613db8611b2360408751015161ffff1690565b92169182118015613e3b575b61094157612936613dec613e1293613de761010085015161012086015190613201565b614db1565b94613926611b2360a0613e0761293160608801514290613201565b9351015161ffff1690565b9490919293613e32613e2c8461294b8761294b8a8c613149565b83613201565b91959493929190565b508115613dc4565b60018060a01b03165f525f602052613e5e60405f20546143a7565b613e666133a9565b90818082109118021890565b600160ff1b8114611300575f0390565b60405190610140820182811067ffffffffffffffff82111761136f576040525f61012083606081528260208201528260408201528260608201528260808201528260a08201528260c08201528260e0820152826101008201520152565b613ee7613bfb565b60025480613ef457505090565b613efc613c25565b8201809211611300576109bd92614ece565b9061ffff8091169116019061ffff821161130057565b906201518082029180830462015180149015171561130057565b906103e88202918083046103e8149015171561130057565b908160209103126105a0575190565b602080825282518183015282810151805161ffff90811660408501529101511660608201526109bd906040830151608082015260608301516001600160a01b031660a082015260808301516001600160a01b031660c0820152610180610140613fdd60a08601518360e08601526101a0850190610988565b60c08601516001600160a01b03166101008501529460e081015161012085810191909152610100820151838601528101516001600160a01b031661016085015201516001600160e01b031916910152565b9061413760a0608060046113a59561405586511515829060ff801983541691151516179055565b6020860151600182015560408601516002820155606086015160038201550193015161409261ffff825116859061ffff1661ffff19825416179055565b6020818101518554604084015165ffffffff00001990911660109290921b63ffff00001691909117911b65ffff00000000161784556140fb6140d9606083015161ffff1690565b855467ffff000000000000191660309190911b67ffff00000000000016178555565b61412e61410d608083015161ffff1690565b855469ffff0000000000000000191660409190911b61ffff60401b16178555565b015161ffff1690565b815461ffff60501b191660509190911b61ffff60501b16179055565b600f549095929493929061416f906001600160a01b0316610644565b3303610932576142a86020915f976141af6006546141a961419e6141988361ffff9060b01c1690565b89613f0e565b9160a01c61ffff1690565b90613f0e565b916141c56141bb6113d6565b61ffff9094168452565b61016d83860152600a54614256906141e5906001600160a01b0316610644565b6141f0601454613f24565b92614241614200601c5442613149565b956142096113a7565b8d81528a8101989098526fffffffffffffffffffffffffffffffff8c1660408901523060608901526001600160a01b03166080880152565b60a08601526001600160a01b031660c0850152565b60e08301526101008201523061012082015263030b395560e31b610140820152600e5461428b906001600160a01b0316610644565b9060405198898094819363a15c24f360e01b835260048301613f65565b03925af19283156108d0576113a5955f94614370575b5061432c61436b949561432160065461430e6142ed6142e28361ffff9060a01c1690565b9260b01c61ffff1690565b936143036142f9611396565b61ffff9099168952565b61ffff166020880152565b612710604087015261ffff166060860152565b61ffff166080840152565b5f60a083015261433a6113e5565b6001815292426020850152604084015260608301526080820152614366835f52602160205260405f2090565b61402e565b6134fd565b61436b945061439961432c9160203d6020116143a0575b6143918183611374565b810190613f56565b94506142be565b503d614387565b60025480156143c4575f906109bd926143be613bfb565b906148ae565b5090565b60025480156143c4576001906109bd926143be613bfb565b6005546001600160a01b031633036143f457565b63118cdaa760e01b5f523360045260245ffd5b60025480156143c4576109bd9160019161441f613bfb565b916148ae565b60025480156143c4576109bd915f9161441f613bfb565b5f5b6022548082101561451c5760225f5282827f61035b26e3e9eee00e0d72fd1ee8ddca6894550dca6916ea2ac6baa90d11e510015414614480575060010161443e565b5f19810192508211611300576144a861449b6144c0936127f2565b90549060031b1c916127f2565b90919082549060031b91821b915f19901b1916179055565b6022548015614508575f198101906022548210156127bd5760225f9081527f61035b26e3e9eee00e0d72fd1ee8ddca6894550dca6916ea2ac6baa90d11e50f90910155602255565b634e487b7160e01b5f52603160045260245ffd5b505050565b600b5460405163484d384560e11b8152600481019290925261010090829060249082906001600160a01b03165afa80156108d0576060915f9161457b575b50015161456d601454613f24565b810180911161130057421190565b61459491506101003d811161092b5761091c8183611374565b5f61455f565b5f5b601d548082101561451c57601d5f5282825f5160206151835f395f51905f520154146145cb575060010161459c565b5f19810192508211611300576144a86145e66145f3936127a5565b90549060031b1c916127a5565b601d548015614508575f19810190601d548210156127bd57601d5f9081527f6d4407e7be21f808e6509aa9fa9143369579dd7d760fe20a2c09680fc146134e90910155601d55565b6001600160a01b039081165f81815260016020908152604080832094861683529390529190912091929091545f198110614676575b50505050565b8181106146c2578215610c12576001600160a01b03841615610bff576146b8925f526001602052039160405f209060018060a01b03165f5260205260405f2090565b555f808080614670565b83637dc7a0d960e11b5f5260018060a01b031660045260245260445260645ffd5b916001600160a01b0383169182156147cc576001600160a01b0381169384156147b9576001600160a01b0381165f90815260208190526040902054838110614794579161478291614768857fddf252ad1be2c89b69c2b068fc378daa952ba7f163c4a11628f55a4df523b3ef9695039160018060a01b03165f525f60205260405f2090565b556001600160a01b03165f90815260208190526040902090565b805482019055604051908152602090a3565b63391434e360e21b5f526001600160a01b03909116600452602452604482905260645ffd5b63ec442f0560e01b5f525f60045260245ffd5b634b637e8f60e11b5f525f60045260245ffd5b6040516323b872dd60e01b60208201526001600160a01b0392831660248201529290911660448301526064808301939093529181526113a591614823608483611374565b614fdc565b600b5460405163484d384560e11b8152600481019290925261010090829060249082906001600160a01b03165afa80156108d05760e0915f9161486e575b500151151590565b61488791506101003d811161092b5761091c8183611374565b5f614866565b62015180600161489e828285614ece565b9209151581018091116113005790565b91906148bb828285614ece565b9360048110156148f85760018091161492836148e3575b505050151581018091116113005790565b909180935015613564570915155f80806148d2565b634e487b7160e01b5f52602160045260245ffd5b60a0810192828451516149209061ffff1690565b61ffff1661492d90613f3e565b9061493791614e18565b918385516020015161494a9061ffff1690565b61ffff1661495790613f3e565b9061496191614e18565b93808651608001516149749061ffff1690565b61ffff1661498190613f3e565b9061498b91614e18565b95516060015161499e9061ffff16613f3e565b906149a891614e18565b856149b38686613149565b906149bd91613149565b906149c791613149565b938482610100829401516101208201516149e091613201565b9060e001516149ef9082613201565b916149f991614e6b565b614a0891818082109118021890565b90821596875f1493614a4494614a765750505f9687955b878215614a645750505f9687915b15614a4b575061395091506139505f988994613201565b9293929190565b614a5c613950916139509486614ece565b988994613201565b614a6e9185614ece565b968791614a2d565b614a809184614ece565b968795614a1f565b90614a9282613edf565b91614ac88130337f00000000000000000000000000000000000000000000000000000000000000006001600160a01b03166147df565b6001600160a01b0382169182156147b9576002549084820180921161130057614b039160025560018060a01b03165f525f60205260405f2090565b80548401905560405183815282905f907fddf252ad1be2c89b69c2b068fc378daa952ba7f163c4a11628f55a4df523b3ef90602090a3604080519182526020820184905233917fdcbc1c05240f31ff3ad067ef1ee35ce4997762752e3a095284754544f4c709d79190a390565b9360085490810180911161130057600855835f52601860205260405f2055825f5260196020528060405f20556009549081018091116113005760095560075490810180911161130057600755601e54600160401b81101561136f5760018101601e55601e548110156127bd57601e5f527f50bb669a95c7b50b7e8a6f09454034b2b14cf2b85c730dca9a539ca82cb6e3500155565b60405163a9059cbb60e01b60208201526001600160a01b0390921660248301526044808301939093529181526113a591614823606483611374565b5f5b601f548082101561451c57601f5f5282827fa03837a25210ee280c2113ff4b77ca23440b19d4866cca721c801278fd08d807015414614c845750600101614c42565b5f19810192508211611300576144a8614c9f614cac936127c2565b90549060031b1c916127c2565b601f548015614508575f19810190601f548210156127bd57601f5f9081527fa03837a25210ee280c2113ff4b77ca23440b19d4866cca721c801278fd08d80690910155601f55565b929190614d0082613e43565b93848111614d21576109bd92939450614d1881614407565b93849233615034565b925050633fa733bb60e21b5f5260018060a01b031660045260245260445260645ffd5b90614d5f8360018060a01b03165f525f60205260405f205490565b614d67613a38565b908180821091180218808311614d8f5750906109bd91614d86826143a7565b93849133615034565b8284632e52afbb60e21b5f5260018060a01b031660045260245260445260645ffd5b614dbb828261515f565b918115614e0d57816127101115614e06577fbc01a36e2eb1c432ca57a786c226809d495182a9930be0ded288ce703afb7e9193612710910990828211900360fc1b910360041c170290565b6011615172565b506127109250500490565b614e22828261515f565b91908015614e605761016d1115614e06577f4ff4c73064ff4c73064ff4c73064ff4c73064ff4c73064ff4c73064ff4c730659261016d910990030290565b5061016d9250500490565b614e75828261515f565b918115614ec25781629896801115614e06577f5fb648fcc913daa857a27e44a97d3c6bc1193a63a91cc45be5032477ae8d46a59362989680910990828211900360f91b910360071c170290565b50629896809250500490565b91614ed9828461515f565b9290938415614f4c5784831115614f3f5790829109815f0382168092046002816003021880820260020302808202600203028082026002030280820260020302808202600203028091026002030293600183805f03040190848311900302920304170290565b6011600384150218615172565b5050906109bd925061355a565b600b5460405163484d384560e11b8152600481018390529061010090829060249082906001600160a01b03165afa80156108d05760a0614faf916008935f91614fbd575b500151925f52601b60205260405f2090565b015481039081116113005790565b614fd691506101003d811161092b5761091c8183611374565b5f614f9d565b905f602091828151910182855af1156131f6575f513d61502b57506001600160a01b0381163b155b61500b5750565b635274afe760e01b5f9081526001600160a01b0391909116600452602490fd5b60011415615004565b6001600160a01b0380841695908216939092918387860361514e575b505085156147cc576001600160a01b0381165f9081526020819052604090205483811061479457906150b7847ffbde797d201c681b91056529119e0b02407c7bb96a4a2c75c01fc9667232c8db959493039160018060a01b03165f525f60205260405f2090565b556150c58260025403600255565b5f867fddf252ad1be2c89b69c2b068fc378daa952ba7f163c4a11628f55a4df523b3ef604051806150fb87829190602083019252565b0390a361513285827f00000000000000000000000000000000000000000000000000000000000000006001600160a01b0316614c05565b6040805195865260208601929092526001600160a01b031693a4565b615158918361463b565b5f83615050565b905f198183099102908180821091030391565b634e487b715f526020526024601cfdfe6d4407e7be21f808e6509aa9fa9143369579dd7d760fe20a2c09680fc146134fa2646970667358221220124dd1be221b34b8871776f1f7bc47244eb9c8111e286b430aa85fc57877985f64736f6c634300081e0033",
  "devdoc": {
    "author": "@solidoracle",
    "errors": {
      "ERC20InsufficientAllowance(address,uint256,uint256)": [
        {
          "details": "Indicates a failure with the `spender`s `allowance`. Used in transfers.",
          "params": {
            "allowance": "Amount of tokens a `spender` is allowed to operate with.",
            "needed": "Minimum amount required to perform a transfer.",
            "spender": "Address that may be allowed to operate on tokens without being their owner."
          }
        }
      ],
      "ERC20InsufficientBalance(address,uint256,uint256)": [
        {
          "details": "Indicates an error related to the current `balance` of a `sender`. Used in transfers.",
          "params": {
            "balance": "Current balance for the interacting account.",
            "needed": "Minimum amount required to perform a transfer.",
            "sender": "Address whose tokens are being transferred."
          }
        }
      ],
      "ERC20InvalidApprover(address)": [
        {
          "details": "Indicates a failure with the `approver` of a token to be approved. Used in approvals.",
          "params": {
            "approver": "Address initiating an approval operation."
          }
        }
      ],
      "ERC20InvalidReceiver(address)": [
        {
          "details": "Indicates a failure with the token `receiver`. Used in transfers.",
          "params": {
            "receiver": "Address to which tokens are being transferred."
          }
        }
      ],
      "ERC20InvalidSender(address)": [
        {
          "details": "Indicates a failure with the token `sender`. Used in transfers.",
          "params": {
            "sender": "Address whose tokens are being transferred."
          }
        }
      ],
      "ERC20InvalidSpender(address)": [
        {
          "details": "Indicates a failure with the `spender` to be approved. Used in approvals.",
          "params": {
            "spender": "Address that may be allowed to operate on tokens without being their owner."
          }
        }
      ],
      "ERC4626ExceededMaxDeposit(address,uint256,uint256)": [
        {
          "details": "Attempted to deposit more assets than the max amount for `receiver`."
        }
      ],
      "ERC4626ExceededMaxMint(address,uint256,uint256)": [
        {
          "details": "Attempted to mint more shares than the max amount for `receiver`."
        }
      ],
      "ERC4626ExceededMaxRedeem(address,uint256,uint256)": [
        {
          "details": "Attempted to redeem more shares than the max amount for `receiver`."
        }
      ],
      "ERC4626ExceededMaxWithdraw(address,uint256,uint256)": [
        {
          "details": "Attempted to withdraw more assets than the max amount for `receiver`."
        }
      ],
      "OwnableInvalidOwner(address)": [
        {
          "details": "The owner is not a valid owner account. (eg. `address(0)`)"
        }
      ],
      "OwnableUnauthorizedAccount(address)": [
        {
          "details": "The caller account is not authorized to perform an operation."
        }
      ],
      "SafeERC20FailedOperation(address)": [
        {
          "details": "An operation with an ERC-20 token failed."
        }
      ]
    },
    "events": {
      "Approval(address,address,uint256)": {
        "details": "Emitted when the allowance of a `spender` for an `owner` is set by a call to {approve}. `value` is the new allowance."
      },
      "Transfer(address,address,uint256)": {
        "details": "Emitted when `value` tokens are moved from one account (`from`) to another (`to`). Note that `value` may be zero."
      }
    },
    "kind": "dev",
    "methods": {
      "allowance(address,address)": {
        "details": "See {IERC20-allowance}."
      },
      "approve(address,uint256)": {
        "details": "See {IERC20-approve}. NOTE: If `value` is the maximum `uint256`, the allowance is not updated on `transferFrom`. This is semantically equivalent to an infinite approval. Requirements: - `spender` cannot be the zero address."
      },
      "approveInvoice(uint256,uint16,uint16,uint16,uint16)": {
        "params": {
          "_spreadBps": "The spread in basis points to add on top of target yield",
          "_upfrontBps": "The maximum upfront percentage the factorer can request",
          "invoiceId": "The ID of the invoice to approve",
          "minDaysInterestApplied": "The minimum number of days interest must be applied"
        }
      },
      "asset()": {
        "details": "See {IERC4626-asset}. "
      },
      "balanceOf(address)": {
        "details": "See {IERC20-balanceOf}."
      },
      "calculateAccruedProfits()": {
        "details": "Iterates through all active invoices, calculates interest for each and sums the net accrued interest",
        "returns": {
          "accruedProfits": "The total net accrued profits across all active invoices"
        }
      },
      "calculateCapitalAccount()": {
        "returns": {
          "_0": "The calculated capital account balance"
        }
      },
      "calculateKickbackAmount(uint256)": {
        "params": {
          "invoiceId": "The ID of the invoice for which to calculate the kickback amount"
        },
        "returns": {
          "kickbackAmount": "The calculated kickback amount",
          "trueAdminFee": "The true admin fee amount",
          "trueInterest": "The true interest amount",
          "trueProtocolFee": "The true protocol fee amount",
          "trueSpreadAmount": "The true spread amount"
        }
      },
      "calculateRealizedGainLoss()": {
        "returns": {
          "_0": "The total realized gain adjusted for losses"
        }
      },
      "calculateTargetFees(uint256,uint16)": {
        "params": {
          "factorerUpfrontBps": "The upfront bps specified by the factorer",
          "invoiceId": "The ID of the invoice for which to calculate the fees"
        },
        "returns": {
          "adminFee": "The target calculated admin fee",
          "fundedAmountGross": "The gross amount to be funded to the factorer",
          "netFundedAmount": "The net amount that will be funded to the factorer after deducting fees",
          "targetInterest": "The calculated interest fee",
          "targetProtocolFee": "The calculated protocol fee",
          "targetSpreadAmount": "The calculated spread amount"
        }
      },
      "constructor": {
        "params": {
          "_asset": "underlying supported stablecoin asset for deposit ",
          "_invoiceProviderAdapter": "adapter for invoice provider",
          "_underwriter": "address of the underwriter"
        }
      },
      "convertToAssets(uint256)": {
        "details": "See {IERC4626-convertToAssets}. "
      },
      "convertToShares(uint256)": {
        "details": "See {IERC4626-convertToShares}. "
      },
      "decimals()": {
        "returns": {
          "_0": "The number of decimals for this token"
        }
      },
      "deployedCapitalForActiveInvoicesExcludingImpaired()": {
        "returns": {
          "_0": "The total funded amount for all active invoices"
        }
      },
      "deposit(uint256,address)": {
        "params": {
          "assets": "The amount of assets to deposit",
          "receiver": "The address to receive the fund shares"
        },
        "returns": {
          "_0": "The number of shares issued for the deposit"
        }
      },
      "depositWithAttachment(uint256,address,(bytes32,uint8,uint8))": {
        "params": {
          "assets": "The amount of assets to deposit",
          "attachment": "The attachment data for the deposit",
          "receiver": "The address to receive the fund shares"
        },
        "returns": {
          "_0": "The number of shares issued for the deposit"
        }
      },
      "fundInvoice(uint256,uint16,address)": {
        "details": "No checks needed for the creditor, as transferFrom will revert unless it gets executed by the nft owner (i.e. claim creditor)",
        "params": {
          "factorerUpfrontBps": "factorer specified upfront bps",
          "invoiceId": "The ID of the invoice to fund",
          "receiverAddress": "Address to receive the funds, if address(0) then funds go to msg.sender"
        }
      },
      "getFundInfo()": {
        "returns": {
          "_0": "FundInfo The fund information"
        }
      },
      "impairInvoice(uint256)": {
        "params": {
          "invoiceId": "The ID of the invoice to impair"
        }
      },
      "maxDeposit(address)": {
        "details": "See {IERC4626-maxDeposit}. "
      },
      "maxMint(address)": {
        "details": "See {IERC4626-maxMint}. "
      },
      "maxRedeem()": {
        "returns": {
          "_0": "The maximum number of shares that can be redeemed"
        }
      },
      "maxRedeem(address)": {
        "params": {
          "_owner": "The owner of the shares being redeemed"
        },
        "returns": {
          "_0": "The maximum number of shares that can be redeemed"
        }
      },
      "maxWithdraw(address)": {
        "params": {
          "_owner": "The owner of the assets to be withdrawn"
        },
        "returns": {
          "_0": "The maximum number of assets that can be withdrawn"
        }
      },
      "name()": {
        "details": "Returns the name of the token."
      },
      "owner()": {
        "details": "Returns the address of the current owner."
      },
      "previewDeposit(uint256)": {
        "details": "See {IERC4626-previewDeposit}. "
      },
      "previewMint(uint256)": {
        "details": "See {IERC4626-previewMint}. "
      },
      "previewRedeem(uint256)": {
        "details": "See {IERC4626-previewRedeem}. "
      },
      "previewWithdraw(uint256)": {
        "details": "See {IERC4626-previewWithdraw}. "
      },
      "pricePerShare()": {
        "returns": {
          "_0": "The current price per share, scaled to the underlying asset's decimal places"
        }
      },
      "reconcileActivePaidInvoices()": {
        "details": "This function should be called when viewPoolStatus returns some updates, to ensure accurate accounting"
      },
      "redeem(uint256,address,address)": {
        "params": {
          "_owner": "The owner of the shares being redeemed",
          "receiver": "The address to receive the assets",
          "shares": "The number of shares to redeem"
        },
        "returns": {
          "_0": "The number of shares redeemed"
        }
      },
      "redeemWithAttachment(uint256,address,address,(bytes32,uint8,uint8))": {
        "params": {
          "_owner": "The owner of the shares being redeemed",
          "attachment": "The attachment data for the redemption",
          "receiver": "The address to receive the redeemed assets",
          "shares": "The number of shares to redeem"
        },
        "returns": {
          "_0": "The amount of assets redeemed"
        }
      },
      "renounceOwnership()": {
        "details": "Leaves the contract without owner. It will not be possible to call `onlyOwner` functions. Can only be called by the current owner. NOTE: Renouncing ownership will leave the contract without an owner, thereby disabling any functionality that is only available to the owner."
      },
      "setAdminFeeBps(uint16)": {
        "params": {
          "_newAdminFeeBps": "The new admin fee in basis points"
        }
      },
      "setApprovalDuration(uint256)": {
        "details": "This function can only be called by the contract owner",
        "params": {
          "_duration": "The new duration in seconds"
        }
      },
      "setBullaDaoAddress(address)": {
        "params": {
          "_newBullaDao": "The new address for the Bulla DAO"
        }
      },
      "setDepositPermissions(address)": {
        "params": {
          "_newDepositPermissionsAddress": "The new deposit permissions contract address"
        }
      },
      "setFactoringPermissions(address)": {
        "params": {
          "_newFactoringPermissionsAddress": "The address of the new factoring permissions contract"
        }
      },
      "setGracePeriodDays(uint256)": {
        "details": "This function can only be called by the contract owner",
        "params": {
          "_days": "The number of days for the grace period"
        }
      },
      "setImpairReserve(uint256)": {
        "params": {
          "_impairReserve": "The new impair reserve amount"
        }
      },
      "setProtocolFeeBps(uint16)": {
        "params": {
          "_newProtocolFeeBps": "The new protocol fee in basis points"
        }
      },
      "setRedeemPermissions(address)": {
        "params": {
          "_newRedeemPermissionsAddress": "The new redeem permissions contract address"
        }
      },
      "setTargetYield(uint16)": {
        "params": {
          "_targetYieldBps": "The new target yield in basis points"
        }
      },
      "setUnderwriter(address)": {
        "params": {
          "_newUnderwriter": "The address of the new underwriter"
        }
      },
      "symbol()": {
        "details": "Returns the symbol of the token, usually a shorter version of the name."
      },
      "totalAssets()": {
        "returns": {
          "_0": "The amount of assets available for withdrawal or new investments, excluding funds allocated to active invoices"
        }
      },
      "totalSupply()": {
        "details": "See {IERC20-totalSupply}."
      },
      "transfer(address,uint256)": {
        "details": "See {IERC20-transfer}. Requirements: - `to` cannot be the zero address. - the caller must have a balance of at least `value`."
      },
      "transferFrom(address,address,uint256)": {
        "details": "See {IERC20-transferFrom}. Skips emitting an {Approval} event indicating an allowance update. This is not required by the ERC. See {xref-ERC20-_approve-address-address-uint256-bool-}[_approve]. NOTE: Does not update the allowance if the current allowance is the maximum `uint256`. Requirements: - `from` and `to` cannot be the zero address. - `from` must have a balance of at least `value`. - the caller must have allowance for ``from``'s tokens of at least `value`."
      },
      "transferOwnership(address)": {
        "details": "Transfers ownership of the contract to a new account (`newOwner`). Can only be called by the current owner."
      },
      "unfactorInvoice(uint256)": {
        "params": {
          "invoiceId": "The ID of the invoice to unfactor"
        }
      },
      "viewPoolStatus()": {
        "returns": {
          "impairedInvoices": "An array of impaired invoice IDs",
          "paidInvoices": "An array of paid invoice IDs"
        }
      },
      "withdraw(uint256,address,address)": {
        "params": {
          "_owner": "The address who owns the shares to redeem",
          "assets": "The amount of assets to withdraw",
          "receiver": "The address to receive the assets"
        },
        "returns": {
          "_0": "The number of shares redeemed"
        }
      }
    },
    "title": "Bulla Factoring Fund",
    "version": 1
  },
  "userdoc": {
    "errors": {
      "CallerNotUnderwriter()": [
        {
          "notice": "Errors"
        }
      ]
    },
    "kind": "user",
    "methods": {
      "activeInvoices(uint256)": {
        "notice": "Array to hold the IDs of all active invoices"
      },
      "adminFeeBalance()": {
        "notice": "Accumulated admin fee balance"
      },
      "adminFeeBps()": {
        "notice": "Admin fee in basis points"
      },
      "approvalDuration()": {
        "notice": "The duration of invoice approval before it expires"
      },
      "approveInvoice(uint256,uint16,uint16,uint16,uint16)": {
        "notice": "Approves an invoice for funding, can only be called by the underwriter"
      },
      "approvedInvoices(uint256)": {
        "notice": "Mapping from invoice ID to invoice approval details"
      },
      "assetAddress()": {
        "notice": "Address of the underlying asset token (e.g., USDC)"
      },
      "bullaDao()": {
        "notice": "Address of the Bulla DAO, a trusted multisig"
      },
      "bullaFrendLend()": {
        "notice": "Address of the bulla frendlend contract"
      },
      "calculateAccruedProfits()": {
        "notice": "Calculates the total accrued profits from all active invoices"
      },
      "calculateCapitalAccount()": {
        "notice": "Calculates the capital account balance, including deposits, withdrawals, and realized gains/losses"
      },
      "calculateKickbackAmount(uint256)": {
        "notice": "Calculates the kickback amount for a given funded amount allowing early payment"
      },
      "calculateRealizedGainLoss()": {
        "notice": "Calculates the total realized gain or loss from paid and impaired invoices"
      },
      "calculateTargetFees(uint256,uint16)": {
        "notice": "Calculates the true fees and net funded amount for a given invoice and factorer's upfront bps, annualised"
      },
      "creationTimestamp()": {
        "notice": "Timestamp of the fund's creation"
      },
      "decimals()": {
        "notice": "Returns the number of decimals the token uses, same as the underlying asset"
      },
      "deployedCapitalForActiveInvoicesExcludingImpaired()": {
        "notice": "Calculates the total funded amount for all active invoices."
      },
      "deposit(uint256,address)": {
        "notice": "Helper function to handle the logic of depositing assets in exchange for fund shares"
      },
      "depositPermissions()": {
        "notice": "Permissions contracts for deposit and factoring"
      },
      "depositWithAttachment(uint256,address,(bytes32,uint8,uint8))": {
        "notice": "Allows for the deposit of assets in exchange for fund shares with an attachment"
      },
      "fundInvoice(uint256,uint16,address)": {
        "notice": "Funds a single invoice, transferring the funded amount from the fund to the caller and transferring the invoice NFT to the fund"
      },
      "getFundInfo()": {
        "notice": "Retrieves the fund information"
      },
      "gracePeriodDays()": {
        "notice": "Grace period for invoices"
      },
      "impairInvoice(uint256)": {
        "notice": "Impairs an invoice, using the impairment reserve to cover the loss"
      },
      "impairReserve()": {
        "notice": "Reserve amount for impairment"
      },
      "impairments(uint256)": {
        "notice": "Mapping from invoice ID to impairment details"
      },
      "invoiceProviderAdapter()": {
        "notice": "Address of the invoice provider contract adapter"
      },
      "maxRedeem()": {
        "notice": "Calculates the maximum amount of shares that can be redeemed based on the total assets in the fund"
      },
      "maxRedeem(address)": {
        "notice": "Calculates the maximum amount of shares that can be redeemed based on the total assets in the fund"
      },
      "maxWithdraw(address)": {
        "notice": "Calculates the maximum amount of assets that can be withdrawn"
      },
      "originalCreditors(uint256)": {
        "notice": "Mapping from invoice ID to original creditor's address"
      },
      "paidInvoicesGain(uint256)": {
        "notice": "Mapping of paid invoices ID to track gains/losses"
      },
      "paidInvoicesSpreadGain(uint256)": {
        "notice": "Mapping of paid invoices ID to track spread gains, that belong to pool owner and are not part of the pool's yield"
      },
      "pendingLoanOffersByLoanOfferId(uint256)": {
        "notice": "Mapping from loan offer ID to pending loan offer details"
      },
      "pendingLoanOffersIds(uint256)": {
        "notice": "Array to track IDs of pending loan offers"
      },
      "poolName()": {
        "notice": "Name of the factoring pool"
      },
      "pricePerShare()": {
        "notice": "Calculates the current price per share of the fund, "
      },
      "protocolFeeBalance()": {
        "notice": "Accumulated protocol fee balance"
      },
      "protocolFeeBps()": {
        "notice": "Protocol fee in basis points"
      },
      "reconcileActivePaidInvoices()": {
        "notice": "Reconciles the list of active invoices with those that have been paid, updating the fund's records"
      },
      "redeem(uint256,address,address)": {
        "notice": "Helper function to handle the logic of redeeming shares in exchange for assets"
      },
      "redeemWithAttachment(uint256,address,address,(bytes32,uint8,uint8))": {
        "notice": "Redeems shares for underlying assets with an attachment, transferring the assets to the specified receiver"
      },
      "setAdminFeeBps(uint16)": {
        "notice": "Sets the admin fee in basis points"
      },
      "setApprovalDuration(uint256)": {
        "notice": "Sets the duration for which invoice approvals are valid"
      },
      "setBullaDaoAddress(address)": {
        "notice": "Updates the Bulla DAO address"
      },
      "setDepositPermissions(address)": {
        "notice": "Updates the deposit permissions contract"
      },
      "setFactoringPermissions(address)": {
        "notice": "Updates the factoring permissions contract"
      },
      "setGracePeriodDays(uint256)": {
        "notice": "Sets the grace period in days for determining if an invoice is impaired"
      },
      "setImpairReserve(uint256)": {
        "notice": "Sets the impair reserve amount"
      },
      "setProtocolFeeBps(uint16)": {
        "notice": "Updates the protocol fee in basis points (bps)"
      },
      "setRedeemPermissions(address)": {
        "notice": "Updates the redeem permissions contract"
      },
      "setTargetYield(uint16)": {
        "notice": "Sets the target yield in basis points"
      },
      "setUnderwriter(address)": {
        "notice": "Sets a new underwriter for the contract"
      },
      "spreadGainsBalance()": {
        "notice": "Accumulated spread gains balance"
      },
      "targetYieldBps()": {
        "notice": "Target yield in basis points"
      },
      "totalAssets()": {
        "notice": "Calculates the available assets in the fund net of fees and impair reserve"
      },
      "underwriter()": {
        "notice": "Address of the underwriter, trusted to approve invoices"
      },
      "unfactorInvoice(uint256)": {
        "notice": "Unfactors an invoice, returning the invoice NFT to the original creditor and refunding the funded amount"
      },
      "viewPoolStatus()": {
        "notice": "Provides a view of the pool's status, listing paid and impaired invoices, to be called by Gelato or alike"
      },
      "withdraw(uint256,address,address)": {
        "notice": "Helper function to handle the logic of withdrawing assets in exchange for fund shares"
      },
      "withdrawAdminFeesAndSpreadGains()": {
        "notice": "Allows the Pool Owner to withdraw accumulated admin fees and spread gains."
      },
      "withdrawProtocolFees()": {
        "notice": "Allows the Bulla DAO to withdraw accumulated protocol fees."
      }
    },
    "notice": "Bulla Factoring Fund is a ERC4626 compatible fund that allows for the factoring of invoices",
    "version": 1
  },
  "storageLayout": {
    "storage": [
      {
        "astId": 3956,
        "contract": "contracts/BullaFactoring.sol:BullaFactoringV2",
        "label": "_balances",
        "offset": 0,
        "slot": "0",
        "type": "t_mapping(t_address,t_uint256)"
      },
      {
        "astId": 3962,
        "contract": "contracts/BullaFactoring.sol:BullaFactoringV2",
        "label": "_allowances",
        "offset": 0,
        "slot": "1",
        "type": "t_mapping(t_address,t_mapping(t_address,t_uint256))"
      },
      {
        "astId": 3964,
        "contract": "contracts/BullaFactoring.sol:BullaFactoringV2",
        "label": "_totalSupply",
        "offset": 0,
        "slot": "2",
        "type": "t_uint256"
      },
      {
        "astId": 3966,
        "contract": "contracts/BullaFactoring.sol:BullaFactoringV2",
        "label": "_name",
        "offset": 0,
        "slot": "3",
        "type": "t_string_storage"
      },
      {
        "astId": 3968,
        "contract": "contracts/BullaFactoring.sol:BullaFactoringV2",
        "label": "_symbol",
        "offset": 0,
        "slot": "4",
        "type": "t_string_storage"
      },
      {
        "astId": 3397,
        "contract": "contracts/BullaFactoring.sol:BullaFactoringV2",
        "label": "_owner",
        "offset": 0,
        "slot": "5",
        "type": "t_address"
      },
      {
        "astId": 9474,
        "contract": "contracts/BullaFactoring.sol:BullaFactoringV2",
        "label": "bullaDao",
        "offset": 0,
        "slot": "6",
        "type": "t_address"
      },
      {
        "astId": 9477,
        "contract": "contracts/BullaFactoring.sol:BullaFactoringV2",
        "label": "protocolFeeBps",
        "offset": 20,
        "slot": "6",
        "type": "t_uint16"
      },
      {
        "astId": 9480,
        "contract": "contracts/BullaFactoring.sol:BullaFactoringV2",
        "label": "adminFeeBps",
        "offset": 22,
        "slot": "6",
        "type": "t_uint16"
      },
      {
        "astId": 9483,
        "contract": "contracts/BullaFactoring.sol:BullaFactoringV2",
        "label": "protocolFeeBalance",
        "offset": 0,
        "slot": "7",
        "type": "t_uint256"
      },
      {
        "astId": 9486,
        "contract": "contracts/BullaFactoring.sol:BullaFactoringV2",
        "label": "adminFeeBalance",
        "offset": 0,
        "slot": "8",
        "type": "t_uint256"
      },
      {
        "astId": 9489,
        "contract": "contracts/BullaFactoring.sol:BullaFactoringV2",
        "label": "spreadGainsBalance",
        "offset": 0,
        "slot": "9",
        "type": "t_uint256"
      },
      {
        "astId": 9493,
        "contract": "contracts/BullaFactoring.sol:BullaFactoringV2",
        "label": "assetAddress",
        "offset": 0,
        "slot": "10",
        "type": "t_contract(IERC20)4526"
      },
      {
        "astId": 9497,
        "contract": "contracts/BullaFactoring.sol:BullaFactoringV2",
        "label": "invoiceProviderAdapter",
        "offset": 0,
        "slot": "11",
        "type": "t_contract(IInvoiceProviderAdapterV2)14245"
      },
      {
        "astId": 9499,
        "contract": "contracts/BullaFactoring.sol:BullaFactoringV2",
        "label": "totalDeposits",
        "offset": 0,
        "slot": "12",
        "type": "t_uint256"
      },
      {
        "astId": 9501,
        "contract": "contracts/BullaFactoring.sol:BullaFactoringV2",
        "label": "totalWithdrawals",
        "offset": 0,
        "slot": "13",
        "type": "t_uint256"
      },
      {
        "astId": 9505,
        "contract": "contracts/BullaFactoring.sol:BullaFactoringV2",
        "label": "bullaFrendLend",
        "offset": 0,
        "slot": "14",
        "type": "t_contract(IBullaFrendLend)667"
      },
      {
        "astId": 9508,
        "contract": "contracts/BullaFactoring.sol:BullaFactoringV2",
        "label": "underwriter",
        "offset": 0,
        "slot": "15",
        "type": "t_address"
      },
      {
        "astId": 9511,
        "contract": "contracts/BullaFactoring.sol:BullaFactoringV2",
        "label": "creationTimestamp",
        "offset": 0,
        "slot": "16",
        "type": "t_uint256"
      },
      {
        "astId": 9514,
        "contract": "contracts/BullaFactoring.sol:BullaFactoringV2",
        "label": "impairReserve",
        "offset": 0,
        "slot": "17",
        "type": "t_uint256"
      },
      {
        "astId": 9517,
        "contract": "contracts/BullaFactoring.sol:BullaFactoringV2",
        "label": "poolName",
        "offset": 0,
        "slot": "18",
        "type": "t_string_storage"
      },
      {
        "astId": 9520,
        "contract": "contracts/BullaFactoring.sol:BullaFactoringV2",
        "label": "targetYieldBps",
        "offset": 0,
        "slot": "19",
        "type": "t_uint16"
      },
      {
        "astId": 9524,
        "contract": "contracts/BullaFactoring.sol:BullaFactoringV2",
        "label": "gracePeriodDays",
        "offset": 0,
        "slot": "20",
        "type": "t_uint256"
      },
      {
        "astId": 9528,
        "contract": "contracts/BullaFactoring.sol:BullaFactoringV2",
        "label": "depositPermissions",
        "offset": 0,
        "slot": "21",
        "type": "t_contract(Permissions)13688"
      },
      {
        "astId": 9531,
        "contract": "contracts/BullaFactoring.sol:BullaFactoringV2",
        "label": "redeemPermissions",
        "offset": 0,
        "slot": "22",
        "type": "t_contract(Permissions)13688"
      },
      {
        "astId": 9534,
        "contract": "contracts/BullaFactoring.sol:BullaFactoringV2",
        "label": "factoringPermissions",
        "offset": 0,
        "slot": "23",
        "type": "t_contract(Permissions)13688"
      },
      {
        "astId": 9539,
        "contract": "contracts/BullaFactoring.sol:BullaFactoringV2",
        "label": "paidInvoicesGain",
        "offset": 0,
        "slot": "24",
        "type": "t_mapping(t_uint256,t_uint256)"
      },
      {
        "astId": 9544,
        "contract": "contracts/BullaFactoring.sol:BullaFactoringV2",
        "label": "paidInvoicesSpreadGain",
        "offset": 0,
        "slot": "25",
        "type": "t_mapping(t_uint256,t_uint256)"
      },
      {
        "astId": 9549,
        "contract": "contracts/BullaFactoring.sol:BullaFactoringV2",
        "label": "originalCreditors",
        "offset": 0,
        "slot": "26",
        "type": "t_mapping(t_uint256,t_address)"
      },
      {
        "astId": 9555,
        "contract": "contracts/BullaFactoring.sol:BullaFactoringV2",
        "label": "approvedInvoices",
        "offset": 0,
        "slot": "27",
        "type": "t_mapping(t_uint256,t_struct(InvoiceApproval)13854_storage)"
      },
      {
        "astId": 9559,
        "contract": "contracts/BullaFactoring.sol:BullaFactoringV2",
        "label": "approvalDuration",
        "offset": 0,
        "slot": "28",
        "type": "t_uint256"
      },
      {
        "astId": 9563,
        "contract": "contracts/BullaFactoring.sol:BullaFactoringV2",
        "label": "activeInvoices",
        "offset": 0,
        "slot": "29",
        "type": "t_array(t_uint256)dyn_storage"
      },
      {
        "astId": 9567,
        "contract": "contracts/BullaFactoring.sol:BullaFactoringV2",
        "label": "paidInvoicesIds",
        "offset": 0,
        "slot": "30",
        "type": "t_array(t_uint256)dyn_storage"
      },
      {
        "astId": 9571,
        "contract": "contracts/BullaFactoring.sol:BullaFactoringV2",
        "label": "impairedByFundInvoicesIds",
        "offset": 0,
        "slot": "31",
        "type": "t_array(t_uint256)dyn_storage"
      },
      {
        "astId": 9577,
        "contract": "contracts/BullaFactoring.sol:BullaFactoringV2",
        "label": "impairments",
        "offset": 0,
        "slot": "32",
        "type": "t_mapping(t_uint256,t_struct(ImpairmentDetails)13889_storage)"
      },
      {
        "astId": 9583,
        "contract": "contracts/BullaFactoring.sol:BullaFactoringV2",
        "label": "pendingLoanOffersByLoanOfferId",
        "offset": 0,
        "slot": "33",
        "type": "t_mapping(t_uint256,t_struct(PendingLoanOfferInfo)13830_storage)"
      },
      {
        "astId": 9587,
        "contract": "contracts/BullaFactoring.sol:BullaFactoringV2",
        "label": "pendingLoanOffersIds",
        "offset": 0,
        "slot": "34",
        "type": "t_array(t_uint256)dyn_storage"
      }
    ],
    "types": {
      "t_address": {
        "encoding": "inplace",
        "label": "address",
        "numberOfBytes": "20"
      },
      "t_array(t_uint256)dyn_storage": {
        "base": "t_uint256",
        "encoding": "dynamic_array",
        "label": "uint256[]",
        "numberOfBytes": "32"
      },
      "t_bool": {
        "encoding": "inplace",
        "label": "bool",
        "numberOfBytes": "1"
      },
      "t_contract(IBullaFrendLend)667": {
        "encoding": "inplace",
        "label": "contract IBullaFrendLend",
        "numberOfBytes": "20"
      },
      "t_contract(IERC20)4526": {
        "encoding": "inplace",
        "label": "contract IERC20",
        "numberOfBytes": "20"
      },
      "t_contract(IInvoiceProviderAdapterV2)14245": {
        "encoding": "inplace",
        "label": "contract IInvoiceProviderAdapterV2",
        "numberOfBytes": "20"
      },
      "t_contract(Permissions)13688": {
        "encoding": "inplace",
        "label": "contract Permissions",
        "numberOfBytes": "20"
      },
      "t_mapping(t_address,t_mapping(t_address,t_uint256))": {
        "encoding": "mapping",
        "key": "t_address",
        "label": "mapping(address => mapping(address => uint256))",
        "numberOfBytes": "32",
        "value": "t_mapping(t_address,t_uint256)"
      },
      "t_mapping(t_address,t_uint256)": {
        "encoding": "mapping",
        "key": "t_address",
        "label": "mapping(address => uint256)",
        "numberOfBytes": "32",
        "value": "t_uint256"
      },
      "t_mapping(t_uint256,t_address)": {
        "encoding": "mapping",
        "key": "t_uint256",
        "label": "mapping(uint256 => address)",
        "numberOfBytes": "32",
        "value": "t_address"
      },
      "t_mapping(t_uint256,t_struct(ImpairmentDetails)13889_storage)": {
        "encoding": "mapping",
        "key": "t_uint256",
        "label": "mapping(uint256 => struct IBullaFactoringV2.ImpairmentDetails)",
        "numberOfBytes": "32",
        "value": "t_struct(ImpairmentDetails)13889_storage"
      },
      "t_mapping(t_uint256,t_struct(InvoiceApproval)13854_storage)": {
        "encoding": "mapping",
        "key": "t_uint256",
        "label": "mapping(uint256 => struct IBullaFactoringV2.InvoiceApproval)",
        "numberOfBytes": "32",
        "value": "t_struct(InvoiceApproval)13854_storage"
      },
      "t_mapping(t_uint256,t_struct(PendingLoanOfferInfo)13830_storage)": {
        "encoding": "mapping",
        "key": "t_uint256",
        "label": "mapping(uint256 => struct IBullaFactoringV2.PendingLoanOfferInfo)",
        "numberOfBytes": "32",
        "value": "t_struct(PendingLoanOfferInfo)13830_storage"
      },
      "t_mapping(t_uint256,t_uint256)": {
        "encoding": "mapping",
        "key": "t_uint256",
        "label": "mapping(uint256 => uint256)",
        "numberOfBytes": "32",
        "value": "t_uint256"
      },
      "t_string_storage": {
        "encoding": "bytes",
        "label": "string",
        "numberOfBytes": "32"
      },
      "t_struct(FeeParams)13818_storage": {
        "encoding": "inplace",
        "label": "struct IBullaFactoringV2.FeeParams",
        "members": [
          {
            "astId": 13807,
            "contract": "contracts/BullaFactoring.sol:BullaFactoringV2",
            "label": "targetYieldBps",
            "offset": 0,
            "slot": "0",
            "type": "t_uint16"
          },
          {
            "astId": 13809,
            "contract": "contracts/BullaFactoring.sol:BullaFactoringV2",
            "label": "spreadBps",
            "offset": 2,
            "slot": "0",
            "type": "t_uint16"
          },
          {
            "astId": 13811,
            "contract": "contracts/BullaFactoring.sol:BullaFactoringV2",
            "label": "upfrontBps",
            "offset": 4,
            "slot": "0",
            "type": "t_uint16"
          },
          {
            "astId": 13813,
            "contract": "contracts/BullaFactoring.sol:BullaFactoringV2",
            "label": "protocolFeeBps",
            "offset": 6,
            "slot": "0",
            "type": "t_uint16"
          },
          {
            "astId": 13815,
            "contract": "contracts/BullaFactoring.sol:BullaFactoringV2",
            "label": "adminFeeBps",
            "offset": 8,
            "slot": "0",
            "type": "t_uint16"
          },
          {
            "astId": 13817,
            "contract": "contracts/BullaFactoring.sol:BullaFactoringV2",
            "label": "minDaysInterestApplied",
            "offset": 10,
            "slot": "0",
            "type": "t_uint16"
          }
        ],
        "numberOfBytes": "32"
      },
      "t_struct(ImpairmentDetails)13889_storage": {
        "encoding": "inplace",
        "label": "struct IBullaFactoringV2.ImpairmentDetails",
        "members": [
          {
            "astId": 13884,
            "contract": "contracts/BullaFactoring.sol:BullaFactoringV2",
            "label": "gainAmount",
            "offset": 0,
            "slot": "0",
            "type": "t_uint256"
          },
          {
            "astId": 13886,
            "contract": "contracts/BullaFactoring.sol:BullaFactoringV2",
            "label": "lossAmount",
            "offset": 0,
            "slot": "1",
            "type": "t_uint256"
          },
          {
            "astId": 13888,
            "contract": "contracts/BullaFactoring.sol:BullaFactoringV2",
            "label": "isImpaired",
            "offset": 0,
            "slot": "2",
            "type": "t_bool"
          }
        ],
        "numberOfBytes": "96"
      },
      "t_struct(InvoiceApproval)13854_storage": {
        "encoding": "inplace",
        "label": "struct IBullaFactoringV2.InvoiceApproval",
        "members": [
          {
            "astId": 13832,
            "contract": "contracts/BullaFactoring.sol:BullaFactoringV2",
            "label": "approved",
            "offset": 0,
            "slot": "0",
            "type": "t_bool"
          },
          {
            "astId": 13834,
            "contract": "contracts/BullaFactoring.sol:BullaFactoringV2",
            "label": "creditor",
            "offset": 1,
            "slot": "0",
            "type": "t_address"
          },
          {
            "astId": 13836,
            "contract": "contracts/BullaFactoring.sol:BullaFactoringV2",
            "label": "validUntil",
            "offset": 0,
            "slot": "1",
            "type": "t_uint256"
          },
          {
            "astId": 13838,
            "contract": "contracts/BullaFactoring.sol:BullaFactoringV2",
            "label": "invoiceDueDate",
            "offset": 0,
            "slot": "2",
            "type": "t_uint256"
          },
          {
            "astId": 13840,
            "contract": "contracts/BullaFactoring.sol:BullaFactoringV2",
            "label": "fundedTimestamp",
            "offset": 0,
            "slot": "3",
            "type": "t_uint256"
          },
          {
            "astId": 13843,
            "contract": "contracts/BullaFactoring.sol:BullaFactoringV2",
            "label": "feeParams",
            "offset": 0,
            "slot": "4",
            "type": "t_struct(FeeParams)13818_storage"
          },
          {
            "astId": 13845,
            "contract": "contracts/BullaFactoring.sol:BullaFactoringV2",
            "label": "fundedAmountGross",
            "offset": 0,
            "slot": "5",
            "type": "t_uint256"
          },
          {
            "astId": 13847,
            "contract": "contracts/BullaFactoring.sol:BullaFactoringV2",
            "label": "fundedAmountNet",
            "offset": 0,
            "slot": "6",
            "type": "t_uint256"
          },
          {
            "astId": 13849,
            "contract": "contracts/BullaFactoring.sol:BullaFactoringV2",
            "label": "initialFullInvoiceAmount",
            "offset": 0,
            "slot": "7",
            "type": "t_uint256"
          },
          {
            "astId": 13851,
            "contract": "contracts/BullaFactoring.sol:BullaFactoringV2",
            "label": "initialPaidAmount",
            "offset": 0,
            "slot": "8",
            "type": "t_uint256"
          },
          {
            "astId": 13853,
            "contract": "contracts/BullaFactoring.sol:BullaFactoringV2",
            "label": "receiverAddress",
            "offset": 0,
            "slot": "9",
            "type": "t_address"
          }
        ],
        "numberOfBytes": "320"
      },
      "t_struct(PendingLoanOfferInfo)13830_storage": {
        "encoding": "inplace",
        "label": "struct IBullaFactoringV2.PendingLoanOfferInfo",
        "members": [
          {
            "astId": 13820,
            "contract": "contracts/BullaFactoring.sol:BullaFactoringV2",
            "label": "exists",
            "offset": 0,
            "slot": "0",
            "type": "t_bool"
          },
          {
            "astId": 13822,
            "contract": "contracts/BullaFactoring.sol:BullaFactoringV2",
            "label": "offeredAt",
            "offset": 0,
            "slot": "1",
            "type": "t_uint256"
          },
          {
            "astId": 13824,
            "contract": "contracts/BullaFactoring.sol:BullaFactoringV2",
            "label": "principalAmount",
            "offset": 0,
            "slot": "2",
            "type": "t_uint256"
          },
          {
            "astId": 13826,
            "contract": "contracts/BullaFactoring.sol:BullaFactoringV2",
            "label": "termLength",
            "offset": 0,
            "slot": "3",
            "type": "t_uint256"
          },
          {
            "astId": 13829,
            "contract": "contracts/BullaFactoring.sol:BullaFactoringV2",
            "label": "feeParams",
            "offset": 0,
            "slot": "4",
            "type": "t_struct(FeeParams)13818_storage"
          }
        ],
        "numberOfBytes": "160"
      },
      "t_uint16": {
        "encoding": "inplace",
        "label": "uint16",
        "numberOfBytes": "2"
      },
      "t_uint256": {
        "encoding": "inplace",
        "label": "uint256",
        "numberOfBytes": "32"
      }
    }
  }
}