{
  "address": "0xDF0fCe31285dcAB9124bF763AB9E5466723BeF35",
  "abi": [
    {
      "inputs": [
        {
          "internalType": "contract IERC20",
          "name": "_asset",
          "type": "address"
        },
        {
          "internalType": "contract IInvoiceProviderAdapter",
          "name": "_invoiceProviderAdapter",
          "type": "address"
        },
        {
          "internalType": "address",
          "name": "_underwriter",
          "type": "address"
        },
        {
          "internalType": "contract Permissions",
          "name": "_depositPermissions",
          "type": "address"
        },
        {
          "internalType": "contract Permissions",
          "name": "_factoringPermissions",
          "type": "address"
        },
        {
          "internalType": "address",
          "name": "_bullaDao",
          "type": "address"
        },
        {
          "internalType": "uint16",
          "name": "_protocolFeeBps",
          "type": "uint16"
        },
        {
          "internalType": "uint16",
          "name": "_adminFeeBps",
          "type": "uint16"
        },
        {
          "internalType": "string",
          "name": "_poolName",
          "type": "string"
        },
        {
          "internalType": "uint16",
          "name": "_taxBps",
          "type": "uint16"
        },
        {
          "internalType": "uint16",
          "name": "_targetYieldBps",
          "type": "uint16"
        },
        {
          "internalType": "string",
          "name": "_tokenName",
          "type": "string"
        },
        {
          "internalType": "string",
          "name": "_tokenSymbol",
          "type": "string"
        }
      ],
      "stateMutability": "nonpayable",
      "type": "constructor"
    },
    {
      "inputs": [
        {
          "internalType": "address",
          "name": "target",
          "type": "address"
        }
      ],
      "name": "AddressEmptyCode",
      "type": "error"
    },
    {
      "inputs": [
        {
          "internalType": "address",
          "name": "account",
          "type": "address"
        }
      ],
      "name": "AddressInsufficientBalance",
      "type": "error"
    },
    {
      "inputs": [],
      "name": "ApprovalExpired",
      "type": "error"
    },
    {
      "inputs": [],
      "name": "CallerNotBullaDao",
      "type": "error"
    },
    {
      "inputs": [],
      "name": "CallerNotOriginalCreditor",
      "type": "error"
    },
    {
      "inputs": [],
      "name": "CallerNotUnderwriter",
      "type": "error"
    },
    {
      "inputs": [],
      "name": "DeductionsExceedsRealisedGains",
      "type": "error"
    },
    {
      "inputs": [
        {
          "internalType": "address",
          "name": "spender",
          "type": "address"
        },
        {
          "internalType": "uint256",
          "name": "allowance",
          "type": "uint256"
        },
        {
          "internalType": "uint256",
          "name": "needed",
          "type": "uint256"
        }
      ],
      "name": "ERC20InsufficientAllowance",
      "type": "error"
    },
    {
      "inputs": [
        {
          "internalType": "address",
          "name": "sender",
          "type": "address"
        },
        {
          "internalType": "uint256",
          "name": "balance",
          "type": "uint256"
        },
        {
          "internalType": "uint256",
          "name": "needed",
          "type": "uint256"
        }
      ],
      "name": "ERC20InsufficientBalance",
      "type": "error"
    },
    {
      "inputs": [
        {
          "internalType": "address",
          "name": "approver",
          "type": "address"
        }
      ],
      "name": "ERC20InvalidApprover",
      "type": "error"
    },
    {
      "inputs": [
        {
          "internalType": "address",
          "name": "receiver",
          "type": "address"
        }
      ],
      "name": "ERC20InvalidReceiver",
      "type": "error"
    },
    {
      "inputs": [
        {
          "internalType": "address",
          "name": "sender",
          "type": "address"
        }
      ],
      "name": "ERC20InvalidSender",
      "type": "error"
    },
    {
      "inputs": [
        {
          "internalType": "address",
          "name": "spender",
          "type": "address"
        }
      ],
      "name": "ERC20InvalidSpender",
      "type": "error"
    },
    {
      "inputs": [
        {
          "internalType": "address",
          "name": "receiver",
          "type": "address"
        },
        {
          "internalType": "uint256",
          "name": "assets",
          "type": "uint256"
        },
        {
          "internalType": "uint256",
          "name": "max",
          "type": "uint256"
        }
      ],
      "name": "ERC4626ExceededMaxDeposit",
      "type": "error"
    },
    {
      "inputs": [
        {
          "internalType": "address",
          "name": "receiver",
          "type": "address"
        },
        {
          "internalType": "uint256",
          "name": "shares",
          "type": "uint256"
        },
        {
          "internalType": "uint256",
          "name": "max",
          "type": "uint256"
        }
      ],
      "name": "ERC4626ExceededMaxMint",
      "type": "error"
    },
    {
      "inputs": [
        {
          "internalType": "address",
          "name": "owner",
          "type": "address"
        },
        {
          "internalType": "uint256",
          "name": "shares",
          "type": "uint256"
        },
        {
          "internalType": "uint256",
          "name": "max",
          "type": "uint256"
        }
      ],
      "name": "ERC4626ExceededMaxRedeem",
      "type": "error"
    },
    {
      "inputs": [
        {
          "internalType": "address",
          "name": "owner",
          "type": "address"
        },
        {
          "internalType": "uint256",
          "name": "assets",
          "type": "uint256"
        },
        {
          "internalType": "uint256",
          "name": "max",
          "type": "uint256"
        }
      ],
      "name": "ERC4626ExceededMaxWithdraw",
      "type": "error"
    },
    {
      "inputs": [],
      "name": "FailedInnerCall",
      "type": "error"
    },
    {
      "inputs": [],
      "name": "FunctionNotSupported",
      "type": "error"
    },
    {
      "inputs": [],
      "name": "ImpairReserveMustBeGreater",
      "type": "error"
    },
    {
      "inputs": [],
      "name": "ImpairReserveNotSet",
      "type": "error"
    },
    {
      "inputs": [],
      "name": "InvalidAddress",
      "type": "error"
    },
    {
      "inputs": [],
      "name": "InvalidPercentage",
      "type": "error"
    },
    {
      "inputs": [],
      "name": "InvoiceAlreadyFunded",
      "type": "error"
    },
    {
      "inputs": [],
      "name": "InvoiceAlreadyImpairedByFund",
      "type": "error"
    },
    {
      "inputs": [],
      "name": "InvoiceAlreadyPaid",
      "type": "error"
    },
    {
      "inputs": [],
      "name": "InvoiceCanceled",
      "type": "error"
    },
    {
      "inputs": [],
      "name": "InvoiceCannotBePaid",
      "type": "error"
    },
    {
      "inputs": [],
      "name": "InvoiceCreditorChanged",
      "type": "error"
    },
    {
      "inputs": [],
      "name": "InvoiceNotApproved",
      "type": "error"
    },
    {
      "inputs": [],
      "name": "InvoiceNotImpaired",
      "type": "error"
    },
    {
      "inputs": [],
      "name": "InvoicePaidAmountChanged",
      "type": "error"
    },
    {
      "inputs": [],
      "name": "InvoiceTokenMismatch",
      "type": "error"
    },
    {
      "inputs": [],
      "name": "MathOverflowedMulDiv",
      "type": "error"
    },
    {
      "inputs": [],
      "name": "NoFeesToWithdraw",
      "type": "error"
    },
    {
      "inputs": [],
      "name": "NoTaxBalanceToWithdraw",
      "type": "error"
    },
    {
      "inputs": [
        {
          "internalType": "address",
          "name": "owner",
          "type": "address"
        }
      ],
      "name": "OwnableInvalidOwner",
      "type": "error"
    },
    {
      "inputs": [
        {
          "internalType": "address",
          "name": "account",
          "type": "address"
        }
      ],
      "name": "OwnableUnauthorizedAccount",
      "type": "error"
    },
    {
      "inputs": [
        {
          "internalType": "address",
          "name": "token",
          "type": "address"
        }
      ],
      "name": "SafeERC20FailedOperation",
      "type": "error"
    },
    {
      "inputs": [
        {
          "internalType": "address",
          "name": "caller",
          "type": "address"
        }
      ],
      "name": "UnauthorizedDeposit",
      "type": "error"
    },
    {
      "inputs": [
        {
          "internalType": "address",
          "name": "caller",
          "type": "address"
        }
      ],
      "name": "UnauthorizedFactoring",
      "type": "error"
    },
    {
      "inputs": [],
      "name": "UnpaidInvoice",
      "type": "error"
    },
    {
      "anonymous": false,
      "inputs": [
        {
          "indexed": false,
          "internalType": "uint256[]",
          "name": "paidInvoiceIds",
          "type": "uint256[]"
        }
      ],
      "name": "ActivePaidInvoicesReconciled",
      "type": "event"
    },
    {
      "anonymous": false,
      "inputs": [
        {
          "indexed": true,
          "internalType": "uint16",
          "name": "oldFeeBps",
          "type": "uint16"
        },
        {
          "indexed": true,
          "internalType": "uint16",
          "name": "newFeeBps",
          "type": "uint16"
        }
      ],
      "name": "AdminFeeBpsChanged",
      "type": "event"
    },
    {
      "anonymous": false,
      "inputs": [
        {
          "indexed": true,
          "internalType": "address",
          "name": "bullaDao",
          "type": "address"
        },
        {
          "indexed": false,
          "internalType": "uint256",
          "name": "amount",
          "type": "uint256"
        }
      ],
      "name": "AdminFeesWithdrawn",
      "type": "event"
    },
    {
      "anonymous": false,
      "inputs": [
        {
          "indexed": true,
          "internalType": "address",
          "name": "owner",
          "type": "address"
        },
        {
          "indexed": true,
          "internalType": "address",
          "name": "spender",
          "type": "address"
        },
        {
          "indexed": false,
          "internalType": "uint256",
          "name": "value",
          "type": "uint256"
        }
      ],
      "name": "Approval",
      "type": "event"
    },
    {
      "anonymous": false,
      "inputs": [
        {
          "indexed": false,
          "internalType": "uint256",
          "name": "newDuration",
          "type": "uint256"
        }
      ],
      "name": "ApprovalDurationChanged",
      "type": "event"
    },
    {
      "anonymous": false,
      "inputs": [
        {
          "indexed": true,
          "internalType": "address",
          "name": "oldAddress",
          "type": "address"
        },
        {
          "indexed": true,
          "internalType": "address",
          "name": "newAddress",
          "type": "address"
        }
      ],
      "name": "BullaDaoAddressChanged",
      "type": "event"
    },
    {
      "anonymous": false,
      "inputs": [
        {
          "indexed": true,
          "internalType": "address",
          "name": "sender",
          "type": "address"
        },
        {
          "indexed": true,
          "internalType": "address",
          "name": "owner",
          "type": "address"
        },
        {
          "indexed": false,
          "internalType": "uint256",
          "name": "assets",
          "type": "uint256"
        },
        {
          "indexed": false,
          "internalType": "uint256",
          "name": "shares",
          "type": "uint256"
        }
      ],
      "name": "Deposit",
      "type": "event"
    },
    {
      "anonymous": false,
      "inputs": [
        {
          "indexed": true,
          "internalType": "address",
          "name": "depositor",
          "type": "address"
        },
        {
          "indexed": false,
          "internalType": "uint256",
          "name": "assets",
          "type": "uint256"
        },
        {
          "indexed": false,
          "internalType": "uint256",
          "name": "shares",
          "type": "uint256"
        },
        {
          "components": [
            {
              "internalType": "bytes32",
              "name": "hash",
              "type": "bytes32"
            },
            {
              "internalType": "uint8",
              "name": "hashFunction",
              "type": "uint8"
            },
            {
              "internalType": "uint8",
              "name": "size",
              "type": "uint8"
            }
          ],
          "indexed": false,
          "internalType": "struct IBullaFactoring.Multihash",
          "name": "attachment",
          "type": "tuple"
        }
      ],
      "name": "DepositMadeWithAttachment",
      "type": "event"
    },
    {
      "anonymous": false,
      "inputs": [
        {
          "indexed": false,
          "internalType": "address",
          "name": "newAddress",
          "type": "address"
        }
      ],
      "name": "DepositPermissionsChanged",
      "type": "event"
    },
    {
      "anonymous": false,
      "inputs": [
        {
          "indexed": false,
          "internalType": "address",
          "name": "newAddress",
          "type": "address"
        }
      ],
      "name": "FactoringPermissionsChanged",
      "type": "event"
    },
    {
      "anonymous": false,
      "inputs": [
        {
          "indexed": false,
          "internalType": "uint256",
          "name": "newGracePeriodDays",
          "type": "uint256"
        }
      ],
      "name": "GracePeriodDaysChanged",
      "type": "event"
    },
    {
      "anonymous": false,
      "inputs": [
        {
          "indexed": false,
          "internalType": "uint256",
          "name": "newImpairReserve",
          "type": "uint256"
        }
      ],
      "name": "ImpairReserveChanged",
      "type": "event"
    },
    {
      "anonymous": false,
      "inputs": [
        {
          "indexed": true,
          "internalType": "uint256",
          "name": "invoiceId",
          "type": "uint256"
        },
        {
          "indexed": false,
          "internalType": "uint16",
          "name": "interestApr",
          "type": "uint16"
        },
        {
          "indexed": false,
          "internalType": "uint16",
          "name": "upfrontBps",
          "type": "uint16"
        },
        {
          "indexed": false,
          "internalType": "uint256",
          "name": "validUntil",
          "type": "uint256"
        },
        {
          "indexed": false,
          "internalType": "uint16",
          "name": "minDays",
          "type": "uint16"
        }
      ],
      "name": "InvoiceApproved",
      "type": "event"
    },
    {
      "anonymous": false,
      "inputs": [
        {
          "indexed": true,
          "internalType": "uint256",
          "name": "invoiceId",
          "type": "uint256"
        },
        {
          "indexed": false,
          "internalType": "uint256",
          "name": "fundedAmount",
          "type": "uint256"
        },
        {
          "indexed": true,
          "internalType": "address",
          "name": "originalCreditor",
          "type": "address"
        }
      ],
      "name": "InvoiceFunded",
      "type": "event"
    },
    {
      "anonymous": false,
      "inputs": [
        {
          "indexed": true,
          "internalType": "uint256",
          "name": "invoiceId",
          "type": "uint256"
        },
        {
          "indexed": false,
          "internalType": "uint256",
          "name": "lossAmount",
          "type": "uint256"
        },
        {
          "indexed": false,
          "internalType": "uint256",
          "name": "gainAmount",
          "type": "uint256"
        }
      ],
      "name": "InvoiceImpaired",
      "type": "event"
    },
    {
      "anonymous": false,
      "inputs": [
        {
          "indexed": true,
          "internalType": "uint256",
          "name": "invoiceId",
          "type": "uint256"
        },
        {
          "indexed": false,
          "internalType": "uint256",
          "name": "kickbackAmount",
          "type": "uint256"
        },
        {
          "indexed": true,
          "internalType": "address",
          "name": "originalCreditor",
          "type": "address"
        }
      ],
      "name": "InvoiceKickbackAmountSent",
      "type": "event"
    },
    {
      "anonymous": false,
      "inputs": [
        {
          "indexed": true,
          "internalType": "uint256",
          "name": "invoiceId",
          "type": "uint256"
        },
        {
          "indexed": false,
          "internalType": "uint256",
          "name": "trueInterest",
          "type": "uint256"
        },
        {
          "indexed": false,
          "internalType": "uint256",
          "name": "trueProtocolFee",
          "type": "uint256"
        },
        {
          "indexed": false,
          "internalType": "uint256",
          "name": "adminFee",
          "type": "uint256"
        },
        {
          "indexed": false,
          "internalType": "uint256",
          "name": "fundedAmountNet",
          "type": "uint256"
        },
        {
          "indexed": false,
          "internalType": "uint256",
          "name": "kickbackAmount",
          "type": "uint256"
        },
        {
          "indexed": true,
          "internalType": "address",
          "name": "originalCreditor",
          "type": "address"
        }
      ],
      "name": "InvoicePaid",
      "type": "event"
    },
    {
      "anonymous": false,
      "inputs": [
        {
          "indexed": true,
          "internalType": "uint256",
          "name": "invoiceId",
          "type": "uint256"
        },
        {
          "indexed": false,
          "internalType": "address",
          "name": "originalCreditor",
          "type": "address"
        },
        {
          "indexed": false,
          "internalType": "int256",
          "name": "totalRefundOrPaymentAmount",
          "type": "int256"
        },
        {
          "indexed": false,
          "internalType": "uint256",
          "name": "interestToCharge",
          "type": "uint256"
        }
      ],
      "name": "InvoiceUnfactored",
      "type": "event"
    },
    {
      "anonymous": false,
      "inputs": [
        {
          "indexed": true,
          "internalType": "address",
          "name": "previousOwner",
          "type": "address"
        },
        {
          "indexed": true,
          "internalType": "address",
          "name": "newOwner",
          "type": "address"
        }
      ],
      "name": "OwnershipTransferred",
      "type": "event"
    },
    {
      "anonymous": false,
      "inputs": [
        {
          "indexed": false,
          "internalType": "uint16",
          "name": "oldProtocolFeeBps",
          "type": "uint16"
        },
        {
          "indexed": false,
          "internalType": "uint16",
          "name": "newProtocolFeeBps",
          "type": "uint16"
        }
      ],
      "name": "ProtocolFeeBpsChanged",
      "type": "event"
    },
    {
      "anonymous": false,
      "inputs": [
        {
          "indexed": true,
          "internalType": "address",
          "name": "bullaDao",
          "type": "address"
        },
        {
          "indexed": false,
          "internalType": "uint256",
          "name": "amount",
          "type": "uint256"
        }
      ],
      "name": "ProtocolFeesWithdrawn",
      "type": "event"
    },
    {
      "anonymous": false,
      "inputs": [
        {
          "indexed": true,
          "internalType": "address",
          "name": "redeemer",
          "type": "address"
        },
        {
          "indexed": false,
          "internalType": "uint256",
          "name": "shares",
          "type": "uint256"
        },
        {
          "indexed": false,
          "internalType": "uint256",
          "name": "assets",
          "type": "uint256"
        },
        {
          "components": [
            {
              "internalType": "bytes32",
              "name": "hash",
              "type": "bytes32"
            },
            {
              "internalType": "uint8",
              "name": "hashFunction",
              "type": "uint8"
            },
            {
              "internalType": "uint8",
              "name": "size",
              "type": "uint8"
            }
          ],
          "indexed": false,
          "internalType": "struct IBullaFactoring.Multihash",
          "name": "attachment",
          "type": "tuple"
        }
      ],
      "name": "SharesRedeemedWithAttachment",
      "type": "event"
    },
    {
      "anonymous": false,
      "inputs": [
        {
          "indexed": false,
          "internalType": "uint16",
          "name": "newTargetYield",
          "type": "uint16"
        }
      ],
      "name": "TargetYieldChanged",
      "type": "event"
    },
    {
      "anonymous": false,
      "inputs": [
        {
          "indexed": true,
          "internalType": "address",
          "name": "receiver",
          "type": "address"
        },
        {
          "indexed": false,
          "internalType": "uint256",
          "name": "amount",
          "type": "uint256"
        }
      ],
      "name": "TaxBalanceWithdrawn",
      "type": "event"
    },
    {
      "anonymous": false,
      "inputs": [
        {
          "indexed": true,
          "internalType": "uint16",
          "name": "oldTaxBps",
          "type": "uint16"
        },
        {
          "indexed": true,
          "internalType": "uint256",
          "name": "newTaxBps",
          "type": "uint256"
        }
      ],
      "name": "TaxBpsChanged",
      "type": "event"
    },
    {
      "anonymous": false,
      "inputs": [
        {
          "indexed": true,
          "internalType": "address",
          "name": "from",
          "type": "address"
        },
        {
          "indexed": true,
          "internalType": "address",
          "name": "to",
          "type": "address"
        },
        {
          "indexed": false,
          "internalType": "uint256",
          "name": "value",
          "type": "uint256"
        }
      ],
      "name": "Transfer",
      "type": "event"
    },
    {
      "anonymous": false,
      "inputs": [
        {
          "indexed": true,
          "internalType": "address",
          "name": "oldUnderwriter",
          "type": "address"
        },
        {
          "indexed": true,
          "internalType": "address",
          "name": "newUnderwriter",
          "type": "address"
        }
      ],
      "name": "UnderwriterChanged",
      "type": "event"
    },
    {
      "anonymous": false,
      "inputs": [
        {
          "indexed": true,
          "internalType": "address",
          "name": "sender",
          "type": "address"
        },
        {
          "indexed": true,
          "internalType": "address",
          "name": "receiver",
          "type": "address"
        },
        {
          "indexed": true,
          "internalType": "address",
          "name": "owner",
          "type": "address"
        },
        {
          "indexed": false,
          "internalType": "uint256",
          "name": "assets",
          "type": "uint256"
        },
        {
          "indexed": false,
          "internalType": "uint256",
          "name": "shares",
          "type": "uint256"
        }
      ],
      "name": "Withdraw",
      "type": "event"
    },
    {
      "inputs": [
        {
          "internalType": "uint256",
          "name": "",
          "type": "uint256"
        }
      ],
      "name": "activeInvoices",
      "outputs": [
        {
          "internalType": "uint256",
          "name": "",
          "type": "uint256"
        }
      ],
      "stateMutability": "view",
      "type": "function"
    },
    {
      "inputs": [],
      "name": "adminFeeBalance",
      "outputs": [
        {
          "internalType": "uint256",
          "name": "",
          "type": "uint256"
        }
      ],
      "stateMutability": "view",
      "type": "function"
    },
    {
      "inputs": [],
      "name": "adminFeeBps",
      "outputs": [
        {
          "internalType": "uint16",
          "name": "",
          "type": "uint16"
        }
      ],
      "stateMutability": "view",
      "type": "function"
    },
    {
      "inputs": [
        {
          "internalType": "address",
          "name": "owner",
          "type": "address"
        },
        {
          "internalType": "address",
          "name": "spender",
          "type": "address"
        }
      ],
      "name": "allowance",
      "outputs": [
        {
          "internalType": "uint256",
          "name": "",
          "type": "uint256"
        }
      ],
      "stateMutability": "view",
      "type": "function"
    },
    {
      "inputs": [],
      "name": "approvalDuration",
      "outputs": [
        {
          "internalType": "uint256",
          "name": "",
          "type": "uint256"
        }
      ],
      "stateMutability": "view",
      "type": "function"
    },
    {
      "inputs": [
        {
          "internalType": "address",
          "name": "spender",
          "type": "address"
        },
        {
          "internalType": "uint256",
          "name": "value",
          "type": "uint256"
        }
      ],
      "name": "approve",
      "outputs": [
        {
          "internalType": "bool",
          "name": "",
          "type": "bool"
        }
      ],
      "stateMutability": "nonpayable",
      "type": "function"
    },
    {
      "inputs": [
        {
          "internalType": "uint256",
          "name": "invoiceId",
          "type": "uint256"
        },
        {
          "internalType": "uint16",
          "name": "_interestApr",
          "type": "uint16"
        },
        {
          "internalType": "uint16",
          "name": "_upfrontBps",
          "type": "uint16"
        },
        {
          "internalType": "uint16",
          "name": "minDaysInterestApplied",
          "type": "uint16"
        }
      ],
      "name": "approveInvoice",
      "outputs": [],
      "stateMutability": "nonpayable",
      "type": "function"
    },
    {
      "inputs": [
        {
          "internalType": "uint256",
          "name": "",
          "type": "uint256"
        }
      ],
      "name": "approvedInvoices",
      "outputs": [
        {
          "internalType": "bool",
          "name": "approved",
          "type": "bool"
        },
        {
          "components": [
            {
              "internalType": "uint256",
              "name": "faceValue",
              "type": "uint256"
            },
            {
              "internalType": "address",
              "name": "creditor",
              "type": "address"
            },
            {
              "internalType": "address",
              "name": "debtor",
              "type": "address"
            },
            {
              "internalType": "uint256",
              "name": "dueDate",
              "type": "uint256"
            },
            {
              "internalType": "address",
              "name": "tokenAddress",
              "type": "address"
            },
            {
              "internalType": "uint256",
              "name": "paidAmount",
              "type": "uint256"
            },
            {
              "internalType": "bool",
              "name": "isCanceled",
              "type": "bool"
            }
          ],
          "internalType": "struct IInvoiceProviderAdapter.Invoice",
          "name": "invoiceSnapshot",
          "type": "tuple"
        },
        {
          "internalType": "uint256",
          "name": "validUntil",
          "type": "uint256"
        },
        {
          "internalType": "uint256",
          "name": "fundedTimestamp",
          "type": "uint256"
        },
        {
          "internalType": "uint16",
          "name": "interestApr",
          "type": "uint16"
        },
        {
          "internalType": "uint16",
          "name": "upfrontBps",
          "type": "uint16"
        },
        {
          "internalType": "uint256",
          "name": "fundedAmountGross",
          "type": "uint256"
        },
        {
          "internalType": "uint256",
          "name": "fundedAmountNet",
          "type": "uint256"
        },
        {
          "internalType": "uint16",
          "name": "minDaysInterestApplied",
          "type": "uint16"
        },
        {
          "internalType": "uint256",
          "name": "trueFaceValue",
          "type": "uint256"
        },
        {
          "internalType": "uint16",
          "name": "protocolFeeBps",
          "type": "uint16"
        },
        {
          "internalType": "uint16",
          "name": "adminFeeBps",
          "type": "uint16"
        }
      ],
      "stateMutability": "view",
      "type": "function"
    },
    {
      "inputs": [],
      "name": "asset",
      "outputs": [
        {
          "internalType": "address",
          "name": "",
          "type": "address"
        }
      ],
      "stateMutability": "view",
      "type": "function"
    },
    {
      "inputs": [],
      "name": "assetAddress",
      "outputs": [
        {
          "internalType": "contract IERC20",
          "name": "",
          "type": "address"
        }
      ],
      "stateMutability": "view",
      "type": "function"
    },
    {
      "inputs": [
        {
          "internalType": "address",
          "name": "account",
          "type": "address"
        }
      ],
      "name": "balanceOf",
      "outputs": [
        {
          "internalType": "uint256",
          "name": "",
          "type": "uint256"
        }
      ],
      "stateMutability": "view",
      "type": "function"
    },
    {
      "inputs": [],
      "name": "bullaDao",
      "outputs": [
        {
          "internalType": "address",
          "name": "",
          "type": "address"
        }
      ],
      "stateMutability": "view",
      "type": "function"
    },
    {
      "inputs": [],
      "name": "calculateAccruedProfits",
      "outputs": [
        {
          "internalType": "uint256",
          "name": "accruedProfits",
          "type": "uint256"
        }
      ],
      "stateMutability": "view",
      "type": "function"
    },
    {
      "inputs": [],
      "name": "calculateCapitalAccount",
      "outputs": [
        {
          "internalType": "uint256",
          "name": "",
          "type": "uint256"
        }
      ],
      "stateMutability": "view",
      "type": "function"
    },
    {
      "inputs": [
        {
          "internalType": "uint256",
          "name": "invoiceId",
          "type": "uint256"
        }
      ],
      "name": "calculateKickbackAmount",
      "outputs": [
        {
          "internalType": "uint256",
          "name": "kickbackAmount",
          "type": "uint256"
        },
        {
          "internalType": "uint256",
          "name": "trueInterest",
          "type": "uint256"
        },
        {
          "internalType": "uint256",
          "name": "trueProtocolFee",
          "type": "uint256"
        },
        {
          "internalType": "uint256",
          "name": "trueAdminFee",
          "type": "uint256"
        }
      ],
      "stateMutability": "view",
      "type": "function"
    },
    {
      "inputs": [],
      "name": "calculateRealizedGainLoss",
      "outputs": [
        {
          "internalType": "int256",
          "name": "",
          "type": "int256"
        }
      ],
      "stateMutability": "view",
      "type": "function"
    },
    {
      "inputs": [
        {
          "internalType": "uint256",
          "name": "invoiceId",
          "type": "uint256"
        },
        {
          "internalType": "uint16",
          "name": "factorerUpfrontBps",
          "type": "uint16"
        }
      ],
      "name": "calculateTargetFees",
      "outputs": [
        {
          "internalType": "uint256",
          "name": "fundedAmountGross",
          "type": "uint256"
        },
        {
          "internalType": "uint256",
          "name": "adminFee",
          "type": "uint256"
        },
        {
          "internalType": "uint256",
          "name": "targetInterest",
          "type": "uint256"
        },
        {
          "internalType": "uint256",
          "name": "targetProtocolFee",
          "type": "uint256"
        },
        {
          "internalType": "uint256",
          "name": "netFundedAmount",
          "type": "uint256"
        }
      ],
      "stateMutability": "view",
      "type": "function"
    },
    {
      "inputs": [
        {
          "internalType": "uint256",
          "name": "shares",
          "type": "uint256"
        }
      ],
      "name": "convertToAssets",
      "outputs": [
        {
          "internalType": "uint256",
          "name": "",
          "type": "uint256"
        }
      ],
      "stateMutability": "view",
      "type": "function"
    },
    {
      "inputs": [
        {
          "internalType": "uint256",
          "name": "assets",
          "type": "uint256"
        }
      ],
      "name": "convertToShares",
      "outputs": [
        {
          "internalType": "uint256",
          "name": "",
          "type": "uint256"
        }
      ],
      "stateMutability": "view",
      "type": "function"
    },
    {
      "inputs": [],
      "name": "creationTimestamp",
      "outputs": [
        {
          "internalType": "uint256",
          "name": "",
          "type": "uint256"
        }
      ],
      "stateMutability": "view",
      "type": "function"
    },
    {
      "inputs": [],
      "name": "decimals",
      "outputs": [
        {
          "internalType": "uint8",
          "name": "",
          "type": "uint8"
        }
      ],
      "stateMutability": "view",
      "type": "function"
    },
    {
      "inputs": [],
      "name": "deployedCapitalForActiveInvoicesExcludingImpaired",
      "outputs": [
        {
          "internalType": "uint256",
          "name": "",
          "type": "uint256"
        }
      ],
      "stateMutability": "view",
      "type": "function"
    },
    {
      "inputs": [
        {
          "internalType": "uint256",
          "name": "assets",
          "type": "uint256"
        },
        {
          "internalType": "address",
          "name": "receiver",
          "type": "address"
        }
      ],
      "name": "deposit",
      "outputs": [
        {
          "internalType": "uint256",
          "name": "",
          "type": "uint256"
        }
      ],
      "stateMutability": "nonpayable",
      "type": "function"
    },
    {
      "inputs": [],
      "name": "depositPermissions",
      "outputs": [
        {
          "internalType": "contract Permissions",
          "name": "",
          "type": "address"
        }
      ],
      "stateMutability": "view",
      "type": "function"
    },
    {
      "inputs": [
        {
          "internalType": "uint256",
          "name": "assets",
          "type": "uint256"
        },
        {
          "internalType": "address",
          "name": "receiver",
          "type": "address"
        },
        {
          "components": [
            {
              "internalType": "bytes32",
              "name": "hash",
              "type": "bytes32"
            },
            {
              "internalType": "uint8",
              "name": "hashFunction",
              "type": "uint8"
            },
            {
              "internalType": "uint8",
              "name": "size",
              "type": "uint8"
            }
          ],
          "internalType": "struct IBullaFactoring.Multihash",
          "name": "attachment",
          "type": "tuple"
        }
      ],
      "name": "depositWithAttachment",
      "outputs": [
        {
          "internalType": "uint256",
          "name": "",
          "type": "uint256"
        }
      ],
      "stateMutability": "nonpayable",
      "type": "function"
    },
    {
      "inputs": [],
      "name": "factoringPermissions",
      "outputs": [
        {
          "internalType": "contract Permissions",
          "name": "",
          "type": "address"
        }
      ],
      "stateMutability": "view",
      "type": "function"
    },
    {
      "inputs": [
        {
          "internalType": "uint256",
          "name": "invoiceId",
          "type": "uint256"
        },
        {
          "internalType": "uint16",
          "name": "factorerUpfrontBps",
          "type": "uint16"
        }
      ],
      "name": "fundInvoice",
      "outputs": [
        {
          "internalType": "uint256",
          "name": "",
          "type": "uint256"
        }
      ],
      "stateMutability": "nonpayable",
      "type": "function"
    },
    {
      "inputs": [],
      "name": "getFundInfo",
      "outputs": [
        {
          "components": [
            {
              "internalType": "string",
              "name": "name",
              "type": "string"
            },
            {
              "internalType": "uint256",
              "name": "creationTimestamp",
              "type": "uint256"
            },
            {
              "internalType": "uint256",
              "name": "fundBalance",
              "type": "uint256"
            },
            {
              "internalType": "uint256",
              "name": "deployedCapital",
              "type": "uint256"
            },
            {
              "internalType": "uint256",
              "name": "capitalAccount",
              "type": "uint256"
            },
            {
              "internalType": "uint256",
              "name": "price",
              "type": "uint256"
            },
            {
              "internalType": "uint256",
              "name": "tokensAvailableForRedemption",
              "type": "uint256"
            },
            {
              "internalType": "uint16",
              "name": "adminFeeBps",
              "type": "uint16"
            },
            {
              "internalType": "uint256",
              "name": "impairReserve",
              "type": "uint256"
            },
            {
              "internalType": "uint256",
              "name": "targetYieldBps",
              "type": "uint256"
            }
          ],
          "internalType": "struct IBullaFactoring.FundInfo",
          "name": "",
          "type": "tuple"
        }
      ],
      "stateMutability": "view",
      "type": "function"
    },
    {
      "inputs": [
        {
          "internalType": "uint256",
          "name": "invoiceId",
          "type": "uint256"
        }
      ],
      "name": "getFundedAmount",
      "outputs": [
        {
          "internalType": "uint256",
          "name": "",
          "type": "uint256"
        }
      ],
      "stateMutability": "view",
      "type": "function"
    },
    {
      "inputs": [],
      "name": "gracePeriodDays",
      "outputs": [
        {
          "internalType": "uint256",
          "name": "",
          "type": "uint256"
        }
      ],
      "stateMutability": "view",
      "type": "function"
    },
    {
      "inputs": [
        {
          "internalType": "uint256",
          "name": "invoiceId",
          "type": "uint256"
        }
      ],
      "name": "impairInvoice",
      "outputs": [],
      "stateMutability": "nonpayable",
      "type": "function"
    },
    {
      "inputs": [],
      "name": "impairReserve",
      "outputs": [
        {
          "internalType": "uint256",
          "name": "",
          "type": "uint256"
        }
      ],
      "stateMutability": "view",
      "type": "function"
    },
    {
      "inputs": [
        {
          "internalType": "uint256",
          "name": "",
          "type": "uint256"
        }
      ],
      "name": "impairments",
      "outputs": [
        {
          "internalType": "uint256",
          "name": "gainAmount",
          "type": "uint256"
        },
        {
          "internalType": "uint256",
          "name": "lossAmount",
          "type": "uint256"
        },
        {
          "internalType": "bool",
          "name": "isImpaired",
          "type": "bool"
        }
      ],
      "stateMutability": "view",
      "type": "function"
    },
    {
      "inputs": [],
      "name": "invoiceProviderAdapter",
      "outputs": [
        {
          "internalType": "contract IInvoiceProviderAdapter",
          "name": "",
          "type": "address"
        }
      ],
      "stateMutability": "view",
      "type": "function"
    },
    {
      "inputs": [
        {
          "internalType": "address",
          "name": "",
          "type": "address"
        }
      ],
      "name": "maxDeposit",
      "outputs": [
        {
          "internalType": "uint256",
          "name": "",
          "type": "uint256"
        }
      ],
      "stateMutability": "view",
      "type": "function"
    },
    {
      "inputs": [
        {
          "internalType": "address",
          "name": "",
          "type": "address"
        }
      ],
      "name": "maxMint",
      "outputs": [
        {
          "internalType": "uint256",
          "name": "",
          "type": "uint256"
        }
      ],
      "stateMutability": "view",
      "type": "function"
    },
    {
      "inputs": [],
      "name": "maxRedeem",
      "outputs": [
        {
          "internalType": "uint256",
          "name": "",
          "type": "uint256"
        }
      ],
      "stateMutability": "view",
      "type": "function"
    },
    {
      "inputs": [
        {
          "internalType": "address",
          "name": "_owner",
          "type": "address"
        }
      ],
      "name": "maxRedeem",
      "outputs": [
        {
          "internalType": "uint256",
          "name": "",
          "type": "uint256"
        }
      ],
      "stateMutability": "view",
      "type": "function"
    },
    {
      "inputs": [
        {
          "internalType": "address",
          "name": "_owner",
          "type": "address"
        }
      ],
      "name": "maxWithdraw",
      "outputs": [
        {
          "internalType": "uint256",
          "name": "",
          "type": "uint256"
        }
      ],
      "stateMutability": "view",
      "type": "function"
    },
    {
      "inputs": [
        {
          "internalType": "uint256",
          "name": "",
          "type": "uint256"
        },
        {
          "internalType": "address",
          "name": "",
          "type": "address"
        }
      ],
      "name": "mint",
      "outputs": [
        {
          "internalType": "uint256",
          "name": "",
          "type": "uint256"
        }
      ],
      "stateMutability": "pure",
      "type": "function"
    },
    {
      "inputs": [],
      "name": "name",
      "outputs": [
        {
          "internalType": "string",
          "name": "",
          "type": "string"
        }
      ],
      "stateMutability": "view",
      "type": "function"
    },
    {
      "inputs": [
        {
          "internalType": "uint256",
          "name": "",
          "type": "uint256"
        }
      ],
      "name": "originalCreditors",
      "outputs": [
        {
          "internalType": "address",
          "name": "",
          "type": "address"
        }
      ],
      "stateMutability": "view",
      "type": "function"
    },
    {
      "inputs": [],
      "name": "owner",
      "outputs": [
        {
          "internalType": "address",
          "name": "",
          "type": "address"
        }
      ],
      "stateMutability": "view",
      "type": "function"
    },
    {
      "inputs": [
        {
          "internalType": "uint256",
          "name": "",
          "type": "uint256"
        }
      ],
      "name": "paidInvoiceTax",
      "outputs": [
        {
          "internalType": "uint256",
          "name": "",
          "type": "uint256"
        }
      ],
      "stateMutability": "view",
      "type": "function"
    },
    {
      "inputs": [
        {
          "internalType": "uint256",
          "name": "",
          "type": "uint256"
        }
      ],
      "name": "paidInvoicesGain",
      "outputs": [
        {
          "internalType": "uint256",
          "name": "",
          "type": "uint256"
        }
      ],
      "stateMutability": "view",
      "type": "function"
    },
    {
      "inputs": [],
      "name": "poolName",
      "outputs": [
        {
          "internalType": "string",
          "name": "",
          "type": "string"
        }
      ],
      "stateMutability": "view",
      "type": "function"
    },
    {
      "inputs": [
        {
          "internalType": "uint256",
          "name": "assets",
          "type": "uint256"
        }
      ],
      "name": "previewDeposit",
      "outputs": [
        {
          "internalType": "uint256",
          "name": "",
          "type": "uint256"
        }
      ],
      "stateMutability": "view",
      "type": "function"
    },
    {
      "inputs": [
        {
          "internalType": "uint256",
          "name": "shares",
          "type": "uint256"
        }
      ],
      "name": "previewMint",
      "outputs": [
        {
          "internalType": "uint256",
          "name": "",
          "type": "uint256"
        }
      ],
      "stateMutability": "view",
      "type": "function"
    },
    {
      "inputs": [
        {
          "internalType": "uint256",
          "name": "shares",
          "type": "uint256"
        }
      ],
      "name": "previewRedeem",
      "outputs": [
        {
          "internalType": "uint256",
          "name": "",
          "type": "uint256"
        }
      ],
      "stateMutability": "view",
      "type": "function"
    },
    {
      "inputs": [
        {
          "internalType": "uint256",
          "name": "assets",
          "type": "uint256"
        }
      ],
      "name": "previewWithdraw",
      "outputs": [
        {
          "internalType": "uint256",
          "name": "",
          "type": "uint256"
        }
      ],
      "stateMutability": "view",
      "type": "function"
    },
    {
      "inputs": [],
      "name": "pricePerShare",
      "outputs": [
        {
          "internalType": "uint256",
          "name": "",
          "type": "uint256"
        }
      ],
      "stateMutability": "view",
      "type": "function"
    },
    {
      "inputs": [],
      "name": "protocolFeeBalance",
      "outputs": [
        {
          "internalType": "uint256",
          "name": "",
          "type": "uint256"
        }
      ],
      "stateMutability": "view",
      "type": "function"
    },
    {
      "inputs": [],
      "name": "protocolFeeBps",
      "outputs": [
        {
          "internalType": "uint16",
          "name": "",
          "type": "uint16"
        }
      ],
      "stateMutability": "view",
      "type": "function"
    },
    {
      "inputs": [],
      "name": "reconcileActivePaidInvoices",
      "outputs": [],
      "stateMutability": "nonpayable",
      "type": "function"
    },
    {
      "inputs": [
        {
          "internalType": "uint256",
          "name": "shares",
          "type": "uint256"
        },
        {
          "internalType": "address",
          "name": "receiver",
          "type": "address"
        },
        {
          "internalType": "address",
          "name": "_owner",
          "type": "address"
        }
      ],
      "name": "redeem",
      "outputs": [
        {
          "internalType": "uint256",
          "name": "",
          "type": "uint256"
        }
      ],
      "stateMutability": "nonpayable",
      "type": "function"
    },
    {
      "inputs": [
        {
          "internalType": "uint256",
          "name": "shares",
          "type": "uint256"
        },
        {
          "internalType": "address",
          "name": "receiver",
          "type": "address"
        },
        {
          "internalType": "address",
          "name": "_owner",
          "type": "address"
        },
        {
          "components": [
            {
              "internalType": "bytes32",
              "name": "hash",
              "type": "bytes32"
            },
            {
              "internalType": "uint8",
              "name": "hashFunction",
              "type": "uint8"
            },
            {
              "internalType": "uint8",
              "name": "size",
              "type": "uint8"
            }
          ],
          "internalType": "struct IBullaFactoring.Multihash",
          "name": "attachment",
          "type": "tuple"
        }
      ],
      "name": "redeemWithAttachment",
      "outputs": [
        {
          "internalType": "uint256",
          "name": "",
          "type": "uint256"
        }
      ],
      "stateMutability": "nonpayable",
      "type": "function"
    },
    {
      "inputs": [],
      "name": "renounceOwnership",
      "outputs": [],
      "stateMutability": "nonpayable",
      "type": "function"
    },
    {
      "inputs": [
        {
          "internalType": "uint16",
          "name": "_newAdminFeeBps",
          "type": "uint16"
        }
      ],
      "name": "setAdminFeeBps",
      "outputs": [],
      "stateMutability": "nonpayable",
      "type": "function"
    },
    {
      "inputs": [
        {
          "internalType": "uint256",
          "name": "_duration",
          "type": "uint256"
        }
      ],
      "name": "setApprovalDuration",
      "outputs": [],
      "stateMutability": "nonpayable",
      "type": "function"
    },
    {
      "inputs": [
        {
          "internalType": "address",
          "name": "_newBullaDao",
          "type": "address"
        }
      ],
      "name": "setBullaDaoAddress",
      "outputs": [],
      "stateMutability": "nonpayable",
      "type": "function"
    },
    {
      "inputs": [
        {
          "internalType": "address",
          "name": "_newDepositPermissionsAddress",
          "type": "address"
        }
      ],
      "name": "setDepositPermissions",
      "outputs": [],
      "stateMutability": "nonpayable",
      "type": "function"
    },
    {
      "inputs": [
        {
          "internalType": "address",
          "name": "_newFactoringPermissionsAddress",
          "type": "address"
        }
      ],
      "name": "setFactoringPermissions",
      "outputs": [],
      "stateMutability": "nonpayable",
      "type": "function"
    },
    {
      "inputs": [
        {
          "internalType": "uint256",
          "name": "_days",
          "type": "uint256"
        }
      ],
      "name": "setGracePeriodDays",
      "outputs": [],
      "stateMutability": "nonpayable",
      "type": "function"
    },
    {
      "inputs": [
        {
          "internalType": "uint256",
          "name": "_impairReserve",
          "type": "uint256"
        }
      ],
      "name": "setImpairReserve",
      "outputs": [],
      "stateMutability": "nonpayable",
      "type": "function"
    },
    {
      "inputs": [
        {
          "internalType": "uint16",
          "name": "_newProtocolFeeBps",
          "type": "uint16"
        }
      ],
      "name": "setProtocolFeeBps",
      "outputs": [],
      "stateMutability": "nonpayable",
      "type": "function"
    },
    {
      "inputs": [
        {
          "internalType": "uint16",
          "name": "_targetYieldBps",
          "type": "uint16"
        }
      ],
      "name": "setTargetYield",
      "outputs": [],
      "stateMutability": "nonpayable",
      "type": "function"
    },
    {
      "inputs": [
        {
          "internalType": "uint16",
          "name": "_newTaxBps",
          "type": "uint16"
        }
      ],
      "name": "setTaxBps",
      "outputs": [],
      "stateMutability": "nonpayable",
      "type": "function"
    },
    {
      "inputs": [
        {
          "internalType": "address",
          "name": "_newUnderwriter",
          "type": "address"
        }
      ],
      "name": "setUnderwriter",
      "outputs": [],
      "stateMutability": "nonpayable",
      "type": "function"
    },
    {
      "inputs": [],
      "name": "symbol",
      "outputs": [
        {
          "internalType": "string",
          "name": "",
          "type": "string"
        }
      ],
      "stateMutability": "view",
      "type": "function"
    },
    {
      "inputs": [],
      "name": "targetYieldBps",
      "outputs": [
        {
          "internalType": "uint16",
          "name": "",
          "type": "uint16"
        }
      ],
      "stateMutability": "view",
      "type": "function"
    },
    {
      "inputs": [],
      "name": "taxBalance",
      "outputs": [
        {
          "internalType": "uint256",
          "name": "",
          "type": "uint256"
        }
      ],
      "stateMutability": "view",
      "type": "function"
    },
    {
      "inputs": [],
      "name": "taxBps",
      "outputs": [
        {
          "internalType": "uint16",
          "name": "",
          "type": "uint16"
        }
      ],
      "stateMutability": "view",
      "type": "function"
    },
    {
      "inputs": [],
      "name": "totalAssets",
      "outputs": [
        {
          "internalType": "uint256",
          "name": "",
          "type": "uint256"
        }
      ],
      "stateMutability": "view",
      "type": "function"
    },
    {
      "inputs": [],
      "name": "totalSupply",
      "outputs": [
        {
          "internalType": "uint256",
          "name": "",
          "type": "uint256"
        }
      ],
      "stateMutability": "view",
      "type": "function"
    },
    {
      "inputs": [
        {
          "internalType": "address",
          "name": "to",
          "type": "address"
        },
        {
          "internalType": "uint256",
          "name": "value",
          "type": "uint256"
        }
      ],
      "name": "transfer",
      "outputs": [
        {
          "internalType": "bool",
          "name": "",
          "type": "bool"
        }
      ],
      "stateMutability": "nonpayable",
      "type": "function"
    },
    {
      "inputs": [
        {
          "internalType": "address",
          "name": "from",
          "type": "address"
        },
        {
          "internalType": "address",
          "name": "to",
          "type": "address"
        },
        {
          "internalType": "uint256",
          "name": "value",
          "type": "uint256"
        }
      ],
      "name": "transferFrom",
      "outputs": [
        {
          "internalType": "bool",
          "name": "",
          "type": "bool"
        }
      ],
      "stateMutability": "nonpayable",
      "type": "function"
    },
    {
      "inputs": [
        {
          "internalType": "address",
          "name": "newOwner",
          "type": "address"
        }
      ],
      "name": "transferOwnership",
      "outputs": [],
      "stateMutability": "nonpayable",
      "type": "function"
    },
    {
      "inputs": [],
      "name": "underwriter",
      "outputs": [
        {
          "internalType": "address",
          "name": "",
          "type": "address"
        }
      ],
      "stateMutability": "view",
      "type": "function"
    },
    {
      "inputs": [
        {
          "internalType": "uint256",
          "name": "invoiceId",
          "type": "uint256"
        }
      ],
      "name": "unfactorInvoice",
      "outputs": [],
      "stateMutability": "nonpayable",
      "type": "function"
    },
    {
      "inputs": [],
      "name": "viewPoolStatus",
      "outputs": [
        {
          "internalType": "uint256[]",
          "name": "paidInvoices",
          "type": "uint256[]"
        },
        {
          "internalType": "uint256[]",
          "name": "impairedInvoices",
          "type": "uint256[]"
        }
      ],
      "stateMutability": "view",
      "type": "function"
    },
    {
      "inputs": [
        {
          "internalType": "uint256",
          "name": "assets",
          "type": "uint256"
        },
        {
          "internalType": "address",
          "name": "receiver",
          "type": "address"
        },
        {
          "internalType": "address",
          "name": "_owner",
          "type": "address"
        }
      ],
      "name": "withdraw",
      "outputs": [
        {
          "internalType": "uint256",
          "name": "",
          "type": "uint256"
        }
      ],
      "stateMutability": "nonpayable",
      "type": "function"
    },
    {
      "inputs": [],
      "name": "withdrawAdminFees",
      "outputs": [],
      "stateMutability": "nonpayable",
      "type": "function"
    },
    {
      "inputs": [],
      "name": "withdrawProtocolFees",
      "outputs": [],
      "stateMutability": "nonpayable",
      "type": "function"
    },
    {
      "inputs": [],
      "name": "withdrawTaxBalance",
      "outputs": [],
      "stateMutability": "nonpayable",
      "type": "function"
    }
  ],
  "transactionHash": "0xdc85b6d40241877901384176bd75468ffd0820836165bdad182b84223f2fb934",
  "args": [
    "0x94a9D9AC8a22534E3FaCa9F4e7F2E2cf85d5E4C8",
    "0x15ef2BD80BE2247C9007A35c761Ea9aDBe1063C5",
    "0x5d72984B2e1170EAA0DA4BC22B25C87729C5EBB3",
    "0xB39bF6Fcd9bd97F7616FAD7b6118Fc2E911eA1d8",
    "0x996e2beFD170CeB741b0072AE97E524Bdf410E9e",
    "0x89e03e7980c92fd81ed3a9b72f5c73fdf57e5e6d",
    25,
    50,
    "Bulla TCS Factoring Pool Sepolia Test v2",
    10,
    730,
    "Bulla TCS Factoring Pool",
    "BFT-TCS"
  ],
  "numDeployments": 18,
  "solcInputHash": "35cbeedc48972d6a8dd8fd31be925c0b",
  "bytecode": "0x60c080604052346200079457620053e8803803809162000020828562000798565b83398101906101a081830312620007945780516001600160a01b0381168103620007945760208201516001600160a01b038116810362000794576200006860408401620007bc565b6200007660608501620007bc565b916200008560808601620007bc565b6200009360a08701620007bc565b93620000a260c08801620007d1565b93620000b160e08901620007d1565b6101008901519094906001600160401b03811162000794578a620000d7918b01620007fd565b97620000e76101208b01620007d1565b9a620000f76101408c01620007d1565b6101608c0151909b906001600160401b0381116200079457826200011d918301620007fd565b6101808201519092906001600160401b0381116200079457620001419201620007fd565b815190916001600160401b038211620004fc5760035490600182811c9216801562000789575b6020831014620004dd5781601f84931162000719575b50602090601f83116001146200068c575f9262000680575b50508160011b915f199060031b1c1916176003555b8051906001600160401b038211620004fc5760045490600182811c9216801562000675575b6020831014620004dd5781601f84931162000605575b50602090601f831160011462000578575f926200056c575b50508160011b915f199060031b1c1916176004555b6200021d8162000865565b901562000563575b60a0528060805233156200054b5760058054336001600160a01b03198216811790925560405191906001600160a01b03167f8be0079c531659141344cd1fd0a4f28419497f9722a3daafe3b4186f6b6457e05f80a3603c601455610e10601a5561ffff881680159081156200053e575b506200052f575061ffff8616801590811562000522575b506200051057600980546001600160a01b03199081166001600160a01b0393841617909155600a8054821693831693909317909255600d805483169382169390931790925560158054821693831693909317909255601680549092169281169290921790556006805460a09490941b61ffff60a01b166001600160c01b031990941694909116939093179190911760b09190911b61ffff60b01b1617905542600e558051906001600160401b038211620004fc57601054600181811c91168015620004f1575b6020821014620004dd57601f811162000487575b50602090601f83116001146200040b5761ffff9392915f9183620003ff575b50508160011b915f199060031b1c1916176010555b818019931683601154161760115516906013541617601355604051614a9d90816200092b8239608051818181610d1c01528181613c4701526147f7015260a051815050f35b015190505f80620003a5565b60105f9081525f80516020620053c8833981519152929190601f198516905b8181106200046e575091600193918561ffff9796941062000455575b505050811b01601055620003ba565b01515f1960f88460031b161c191690555f808062000446565b929360206001819287860151815501950193016200042a565b60105f525f80516020620053c8833981519152601f840160051c81019160208510620004d2575b601f0160051c01905b818110620004c6575062000386565b5f8155600101620004b7565b9091508190620004ae565b634e487b7160e01b5f52602260045260245ffd5b90607f169062000372565b634e487b7160e01b5f52604160045260245ffd5b604051631f3b85d360e01b8152600490fd5b6127109150115f620002ac565b631f3b85d360e01b8152600490fd5b6127109150115f62000295565b604051631e4fbdf760e01b81525f6004820152602490fd5b50601262000225565b015190505f80620001fd565b60045f90815293507f8a35acfbc15ff81a39ae7d344fd709f28e8600b4aa8c65c6b64bfe7fe36bd19b91905b601f1984168510620005e9576001945083601f19811610620005d0575b505050811b0160045562000212565b01515f1960f88460031b161c191690555f8080620005c1565b81810151835560209485019460019093019290910190620005a4565b60045f529091507f8a35acfbc15ff81a39ae7d344fd709f28e8600b4aa8c65c6b64bfe7fe36bd19b601f840160051c8101602085106200066d575b90849392915b601f830160051c820181106200065e575050620001e5565b5f815585945060010162000646565b508062000640565b91607f1691620001cf565b015190505f8062000195565b60035f90815293507fc2575a0e9e593c00f959f8c92f12db2869c3395a3b0502d05e2516446f71f85b91905b601f1984168510620006fd576001945083601f19811610620006e4575b505050811b01600355620001aa565b01515f1960f88460031b161c191690555f8080620006d5565b81810151835560209485019460019093019290910190620006b8565b60035f529091507fc2575a0e9e593c00f959f8c92f12db2869c3395a3b0502d05e2516446f71f85b601f840160051c81016020851062000781575b90849392915b601f830160051c82018110620007725750506200017d565b5f81558594506001016200075a565b508062000754565b91607f169162000167565b5f80fd5b601f909101601f19168101906001600160401b03821190821017620004fc57604052565b51906001600160a01b03821682036200079457565b519061ffff821682036200079457565b6001600160401b038111620004fc57601f01601f191660200190565b919080601f8401121562000794578251906200081982620007e1565b9162000829604051938462000798565b80835260209182828701011162000794575f5b818110620008515750825f9394955001015290565b85810183015184820184015282016200083c565b6040805163313ce56760e01b60208201908152600482529293929181016001600160401b03811182821017620004fc57604052515f9384928392916001600160a01b03165afa3d1562000921573d90620008bf82620007e1565b91620008cf604051938462000798565b82523d84602084013e5b8062000914575b620008eb575b508190565b60208180518101031262000910576020015160ff8111620008e6576001925060ff1690565b8280fd5b50602081511015620008e0565b606090620008d956fe60806040526004361015610011575f80fd5b5f3560e01c806301e1d1141461054a5780630419b45a1461054557806306fdde031461054057806307a2d13a146104dc57806308bb5f7b1461053b578063095ea7b3146105365780630a22d68c146105315780630a28a4771461052c5780630ce6b419146105275780631348ed5e14610522578063173693241461051d57806318160ddd146105185780631ba46cfd146105135780631be4c4d41461050e5780631d6bdb5b1461050957806323b872dd146105045780632d896b2a146104ff5780632f3183e7146104fa578063313ce567146104f557806335659fb8146104f057806338d52e0f146104eb5780633eacd2f8146104e6578063402d267d1461041957806344fcb5cc146104e15780634cdad506146104dc5780635056d475146104d757806356984d9f146104d2578063591e1788146104cd5780635e20bfc8146104c85780636e553f65146104c35780636f31ab34146104be578063706a3f7d146104b957806370a08231146104b4578063715018a6146104af57806372c5c144146104aa57806375797cef146104a557806376138f55146104a05780637fbc96221461049b578063800120fa1461049657806383de3aed146104915780638795cccb1461048c5780638da5cb5b146104875780638e73836c1461048257806394bf804d1461047d578063951e4bee1461047857806395d89b4114610473578063987699261461046e5780639948ff451461046957806399530b0614610464578063a31cd6b91461045f578063a36e9fe71461045a578063a3d1612c14610455578063a85f571414610450578063a9059cbb1461044b578063aa98e16314610446578063ac27a24f14610441578063b33110861461043c578063b3d7f6b914610437578063b460af9414610432578063b73afe8c1461042d578063ba08765214610428578063be37b12c14610423578063c42f18f51461041e578063c63d75b614610419578063c6e6f59214610414578063ce96cb771461040f578063cec5a5581461040a578063cf0160f914610405578063d0f5a9bc14610400578063d905777e146103fb578063dc2dc8ff146103f6578063dd0a12bc146103f1578063dd62ed3e146103ec578063e300a0f4146103e7578063e6f0681c146103e2578063e72f0f05146103dd578063e9ff17ef146103d8578063ec233684146103d3578063ef8b30f7146103ce578063efe0707b146103c9578063f00db260146103c4578063f2fde38b146103bf578063f3466dfa146103ba5763fa1fc2e9146103b5575f80fd5b612d8d565b612d5e565b612be0565b612bb8565b612b4b565b612b2d565b612a5d565b6129a9565b61298c565b612968565b61292b565b612827565b612806565b61258f565b612562565b612500565b612490565b612444565b61240e565b6123f0565b610d6c565b61239f565b612319565b612300565b612298565b612162565b61211b565b6120fe565b612075565b612058565b61202e565b612006565b611fd4565b611f46565b611a39565b611a0f565b6119e7565b6119cd565b61190c565b6118e2565b6118b4565b61189a565b611872565b6117b3565b611799565b611729565b611701565b61151d565b6114f3565b6114d9565b61147c565b611440565b6113fa565b6113e0565b6113b6565b611399565b611363565b611320565b610e66565b61075c565b610d93565b610d4b565b610d07565b610ce3565b610cbe565b610c1c565b610bff565b610bb4565b610b33565b6109ef565b6109c7565b6109aa565b610982565b610965565b610919565b6108fb565b6108de565b610815565b61078b565b610655565b61057f565b61055d565b5f91031261055957565b5f80fd5b34610559575f366003190112610559576020610577614611565b604051908152f35b34610559575f8060031936011261060057610598612e3d565b60085480156105ee5760088290556009546105bf90829033906001600160a01b0316614023565b6040519081527fcdcaff67ac16639664e5f9343c9223a1dc9c972ec367b69ae9fc1325c7be547460203392a280f35b604051630d00db4d60e31b8152600490fd5b80fd5b91908251928382525f5b84811061062d575050825f602080949584010152601f8019910116010190565b60208183018101518483018201520161060d565b906020610652928181520190610603565b90565b34610559575f806003193601126106005760405190806003549060019180831c92808216928315610752575b602092838610851461073e57858852602088019490811561071d57506001146106c5575b6106c1876106b581890382611d93565b60405191829182610641565b0390f35b60035f5294509192917fc2575a0e9e593c00f959f8c92f12db2869c3395a3b0502d05e2516446f71f85b5b83861061070c57505050910190506106b5826106c15f806106a5565b8054858701529482019481016106f0565b60ff191685525050505090151560051b0190506106b5826106c15f806106a5565b634e487b7160e01b82526022600452602482fd5b93607f1693610681565b34610559576020366003190112610559576020610577600435613abf565b6001600160a01b0381160361055957565b34610559576020366003190112610559576004356107a88161077a565b6107b0612e3d565b6001600160a01b0390811690811561080357600d54826bffffffffffffffffffffffff60a01b821617600d55167fae536502f25a82de70abed467008489d54fa0cbf58cdc51718efe6d49406724f5f80a3005b60405163e6c4247b60e01b8152600490fd5b34610559576040366003190112610559576004356108328161077a565b60243533156108c6576001600160a01b0382169182156108ae57335f9081526001602052604090208291610876915b9060018060a01b03165f5260205260405f2090565b556040519081527f8c5be1e5ebec7d5bd14f71427d1e84f3dd0314c0f7b2291e5b200ac8c7c3b92560203392a3602060405160018152f35b604051634a1406b160e11b81525f6004820152602490fd5b60405163e602df0560e01b81525f6004820152602490fd5b34610559575f366003190112610559576020600754604051908152f35b34610559576020366003190112610559576020610577600435613a83565b34610559576020366003190112610559577fe595c99430465234d1ec90ffa3458590c544d5349139442d6911452a7b8e82fa6020600435610958612e3d565b80601455604051908152a1005b34610559575f366003190112610559576020601454604051908152f35b34610559575f366003190112610559576015546040516001600160a01b039091168152602090f35b34610559575f366003190112610559576020600254604051908152f35b34610559575f366003190112610559576009546040516001600160a01b039091168152602090f35b3461055957602036600319011261055957600435610a0b612e3d565b600f548015610b2157610a24610a2083614222565b1590565b610b0f57610a476002610a3f845f52601e60205260405f2090565b015460ff1690565b610afd577ff95dd13343beabbe284b7f97d54b2d4fda5841bab502d60164e8ede601fbe3ac90600c610a81845f52601960205260405f2090565b0154610a99610a948360011c8094613165565b600f55565b610aa28461447d565b610aab84613fa8565b610ae3610ab6611db5565b838152826020820152610acc6040820160019052565b610ade865f52601e60205260405f2090565b614a1a565b60408051918252602082019290925290819081015b0390a2005b604051633235e0c760e21b8152600490fd5b604051632d9bb54f60e11b8152600490fd5b6040516357154c3f60e01b8152600490fd5b34610559575f8060031936011261060057610b4c612e3d565b6012548015610ba2576012829055600954610b7390829033906001600160a01b0316614023565b6040519081527fc1d14d5488f3efbb6db97da278fa305488c34be0b9fb57e21dd6140359c323c160203392a280f35b6040516384bdc80f60e01b8152600490fd5b3461055957606036600319011261055957610bf4600435610bd48161077a565b602435610be08161077a565b60443591610bef833383612fb0565b612e69565b602060405160018152f35b34610559575f366003190112610559576020600854604051908152f35b346105595760a036600319011261055957602435600435610c3c8261077a565b606036604319011261055957610c5460209282613bb5565b906040519081528183820152604435604082015260ff606435610c768161305b565b16606082015260ff608435610c8a8161305b565b1660808201527f393f5b2cbcf0aa47eaec63eb01049e213dc0a29e5bf9b323471be5f5125fc50c60a03392a2604051908152f35b34610559575f366003190112610559576020610cd8613071565b60ff60405191168152f35b34610559575f36600319011261055957602061ffff60065460a01c16604051908152f35b34610559575f366003190112610559576040517f00000000000000000000000000000000000000000000000000000000000000006001600160a01b03168152602090f35b34610559575f36600319011261055957602061ffff60115416604051908152f35b3461055957602036600319011261055957610d8860043561077a565b60206040515f198152f35b3461055957602036600319011261055957600435610daf612e3d565b600f54808210610e10578103818111610e0b577f96ef0ad874bac1a0f28dd6bb42d3cd79816d65910307ac7d95d97bb464cbb94a91610dfe60209260018060a01b036009541630903390613d0f565b80600f55604051908152a1005b612f7f565b604051631506ed4b60e01b8152600490fd5b6024359061ffff8216820361055957565b6044359061ffff8216820361055957565b6064359061ffff8216820361055957565b6004359061ffff8216820361055957565b346105595760408060031936011261055957600490813590610e86610e22565b601654909290610ea6906001600160a01b03165b6001600160a01b031690565b825163babcc53960e01b815233868201908152602092839183919082908190850103915afa9081156111d9575f916112c0575b50156112a457610efe610a20610ef7845f52601960205260405f2090565b5460ff1690565b61129457610f2f610f28600a610f1c855f52601960205260405f2090565b015460101c61ffff1690565b61ffff1690565b61ffff851690811190811561128b575b5061127b576008610f58835f52601960205260405f2090565b0154421161126b57600a54610f75906001600160a01b0316610e9a565b9060e08451809363484d384560e11b82528180610f99888c83019190602083019252565b03915afa9182156111d9575f9261123b575b5060c082015161122b576006610fc9845f52601960205260405f2090565b015460a08301510361121b57611010610e9a826110016002610ff3885f52601960205260405f2090565b01546001600160a01b031690565b9401516001600160a01b031690565b6001600160a01b039283160361120b576110a661102d8685613e74565b999392505050600b611047875f52601960205260405f2090565b015586600c61105e875f52601960205260405f2090565b0155426009611075875f52601960205260405f2090565b0155600a61108b865f52601960205260405f2090565b019063ffff000082549160101b169063ffff00001916179055565b6009546110bf90869033906001600160a01b0316614023565b600a54869082906110d8906001600160a01b0316610e9a565b8651631e328b4160e11b815292839182905afa9182156111d9575f926111de575b505016803b156105595782516323b872dd60e01b81523395810195865230602087015260408601839052945f91869182908490829060600103925af19384156111d9576106c1946111c0575b5061117b3361115c835f52601860205260405f2090565b80546001600160a01b0319166001600160a01b03909216919091179055565b61118481613fef565b81518381523391907f97d46c18045986c4f6dbf2482a3034fe9652263d6b07817879304ef25f5d86da90602090a3519081529081906020820190565b806111cd6111d392611d5e565b8061054f565b5f611145565b613066565b6111fd9250803d10611204575b6111f58183611d93565b810190613172565b5f806110f9565b503d6111eb565b835163f18c77f960e01b81528690fd5b835163971ccc7760e01b81528690fd5b8351637ccc2bd960e11b81528690fd5b61125d91925060e03d8111611264575b6112558183611d93565b8101906130e9565b905f610fab565b503d61124b565b8251634aad99a560e11b81528590fd5b8251631f3b85d360e01b81528590fd5b9050155f610f3f565b825163649ac74160e11b81528590fd5b8251637190a79560e11b81523381870190815281906020010390fd5b6112e09150823d84116112e6575b6112d88183611d93565b810190613ba1565b5f610ed9565b503d6112ce565b9081518082526020808093019301915f5b82811061130c575050505090565b8351855293810193928101926001016112fe565b34610559575f366003190112610559576113556106c161133e6140d1565b6040929192519384936040855260408501906112ed565b9083820360208501526112ed565b346105595760203660031901126105595760806113816004356133ec565b91604051938452602084015260408301526060820152f35b34610559575f366003190112610559576020601a54604051908152f35b346105595760403660031901126105595760206105776024356113d88161077a565b600435613bb5565b34610559575f36600319011261055957602061057761468f565b34610559576020366003190112610559576004355f52601e602052606060405f2080549060ff600260018301549201541690604051928352602083015215156040820152f35b346105595760203660031901126105595760206105776004356114628161077a565b6001600160a01b03165f9081526020819052604090205490565b34610559575f8060031936011261060057611495612e3d565b600580546001600160a01b0319811690915581906001600160a01b03167f8be0079c531659141344cd1fd0a4f28419497f9722a3daafe3b4186f6b6457e08280a380f35b34610559575f36600319011261055957602061057761393c565b34610559576020366003190112610559576004355f52601f602052602060405f2054604051908152f35b34610559575f80600319360112610600576115366140d1565b50815b81518110156116c9578061165761155361165f93856140bd565b517f2bc6d87cf553310ee13e0d3270f4a621bb33785b64765662507746e56734142c61157e826133ec565b9195909261158e838589896142b7565b6115b06115a3875f52601860205260405f2090565b546001600160a01b031690565b9281611672575b6115ce6002610a3f895f52601e60205260405f2090565b15611664576115dc8761437f565b6116026115f1885f52601e60205260405f2090565b60025f918281558260018201550155565b60e061161e611619895f52601960205260405f2090565b613327565b015160408051998a5260208a019690965294880152606087019390935260808601929092526001600160a01b03169390819060a0820190565b0390a36138fb565b611539565b61166d8761447d565b611602565b60095461168b90839086906001600160a01b0316614023565b6040518281526001600160a01b0385169088907ff0552a3665368b7e77abbd2bbfe72b2615793841acfd3da5b7df5f330cc00eae90602090a36115b7565b506116fb7f71c060a755cff9c84db9f4be3b4fac0b83f3ffe4e7ff3ebc0be0420d28fb1de091604051918291826142a6565b0390a180f35b34610559575f36600319011261055957600a546040516001600160a01b039091168152602090f35b34610559576020366003190112610559577fbc05deec4ecd4d9295d36f7434b1feee89ac308d4040e0133f06bff4635cf70a60206004356117698161077a565b611771612e3d565b601680546001600160a01b0319166001600160a01b03929092169182179055604051908152a1005b34610559575f3660031901126105595760206105776145a2565b34610559575f366003190112610559576006546117d8906001600160a01b0316610e9a565b33036118605760075480156105ee576117f05f600755565b6009546118149082906001600160a01b03166006546001600160a01b031690614023565b6006547fa087657e3d85162090ffd700fbfdf5070d816f63aa5da00063f6ffd369c8a6db90610af89061184f906001600160a01b0316610e9a565b604051938452929081906020820190565b6040516307c68f0f60e11b8152600490fd5b34610559575f366003190112610559576005546040516001600160a01b039091168152602090f35b34610559575f366003190112610559576020610577613a46565b34610559576040366003190112610559576118d060243561077a565b6040516369bd111d60e11b8152600490fd5b34610559576020366003190112610559576004355f526017602052602060405f2054604051908152f35b34610559575f806003193601126106005760405190806004549060019180831c928082169283156119c3575b602092838610851461073e57858852602088019490811561071d575060011461196b576106c1876106b581890382611d93565b60045f5294509192917f8a35acfbc15ff81a39ae7d344fd709f28e8600b4aa8c65c6b64bfe7fe36bd19b5b8386106119b257505050910190506106b5826106c15f806106a5565b805485870152948201948101611996565b93607f1693611938565b34610559575f366003190112610559576020610577613af5565b34610559575f366003190112610559576006546040516001600160a01b039091168152602090f35b34610559575f366003190112610559576020610577611a34611a2f613071565b613a72565b613abf565b346105595760803660031901126105595760048035611a56610e22565b611a5e610e33565b90611a67610e44565b9361ffff908184168015908115611d3e575b50611d2f57600d54611a93906001600160a01b0316610e9a565b3303611d2057611aa5601a5442612fa3565b600a54909290611abd906001600160a01b0316610e9a565b9060409283519063484d384560e11b825260e08280611ae38c8583019190602083019252565b0381875afa9182156111d9575f92611d00575b50815190611b0a60a0840192835190613165565b15611cf25785518095631e328b4160e11b8252818360209889935afa9081156111d9575f91611cd5575b5086516331a9108f60e11b81528281018c81526001600160a01b0392889183919082900360200190829086165afa9081156111d9575f91611cb8575b5081163014611ca95760808401516001600160a01b0316600954909190611ba190610e9a906001600160a01b031681565b911603611c9b575092611c5d7f582952bb580f603774d9c537b553a9262ca26cd579550a2812bc91a3fec3198d999a959383611be8610af89997611c749651905190613165565b60065491611bf4611dd5565b60018152958601528685018890525f606086015261ffff8b16608086015261ffff8c1660a08601525f60c0860181905260e086015261ffff891661010086015261012085015261ffff60a082901c83161661014085015260b01c1661016083019061ffff169052565b611c6f8a5f52601960205260405f2090565b613211565b5161ffff948516815294841660208601526040850152909116606083015281906080820190565b85516322b96ac960e01b8152fd5b508551639c20501360e01b8152fd5b611ccf9150873d8911611204576111f58183611d93565b5f611b70565b611cec9150863d8811611204576111f58183611d93565b5f611b34565b855163c627ace960e01b8152fd5b611d1991925060e03d8111611264576112558183611d93565b905f611af6565b604051632e83528960e01b8152fd5b604051631f3b85d360e01b8152fd5b6127109150115f611a79565b634e487b7160e01b5f52604160045260245ffd5b67ffffffffffffffff8111611d7257604052565b611d4a565b60e0810190811067ffffffffffffffff821117611d7257604052565b90601f8019910116810190811067ffffffffffffffff821117611d7257604052565b604051906060820182811067ffffffffffffffff821117611d7257604052565b60405190610180820182811067ffffffffffffffff821117611d7257604052565b60405190610140820182811067ffffffffffffffff821117611d7257604052565b90611e7d604051611e2781611d77565b8354815260018401546001600160a01b039081166020830152600285015481166040830152600385015460608301526004850154166080820152600584015460a082015260069093015460ff16151560c0840152565b565b99979593919c9b9a98969492909c6102408b019d15158b52805160208c0152600160a01b600190038060208301511660408d01528060408301511660608d0152606082015160808d015260808201511660a08c015260a081015160c08c015260c00151151560e08b01526101008a01526101208901526101408801611f069161ffff169052565b61ffff166101608701526101808601526101a085015261ffff166101c08401526101e083015261ffff1661020082015261022001611e7d9161ffff169052565b34610559576020366003190112610559576004355f52601960205260405f2060ff8154166106c1611f7960018401611e17565b91600884015492600985015494600a810154600b820154600c83015490611fa5600d85015461ffff1690565b92600f600e860154950154966040519a8b9a61ffff9889808c60101c169b1699808660101c169516938d611e7f565b34610559576020366003190112610559576004355f526018602052602060018060a01b0360405f205416604051908152f35b34610559575f366003190112610559576016546040516001600160a01b039091168152602090f35b3461055957604036600319011261055957610bf460043561204e8161077a565b6024359033612e69565b34610559575f366003190112610559576020601254604051908152f35b346105595760203660031901126105595761208e610e55565b612096612e3d565b61ffff8082169161271083116120ec576006805461ffff60b01b191660b092831b61ffff60b01b161790819055901c167fcc9b1d1e60d76e8755bd2ceaeb3d3ccfe5e5bb556097b7ce618b0a60480ef3e15f80a3005b604051631f3b85d360e01b8152600490fd5b34610559575f366003190112610559576020600e54604051908152f35b34610559576020366003190112610559576020610577600435613ada565b606090600319011261055957600435906024356121558161077a565b906044356106528161077a565b346105595761217036612139565b60155490929190612189906001600160a01b0316610e9a565b60405163babcc53960e01b808252336004830152602092918381602481865afa9081156111d9575f9161227b575b5015612263576040519081526001600160a01b0386166004820152908290829060249082905afa9182156111d9575f92612246575b505015612225576122106122076106c19461221593856146b2565b92600c54612fa3565b600c55565b6040519081529081906020820190565b604051635ebb5e2160e11b81526001600160a01b0384166004820152602490fd5b61225c9250803d106112e6576112d88183611d93565b5f806121ec565b604051635ebb5e2160e11b8152336004820152602490fd5b6122929150843d86116112e6576112d88183611d93565b5f6121b7565b346105595760203660031901126105595761ffff6122b4610e55565b6122bc612e3d565b1661271081116120ec576020817f70804697a7389a86ccbf4594ad23c117ecf0a1ffb94ae9516dc15f85ac7c29c89261ffff196013541617601355604051908152a1005b3461055957602061057761231336612139565b9161487c565b3461055957602036600319011261055957612332610e55565b61233a612e3d565b61ffff908181169161271083116120ec577f2ea630a8e6f6f7590aa81eb8993a1c4a49a0913effd00467ddd761d45867a3ee926040926006549061ffff60a01b9060a01b169061ffff60a01b191617918260065583519260a01c1682526020820152a1005b34610559576040366003190112610559576106c16123c66123be610e22565b600435613e74565b604080519586526020860194909452928401919091526060830152608082015290819060a0820190565b34610559576020366003190112610559576020610577600435613aa3565b34610559576020366003190112610559576020610577612436611a346004356114628161077a565b61243e614611565b906138ee565b34610559576020366003190112610559577f6afefcb7619ccdb73c8fdd4304d507509f1d2327b6f29ff2b9c77a1fa760687d6020600435612483612e3d565b80601a55604051908152a1005b34610559576020366003190112610559577ff6a412f75fe107fb805f9acb0408b3ac23ff1d0381fc83f6ef4352a8c9727f8960206004356124d08161077a565b6124d8612e3d565b601580546001600160a01b0319166001600160a01b03929092169182179055604051908152a1005b346105595760203660031901126105595761ffff61251c610e55565b612524612e3d565b1661271081116120ec578061ffff196011541617601155807fe1a4ea7f5e6e02cfb3b314fa7050128838a1dd7cca9e85e07ffef5aa4568150a5f80a3005b346105595760203660031901126105595760206105776125876004356114628161077a565b61243e61468f565b34610559576020366003190112610559576004356125ac816141bd565b6127f4576125c56115a3825f52601860205260405f2090565b6001600160a01b0333828216036127e257612636916126366125f2611619865f52601960205260405f2090565b61264a61263b61262960e08401519360608101515f8142115f146127da575061261e6126239142613165565b61357e565b9061380b565b9590809983889497612fa3565b612fa3565b61264488614521565b90613924565b935f8513156127ad5760095461266d9086906001600160a01b0316863091613d0f565b600a54600490602090612688906001600160a01b0316610e9a565b604051631e328b4160e11b815292839182905afa9081156111d9575f9161278f575b501691823b15610559576040516323b872dd60e01b81523060048201526001600160a01b038516602482015260448101889052925f908490606490829084905af19081156111d9577fa6c1811e425aa63111b318f9419b688e3da2139edec0f501a2ac2e403f982a1f96610af8946127329361277c575b5061272b8961447d565b83896142b7565b612757612747875f52601860205260405f2090565b80546001600160a01b0319169055565b60405193849384604091949392606082019560018060a01b0316825260208201520152565b806111cd61278992611d5e565b5f612721565b6127a7915060203d8111611204576111f58183611d93565b5f6126aa565b5f85121561266d576009546127d5906001600160a01b0316856127cf8861446d565b91614023565b61266d565b90509061380b565b6040516398c1b40760e01b8152600490fd5b604051631915f32960e11b8152600490fd5b34610559575f36600319011261055957602061ffff60135416604051908152f35b3461055957604036600319011261055957602061287d6004356128498161077a565b602435906128568261077a565b60018060a01b03165f526001835260405f209060018060a01b03165f5260205260405f2090565b54604051908152f35b634e487b7160e01b5f52603260045260245ffd5b601c548110156128cf57601c5f527f0e4562a10381dec21b205ed72637e6b1b523bdd0e4d4d50af5cd23dd4500a21101905f90565b612886565b601d548110156128cf57601d5f527f6d4407e7be21f808e6509aa9fa9143369579dd7d760fe20a2c09680fc146134f01905f90565b601b548110156128cf57601b5f525f80516020614a4883398151915201905f90565b3461055957602036600319011261055957600435601b5481101561055957602090601b5f525f80516020614a488339815191520154604051908152f35b34610559575f36600319011261055957602061ffff60065460b01c16604051908152f35b34610559575f366003190112610559576020600f54604051908152f35b34610559576020366003190112610559576004355f5260196020526020600c60405f200154604051908152f35b6020815281516129f461014091826020850152610160840190610603565b92602081015160408401526040810151606084015260608101516080840152608081015160a084015260a081015160c084015260c081015160e084015260e0810151612a49610100918286019061ffff169052565b810151906101209182850152015191015290565b34610559575f36600319011261055957612a756149bc565b506106c1612a81614611565b61ffff612a8c6145a2565b91612a95613a46565b92612b14612aa7611a34611a2f613071565b94612ab061468f565b600e5496612ac560065461ffff9060b01c1690565b92600f5495612ad760135461ffff1690565b97612ae0611df6565b9a612ae9612c70565b8c5260208c015260408b015260608a0152608089015260a088015260c087015261ffff1660e0860152565b61010084015216610120820152604051918291826129d6565b34610559576020366003190112610559576020610577600435613b72565b3461055957602036600319011261055957600435612b688161077a565b612b70612e3d565b6001600160a01b0316801561080357600680546001600160a01b03191682179055807f2e7dcd5549bd379d2c481c56fc3dbe7db94761cb60cbbc301f807e31cc4a99445f80a3005b34610559575f36600319011261055957600d546040516001600160a01b039091168152602090f35b3461055957602036600319011261055957600435612bfd8161077a565b612c05612e3d565b6001600160a01b03908116908115612c5857600554826bffffffffffffffffffffffff60a01b821617600555167f8be0079c531659141344cd1fd0a4f28419497f9722a3daafe3b4186f6b6457e05f80a3005b604051631e4fbdf760e01b81525f6004820152602490fd5b604051905f60105490600182811c92818116918215612d54575b6020918286108414612d4057858852879493602086019392918115612d215750600114612cc1575b505050611e7d92500383611d93565b925093612cef60105f527f1b6847dc741a1b0cd08d278845f9d819d87b734759afb55fe2de5cb82a9ae67290565b945f935b828510612d0b57505050611e7d9350015f8080612cb2565b8654858501529586019588955093810193612cf3565b92505050611e7d9491925060ff19168252151560051b015f8080612cb2565b634e487b7160e01b85526022600452602485fd5b93607f1693612c8a565b34610559575f366003190112610559576106c1612d79612c70565b604051918291602083526020830190610603565b346105595760c036600319011261055957602435600435612dad8261077a565b60443591612dba8361077a565b606036606319011261055957602092612dd3918361487c565b906040519081528183820152606435604082015260ff608435612df58161305b565b16606082015260ff60a435612e098161305b565b1660808201527f8b96c40bd23d041868dce7135e6994e68df1b292276db8f707c6c35873c1e20160a03392a2604051908152f35b6005546001600160a01b03163303612e5157565b60405163118cdaa760e01b8152336004820152602490fd5b916001600160a01b0380841692908315612f67578116938415612f4f576001600160a01b0381165f90815260208190526040902054838110612f2057612f1b928492612eeb7fddf252ad1be2c89b69c2b068fc378daa952ba7f163c4a11628f55a4df523b3ef96612f0594039160018060a01b03165f525f60205260405f2090565b556001600160a01b03165f90815260208190526040902090565b8054820190556040519081529081906020820190565b0390a3565b60405163391434e360e21b81526001600160a01b03929092166004830152602482015260448101839052606490fd5b60405163ec442f0560e01b81525f6004820152602490fd5b604051634b637e8f60e11b81525f6004820152602490fd5b634e487b7160e01b5f52601160045260245ffd5b90612710918201809211610e0b57565b91908201809211610e0b57565b6001600160a01b038181165f818152600160208181526040808420888716855290915290912054939594939291908301612fed575b505050505050565b84831061302c57156108c6578216156108ae576130209261086191039360018060a01b03165f52600160205260405f2090565b555f8080808080612fe5565b604051637dc7a0d960e11b81526001600160a01b03851660048201526024810184905260448101869052606490fd5b60ff81160361055957565b6040513d5f823e3d90fd5b60095460405163313ce56760e01b815290602090829060049082906001600160a01b03165afa9081156111d9575f916130a8575090565b906020823d82116130d4575b816130c160209383611d93565b810103126106005750516106528161305b565b3d91506130b4565b5190811515820361055957565b908160e09103126105595761315d60c06040519261310684611d77565b8051845260208101516131188161077a565b6020850152604081015161312b8161077a565b60408501526060810151606085015260808101516131488161077a565b608085015260a081015160a0850152016130dc565b60c082015290565b91908203918211610e0b57565b9081602091031261055957516106528161077a565b8151815560208201516001820180546001600160a01b03199081166001600160a01b03938416179091556040840151600284018054918416918316919091179055606084015160038401556080840151600484018054919093169116179055611e7d9160069060c09060a081015160058501550151151591019060ff801983541691151516179055565b90613297610160600f611e7d9461323d61322b8651151590565b829060ff801983541691151516179055565b61324e602086015160018301613187565b60408501516008820155606085015160098201556132b0600a820161328d61327b608089015161ffff1690565b825461ffff191661ffff909116178255565b60a087015161ffff165b63ffff000082549160101b169063ffff00001916179055565b60c0850151600b82015560e0850151600c8201556132ec6132d761010087015161ffff1690565b600d83019061ffff1661ffff19825416179055565b610120850151600e820155019261331e61330c61014083015161ffff1690565b855461ffff191661ffff909116178555565b015161ffff1690565b90611e7d613333611dd5565b92613348613342825460ff1690565b15158552565b61335460018201611e17565b60208501526008810154604085015260098101546060850152600a81015461ffff808216608087015260109190911c811660a086015290600f90600b81015460c0870152600c81015460e08701526133c06133b4600d83015461ffff1690565b61ffff16610100880152565b600e810154610120870152015461ffff8282161661014086015260101c1661016084019061ffff169052565b613523613523925f92835260196020526040832092613409611dd5565b61341d613417865460ff1690565b15158252565b61342960018601611e17565b6020820152600885015460408201526135286135146009870154926060810193845261262388600a8101549561348161ffff8861347082809b16608089019061ffff169052565b60101c1660a086019061ffff169052565b600b82015460c08501526134e7600c8301549760e08601988952600f600e6134ae600d87015461ffff1690565b61ffff16610100890190815295015461012088019081529d015461ffff8282161661014088015260101c1661016086019061ffff169052565b518042115f1461354a57610f2861350461261e61350e9342613165565b925b5161ffff1690565b90613558565b969097918099888a9451613165565b613165565b905190818111156135435761353d9250613165565b93929190565b505061353d565b5061350e610f288892613506565b9080821115613565575090565b905090565b634e487b7160e01b5f52601260045260245ffd5b62015180600161358d8361370d565b92096135965790565b60018101809111610e0b5790565b91906135b1828285613774565b9282156135c057096135965790565b61356a565b81156135c0570490565b90808202905f19818409908280831092039180831461362f5761016d920382111561361d577f4ff4c73064ff4c73064ff4c73064ff4c73064ff4c73064ff4c73064ff4c73065930990030290565b60405163227bc15360e01b8152600490fd5b50505061016d91500490565b90808202905f198184099082808310920391808303921461369857612710908282111561361d577fbc01a36e2eb1c432ca57a786c226809d495182a9930be0ded288ce703afb7e91940990828211900360fc1b910360041c170290565b505061271091500490565b90808202905f19818409908280831092039180830392146137015762989680908282111561361d577f5fb648fcc913daa857a27e44a97d3c6bc1193a63a91cc45be5032477ae8d46a5940990828211900360f91b910360071c170290565b50506298968091500490565b5f19600182099080808310920391808303921461376a5762015180918083111561361d577f166054f43e32d21c10aff9ee8dd7cc6bb5aa499388277166054f43e32d21c10b926001830990828211900360f91b910360071c170290565b6201518091500490565b9091828202915f19848209938380861095039480860395146137e7578483111561361d57829109815f038216809204600280826003021880830282030280830282030280830282030280830282030280830282030280920290030293600183805f03040190848311900302920304170290565b50509061065292506135c5565b906103e891828102928184041490151715610e0b57565b9161382f8261382a613825610f28608088015161ffff1690565b6137f4565b6135cf565b9161389c61387a61387461385d613857613852610f286101408b015161ffff1690565b612f93565b8761363b565b9361382a613825610f286101608b015161ffff1690565b83612fa3565b9461243e8661389561012084019360e0855191015190613165565b92516136a3565b93806138dd57505f925b816138c95750506138c35f925b6138bd8482613165565b94613165565b91929190565b6138c3916138d79185613774565b926138b3565b6138e8908286613774565b926138a6565b9080821015613565575090565b5f198114610e0b5760010190565b9190915f8382019384129112908015821691151617610e0b57565b81810392915f138015828513169184121617610e0b57565b5f80601c545b808210613a1a5750505f601d545b8082106139c8575050601b545f5b81811061396a57505090565b61398061397682612909565b90549060031b1c90565b61398981614222565b61399d575b50613998906138fb565b61395e565b6139989193600c6139b96139c1935f52601960205260405f2090565b015490613924565b929061398e565b9091613a0e613a149160016139b96139ff6139e5613976896128d4565b936139f8855f52601e60205260405f2090565b5490613909565b925f52601e60205260405f2090565b926138fb565b90613950565b9091613a0e613a40916139f8613a326139768761289a565b5f52601760205260405f2090565b90613942565b613a65613a5161393c565b613a60600b54600c5490613924565b613909565b5f80821315613565575090565b60ff16604d8111610e0b57600a0a90565b6002548015613a9f579061065291613a99613a46565b916135a4565b5090565b6002548015613a9f579061065291613ab9613a46565b91613774565b6002548015613a9f5761065291613ad4613a46565b90613774565b6002548015613a9f5761065291613aef613a46565b906135a4565b601b80545f9182805b838110613b0c575050505090565b828252805f80516020614a488339815191520154613b2981614222565b15613b3e575b50613b39906138fb565b613afe565b613b4a909591956133ec565b50509050613b578161435b565b8103908111610e0b578101809111610e0b5793613b39613b2f565b613b7a613a46565b60025480613b8757505090565b613b8f613af5565b8201809211610e0b5761065292613774565b9081602091031261055957610652906130dc565b60155460405163babcc53960e01b815233600482015291929190602090829060249082906001600160a01b03165afa9081156111d9575f91613c16575b501561226357613c11613c086106529284613c34565b92600b54612fa3565b600b55565b613c2e915060203d81116112e6576112d88183611d93565b5f613bf2565b90613c3e82613b72565b91613c6b8130337f0000000000000000000000000000000000000000000000000000000000000000613d0f565b6001600160a01b038216918215612f4f5760025490848201809211610e0b57613ca69160025560018060a01b03165f525f60205260405f2090565b838154019055815f7fddf252ad1be2c89b69c2b068fc378daa952ba7f163c4a11628f55a4df523b3ef6020604051878152a3604080519182526020820184905233917fdcbc1c05240f31ff3ad067ef1ee35ce4997762752e3a095284754544f4c709d79190a390565b6040516323b872dd60e01b60208201526001600160a01b039283166024820152929091166044830152606480830193909352918152611e7d91613d53608483611d93565b81516001600160a01b03909116915f91829160200182855af13d15613e05573d67ffffffffffffffff8111611d7257613dae9160405191613d9e6020601f19601f8401160184611d93565b82523d5f602084013e5b83613e11565b8051908115159182613de7575b5050613dc45750565b604051635274afe760e01b81526001600160a01b03919091166004820152602490fd5b613dfe925090602080610a20938301019101613ba1565b5f80613dbb565b613dae90606090613da8565b90613e385750805115613e2657805190602001fd5b604051630a12f52160e11b8152600490fd5b81511580613e6b575b613e49575090565b604051639996b31560e01b81526001600160a01b039091166004820152602490fd5b50803b15613e41565b600a5490929190613e8d906001600160a01b0316610e9a565b60405163484d384560e11b815260048101859052939060e090859060249082905afa9384156111d9575f94613f80575b50611619613ed3915f52601960205260405f2090565b613ee0610a208251151590565b613f6e5761ffff613ef9610f2860a084015161ffff1690565b92169182118015613f66575b6120ec57612623613f3061261e6060613f26613f439661012087015161363b565b9701514290613165565b61350e610f2861010085015161ffff1690565b93909192613f5e613f58846126368789612fa3565b83613165565b919493929190565b508115613f05565b60405163649ac74160e11b8152600490fd5b613ed3919450613fa06116199160e03d8111611264576112558183611d93565b949150613ebd565b601d54600160401b811015611d72576001810180601d558110156128cf57601d5f527f6d4407e7be21f808e6509aa9fa9143369579dd7d760fe20a2c09680fc146134f0155565b601b54600160401b811015611d72576001810180601b558110156128cf57601b5f525f80516020614a488339815191520155565b60405163a9059cbb60e01b60208201526001600160a01b039092166024830152604480830193909352918152608081019167ffffffffffffffff831182841017611d7257611e7d92604052613d53565b67ffffffffffffffff8111611d725760051b60200190565b9061409582614073565b6140a26040519182611d93565b82815280926140b3601f1991614073565b0190602036910137565b80518210156128cf5760209160051b010190565b601b5490601d54916140eb6140e68483612fa3565b61408b565b906140f58161408b565b935f908192825b81811061415b5750505f5b818110614118575050825283529190565b8061412861397661413c936128d4565b614131816141bd565b614141575b506138fb565b614107565b61415461414d866138fb565b95886140bd565b525f614136565b8061416b61397661419293612909565b614174816141bd565b156141975761418c614185876138fb565b96896140bd565b526138fb565b6140fc565b6141a081614222565b6141aa57506138fb565b6141546141b6886138fb565b978b6140bd565b600a5460405163484d384560e11b8152600481019290925260e090829060249082906001600160a01b03165afa9081156111d9575f91614204575b5060a081519101511490565b61421c915060e03d8111611264576112558183611d93565b5f6141f8565b600a5460405163484d384560e11b8152600481019290925260e090829060249082906001600160a01b03165afa80156111d9576060915f91614288575b5001516014546201518090818102918183041490151715610e0b5761428391612fa3565b421190565b6142a0915060e03d8111611264576112558183611d93565b5f61425f565b9060206106529281815201906112ed565b92600854908101809111610e0b576008556142d18161435b565b90818103908111610e0b57835f52601760205260405f2055601f6020528060405f2055601254908101809111610e0b57601255600754908101809111610e0b57600755601c54600160401b811015611d72576001810180601c558110156128cf57601c5f527f0e4562a10381dec21b205ed72637e6b1b523bdd0e4d4d50af5cd23dd4500a2110155565b61ffff601154166103e890818102918183041490151715610e0b57610652916136a3565b5f905b601d918254928382101561446757805f5282827f6d4407e7be21f808e6509aa9fa9143369579dd7d760fe20a2c09680fc146134f0154146143cf57506143c99192506138fb565b90614382565b91505f1992838101908111610e0b57614414916143ee6143f7926128d4565b929054916128d4565b91909260031b1c9082549060031b91821b915f19901b1916179055565b805491821561445357820191808310156128cf577f6d4407e7be21f808e6509aa9fa9143369579dd7d760fe20a2c09680fc146134e5f91838352015555565b634e487b7160e01b5f52603160045260245ffd5b50505050565b600160ff1b8114610e0b575f0390565b5f905b601b918254928382101561446757805f5282825f80516020614a488339815191520154146144ba57506144b49192506138fb565b90614480565b91505f1992838101908111610e0b576144e2916144d96143f792612909565b92905491612909565b805491821561445357820191808310156128cf577f3ad8aa4f87544323a9d1e5dd902f40c356527a7955687113db5f9a85ad579dc05f91838352015555565b600a5460405163484d384560e11b8152600481018390529060e090829060249082906001600160a01b03165afa80156111d95760a0614576916006935f91614584575b500151925f52601960205260405f2090565b01548103908111610e0b5790565b61459c915060e03d8111611264576112558183611d93565b5f614564565b5f80601b8054905b8183106145b75750505090565b909192815f52835f80516020614a4883398151915201546145d781614222565b5f9190156145fd5750505f5b8101809111610e0b576145f690936138fb565b91906145aa565b8152601960205260409020600c01546145e3565b614619613a46565b6146216145a2565b8103908111610e0b575f8091601b545b80841061464357506106529250613165565b9091835f80516020614a4883398151915201545f52601960205260405f20600c600b8201549101548103908111610e0b578101809111610e0b5761468790936138fb565b929190614631565b614697614611565b61469f613a46565b156146ad5761065290613aa3565b505f90565b6146d2612436611a348560018060a01b03165f525f60205260405f205490565b8082116146f1575090816146e861065293613a83565b9384923361471f565b604051633fa733bb60e21b81526001600160a01b038516600482015260248101929092526044820152606490fd5b6001600160a01b0380841695818316949193929091908288870361486b575b50508615612f67576001600160a01b0381165f9081526020819052604090205482811061483b5791614836916147a9827ffbde797d201c681b91056529119e0b02407c7bb96a4a2c75c01fc9667232c8db979695039160018060a01b03165f525f60205260405f2090565b556147b78160025403600255565b5f887fddf252ad1be2c89b69c2b068fc378daa952ba7f163c4a11628f55a4df523b3ef604051806147ed86829190602083019252565b0390a361481b87847f0000000000000000000000000000000000000000000000000000000000000000614023565b60405193849316968360209093929193604081019481520152565b0390a4565b60405163391434e360e21b81526001600160a01b0392909216600483015260248201526044810191909152606490fd5b6148759183612fb0565b5f8261473e565b601554614891906001600160a01b0316610e9a565b60405163babcc53960e01b808252336004830152602092918381602481865afa9081156111d9575f91614932575b5015612263576040519081526001600160a01b0386166004820152908290829060249082905afa9182156111d9575f92614915575b5050156122255790614906929161494f565b61065261221082600c54612fa3565b61492b9250803d106112e6576112d88183611d93565b5f806148f4565b6149499150843d86116112e6576112d88183611d93565b5f6148bf565b9061496d6125878460018060a01b03165f525f60205260405f205490565b80831161498c5750906106529161498382613abf565b9384913361471f565b604051632e52afbb60e21b81526001600160a01b0385166004820152602481018490526044810191909152606490fd5b60405190610140820182811067ffffffffffffffff821117611d725760405281606081526101205f918260208201528260408201528260608201528260808201528260a08201528260c08201528260e0820152826101008201520152565b60026040611e7d9380518455602081015160018501550151151591019060ff80198354169115151617905556fe3ad8aa4f87544323a9d1e5dd902f40c356527a7955687113db5f9a85ad579dc1a2646970667358221220a8abb7a74f31fba9e62f40c34822debe3ee080a65134a9c32af695c2c7042b6e64736f6c634300081400331b6847dc741a1b0cd08d278845f9d819d87b734759afb55fe2de5cb82a9ae672",
  "devdoc": {
    "author": "@solidoracle",
    "errors": {
      "AddressEmptyCode(address)": [
        {
          "details": "There's no code at `target` (it is not a contract)."
        }
      ],
      "AddressInsufficientBalance(address)": [
        {
          "details": "The ETH balance of the account is not enough to perform the operation."
        }
      ],
      "ERC20InsufficientAllowance(address,uint256,uint256)": [
        {
          "details": "Indicates a failure with the `spender`s `allowance`. Used in transfers.",
          "params": {
            "allowance": "Amount of tokens a `spender` is allowed to operate with.",
            "needed": "Minimum amount required to perform a transfer.",
            "spender": "Address that may be allowed to operate on tokens without being their owner."
          }
        }
      ],
      "ERC20InsufficientBalance(address,uint256,uint256)": [
        {
          "details": "Indicates an error related to the current `balance` of a `sender`. Used in transfers.",
          "params": {
            "balance": "Current balance for the interacting account.",
            "needed": "Minimum amount required to perform a transfer.",
            "sender": "Address whose tokens are being transferred."
          }
        }
      ],
      "ERC20InvalidApprover(address)": [
        {
          "details": "Indicates a failure with the `approver` of a token to be approved. Used in approvals.",
          "params": {
            "approver": "Address initiating an approval operation."
          }
        }
      ],
      "ERC20InvalidReceiver(address)": [
        {
          "details": "Indicates a failure with the token `receiver`. Used in transfers.",
          "params": {
            "receiver": "Address to which tokens are being transferred."
          }
        }
      ],
      "ERC20InvalidSender(address)": [
        {
          "details": "Indicates a failure with the token `sender`. Used in transfers.",
          "params": {
            "sender": "Address whose tokens are being transferred."
          }
        }
      ],
      "ERC20InvalidSpender(address)": [
        {
          "details": "Indicates a failure with the `spender` to be approved. Used in approvals.",
          "params": {
            "spender": "Address that may be allowed to operate on tokens without being their owner."
          }
        }
      ],
      "ERC4626ExceededMaxDeposit(address,uint256,uint256)": [
        {
          "details": "Attempted to deposit more assets than the max amount for `receiver`."
        }
      ],
      "ERC4626ExceededMaxMint(address,uint256,uint256)": [
        {
          "details": "Attempted to mint more shares than the max amount for `receiver`."
        }
      ],
      "ERC4626ExceededMaxRedeem(address,uint256,uint256)": [
        {
          "details": "Attempted to redeem more shares than the max amount for `receiver`."
        }
      ],
      "ERC4626ExceededMaxWithdraw(address,uint256,uint256)": [
        {
          "details": "Attempted to withdraw more assets than the max amount for `receiver`."
        }
      ],
      "FailedInnerCall()": [
        {
          "details": "A call to an address target failed. The target may have reverted."
        }
      ],
      "MathOverflowedMulDiv()": [
        {
          "details": "Muldiv operation overflow."
        }
      ],
      "OwnableInvalidOwner(address)": [
        {
          "details": "The owner is not a valid owner account. (eg. `address(0)`)"
        }
      ],
      "OwnableUnauthorizedAccount(address)": [
        {
          "details": "The caller account is not authorized to perform an operation."
        }
      ],
      "SafeERC20FailedOperation(address)": [
        {
          "details": "An operation with an ERC20 token failed."
        }
      ]
    },
    "events": {
      "Approval(address,address,uint256)": {
        "details": "Emitted when the allowance of a `spender` for an `owner` is set by a call to {approve}. `value` is the new allowance."
      },
      "Transfer(address,address,uint256)": {
        "details": "Emitted when `value` tokens are moved from one account (`from`) to another (`to`). Note that `value` may be zero."
      }
    },
    "kind": "dev",
    "methods": {
      "allowance(address,address)": {
        "details": "See {IERC20-allowance}."
      },
      "approve(address,uint256)": {
        "details": "See {IERC20-approve}. NOTE: If `value` is the maximum `uint256`, the allowance is not updated on `transferFrom`. This is semantically equivalent to an infinite approval. Requirements: - `spender` cannot be the zero address."
      },
      "approveInvoice(uint256,uint16,uint16,uint16)": {
        "params": {
          "invoiceId": "The ID of the invoice to approve"
        }
      },
      "asset()": {
        "details": "See {IERC4626-asset}. "
      },
      "balanceOf(address)": {
        "details": "See {IERC20-balanceOf}."
      },
      "calculateAccruedProfits()": {
        "details": "Iterates through all active invoices, calculates interest for each, deducts taxes, and sums the net accrued interest",
        "returns": {
          "accruedProfits": "The total net accrued profits across all active invoices"
        }
      },
      "calculateCapitalAccount()": {
        "returns": {
          "_0": "The calculated capital account balance"
        }
      },
      "calculateKickbackAmount(uint256)": {
        "params": {
          "invoiceId": "The ID of the invoice for which to calculate the kickback amount"
        },
        "returns": {
          "kickbackAmount": "The calculated kickback amount",
          "trueAdminFee": "The true admin fee amount",
          "trueInterest": "The true interest amount",
          "trueProtocolFee": "The true protocol fee amount"
        }
      },
      "calculateRealizedGainLoss()": {
        "returns": {
          "_0": "The total realized gain adjusted for losses"
        }
      },
      "calculateTargetFees(uint256,uint16)": {
        "params": {
          "factorerUpfrontBps": "The upfront bps specified by the factorer",
          "invoiceId": "The ID of the invoice for which to calculate the fees"
        },
        "returns": {
          "adminFee": "The target calculated admin fee",
          "fundedAmountGross": "The gross amount to be funded to the factorer",
          "netFundedAmount": "The net amount that will be funded to the factorer after deducting fees",
          "targetInterest": "The calculated interest fee",
          "targetProtocolFee": "The calculated protocol fee"
        }
      },
      "constructor": {
        "params": {
          "_asset": "underlying supported stablecoin asset for deposit ",
          "_invoiceProviderAdapter": "adapter for invoice provider",
          "_underwriter": "address of the underwriter"
        }
      },
      "convertToAssets(uint256)": {
        "details": "See {IERC4626-convertToAssets}. "
      },
      "convertToShares(uint256)": {
        "details": "See {IERC4626-convertToShares}. "
      },
      "decimals()": {
        "returns": {
          "_0": "The number of decimals for this token"
        }
      },
      "deployedCapitalForActiveInvoicesExcludingImpaired()": {
        "returns": {
          "_0": "The total funded amount for all active invoices"
        }
      },
      "deposit(uint256,address)": {
        "params": {
          "assets": "The amount of assets to deposit",
          "receiver": "The address to receive the fund shares"
        },
        "returns": {
          "_0": "The number of shares issued for the deposit"
        }
      },
      "depositWithAttachment(uint256,address,(bytes32,uint8,uint8))": {
        "params": {
          "assets": "The amount of assets to deposit",
          "attachment": "The attachment data for the deposit",
          "receiver": "The address to receive the fund shares"
        },
        "returns": {
          "_0": "The number of shares issued for the deposit"
        }
      },
      "fundInvoice(uint256,uint16)": {
        "details": "No checks needed for the creditor, as transferFrom will revert unless it gets executed by the nft owner (i.e. claim creditor)",
        "params": {
          "factorerUpfrontBps": "factorer specified upfront bps",
          "invoiceId": "The ID of the invoice to fund"
        }
      },
      "getFundInfo()": {
        "returns": {
          "_0": "FundInfo The fund information"
        }
      },
      "impairInvoice(uint256)": {
        "params": {
          "invoiceId": "The ID of the invoice to impair"
        }
      },
      "maxDeposit(address)": {
        "details": "See {IERC4626-maxDeposit}. "
      },
      "maxMint(address)": {
        "details": "See {IERC4626-maxMint}. "
      },
      "maxRedeem()": {
        "returns": {
          "_0": "The maximum number of shares that can be redeemed"
        }
      },
      "maxRedeem(address)": {
        "params": {
          "_owner": "The owner of the shares being redeemed"
        },
        "returns": {
          "_0": "The maximum number of shares that can be redeemed"
        }
      },
      "maxWithdraw(address)": {
        "params": {
          "_owner": "The owner of the assets to be withdrawn"
        },
        "returns": {
          "_0": "The maximum number of assets that can be withdrawn"
        }
      },
      "name()": {
        "details": "Returns the name of the token."
      },
      "owner()": {
        "details": "Returns the address of the current owner."
      },
      "previewDeposit(uint256)": {
        "details": "See {IERC4626-previewDeposit}. "
      },
      "previewMint(uint256)": {
        "details": "See {IERC4626-previewMint}. "
      },
      "previewRedeem(uint256)": {
        "details": "See {IERC4626-previewRedeem}. "
      },
      "previewWithdraw(uint256)": {
        "details": "See {IERC4626-previewWithdraw}. "
      },
      "pricePerShare()": {
        "returns": {
          "_0": "The current price per share, scaled to the underlying asset's decimal places"
        }
      },
      "reconcileActivePaidInvoices()": {
        "details": "This function should be called when viewPoolStatus returns some updates, to ensure accurate accounting"
      },
      "redeem(uint256,address,address)": {
        "params": {
          "_owner": "The owner of the shares being redeemed",
          "receiver": "The address to receive the assets",
          "shares": "The number of shares to redeem"
        },
        "returns": {
          "_0": "The number of shares redeemed"
        }
      },
      "redeemWithAttachment(uint256,address,address,(bytes32,uint8,uint8))": {
        "params": {
          "_owner": "The owner of the shares being redeemed",
          "attachment": "The attachment data for the redemption",
          "receiver": "The address to receive the redeemed assets",
          "shares": "The number of shares to redeem"
        },
        "returns": {
          "_0": "The amount of assets redeemed"
        }
      },
      "renounceOwnership()": {
        "details": "Leaves the contract without owner. It will not be possible to call `onlyOwner` functions. Can only be called by the current owner. NOTE: Renouncing ownership will leave the contract without an owner, thereby disabling any functionality that is only available to the owner."
      },
      "setAdminFeeBps(uint16)": {
        "params": {
          "_newAdminFeeBps": "The new admin fee in basis points"
        }
      },
      "setApprovalDuration(uint256)": {
        "details": "This function can only be called by the contract owner",
        "params": {
          "_duration": "The new duration in seconds"
        }
      },
      "setBullaDaoAddress(address)": {
        "params": {
          "_newBullaDao": "The new address for the Bulla DAO"
        }
      },
      "setDepositPermissions(address)": {
        "params": {
          "_newDepositPermissionsAddress": "The new deposit permissions contract address"
        }
      },
      "setFactoringPermissions(address)": {
        "params": {
          "_newFactoringPermissionsAddress": "The address of the new factoring permissions contract"
        }
      },
      "setGracePeriodDays(uint256)": {
        "details": "This function can only be called by the contract owner",
        "params": {
          "_days": "The number of days for the grace period"
        }
      },
      "setImpairReserve(uint256)": {
        "params": {
          "_impairReserve": "The new impair reserve amount"
        }
      },
      "setProtocolFeeBps(uint16)": {
        "params": {
          "_newProtocolFeeBps": "The new protocol fee in basis points"
        }
      },
      "setTargetYield(uint16)": {
        "params": {
          "_targetYieldBps": "The new target yield in basis points"
        }
      },
      "setTaxBps(uint16)": {
        "details": "This function can only be called by the contract owner",
        "params": {
          "_newTaxBps": "The new tax rate in basis points"
        }
      },
      "setUnderwriter(address)": {
        "params": {
          "_newUnderwriter": "The address of the new underwriter"
        }
      },
      "symbol()": {
        "details": "Returns the symbol of the token, usually a shorter version of the name."
      },
      "totalAssets()": {
        "returns": {
          "_0": "The amount of assets available for withdrawal or new investments, excluding funds allocated to active invoices"
        }
      },
      "totalSupply()": {
        "details": "See {IERC20-totalSupply}."
      },
      "transfer(address,uint256)": {
        "details": "See {IERC20-transfer}. Requirements: - `to` cannot be the zero address. - the caller must have a balance of at least `value`."
      },
      "transferFrom(address,address,uint256)": {
        "details": "See {IERC20-transferFrom}. Emits an {Approval} event indicating the updated allowance. This is not required by the EIP. See the note at the beginning of {ERC20}. NOTE: Does not update the allowance if the current allowance is the maximum `uint256`. Requirements: - `from` and `to` cannot be the zero address. - `from` must have a balance of at least `value`. - the caller must have allowance for ``from``'s tokens of at least `value`."
      },
      "transferOwnership(address)": {
        "details": "Transfers ownership of the contract to a new account (`newOwner`). Can only be called by the current owner."
      },
      "unfactorInvoice(uint256)": {
        "params": {
          "invoiceId": "The ID of the invoice to unfactor"
        }
      },
      "viewPoolStatus()": {
        "returns": {
          "impairedInvoices": "An array of impaired invoice IDs",
          "paidInvoices": "An array of paid invoice IDs"
        }
      },
      "withdraw(uint256,address,address)": {
        "params": {
          "_owner": "The address who owns the shares to redeem",
          "assets": "The amount of assets to withdraw",
          "receiver": "The address to receive the assets"
        },
        "returns": {
          "_0": "The number of shares redeemed"
        }
      },
      "withdrawTaxBalance()": {
        "details": "This function can only be called by the contract owner"
      }
    },
    "title": "Bulla Factoring Fund",
    "version": 1
  },
  "userdoc": {
    "errors": {
      "CallerNotUnderwriter()": [
        {
          "notice": "Errors"
        }
      ]
    },
    "kind": "user",
    "methods": {
      "activeInvoices(uint256)": {
        "notice": "Array to hold the IDs of all active invoices"
      },
      "adminFeeBalance()": {
        "notice": "Accumulated admin fee balance"
      },
      "adminFeeBps()": {
        "notice": "Admin fee in basis points"
      },
      "approvalDuration()": {
        "notice": "The duration of invoice approval before it expires"
      },
      "approveInvoice(uint256,uint16,uint16,uint16)": {
        "notice": "Approves an invoice for funding, can only be called by the underwriter"
      },
      "approvedInvoices(uint256)": {
        "notice": "Mapping from invoice ID to invoice approval details"
      },
      "assetAddress()": {
        "notice": "Address of the underlying asset token (e.g., USDC)"
      },
      "bullaDao()": {
        "notice": "Address of the Bulla DAO, a trusted multisig"
      },
      "calculateAccruedProfits()": {
        "notice": "Calculates the total accrued profits from all active invoices"
      },
      "calculateCapitalAccount()": {
        "notice": "Calculates the capital account balance, including deposits, withdrawals, and realized gains/losses"
      },
      "calculateKickbackAmount(uint256)": {
        "notice": "Calculates the kickback amount for a given funded amount allowing early payment"
      },
      "calculateRealizedGainLoss()": {
        "notice": "Calculates the total realized gain or loss from paid and impaired invoices"
      },
      "calculateTargetFees(uint256,uint16)": {
        "notice": "Calculates the true fees and net funded amount for a given invoice and factorer's upfront bps, annualised"
      },
      "creationTimestamp()": {
        "notice": "Timestamp of the fund's creation"
      },
      "decimals()": {
        "notice": "Returns the number of decimals the token uses, same as the underlying asset"
      },
      "deployedCapitalForActiveInvoicesExcludingImpaired()": {
        "notice": "Calculates the total funded amount for all active invoices."
      },
      "deposit(uint256,address)": {
        "notice": "Helper function to handle the logic of depositing assets in exchange for fund shares"
      },
      "depositPermissions()": {
        "notice": "Permissions contracts for deposit and factoring"
      },
      "depositWithAttachment(uint256,address,(bytes32,uint8,uint8))": {
        "notice": "Allows for the deposit of assets in exchange for fund shares with an attachment"
      },
      "fundInvoice(uint256,uint16)": {
        "notice": "Funds a single invoice, transferring the funded amount from the fund to the caller and transferring the invoice NFT to the fund"
      },
      "getFundInfo()": {
        "notice": "Retrieves the fund information"
      },
      "gracePeriodDays()": {
        "notice": "Grace period for invoices"
      },
      "impairInvoice(uint256)": {
        "notice": "Impairs an invoice, using the impairment reserve to cover the loss"
      },
      "impairReserve()": {
        "notice": "Reserve amount for impairment"
      },
      "impairments(uint256)": {
        "notice": "Mapping from invoice ID to impairment details"
      },
      "invoiceProviderAdapter()": {
        "notice": "Address of the invoice provider contract adapter"
      },
      "maxRedeem()": {
        "notice": "Calculates the maximum amount of shares that can be redeemed based on the total assets in the fund"
      },
      "maxRedeem(address)": {
        "notice": "Calculates the maximum amount of shares that can be redeemed based on the total assets in the fund"
      },
      "maxWithdraw(address)": {
        "notice": "Calculates the maximum amount of assets that can be withdrawn"
      },
      "originalCreditors(uint256)": {
        "notice": "Mapping from invoice ID to original creditor's address"
      },
      "paidInvoiceTax(uint256)": {
        "notice": "Mapping from invoice ID to tax amount"
      },
      "paidInvoicesGain(uint256)": {
        "notice": "Mapping of paid invoices ID to track gains/losses"
      },
      "poolName()": {
        "notice": "Name of the factoring pool"
      },
      "pricePerShare()": {
        "notice": "Calculates the current price per share of the fund, "
      },
      "protocolFeeBalance()": {
        "notice": "Accumulated protocol fee balance"
      },
      "protocolFeeBps()": {
        "notice": "Protocol fee in basis points"
      },
      "reconcileActivePaidInvoices()": {
        "notice": "Reconciles the list of active invoices with those that have been paid, updating the fund's records"
      },
      "redeem(uint256,address,address)": {
        "notice": "Helper function to handle the logic of redeeming shares in exchange for assets"
      },
      "redeemWithAttachment(uint256,address,address,(bytes32,uint8,uint8))": {
        "notice": "Redeems shares for underlying assets with an attachment, transferring the assets to the specified receiver"
      },
      "setAdminFeeBps(uint16)": {
        "notice": "Sets the admin fee in basis points"
      },
      "setApprovalDuration(uint256)": {
        "notice": "Sets the duration for which invoice approvals are valid"
      },
      "setBullaDaoAddress(address)": {
        "notice": "Updates the Bulla DAO address"
      },
      "setDepositPermissions(address)": {
        "notice": "Updates the deposit permissions contract"
      },
      "setFactoringPermissions(address)": {
        "notice": "Updates the factoring permissions contract"
      },
      "setGracePeriodDays(uint256)": {
        "notice": "Sets the grace period in days for determining if an invoice is impaired"
      },
      "setImpairReserve(uint256)": {
        "notice": "Sets the impair reserve amount"
      },
      "setProtocolFeeBps(uint16)": {
        "notice": "Updates the protocol fee in basis points (bps)"
      },
      "setTargetYield(uint16)": {
        "notice": "Sets the target yield in basis points"
      },
      "setTaxBps(uint16)": {
        "notice": "Sets the tax basis points (bps)"
      },
      "setUnderwriter(address)": {
        "notice": "Sets a new underwriter for the contract"
      },
      "targetYieldBps()": {
        "notice": "Target yield in basis points"
      },
      "taxBalance()": {
        "notice": "Accumulated tax balance"
      },
      "taxBps()": {
        "notice": "Tax rate in basis points"
      },
      "totalAssets()": {
        "notice": "Calculates the available assets in the fund net of fees, impair reserve and tax"
      },
      "underwriter()": {
        "notice": "Address of the underwriter, trusted to approve invoices"
      },
      "unfactorInvoice(uint256)": {
        "notice": "Unfactors an invoice, returning the invoice NFT to the original creditor and refunding the funded amount"
      },
      "viewPoolStatus()": {
        "notice": "Provides a view of the pool's status, listing paid and impaired invoices, to be called by Gelato or alike"
      },
      "withdraw(uint256,address,address)": {
        "notice": "Helper function to handle the logic of withdrawing assets in exchange for fund shares"
      },
      "withdrawAdminFees()": {
        "notice": "Allows the Pool Owner to withdraw accumulated admin fees."
      },
      "withdrawProtocolFees()": {
        "notice": "Allows the Bulla DAO to withdraw accumulated protocol fees."
      },
      "withdrawTaxBalance()": {
        "notice": "Withdraws the accumulated tax balance to the pool owner"
      }
    },
    "notice": "Bulla Factoring Fund is a ERC4626 compatible fund that allows for the factoring of invoices",
    "version": 1
  },
  "storageLayout": {
    "storage": [
      {
        "astId": 3215,
        "contract": "contracts/BullaFactoring.sol:BullaFactoring",
        "label": "_balances",
        "offset": 0,
        "slot": "0",
        "type": "t_mapping(t_address,t_uint256)"
      },
      {
        "astId": 3221,
        "contract": "contracts/BullaFactoring.sol:BullaFactoring",
        "label": "_allowances",
        "offset": 0,
        "slot": "1",
        "type": "t_mapping(t_address,t_mapping(t_address,t_uint256))"
      },
      {
        "astId": 3223,
        "contract": "contracts/BullaFactoring.sol:BullaFactoring",
        "label": "_totalSupply",
        "offset": 0,
        "slot": "2",
        "type": "t_uint256"
      },
      {
        "astId": 3225,
        "contract": "contracts/BullaFactoring.sol:BullaFactoring",
        "label": "_name",
        "offset": 0,
        "slot": "3",
        "type": "t_string_storage"
      },
      {
        "astId": 3227,
        "contract": "contracts/BullaFactoring.sol:BullaFactoring",
        "label": "_symbol",
        "offset": 0,
        "slot": "4",
        "type": "t_string_storage"
      },
      {
        "astId": 2746,
        "contract": "contracts/BullaFactoring.sol:BullaFactoring",
        "label": "_owner",
        "offset": 0,
        "slot": "5",
        "type": "t_address"
      },
      {
        "astId": 6449,
        "contract": "contracts/BullaFactoring.sol:BullaFactoring",
        "label": "bullaDao",
        "offset": 0,
        "slot": "6",
        "type": "t_address"
      },
      {
        "astId": 6452,
        "contract": "contracts/BullaFactoring.sol:BullaFactoring",
        "label": "protocolFeeBps",
        "offset": 20,
        "slot": "6",
        "type": "t_uint16"
      },
      {
        "astId": 6455,
        "contract": "contracts/BullaFactoring.sol:BullaFactoring",
        "label": "adminFeeBps",
        "offset": 22,
        "slot": "6",
        "type": "t_uint16"
      },
      {
        "astId": 6458,
        "contract": "contracts/BullaFactoring.sol:BullaFactoring",
        "label": "protocolFeeBalance",
        "offset": 0,
        "slot": "7",
        "type": "t_uint256"
      },
      {
        "astId": 6461,
        "contract": "contracts/BullaFactoring.sol:BullaFactoring",
        "label": "adminFeeBalance",
        "offset": 0,
        "slot": "8",
        "type": "t_uint256"
      },
      {
        "astId": 6465,
        "contract": "contracts/BullaFactoring.sol:BullaFactoring",
        "label": "assetAddress",
        "offset": 0,
        "slot": "9",
        "type": "t_contract(IERC20)3785"
      },
      {
        "astId": 6469,
        "contract": "contracts/BullaFactoring.sol:BullaFactoring",
        "label": "invoiceProviderAdapter",
        "offset": 0,
        "slot": "10",
        "type": "t_contract(IInvoiceProviderAdapter)9997"
      },
      {
        "astId": 6471,
        "contract": "contracts/BullaFactoring.sol:BullaFactoring",
        "label": "totalDeposits",
        "offset": 0,
        "slot": "11",
        "type": "t_uint256"
      },
      {
        "astId": 6473,
        "contract": "contracts/BullaFactoring.sol:BullaFactoring",
        "label": "totalWithdrawals",
        "offset": 0,
        "slot": "12",
        "type": "t_uint256"
      },
      {
        "astId": 6476,
        "contract": "contracts/BullaFactoring.sol:BullaFactoring",
        "label": "underwriter",
        "offset": 0,
        "slot": "13",
        "type": "t_address"
      },
      {
        "astId": 6479,
        "contract": "contracts/BullaFactoring.sol:BullaFactoring",
        "label": "creationTimestamp",
        "offset": 0,
        "slot": "14",
        "type": "t_uint256"
      },
      {
        "astId": 6482,
        "contract": "contracts/BullaFactoring.sol:BullaFactoring",
        "label": "impairReserve",
        "offset": 0,
        "slot": "15",
        "type": "t_uint256"
      },
      {
        "astId": 6485,
        "contract": "contracts/BullaFactoring.sol:BullaFactoring",
        "label": "poolName",
        "offset": 0,
        "slot": "16",
        "type": "t_string_storage"
      },
      {
        "astId": 6488,
        "contract": "contracts/BullaFactoring.sol:BullaFactoring",
        "label": "taxBps",
        "offset": 0,
        "slot": "17",
        "type": "t_uint16"
      },
      {
        "astId": 6491,
        "contract": "contracts/BullaFactoring.sol:BullaFactoring",
        "label": "taxBalance",
        "offset": 0,
        "slot": "18",
        "type": "t_uint256"
      },
      {
        "astId": 6494,
        "contract": "contracts/BullaFactoring.sol:BullaFactoring",
        "label": "targetYieldBps",
        "offset": 0,
        "slot": "19",
        "type": "t_uint16"
      },
      {
        "astId": 6498,
        "contract": "contracts/BullaFactoring.sol:BullaFactoring",
        "label": "gracePeriodDays",
        "offset": 0,
        "slot": "20",
        "type": "t_uint256"
      },
      {
        "astId": 6502,
        "contract": "contracts/BullaFactoring.sol:BullaFactoring",
        "label": "depositPermissions",
        "offset": 0,
        "slot": "21",
        "type": "t_contract(Permissions)9578"
      },
      {
        "astId": 6505,
        "contract": "contracts/BullaFactoring.sol:BullaFactoring",
        "label": "factoringPermissions",
        "offset": 0,
        "slot": "22",
        "type": "t_contract(Permissions)9578"
      },
      {
        "astId": 6510,
        "contract": "contracts/BullaFactoring.sol:BullaFactoring",
        "label": "paidInvoicesGain",
        "offset": 0,
        "slot": "23",
        "type": "t_mapping(t_uint256,t_uint256)"
      },
      {
        "astId": 6515,
        "contract": "contracts/BullaFactoring.sol:BullaFactoring",
        "label": "originalCreditors",
        "offset": 0,
        "slot": "24",
        "type": "t_mapping(t_uint256,t_address)"
      },
      {
        "astId": 6521,
        "contract": "contracts/BullaFactoring.sol:BullaFactoring",
        "label": "approvedInvoices",
        "offset": 0,
        "slot": "25",
        "type": "t_mapping(t_uint256,t_struct(InvoiceApproval)9721_storage)"
      },
      {
        "astId": 6525,
        "contract": "contracts/BullaFactoring.sol:BullaFactoring",
        "label": "approvalDuration",
        "offset": 0,
        "slot": "26",
        "type": "t_uint256"
      },
      {
        "astId": 6529,
        "contract": "contracts/BullaFactoring.sol:BullaFactoring",
        "label": "activeInvoices",
        "offset": 0,
        "slot": "27",
        "type": "t_array(t_uint256)dyn_storage"
      },
      {
        "astId": 6533,
        "contract": "contracts/BullaFactoring.sol:BullaFactoring",
        "label": "paidInvoicesIds",
        "offset": 0,
        "slot": "28",
        "type": "t_array(t_uint256)dyn_storage"
      },
      {
        "astId": 6537,
        "contract": "contracts/BullaFactoring.sol:BullaFactoring",
        "label": "impairedByFundInvoicesIds",
        "offset": 0,
        "slot": "29",
        "type": "t_array(t_uint256)dyn_storage"
      },
      {
        "astId": 6543,
        "contract": "contracts/BullaFactoring.sol:BullaFactoring",
        "label": "impairments",
        "offset": 0,
        "slot": "30",
        "type": "t_mapping(t_uint256,t_struct(ImpairmentDetails)9756_storage)"
      },
      {
        "astId": 6548,
        "contract": "contracts/BullaFactoring.sol:BullaFactoring",
        "label": "paidInvoiceTax",
        "offset": 0,
        "slot": "31",
        "type": "t_mapping(t_uint256,t_uint256)"
      }
    ],
    "types": {
      "t_address": {
        "encoding": "inplace",
        "label": "address",
        "numberOfBytes": "20"
      },
      "t_array(t_uint256)dyn_storage": {
        "base": "t_uint256",
        "encoding": "dynamic_array",
        "label": "uint256[]",
        "numberOfBytes": "32"
      },
      "t_bool": {
        "encoding": "inplace",
        "label": "bool",
        "numberOfBytes": "1"
      },
      "t_contract(IERC20)3785": {
        "encoding": "inplace",
        "label": "contract IERC20",
        "numberOfBytes": "20"
      },
      "t_contract(IInvoiceProviderAdapter)9997": {
        "encoding": "inplace",
        "label": "contract IInvoiceProviderAdapter",
        "numberOfBytes": "20"
      },
      "t_contract(Permissions)9578": {
        "encoding": "inplace",
        "label": "contract Permissions",
        "numberOfBytes": "20"
      },
      "t_mapping(t_address,t_mapping(t_address,t_uint256))": {
        "encoding": "mapping",
        "key": "t_address",
        "label": "mapping(address => mapping(address => uint256))",
        "numberOfBytes": "32",
        "value": "t_mapping(t_address,t_uint256)"
      },
      "t_mapping(t_address,t_uint256)": {
        "encoding": "mapping",
        "key": "t_address",
        "label": "mapping(address => uint256)",
        "numberOfBytes": "32",
        "value": "t_uint256"
      },
      "t_mapping(t_uint256,t_address)": {
        "encoding": "mapping",
        "key": "t_uint256",
        "label": "mapping(uint256 => address)",
        "numberOfBytes": "32",
        "value": "t_address"
      },
      "t_mapping(t_uint256,t_struct(ImpairmentDetails)9756_storage)": {
        "encoding": "mapping",
        "key": "t_uint256",
        "label": "mapping(uint256 => struct IBullaFactoring.ImpairmentDetails)",
        "numberOfBytes": "32",
        "value": "t_struct(ImpairmentDetails)9756_storage"
      },
      "t_mapping(t_uint256,t_struct(InvoiceApproval)9721_storage)": {
        "encoding": "mapping",
        "key": "t_uint256",
        "label": "mapping(uint256 => struct IBullaFactoring.InvoiceApproval)",
        "numberOfBytes": "32",
        "value": "t_struct(InvoiceApproval)9721_storage"
      },
      "t_mapping(t_uint256,t_uint256)": {
        "encoding": "mapping",
        "key": "t_uint256",
        "label": "mapping(uint256 => uint256)",
        "numberOfBytes": "32",
        "value": "t_uint256"
      },
      "t_string_storage": {
        "encoding": "bytes",
        "label": "string",
        "numberOfBytes": "32"
      },
      "t_struct(ImpairmentDetails)9756_storage": {
        "encoding": "inplace",
        "label": "struct IBullaFactoring.ImpairmentDetails",
        "members": [
          {
            "astId": 9751,
            "contract": "contracts/BullaFactoring.sol:BullaFactoring",
            "label": "gainAmount",
            "offset": 0,
            "slot": "0",
            "type": "t_uint256"
          },
          {
            "astId": 9753,
            "contract": "contracts/BullaFactoring.sol:BullaFactoring",
            "label": "lossAmount",
            "offset": 0,
            "slot": "1",
            "type": "t_uint256"
          },
          {
            "astId": 9755,
            "contract": "contracts/BullaFactoring.sol:BullaFactoring",
            "label": "isImpaired",
            "offset": 0,
            "slot": "2",
            "type": "t_bool"
          }
        ],
        "numberOfBytes": "96"
      },
      "t_struct(Invoice)9983_storage": {
        "encoding": "inplace",
        "label": "struct IInvoiceProviderAdapter.Invoice",
        "members": [
          {
            "astId": 9970,
            "contract": "contracts/BullaFactoring.sol:BullaFactoring",
            "label": "faceValue",
            "offset": 0,
            "slot": "0",
            "type": "t_uint256"
          },
          {
            "astId": 9972,
            "contract": "contracts/BullaFactoring.sol:BullaFactoring",
            "label": "creditor",
            "offset": 0,
            "slot": "1",
            "type": "t_address"
          },
          {
            "astId": 9974,
            "contract": "contracts/BullaFactoring.sol:BullaFactoring",
            "label": "debtor",
            "offset": 0,
            "slot": "2",
            "type": "t_address"
          },
          {
            "astId": 9976,
            "contract": "contracts/BullaFactoring.sol:BullaFactoring",
            "label": "dueDate",
            "offset": 0,
            "slot": "3",
            "type": "t_uint256"
          },
          {
            "astId": 9978,
            "contract": "contracts/BullaFactoring.sol:BullaFactoring",
            "label": "tokenAddress",
            "offset": 0,
            "slot": "4",
            "type": "t_address"
          },
          {
            "astId": 9980,
            "contract": "contracts/BullaFactoring.sol:BullaFactoring",
            "label": "paidAmount",
            "offset": 0,
            "slot": "5",
            "type": "t_uint256"
          },
          {
            "astId": 9982,
            "contract": "contracts/BullaFactoring.sol:BullaFactoring",
            "label": "isCanceled",
            "offset": 0,
            "slot": "6",
            "type": "t_bool"
          }
        ],
        "numberOfBytes": "224"
      },
      "t_struct(InvoiceApproval)9721_storage": {
        "encoding": "inplace",
        "label": "struct IBullaFactoring.InvoiceApproval",
        "members": [
          {
            "astId": 9697,
            "contract": "contracts/BullaFactoring.sol:BullaFactoring",
            "label": "approved",
            "offset": 0,
            "slot": "0",
            "type": "t_bool"
          },
          {
            "astId": 9700,
            "contract": "contracts/BullaFactoring.sol:BullaFactoring",
            "label": "invoiceSnapshot",
            "offset": 0,
            "slot": "1",
            "type": "t_struct(Invoice)9983_storage"
          },
          {
            "astId": 9702,
            "contract": "contracts/BullaFactoring.sol:BullaFactoring",
            "label": "validUntil",
            "offset": 0,
            "slot": "8",
            "type": "t_uint256"
          },
          {
            "astId": 9704,
            "contract": "contracts/BullaFactoring.sol:BullaFactoring",
            "label": "fundedTimestamp",
            "offset": 0,
            "slot": "9",
            "type": "t_uint256"
          },
          {
            "astId": 9706,
            "contract": "contracts/BullaFactoring.sol:BullaFactoring",
            "label": "interestApr",
            "offset": 0,
            "slot": "10",
            "type": "t_uint16"
          },
          {
            "astId": 9708,
            "contract": "contracts/BullaFactoring.sol:BullaFactoring",
            "label": "upfrontBps",
            "offset": 2,
            "slot": "10",
            "type": "t_uint16"
          },
          {
            "astId": 9710,
            "contract": "contracts/BullaFactoring.sol:BullaFactoring",
            "label": "fundedAmountGross",
            "offset": 0,
            "slot": "11",
            "type": "t_uint256"
          },
          {
            "astId": 9712,
            "contract": "contracts/BullaFactoring.sol:BullaFactoring",
            "label": "fundedAmountNet",
            "offset": 0,
            "slot": "12",
            "type": "t_uint256"
          },
          {
            "astId": 9714,
            "contract": "contracts/BullaFactoring.sol:BullaFactoring",
            "label": "minDaysInterestApplied",
            "offset": 0,
            "slot": "13",
            "type": "t_uint16"
          },
          {
            "astId": 9716,
            "contract": "contracts/BullaFactoring.sol:BullaFactoring",
            "label": "trueFaceValue",
            "offset": 0,
            "slot": "14",
            "type": "t_uint256"
          },
          {
            "astId": 9718,
            "contract": "contracts/BullaFactoring.sol:BullaFactoring",
            "label": "protocolFeeBps",
            "offset": 0,
            "slot": "15",
            "type": "t_uint16"
          },
          {
            "astId": 9720,
            "contract": "contracts/BullaFactoring.sol:BullaFactoring",
            "label": "adminFeeBps",
            "offset": 2,
            "slot": "15",
            "type": "t_uint16"
          }
        ],
        "numberOfBytes": "512"
      },
      "t_uint16": {
        "encoding": "inplace",
        "label": "uint16",
        "numberOfBytes": "2"
      },
      "t_uint256": {
        "encoding": "inplace",
        "label": "uint256",
        "numberOfBytes": "32"
      }
    }
  }
}