{
  "address": "0x23406d0Af351923D9845C5A726c21315Cbf36915",
  "abi": [
    {
      "inputs": [
        {
          "internalType": "contract IERC20",
          "name": "_asset",
          "type": "address"
        },
        {
          "internalType": "contract IInvoiceProviderAdapter",
          "name": "_invoiceProviderAdapter",
          "type": "address"
        },
        {
          "internalType": "address",
          "name": "_underwriter",
          "type": "address"
        },
        {
          "internalType": "contract Permissions",
          "name": "_depositPermissions",
          "type": "address"
        },
        {
          "internalType": "contract Permissions",
          "name": "_factoringPermissions",
          "type": "address"
        },
        {
          "internalType": "address",
          "name": "_bullaDao",
          "type": "address"
        },
        {
          "internalType": "uint16",
          "name": "_protocolFeeBps",
          "type": "uint16"
        },
        {
          "internalType": "uint16",
          "name": "_adminFeeBps",
          "type": "uint16"
        },
        {
          "internalType": "string",
          "name": "_poolName",
          "type": "string"
        },
        {
          "internalType": "uint16",
          "name": "_taxBps",
          "type": "uint16"
        },
        {
          "internalType": "uint16",
          "name": "_targetYieldBps",
          "type": "uint16"
        },
        {
          "internalType": "string",
          "name": "_tokenName",
          "type": "string"
        },
        {
          "internalType": "string",
          "name": "_tokenSymbol",
          "type": "string"
        }
      ],
      "stateMutability": "nonpayable",
      "type": "constructor"
    },
    {
      "inputs": [
        {
          "internalType": "address",
          "name": "target",
          "type": "address"
        }
      ],
      "name": "AddressEmptyCode",
      "type": "error"
    },
    {
      "inputs": [
        {
          "internalType": "address",
          "name": "account",
          "type": "address"
        }
      ],
      "name": "AddressInsufficientBalance",
      "type": "error"
    },
    {
      "inputs": [],
      "name": "ApprovalExpired",
      "type": "error"
    },
    {
      "inputs": [],
      "name": "CallerNotBullaDao",
      "type": "error"
    },
    {
      "inputs": [],
      "name": "CallerNotOriginalCreditor",
      "type": "error"
    },
    {
      "inputs": [],
      "name": "CallerNotUnderwriter",
      "type": "error"
    },
    {
      "inputs": [],
      "name": "DeductionsExceedsRealisedGains",
      "type": "error"
    },
    {
      "inputs": [
        {
          "internalType": "address",
          "name": "spender",
          "type": "address"
        },
        {
          "internalType": "uint256",
          "name": "allowance",
          "type": "uint256"
        },
        {
          "internalType": "uint256",
          "name": "needed",
          "type": "uint256"
        }
      ],
      "name": "ERC20InsufficientAllowance",
      "type": "error"
    },
    {
      "inputs": [
        {
          "internalType": "address",
          "name": "sender",
          "type": "address"
        },
        {
          "internalType": "uint256",
          "name": "balance",
          "type": "uint256"
        },
        {
          "internalType": "uint256",
          "name": "needed",
          "type": "uint256"
        }
      ],
      "name": "ERC20InsufficientBalance",
      "type": "error"
    },
    {
      "inputs": [
        {
          "internalType": "address",
          "name": "approver",
          "type": "address"
        }
      ],
      "name": "ERC20InvalidApprover",
      "type": "error"
    },
    {
      "inputs": [
        {
          "internalType": "address",
          "name": "receiver",
          "type": "address"
        }
      ],
      "name": "ERC20InvalidReceiver",
      "type": "error"
    },
    {
      "inputs": [
        {
          "internalType": "address",
          "name": "sender",
          "type": "address"
        }
      ],
      "name": "ERC20InvalidSender",
      "type": "error"
    },
    {
      "inputs": [
        {
          "internalType": "address",
          "name": "spender",
          "type": "address"
        }
      ],
      "name": "ERC20InvalidSpender",
      "type": "error"
    },
    {
      "inputs": [
        {
          "internalType": "address",
          "name": "receiver",
          "type": "address"
        },
        {
          "internalType": "uint256",
          "name": "assets",
          "type": "uint256"
        },
        {
          "internalType": "uint256",
          "name": "max",
          "type": "uint256"
        }
      ],
      "name": "ERC4626ExceededMaxDeposit",
      "type": "error"
    },
    {
      "inputs": [
        {
          "internalType": "address",
          "name": "receiver",
          "type": "address"
        },
        {
          "internalType": "uint256",
          "name": "shares",
          "type": "uint256"
        },
        {
          "internalType": "uint256",
          "name": "max",
          "type": "uint256"
        }
      ],
      "name": "ERC4626ExceededMaxMint",
      "type": "error"
    },
    {
      "inputs": [
        {
          "internalType": "address",
          "name": "owner",
          "type": "address"
        },
        {
          "internalType": "uint256",
          "name": "shares",
          "type": "uint256"
        },
        {
          "internalType": "uint256",
          "name": "max",
          "type": "uint256"
        }
      ],
      "name": "ERC4626ExceededMaxRedeem",
      "type": "error"
    },
    {
      "inputs": [
        {
          "internalType": "address",
          "name": "owner",
          "type": "address"
        },
        {
          "internalType": "uint256",
          "name": "assets",
          "type": "uint256"
        },
        {
          "internalType": "uint256",
          "name": "max",
          "type": "uint256"
        }
      ],
      "name": "ERC4626ExceededMaxWithdraw",
      "type": "error"
    },
    {
      "inputs": [],
      "name": "FailedInnerCall",
      "type": "error"
    },
    {
      "inputs": [],
      "name": "FeeWithdrawalFailed",
      "type": "error"
    },
    {
      "inputs": [],
      "name": "FunctionNotSupported",
      "type": "error"
    },
    {
      "inputs": [],
      "name": "ImpairReserveMustBeGreater",
      "type": "error"
    },
    {
      "inputs": [],
      "name": "ImpairReserveNotSet",
      "type": "error"
    },
    {
      "inputs": [],
      "name": "InvalidAddress",
      "type": "error"
    },
    {
      "inputs": [],
      "name": "InvalidPercentage",
      "type": "error"
    },
    {
      "inputs": [],
      "name": "InvoiceAlreadyImpairedByFund",
      "type": "error"
    },
    {
      "inputs": [],
      "name": "InvoiceAlreadyPaid",
      "type": "error"
    },
    {
      "inputs": [],
      "name": "InvoiceCanceled",
      "type": "error"
    },
    {
      "inputs": [],
      "name": "InvoiceCannotBePaid",
      "type": "error"
    },
    {
      "inputs": [],
      "name": "InvoiceCreditorChanged",
      "type": "error"
    },
    {
      "inputs": [],
      "name": "InvoiceNotApproved",
      "type": "error"
    },
    {
      "inputs": [],
      "name": "InvoiceNotImpaired",
      "type": "error"
    },
    {
      "inputs": [],
      "name": "InvoicePaidAmountChanged",
      "type": "error"
    },
    {
      "inputs": [],
      "name": "MathOverflowedMulDiv",
      "type": "error"
    },
    {
      "inputs": [],
      "name": "NoFeesToWithdraw",
      "type": "error"
    },
    {
      "inputs": [],
      "name": "NoTaxBalanceToWithdraw",
      "type": "error"
    },
    {
      "inputs": [
        {
          "internalType": "address",
          "name": "owner",
          "type": "address"
        }
      ],
      "name": "OwnableInvalidOwner",
      "type": "error"
    },
    {
      "inputs": [
        {
          "internalType": "address",
          "name": "account",
          "type": "address"
        }
      ],
      "name": "OwnableUnauthorizedAccount",
      "type": "error"
    },
    {
      "inputs": [
        {
          "internalType": "address",
          "name": "token",
          "type": "address"
        }
      ],
      "name": "SafeERC20FailedOperation",
      "type": "error"
    },
    {
      "inputs": [],
      "name": "TaxWithdrawalFailed",
      "type": "error"
    },
    {
      "inputs": [],
      "name": "TransferFailed",
      "type": "error"
    },
    {
      "inputs": [
        {
          "internalType": "address",
          "name": "caller",
          "type": "address"
        }
      ],
      "name": "UnauthorizedDeposit",
      "type": "error"
    },
    {
      "inputs": [
        {
          "internalType": "address",
          "name": "caller",
          "type": "address"
        }
      ],
      "name": "UnauthorizedFactoring",
      "type": "error"
    },
    {
      "inputs": [],
      "name": "UnpaidInvoice",
      "type": "error"
    },
    {
      "anonymous": false,
      "inputs": [
        {
          "indexed": false,
          "internalType": "uint256[]",
          "name": "paidInvoiceIds",
          "type": "uint256[]"
        }
      ],
      "name": "ActivePaidInvoicesReconciled",
      "type": "event"
    },
    {
      "anonymous": false,
      "inputs": [
        {
          "indexed": true,
          "internalType": "uint16",
          "name": "oldFeeBps",
          "type": "uint16"
        },
        {
          "indexed": true,
          "internalType": "uint16",
          "name": "newFeeBps",
          "type": "uint16"
        }
      ],
      "name": "AdminFeeBpsChanged",
      "type": "event"
    },
    {
      "anonymous": false,
      "inputs": [
        {
          "indexed": true,
          "internalType": "address",
          "name": "bullaDao",
          "type": "address"
        },
        {
          "indexed": false,
          "internalType": "uint256",
          "name": "amount",
          "type": "uint256"
        }
      ],
      "name": "AdminFeesWithdrawn",
      "type": "event"
    },
    {
      "anonymous": false,
      "inputs": [
        {
          "indexed": true,
          "internalType": "address",
          "name": "owner",
          "type": "address"
        },
        {
          "indexed": true,
          "internalType": "address",
          "name": "spender",
          "type": "address"
        },
        {
          "indexed": false,
          "internalType": "uint256",
          "name": "value",
          "type": "uint256"
        }
      ],
      "name": "Approval",
      "type": "event"
    },
    {
      "anonymous": false,
      "inputs": [
        {
          "indexed": false,
          "internalType": "uint256",
          "name": "newDuration",
          "type": "uint256"
        }
      ],
      "name": "ApprovalDurationChanged",
      "type": "event"
    },
    {
      "anonymous": false,
      "inputs": [
        {
          "indexed": true,
          "internalType": "address",
          "name": "withdrawer",
          "type": "address"
        },
        {
          "indexed": true,
          "internalType": "address",
          "name": "receiver",
          "type": "address"
        },
        {
          "indexed": true,
          "internalType": "address",
          "name": "owner",
          "type": "address"
        },
        {
          "indexed": false,
          "internalType": "uint256",
          "name": "assets",
          "type": "uint256"
        },
        {
          "indexed": false,
          "internalType": "uint256",
          "name": "shares",
          "type": "uint256"
        }
      ],
      "name": "AssetsWithdrawn",
      "type": "event"
    },
    {
      "anonymous": false,
      "inputs": [
        {
          "indexed": true,
          "internalType": "address",
          "name": "oldAddress",
          "type": "address"
        },
        {
          "indexed": true,
          "internalType": "address",
          "name": "newAddress",
          "type": "address"
        }
      ],
      "name": "BullaDaoAddressChanged",
      "type": "event"
    },
    {
      "anonymous": false,
      "inputs": [
        {
          "indexed": true,
          "internalType": "address",
          "name": "sender",
          "type": "address"
        },
        {
          "indexed": true,
          "internalType": "address",
          "name": "owner",
          "type": "address"
        },
        {
          "indexed": false,
          "internalType": "uint256",
          "name": "assets",
          "type": "uint256"
        },
        {
          "indexed": false,
          "internalType": "uint256",
          "name": "shares",
          "type": "uint256"
        }
      ],
      "name": "Deposit",
      "type": "event"
    },
    {
      "anonymous": false,
      "inputs": [
        {
          "indexed": true,
          "internalType": "address",
          "name": "depositor",
          "type": "address"
        },
        {
          "indexed": false,
          "internalType": "uint256",
          "name": "assets",
          "type": "uint256"
        },
        {
          "indexed": false,
          "internalType": "uint256",
          "name": "sharesIssued",
          "type": "uint256"
        }
      ],
      "name": "DepositMade",
      "type": "event"
    },
    {
      "anonymous": false,
      "inputs": [
        {
          "indexed": true,
          "internalType": "address",
          "name": "depositor",
          "type": "address"
        },
        {
          "indexed": false,
          "internalType": "uint256",
          "name": "assets",
          "type": "uint256"
        },
        {
          "indexed": false,
          "internalType": "uint256",
          "name": "shares",
          "type": "uint256"
        },
        {
          "components": [
            {
              "internalType": "bytes32",
              "name": "hash",
              "type": "bytes32"
            },
            {
              "internalType": "uint8",
              "name": "hashFunction",
              "type": "uint8"
            },
            {
              "internalType": "uint8",
              "name": "size",
              "type": "uint8"
            }
          ],
          "indexed": false,
          "internalType": "struct IBullaFactoring.Multihash",
          "name": "attachment",
          "type": "tuple"
        }
      ],
      "name": "DepositMadeWithAttachment",
      "type": "event"
    },
    {
      "anonymous": false,
      "inputs": [
        {
          "indexed": false,
          "internalType": "address",
          "name": "newAddress",
          "type": "address"
        }
      ],
      "name": "DepositPermissionsChanged",
      "type": "event"
    },
    {
      "anonymous": false,
      "inputs": [
        {
          "indexed": false,
          "internalType": "address",
          "name": "newAddress",
          "type": "address"
        }
      ],
      "name": "FactoringPermissionsChanged",
      "type": "event"
    },
    {
      "anonymous": false,
      "inputs": [
        {
          "indexed": false,
          "internalType": "uint256",
          "name": "newFundingPercentage",
          "type": "uint256"
        }
      ],
      "name": "FundingPercentageChanged",
      "type": "event"
    },
    {
      "anonymous": false,
      "inputs": [
        {
          "indexed": false,
          "internalType": "uint256",
          "name": "newGracePeriodDays",
          "type": "uint256"
        }
      ],
      "name": "GracePeriodDaysChanged",
      "type": "event"
    },
    {
      "anonymous": false,
      "inputs": [
        {
          "indexed": false,
          "internalType": "uint256",
          "name": "newImpairReserve",
          "type": "uint256"
        }
      ],
      "name": "ImpairReserveChanged",
      "type": "event"
    },
    {
      "anonymous": false,
      "inputs": [
        {
          "indexed": true,
          "internalType": "uint256",
          "name": "invoiceId",
          "type": "uint256"
        },
        {
          "indexed": false,
          "internalType": "uint16",
          "name": "interestApr",
          "type": "uint16"
        },
        {
          "indexed": false,
          "internalType": "uint16",
          "name": "upfrontBps",
          "type": "uint16"
        },
        {
          "indexed": false,
          "internalType": "uint256",
          "name": "validUntil",
          "type": "uint256"
        },
        {
          "indexed": false,
          "internalType": "uint16",
          "name": "minDays",
          "type": "uint16"
        }
      ],
      "name": "InvoiceApproved",
      "type": "event"
    },
    {
      "anonymous": false,
      "inputs": [
        {
          "indexed": true,
          "internalType": "uint256",
          "name": "invoiceId",
          "type": "uint256"
        },
        {
          "indexed": false,
          "internalType": "uint256",
          "name": "fundedAmount",
          "type": "uint256"
        },
        {
          "indexed": true,
          "internalType": "address",
          "name": "originalCreditor",
          "type": "address"
        }
      ],
      "name": "InvoiceFunded",
      "type": "event"
    },
    {
      "anonymous": false,
      "inputs": [
        {
          "indexed": true,
          "internalType": "uint256",
          "name": "invoiceId",
          "type": "uint256"
        },
        {
          "indexed": false,
          "internalType": "uint256",
          "name": "lossAmount",
          "type": "uint256"
        },
        {
          "indexed": false,
          "internalType": "uint256",
          "name": "gainAmount",
          "type": "uint256"
        }
      ],
      "name": "InvoiceImpaired",
      "type": "event"
    },
    {
      "anonymous": false,
      "inputs": [
        {
          "indexed": true,
          "internalType": "uint256",
          "name": "invoiceId",
          "type": "uint256"
        },
        {
          "indexed": false,
          "internalType": "uint256",
          "name": "kickbackAmount",
          "type": "uint256"
        },
        {
          "indexed": true,
          "internalType": "address",
          "name": "originalCreditor",
          "type": "address"
        }
      ],
      "name": "InvoiceKickbackAmountSent",
      "type": "event"
    },
    {
      "anonymous": false,
      "inputs": [
        {
          "indexed": true,
          "internalType": "uint256",
          "name": "invoiceId",
          "type": "uint256"
        },
        {
          "indexed": false,
          "internalType": "uint256",
          "name": "trueInterest",
          "type": "uint256"
        },
        {
          "indexed": false,
          "internalType": "uint256",
          "name": "trueProtocolFee",
          "type": "uint256"
        },
        {
          "indexed": false,
          "internalType": "uint256",
          "name": "adminFee",
          "type": "uint256"
        },
        {
          "indexed": false,
          "internalType": "uint256",
          "name": "fundedAmountNet",
          "type": "uint256"
        },
        {
          "indexed": false,
          "internalType": "uint256",
          "name": "kickbackAmount",
          "type": "uint256"
        },
        {
          "indexed": true,
          "internalType": "address",
          "name": "originalCreditor",
          "type": "address"
        }
      ],
      "name": "InvoicePaid",
      "type": "event"
    },
    {
      "anonymous": false,
      "inputs": [
        {
          "indexed": false,
          "internalType": "contract IInvoiceProviderAdapter",
          "name": "newInvoiceProviderAdapter",
          "type": "address"
        }
      ],
      "name": "InvoiceProviderAdapterChanged",
      "type": "event"
    },
    {
      "anonymous": false,
      "inputs": [
        {
          "indexed": true,
          "internalType": "uint256",
          "name": "invoiceId",
          "type": "uint256"
        },
        {
          "indexed": false,
          "internalType": "address",
          "name": "originalCreditor",
          "type": "address"
        },
        {
          "indexed": false,
          "internalType": "uint256",
          "name": "totalRefundAmount",
          "type": "uint256"
        },
        {
          "indexed": false,
          "internalType": "uint256",
          "name": "interestToCharge",
          "type": "uint256"
        }
      ],
      "name": "InvoiceUnfactored",
      "type": "event"
    },
    {
      "anonymous": false,
      "inputs": [
        {
          "indexed": false,
          "internalType": "uint256",
          "name": "newKickbackPercentageBps",
          "type": "uint256"
        }
      ],
      "name": "KickbackPercentageChanged",
      "type": "event"
    },
    {
      "anonymous": false,
      "inputs": [
        {
          "indexed": true,
          "internalType": "address",
          "name": "previousOwner",
          "type": "address"
        },
        {
          "indexed": true,
          "internalType": "address",
          "name": "newOwner",
          "type": "address"
        }
      ],
      "name": "OwnershipTransferred",
      "type": "event"
    },
    {
      "anonymous": false,
      "inputs": [
        {
          "indexed": false,
          "internalType": "uint16",
          "name": "oldProtocolFeeBps",
          "type": "uint16"
        },
        {
          "indexed": false,
          "internalType": "uint16",
          "name": "newProtocolFeeBps",
          "type": "uint16"
        }
      ],
      "name": "ProtocolFeeBpsChanged",
      "type": "event"
    },
    {
      "anonymous": false,
      "inputs": [
        {
          "indexed": true,
          "internalType": "address",
          "name": "bullaDao",
          "type": "address"
        },
        {
          "indexed": false,
          "internalType": "uint256",
          "name": "amount",
          "type": "uint256"
        }
      ],
      "name": "ProtocolFeesWithdrawn",
      "type": "event"
    },
    {
      "anonymous": false,
      "inputs": [
        {
          "indexed": true,
          "internalType": "address",
          "name": "redeemer",
          "type": "address"
        },
        {
          "indexed": false,
          "internalType": "uint256",
          "name": "shares",
          "type": "uint256"
        },
        {
          "indexed": false,
          "internalType": "uint256",
          "name": "assets",
          "type": "uint256"
        }
      ],
      "name": "SharesRedeemed",
      "type": "event"
    },
    {
      "anonymous": false,
      "inputs": [
        {
          "indexed": true,
          "internalType": "address",
          "name": "redeemer",
          "type": "address"
        },
        {
          "indexed": false,
          "internalType": "uint256",
          "name": "shares",
          "type": "uint256"
        },
        {
          "indexed": false,
          "internalType": "uint256",
          "name": "assets",
          "type": "uint256"
        },
        {
          "components": [
            {
              "internalType": "bytes32",
              "name": "hash",
              "type": "bytes32"
            },
            {
              "internalType": "uint8",
              "name": "hashFunction",
              "type": "uint8"
            },
            {
              "internalType": "uint8",
              "name": "size",
              "type": "uint8"
            }
          ],
          "indexed": false,
          "internalType": "struct IBullaFactoring.Multihash",
          "name": "attachment",
          "type": "tuple"
        }
      ],
      "name": "SharesRedeemedWithAttachment",
      "type": "event"
    },
    {
      "anonymous": false,
      "inputs": [
        {
          "indexed": false,
          "internalType": "uint16",
          "name": "newTargetYield",
          "type": "uint16"
        }
      ],
      "name": "TargetYieldChanged",
      "type": "event"
    },
    {
      "anonymous": false,
      "inputs": [
        {
          "indexed": true,
          "internalType": "address",
          "name": "receiver",
          "type": "address"
        },
        {
          "indexed": false,
          "internalType": "uint256",
          "name": "amount",
          "type": "uint256"
        }
      ],
      "name": "TaxBalanceWithdrawn",
      "type": "event"
    },
    {
      "anonymous": false,
      "inputs": [
        {
          "indexed": true,
          "internalType": "uint16",
          "name": "oldTaxBps",
          "type": "uint16"
        },
        {
          "indexed": true,
          "internalType": "uint256",
          "name": "newTaxBps",
          "type": "uint256"
        }
      ],
      "name": "TaxBpsChanged",
      "type": "event"
    },
    {
      "anonymous": false,
      "inputs": [
        {
          "indexed": true,
          "internalType": "address",
          "name": "from",
          "type": "address"
        },
        {
          "indexed": true,
          "internalType": "address",
          "name": "to",
          "type": "address"
        },
        {
          "indexed": false,
          "internalType": "uint256",
          "name": "value",
          "type": "uint256"
        }
      ],
      "name": "Transfer",
      "type": "event"
    },
    {
      "anonymous": false,
      "inputs": [
        {
          "indexed": true,
          "internalType": "address",
          "name": "oldUnderwriter",
          "type": "address"
        },
        {
          "indexed": true,
          "internalType": "address",
          "name": "newUnderwriter",
          "type": "address"
        }
      ],
      "name": "UnderwriterChanged",
      "type": "event"
    },
    {
      "anonymous": false,
      "inputs": [
        {
          "indexed": true,
          "internalType": "address",
          "name": "sender",
          "type": "address"
        },
        {
          "indexed": true,
          "internalType": "address",
          "name": "receiver",
          "type": "address"
        },
        {
          "indexed": true,
          "internalType": "address",
          "name": "owner",
          "type": "address"
        },
        {
          "indexed": false,
          "internalType": "uint256",
          "name": "assets",
          "type": "uint256"
        },
        {
          "indexed": false,
          "internalType": "uint256",
          "name": "shares",
          "type": "uint256"
        }
      ],
      "name": "Withdraw",
      "type": "event"
    },
    {
      "inputs": [],
      "name": "SCALING_FACTOR",
      "outputs": [
        {
          "internalType": "uint256",
          "name": "",
          "type": "uint256"
        }
      ],
      "stateMutability": "view",
      "type": "function"
    },
    {
      "inputs": [
        {
          "internalType": "uint256",
          "name": "",
          "type": "uint256"
        }
      ],
      "name": "activeInvoices",
      "outputs": [
        {
          "internalType": "uint256",
          "name": "",
          "type": "uint256"
        }
      ],
      "stateMutability": "view",
      "type": "function"
    },
    {
      "inputs": [],
      "name": "adminFeeBalance",
      "outputs": [
        {
          "internalType": "uint256",
          "name": "",
          "type": "uint256"
        }
      ],
      "stateMutability": "view",
      "type": "function"
    },
    {
      "inputs": [],
      "name": "adminFeeBps",
      "outputs": [
        {
          "internalType": "uint16",
          "name": "",
          "type": "uint16"
        }
      ],
      "stateMutability": "view",
      "type": "function"
    },
    {
      "inputs": [
        {
          "internalType": "address",
          "name": "owner",
          "type": "address"
        },
        {
          "internalType": "address",
          "name": "spender",
          "type": "address"
        }
      ],
      "name": "allowance",
      "outputs": [
        {
          "internalType": "uint256",
          "name": "",
          "type": "uint256"
        }
      ],
      "stateMutability": "view",
      "type": "function"
    },
    {
      "inputs": [],
      "name": "approvalDuration",
      "outputs": [
        {
          "internalType": "uint256",
          "name": "",
          "type": "uint256"
        }
      ],
      "stateMutability": "view",
      "type": "function"
    },
    {
      "inputs": [
        {
          "internalType": "address",
          "name": "spender",
          "type": "address"
        },
        {
          "internalType": "uint256",
          "name": "value",
          "type": "uint256"
        }
      ],
      "name": "approve",
      "outputs": [
        {
          "internalType": "bool",
          "name": "",
          "type": "bool"
        }
      ],
      "stateMutability": "nonpayable",
      "type": "function"
    },
    {
      "inputs": [
        {
          "internalType": "uint256",
          "name": "invoiceId",
          "type": "uint256"
        },
        {
          "internalType": "uint16",
          "name": "_interestApr",
          "type": "uint16"
        },
        {
          "internalType": "uint16",
          "name": "_upfrontBps",
          "type": "uint16"
        },
        {
          "internalType": "uint16",
          "name": "minDaysInterestApplied",
          "type": "uint16"
        }
      ],
      "name": "approveInvoice",
      "outputs": [],
      "stateMutability": "nonpayable",
      "type": "function"
    },
    {
      "inputs": [
        {
          "internalType": "uint256",
          "name": "",
          "type": "uint256"
        }
      ],
      "name": "approvedInvoices",
      "outputs": [
        {
          "internalType": "bool",
          "name": "approved",
          "type": "bool"
        },
        {
          "components": [
            {
              "internalType": "uint256",
              "name": "faceValue",
              "type": "uint256"
            },
            {
              "internalType": "address",
              "name": "creditor",
              "type": "address"
            },
            {
              "internalType": "address",
              "name": "debtor",
              "type": "address"
            },
            {
              "internalType": "uint256",
              "name": "dueDate",
              "type": "uint256"
            },
            {
              "internalType": "address",
              "name": "tokenAddress",
              "type": "address"
            },
            {
              "internalType": "uint256",
              "name": "paidAmount",
              "type": "uint256"
            },
            {
              "internalType": "bool",
              "name": "isCanceled",
              "type": "bool"
            }
          ],
          "internalType": "struct IInvoiceProviderAdapter.Invoice",
          "name": "invoiceSnapshot",
          "type": "tuple"
        },
        {
          "internalType": "uint256",
          "name": "validUntil",
          "type": "uint256"
        },
        {
          "internalType": "uint256",
          "name": "fundedTimestamp",
          "type": "uint256"
        },
        {
          "internalType": "uint16",
          "name": "interestApr",
          "type": "uint16"
        },
        {
          "internalType": "uint16",
          "name": "upfrontBps",
          "type": "uint16"
        },
        {
          "internalType": "uint256",
          "name": "fundedAmountGross",
          "type": "uint256"
        },
        {
          "internalType": "uint256",
          "name": "fundedAmountNet",
          "type": "uint256"
        },
        {
          "internalType": "uint16",
          "name": "minDaysInterestApplied",
          "type": "uint16"
        },
        {
          "internalType": "uint256",
          "name": "trueFaceValue",
          "type": "uint256"
        }
      ],
      "stateMutability": "view",
      "type": "function"
    },
    {
      "inputs": [],
      "name": "asset",
      "outputs": [
        {
          "internalType": "address",
          "name": "",
          "type": "address"
        }
      ],
      "stateMutability": "view",
      "type": "function"
    },
    {
      "inputs": [],
      "name": "assetAddress",
      "outputs": [
        {
          "internalType": "contract IERC20",
          "name": "",
          "type": "address"
        }
      ],
      "stateMutability": "view",
      "type": "function"
    },
    {
      "inputs": [],
      "name": "availableAssets",
      "outputs": [
        {
          "internalType": "uint256",
          "name": "",
          "type": "uint256"
        }
      ],
      "stateMutability": "view",
      "type": "function"
    },
    {
      "inputs": [
        {
          "internalType": "address",
          "name": "account",
          "type": "address"
        }
      ],
      "name": "balanceOf",
      "outputs": [
        {
          "internalType": "uint256",
          "name": "",
          "type": "uint256"
        }
      ],
      "stateMutability": "view",
      "type": "function"
    },
    {
      "inputs": [],
      "name": "bullaDao",
      "outputs": [
        {
          "internalType": "address",
          "name": "",
          "type": "address"
        }
      ],
      "stateMutability": "view",
      "type": "function"
    },
    {
      "inputs": [],
      "name": "calculateAccruedProfits",
      "outputs": [
        {
          "internalType": "uint256",
          "name": "accruedProfits",
          "type": "uint256"
        }
      ],
      "stateMutability": "view",
      "type": "function"
    },
    {
      "inputs": [],
      "name": "calculateCapitalAccount",
      "outputs": [
        {
          "internalType": "uint256",
          "name": "",
          "type": "uint256"
        }
      ],
      "stateMutability": "view",
      "type": "function"
    },
    {
      "inputs": [
        {
          "internalType": "uint256",
          "name": "invoiceId",
          "type": "uint256"
        }
      ],
      "name": "calculateKickbackAmount",
      "outputs": [
        {
          "internalType": "uint256",
          "name": "kickbackAmount",
          "type": "uint256"
        },
        {
          "internalType": "uint256",
          "name": "trueInterest",
          "type": "uint256"
        },
        {
          "internalType": "uint256",
          "name": "trueProtocolFee",
          "type": "uint256"
        },
        {
          "internalType": "uint256",
          "name": "trueAdminFee",
          "type": "uint256"
        }
      ],
      "stateMutability": "view",
      "type": "function"
    },
    {
      "inputs": [],
      "name": "calculateRealizedGainLoss",
      "outputs": [
        {
          "internalType": "int256",
          "name": "",
          "type": "int256"
        }
      ],
      "stateMutability": "view",
      "type": "function"
    },
    {
      "inputs": [
        {
          "internalType": "uint256",
          "name": "invoiceId",
          "type": "uint256"
        },
        {
          "internalType": "uint16",
          "name": "factorerUpfrontBps",
          "type": "uint16"
        }
      ],
      "name": "calculateTargetFees",
      "outputs": [
        {
          "internalType": "uint256",
          "name": "fundedAmountGross",
          "type": "uint256"
        },
        {
          "internalType": "uint256",
          "name": "targetAdminFee",
          "type": "uint256"
        },
        {
          "internalType": "uint256",
          "name": "targetInterest",
          "type": "uint256"
        },
        {
          "internalType": "uint256",
          "name": "targetProtocolFee",
          "type": "uint256"
        },
        {
          "internalType": "uint256",
          "name": "netFundedAmount",
          "type": "uint256"
        }
      ],
      "stateMutability": "view",
      "type": "function"
    },
    {
      "inputs": [
        {
          "internalType": "uint256",
          "name": "shares",
          "type": "uint256"
        }
      ],
      "name": "convertToAssets",
      "outputs": [
        {
          "internalType": "uint256",
          "name": "",
          "type": "uint256"
        }
      ],
      "stateMutability": "view",
      "type": "function"
    },
    {
      "inputs": [
        {
          "internalType": "uint256",
          "name": "assets",
          "type": "uint256"
        }
      ],
      "name": "convertToShares",
      "outputs": [
        {
          "internalType": "uint256",
          "name": "",
          "type": "uint256"
        }
      ],
      "stateMutability": "view",
      "type": "function"
    },
    {
      "inputs": [],
      "name": "creationTimestamp",
      "outputs": [
        {
          "internalType": "uint256",
          "name": "",
          "type": "uint256"
        }
      ],
      "stateMutability": "view",
      "type": "function"
    },
    {
      "inputs": [],
      "name": "decimals",
      "outputs": [
        {
          "internalType": "uint8",
          "name": "",
          "type": "uint8"
        }
      ],
      "stateMutability": "view",
      "type": "function"
    },
    {
      "inputs": [
        {
          "internalType": "uint256",
          "name": "assets",
          "type": "uint256"
        },
        {
          "internalType": "address",
          "name": "receiver",
          "type": "address"
        }
      ],
      "name": "deposit",
      "outputs": [
        {
          "internalType": "uint256",
          "name": "",
          "type": "uint256"
        }
      ],
      "stateMutability": "nonpayable",
      "type": "function"
    },
    {
      "inputs": [],
      "name": "depositPermissions",
      "outputs": [
        {
          "internalType": "contract Permissions",
          "name": "",
          "type": "address"
        }
      ],
      "stateMutability": "view",
      "type": "function"
    },
    {
      "inputs": [
        {
          "internalType": "uint256",
          "name": "assets",
          "type": "uint256"
        },
        {
          "internalType": "address",
          "name": "receiver",
          "type": "address"
        },
        {
          "components": [
            {
              "internalType": "bytes32",
              "name": "hash",
              "type": "bytes32"
            },
            {
              "internalType": "uint8",
              "name": "hashFunction",
              "type": "uint8"
            },
            {
              "internalType": "uint8",
              "name": "size",
              "type": "uint8"
            }
          ],
          "internalType": "struct IBullaFactoring.Multihash",
          "name": "attachment",
          "type": "tuple"
        }
      ],
      "name": "depositWithAttachment",
      "outputs": [
        {
          "internalType": "uint256",
          "name": "",
          "type": "uint256"
        }
      ],
      "stateMutability": "nonpayable",
      "type": "function"
    },
    {
      "inputs": [],
      "name": "factoringPermissions",
      "outputs": [
        {
          "internalType": "contract Permissions",
          "name": "",
          "type": "address"
        }
      ],
      "stateMutability": "view",
      "type": "function"
    },
    {
      "inputs": [
        {
          "internalType": "uint256",
          "name": "invoiceId",
          "type": "uint256"
        },
        {
          "internalType": "uint16",
          "name": "factorerUpfrontBps",
          "type": "uint16"
        }
      ],
      "name": "fundInvoice",
      "outputs": [
        {
          "internalType": "uint256",
          "name": "",
          "type": "uint256"
        }
      ],
      "stateMutability": "nonpayable",
      "type": "function"
    },
    {
      "inputs": [],
      "name": "getFundInfo",
      "outputs": [
        {
          "components": [
            {
              "internalType": "string",
              "name": "name",
              "type": "string"
            },
            {
              "internalType": "uint256",
              "name": "creationTimestamp",
              "type": "uint256"
            },
            {
              "internalType": "uint256",
              "name": "fundBalance",
              "type": "uint256"
            },
            {
              "internalType": "uint256",
              "name": "deployedCapital",
              "type": "uint256"
            },
            {
              "internalType": "int256",
              "name": "realizedGain",
              "type": "int256"
            },
            {
              "internalType": "uint256",
              "name": "capitalAccount",
              "type": "uint256"
            },
            {
              "internalType": "uint256",
              "name": "price",
              "type": "uint256"
            },
            {
              "internalType": "uint256",
              "name": "tokensAvailableForRedemption",
              "type": "uint256"
            },
            {
              "internalType": "uint16",
              "name": "adminFeeBps",
              "type": "uint16"
            },
            {
              "internalType": "uint256",
              "name": "impairReserve",
              "type": "uint256"
            },
            {
              "internalType": "uint256",
              "name": "targetYieldBps",
              "type": "uint256"
            }
          ],
          "internalType": "struct IBullaFactoring.FundInfo",
          "name": "",
          "type": "tuple"
        }
      ],
      "stateMutability": "view",
      "type": "function"
    },
    {
      "inputs": [
        {
          "internalType": "uint256",
          "name": "invoiceId",
          "type": "uint256"
        }
      ],
      "name": "getFundedAmount",
      "outputs": [
        {
          "internalType": "uint256",
          "name": "",
          "type": "uint256"
        }
      ],
      "stateMutability": "view",
      "type": "function"
    },
    {
      "inputs": [],
      "name": "gracePeriodDays",
      "outputs": [
        {
          "internalType": "uint256",
          "name": "",
          "type": "uint256"
        }
      ],
      "stateMutability": "view",
      "type": "function"
    },
    {
      "inputs": [
        {
          "internalType": "uint256",
          "name": "invoiceId",
          "type": "uint256"
        }
      ],
      "name": "impairInvoice",
      "outputs": [],
      "stateMutability": "nonpayable",
      "type": "function"
    },
    {
      "inputs": [],
      "name": "impairReserve",
      "outputs": [
        {
          "internalType": "uint256",
          "name": "",
          "type": "uint256"
        }
      ],
      "stateMutability": "view",
      "type": "function"
    },
    {
      "inputs": [
        {
          "internalType": "uint256",
          "name": "",
          "type": "uint256"
        }
      ],
      "name": "impairments",
      "outputs": [
        {
          "internalType": "uint256",
          "name": "gainAmount",
          "type": "uint256"
        },
        {
          "internalType": "uint256",
          "name": "lossAmount",
          "type": "uint256"
        },
        {
          "internalType": "bool",
          "name": "isImpaired",
          "type": "bool"
        }
      ],
      "stateMutability": "view",
      "type": "function"
    },
    {
      "inputs": [],
      "name": "invoiceProviderAdapter",
      "outputs": [
        {
          "internalType": "contract IInvoiceProviderAdapter",
          "name": "",
          "type": "address"
        }
      ],
      "stateMutability": "view",
      "type": "function"
    },
    {
      "inputs": [
        {
          "internalType": "address",
          "name": "",
          "type": "address"
        }
      ],
      "name": "maxDeposit",
      "outputs": [
        {
          "internalType": "uint256",
          "name": "",
          "type": "uint256"
        }
      ],
      "stateMutability": "view",
      "type": "function"
    },
    {
      "inputs": [
        {
          "internalType": "address",
          "name": "",
          "type": "address"
        }
      ],
      "name": "maxMint",
      "outputs": [
        {
          "internalType": "uint256",
          "name": "",
          "type": "uint256"
        }
      ],
      "stateMutability": "view",
      "type": "function"
    },
    {
      "inputs": [],
      "name": "maxRedeem",
      "outputs": [
        {
          "internalType": "uint256",
          "name": "",
          "type": "uint256"
        }
      ],
      "stateMutability": "view",
      "type": "function"
    },
    {
      "inputs": [
        {
          "internalType": "address",
          "name": "owner",
          "type": "address"
        }
      ],
      "name": "maxRedeem",
      "outputs": [
        {
          "internalType": "uint256",
          "name": "",
          "type": "uint256"
        }
      ],
      "stateMutability": "view",
      "type": "function"
    },
    {
      "inputs": [
        {
          "internalType": "address",
          "name": "owner",
          "type": "address"
        }
      ],
      "name": "maxWithdraw",
      "outputs": [
        {
          "internalType": "uint256",
          "name": "",
          "type": "uint256"
        }
      ],
      "stateMutability": "view",
      "type": "function"
    },
    {
      "inputs": [
        {
          "internalType": "uint256",
          "name": "",
          "type": "uint256"
        },
        {
          "internalType": "address",
          "name": "",
          "type": "address"
        }
      ],
      "name": "mint",
      "outputs": [
        {
          "internalType": "uint256",
          "name": "",
          "type": "uint256"
        }
      ],
      "stateMutability": "pure",
      "type": "function"
    },
    {
      "inputs": [],
      "name": "name",
      "outputs": [
        {
          "internalType": "string",
          "name": "",
          "type": "string"
        }
      ],
      "stateMutability": "view",
      "type": "function"
    },
    {
      "inputs": [
        {
          "internalType": "uint256",
          "name": "",
          "type": "uint256"
        }
      ],
      "name": "originalCreditors",
      "outputs": [
        {
          "internalType": "address",
          "name": "",
          "type": "address"
        }
      ],
      "stateMutability": "view",
      "type": "function"
    },
    {
      "inputs": [],
      "name": "owner",
      "outputs": [
        {
          "internalType": "address",
          "name": "",
          "type": "address"
        }
      ],
      "stateMutability": "view",
      "type": "function"
    },
    {
      "inputs": [
        {
          "internalType": "uint256",
          "name": "",
          "type": "uint256"
        }
      ],
      "name": "paidInvoiceTax",
      "outputs": [
        {
          "internalType": "uint256",
          "name": "",
          "type": "uint256"
        }
      ],
      "stateMutability": "view",
      "type": "function"
    },
    {
      "inputs": [
        {
          "internalType": "uint256",
          "name": "",
          "type": "uint256"
        }
      ],
      "name": "paidInvoicesGain",
      "outputs": [
        {
          "internalType": "uint256",
          "name": "",
          "type": "uint256"
        }
      ],
      "stateMutability": "view",
      "type": "function"
    },
    {
      "inputs": [],
      "name": "poolName",
      "outputs": [
        {
          "internalType": "string",
          "name": "",
          "type": "string"
        }
      ],
      "stateMutability": "view",
      "type": "function"
    },
    {
      "inputs": [
        {
          "internalType": "uint256",
          "name": "assets",
          "type": "uint256"
        }
      ],
      "name": "previewDeposit",
      "outputs": [
        {
          "internalType": "uint256",
          "name": "",
          "type": "uint256"
        }
      ],
      "stateMutability": "view",
      "type": "function"
    },
    {
      "inputs": [
        {
          "internalType": "uint256",
          "name": "shares",
          "type": "uint256"
        }
      ],
      "name": "previewMint",
      "outputs": [
        {
          "internalType": "uint256",
          "name": "",
          "type": "uint256"
        }
      ],
      "stateMutability": "view",
      "type": "function"
    },
    {
      "inputs": [
        {
          "internalType": "uint256",
          "name": "shares",
          "type": "uint256"
        }
      ],
      "name": "previewRedeem",
      "outputs": [
        {
          "internalType": "uint256",
          "name": "",
          "type": "uint256"
        }
      ],
      "stateMutability": "view",
      "type": "function"
    },
    {
      "inputs": [
        {
          "internalType": "uint256",
          "name": "assets",
          "type": "uint256"
        }
      ],
      "name": "previewWithdraw",
      "outputs": [
        {
          "internalType": "uint256",
          "name": "",
          "type": "uint256"
        }
      ],
      "stateMutability": "view",
      "type": "function"
    },
    {
      "inputs": [],
      "name": "pricePerShare",
      "outputs": [
        {
          "internalType": "uint256",
          "name": "",
          "type": "uint256"
        }
      ],
      "stateMutability": "view",
      "type": "function"
    },
    {
      "inputs": [],
      "name": "protocolFeeBalance",
      "outputs": [
        {
          "internalType": "uint256",
          "name": "",
          "type": "uint256"
        }
      ],
      "stateMutability": "view",
      "type": "function"
    },
    {
      "inputs": [],
      "name": "protocolFeeBps",
      "outputs": [
        {
          "internalType": "uint16",
          "name": "",
          "type": "uint16"
        }
      ],
      "stateMutability": "view",
      "type": "function"
    },
    {
      "inputs": [],
      "name": "reconcileActivePaidInvoices",
      "outputs": [],
      "stateMutability": "nonpayable",
      "type": "function"
    },
    {
      "inputs": [
        {
          "internalType": "uint256",
          "name": "shares",
          "type": "uint256"
        },
        {
          "internalType": "address",
          "name": "receiver",
          "type": "address"
        },
        {
          "internalType": "address",
          "name": "owner",
          "type": "address"
        }
      ],
      "name": "redeem",
      "outputs": [
        {
          "internalType": "uint256",
          "name": "",
          "type": "uint256"
        }
      ],
      "stateMutability": "nonpayable",
      "type": "function"
    },
    {
      "inputs": [
        {
          "internalType": "uint256",
          "name": "shares",
          "type": "uint256"
        },
        {
          "internalType": "address",
          "name": "receiver",
          "type": "address"
        },
        {
          "internalType": "address",
          "name": "owner",
          "type": "address"
        },
        {
          "components": [
            {
              "internalType": "bytes32",
              "name": "hash",
              "type": "bytes32"
            },
            {
              "internalType": "uint8",
              "name": "hashFunction",
              "type": "uint8"
            },
            {
              "internalType": "uint8",
              "name": "size",
              "type": "uint8"
            }
          ],
          "internalType": "struct IBullaFactoring.Multihash",
          "name": "attachment",
          "type": "tuple"
        }
      ],
      "name": "redeemWithAttachment",
      "outputs": [
        {
          "internalType": "uint256",
          "name": "",
          "type": "uint256"
        }
      ],
      "stateMutability": "nonpayable",
      "type": "function"
    },
    {
      "inputs": [],
      "name": "renounceOwnership",
      "outputs": [],
      "stateMutability": "nonpayable",
      "type": "function"
    },
    {
      "inputs": [
        {
          "internalType": "uint16",
          "name": "_newAdminFeeBps",
          "type": "uint16"
        }
      ],
      "name": "setAdminFeeBps",
      "outputs": [],
      "stateMutability": "nonpayable",
      "type": "function"
    },
    {
      "inputs": [
        {
          "internalType": "uint256",
          "name": "_duration",
          "type": "uint256"
        }
      ],
      "name": "setApprovalDuration",
      "outputs": [],
      "stateMutability": "nonpayable",
      "type": "function"
    },
    {
      "inputs": [
        {
          "internalType": "address",
          "name": "_newBullaDao",
          "type": "address"
        }
      ],
      "name": "setBullaDaoAddress",
      "outputs": [],
      "stateMutability": "nonpayable",
      "type": "function"
    },
    {
      "inputs": [
        {
          "internalType": "address",
          "name": "_newDepositPermissionsAddress",
          "type": "address"
        }
      ],
      "name": "setDepositPermissions",
      "outputs": [],
      "stateMutability": "nonpayable",
      "type": "function"
    },
    {
      "inputs": [
        {
          "internalType": "address",
          "name": "_newFactoringPermissionsAddress",
          "type": "address"
        }
      ],
      "name": "setFactoringPermissions",
      "outputs": [],
      "stateMutability": "nonpayable",
      "type": "function"
    },
    {
      "inputs": [
        {
          "internalType": "uint256",
          "name": "_days",
          "type": "uint256"
        }
      ],
      "name": "setGracePeriodDays",
      "outputs": [],
      "stateMutability": "nonpayable",
      "type": "function"
    },
    {
      "inputs": [
        {
          "internalType": "uint256",
          "name": "_impairReserve",
          "type": "uint256"
        }
      ],
      "name": "setImpairReserve",
      "outputs": [],
      "stateMutability": "nonpayable",
      "type": "function"
    },
    {
      "inputs": [
        {
          "internalType": "uint16",
          "name": "_newProtocolFeeBps",
          "type": "uint16"
        }
      ],
      "name": "setProtocolFeeBps",
      "outputs": [],
      "stateMutability": "nonpayable",
      "type": "function"
    },
    {
      "inputs": [
        {
          "internalType": "uint16",
          "name": "_targetYieldBps",
          "type": "uint16"
        }
      ],
      "name": "setTargetYield",
      "outputs": [],
      "stateMutability": "nonpayable",
      "type": "function"
    },
    {
      "inputs": [
        {
          "internalType": "uint16",
          "name": "_newTaxBps",
          "type": "uint16"
        }
      ],
      "name": "setTaxBps",
      "outputs": [],
      "stateMutability": "nonpayable",
      "type": "function"
    },
    {
      "inputs": [
        {
          "internalType": "address",
          "name": "_newUnderwriter",
          "type": "address"
        }
      ],
      "name": "setUnderwriter",
      "outputs": [],
      "stateMutability": "nonpayable",
      "type": "function"
    },
    {
      "inputs": [],
      "name": "sumTargetFeesForActiveInvoices",
      "outputs": [
        {
          "internalType": "uint256",
          "name": "targetFees",
          "type": "uint256"
        }
      ],
      "stateMutability": "view",
      "type": "function"
    },
    {
      "inputs": [],
      "name": "symbol",
      "outputs": [
        {
          "internalType": "string",
          "name": "",
          "type": "string"
        }
      ],
      "stateMutability": "view",
      "type": "function"
    },
    {
      "inputs": [],
      "name": "targetYieldBps",
      "outputs": [
        {
          "internalType": "uint16",
          "name": "",
          "type": "uint16"
        }
      ],
      "stateMutability": "view",
      "type": "function"
    },
    {
      "inputs": [],
      "name": "taxBalance",
      "outputs": [
        {
          "internalType": "uint256",
          "name": "",
          "type": "uint256"
        }
      ],
      "stateMutability": "view",
      "type": "function"
    },
    {
      "inputs": [],
      "name": "taxBps",
      "outputs": [
        {
          "internalType": "uint16",
          "name": "",
          "type": "uint16"
        }
      ],
      "stateMutability": "view",
      "type": "function"
    },
    {
      "inputs": [],
      "name": "totalAssets",
      "outputs": [
        {
          "internalType": "uint256",
          "name": "",
          "type": "uint256"
        }
      ],
      "stateMutability": "view",
      "type": "function"
    },
    {
      "inputs": [],
      "name": "totalFundedAmountForActiveInvoices",
      "outputs": [
        {
          "internalType": "uint256",
          "name": "",
          "type": "uint256"
        }
      ],
      "stateMutability": "view",
      "type": "function"
    },
    {
      "inputs": [],
      "name": "totalSupply",
      "outputs": [
        {
          "internalType": "uint256",
          "name": "",
          "type": "uint256"
        }
      ],
      "stateMutability": "view",
      "type": "function"
    },
    {
      "inputs": [
        {
          "internalType": "address",
          "name": "to",
          "type": "address"
        },
        {
          "internalType": "uint256",
          "name": "value",
          "type": "uint256"
        }
      ],
      "name": "transfer",
      "outputs": [
        {
          "internalType": "bool",
          "name": "",
          "type": "bool"
        }
      ],
      "stateMutability": "nonpayable",
      "type": "function"
    },
    {
      "inputs": [
        {
          "internalType": "address",
          "name": "from",
          "type": "address"
        },
        {
          "internalType": "address",
          "name": "to",
          "type": "address"
        },
        {
          "internalType": "uint256",
          "name": "value",
          "type": "uint256"
        }
      ],
      "name": "transferFrom",
      "outputs": [
        {
          "internalType": "bool",
          "name": "",
          "type": "bool"
        }
      ],
      "stateMutability": "nonpayable",
      "type": "function"
    },
    {
      "inputs": [
        {
          "internalType": "address",
          "name": "newOwner",
          "type": "address"
        }
      ],
      "name": "transferOwnership",
      "outputs": [],
      "stateMutability": "nonpayable",
      "type": "function"
    },
    {
      "inputs": [],
      "name": "underwriter",
      "outputs": [
        {
          "internalType": "address",
          "name": "",
          "type": "address"
        }
      ],
      "stateMutability": "view",
      "type": "function"
    },
    {
      "inputs": [
        {
          "internalType": "uint256",
          "name": "invoiceId",
          "type": "uint256"
        }
      ],
      "name": "unfactorInvoice",
      "outputs": [],
      "stateMutability": "nonpayable",
      "type": "function"
    },
    {
      "inputs": [],
      "name": "viewPoolStatus",
      "outputs": [
        {
          "internalType": "uint256[]",
          "name": "paidInvoices",
          "type": "uint256[]"
        },
        {
          "internalType": "uint256[]",
          "name": "impairedInvoices",
          "type": "uint256[]"
        }
      ],
      "stateMutability": "view",
      "type": "function"
    },
    {
      "inputs": [
        {
          "internalType": "uint256",
          "name": "assets",
          "type": "uint256"
        },
        {
          "internalType": "address",
          "name": "receiver",
          "type": "address"
        },
        {
          "internalType": "address",
          "name": "owner",
          "type": "address"
        }
      ],
      "name": "withdraw",
      "outputs": [
        {
          "internalType": "uint256",
          "name": "",
          "type": "uint256"
        }
      ],
      "stateMutability": "nonpayable",
      "type": "function"
    },
    {
      "inputs": [],
      "name": "withdrawAdminFees",
      "outputs": [],
      "stateMutability": "nonpayable",
      "type": "function"
    },
    {
      "inputs": [],
      "name": "withdrawProtocolFees",
      "outputs": [],
      "stateMutability": "nonpayable",
      "type": "function"
    },
    {
      "inputs": [],
      "name": "withdrawTaxBalance",
      "outputs": [],
      "stateMutability": "nonpayable",
      "type": "function"
    }
  ],
  "transactionHash": "0x991a88acb944e6d954ac96c1c11674b715f5c6a4ee8202b1866e1b593cc7aeda",
  "args": [
    "0x94a9D9AC8a22534E3FaCa9F4e7F2E2cf85d5E4C8",
    "0x15ef2BD80BE2247C9007A35c761Ea9aDBe1063C5",
    "0x5d72984B2e1170EAA0DA4BC22B25C87729C5EBB3",
    "0xB39bF6Fcd9bd97F7616FAD7b6118Fc2E911eA1d8",
    "0x996e2beFD170CeB741b0072AE97E524Bdf410E9e",
    "0x89e03e7980c92fd81ed3a9b72f5c73fdf57e5e6d",
    25,
    50,
    "Bulla TCS Factoring Pool Sepolia v0.3",
    10,
    730,
    "Bulla TCS Factoring Pool",
    "BFT-TCS"
  ],
  "numDeployments": 14,
  "solcInputHash": "1a31f303514ab7f117d6d3c466d67eb2",
  "bytecode": "0x60c080604052346200084a57620053dd80380380916200002082856200084e565b83398101906101a0818303126200084a5780516001600160a01b03811681036200084a5760208201516001600160a01b03811681036200084a57620000686040840162000872565b620000766060850162000872565b91620000856080860162000872565b6200009360a0870162000872565b93620000a260c0880162000887565b93620000b160e0890162000887565b6101008901519094906001600160401b0381116200084a578a620000d7918b01620008b3565b97620000e76101208b0162000887565b9a620000f76101408c0162000887565b6101608c0151909b906001600160401b0381116200084a57826200011d918301620008b3565b6101808201519092906001600160401b0381116200084a57620001419201620008b3565b815190916001600160401b038211620005485760035490600182811c921680156200083f575b6020831014620005295781601f849311620007cf575b50602090601f831160011462000742575f9262000736575b50508160011b915f199060031b1c1916176003555b8051906001600160401b038211620005485760045490600182811c921680156200072b575b6020831014620005295781601f849311620006bb575b50602090601f83116001146200062e575f9262000622575b50508160011b915f199060031b1c1916176004555b6200021d816200091b565b901562000619575b60a052806080523315620006015760058054336001600160a01b03198216811790925560405191906001600160a01b03167f8be0079c531659141344cd1fd0a4f28419497f9722a3daafe3b4186f6b6457e05f80a3603c601555610e10601b5561ffff88168015908115620005f4575b50620005e5575061ffff86168015908115620005d8575b50620005c657600980546001600160a01b0319166001600160a01b03909216918217905560405163313ce56760e01b815290602090829060049082905afa908115620005bb575f9162000570575b5060ff16604d81116200055c57600a90810a60145580546001600160a01b03199081166001600160a01b0393841617909155600d80548216938316939093179092556016805483169382169390931790925560178054909116928216929092179091556006805460a09490941b61ffff60a01b166001600160c01b031990941694909116939093179190911760b09190911b61ffff60b01b1617905542600e558051906001600160401b0382116200054857601054600181811c911680156200053d575b60208210146200052957601f8111620004d3575b50602090601f8311600114620004575761ffff9392915f91836200044b575b50508160011b915f199060031b1c1916176010555b8180199316836011541617601155169060135416176013556040516149dc9081620009e18239608051818181612728015281816134be01526147f8015260a051815050f35b015190505f80620003f1565b60105f9081525f80516020620053bd833981519152929190601f198516905b818110620004ba575091600193918561ffff97969410620004a1575b505050811b0160105562000406565b01515f1960f88460031b161c191690555f808062000492565b9293602060018192878601518155019501930162000476565b60105f525f80516020620053bd833981519152601f840160051c810191602085106200051e575b601f0160051c01905b818110620005125750620003d2565b5f815560010162000503565b9091508190620004fa565b634e487b7160e01b5f52602260045260245ffd5b90607f1690620003be565b634e487b7160e01b5f52604160045260245ffd5b634e487b7160e01b5f52601160045260245ffd5b6020813d602011620005b2575b816200058c602093836200084e565b81010312620005ae57519060ff82168203620005ab575060ff620002fa565b80fd5b5080fd5b3d91506200057d565b6040513d5f823e3d90fd5b604051631f3b85d360e01b8152600490fd5b6127109150115f620002ac565b631f3b85d360e01b8152600490fd5b6127109150115f62000295565b604051631e4fbdf760e01b81525f6004820152602490fd5b50601262000225565b015190505f80620001fd565b60045f90815293507f8a35acfbc15ff81a39ae7d344fd709f28e8600b4aa8c65c6b64bfe7fe36bd19b91905b601f19841685106200069f576001945083601f1981161062000686575b505050811b0160045562000212565b01515f1960f88460031b161c191690555f808062000677565b818101518355602094850194600190930192909101906200065a565b60045f529091507f8a35acfbc15ff81a39ae7d344fd709f28e8600b4aa8c65c6b64bfe7fe36bd19b601f840160051c81016020851062000723575b90849392915b601f830160051c8201811062000714575050620001e5565b5f8155859450600101620006fc565b5080620006f6565b91607f1691620001cf565b015190505f8062000195565b60035f90815293507fc2575a0e9e593c00f959f8c92f12db2869c3395a3b0502d05e2516446f71f85b91905b601f1984168510620007b3576001945083601f198116106200079a575b505050811b01600355620001aa565b01515f1960f88460031b161c191690555f80806200078b565b818101518355602094850194600190930192909101906200076e565b60035f529091507fc2575a0e9e593c00f959f8c92f12db2869c3395a3b0502d05e2516446f71f85b601f840160051c81016020851062000837575b90849392915b601f830160051c82018110620008285750506200017d565b5f815585945060010162000810565b50806200080a565b91607f169162000167565b5f80fd5b601f909101601f19168101906001600160401b038211908210176200054857604052565b51906001600160a01b03821682036200084a57565b519061ffff821682036200084a57565b6001600160401b0381116200054857601f01601f191660200190565b919080601f840112156200084a57825190620008cf8262000897565b91620008df60405193846200084e565b8083526020918282870101116200084a575f5b818110620009075750825f9394955001015290565b8581018301518482018401528201620008f2565b6040805163313ce56760e01b60208201908152600482529293929181016001600160401b038111828210176200054857604052515f9384928392916001600160a01b03165afa3d15620009d7573d90620009758262000897565b916200098560405193846200084e565b82523d84602084013e5b80620009ca575b620009a1575b508190565b602081805181010312620009c6576020015160ff81116200099c576001925060ff1690565b8280fd5b5060208151101562000996565b6060906200098f56fe60806040526004361015610011575f80fd5b5f803560e01c806301e1d1141461301d5780630419b45a14612f4557806306fdde0314612e4c57806307a2d13a14612e2d57806308bb5f7b14612dbc578063095ea7b314612d095780630a22d68c14612ceb5780630a28a47714612c805780630ce6b41914612c325780631348ed5e14612c145780631736932414612beb57806318160ddd14612bcd5780631ba46cfd14612ba45780631be4c4d414612a1d5780631d6bdb5b1461292157806320124bce1461290657806323b872dd146128cd5780632d896b2a146128af5780632f3183e71461280e578063313ce5671461277c57806335659fb81461275757806338d52e0f146127125780633eacd2f8146126f0578063402d267d1461102657806344fcb5cc146125d75780634cdad506146125b85780635056d475146121c957806356984d9f14612185578063591e17881461214e5780635e20bfc8146121305780636e553f65146120cd5780636f31ab34146120b2578063706a3f7d1461206b57806370a0823114610e5f578063715018a61461200e57806372c5c14414611ff357806375797cef14611fca57806376138f5514611baa5780637ca1087914611b8f5780637fbc962214611b66578063800120fa14611af85780638795cccb146119d45780638da5cb5b146119ab5780638e73836c14611990578063910398ab1461197557806394bf804d14611948578063951e4bee1461191e57806395d89b411461185e57806398769926146118435780639948ff451461181a57806399530b06146117ff578063a31cd6b9146114f8578063a36e9fe714611404578063a3d1612c146113d1578063a85f5714146113a8578063a9059cbb14611376578063aa98e16314611358578063ac27a24f146112df578063b3311086146112c1578063b3d7f6b91461127e578063b460af94146111c7578063b73afe8c1461115d578063ba08765214611105578063be37b12c1461107d578063c42f18f51461102b578063c63d75b614611026578063c6e6f59214611007578063ce96cb7714610fce578063cec5a55814610f80578063cf0160f914610f12578063d0f5a9bc14610e98578063d905777e14610e5f578063dc2dc8ff14610ad4578063dd0a12bc14610ab2578063dd62ed3e14610a65578063e300a0f414610a2c578063e6f0681c14610a07578063e72f0f05146109e9578063e9ff17ef146109bd578063ec23368414610754578063ef4cadc514610736578063ef8b30f7146106d7578063efe0707b14610654578063f00db2601461062b578063f2fde38b146105a1578063f3466dfa146104945763fa1fc2e9146103d7575f80fd5b346104915760c036600319011261049157600435906103f461308c565b604435916001600160a01b038316830361048d5760603660631901126104915750610421918391336146ea565b604051918252806020830152606435604083015260843560ff811680910361048d57606083015260a4359160ff831680930361048d5760209260808201527f8b96c40bd23d041868dce7135e6994e68df1b292276db8f707c6c35873c1e20160a03392a2604051908152f35b5f80fd5b80fd5b503461049157806003193601126104915760405160105460018082169180821c915f918415610597575b6020948585108114610583578487528693929186908215610563575050600114610508575b506104f092500383613186565b610504604051928284938452830190613038565b0390f35b84915060105f527f1b6847dc741a1b0cd08d278845f9d819d87b734759afb55fe2de5cb82a9ae672905f915b85831061054b5750506104f09350820101856104e3565b80548389018501528794508693909201918101610534565b60ff1916858201526104f095151560051b85010192508791506104e39050565b634e487b7160e01b84526022600452602484fd5b92607f16926104be565b5034610491576020366003190112610491576105bb613076565b6105c36132be565b6001600160a01b0390811690811561061257600554826001600160601b0360a01b821617600555167f8be0079c531659141344cd1fd0a4f28419497f9722a3daafe3b4186f6b6457e05f80a380f35b604051631e4fbdf760e01b815260048101849052602490fd5b5034610491578060031936011261049157600d546040516001600160a01b039091168152602090f35b50346104915760203660031901126104915761066e613076565b6106766132be565b6001600160a01b031680156106c5578082600654826001600160601b0360a01b82161760065516177f2e7dcd5549bd379d2c481c56fc3dbe7db94761cb60cbbc301f807e31cc4a99448380a380f35b60405163e6c4247b60e01b8152600490fd5b50346104915760203660031901126104915760025460018101809111610722576106ff6134a3565b90600182018092116107225760209161071a91600435613750565b604051908152f35b634e487b7160e01b5f52601160045260245ffd5b50346104915780600319360112610491576020601454604051908152f35b50346104915780600319360112610491576101406040516107748161314d565b606081528260208201528260408201528260608201528260808201528260a08201528260c08201528260e0820152826101008201528261012082015201526107ba614684565b6107c26145e4565b906107cb613b02565b916107d4613c3b565b926107dd613c6c565b6107e56146c7565b90600e549561ffff60065460b01c1693600f549561ffff60135416976040519961080e8b61314d565b6040515f601054908160011c9160018116156109b3575b60208310600182161461099f57828452839190600181169081156109805750600114610921575b61085892500382613186565b8b5260208b015260408a01526060890152608088015260a087015260c086015260e08501526101008401526101208301526101408201526040518091602082526101406108b382516101606020860152610180850190613038565b91602081015160408501526040810151606085015260608101516080850152608081015160a085015260a081015160c085015260c081015160e085015260e081015161010085015261ffff610100820151166101208501526101208101518285015201516101608301520390f35b509060105f527f1b6847dc741a1b0cd08d278845f9d819d87b734759afb55fe2de5cb82a9ae672905f915b8183106109645750509060206108589282010161084c565b602091935080600191548385880101520191019091839261094c565b6020925061085894915060ff191682840152151560051b82010161084c565b634e487b7160e01b82526022600452602482fd5b91607f1691610825565b503461049157602036600319011261049157602061071a6004355f52601a602052600c60405f20015490565b50346104915780600319360112610491576020600f54604051908152f35b5034610491578060031936011261049157602061ffff60065460b01c16604051908152f35b50346104915760203660031901126104915760043590601c54821015610491576020610a5783613289565b90546040519160031b1c8152f35b503461049157604036600319011261049157610a7f613076565b6040610a8961308c565b9260018060a01b03809316815260016020522091165f52602052602060405f2054604051908152f35b5034610491578060031936011261049157602061ffff60135416604051908152f35b503461049157602080600319360112610e5b5760043590610af48261439d565b610e49578183526019815260408320546001600160a01b03908116338103610e3757838552601a835260408520604051610b2d81613130565b60ff82541615158152610b42600183016131a8565b85820152600882015460408201526018603c80610bb16009860154806060870152600e600a8801549761ffff8981809b1660808b015260101c1660a0890152600b81015460c0890152600c810154988960e08a0152600d82015416610100890152015461012087015242613867565b0404049060018201809211610e23579183610be7610bd5610be294610be2966139cd565b95908297879382976133c5565b6133c5565b6009546040516323b872dd60e01b8082526001600160a01b0394909416600482015230602482015260448101839052919791908990829060649082908f9087165af1908115610e18578b91610ddf575b5015610da15790816004898c94600a541660405192838092631e328b4160e11b82525afa908115610d96578491610d5d575b5016803b15610d59576040519182523060048301526001600160a01b0387166024830152604482018a905282908290606490829084905af18015610d4e57610d30575b50507ff1393a0dad2b2c7b857c1f3f0c9f0f03ea447faec793d97041eb5ad4bce81bde95610ceb610d2a9493601993610ce48b614562565b858b614486565b87895252604080882080546001600160a01b031916905580516001600160a01b0390941684526020840194909452928201929092529081906060820190565b0390a280f35b610d3d909493929461311c565b610d4a579091875f610cac565b8780fd5b6040513d84823e3d90fd5b8280fd5b90508981813d8311610d8f575b610d748183613186565b81010312610d8b57610d85906137d0565b5f610c69565b8380fd5b503d610d6a565b6040513d86823e3d90fd5b60405162461bcd60e51b81526004810189905260166024820152751499599d5b99081d1c985b9cd9995c8819985a5b195960521b6044820152606490fd5b90508881813d8311610e11575b610df68183613186565b81010312610e0d57610e07906137e4565b5f610c37565b8a80fd5b503d610dec565b6040513d8d823e3d90fd5b634e487b7160e01b88526011600452602488fd5b6040516398c1b40760e01b8152600490fd5b604051631915f32960e11b8152600490fd5b5080fd5b503461049157602036600319011261049157602061071a610e7e613076565b6001600160a01b03165f9081526020819052604090205490565b50346104915760203660031901126104915761ffff610eb56130d8565b610ebd6132be565b166127108111610f005780826011548261ffff1982161760115516177fe1a4ea7f5e6e02cfb3b314fa7050128838a1dd7cca9e85e07ffef5aa4568150a8380a380f35b604051631f3b85d360e01b8152600490fd5b5034610491576020366003190112610491577ff6a412f75fe107fb805f9acb0408b3ac23ff1d0381fc83f6ef4352a8c9727f896020610f4f613076565b610f576132be565b601680546001600160a01b0319166001600160a01b03929092169182179055604051908152a180f35b5034610491576020366003190112610491577f6afefcb7619ccdb73c8fdd4304d507509f1d2327b6f29ff2b9c77a1fa760687d6020600435610fc06132be565b80601b55604051908152a180f35b50346104915760203660031901126104915760209061071a906040906001600160a01b03610ffa613076565b1681528084522054613532565b503461049157602036600319011261049157602061071a600435613c91565b6130a2565b50346104915760403660031901126104915761050461105361104b6130c7565b600435614042565b604080519586526020860194909452928401919091526060830152608082015290819060a0820190565b5034610491576020366003190112610491576110976130d8565b61109f6132be565b61ffff90818116916127108311610f00577f2ea630a8e6f6f7590aa81eb8993a1c4a49a0913effd00467ddd761d45867a3ee926040926006549061ffff60a01b9060a01b169061ffff60a01b191617918260065583519260a01c1682526020820152a180f35b50346104915760206111236111193661320b565b82939291336146ea565b9060405190815281838201527ff18a1e0eb1d585d2194cdc081f34e04df407e94de5238f45531482467e31705f60403392a2604051908152f35b50346104915760203660031901126104915761ffff61117a6130d8565b6111826132be565b166127108111610f00576020817f70804697a7389a86ccbf4594ad23c117ecf0a1ffb94ae9516dc15f85ac7c29c89261ffff196013541617601355604051908152a180f35b5034610491576020906111d93661320b565b9091806111e4614684565b94508481111561125f5750506111f983613c91565b926112078482848633614739565b92905b61121684600c546133c5565b600c55604051918483528583015260018060a01b038091169216907fd361036fcb8d05e64b578a42650d09795f77b4093f4c866fcfced1fff53fa4f360403392a4604051908152f35b9190935061127961126f83613c91565b8093838633614739565b61120a565b5034610491576020366003190112610491576112986134a3565b600181018091116107225760025490600182018092116107225760209161071a91600435613560565b50346104915780600319360112610491576020600e54604051908152f35b5034610491576020366003190112610491576112f96130d8565b6113016132be565b61ffff808216916127108311610f00576006805461ffff60b01b191660b092831b61ffff60b01b161790819055901c167fcc9b1d1e60d76e8755bd2ceaeb3d3ccfe5e5bb556097b7ce618b0a60480ef3e18380a380f35b50346104915780600319360112610491576020601254604051908152f35b50346104915760403660031901126104915761139d611393613076565b60243590336132ea565b602060405160018152f35b50346104915780600319360112610491576017546040516001600160a01b039091168152602090f35b503461049157602036600319011261049157602090600435815260198252604060018060a01b0391205416604051908152f35b5034610491576020366003190112610491576040610200916004358152601a6020522060ff81541690611439600182016131a8565b906008810154600982015490600a83015490600b84015491600c8501549361ffff9260c0600e85600d8a015416980154986040519a15158b52805160208c015260018060a01b038060208301511660408d01528060408301511660608d0152606082015160808d015260808201511660a08c015260a0810151828c01520151151560e08a015261010089015261012088015281811661014088015260101c166101608601526101808501526101a08401526101c08301526101e0820152f35b5034610491576080366003190112610491576115126130c7565b60443561ffff8116810361048d5760643561ffff8116810361048d5761ffff82161580156117f0575b610f0057600d546001600160a01b031633036117de57602491611560601b54426133c5565b9060e060018060a01b03600a54166040519586809263484d384560e11b825260043560048301525afa9384156117d35786946117a2575b508351906115ab60a0860192835190613867565b1561179057846115c461ffff9693879451905190613867565b604051916115d183613130565b600183526020830152846040830152886060830152838816608083015283831660a08301528860c08301528860e08301528386166101008301526101208201526004358852601a602052600e61012060408a209261163e81511515859060ff801983541691151516179055565b6116d260c06020830151805160018801556002870160018060a01b03602083015116906001600160601b0360a01b91828254161790556003880160018060a01b036040840151168282541617905560608201516004890155600588019060018060a01b036080840151169082541617905560a0810151600688015501511515600786019060ff801983541691151516179055565b6040810151600885015560608101516009850155600a840161171f8760808401511691881992838254161781558860a08501511663ffff000082549160101b169063ffff00001916179055565b60c0820151600b86015560e0820151600c860155600d8501908761010084015116908254161790550151910155816040519616865216602085015260408401521660608201527f582952bb580f603774d9c537b553a9262ca26cd579550a2812bc91a3fec3198d608060043592a280f35b60405163c627ace960e01b8152600490fd5b6117c591945060e03d60e0116117cc575b6117bd8183613186565b8101906137f1565b925f611597565b503d6117b3565b6040513d88823e3d90fd5b604051632e83528960e01b8152600490fd5b5061271061ffff83161161153b565b5034610491578060031936011261049157602061071a613c6c565b50346104915780600319360112610491576006546040516001600160a01b039091168152602090f35b5034610491578060031936011261049157602061071a613d16565b503461049157806003193601126104915760405160045460018082169180821c915f918415611914575b60209485851081146105835784875286939291869082156105635750506001146118b957506104f092500383613186565b84915060045f527f8a35acfbc15ff81a39ae7d344fd709f28e8600b4aa8c65c6b64bfe7fe36bd19b905f915b8583106118fc5750506104f09350820101856104e3565b805483890185015287945086939092019181016118e5565b92607f1692611888565b50346104915760203660031901126104915760406020916004358152601883522054604051908152f35b50346104915760403660031901126104915761196261308c565b506040516369bd111d60e11b8152600490fd5b5034610491578060031936011261049157602061071a6145e4565b5034610491578060031936011261049157602061071a613c3b565b50346104915780600319360112610491576005546040516001600160a01b039091168152602090f35b50346104915780600319360112610491576006546001600160a01b039081169033829003611ae657600754918215611ad457600784905560095460405163a9059cbb60e01b81526001600160a01b039290921660048301526024820184905260209082906044908290889087165af1908115610d96578491611a9b575b5015611a8a5760207fa087657e3d85162090ffd700fbfdf5070d816f63aa5da00063f6ffd369c8a6db916006541692604051908152a280f35b604051620b587d60e91b8152600490fd5b90506020813d8211611acc575b81611ab560209383613186565b81010312610d8b57611ac6906137e4565b5f611a51565b3d9150611aa8565b604051630d00db4d60e31b8152600490fd5b6040516307c68f0f60e11b8152600490fd5b5034610491576020366003190112610491577fbc05deec4ecd4d9295d36f7434b1feee89ac308d4040e0133f06bff4635cf70a6020611b35613076565b611b3d6132be565b601780546001600160a01b0319166001600160a01b03929092169182179055604051908152a180f35b5034610491578060031936011261049157600a546040516001600160a01b039091168152602090f35b5034610491578060031936011261049157602061071a61462a565b5034610491578060031936011261049157611bc361423e565b5090805b8251811015611f8a57611bda818461422a565b5192611be584613874565b969291611bf488838387614486565b838752601960205260408720546001600160a01b039081169590849081611e7f575b5050848852601f602052604088206002015460ff1615611e4257875b601e5480821015611e0c5786611c4783613240565b90549060031b1c14611c625750611c5d90613ac1565b611c32565b919994979695949392915f198101908111611df85790611c94611c87611cac93613240565b90549060031b1c91613240565b90919082549060031b91821b915f19901b1916179055565b601e548015611de457611ddf977f2bc6d87cf553310ee13e0d3270f4a621bb33785b64765662507746e56734142c94611dd7925f1901611cfe611cee82613240565b8154905f199060031b1b19169055565b601e555b868b52601f6020528a6002604082205f81555f600182015501555b868b52601a60205260408b2090604051611d3681613130565b60ff83541615158152611d4b600184016131a8565b60208201526008830154604082015260098301546060820152610120600e600a8501549461ffff8681809816608087015260101c1660a0850152600b81015460c0850152600c810154958660e0860152600d820154166101008501520154910152604051958695869192608093969594919660a084019784526020840152604083015260608201520152565b0390a3613ac1565b611bc7565b634e487b7160e01b5f52603160045260245ffd5b634e487b7160e01b8a52601160045260248afd5b50509790611dd7611ddf979695947f2bc6d87cf553310ee13e0d3270f4a621bb33785b64765662507746e56734142c9493611d02565b9790611dd785947f2bc6d87cf553310ee13e0d3270f4a621bb33785b64765662507746e56734142c9493611e7a611ddf9a9998614562565b611d1d565b60095460405163a9059cbb60e01b81526001600160a01b038a1660048201526024810193909352602091839160449183918e91165af1908115611f7f578991611f41575b5015611efc5785857ff0552a3665368b7e77abbd2bbfe72b2615793841acfd3da5b7df5f330cc00eae6020604051888152a3835f611c16565b60405162461bcd60e51b815260206004820152601860248201527f4b69636b6261636b207472616e73666572206661696c656400000000000000006044820152606490fd5b90506020813d602011611f77575b81611f5c60209383613186565b81010312611f7357611f6d906137e4565b5f611ec3565b8880fd5b3d9150611f4f565b6040513d8b823e3d90fd5b507f71c060a755cff9c84db9f4be3b4fac0b83f3ffe4e7ff3ebc0be0420d28fb1de0611fc4836040519182916020835260208301906130e9565b0390a180f35b503461049157602036600319011261049157604060209160043581528280522054604051908152f35b5034610491578060031936011261049157602061071a613b02565b50346104915780600319360112610491576120276132be565b600580546001600160a01b031981169091555f906001600160a01b03167f8be0079c531659141344cd1fd0a4f28419497f9722a3daafe3b4186f6b6457e08280a380f35b50346104915760203660031901126104915760406060916004358152601f6020522080549060ff600260018301549201541690604051928352602083015215156040820152f35b5034610491578060031936011261049157602061071a6146c7565b50346104915760403660031901126104915760206004356120f6816120f061308c565b33613e62565b9060405190815281838201527f0b05f0d1cd0819f155b8a61f60baf7767c1ee49d04aeaab701df236140eb93f960403392a2604051908152f35b50346104915780600319360112610491576020601b54604051908152f35b503461049157602036600319011261049157608061216d600435613874565b91604051938452602084015260408301526060820152f35b50346104915780600319360112610491576121bb6105046121a461423e565b6040929192519384936040855260408501906130e9565b9083820360208501526130e9565b5034610491576040366003190112610491576004356121e66130c7565b60175460405163babcc53960e01b8152336004820152602094929392916001600160a01b03919086908290602490829086165afa9081156124aa578391612583575b501561256b57828252601a9384865260ff604084205416156125595783835284865261ffff80600a60408620015460101c16908216908111908115612550575b50610f00578383528486526008604084200154421161253e57602460e083600a54166040519283809263484d384560e11b82528960048301525afa908115610d9657849161251f575b5060c081015161250d57848452858752600660408520015460a0820151036124fb5784845285875282878160026040882001541692015116036124e95780600a6122fe6123399387614042565b9a9250505087875289526040862090600b82015587600c820155426009820155019063ffff000082549160101b169063ffff00001916179055565b60095460405163a9059cbb60e01b81523360048201526024810186905290869082906044908290879087165af180156124aa576124b5575b5060048582600a541660405192838092631e328b4160e11b82525afa9081156124aa578391612475575b5016803b15610e5b576040516323b872dd60e01b8152336004820152306024820152604481018490529082908290606490829084905af18015610d4e579060409291612466575b50828152601985522080546001600160a01b03191633179055601c54600160401b8110156124525781611c9482600161241e9401601c55613289565b604051908282527f97d46c18045986c4f6dbf2482a3034fe9652263d6b07817879304ef25f5d86da843393a3604051908152f35b634e487b7160e01b5f52604160045260245ffd5b61246f9061311c565b5f6123e2565b90508581813d83116124a3575b61248c8183613186565b81010312610d595761249d906137d0565b5f61239b565b503d612482565b6040513d85823e3d90fd5b8581813d83116124e2575b6124ca8183613186565b81010312610d59576124db906137e4565b505f612371565b503d6124c0565b60405163f18c77f960e01b8152600490fd5b60405163971ccc7760e01b8152600490fd5b604051637ccc2bd960e11b8152600490fd5b612538915060e03d60e0116117cc576117bd8183613186565b5f6122b1565b604051634aad99a560e11b8152600490fd5b9050155f612268565b60405163649ac74160e11b8152600490fd5b604051637190a79560e11b8152336004820152602490fd5b90508581813d83116125b1575b61259a8183613186565b81010312610d59576125ab906137e4565b5f612228565b503d612590565b503461049157602036600319011261049157602061071a600435613532565b503461049157602080600319360112610e5b57600435906125f66132be565b600f548083106126de578161264f61260f869386613867565b6009546040516323b872dd60e01b81523360048201523060248201526044810192909252909384926001600160a01b039092169183919082906064820190565b03925af1908115610d965784916126a9575b501561269757817f96ef0ad874bac1a0f28dd6bb42d3cd79816d65910307ac7d95d97bb464cbb94a92600f55604051908152a180f35b6040516312171d8360e31b8152600490fd5b90508181813d83116126d7575b6126c08183613186565b81010312610d8b576126d1906137e4565b5f612661565b503d6126b6565b604051631506ed4b60e01b8152600490fd5b5034610491578060031936011261049157602061ffff60115416604051908152f35b50346104915780600319360112610491576040517f00000000000000000000000000000000000000000000000000000000000000006001600160a01b03168152602090f35b5034610491578060031936011261049157602061ffff60065460a01c16604051908152f35b503461049157806003193601126104915760095460405163313ce56760e01b815290602090829060049082906001600160a01b03165afa908115610d4e5782916127cf575b60208260ff60405191168152f35b90506020813d8211612806575b816127e960209383613186565b81010312610e5b575160ff81168103610e5b57602091505f6127c1565b3d91506127dc565b50346104915760a03660031901126104915760043561282b61308c565b6060366043190112610d5957816128429133613e62565b90604051908152816020820152604435604082015260643560ff8116809103610d8b57606082015260843560ff8116809103610d8b576020935060808201527f393f5b2cbcf0aa47eaec63eb01049e213dc0a29e5bf9b323471be5f5125fc50c60a03392a2604051908152f35b50346104915780600319360112610491576020600854604051908152f35b50346104915760603660031901126104915761139d6128ea613076565b6128f261308c565b604435916129018333836133d2565b6132ea565b5034610491578060031936011261049157602061071a614684565b503461049157806003193601126104915761293a6132be565b6012548015612a0b57601282905560095460405163a9059cbb60e01b815233600482015260248101839052906020908290604490829087906001600160a01b03165af19081156124aa5783916129d2575b50156129c0576040519081527fc1d14d5488f3efbb6db97da278fa305488c34be0b9fb57e21dd6140359c323c160203392a280f35b6040516399088e5360e01b8152600490fd5b90506020813d8211612a03575b816129ec60209383613186565b81010312610d59576129fd906137e4565b5f61298b565b3d91506129df565b6040516384bdc80f60e01b8152600490fd5b503461049157602080600319360112610e5b5760043590612a3c6132be565b600f548015612b9257612a4e83614402565b15612b8057828452601f825260ff600260408620015416612b6e57828452601a8252600c60408520015491612a878260011c8093613867565b600f55612a9384614562565b601e54600160401b811015612b5a5784611c94826001612ab69401601e55613240565b6040516060810181811067ffffffffffffffff821117612b465791612b3a604094927ff95dd13343beabbe284b7f97d54b2d4fda5841bab502d60164e8ede601fbe3ac96948652838152600283820186815287830190600182528a8c52601f8652888c209351845551600184015551151591019060ff801983541691151516179055565b8351928352820152a280f35b634e487b7160e01b87526041600452602487fd5b634e487b7160e01b86526041600452602486fd5b604051633235e0c760e21b8152600490fd5b604051632d9bb54f60e11b8152600490fd5b6040516357154c3f60e01b8152600490fd5b50346104915780600319360112610491576009546040516001600160a01b039091168152602090f35b50346104915780600319360112610491576020600254604051908152f35b50346104915780600319360112610491576016546040516001600160a01b039091168152602090f35b50346104915780600319360112610491576020601554604051908152f35b5034610491576020366003190112610491577fe595c99430465234d1ec90ffa3458590c544d5349139442d6911452a7b8e82fa6020600435612c726132be565b80601555604051908152a180f35b50346104915760203660031901126104915760025460018101809111612cd757612ca86134a3565b9160018301809311612cc357602061071a8484600435613560565b634e487b7160e01b81526011600452602490fd5b634e487b7160e01b82526011600452602482fd5b50346104915780600319360112610491576020600754604051908152f35b503461049157604036600319011261049157612d23613076565b602435903315612da3576001600160a01b0316918215612d8b5760408291338152600160205281812085825260205220556040519081527f8c5be1e5ebec7d5bd14f71427d1e84f3dd0314c0f7b2291e5b200ac8c7c3b92560203392a3602060405160018152f35b60249060405190634a1406b160e11b82526004820152fd5b60405163e602df0560e01b815260048101849052602490fd5b503461049157602036600319011261049157612dd6613076565b612dde6132be565b6001600160a01b039081169081156106c557600d54826001600160601b0360a01b821617600d55167fae536502f25a82de70abed467008489d54fa0cbf58cdc51718efe6d49406724f8380a380f35b503461049157602036600319011261049157602061071a600435613cd0565b5034610491578060031936011261049157604051908060035491600183811c92818516948515612f3b575b6020958686108114612f2757858852879493929187908215612f05575050600114612eab575b50506104f092500383613186565b90859250600382527fc2575a0e9e593c00f959f8c92f12db2869c3395a3b0502d05e2516446f71f85b5b858310612eed5750506104f093508201015f80612e9d565b80548389018501528794508693909201918101612ed5565b92509350506104f094915060ff191682840152151560051b8201015f80612e9d565b634e487b7160e01b83526022600452602483fd5b93607f1693612e77565b5034610491578060031936011261049157612f5e6132be565b6008548015611ad457600882905560095460405163a9059cbb60e01b815233600482015260248101839052906020908290604490829087906001600160a01b03165af19081156124aa578391612fe4575b5015611a8a576040519081527fcdcaff67ac16639664e5f9343c9223a1dc9c972ec367b69ae9fc1325c7be547460203392a280f35b90506020813d8211613015575b81612ffe60209383613186565b81010312610d595761300f906137e4565b5f612faf565b3d9150612ff1565b5034610491578060031936011261049157602061071a6134a3565b91908251928382525f5b848110613062575050825f602080949584010152601f8019910116010190565b602081830181015184830182015201613042565b600435906001600160a01b038216820361048d57565b602435906001600160a01b038216820361048d57565b3461048d57602036600319011261048d576130bb613076565b5060206040515f198152f35b6024359061ffff8216820361048d57565b6004359061ffff8216820361048d57565b9081518082526020808093019301915f5b828110613108575050505090565b8351855293810193928101926001016130fa565b67ffffffffffffffff811161245257604052565b610140810190811067ffffffffffffffff82111761245257604052565b610160810190811067ffffffffffffffff82111761245257604052565b60e0810190811067ffffffffffffffff82111761245257604052565b90601f8019910116810190811067ffffffffffffffff82111761245257604052565b906040516131b58161316a565b8254815260018301546001600160a01b039081166020830152600284015481166040830152600384015460608301526004840154166080820152600583015460a082015260069092015460ff16151560c0830152565b606090600319011261048d57600435906001600160a01b0390602435828116810361048d5791604435908116810361048d5790565b601e5481101561327557601e5f527f50bb669a95c7b50b7e8a6f09454034b2b14cf2b85c730dca9a539ca82cb6e35001905f90565b634e487b7160e01b5f52603260045260245ffd5b601c5481101561327557601c5f527f0e4562a10381dec21b205ed72637e6b1b523bdd0e4d4d50af5cd23dd4500a21101905f90565b6005546001600160a01b031633036132d257565b60405163118cdaa760e01b8152336004820152602490fd5b916001600160a01b038084169283156133ad5716928315613395575f9083825281602052604082205490838210613363575091604082827fddf252ad1be2c89b69c2b068fc378daa952ba7f163c4a11628f55a4df523b3ef958760209652828652038282205586815220818154019055604051908152a3565b60405163391434e360e21b81526001600160a01b03919091166004820152602481019190915260448101839052606490fd5b60405163ec442f0560e01b81525f6004820152602490fd5b604051634b637e8f60e11b81525f6004820152602490fd5b9190820180921161072257565b9160018060a01b03809316915f9383855260016020526040938486209183169182875260205284862054925f19840361340f575b50505050505050565b8484106134735750801561345b5781156134435785526001602052838520908552602052039120555f808080808080613406565b8451634a1406b160e11b815260048101879052602490fd5b845163e602df0560e01b815260048101879052602490fd5b8551637dc7a0d960e11b81526001600160a01b039190911660048201526024810184905260448101859052606490fd5b6040516370a0823160e01b81523060048201526020816024817f00000000000000000000000000000000000000000000000000000000000000006001600160a01b03165afa908115613527575f916134f9575090565b906020823d821161351f575b8161351260209383613186565b8101031261049157505190565b3d9150613505565b6040513d5f823e3d90fd5b61353a6134a3565b600181018091116107225760025490600182018092116107225761355d92613750565b90565b919061356d828285613750565b92821561358a570961357c5790565b600181018091116107225790565b634e487b7160e01b5f52601260045260245ffd5b811561358a570490565b90808202905f1981840990828083109203918083146136085761016d92038211156135f6577f4ff4c73064ff4c73064ff4c73064ff4c73064ff4c73064ff4c73064ff4c73065930990030290565b60405163227bc15360e01b8152600490fd5b50505061016d91500490565b90808202905f19818409908280831092039180830392146136715761271090828211156135f6577fbc01a36e2eb1c432ca57a786c226809d495182a9930be0ded288ce703afb7e91940990828211900360fc1b910360041c170290565b505061271091500490565b90808202905f19818409908280831092039180830392146136da576298968090828211156135f6577f5fb648fcc913daa857a27e44a97d3c6bc1193a63a91cc45be5032477ae8d46a5940990828211900360f91b910360071c170290565b50506298968091500490565b90808202905f198184099082808310920391808303921461374457620f424090828211156135f6577fde8f6cefed634549b62c77574f722e1ac57e23f24d8fd5cb790fb65668c26139940990828211900360fa1b910360061c170290565b5050620f424091500490565b9091828202915f19848209938380861095039480860395146137c357848311156135f657829109815f038216809204600280826003021880830282030280830282030280830282030280830282030280830282030280920290030293600183805f03040190848311900302920304170290565b50509061355d925061359e565b51906001600160a01b038216820361048d57565b5190811515820361048d57565b908160e091031261048d5761385f60c06040519261380e8461316a565b8051845261381e602082016137d0565b602085015261382f604082016137d0565b60408501526060810151606085015261384a608082016137d0565b608085015260a081015160a0850152016137e4565b60c082015290565b9190820391821161072257565b905f918252601a60205260408220906040519161389083613130565b60ff815416151583526138a5600182016131a8565b602084015260088101546040840152600981015492836060820152600a8201549161ffff8381809516608085015260101c1660a0830152600b81015460c0830152600c8101549260e08301938452600e81600d8401541692610100850193845201549561012084019687528042115f1461399b57603c8061392860189342613867565b040404915b60018301809311610e235761396c979361396c9695936139719361395d9351168082115f146139935750906139cd565b969097918099888a9451613867565b613867565b9051908181111561398c576139869250613867565b93929190565b5050613986565b9050906139cd565b50869161392d565b8181029291811591840414171561072257565b906103e861ffff8093160291821691820361072257565b9161ffff91826080850151166103e89081810291818304149015171561072257816139f7916135a8565b9260065491818360a01c1661271001908282116107225782613a2f81613a25613a3b96613a3596168a613614565b9660b01c166139b6565b166135a8565b826133c5565b93613a5d85613a5661012084019360e0855191015190613867565b925161367c565b80821015613ab95750935b80613aa857505f925b81613a94575050613a8e5f925b613a888482613867565b94613867565b91929190565b613a8e91613aa29185613750565b92613a7e565b613ab3908286613750565b92613a71565b905093613a68565b5f1981146107225760010190565b9190915f838201938412911290801582169115161761072257565b81810392915f13801582851316918412161761072257565b5f80601d545b808210613bf6575050601e545f5b818110613bc75750601c545f5b818110613b755750505f905b808210613b3b57505090565b9091613b69613b6f91613b4d85613240565b90549060031b1c5f52601f602052600160405f20015490613aea565b92613ac1565b90613b2f565b613b7e81613289565b90549060031b1c613b8e81614402565b613ba2575b50613b9d90613ac1565b613b23565b613b9d9194613bc0915f52601a602052600c60405f20015490613aea565b9390613b93565b91613b69613bf191613bd885613240565b90549060031b1c5f52601f60205260405f205490613acf565b613b16565b9091613b69613c3591847f6d4407e7be21f808e6509aa9fa9143369579dd7d760fe20a2c09680fc146134f01545f52601860205260405f205490613acf565b90613b08565b613c5a613c46613b02565b613c55600b54600c5490613aea565b613acf565b5f80821315613c67575090565b905090565b6002548015613c8a5761355d90613c81613c3b565b60145490613750565b5060145490565b600254908115613cc25761355d91613cbd613caa613c3b565b613cb760145480926139a3565b936139a3565b613750565b61355d9150601454906139a3565b600254908115613d1057613d0b613cf491613d0b61355d94601454948580946139a3565b613d0584613d00613c3b565b6139a3565b90613750565b61359e565b50505f90565b5f8080601c549061ffff601181815416925b848610613d385750505050505090565b909192939495613d4787613289565b90549060031b1c82526020601a8152604090818420825192613d6884613130565b60ff82541615158452600192613d7f8484016131a8565b908501526008820154908401526018613dec600983015480606087015289600a850154818116608089015260101c1660a0870152600b84015460c0870152600c84015460e0870152600e8a600d860154169461010088019586520154610120870152603c91829142613867565b040404918201809211613e4e57613e1c613e3e93613e44959389613e389451168082115f146139935750906139cd565b5050613e3288613e2b8b6139b6565b16826136e6565b90613867565b906133c5565b96613ac1565b9493929190613d28565b634e487b7160e01b85526004869052602485fd5b929160018060a01b0380601654169060409586519263babcc53960e01b8452838383169182600483015281602460209788935afa908115613fec575f9161400d575b5015613ff65750613eb3613c3b565b60025460095489516323b872dd60e01b81526001600160a01b0394909416600485015230602485015260448401879052919290918590829060649082905f9089165af18015613fec57613fb8575b5080613f8557505082935b16908115613f6e577fddf252ad1be2c89b69c2b068fc378daa952ba7f163c4a11628f55a4df523b3ef5f91859697613f49613f68976002546133c5565b60025584845283825280842088815401905551878152a3600b546133c5565b600b5590565b855163ec442f0560e01b81525f6004820152602490fd5b613d0b613fb292613f94613d16565b92613fac60145494613fa6868b6139a3565b936133c5565b91613750565b93613f0c565b8481813d8311613fe5575b613fcd8183613186565b8101031261048d57613fde906137e4565b505f613f01565b503d613fc3565b89513d5f823e3d90fd5b602490885190635ebb5e2160e11b82526004820152fd5b908582813d831161403b575b6140238183613186565b810103126104915750614035906137e4565b5f613ea4565b503d614019565b600a546040805163484d384560e11b815260048101849052939492909160e090859060249082906001600160a01b03165afa9384156141d6575f946141b6575b505f52601a602052805f2081519161409983613130565b60ff825416151583526140ae600183016131a8565b602084015260088201548184015260098201546060840152600a82015461ffff9182821660808601528260a086019260101c168252600b84015460c0860152600c84015460e0860152600e83600d8601541694610100870195865201549161012086019283528551156141a557519783169783168811801561419d575b61418d5750603c80614154606061414a61416a999a9b60189651613614565b9a01514290613867565b0404049151168082115f146139935750906139cd565b9390919261418561417f84610be287896133c5565b83613867565b919493929190565b51631f3b85d360e01b8152600490fd5b50871561412b565b815163649ac74160e11b8152600490fd5b6141cf91945060e03d81116117cc576117bd8183613186565b925f614082565b82513d5f823e3d90fd5b67ffffffffffffffff81116124525760051b60200190565b90614202826141e0565b61420f6040519182613186565b8281528092614220601f19916141e0565b0190602036910137565b80518210156132755760209160051b010190565b601c5490601e5461425761425282856133c5565b6141f8565b92614261816141f8565b5f92839284905b80821061432a5750505f5b8181106142e3575050614285836141f8565b9261428f836141f8565b955f5b8281106142d0575050505f5b8281106142ac575050509190565b806142ba6142cb928461422a565b516142c5828961422a565b52613ac1565b61429e565b806142ba6142de928461422a565b614292565b6142ec81613240565b90549060031b1c6142fc8161439d565b614310575b5061430b90613ac1565b614273565b85614323916142c561430b94988b61422a565b9490614301565b909461433586613289565b90549060031b1c6143458161439d565b15614368578161435c916142c5614362948c61422a565b95613ac1565b90614268565b61437481979297614402565b614383575b5061436290613ac1565b85614396916142c561436294988861422a565b9490614379565b600a5460405163484d384560e11b8152600481019290925260e090829060249082906001600160a01b03165afa908115613527575f916143e4575b5060a081519101511490565b6143fc915060e03d81116117cc576117bd8183613186565b5f6143d8565b600a5460405163484d384560e11b8152600481019290925260e090829060249082906001600160a01b03165afa8015613527576060915f91614468575b500151601554620151809081810291818304149015171561072257614463916133c5565b421190565b614480915060e03d81116117cc576117bd8183613186565b5f61443f565b92916144986144ef92936008546133c5565b6008556144e46144c26144bb61ffff6144b481601154166139b6565b16866136e6565b8095613867565b935f9486865260186020526040862055602080528060408620556012546133c5565b6012556007546133c5565b600755601d5490600160401b82101561454e576001820180601d5582101561453a57601d90527f6d4407e7be21f808e6509aa9fa9143369579dd7d760fe20a2c09680fc146134f0155565b634e487b7160e01b81526032600452602490fd5b634e487b7160e01b81526041600452602490fd5b5f5b601c8054808310156145de578361457a84613289565b919054600392831b1c146145995750505061459490613ac1565b614564565b9193505f199290838101908111610722576145c5926145ba611c9492613289565b9054911b1c91613289565b81548015611de45701906145db611cee83613289565b55565b50505050565b5f80601c545b8082106145f657505090565b9091613b6961462491613e3861460b86613289565b90549060031b1c5f52601a602052600c60405f20015490565b906145ea565b5f8080601c54905b81831061463f5750505090565b90919261467761467d9161465286613289565b90549060031b1c8452601a602052613e3860408520600c600b82015491015490613867565b93613ac1565b9190614632565b61355d6146be6146b56146956134a3565b613e326146ac6146a361462a565b600754906133c5565b600854906133c5565b600f5490613867565b60125490613867565b6146cf614684565b6146d7613c3b565b156146e55761355d90613c91565b505f90565b9290926146f56146c7565b918281111561472557506147139261470b614684565b948592614739565b61471f81600c546133c5565b600c5590565b91506147349261470b83613cd0565b614713565b6001600160a01b03808416958183169493919281888703614932575b505086156133ad575f8781526020908082526040958682205490848210614901575083908a83528284520386822055826002540360025580897fddf252ad1be2c89b69c2b068fc378daa952ba7f163c4a11628f55a4df523b3ef848951878152a3855163a9059cbb60e01b8382019081526001600160a01b038616602483015260448083018b90528252909190601f1990829081906147f5606487613186565b897f00000000000000000000000000000000000000000000000000000000000000001695519082875af13d156148f4573d67ffffffffffffffff81116148e0579061485d929161484e878c5194601f8401160184613186565b82523d848784013e5b84614943565b908151908482151592836148bd575b50505090506148a65750845196875286015216927ffbde797d201c681b91056529119e0b02407c7bb96a4a2c75c01fc9667232c8db9190a4565b602490865190635274afe760e01b82526004820152fd5b8480929394500103126104915750826148d691016137e4565b15805f848161486c565b634e487b7160e01b84526041600452602484fd5b61485d9150606090614857565b875163391434e360e21b81526001600160a01b03919091166004820152602481019190915260448101849052606490fd5b61493c91866133d2565b5f81614755565b9061496a575080511561495857805190602001fd5b604051630a12f52160e11b8152600490fd5b8151158061499d575b61497b575090565b604051639996b31560e01b81526001600160a01b039091166004820152602490fd5b50803b1561497356fea2646970667358221220919d5d8983408cfc80bb2e4c4ccfc34ed77933b1bab579c338a8d3a2b65b9dc064736f6c634300081400331b6847dc741a1b0cd08d278845f9d819d87b734759afb55fe2de5cb82a9ae672",
  "devdoc": {
    "author": "@solidoracle",
    "errors": {
      "AddressEmptyCode(address)": [
        {
          "details": "There's no code at `target` (it is not a contract)."
        }
      ],
      "AddressInsufficientBalance(address)": [
        {
          "details": "The ETH balance of the account is not enough to perform the operation."
        }
      ],
      "ERC20InsufficientAllowance(address,uint256,uint256)": [
        {
          "details": "Indicates a failure with the `spender`s `allowance`. Used in transfers.",
          "params": {
            "allowance": "Amount of tokens a `spender` is allowed to operate with.",
            "needed": "Minimum amount required to perform a transfer.",
            "spender": "Address that may be allowed to operate on tokens without being their owner."
          }
        }
      ],
      "ERC20InsufficientBalance(address,uint256,uint256)": [
        {
          "details": "Indicates an error related to the current `balance` of a `sender`. Used in transfers.",
          "params": {
            "balance": "Current balance for the interacting account.",
            "needed": "Minimum amount required to perform a transfer.",
            "sender": "Address whose tokens are being transferred."
          }
        }
      ],
      "ERC20InvalidApprover(address)": [
        {
          "details": "Indicates a failure with the `approver` of a token to be approved. Used in approvals.",
          "params": {
            "approver": "Address initiating an approval operation."
          }
        }
      ],
      "ERC20InvalidReceiver(address)": [
        {
          "details": "Indicates a failure with the token `receiver`. Used in transfers.",
          "params": {
            "receiver": "Address to which tokens are being transferred."
          }
        }
      ],
      "ERC20InvalidSender(address)": [
        {
          "details": "Indicates a failure with the token `sender`. Used in transfers.",
          "params": {
            "sender": "Address whose tokens are being transferred."
          }
        }
      ],
      "ERC20InvalidSpender(address)": [
        {
          "details": "Indicates a failure with the `spender` to be approved. Used in approvals.",
          "params": {
            "spender": "Address that may be allowed to operate on tokens without being their owner."
          }
        }
      ],
      "ERC4626ExceededMaxDeposit(address,uint256,uint256)": [
        {
          "details": "Attempted to deposit more assets than the max amount for `receiver`."
        }
      ],
      "ERC4626ExceededMaxMint(address,uint256,uint256)": [
        {
          "details": "Attempted to mint more shares than the max amount for `receiver`."
        }
      ],
      "ERC4626ExceededMaxRedeem(address,uint256,uint256)": [
        {
          "details": "Attempted to redeem more shares than the max amount for `receiver`."
        }
      ],
      "ERC4626ExceededMaxWithdraw(address,uint256,uint256)": [
        {
          "details": "Attempted to withdraw more assets than the max amount for `receiver`."
        }
      ],
      "FailedInnerCall()": [
        {
          "details": "A call to an address target failed. The target may have reverted."
        }
      ],
      "MathOverflowedMulDiv()": [
        {
          "details": "Muldiv operation overflow."
        }
      ],
      "OwnableInvalidOwner(address)": [
        {
          "details": "The owner is not a valid owner account. (eg. `address(0)`)"
        }
      ],
      "OwnableUnauthorizedAccount(address)": [
        {
          "details": "The caller account is not authorized to perform an operation."
        }
      ],
      "SafeERC20FailedOperation(address)": [
        {
          "details": "An operation with an ERC20 token failed."
        }
      ]
    },
    "events": {
      "Approval(address,address,uint256)": {
        "details": "Emitted when the allowance of a `spender` for an `owner` is set by a call to {approve}. `value` is the new allowance."
      },
      "Transfer(address,address,uint256)": {
        "details": "Emitted when `value` tokens are moved from one account (`from`) to another (`to`). Note that `value` may be zero."
      }
    },
    "kind": "dev",
    "methods": {
      "allowance(address,address)": {
        "details": "See {IERC20-allowance}."
      },
      "approve(address,uint256)": {
        "details": "See {IERC20-approve}. NOTE: If `value` is the maximum `uint256`, the allowance is not updated on `transferFrom`. This is semantically equivalent to an infinite approval. Requirements: - `spender` cannot be the zero address."
      },
      "approveInvoice(uint256,uint16,uint16,uint16)": {
        "params": {
          "invoiceId": "The ID of the invoice to approve"
        }
      },
      "asset()": {
        "details": "See {IERC4626-asset}. "
      },
      "availableAssets()": {
        "returns": {
          "_0": "The amount of assets available for withdrawal or new investments, excluding funds allocated to active invoices"
        }
      },
      "balanceOf(address)": {
        "details": "See {IERC20-balanceOf}."
      },
      "calculateAccruedProfits()": {
        "details": "Iterates through all active invoices, calculates interest for each, deducts taxes, and sums the net accrued interest",
        "returns": {
          "accruedProfits": "The total net accrued profits across all active invoices"
        }
      },
      "calculateCapitalAccount()": {
        "returns": {
          "_0": "The calculated capital account balance"
        }
      },
      "calculateKickbackAmount(uint256)": {
        "params": {
          "invoiceId": "The ID of the invoice for which to calculate the kickback amount"
        },
        "returns": {
          "kickbackAmount": "The calculated kickback amount",
          "trueAdminFee": "The true admin fee amount",
          "trueInterest": "The true interest amount",
          "trueProtocolFee": "The true protocol fee amount"
        }
      },
      "calculateRealizedGainLoss()": {
        "returns": {
          "_0": "The total realized gain adjusted for losses"
        }
      },
      "calculateTargetFees(uint256,uint16)": {
        "params": {
          "factorerUpfrontBps": "The upfront bps specified by the factorer",
          "invoiceId": "The ID of the invoice for which to calculate the fees"
        },
        "returns": {
          "fundedAmountGross": "The gross amount to be funded to the factorer",
          "netFundedAmount": "The net amount that will be funded to the factorer after deducting fees",
          "targetAdminFee": "The calculated admin fee",
          "targetInterest": "The calculated interest fee",
          "targetProtocolFee": "The calculated protocol fee"
        }
      },
      "constructor": {
        "params": {
          "_asset": "underlying supported stablecoin asset for deposit ",
          "_invoiceProviderAdapter": "adapter for invoice provider",
          "_underwriter": "address of the underwriter"
        }
      },
      "convertToAssets(uint256)": {
        "params": {
          "shares": "The amount of shares to convert"
        },
        "returns": {
          "_0": "The equivalent amount of assets"
        }
      },
      "convertToShares(uint256)": {
        "params": {
          "assets": "The amount of assets to convert"
        },
        "returns": {
          "_0": "The equivalent amount of shares"
        }
      },
      "decimals()": {
        "returns": {
          "_0": "The number of decimals for this token"
        }
      },
      "deposit(uint256,address)": {
        "params": {
          "assets": "The amount of assets to deposit",
          "receiver": "The address to receive the fund shares"
        },
        "returns": {
          "_0": "The number of shares issued for the deposit"
        }
      },
      "depositWithAttachment(uint256,address,(bytes32,uint8,uint8))": {
        "params": {
          "assets": "The amount of assets to deposit",
          "attachment": "The attachment data for the deposit",
          "receiver": "The address to receive the fund shares"
        },
        "returns": {
          "_0": "The number of shares issued for the deposit"
        }
      },
      "fundInvoice(uint256,uint16)": {
        "params": {
          "factorerUpfrontBps": "factorer specified upfront bps",
          "invoiceId": "The ID of the invoice to fund"
        }
      },
      "getFundInfo()": {
        "returns": {
          "_0": "FundInfo The fund information"
        }
      },
      "impairInvoice(uint256)": {
        "params": {
          "invoiceId": "The ID of the invoice to impair"
        }
      },
      "maxDeposit(address)": {
        "details": "See {IERC4626-maxDeposit}. "
      },
      "maxMint(address)": {
        "details": "See {IERC4626-maxMint}. "
      },
      "maxRedeem()": {
        "returns": {
          "_0": "The maximum number of shares that can be redeemed"
        }
      },
      "maxRedeem(address)": {
        "details": "See {IERC4626-maxRedeem}. "
      },
      "maxWithdraw(address)": {
        "details": "See {IERC4626-maxWithdraw}. "
      },
      "name()": {
        "details": "Returns the name of the token."
      },
      "owner()": {
        "details": "Returns the address of the current owner."
      },
      "previewDeposit(uint256)": {
        "details": "See {IERC4626-previewDeposit}. "
      },
      "previewMint(uint256)": {
        "details": "See {IERC4626-previewMint}. "
      },
      "previewRedeem(uint256)": {
        "details": "See {IERC4626-previewRedeem}. "
      },
      "previewWithdraw(uint256)": {
        "details": "See {IERC4626-previewWithdraw}. "
      },
      "pricePerShare()": {
        "returns": {
          "_0": "The current price per share, scaled to the underlying asset's decimal places"
        }
      },
      "reconcileActivePaidInvoices()": {
        "details": "This function should be called when viewPoolStatus returns some updates, to ensure accurate accounting"
      },
      "redeem(uint256,address,address)": {
        "params": {
          "owner": "The owner of the shares being redeemed",
          "receiver": "The address to receive the redeemed assets",
          "shares": "The number of shares to redeem"
        },
        "returns": {
          "_0": "The amount of assets redeemed"
        }
      },
      "redeemWithAttachment(uint256,address,address,(bytes32,uint8,uint8))": {
        "params": {
          "attachment": "The attachment data for the redemption",
          "owner": "The owner of the shares being redeemed",
          "receiver": "The address to receive the redeemed assets",
          "shares": "The number of shares to redeem"
        },
        "returns": {
          "_0": "The amount of assets redeemed"
        }
      },
      "renounceOwnership()": {
        "details": "Leaves the contract without owner. It will not be possible to call `onlyOwner` functions. Can only be called by the current owner. NOTE: Renouncing ownership will leave the contract without an owner, thereby disabling any functionality that is only available to the owner."
      },
      "setAdminFeeBps(uint16)": {
        "params": {
          "_newAdminFeeBps": "The new admin fee in basis points"
        }
      },
      "setApprovalDuration(uint256)": {
        "details": "This function can only be called by the contract owner",
        "params": {
          "_duration": "The new duration in seconds"
        }
      },
      "setBullaDaoAddress(address)": {
        "params": {
          "_newBullaDao": "The new address for the Bulla DAO"
        }
      },
      "setDepositPermissions(address)": {
        "params": {
          "_newDepositPermissionsAddress": "The new deposit permissions contract address"
        }
      },
      "setFactoringPermissions(address)": {
        "params": {
          "_newFactoringPermissionsAddress": "The address of the new factoring permissions contract"
        }
      },
      "setGracePeriodDays(uint256)": {
        "details": "This function can only be called by the contract owner",
        "params": {
          "_days": "The number of days for the grace period"
        }
      },
      "setImpairReserve(uint256)": {
        "params": {
          "_impairReserve": "The new impair reserve amount"
        }
      },
      "setProtocolFeeBps(uint16)": {
        "params": {
          "_newProtocolFeeBps": "The new protocol fee in basis points"
        }
      },
      "setTargetYield(uint16)": {
        "params": {
          "_targetYieldBps": "The new target yield in basis points"
        }
      },
      "setTaxBps(uint16)": {
        "details": "This function can only be called by the contract owner",
        "params": {
          "_newTaxBps": "The new tax rate in basis points"
        }
      },
      "setUnderwriter(address)": {
        "params": {
          "_newUnderwriter": "The address of the new underwriter"
        }
      },
      "sumTargetFeesForActiveInvoices()": {
        "returns": {
          "targetFees": "The total fees for all active invoices"
        }
      },
      "symbol()": {
        "details": "Returns the symbol of the token, usually a shorter version of the name."
      },
      "totalAssets()": {
        "details": "See {IERC4626-totalAssets}. "
      },
      "totalFundedAmountForActiveInvoices()": {
        "returns": {
          "_0": "The total funded amount for all active invoices"
        }
      },
      "totalSupply()": {
        "details": "See {IERC20-totalSupply}."
      },
      "transfer(address,uint256)": {
        "details": "See {IERC20-transfer}. Requirements: - `to` cannot be the zero address. - the caller must have a balance of at least `value`."
      },
      "transferFrom(address,address,uint256)": {
        "details": "See {IERC20-transferFrom}. Emits an {Approval} event indicating the updated allowance. This is not required by the EIP. See the note at the beginning of {ERC20}. NOTE: Does not update the allowance if the current allowance is the maximum `uint256`. Requirements: - `from` and `to` cannot be the zero address. - `from` must have a balance of at least `value`. - the caller must have allowance for ``from``'s tokens of at least `value`."
      },
      "transferOwnership(address)": {
        "details": "Transfers ownership of the contract to a new account (`newOwner`). Can only be called by the current owner."
      },
      "unfactorInvoice(uint256)": {
        "params": {
          "invoiceId": "The ID of the invoice to unfactor"
        }
      },
      "viewPoolStatus()": {
        "returns": {
          "impairedInvoices": "An array of impaired invoice IDs",
          "paidInvoices": "An array of paid invoice IDs"
        }
      },
      "withdraw(uint256,address,address)": {
        "params": {
          "assets": "The amount of assets to withdraw",
          "owner": "The owner of the shares being burned",
          "receiver": "The address to receive the withdrawn assets"
        },
        "returns": {
          "_0": "The amount of assets withdrawn"
        }
      },
      "withdrawTaxBalance()": {
        "details": "This function can only be called by the contract owner"
      }
    },
    "title": "Bulla Factoring Fund",
    "version": 1
  },
  "userdoc": {
    "errors": {
      "CallerNotUnderwriter()": [
        {
          "notice": "Errors"
        }
      ]
    },
    "kind": "user",
    "methods": {
      "SCALING_FACTOR()": {
        "notice": "Scaling factor for the token"
      },
      "activeInvoices(uint256)": {
        "notice": "Array to hold the IDs of all active invoices"
      },
      "adminFeeBalance()": {
        "notice": "Accumulated admin fee balance"
      },
      "adminFeeBps()": {
        "notice": "Admin fee in basis points"
      },
      "approvalDuration()": {
        "notice": "The duration of invoice approval before it expires"
      },
      "approveInvoice(uint256,uint16,uint16,uint16)": {
        "notice": "Approves an invoice for funding, can only be called by the underwriter"
      },
      "approvedInvoices(uint256)": {
        "notice": "Mapping from invoice ID to invoice approval details"
      },
      "assetAddress()": {
        "notice": "Address of the underlying asset token (e.g., USDC)"
      },
      "availableAssets()": {
        "notice": "Calculates the available assets in the fund net of fees, impair reserve and tax"
      },
      "bullaDao()": {
        "notice": "Address of the Bulla DAO, a trusted multisig"
      },
      "calculateAccruedProfits()": {
        "notice": "Calculates the total accrued profits from all active invoices"
      },
      "calculateCapitalAccount()": {
        "notice": "Calculates the capital account balance, including deposits, withdrawals, and realized gains/losses"
      },
      "calculateKickbackAmount(uint256)": {
        "notice": "Calculates the kickback amount for a given funded amount allowing early payment"
      },
      "calculateRealizedGainLoss()": {
        "notice": "Calculates the total realized gain or loss from paid and impaired invoices"
      },
      "calculateTargetFees(uint256,uint16)": {
        "notice": "Calculates the true fees and net funded amount for a given invoice and factorer's upfront bps, annualised"
      },
      "convertToAssets(uint256)": {
        "notice": "Converts a given amount of shares to the equivalent amount of assets"
      },
      "convertToShares(uint256)": {
        "notice": "Converts a given amount of assets to the equivalent amount of shares"
      },
      "creationTimestamp()": {
        "notice": "Timestamp of the fund's creation"
      },
      "decimals()": {
        "notice": "Returns the number of decimals the token uses, same as the underlying asset"
      },
      "deposit(uint256,address)": {
        "notice": "Allows for the deposit of assets in exchange for fund shares"
      },
      "depositPermissions()": {
        "notice": "Permissions contracts for deposit and factoring"
      },
      "depositWithAttachment(uint256,address,(bytes32,uint8,uint8))": {
        "notice": "Allows for the deposit of assets in exchange for fund shares with an attachment"
      },
      "fundInvoice(uint256,uint16)": {
        "notice": "Funds a single invoice, transferring the funded amount from the fund to the caller and transferring the invoice NFT to the fund"
      },
      "getFundInfo()": {
        "notice": "Retrieves the fund information"
      },
      "gracePeriodDays()": {
        "notice": "Grace period for invoices"
      },
      "impairInvoice(uint256)": {
        "notice": "Impairs an invoice, using the impairment reserve to cover the loss"
      },
      "impairReserve()": {
        "notice": "Reserve amount for impairment"
      },
      "impairments(uint256)": {
        "notice": "Mapping from invoice ID to impairment details"
      },
      "invoiceProviderAdapter()": {
        "notice": "Address of the invoice provider contract adapter"
      },
      "maxRedeem()": {
        "notice": "Calculates the maximum amount of shares that can be redeemed based on the total assets in the fund"
      },
      "originalCreditors(uint256)": {
        "notice": "Mapping from invoice ID to original creditor's address"
      },
      "paidInvoiceTax(uint256)": {
        "notice": "Mapping from invoice ID to tax amount"
      },
      "paidInvoicesGain(uint256)": {
        "notice": "Mapping of paid invoices ID to track gains/losses"
      },
      "poolName()": {
        "notice": "Name of the factoring pool"
      },
      "pricePerShare()": {
        "notice": "Calculates the current price per share of the fund, "
      },
      "protocolFeeBalance()": {
        "notice": "Accumulated protocol fee balance"
      },
      "protocolFeeBps()": {
        "notice": "Protocol fee in basis points"
      },
      "reconcileActivePaidInvoices()": {
        "notice": "Reconciles the list of active invoices with those that have been paid, updating the fund's records"
      },
      "redeem(uint256,address,address)": {
        "notice": "Redeems shares for underlying assets, transferring the assets to the specified receiver"
      },
      "redeemWithAttachment(uint256,address,address,(bytes32,uint8,uint8))": {
        "notice": "Redeems shares for underlying assets with an attachment, transferring the assets to the specified receiver"
      },
      "setAdminFeeBps(uint16)": {
        "notice": "Sets the admin fee in basis points"
      },
      "setApprovalDuration(uint256)": {
        "notice": "Sets the duration for which invoice approvals are valid"
      },
      "setBullaDaoAddress(address)": {
        "notice": "Updates the Bulla DAO address"
      },
      "setDepositPermissions(address)": {
        "notice": "Updates the deposit permissions contract"
      },
      "setFactoringPermissions(address)": {
        "notice": "Updates the factoring permissions contract"
      },
      "setGracePeriodDays(uint256)": {
        "notice": "Sets the grace period in days for determining if an invoice is impaired"
      },
      "setImpairReserve(uint256)": {
        "notice": "Sets the impair reserve amount"
      },
      "setProtocolFeeBps(uint16)": {
        "notice": "Updates the protocol fee in basis points (bps)"
      },
      "setTargetYield(uint16)": {
        "notice": "Sets the target yield in basis points"
      },
      "setTaxBps(uint16)": {
        "notice": "Sets the tax basis points (bps)"
      },
      "setUnderwriter(address)": {
        "notice": "Sets a new underwriter for the contract"
      },
      "sumTargetFeesForActiveInvoices()": {
        "notice": "Sums the target fees for all active invoices"
      },
      "targetYieldBps()": {
        "notice": "Target yield in basis points"
      },
      "taxBalance()": {
        "notice": "Accumulated tax balance"
      },
      "taxBps()": {
        "notice": "Tax rate in basis points"
      },
      "totalFundedAmountForActiveInvoices()": {
        "notice": "Calculates the total funded amount for all active invoices"
      },
      "underwriter()": {
        "notice": "Address of the underwriter, trusted to approve invoices"
      },
      "unfactorInvoice(uint256)": {
        "notice": "Unfactors an invoice, returning the invoice NFT to the original creditor and refunding the funded amount"
      },
      "viewPoolStatus()": {
        "notice": "Provides a view of the pool's status, listing paid and impaired invoices, to be called by Gelato or alike"
      },
      "withdraw(uint256,address,address)": {
        "notice": "Allows withdrawal of assets from the fund"
      },
      "withdrawAdminFees()": {
        "notice": "Allows the Pool Owner to withdraw accumulated admin fees."
      },
      "withdrawProtocolFees()": {
        "notice": "Allows the Bulla DAO to withdraw accumulated protocol fees."
      },
      "withdrawTaxBalance()": {
        "notice": "Withdraws the accumulated tax balance to the pool owner"
      }
    },
    "notice": "Bulla Factoring Fund is a ERC4626 compatible fund that allows for the factoring of invoices",
    "version": 1
  },
  "storageLayout": {
    "storage": [
      {
        "astId": 3215,
        "contract": "contracts/BullaFactoring.sol:BullaFactoring",
        "label": "_balances",
        "offset": 0,
        "slot": "0",
        "type": "t_mapping(t_address,t_uint256)"
      },
      {
        "astId": 3221,
        "contract": "contracts/BullaFactoring.sol:BullaFactoring",
        "label": "_allowances",
        "offset": 0,
        "slot": "1",
        "type": "t_mapping(t_address,t_mapping(t_address,t_uint256))"
      },
      {
        "astId": 3223,
        "contract": "contracts/BullaFactoring.sol:BullaFactoring",
        "label": "_totalSupply",
        "offset": 0,
        "slot": "2",
        "type": "t_uint256"
      },
      {
        "astId": 3225,
        "contract": "contracts/BullaFactoring.sol:BullaFactoring",
        "label": "_name",
        "offset": 0,
        "slot": "3",
        "type": "t_string_storage"
      },
      {
        "astId": 3227,
        "contract": "contracts/BullaFactoring.sol:BullaFactoring",
        "label": "_symbol",
        "offset": 0,
        "slot": "4",
        "type": "t_string_storage"
      },
      {
        "astId": 2746,
        "contract": "contracts/BullaFactoring.sol:BullaFactoring",
        "label": "_owner",
        "offset": 0,
        "slot": "5",
        "type": "t_address"
      },
      {
        "astId": 6444,
        "contract": "contracts/BullaFactoring.sol:BullaFactoring",
        "label": "bullaDao",
        "offset": 0,
        "slot": "6",
        "type": "t_address"
      },
      {
        "astId": 6447,
        "contract": "contracts/BullaFactoring.sol:BullaFactoring",
        "label": "protocolFeeBps",
        "offset": 20,
        "slot": "6",
        "type": "t_uint16"
      },
      {
        "astId": 6450,
        "contract": "contracts/BullaFactoring.sol:BullaFactoring",
        "label": "adminFeeBps",
        "offset": 22,
        "slot": "6",
        "type": "t_uint16"
      },
      {
        "astId": 6453,
        "contract": "contracts/BullaFactoring.sol:BullaFactoring",
        "label": "protocolFeeBalance",
        "offset": 0,
        "slot": "7",
        "type": "t_uint256"
      },
      {
        "astId": 6456,
        "contract": "contracts/BullaFactoring.sol:BullaFactoring",
        "label": "adminFeeBalance",
        "offset": 0,
        "slot": "8",
        "type": "t_uint256"
      },
      {
        "astId": 6460,
        "contract": "contracts/BullaFactoring.sol:BullaFactoring",
        "label": "assetAddress",
        "offset": 0,
        "slot": "9",
        "type": "t_contract(IERC20)3785"
      },
      {
        "astId": 6464,
        "contract": "contracts/BullaFactoring.sol:BullaFactoring",
        "label": "invoiceProviderAdapter",
        "offset": 0,
        "slot": "10",
        "type": "t_contract(IInvoiceProviderAdapter)10166"
      },
      {
        "astId": 6466,
        "contract": "contracts/BullaFactoring.sol:BullaFactoring",
        "label": "totalDeposits",
        "offset": 0,
        "slot": "11",
        "type": "t_uint256"
      },
      {
        "astId": 6468,
        "contract": "contracts/BullaFactoring.sol:BullaFactoring",
        "label": "totalWithdrawals",
        "offset": 0,
        "slot": "12",
        "type": "t_uint256"
      },
      {
        "astId": 6471,
        "contract": "contracts/BullaFactoring.sol:BullaFactoring",
        "label": "underwriter",
        "offset": 0,
        "slot": "13",
        "type": "t_address"
      },
      {
        "astId": 6474,
        "contract": "contracts/BullaFactoring.sol:BullaFactoring",
        "label": "creationTimestamp",
        "offset": 0,
        "slot": "14",
        "type": "t_uint256"
      },
      {
        "astId": 6477,
        "contract": "contracts/BullaFactoring.sol:BullaFactoring",
        "label": "impairReserve",
        "offset": 0,
        "slot": "15",
        "type": "t_uint256"
      },
      {
        "astId": 6480,
        "contract": "contracts/BullaFactoring.sol:BullaFactoring",
        "label": "poolName",
        "offset": 0,
        "slot": "16",
        "type": "t_string_storage"
      },
      {
        "astId": 6483,
        "contract": "contracts/BullaFactoring.sol:BullaFactoring",
        "label": "taxBps",
        "offset": 0,
        "slot": "17",
        "type": "t_uint16"
      },
      {
        "astId": 6486,
        "contract": "contracts/BullaFactoring.sol:BullaFactoring",
        "label": "taxBalance",
        "offset": 0,
        "slot": "18",
        "type": "t_uint256"
      },
      {
        "astId": 6489,
        "contract": "contracts/BullaFactoring.sol:BullaFactoring",
        "label": "targetYieldBps",
        "offset": 0,
        "slot": "19",
        "type": "t_uint16"
      },
      {
        "astId": 6492,
        "contract": "contracts/BullaFactoring.sol:BullaFactoring",
        "label": "SCALING_FACTOR",
        "offset": 0,
        "slot": "20",
        "type": "t_uint256"
      },
      {
        "astId": 6496,
        "contract": "contracts/BullaFactoring.sol:BullaFactoring",
        "label": "gracePeriodDays",
        "offset": 0,
        "slot": "21",
        "type": "t_uint256"
      },
      {
        "astId": 6500,
        "contract": "contracts/BullaFactoring.sol:BullaFactoring",
        "label": "depositPermissions",
        "offset": 0,
        "slot": "22",
        "type": "t_contract(Permissions)9703"
      },
      {
        "astId": 6503,
        "contract": "contracts/BullaFactoring.sol:BullaFactoring",
        "label": "factoringPermissions",
        "offset": 0,
        "slot": "23",
        "type": "t_contract(Permissions)9703"
      },
      {
        "astId": 6508,
        "contract": "contracts/BullaFactoring.sol:BullaFactoring",
        "label": "paidInvoicesGain",
        "offset": 0,
        "slot": "24",
        "type": "t_mapping(t_uint256,t_uint256)"
      },
      {
        "astId": 6513,
        "contract": "contracts/BullaFactoring.sol:BullaFactoring",
        "label": "originalCreditors",
        "offset": 0,
        "slot": "25",
        "type": "t_mapping(t_uint256,t_address)"
      },
      {
        "astId": 6519,
        "contract": "contracts/BullaFactoring.sol:BullaFactoring",
        "label": "approvedInvoices",
        "offset": 0,
        "slot": "26",
        "type": "t_mapping(t_uint256,t_struct(InvoiceApproval)9842_storage)"
      },
      {
        "astId": 6523,
        "contract": "contracts/BullaFactoring.sol:BullaFactoring",
        "label": "approvalDuration",
        "offset": 0,
        "slot": "27",
        "type": "t_uint256"
      },
      {
        "astId": 6527,
        "contract": "contracts/BullaFactoring.sol:BullaFactoring",
        "label": "activeInvoices",
        "offset": 0,
        "slot": "28",
        "type": "t_array(t_uint256)dyn_storage"
      },
      {
        "astId": 6531,
        "contract": "contracts/BullaFactoring.sol:BullaFactoring",
        "label": "paidInvoicesIds",
        "offset": 0,
        "slot": "29",
        "type": "t_array(t_uint256)dyn_storage"
      },
      {
        "astId": 6535,
        "contract": "contracts/BullaFactoring.sol:BullaFactoring",
        "label": "impairedByFundInvoicesIds",
        "offset": 0,
        "slot": "30",
        "type": "t_array(t_uint256)dyn_storage"
      },
      {
        "astId": 6541,
        "contract": "contracts/BullaFactoring.sol:BullaFactoring",
        "label": "impairments",
        "offset": 0,
        "slot": "31",
        "type": "t_mapping(t_uint256,t_struct(ImpairmentDetails)9879_storage)"
      },
      {
        "astId": 6546,
        "contract": "contracts/BullaFactoring.sol:BullaFactoring",
        "label": "paidInvoiceTax",
        "offset": 0,
        "slot": "32",
        "type": "t_mapping(t_uint256,t_uint256)"
      }
    ],
    "types": {
      "t_address": {
        "encoding": "inplace",
        "label": "address",
        "numberOfBytes": "20"
      },
      "t_array(t_uint256)dyn_storage": {
        "base": "t_uint256",
        "encoding": "dynamic_array",
        "label": "uint256[]",
        "numberOfBytes": "32"
      },
      "t_bool": {
        "encoding": "inplace",
        "label": "bool",
        "numberOfBytes": "1"
      },
      "t_contract(IERC20)3785": {
        "encoding": "inplace",
        "label": "contract IERC20",
        "numberOfBytes": "20"
      },
      "t_contract(IInvoiceProviderAdapter)10166": {
        "encoding": "inplace",
        "label": "contract IInvoiceProviderAdapter",
        "numberOfBytes": "20"
      },
      "t_contract(Permissions)9703": {
        "encoding": "inplace",
        "label": "contract Permissions",
        "numberOfBytes": "20"
      },
      "t_mapping(t_address,t_mapping(t_address,t_uint256))": {
        "encoding": "mapping",
        "key": "t_address",
        "label": "mapping(address => mapping(address => uint256))",
        "numberOfBytes": "32",
        "value": "t_mapping(t_address,t_uint256)"
      },
      "t_mapping(t_address,t_uint256)": {
        "encoding": "mapping",
        "key": "t_address",
        "label": "mapping(address => uint256)",
        "numberOfBytes": "32",
        "value": "t_uint256"
      },
      "t_mapping(t_uint256,t_address)": {
        "encoding": "mapping",
        "key": "t_uint256",
        "label": "mapping(uint256 => address)",
        "numberOfBytes": "32",
        "value": "t_address"
      },
      "t_mapping(t_uint256,t_struct(ImpairmentDetails)9879_storage)": {
        "encoding": "mapping",
        "key": "t_uint256",
        "label": "mapping(uint256 => struct IBullaFactoring.ImpairmentDetails)",
        "numberOfBytes": "32",
        "value": "t_struct(ImpairmentDetails)9879_storage"
      },
      "t_mapping(t_uint256,t_struct(InvoiceApproval)9842_storage)": {
        "encoding": "mapping",
        "key": "t_uint256",
        "label": "mapping(uint256 => struct IBullaFactoring.InvoiceApproval)",
        "numberOfBytes": "32",
        "value": "t_struct(InvoiceApproval)9842_storage"
      },
      "t_mapping(t_uint256,t_uint256)": {
        "encoding": "mapping",
        "key": "t_uint256",
        "label": "mapping(uint256 => uint256)",
        "numberOfBytes": "32",
        "value": "t_uint256"
      },
      "t_string_storage": {
        "encoding": "bytes",
        "label": "string",
        "numberOfBytes": "32"
      },
      "t_struct(ImpairmentDetails)9879_storage": {
        "encoding": "inplace",
        "label": "struct IBullaFactoring.ImpairmentDetails",
        "members": [
          {
            "astId": 9874,
            "contract": "contracts/BullaFactoring.sol:BullaFactoring",
            "label": "gainAmount",
            "offset": 0,
            "slot": "0",
            "type": "t_uint256"
          },
          {
            "astId": 9876,
            "contract": "contracts/BullaFactoring.sol:BullaFactoring",
            "label": "lossAmount",
            "offset": 0,
            "slot": "1",
            "type": "t_uint256"
          },
          {
            "astId": 9878,
            "contract": "contracts/BullaFactoring.sol:BullaFactoring",
            "label": "isImpaired",
            "offset": 0,
            "slot": "2",
            "type": "t_bool"
          }
        ],
        "numberOfBytes": "96"
      },
      "t_struct(Invoice)10152_storage": {
        "encoding": "inplace",
        "label": "struct IInvoiceProviderAdapter.Invoice",
        "members": [
          {
            "astId": 10139,
            "contract": "contracts/BullaFactoring.sol:BullaFactoring",
            "label": "faceValue",
            "offset": 0,
            "slot": "0",
            "type": "t_uint256"
          },
          {
            "astId": 10141,
            "contract": "contracts/BullaFactoring.sol:BullaFactoring",
            "label": "creditor",
            "offset": 0,
            "slot": "1",
            "type": "t_address"
          },
          {
            "astId": 10143,
            "contract": "contracts/BullaFactoring.sol:BullaFactoring",
            "label": "debtor",
            "offset": 0,
            "slot": "2",
            "type": "t_address"
          },
          {
            "astId": 10145,
            "contract": "contracts/BullaFactoring.sol:BullaFactoring",
            "label": "dueDate",
            "offset": 0,
            "slot": "3",
            "type": "t_uint256"
          },
          {
            "astId": 10147,
            "contract": "contracts/BullaFactoring.sol:BullaFactoring",
            "label": "tokenAddress",
            "offset": 0,
            "slot": "4",
            "type": "t_address"
          },
          {
            "astId": 10149,
            "contract": "contracts/BullaFactoring.sol:BullaFactoring",
            "label": "paidAmount",
            "offset": 0,
            "slot": "5",
            "type": "t_uint256"
          },
          {
            "astId": 10151,
            "contract": "contracts/BullaFactoring.sol:BullaFactoring",
            "label": "isCanceled",
            "offset": 0,
            "slot": "6",
            "type": "t_bool"
          }
        ],
        "numberOfBytes": "224"
      },
      "t_struct(InvoiceApproval)9842_storage": {
        "encoding": "inplace",
        "label": "struct IBullaFactoring.InvoiceApproval",
        "members": [
          {
            "astId": 9822,
            "contract": "contracts/BullaFactoring.sol:BullaFactoring",
            "label": "approved",
            "offset": 0,
            "slot": "0",
            "type": "t_bool"
          },
          {
            "astId": 9825,
            "contract": "contracts/BullaFactoring.sol:BullaFactoring",
            "label": "invoiceSnapshot",
            "offset": 0,
            "slot": "1",
            "type": "t_struct(Invoice)10152_storage"
          },
          {
            "astId": 9827,
            "contract": "contracts/BullaFactoring.sol:BullaFactoring",
            "label": "validUntil",
            "offset": 0,
            "slot": "8",
            "type": "t_uint256"
          },
          {
            "astId": 9829,
            "contract": "contracts/BullaFactoring.sol:BullaFactoring",
            "label": "fundedTimestamp",
            "offset": 0,
            "slot": "9",
            "type": "t_uint256"
          },
          {
            "astId": 9831,
            "contract": "contracts/BullaFactoring.sol:BullaFactoring",
            "label": "interestApr",
            "offset": 0,
            "slot": "10",
            "type": "t_uint16"
          },
          {
            "astId": 9833,
            "contract": "contracts/BullaFactoring.sol:BullaFactoring",
            "label": "upfrontBps",
            "offset": 2,
            "slot": "10",
            "type": "t_uint16"
          },
          {
            "astId": 9835,
            "contract": "contracts/BullaFactoring.sol:BullaFactoring",
            "label": "fundedAmountGross",
            "offset": 0,
            "slot": "11",
            "type": "t_uint256"
          },
          {
            "astId": 9837,
            "contract": "contracts/BullaFactoring.sol:BullaFactoring",
            "label": "fundedAmountNet",
            "offset": 0,
            "slot": "12",
            "type": "t_uint256"
          },
          {
            "astId": 9839,
            "contract": "contracts/BullaFactoring.sol:BullaFactoring",
            "label": "minDaysInterestApplied",
            "offset": 0,
            "slot": "13",
            "type": "t_uint16"
          },
          {
            "astId": 9841,
            "contract": "contracts/BullaFactoring.sol:BullaFactoring",
            "label": "trueFaceValue",
            "offset": 0,
            "slot": "14",
            "type": "t_uint256"
          }
        ],
        "numberOfBytes": "480"
      },
      "t_uint16": {
        "encoding": "inplace",
        "label": "uint16",
        "numberOfBytes": "2"
      },
      "t_uint256": {
        "encoding": "inplace",
        "label": "uint256",
        "numberOfBytes": "32"
      }
    }
  }
}