{
  "address": "0xD0a82D749b836C5743b353501F3f350a9F80ee07",
  "abi": [
    {
      "inputs": [
        {
          "internalType": "contract IERC4626",
          "name": "_factoringPool",
          "type": "address"
        },
        {
          "internalType": "uint256",
          "name": "_minInvestment",
          "type": "uint256"
        },
        {
          "internalType": "address",
          "name": "_capitalCaller",
          "type": "address"
        }
      ],
      "stateMutability": "nonpayable",
      "type": "constructor"
    },
    {
      "inputs": [],
      "name": "AlreadyAllowlisted",
      "type": "error"
    },
    {
      "inputs": [
        {
          "internalType": "uint256",
          "name": "actual",
          "type": "uint256"
        }
      ],
      "name": "BadERC20Allowance",
      "type": "error"
    },
    {
      "inputs": [
        {
          "internalType": "uint256",
          "name": "actual",
          "type": "uint256"
        }
      ],
      "name": "BadERC20Balance",
      "type": "error"
    },
    {
      "inputs": [],
      "name": "BadInvestorParams",
      "type": "error"
    },
    {
      "inputs": [],
      "name": "CallTooHigh",
      "type": "error"
    },
    {
      "inputs": [],
      "name": "CallTooLow",
      "type": "error"
    },
    {
      "inputs": [],
      "name": "CannotRenounceOwnership",
      "type": "error"
    },
    {
      "inputs": [],
      "name": "CommitmentTooHigh",
      "type": "error"
    },
    {
      "inputs": [],
      "name": "CommitmentTooLow",
      "type": "error"
    },
    {
      "inputs": [],
      "name": "MinInvestmentTooLow",
      "type": "error"
    },
    {
      "inputs": [
        {
          "internalType": "address",
          "name": "owner",
          "type": "address"
        }
      ],
      "name": "OwnableInvalidOwner",
      "type": "error"
    },
    {
      "inputs": [
        {
          "internalType": "address",
          "name": "account",
          "type": "address"
        }
      ],
      "name": "OwnableUnauthorizedAccount",
      "type": "error"
    },
    {
      "inputs": [],
      "name": "Unauthorized",
      "type": "error"
    },
    {
      "anonymous": false,
      "inputs": [
        {
          "indexed": false,
          "internalType": "address[]",
          "name": "investors",
          "type": "address[]"
        },
        {
          "indexed": false,
          "internalType": "uint256",
          "name": "callAmount",
          "type": "uint256"
        }
      ],
      "name": "CapitalCallComplete",
      "type": "event"
    },
    {
      "anonymous": false,
      "inputs": [
        {
          "indexed": true,
          "internalType": "address",
          "name": "investor",
          "type": "address"
        },
        {
          "indexed": true,
          "internalType": "address",
          "name": "owner",
          "type": "address"
        }
      ],
      "name": "InvestorAllowlisted",
      "type": "event"
    },
    {
      "anonymous": false,
      "inputs": [
        {
          "indexed": true,
          "internalType": "address",
          "name": "investor",
          "type": "address"
        },
        {
          "indexed": false,
          "internalType": "uint256",
          "name": "amount",
          "type": "uint256"
        }
      ],
      "name": "InvestorCommitment",
      "type": "event"
    },
    {
      "anonymous": false,
      "inputs": [
        {
          "indexed": true,
          "internalType": "address",
          "name": "investor",
          "type": "address"
        },
        {
          "indexed": false,
          "internalType": "uint256",
          "name": "amountRequested",
          "type": "uint256"
        }
      ],
      "name": "InvestorInsolvent",
      "type": "event"
    },
    {
      "anonymous": false,
      "inputs": [
        {
          "indexed": true,
          "internalType": "address",
          "name": "previousOwner",
          "type": "address"
        },
        {
          "indexed": true,
          "internalType": "address",
          "name": "newOwner",
          "type": "address"
        }
      ],
      "name": "OwnershipTransferred",
      "type": "event"
    },
    {
      "inputs": [
        {
          "internalType": "address",
          "name": "investor",
          "type": "address"
        }
      ],
      "name": "allowlistInvestor",
      "outputs": [],
      "stateMutability": "nonpayable",
      "type": "function"
    },
    {
      "inputs": [],
      "name": "asset",
      "outputs": [
        {
          "internalType": "contract IERC20",
          "name": "",
          "type": "address"
        }
      ],
      "stateMutability": "view",
      "type": "function"
    },
    {
      "inputs": [
        {
          "internalType": "address",
          "name": "_investor",
          "type": "address"
        }
      ],
      "name": "blocklistInvestor",
      "outputs": [],
      "stateMutability": "nonpayable",
      "type": "function"
    },
    {
      "inputs": [
        {
          "internalType": "uint256",
          "name": "targetCallAmount",
          "type": "uint256"
        }
      ],
      "name": "capitalCall",
      "outputs": [
        {
          "internalType": "uint256",
          "name": "",
          "type": "uint256"
        },
        {
          "internalType": "uint256",
          "name": "",
          "type": "uint256"
        }
      ],
      "stateMutability": "nonpayable",
      "type": "function"
    },
    {
      "inputs": [],
      "name": "capitalCaller",
      "outputs": [
        {
          "internalType": "address",
          "name": "",
          "type": "address"
        }
      ],
      "stateMutability": "view",
      "type": "function"
    },
    {
      "inputs": [
        {
          "internalType": "address",
          "name": "",
          "type": "address"
        }
      ],
      "name": "capitalCommitments",
      "outputs": [
        {
          "internalType": "bool",
          "name": "isAllowed",
          "type": "bool"
        },
        {
          "internalType": "uint144",
          "name": "commitment",
          "type": "uint144"
        }
      ],
      "stateMutability": "view",
      "type": "function"
    },
    {
      "inputs": [
        {
          "internalType": "uint256",
          "name": "amount",
          "type": "uint256"
        }
      ],
      "name": "commit",
      "outputs": [],
      "stateMutability": "nonpayable",
      "type": "function"
    },
    {
      "inputs": [],
      "name": "factoringPool",
      "outputs": [
        {
          "internalType": "contract IERC4626",
          "name": "",
          "type": "address"
        }
      ],
      "stateMutability": "view",
      "type": "function"
    },
    {
      "inputs": [],
      "name": "getInvestors",
      "outputs": [
        {
          "internalType": "address[]",
          "name": "",
          "type": "address[]"
        }
      ],
      "stateMutability": "view",
      "type": "function"
    },
    {
      "inputs": [],
      "name": "investorCount",
      "outputs": [
        {
          "internalType": "uint256",
          "name": "",
          "type": "uint256"
        }
      ],
      "stateMutability": "view",
      "type": "function"
    },
    {
      "inputs": [
        {
          "internalType": "uint256",
          "name": "",
          "type": "uint256"
        }
      ],
      "name": "investors",
      "outputs": [
        {
          "internalType": "address",
          "name": "",
          "type": "address"
        }
      ],
      "stateMutability": "view",
      "type": "function"
    },
    {
      "inputs": [],
      "name": "minInvestment",
      "outputs": [
        {
          "internalType": "uint256",
          "name": "",
          "type": "uint256"
        }
      ],
      "stateMutability": "view",
      "type": "function"
    },
    {
      "inputs": [],
      "name": "owner",
      "outputs": [
        {
          "internalType": "address",
          "name": "",
          "type": "address"
        }
      ],
      "stateMutability": "view",
      "type": "function"
    },
    {
      "inputs": [],
      "name": "pauseCommitments",
      "outputs": [],
      "stateMutability": "nonpayable",
      "type": "function"
    },
    {
      "inputs": [],
      "name": "renounceOwnership",
      "outputs": [],
      "stateMutability": "pure",
      "type": "function"
    },
    {
      "inputs": [
        {
          "internalType": "address",
          "name": "_capitalCaller",
          "type": "address"
        }
      ],
      "name": "setCapitalCaller",
      "outputs": [],
      "stateMutability": "nonpayable",
      "type": "function"
    },
    {
      "inputs": [
        {
          "internalType": "uint256",
          "name": "_minInvestment",
          "type": "uint256"
        }
      ],
      "name": "setMinInvestment",
      "outputs": [],
      "stateMutability": "nonpayable",
      "type": "function"
    },
    {
      "inputs": [],
      "name": "totalCommitted",
      "outputs": [
        {
          "internalType": "uint256",
          "name": "",
          "type": "uint256"
        }
      ],
      "stateMutability": "view",
      "type": "function"
    },
    {
      "inputs": [
        {
          "internalType": "address",
          "name": "newOwner",
          "type": "address"
        }
      ],
      "name": "transferOwnership",
      "outputs": [],
      "stateMutability": "nonpayable",
      "type": "function"
    }
  ],
  "transactionHash": "0x3bca7645b6f721e98298dd15f1085b133b0bf2dd119c6567b3e30126278421b5",
  "args": [
    "0xDF0fCe31285dcAB9124bF763AB9E5466723BeF35",
    1000000,
    "0x89e03E7980C92fd81Ed3A9b72F5c73fDf57E5e6D"
  ],
  "numDeployments": 1,
  "solcInputHash": "2e007ccf6013008facceab69a2ea8eae",
  "bytecode": "0x60e06040908082523462000233576060816200129c803803809162000025828562000237565b833981010312620002335780516001600160a01b03808216808303620002335760209062000059868387015196016200026f565b9133156200021c575f9181835496600460018060a01b031998338a82161787558b5194859384928b3391167f8be0079c531659141344cd1fd0a4f28419497f9722a3daafe3b4186f6b6457e08b80a36080526338d52e0f60e01b82525afa908115620001c7579085918491620001d1575b50918091600493168060a05289519384809263313ce56760e01b82525afa908115620001c757839162000183575b5060ff91501690604d82116200016f5750600a0a60c0521690600154161760015560025551611017908162000285823960805181818161052d015281816106590152610bcc015260a0518181816101da0152818161056b01528181610b6b0152610f3b015260c0518181816104ec01526106000152f35b634e487b7160e01b81526011600452602490fd5b905081813d8311620001bf575b6200019c818362000237565b81010312620001bb575160ff81168103620001bb5760ff905f620000f8565b5080fd5b503d62000190565b88513d85823e3d90fd5b809250838092503d831162000214575b620001ed818362000237565b810103126200021057908085620002066004946200026f565b91509192620000ca565b8280fd5b503d620001e1565b8651631e4fbdf760e01b81525f6004820152602490fd5b5f80fd5b601f909101601f19168101906001600160401b038211908210176200025b57604052565b634e487b7160e01b5f52604160045260245ffd5b51906001600160a01b0382168203620002335756fe60806040526004361015610011575f80fd5b5f3560e01c806301e287c014610bfb57806309e375e914610bb75780631d3231d414610b9a57806338d52e0f14610b565780633feb5f2b14610b14578063715018a614610af257806376c012a714610a045780637d1f3c92146109b35780638ac2c680146109965780638da5cb5b1461096f578063a0089b9714610948578063b2f5a54c14610915578063ba7ed2ff146108dc578063d41c08cd146108b4578063d5ef873c1461046b578063d7e64c001461044e578063f2fde38b146103ae578063f4f98ad51461015c5763f51b669b146100ea575f80fd5b34610158576020366003190112610158576004356001600160a01b0380821680830361015857610118610ef4565b5f5b60045481101561015657818361012f83610c45565b90549060031b1c161461014a5761014590610df9565b61011a565b91505061015691610e1b565b005b5f80fd5b34610158576020806003193601126101585760043590335f526005815260405f206040519061018a82610cca565b548260ff8216159283158152016001600160901b03809260081c1681526003549261039d5781851161038b57600254851061037957604051636eb1769f60e11b81523360048201523060248201527f00000000000000000000000000000000000000000000000000000000000000006001600160a01b0316908581604481855afa908115610329575f9161034c575b50868110610334575084602491604051928380926370a0823160e01b82523360048301525afa908115610329575f916102fc575b508581106102e457507fa5662f8ce6b88e3414116f804cc5c81df1491631d6b6da0ef042d25b682926c69392826102c19387935116806102cf575b506102bc90335f5260058652831660405f2090610100600160981b0382549160081b1690610100600160981b031916179055565b610d15565b6003556040519283523392a2005b6102dd906102bc9293610d08565b9190610288565b6024906040519063d70c18c560e01b82526004820152fd5b90508481813d8311610322575b6103138183610ce6565b8101031261015857518661024d565b503d610309565b6040513d5f823e3d90fd5b60249060405190633717b6a160e01b82526004820152fd5b90508581813d8311610372575b6103638183610ce6565b81010312610158575187610219565b503d610359565b604051636d62dd6160e11b8152600490fd5b60405163589487a560e11b8152600490fd5b6040516282b42960e81b8152600490fd5b34610158576020366003190112610158576004356001600160a01b0381811691829003610158575f549081169033820361043657821561041e576001600160a01b03191682175f9081557f8be0079c531659141344cd1fd0a4f28419497f9722a3daafe3b4186f6b6457e09080a3005b604051631e4fbdf760e01b81525f6004820152602490fd5b60405163118cdaa760e01b8152336004820152602490fd5b34610158575f366003190112610158576020600454604051908152f35b346101585760203660031901126101585760043560018060a01b0360015416331415806108a0575b61039d57600354906104a3610d22565b9082811161088e57801561087c575f905f6105168451956104c387610d98565b966104d16040519889610ce6565b8088526104e0601f1991610d98565b013660208901376105117f000000000000000000000000000000000000000000000000000000000000000085610db0565b610dc3565b60405163095ea7b360e01b81526001600160a01b037f00000000000000000000000000000000000000000000000000000000000000008116600483015260248201949094529092602090829060449082905f907f0000000000000000000000000000000000000000000000000000000000000000165af180156103295761084d575b505f925b8451841015610794576001600160a01b036105b78587610e07565b511690815f526005602052602060405f20604051906105d582610cca565b54906001600160901b0360ff831615928315835260081c1692839101526107885761062590610511867f000000000000000000000000000000000000000000000000000000000000000092610db0565b916106308382610f07565b1561073c57604051636e553f6560e01b815260048101849052602481018290526020816044815f7f00000000000000000000000000000000000000000000000000000000000000006001600160a01b03165af1801561032957610711575b505f52600560205260405f20916001600160901b0381166001600160901b03845460081c1603916001600160901b0383116106fd576102bc6106f0936106f79590610100600160981b0382549160081b1690610100600160981b031916179055565b935b610df9565b9261059c565b634e487b7160e01b5f52601160045260245ffd5b602090813d8311610735575b6107278183610ce6565b81010312610158578861068e565b503d61071d565b7ffb8a2b6efa27df1c7d3b06efbd4874a50a3a9bca80f6f0d9ae417a40275cd3ff60206106f7948861077b610774899b979b99610df9565b988d610e07565b52604051908152a2610df9565b50936106f79150610df9565b84865f5b8481106107fd57604084867f50ed9ba8471e986daea25eb4601f81b108ab0ea5060a51b224396e3b2f0fcd776107e8876107d485600354610d08565b600355855191829187835287830190610c8e565b8560208301520390a182519182526020820152f35b5f198501908582116106fd576106f26108198261084894610d08565b6108416001600160a01b036108386108318489610e07565b5189610e07565b51169186610e07565b5190610e1b565b610798565b61086e9060203d602011610875575b6108668183610ce6565b810190610de1565b5085610598565b503d61085c565b60405163aca9251160e01b8152600490fd5b604051633fda2f2360e11b8152600490fd5b505f546001600160a01b0316331415610493565b34610158575f366003190112610158576001546040516001600160a01b039091168152602090f35b34610158576020366003190112610158576004356108f8610ef4565b801561090357600255005b6040516324e7f60f60e21b8152600490fd5b34610158575f36600319011261015857610944610930610d22565b604051918291602083526020830190610c8e565b0390f35b34610158575f36600319011261015857610960610ef4565b610968610ef4565b5f19600255005b34610158575f366003190112610158575f546040516001600160a01b039091168152602090f35b34610158575f366003190112610158576020600254604051908152f35b34610158576020366003190112610158576004356001600160a01b03811690819003610158575f5260056020526040805f20546001600160901b0382519160ff81161515835260081c166020820152f35b34610158576020366003190112610158576004356001600160a01b0381169081810361015857610a32610ef4565b815f52600560205260ff60405f205416610ae057815f52600560205260405f20600160ff198254161790556004549068010000000000000000821015610acc57610a85826001610aa49401600455610c45565b90919082549060031b9160018060a01b03809116831b921b1916179055565b33907fb3f701caa918ec20384ffb64faa4c584a2b840391ca0bdbcb4e8311204e93f4f5f80a3005b634e487b7160e01b5f52604160045260245ffd5b60405163be05bbed60e01b8152600490fd5b34610158575f366003190112610158576040516377aeb0ad60e01b8152600490fd5b346101585760203660031901126101585760043560045481101561015857610b3d602091610c45565b905460405160039290921b1c6001600160a01b03168152f35b34610158575f366003190112610158576040517f00000000000000000000000000000000000000000000000000000000000000006001600160a01b03168152602090f35b34610158575f366003190112610158576020600354604051908152f35b34610158575f366003190112610158576040517f00000000000000000000000000000000000000000000000000000000000000006001600160a01b03168152602090f35b34610158576020366003190112610158576004356001600160a01b0381169081900361015857610c29610ef4565b6bffffffffffffffffffffffff60a01b60015416176001555f80f35b600454811015610c7a5760045f527f8a35acfbc15ff81a39ae7d344fd709f28e8600b4aa8c65c6b64bfe7fe36bd19b01905f90565b634e487b7160e01b5f52603260045260245ffd5b9081518082526020808093019301915f5b828110610cad575050505090565b83516001600160a01b031685529381019392810192600101610c9f565b6040810190811067ffffffffffffffff821117610acc57604052565b90601f8019910116810190811067ffffffffffffffff821117610acc57604052565b919082039182116106fd57565b919082018092116106fd57565b60405190600454808352826020918282019060045f527f8a35acfbc15ff81a39ae7d344fd709f28e8600b4aa8c65c6b64bfe7fe36bd19b935f905b828210610d7557505050610d7392500383610ce6565b565b85546001600160a01b031684526001958601958895509381019390910190610d5d565b67ffffffffffffffff8111610acc5760051b60200190565b818102929181159184041417156106fd57565b8115610dcd570490565b634e487b7160e01b5f52601260045260245ffd5b90816020910312610158575180151581036101585790565b5f1981146106fd5760010190565b8051821015610c7a5760209160051b010190565b919060018060a01b03805f9416845260056020526040842091846001600160901b03845460081c169355600454905f1991828101908111610ee057610e959184610e67610e7093610c45565b93905492610c45565b92909360031b1c169082549060031b9160018060a01b03809116831b921b1916179055565b6004548015610ecc57610ec79495500190610eaf82610c45565b909182549160031b1b19169055600455600354610d08565b600355565b634e487b7160e01b86526031600452602486fd5b634e487b7160e01b87526011600452602487fd5b5f546001600160a01b0316330361039d57565b90604051906323b872dd60e01b825260018060a01b03809316600483015230602483015260448201526020816064815f80967f0000000000000000000000000000000000000000000000000000000000000000165af1829181610fc1575b50610fbc57503d15610fb9573d67ffffffffffffffff8111610fa55760405190610f99601f8201601f191660200183610ce6565b81528160203d92013e90565b634e487b7160e01b82526041600452602482fd5b90565b905090565b610fda91925060203d8111610875576108668183610ce6565b905f610f6556fea26469706673582212205fb4c8f0ca6ba2a00152308109200105a0ed73a5d672a55978886498f338ef4e64736f6c63430008140033",
  "devdoc": {
    "author": "@colinnielsen",
    "details": "IMPORTANT!: This contract uses ERC20 allowances for it's internal accounting      This allows for investors to hold their assets, allowing for more capital efficiency.      !! This means that this contract will _not_ work with \"fee on transfer\"-type tokens, as the amount finally transferred should equal the allowance !!",
    "errors": {
      "OwnableInvalidOwner(address)": [
        {
          "details": "The owner is not a valid owner account. (eg. `address(0)`)"
        }
      ],
      "OwnableUnauthorizedAccount(address)": [
        {
          "details": "The caller account is not authorized to perform an operation."
        }
      ]
    },
    "kind": "dev",
    "methods": {
      "allowlistInvestor(address)": {
        "details": "SPEC: This function will:     E1: set the `isAllowed` flag on the `capitalCommitments` mapping to true     E2: push the `investor` to the `investors` array if not already present     E3: emit an `InvestorAllowlisted` event with the investor address and the current owner GIVEN:     C1: the `msg.sender` is the current owner on the `factoringPool` contract     C2: the investor is not already allowlisted"
      },
      "blocklistInvestor(address)": {
        "params": {
          "_investor": "the address of the investor to blocklist"
        }
      },
      "capitalCall(uint256)": {
        "details": "SPEC: This function will:     E1: `deposit()` an amount of an investor's `commitment` of `asset` relative to `totalCommitted` (known as `amountDue`) into the `factoringPool` and mint the share tokens to their account         IF: they are solvent: meaning token transfer does not fail         OTHERWISE: E1.a: they are deleted as investors (blocklisted) and their commitment decremented from the `totalCommitted` variable                    E1.b: a `InvestorInsolvent` event is emitted     E2: decrement an investor's `capitalCommitment.commitment` struct by their `amountDue` sent to the pool     E3: decrement `totalCommitted` by the total amount of USDC sent to the pool     E4: emit a `CapitalCall` event with the total of amount sent to the pool RETURNS:     R1: the `totalAmountCalled` - as it will most likely be less in the case of fractional capital calls     R2: the `insolventInvestorsCount` GIVEN:     C1: the `msg.sender` is marked as the `capitalCaller`         C1.A: OR: msg.sender is the current `owner`     C2: the `targetCallAmount` param is <= the `totalCommitted`     C3: the `targetCallAmount` param is > 0"
      },
      "commit(uint256)": {
        "details": "SPEC: This function will:     E1: set the `msg.sender`'s `capitalCommitments.commitment` to `amount`     E2: increment the `totalCommitted` storage by `amount`     E3: emit an `InvestorCommitment` event with the commitment amount and investor GIVEN:     C1: the `msg.sender` is marked as `isAllowed` on their capital commitment struct - as marked by the admin in `allowlistInvestor`     C2: `amount` <= type(uint144).max     C3: their investment at least meets the mininum investment requirements     C4: the `msg.sender`'s ERC20 allowance of this contract is >= their commitment `amount`     C5: the `msg.sender` has a balance of `asset` >= their commitment `amount`"
      },
      "owner()": {
        "details": "Returns the address of the current owner."
      },
      "renounceOwnership()": {
        "details": "we do not allow the owner to renounce ownership"
      },
      "setCapitalCaller(address)": {
        "params": {
          "_capitalCaller": "The new capital caller"
        }
      },
      "setMinInvestment(uint256)": {
        "details": "Only callable by the owner of the factoringPool",
        "params": {
          "_minInvestment": "The new minimum investment amount"
        }
      },
      "transferOwnership(address)": {
        "details": "Transfers ownership of the contract to a new account (`newOwner`). Can only be called by the current owner."
      }
    },
    "stateVariables": {
      "ASSET_DENOMINATION": {
        "details": "represents \"one\" of whatever `asset` is:      example: `1e6` for USDC = 1 USDC      example: `1e18` for WETH = 1 WETH"
      },
      "totalCommitted": {
        "details": "will be decremented as capital calls occur or as users are marked insolvent"
      }
    },
    "title": "A contract used to manage the `BullaFactoring` fund",
    "version": 1
  },
  "userdoc": {
    "kind": "user",
    "methods": {
      "allowlistInvestor(address)": {
        "notice": "allows the fund manager to allow an investor to call the `invest` function at their own discretion"
      },
      "blocklistInvestor(address)": {
        "notice": "allows the fund manager to blocklist an investor, preventing them from commiting"
      },
      "capitalCall(uint256)": {
        "notice": "allows the fund manager to pull funds from investors and send their tokens to the pool"
      },
      "capitalCaller()": {
        "notice": "a privileged address that can call the _capitalCall() function"
      },
      "capitalCommitments(address)": {
        "notice": "a mapping of investor addresses to their capital commitment struct"
      },
      "commit(uint256)": {
        "notice": "allows an investor to set their commitment to `amount` in the fundallows active investors to update their commitment amount"
      },
      "getInvestors()": {
        "notice": "reads the investor array"
      },
      "investorCount()": {
        "notice": "reads the amount of investors"
      },
      "investors(uint256)": {
        "notice": "a list of all investors"
      },
      "minInvestment()": {
        "notice": "the mininum amount of `asset` - denominated in `ASSET_DENOMINATION` - that an investor can commit to"
      },
      "pauseCommitments()": {
        "notice": "Allows the owner to halt any commitments into this contract by making the `commit` functione execution impossibleDeposits can be resumed by calling `setMinInvestment` with reasonable params"
      },
      "setCapitalCaller(address)": {
        "notice": "Allows the owner to update the capital caller"
      },
      "setMinInvestment(uint256)": {
        "notice": "Allows the owner to update the minimum investment amount"
      },
      "totalCommitted()": {
        "notice": "the total amount of committed `asset` committed to the pool"
      }
    },
    "notice": "INVARIANTS     I1: totalCommitted === (  capitalCommitments.commitment -  capitalCall's `callAmount` parameter )",
    "version": 1
  },
  "storageLayout": {
    "storage": [
      {
        "astId": 2746,
        "contract": "contracts/FactoringFundManager.sol:BullaFactoringFundManager",
        "label": "_owner",
        "offset": 0,
        "slot": "0",
        "type": "t_address"
      },
      {
        "astId": 9589,
        "contract": "contracts/FactoringFundManager.sol:BullaFactoringFundManager",
        "label": "capitalCaller",
        "offset": 0,
        "slot": "1",
        "type": "t_address"
      },
      {
        "astId": 9592,
        "contract": "contracts/FactoringFundManager.sol:BullaFactoringFundManager",
        "label": "minInvestment",
        "offset": 0,
        "slot": "2",
        "type": "t_uint256"
      },
      {
        "astId": 9595,
        "contract": "contracts/FactoringFundManager.sol:BullaFactoringFundManager",
        "label": "totalCommitted",
        "offset": 0,
        "slot": "3",
        "type": "t_uint256"
      },
      {
        "astId": 9599,
        "contract": "contracts/FactoringFundManager.sol:BullaFactoringFundManager",
        "label": "investors",
        "offset": 0,
        "slot": "4",
        "type": "t_array(t_address)dyn_storage"
      },
      {
        "astId": 9605,
        "contract": "contracts/FactoringFundManager.sol:BullaFactoringFundManager",
        "label": "capitalCommitments",
        "offset": 0,
        "slot": "5",
        "type": "t_mapping(t_address,t_struct(CapitalCommitment)9566_storage)"
      }
    ],
    "types": {
      "t_address": {
        "encoding": "inplace",
        "label": "address",
        "numberOfBytes": "20"
      },
      "t_array(t_address)dyn_storage": {
        "base": "t_address",
        "encoding": "dynamic_array",
        "label": "address[]",
        "numberOfBytes": "32"
      },
      "t_bool": {
        "encoding": "inplace",
        "label": "bool",
        "numberOfBytes": "1"
      },
      "t_mapping(t_address,t_struct(CapitalCommitment)9566_storage)": {
        "encoding": "mapping",
        "key": "t_address",
        "label": "mapping(address => struct IBullaFactoringFundManager.CapitalCommitment)",
        "numberOfBytes": "32",
        "value": "t_struct(CapitalCommitment)9566_storage"
      },
      "t_struct(CapitalCommitment)9566_storage": {
        "encoding": "inplace",
        "label": "struct IBullaFactoringFundManager.CapitalCommitment",
        "members": [
          {
            "astId": 9563,
            "contract": "contracts/FactoringFundManager.sol:BullaFactoringFundManager",
            "label": "isAllowed",
            "offset": 0,
            "slot": "0",
            "type": "t_bool"
          },
          {
            "astId": 9565,
            "contract": "contracts/FactoringFundManager.sol:BullaFactoringFundManager",
            "label": "commitment",
            "offset": 1,
            "slot": "0",
            "type": "t_uint144"
          }
        ],
        "numberOfBytes": "32"
      },
      "t_uint144": {
        "encoding": "inplace",
        "label": "uint144",
        "numberOfBytes": "18"
      },
      "t_uint256": {
        "encoding": "inplace",
        "label": "uint256",
        "numberOfBytes": "32"
      }
    }
  }
}