{
  "address": "0x58dc9404f7188A65C9EaF9e95dDA4F5080e52484",
  "abi": [
    {
      "inputs": [
        {
          "internalType": "contract IERC20",
          "name": "_asset",
          "type": "address"
        },
        {
          "internalType": "contract IInvoiceProviderAdapter",
          "name": "_invoiceProviderAdapter",
          "type": "address"
        },
        {
          "internalType": "address",
          "name": "_underwriter",
          "type": "address"
        },
        {
          "internalType": "contract Permissions",
          "name": "_depositPermissions",
          "type": "address"
        },
        {
          "internalType": "contract Permissions",
          "name": "_factoringPermissions",
          "type": "address"
        },
        {
          "internalType": "address",
          "name": "_bullaDao",
          "type": "address"
        },
        {
          "internalType": "uint16",
          "name": "_protocolFeeBps",
          "type": "uint16"
        },
        {
          "internalType": "uint16",
          "name": "_adminFeeBps",
          "type": "uint16"
        },
        {
          "internalType": "string",
          "name": "_poolName",
          "type": "string"
        },
        {
          "internalType": "uint16",
          "name": "_taxBps",
          "type": "uint16"
        },
        {
          "internalType": "uint16",
          "name": "_targetYieldBps",
          "type": "uint16"
        },
        {
          "internalType": "string",
          "name": "_tokenName",
          "type": "string"
        },
        {
          "internalType": "string",
          "name": "_tokenSymbol",
          "type": "string"
        }
      ],
      "stateMutability": "nonpayable",
      "type": "constructor"
    },
    {
      "inputs": [
        {
          "internalType": "address",
          "name": "target",
          "type": "address"
        }
      ],
      "name": "AddressEmptyCode",
      "type": "error"
    },
    {
      "inputs": [
        {
          "internalType": "address",
          "name": "account",
          "type": "address"
        }
      ],
      "name": "AddressInsufficientBalance",
      "type": "error"
    },
    {
      "inputs": [],
      "name": "ApprovalExpired",
      "type": "error"
    },
    {
      "inputs": [],
      "name": "CallerNotBullaDao",
      "type": "error"
    },
    {
      "inputs": [],
      "name": "CallerNotOriginalCreditor",
      "type": "error"
    },
    {
      "inputs": [],
      "name": "CallerNotUnderwriter",
      "type": "error"
    },
    {
      "inputs": [],
      "name": "DeductionsExceedsRealisedGains",
      "type": "error"
    },
    {
      "inputs": [
        {
          "internalType": "address",
          "name": "spender",
          "type": "address"
        },
        {
          "internalType": "uint256",
          "name": "allowance",
          "type": "uint256"
        },
        {
          "internalType": "uint256",
          "name": "needed",
          "type": "uint256"
        }
      ],
      "name": "ERC20InsufficientAllowance",
      "type": "error"
    },
    {
      "inputs": [
        {
          "internalType": "address",
          "name": "sender",
          "type": "address"
        },
        {
          "internalType": "uint256",
          "name": "balance",
          "type": "uint256"
        },
        {
          "internalType": "uint256",
          "name": "needed",
          "type": "uint256"
        }
      ],
      "name": "ERC20InsufficientBalance",
      "type": "error"
    },
    {
      "inputs": [
        {
          "internalType": "address",
          "name": "approver",
          "type": "address"
        }
      ],
      "name": "ERC20InvalidApprover",
      "type": "error"
    },
    {
      "inputs": [
        {
          "internalType": "address",
          "name": "receiver",
          "type": "address"
        }
      ],
      "name": "ERC20InvalidReceiver",
      "type": "error"
    },
    {
      "inputs": [
        {
          "internalType": "address",
          "name": "sender",
          "type": "address"
        }
      ],
      "name": "ERC20InvalidSender",
      "type": "error"
    },
    {
      "inputs": [
        {
          "internalType": "address",
          "name": "spender",
          "type": "address"
        }
      ],
      "name": "ERC20InvalidSpender",
      "type": "error"
    },
    {
      "inputs": [
        {
          "internalType": "address",
          "name": "receiver",
          "type": "address"
        },
        {
          "internalType": "uint256",
          "name": "assets",
          "type": "uint256"
        },
        {
          "internalType": "uint256",
          "name": "max",
          "type": "uint256"
        }
      ],
      "name": "ERC4626ExceededMaxDeposit",
      "type": "error"
    },
    {
      "inputs": [
        {
          "internalType": "address",
          "name": "receiver",
          "type": "address"
        },
        {
          "internalType": "uint256",
          "name": "shares",
          "type": "uint256"
        },
        {
          "internalType": "uint256",
          "name": "max",
          "type": "uint256"
        }
      ],
      "name": "ERC4626ExceededMaxMint",
      "type": "error"
    },
    {
      "inputs": [
        {
          "internalType": "address",
          "name": "owner",
          "type": "address"
        },
        {
          "internalType": "uint256",
          "name": "shares",
          "type": "uint256"
        },
        {
          "internalType": "uint256",
          "name": "max",
          "type": "uint256"
        }
      ],
      "name": "ERC4626ExceededMaxRedeem",
      "type": "error"
    },
    {
      "inputs": [
        {
          "internalType": "address",
          "name": "owner",
          "type": "address"
        },
        {
          "internalType": "uint256",
          "name": "assets",
          "type": "uint256"
        },
        {
          "internalType": "uint256",
          "name": "max",
          "type": "uint256"
        }
      ],
      "name": "ERC4626ExceededMaxWithdraw",
      "type": "error"
    },
    {
      "inputs": [],
      "name": "FailedInnerCall",
      "type": "error"
    },
    {
      "inputs": [],
      "name": "FeeWithdrawalFailed",
      "type": "error"
    },
    {
      "inputs": [],
      "name": "FunctionNotSupported",
      "type": "error"
    },
    {
      "inputs": [],
      "name": "ImpairReserveMustBeGreater",
      "type": "error"
    },
    {
      "inputs": [],
      "name": "ImpairReserveNotSet",
      "type": "error"
    },
    {
      "inputs": [],
      "name": "InvalidAddress",
      "type": "error"
    },
    {
      "inputs": [],
      "name": "InvalidPercentage",
      "type": "error"
    },
    {
      "inputs": [],
      "name": "InvoiceAlreadyImpairedByFund",
      "type": "error"
    },
    {
      "inputs": [],
      "name": "InvoiceAlreadyPaid",
      "type": "error"
    },
    {
      "inputs": [],
      "name": "InvoiceCanceled",
      "type": "error"
    },
    {
      "inputs": [],
      "name": "InvoiceCreditorChanged",
      "type": "error"
    },
    {
      "inputs": [],
      "name": "InvoiceNotApproved",
      "type": "error"
    },
    {
      "inputs": [],
      "name": "InvoiceNotImpaired",
      "type": "error"
    },
    {
      "inputs": [],
      "name": "InvoicePaidAmountChanged",
      "type": "error"
    },
    {
      "inputs": [],
      "name": "MathOverflowedMulDiv",
      "type": "error"
    },
    {
      "inputs": [],
      "name": "NoFeesToWithdraw",
      "type": "error"
    },
    {
      "inputs": [],
      "name": "NoTaxBalanceToWithdraw",
      "type": "error"
    },
    {
      "inputs": [
        {
          "internalType": "address",
          "name": "owner",
          "type": "address"
        }
      ],
      "name": "OwnableInvalidOwner",
      "type": "error"
    },
    {
      "inputs": [
        {
          "internalType": "address",
          "name": "account",
          "type": "address"
        }
      ],
      "name": "OwnableUnauthorizedAccount",
      "type": "error"
    },
    {
      "inputs": [
        {
          "internalType": "address",
          "name": "token",
          "type": "address"
        }
      ],
      "name": "SafeERC20FailedOperation",
      "type": "error"
    },
    {
      "inputs": [],
      "name": "TaxWithdrawalFailed",
      "type": "error"
    },
    {
      "inputs": [],
      "name": "TransferFailed",
      "type": "error"
    },
    {
      "inputs": [
        {
          "internalType": "address",
          "name": "caller",
          "type": "address"
        }
      ],
      "name": "UnauthorizedDeposit",
      "type": "error"
    },
    {
      "inputs": [
        {
          "internalType": "address",
          "name": "caller",
          "type": "address"
        }
      ],
      "name": "UnauthorizedFactoring",
      "type": "error"
    },
    {
      "inputs": [],
      "name": "UnpaidInvoice",
      "type": "error"
    },
    {
      "anonymous": false,
      "inputs": [
        {
          "indexed": false,
          "internalType": "uint256[]",
          "name": "paidInvoiceIds",
          "type": "uint256[]"
        }
      ],
      "name": "ActivePaidInvoicesReconciled",
      "type": "event"
    },
    {
      "anonymous": false,
      "inputs": [
        {
          "indexed": true,
          "internalType": "uint16",
          "name": "oldFeeBps",
          "type": "uint16"
        },
        {
          "indexed": true,
          "internalType": "uint16",
          "name": "newFeeBps",
          "type": "uint16"
        }
      ],
      "name": "AdminFeeBpsChanged",
      "type": "event"
    },
    {
      "anonymous": false,
      "inputs": [
        {
          "indexed": true,
          "internalType": "address",
          "name": "bullaDao",
          "type": "address"
        },
        {
          "indexed": false,
          "internalType": "uint256",
          "name": "amount",
          "type": "uint256"
        }
      ],
      "name": "AdminFeesWithdrawn",
      "type": "event"
    },
    {
      "anonymous": false,
      "inputs": [
        {
          "indexed": true,
          "internalType": "address",
          "name": "owner",
          "type": "address"
        },
        {
          "indexed": true,
          "internalType": "address",
          "name": "spender",
          "type": "address"
        },
        {
          "indexed": false,
          "internalType": "uint256",
          "name": "value",
          "type": "uint256"
        }
      ],
      "name": "Approval",
      "type": "event"
    },
    {
      "anonymous": false,
      "inputs": [
        {
          "indexed": false,
          "internalType": "uint256",
          "name": "newDuration",
          "type": "uint256"
        }
      ],
      "name": "ApprovalDurationChanged",
      "type": "event"
    },
    {
      "anonymous": false,
      "inputs": [
        {
          "indexed": true,
          "internalType": "address",
          "name": "oldAddress",
          "type": "address"
        },
        {
          "indexed": true,
          "internalType": "address",
          "name": "newAddress",
          "type": "address"
        }
      ],
      "name": "BullaDaoAddressChanged",
      "type": "event"
    },
    {
      "anonymous": false,
      "inputs": [
        {
          "indexed": true,
          "internalType": "address",
          "name": "sender",
          "type": "address"
        },
        {
          "indexed": true,
          "internalType": "address",
          "name": "owner",
          "type": "address"
        },
        {
          "indexed": false,
          "internalType": "uint256",
          "name": "assets",
          "type": "uint256"
        },
        {
          "indexed": false,
          "internalType": "uint256",
          "name": "shares",
          "type": "uint256"
        }
      ],
      "name": "Deposit",
      "type": "event"
    },
    {
      "anonymous": false,
      "inputs": [
        {
          "indexed": true,
          "internalType": "address",
          "name": "depositor",
          "type": "address"
        },
        {
          "indexed": false,
          "internalType": "uint256",
          "name": "assets",
          "type": "uint256"
        },
        {
          "indexed": false,
          "internalType": "uint256",
          "name": "sharesIssued",
          "type": "uint256"
        }
      ],
      "name": "DepositMade",
      "type": "event"
    },
    {
      "anonymous": false,
      "inputs": [
        {
          "indexed": true,
          "internalType": "address",
          "name": "depositor",
          "type": "address"
        },
        {
          "indexed": false,
          "internalType": "uint256",
          "name": "assets",
          "type": "uint256"
        },
        {
          "indexed": false,
          "internalType": "uint256",
          "name": "shares",
          "type": "uint256"
        },
        {
          "components": [
            {
              "internalType": "bytes32",
              "name": "hash",
              "type": "bytes32"
            },
            {
              "internalType": "uint8",
              "name": "hashFunction",
              "type": "uint8"
            },
            {
              "internalType": "uint8",
              "name": "size",
              "type": "uint8"
            }
          ],
          "indexed": false,
          "internalType": "struct IBullaFactoring.Multihash",
          "name": "attachment",
          "type": "tuple"
        }
      ],
      "name": "DepositMadeWithAttachment",
      "type": "event"
    },
    {
      "anonymous": false,
      "inputs": [
        {
          "indexed": false,
          "internalType": "address",
          "name": "newAddress",
          "type": "address"
        }
      ],
      "name": "DepositPermissionsChanged",
      "type": "event"
    },
    {
      "anonymous": false,
      "inputs": [
        {
          "indexed": false,
          "internalType": "address",
          "name": "newAddress",
          "type": "address"
        }
      ],
      "name": "FactoringPermissionsChanged",
      "type": "event"
    },
    {
      "anonymous": false,
      "inputs": [
        {
          "indexed": false,
          "internalType": "uint256",
          "name": "newFundingPercentage",
          "type": "uint256"
        }
      ],
      "name": "FundingPercentageChanged",
      "type": "event"
    },
    {
      "anonymous": false,
      "inputs": [
        {
          "indexed": false,
          "internalType": "uint256",
          "name": "newGracePeriodDays",
          "type": "uint256"
        }
      ],
      "name": "GracePeriodDaysChanged",
      "type": "event"
    },
    {
      "anonymous": false,
      "inputs": [
        {
          "indexed": false,
          "internalType": "uint256",
          "name": "newImpairReserve",
          "type": "uint256"
        }
      ],
      "name": "ImpairReserveChanged",
      "type": "event"
    },
    {
      "anonymous": false,
      "inputs": [
        {
          "indexed": true,
          "internalType": "uint256",
          "name": "invoiceId",
          "type": "uint256"
        },
        {
          "indexed": false,
          "internalType": "uint16",
          "name": "interestApr",
          "type": "uint16"
        },
        {
          "indexed": false,
          "internalType": "uint16",
          "name": "upfrontBps",
          "type": "uint16"
        },
        {
          "indexed": false,
          "internalType": "uint256",
          "name": "validUntil",
          "type": "uint256"
        },
        {
          "indexed": false,
          "internalType": "uint16",
          "name": "minDays",
          "type": "uint16"
        }
      ],
      "name": "InvoiceApproved",
      "type": "event"
    },
    {
      "anonymous": false,
      "inputs": [
        {
          "indexed": true,
          "internalType": "uint256",
          "name": "invoiceId",
          "type": "uint256"
        },
        {
          "indexed": false,
          "internalType": "uint256",
          "name": "fundedAmount",
          "type": "uint256"
        },
        {
          "indexed": true,
          "internalType": "address",
          "name": "originalCreditor",
          "type": "address"
        }
      ],
      "name": "InvoiceFunded",
      "type": "event"
    },
    {
      "anonymous": false,
      "inputs": [
        {
          "indexed": true,
          "internalType": "uint256",
          "name": "invoiceId",
          "type": "uint256"
        },
        {
          "indexed": false,
          "internalType": "uint256",
          "name": "lossAmount",
          "type": "uint256"
        },
        {
          "indexed": false,
          "internalType": "uint256",
          "name": "gainAmount",
          "type": "uint256"
        }
      ],
      "name": "InvoiceImpaired",
      "type": "event"
    },
    {
      "anonymous": false,
      "inputs": [
        {
          "indexed": true,
          "internalType": "uint256",
          "name": "invoiceId",
          "type": "uint256"
        },
        {
          "indexed": false,
          "internalType": "uint256",
          "name": "kickbackAmount",
          "type": "uint256"
        },
        {
          "indexed": true,
          "internalType": "address",
          "name": "originalCreditor",
          "type": "address"
        }
      ],
      "name": "InvoiceKickbackAmountSent",
      "type": "event"
    },
    {
      "anonymous": false,
      "inputs": [
        {
          "indexed": false,
          "internalType": "contract IInvoiceProviderAdapter",
          "name": "newInvoiceProviderAdapter",
          "type": "address"
        }
      ],
      "name": "InvoiceProviderAdapterChanged",
      "type": "event"
    },
    {
      "anonymous": false,
      "inputs": [
        {
          "indexed": true,
          "internalType": "uint256",
          "name": "invoiceId",
          "type": "uint256"
        },
        {
          "indexed": false,
          "internalType": "address",
          "name": "originalCreditor",
          "type": "address"
        },
        {
          "indexed": false,
          "internalType": "uint256",
          "name": "totalRefundAmount",
          "type": "uint256"
        },
        {
          "indexed": false,
          "internalType": "uint256",
          "name": "interestToCharge",
          "type": "uint256"
        }
      ],
      "name": "InvoiceUnfactored",
      "type": "event"
    },
    {
      "anonymous": false,
      "inputs": [
        {
          "indexed": false,
          "internalType": "uint256",
          "name": "newKickbackPercentageBps",
          "type": "uint256"
        }
      ],
      "name": "KickbackPercentageChanged",
      "type": "event"
    },
    {
      "anonymous": false,
      "inputs": [
        {
          "indexed": true,
          "internalType": "address",
          "name": "previousOwner",
          "type": "address"
        },
        {
          "indexed": true,
          "internalType": "address",
          "name": "newOwner",
          "type": "address"
        }
      ],
      "name": "OwnershipTransferred",
      "type": "event"
    },
    {
      "anonymous": false,
      "inputs": [
        {
          "indexed": false,
          "internalType": "uint16",
          "name": "oldProtocolFeeBps",
          "type": "uint16"
        },
        {
          "indexed": false,
          "internalType": "uint16",
          "name": "newProtocolFeeBps",
          "type": "uint16"
        }
      ],
      "name": "ProtocolFeeBpsChanged",
      "type": "event"
    },
    {
      "anonymous": false,
      "inputs": [
        {
          "indexed": true,
          "internalType": "address",
          "name": "bullaDao",
          "type": "address"
        },
        {
          "indexed": false,
          "internalType": "uint256",
          "name": "amount",
          "type": "uint256"
        }
      ],
      "name": "ProtocolFeesWithdrawn",
      "type": "event"
    },
    {
      "anonymous": false,
      "inputs": [
        {
          "indexed": true,
          "internalType": "address",
          "name": "redeemer",
          "type": "address"
        },
        {
          "indexed": false,
          "internalType": "uint256",
          "name": "shares",
          "type": "uint256"
        },
        {
          "indexed": false,
          "internalType": "uint256",
          "name": "assets",
          "type": "uint256"
        }
      ],
      "name": "SharesRedeemed",
      "type": "event"
    },
    {
      "anonymous": false,
      "inputs": [
        {
          "indexed": true,
          "internalType": "address",
          "name": "redeemer",
          "type": "address"
        },
        {
          "indexed": false,
          "internalType": "uint256",
          "name": "shares",
          "type": "uint256"
        },
        {
          "indexed": false,
          "internalType": "uint256",
          "name": "assets",
          "type": "uint256"
        },
        {
          "components": [
            {
              "internalType": "bytes32",
              "name": "hash",
              "type": "bytes32"
            },
            {
              "internalType": "uint8",
              "name": "hashFunction",
              "type": "uint8"
            },
            {
              "internalType": "uint8",
              "name": "size",
              "type": "uint8"
            }
          ],
          "indexed": false,
          "internalType": "struct IBullaFactoring.Multihash",
          "name": "attachment",
          "type": "tuple"
        }
      ],
      "name": "SharesRedeemedWithAttachment",
      "type": "event"
    },
    {
      "anonymous": false,
      "inputs": [
        {
          "indexed": false,
          "internalType": "uint16",
          "name": "newTargetYield",
          "type": "uint16"
        }
      ],
      "name": "TargetYieldChanged",
      "type": "event"
    },
    {
      "anonymous": false,
      "inputs": [
        {
          "indexed": true,
          "internalType": "address",
          "name": "receiver",
          "type": "address"
        },
        {
          "indexed": false,
          "internalType": "uint256",
          "name": "amount",
          "type": "uint256"
        }
      ],
      "name": "TaxBalanceWithdrawn",
      "type": "event"
    },
    {
      "anonymous": false,
      "inputs": [
        {
          "indexed": true,
          "internalType": "uint16",
          "name": "oldTaxBps",
          "type": "uint16"
        },
        {
          "indexed": true,
          "internalType": "uint256",
          "name": "newTaxBps",
          "type": "uint256"
        }
      ],
      "name": "TaxBpsChanged",
      "type": "event"
    },
    {
      "anonymous": false,
      "inputs": [
        {
          "indexed": true,
          "internalType": "address",
          "name": "from",
          "type": "address"
        },
        {
          "indexed": true,
          "internalType": "address",
          "name": "to",
          "type": "address"
        },
        {
          "indexed": false,
          "internalType": "uint256",
          "name": "value",
          "type": "uint256"
        }
      ],
      "name": "Transfer",
      "type": "event"
    },
    {
      "anonymous": false,
      "inputs": [
        {
          "indexed": true,
          "internalType": "address",
          "name": "oldUnderwriter",
          "type": "address"
        },
        {
          "indexed": true,
          "internalType": "address",
          "name": "newUnderwriter",
          "type": "address"
        }
      ],
      "name": "UnderwriterChanged",
      "type": "event"
    },
    {
      "anonymous": false,
      "inputs": [
        {
          "indexed": true,
          "internalType": "address",
          "name": "sender",
          "type": "address"
        },
        {
          "indexed": true,
          "internalType": "address",
          "name": "receiver",
          "type": "address"
        },
        {
          "indexed": true,
          "internalType": "address",
          "name": "owner",
          "type": "address"
        },
        {
          "indexed": false,
          "internalType": "uint256",
          "name": "assets",
          "type": "uint256"
        },
        {
          "indexed": false,
          "internalType": "uint256",
          "name": "shares",
          "type": "uint256"
        }
      ],
      "name": "Withdraw",
      "type": "event"
    },
    {
      "inputs": [],
      "name": "SCALING_FACTOR",
      "outputs": [
        {
          "internalType": "uint256",
          "name": "",
          "type": "uint256"
        }
      ],
      "stateMutability": "view",
      "type": "function"
    },
    {
      "inputs": [
        {
          "internalType": "uint256",
          "name": "",
          "type": "uint256"
        }
      ],
      "name": "activeInvoices",
      "outputs": [
        {
          "internalType": "uint256",
          "name": "",
          "type": "uint256"
        }
      ],
      "stateMutability": "view",
      "type": "function"
    },
    {
      "inputs": [],
      "name": "adminFeeBalance",
      "outputs": [
        {
          "internalType": "uint256",
          "name": "",
          "type": "uint256"
        }
      ],
      "stateMutability": "view",
      "type": "function"
    },
    {
      "inputs": [],
      "name": "adminFeeBps",
      "outputs": [
        {
          "internalType": "uint16",
          "name": "",
          "type": "uint16"
        }
      ],
      "stateMutability": "view",
      "type": "function"
    },
    {
      "inputs": [
        {
          "internalType": "address",
          "name": "owner",
          "type": "address"
        },
        {
          "internalType": "address",
          "name": "spender",
          "type": "address"
        }
      ],
      "name": "allowance",
      "outputs": [
        {
          "internalType": "uint256",
          "name": "",
          "type": "uint256"
        }
      ],
      "stateMutability": "view",
      "type": "function"
    },
    {
      "inputs": [],
      "name": "approvalDuration",
      "outputs": [
        {
          "internalType": "uint256",
          "name": "",
          "type": "uint256"
        }
      ],
      "stateMutability": "view",
      "type": "function"
    },
    {
      "inputs": [
        {
          "internalType": "address",
          "name": "spender",
          "type": "address"
        },
        {
          "internalType": "uint256",
          "name": "value",
          "type": "uint256"
        }
      ],
      "name": "approve",
      "outputs": [
        {
          "internalType": "bool",
          "name": "",
          "type": "bool"
        }
      ],
      "stateMutability": "nonpayable",
      "type": "function"
    },
    {
      "inputs": [
        {
          "internalType": "uint256",
          "name": "invoiceId",
          "type": "uint256"
        },
        {
          "internalType": "uint16",
          "name": "_interestApr",
          "type": "uint16"
        },
        {
          "internalType": "uint16",
          "name": "_upfrontBps",
          "type": "uint16"
        },
        {
          "internalType": "uint16",
          "name": "minDaysInterestApplied",
          "type": "uint16"
        }
      ],
      "name": "approveInvoice",
      "outputs": [],
      "stateMutability": "nonpayable",
      "type": "function"
    },
    {
      "inputs": [
        {
          "internalType": "uint256",
          "name": "",
          "type": "uint256"
        }
      ],
      "name": "approvedInvoices",
      "outputs": [
        {
          "internalType": "bool",
          "name": "approved",
          "type": "bool"
        },
        {
          "components": [
            {
              "internalType": "uint256",
              "name": "faceValue",
              "type": "uint256"
            },
            {
              "internalType": "address",
              "name": "creditor",
              "type": "address"
            },
            {
              "internalType": "address",
              "name": "debtor",
              "type": "address"
            },
            {
              "internalType": "uint256",
              "name": "dueDate",
              "type": "uint256"
            },
            {
              "internalType": "address",
              "name": "tokenAddress",
              "type": "address"
            },
            {
              "internalType": "uint256",
              "name": "paidAmount",
              "type": "uint256"
            },
            {
              "internalType": "bool",
              "name": "isCanceled",
              "type": "bool"
            }
          ],
          "internalType": "struct IInvoiceProviderAdapter.Invoice",
          "name": "invoiceSnapshot",
          "type": "tuple"
        },
        {
          "internalType": "uint256",
          "name": "validUntil",
          "type": "uint256"
        },
        {
          "internalType": "uint256",
          "name": "fundedTimestamp",
          "type": "uint256"
        },
        {
          "internalType": "uint16",
          "name": "interestApr",
          "type": "uint16"
        },
        {
          "internalType": "uint16",
          "name": "upfrontBps",
          "type": "uint16"
        },
        {
          "internalType": "uint256",
          "name": "fundedAmountGross",
          "type": "uint256"
        },
        {
          "internalType": "uint256",
          "name": "fundedAmountNet",
          "type": "uint256"
        },
        {
          "internalType": "uint256",
          "name": "adminFee",
          "type": "uint256"
        },
        {
          "internalType": "uint16",
          "name": "minDaysInterestApplied",
          "type": "uint16"
        },
        {
          "internalType": "uint256",
          "name": "trueFaceValue",
          "type": "uint256"
        }
      ],
      "stateMutability": "view",
      "type": "function"
    },
    {
      "inputs": [],
      "name": "asset",
      "outputs": [
        {
          "internalType": "address",
          "name": "",
          "type": "address"
        }
      ],
      "stateMutability": "view",
      "type": "function"
    },
    {
      "inputs": [],
      "name": "assetAddress",
      "outputs": [
        {
          "internalType": "contract IERC20",
          "name": "",
          "type": "address"
        }
      ],
      "stateMutability": "view",
      "type": "function"
    },
    {
      "inputs": [],
      "name": "availableAssets",
      "outputs": [
        {
          "internalType": "uint256",
          "name": "",
          "type": "uint256"
        }
      ],
      "stateMutability": "view",
      "type": "function"
    },
    {
      "inputs": [
        {
          "internalType": "address",
          "name": "account",
          "type": "address"
        }
      ],
      "name": "balanceOf",
      "outputs": [
        {
          "internalType": "uint256",
          "name": "",
          "type": "uint256"
        }
      ],
      "stateMutability": "view",
      "type": "function"
    },
    {
      "inputs": [],
      "name": "bullaDao",
      "outputs": [
        {
          "internalType": "address",
          "name": "",
          "type": "address"
        }
      ],
      "stateMutability": "view",
      "type": "function"
    },
    {
      "inputs": [],
      "name": "calculateCapitalAccount",
      "outputs": [
        {
          "internalType": "uint256",
          "name": "",
          "type": "uint256"
        }
      ],
      "stateMutability": "view",
      "type": "function"
    },
    {
      "inputs": [
        {
          "internalType": "uint256",
          "name": "invoiceId",
          "type": "uint256"
        }
      ],
      "name": "calculateKickbackAmount",
      "outputs": [
        {
          "internalType": "uint256",
          "name": "kickbackAmount",
          "type": "uint256"
        },
        {
          "internalType": "uint256",
          "name": "trueInterest",
          "type": "uint256"
        },
        {
          "internalType": "uint256",
          "name": "trueProtocolFee",
          "type": "uint256"
        }
      ],
      "stateMutability": "view",
      "type": "function"
    },
    {
      "inputs": [],
      "name": "calculateRealizedGainLoss",
      "outputs": [
        {
          "internalType": "int256",
          "name": "",
          "type": "int256"
        }
      ],
      "stateMutability": "view",
      "type": "function"
    },
    {
      "inputs": [
        {
          "internalType": "uint256",
          "name": "invoiceId",
          "type": "uint256"
        },
        {
          "internalType": "uint16",
          "name": "factorerUpfrontBps",
          "type": "uint16"
        }
      ],
      "name": "calculateTargetFees",
      "outputs": [
        {
          "internalType": "uint256",
          "name": "fundedAmountGross",
          "type": "uint256"
        },
        {
          "internalType": "uint256",
          "name": "adminFee",
          "type": "uint256"
        },
        {
          "internalType": "uint256",
          "name": "targetInterest",
          "type": "uint256"
        },
        {
          "internalType": "uint256",
          "name": "targetProtocolFee",
          "type": "uint256"
        },
        {
          "internalType": "uint256",
          "name": "netFundedAmount",
          "type": "uint256"
        }
      ],
      "stateMutability": "view",
      "type": "function"
    },
    {
      "inputs": [
        {
          "internalType": "uint256",
          "name": "amount",
          "type": "uint256"
        }
      ],
      "name": "calculateTax",
      "outputs": [
        {
          "internalType": "uint256",
          "name": "",
          "type": "uint256"
        }
      ],
      "stateMutability": "view",
      "type": "function"
    },
    {
      "inputs": [
        {
          "internalType": "uint256",
          "name": "shares",
          "type": "uint256"
        }
      ],
      "name": "convertToAssets",
      "outputs": [
        {
          "internalType": "uint256",
          "name": "",
          "type": "uint256"
        }
      ],
      "stateMutability": "view",
      "type": "function"
    },
    {
      "inputs": [
        {
          "internalType": "uint256",
          "name": "assets",
          "type": "uint256"
        }
      ],
      "name": "convertToShares",
      "outputs": [
        {
          "internalType": "uint256",
          "name": "",
          "type": "uint256"
        }
      ],
      "stateMutability": "view",
      "type": "function"
    },
    {
      "inputs": [],
      "name": "creationTimestamp",
      "outputs": [
        {
          "internalType": "uint256",
          "name": "",
          "type": "uint256"
        }
      ],
      "stateMutability": "view",
      "type": "function"
    },
    {
      "inputs": [],
      "name": "decimals",
      "outputs": [
        {
          "internalType": "uint8",
          "name": "",
          "type": "uint8"
        }
      ],
      "stateMutability": "view",
      "type": "function"
    },
    {
      "inputs": [
        {
          "internalType": "uint256",
          "name": "assets",
          "type": "uint256"
        },
        {
          "internalType": "address",
          "name": "receiver",
          "type": "address"
        }
      ],
      "name": "deposit",
      "outputs": [
        {
          "internalType": "uint256",
          "name": "",
          "type": "uint256"
        }
      ],
      "stateMutability": "nonpayable",
      "type": "function"
    },
    {
      "inputs": [],
      "name": "depositPermissions",
      "outputs": [
        {
          "internalType": "contract Permissions",
          "name": "",
          "type": "address"
        }
      ],
      "stateMutability": "view",
      "type": "function"
    },
    {
      "inputs": [
        {
          "internalType": "uint256",
          "name": "assets",
          "type": "uint256"
        },
        {
          "internalType": "address",
          "name": "receiver",
          "type": "address"
        },
        {
          "components": [
            {
              "internalType": "bytes32",
              "name": "hash",
              "type": "bytes32"
            },
            {
              "internalType": "uint8",
              "name": "hashFunction",
              "type": "uint8"
            },
            {
              "internalType": "uint8",
              "name": "size",
              "type": "uint8"
            }
          ],
          "internalType": "struct IBullaFactoring.Multihash",
          "name": "attachment",
          "type": "tuple"
        }
      ],
      "name": "depositWithAttachment",
      "outputs": [
        {
          "internalType": "uint256",
          "name": "",
          "type": "uint256"
        }
      ],
      "stateMutability": "nonpayable",
      "type": "function"
    },
    {
      "inputs": [],
      "name": "factoringPermissions",
      "outputs": [
        {
          "internalType": "contract Permissions",
          "name": "",
          "type": "address"
        }
      ],
      "stateMutability": "view",
      "type": "function"
    },
    {
      "inputs": [
        {
          "internalType": "uint256",
          "name": "invoiceId",
          "type": "uint256"
        },
        {
          "internalType": "uint16",
          "name": "factorerUpfrontBps",
          "type": "uint16"
        }
      ],
      "name": "fundInvoice",
      "outputs": [
        {
          "internalType": "uint256",
          "name": "",
          "type": "uint256"
        }
      ],
      "stateMutability": "nonpayable",
      "type": "function"
    },
    {
      "inputs": [],
      "name": "getFundInfo",
      "outputs": [
        {
          "components": [
            {
              "internalType": "string",
              "name": "name",
              "type": "string"
            },
            {
              "internalType": "uint256",
              "name": "creationTimestamp",
              "type": "uint256"
            },
            {
              "internalType": "uint256",
              "name": "fundBalance",
              "type": "uint256"
            },
            {
              "internalType": "uint256",
              "name": "deployedCapital",
              "type": "uint256"
            },
            {
              "internalType": "int256",
              "name": "realizedGain",
              "type": "int256"
            },
            {
              "internalType": "uint256",
              "name": "capitalAccount",
              "type": "uint256"
            },
            {
              "internalType": "uint256",
              "name": "price",
              "type": "uint256"
            },
            {
              "internalType": "uint256",
              "name": "tokensAvailableForRedemption",
              "type": "uint256"
            },
            {
              "internalType": "uint16",
              "name": "adminFeeBps",
              "type": "uint16"
            },
            {
              "internalType": "uint256",
              "name": "impairReserve",
              "type": "uint256"
            },
            {
              "internalType": "uint256",
              "name": "targetYieldBps",
              "type": "uint256"
            }
          ],
          "internalType": "struct IBullaFactoring.FundInfo",
          "name": "",
          "type": "tuple"
        }
      ],
      "stateMutability": "view",
      "type": "function"
    },
    {
      "inputs": [
        {
          "internalType": "uint256",
          "name": "invoiceId",
          "type": "uint256"
        }
      ],
      "name": "getFundedAmount",
      "outputs": [
        {
          "internalType": "uint256",
          "name": "",
          "type": "uint256"
        }
      ],
      "stateMutability": "view",
      "type": "function"
    },
    {
      "inputs": [],
      "name": "gracePeriodDays",
      "outputs": [
        {
          "internalType": "uint256",
          "name": "",
          "type": "uint256"
        }
      ],
      "stateMutability": "view",
      "type": "function"
    },
    {
      "inputs": [
        {
          "internalType": "uint256",
          "name": "invoiceId",
          "type": "uint256"
        }
      ],
      "name": "impairInvoice",
      "outputs": [],
      "stateMutability": "nonpayable",
      "type": "function"
    },
    {
      "inputs": [],
      "name": "impairReserve",
      "outputs": [
        {
          "internalType": "uint256",
          "name": "",
          "type": "uint256"
        }
      ],
      "stateMutability": "view",
      "type": "function"
    },
    {
      "inputs": [
        {
          "internalType": "uint256",
          "name": "",
          "type": "uint256"
        }
      ],
      "name": "impairments",
      "outputs": [
        {
          "internalType": "uint256",
          "name": "gainAmount",
          "type": "uint256"
        },
        {
          "internalType": "uint256",
          "name": "lossAmount",
          "type": "uint256"
        },
        {
          "internalType": "bool",
          "name": "isImpaired",
          "type": "bool"
        }
      ],
      "stateMutability": "view",
      "type": "function"
    },
    {
      "inputs": [],
      "name": "invoiceProviderAdapter",
      "outputs": [
        {
          "internalType": "contract IInvoiceProviderAdapter",
          "name": "",
          "type": "address"
        }
      ],
      "stateMutability": "view",
      "type": "function"
    },
    {
      "inputs": [
        {
          "internalType": "address",
          "name": "",
          "type": "address"
        }
      ],
      "name": "maxDeposit",
      "outputs": [
        {
          "internalType": "uint256",
          "name": "",
          "type": "uint256"
        }
      ],
      "stateMutability": "view",
      "type": "function"
    },
    {
      "inputs": [
        {
          "internalType": "address",
          "name": "",
          "type": "address"
        }
      ],
      "name": "maxMint",
      "outputs": [
        {
          "internalType": "uint256",
          "name": "",
          "type": "uint256"
        }
      ],
      "stateMutability": "view",
      "type": "function"
    },
    {
      "inputs": [],
      "name": "maxRedeem",
      "outputs": [
        {
          "internalType": "uint256",
          "name": "",
          "type": "uint256"
        }
      ],
      "stateMutability": "view",
      "type": "function"
    },
    {
      "inputs": [
        {
          "internalType": "address",
          "name": "owner",
          "type": "address"
        }
      ],
      "name": "maxRedeem",
      "outputs": [
        {
          "internalType": "uint256",
          "name": "",
          "type": "uint256"
        }
      ],
      "stateMutability": "view",
      "type": "function"
    },
    {
      "inputs": [
        {
          "internalType": "address",
          "name": "owner",
          "type": "address"
        }
      ],
      "name": "maxWithdraw",
      "outputs": [
        {
          "internalType": "uint256",
          "name": "",
          "type": "uint256"
        }
      ],
      "stateMutability": "view",
      "type": "function"
    },
    {
      "inputs": [
        {
          "internalType": "uint256",
          "name": "",
          "type": "uint256"
        },
        {
          "internalType": "address",
          "name": "",
          "type": "address"
        }
      ],
      "name": "mint",
      "outputs": [
        {
          "internalType": "uint256",
          "name": "",
          "type": "uint256"
        }
      ],
      "stateMutability": "pure",
      "type": "function"
    },
    {
      "inputs": [],
      "name": "name",
      "outputs": [
        {
          "internalType": "string",
          "name": "",
          "type": "string"
        }
      ],
      "stateMutability": "view",
      "type": "function"
    },
    {
      "inputs": [
        {
          "internalType": "uint256",
          "name": "",
          "type": "uint256"
        }
      ],
      "name": "originalCreditors",
      "outputs": [
        {
          "internalType": "address",
          "name": "",
          "type": "address"
        }
      ],
      "stateMutability": "view",
      "type": "function"
    },
    {
      "inputs": [],
      "name": "owner",
      "outputs": [
        {
          "internalType": "address",
          "name": "",
          "type": "address"
        }
      ],
      "stateMutability": "view",
      "type": "function"
    },
    {
      "inputs": [
        {
          "internalType": "uint256",
          "name": "",
          "type": "uint256"
        }
      ],
      "name": "paidInvoiceTax",
      "outputs": [
        {
          "internalType": "uint256",
          "name": "",
          "type": "uint256"
        }
      ],
      "stateMutability": "view",
      "type": "function"
    },
    {
      "inputs": [
        {
          "internalType": "uint256",
          "name": "",
          "type": "uint256"
        }
      ],
      "name": "paidInvoicesGain",
      "outputs": [
        {
          "internalType": "uint256",
          "name": "",
          "type": "uint256"
        }
      ],
      "stateMutability": "view",
      "type": "function"
    },
    {
      "inputs": [],
      "name": "poolName",
      "outputs": [
        {
          "internalType": "string",
          "name": "",
          "type": "string"
        }
      ],
      "stateMutability": "view",
      "type": "function"
    },
    {
      "inputs": [
        {
          "internalType": "uint256",
          "name": "assets",
          "type": "uint256"
        }
      ],
      "name": "previewDeposit",
      "outputs": [
        {
          "internalType": "uint256",
          "name": "",
          "type": "uint256"
        }
      ],
      "stateMutability": "view",
      "type": "function"
    },
    {
      "inputs": [
        {
          "internalType": "uint256",
          "name": "shares",
          "type": "uint256"
        }
      ],
      "name": "previewMint",
      "outputs": [
        {
          "internalType": "uint256",
          "name": "",
          "type": "uint256"
        }
      ],
      "stateMutability": "view",
      "type": "function"
    },
    {
      "inputs": [
        {
          "internalType": "uint256",
          "name": "shares",
          "type": "uint256"
        }
      ],
      "name": "previewRedeem",
      "outputs": [
        {
          "internalType": "uint256",
          "name": "",
          "type": "uint256"
        }
      ],
      "stateMutability": "view",
      "type": "function"
    },
    {
      "inputs": [
        {
          "internalType": "uint256",
          "name": "assets",
          "type": "uint256"
        }
      ],
      "name": "previewWithdraw",
      "outputs": [
        {
          "internalType": "uint256",
          "name": "",
          "type": "uint256"
        }
      ],
      "stateMutability": "view",
      "type": "function"
    },
    {
      "inputs": [],
      "name": "pricePerShare",
      "outputs": [
        {
          "internalType": "uint256",
          "name": "",
          "type": "uint256"
        }
      ],
      "stateMutability": "view",
      "type": "function"
    },
    {
      "inputs": [],
      "name": "protocolFeeBalance",
      "outputs": [
        {
          "internalType": "uint256",
          "name": "",
          "type": "uint256"
        }
      ],
      "stateMutability": "view",
      "type": "function"
    },
    {
      "inputs": [],
      "name": "protocolFeeBps",
      "outputs": [
        {
          "internalType": "uint16",
          "name": "",
          "type": "uint16"
        }
      ],
      "stateMutability": "view",
      "type": "function"
    },
    {
      "inputs": [],
      "name": "reconcileActivePaidInvoices",
      "outputs": [],
      "stateMutability": "nonpayable",
      "type": "function"
    },
    {
      "inputs": [
        {
          "internalType": "uint256",
          "name": "shares",
          "type": "uint256"
        },
        {
          "internalType": "address",
          "name": "receiver",
          "type": "address"
        },
        {
          "internalType": "address",
          "name": "owner",
          "type": "address"
        }
      ],
      "name": "redeem",
      "outputs": [
        {
          "internalType": "uint256",
          "name": "",
          "type": "uint256"
        }
      ],
      "stateMutability": "nonpayable",
      "type": "function"
    },
    {
      "inputs": [
        {
          "internalType": "uint256",
          "name": "shares",
          "type": "uint256"
        },
        {
          "internalType": "address",
          "name": "receiver",
          "type": "address"
        },
        {
          "internalType": "address",
          "name": "owner",
          "type": "address"
        },
        {
          "components": [
            {
              "internalType": "bytes32",
              "name": "hash",
              "type": "bytes32"
            },
            {
              "internalType": "uint8",
              "name": "hashFunction",
              "type": "uint8"
            },
            {
              "internalType": "uint8",
              "name": "size",
              "type": "uint8"
            }
          ],
          "internalType": "struct IBullaFactoring.Multihash",
          "name": "attachment",
          "type": "tuple"
        }
      ],
      "name": "redeemWithAttachment",
      "outputs": [
        {
          "internalType": "uint256",
          "name": "",
          "type": "uint256"
        }
      ],
      "stateMutability": "nonpayable",
      "type": "function"
    },
    {
      "inputs": [],
      "name": "renounceOwnership",
      "outputs": [],
      "stateMutability": "nonpayable",
      "type": "function"
    },
    {
      "inputs": [
        {
          "internalType": "uint16",
          "name": "_newAdminFeeBps",
          "type": "uint16"
        }
      ],
      "name": "setAdminFeeBps",
      "outputs": [],
      "stateMutability": "nonpayable",
      "type": "function"
    },
    {
      "inputs": [
        {
          "internalType": "uint256",
          "name": "_duration",
          "type": "uint256"
        }
      ],
      "name": "setApprovalDuration",
      "outputs": [],
      "stateMutability": "nonpayable",
      "type": "function"
    },
    {
      "inputs": [
        {
          "internalType": "address",
          "name": "_newBullaDao",
          "type": "address"
        }
      ],
      "name": "setBullaDaoAddress",
      "outputs": [],
      "stateMutability": "nonpayable",
      "type": "function"
    },
    {
      "inputs": [
        {
          "internalType": "address",
          "name": "_newDepositPermissionsAddress",
          "type": "address"
        }
      ],
      "name": "setDepositPermissions",
      "outputs": [],
      "stateMutability": "nonpayable",
      "type": "function"
    },
    {
      "inputs": [
        {
          "internalType": "address",
          "name": "_newFactoringPermissionsAddress",
          "type": "address"
        }
      ],
      "name": "setFactoringPermissions",
      "outputs": [],
      "stateMutability": "nonpayable",
      "type": "function"
    },
    {
      "inputs": [
        {
          "internalType": "uint256",
          "name": "_days",
          "type": "uint256"
        }
      ],
      "name": "setGracePeriodDays",
      "outputs": [],
      "stateMutability": "nonpayable",
      "type": "function"
    },
    {
      "inputs": [
        {
          "internalType": "uint256",
          "name": "_impairReserve",
          "type": "uint256"
        }
      ],
      "name": "setImpairReserve",
      "outputs": [],
      "stateMutability": "nonpayable",
      "type": "function"
    },
    {
      "inputs": [
        {
          "internalType": "contract IInvoiceProviderAdapter",
          "name": "_newInvoiceProviderAdapter",
          "type": "address"
        }
      ],
      "name": "setInvoiceProviderAdapter",
      "outputs": [],
      "stateMutability": "nonpayable",
      "type": "function"
    },
    {
      "inputs": [
        {
          "internalType": "uint16",
          "name": "_newProtocolFeeBps",
          "type": "uint16"
        }
      ],
      "name": "setProtocolFeeBps",
      "outputs": [],
      "stateMutability": "nonpayable",
      "type": "function"
    },
    {
      "inputs": [
        {
          "internalType": "uint16",
          "name": "_targetYieldBps",
          "type": "uint16"
        }
      ],
      "name": "setTargetYield",
      "outputs": [],
      "stateMutability": "nonpayable",
      "type": "function"
    },
    {
      "inputs": [
        {
          "internalType": "uint16",
          "name": "_newTaxBps",
          "type": "uint16"
        }
      ],
      "name": "setTaxBps",
      "outputs": [],
      "stateMutability": "nonpayable",
      "type": "function"
    },
    {
      "inputs": [
        {
          "internalType": "address",
          "name": "_newUnderwriter",
          "type": "address"
        }
      ],
      "name": "setUnderwriter",
      "outputs": [],
      "stateMutability": "nonpayable",
      "type": "function"
    },
    {
      "inputs": [],
      "name": "sumTargetFeesForActiveInvoices",
      "outputs": [
        {
          "internalType": "uint256",
          "name": "targetFees",
          "type": "uint256"
        }
      ],
      "stateMutability": "view",
      "type": "function"
    },
    {
      "inputs": [],
      "name": "symbol",
      "outputs": [
        {
          "internalType": "string",
          "name": "",
          "type": "string"
        }
      ],
      "stateMutability": "view",
      "type": "function"
    },
    {
      "inputs": [],
      "name": "targetYieldBps",
      "outputs": [
        {
          "internalType": "uint16",
          "name": "",
          "type": "uint16"
        }
      ],
      "stateMutability": "view",
      "type": "function"
    },
    {
      "inputs": [],
      "name": "taxBalance",
      "outputs": [
        {
          "internalType": "uint256",
          "name": "",
          "type": "uint256"
        }
      ],
      "stateMutability": "view",
      "type": "function"
    },
    {
      "inputs": [],
      "name": "taxBps",
      "outputs": [
        {
          "internalType": "uint16",
          "name": "",
          "type": "uint16"
        }
      ],
      "stateMutability": "view",
      "type": "function"
    },
    {
      "inputs": [],
      "name": "totalAssets",
      "outputs": [
        {
          "internalType": "uint256",
          "name": "",
          "type": "uint256"
        }
      ],
      "stateMutability": "view",
      "type": "function"
    },
    {
      "inputs": [],
      "name": "totalFundedAmountForActiveInvoices",
      "outputs": [
        {
          "internalType": "uint256",
          "name": "",
          "type": "uint256"
        }
      ],
      "stateMutability": "view",
      "type": "function"
    },
    {
      "inputs": [],
      "name": "totalSupply",
      "outputs": [
        {
          "internalType": "uint256",
          "name": "",
          "type": "uint256"
        }
      ],
      "stateMutability": "view",
      "type": "function"
    },
    {
      "inputs": [
        {
          "internalType": "address",
          "name": "to",
          "type": "address"
        },
        {
          "internalType": "uint256",
          "name": "value",
          "type": "uint256"
        }
      ],
      "name": "transfer",
      "outputs": [
        {
          "internalType": "bool",
          "name": "",
          "type": "bool"
        }
      ],
      "stateMutability": "nonpayable",
      "type": "function"
    },
    {
      "inputs": [
        {
          "internalType": "address",
          "name": "from",
          "type": "address"
        },
        {
          "internalType": "address",
          "name": "to",
          "type": "address"
        },
        {
          "internalType": "uint256",
          "name": "value",
          "type": "uint256"
        }
      ],
      "name": "transferFrom",
      "outputs": [
        {
          "internalType": "bool",
          "name": "",
          "type": "bool"
        }
      ],
      "stateMutability": "nonpayable",
      "type": "function"
    },
    {
      "inputs": [
        {
          "internalType": "address",
          "name": "newOwner",
          "type": "address"
        }
      ],
      "name": "transferOwnership",
      "outputs": [],
      "stateMutability": "nonpayable",
      "type": "function"
    },
    {
      "inputs": [],
      "name": "underwriter",
      "outputs": [
        {
          "internalType": "address",
          "name": "",
          "type": "address"
        }
      ],
      "stateMutability": "view",
      "type": "function"
    },
    {
      "inputs": [
        {
          "internalType": "uint256",
          "name": "invoiceId",
          "type": "uint256"
        }
      ],
      "name": "unfactorInvoice",
      "outputs": [],
      "stateMutability": "nonpayable",
      "type": "function"
    },
    {
      "inputs": [],
      "name": "viewPoolStatus",
      "outputs": [
        {
          "internalType": "uint256[]",
          "name": "paidInvoices",
          "type": "uint256[]"
        },
        {
          "internalType": "uint256[]",
          "name": "impairedInvoices",
          "type": "uint256[]"
        }
      ],
      "stateMutability": "view",
      "type": "function"
    },
    {
      "inputs": [
        {
          "internalType": "uint256",
          "name": "",
          "type": "uint256"
        },
        {
          "internalType": "address",
          "name": "",
          "type": "address"
        },
        {
          "internalType": "address",
          "name": "",
          "type": "address"
        }
      ],
      "name": "withdraw",
      "outputs": [
        {
          "internalType": "uint256",
          "name": "",
          "type": "uint256"
        }
      ],
      "stateMutability": "pure",
      "type": "function"
    },
    {
      "inputs": [],
      "name": "withdrawAdminFees",
      "outputs": [],
      "stateMutability": "nonpayable",
      "type": "function"
    },
    {
      "inputs": [],
      "name": "withdrawProtocolFees",
      "outputs": [],
      "stateMutability": "nonpayable",
      "type": "function"
    },
    {
      "inputs": [],
      "name": "withdrawTaxBalance",
      "outputs": [],
      "stateMutability": "nonpayable",
      "type": "function"
    }
  ],
  "transactionHash": "0xa8ac5b2874f25877234fe79585864a8b4c0e15eeb664779ef540dac8268e01df",
  "args": [
    "0x94a9D9AC8a22534E3FaCa9F4e7F2E2cf85d5E4C8",
    "0x15ef2BD80BE2247C9007A35c761Ea9aDBe1063C5",
    "0x5d72984B2e1170EAA0DA4BC22B25C87729C5EBB3",
    "0xB39bF6Fcd9bd97F7616FAD7b6118Fc2E911eA1d8",
    "0x996e2beFD170CeB741b0072AE97E524Bdf410E9e",
    "0x89e03e7980c92fd81ed3a9b72f5c73fdf57e5e6d",
    25,
    50,
    "Bulla TCS Factoring Pool Sepolia v0.3",
    10,
    730,
    "Bulla TCS Factoring Pool",
    "BFT-TCS"
  ],
  "numDeployments": 12,
  "solcInputHash": "5c96468eec9281fe7f3aaf7b05e6b7b9",
  "bytecode": "0x60c080604052346200084a57620050ad80380380916200002082856200084e565b83398101906101a0818303126200084a5780516001600160a01b03811681036200084a5760208201516001600160a01b03811681036200084a57620000686040840162000872565b620000766060850162000872565b91620000856080860162000872565b6200009360a0870162000872565b93620000a260c0880162000887565b93620000b160e0890162000887565b6101008901519094906001600160401b0381116200084a578a620000d7918b01620008b3565b97620000e76101208b0162000887565b9a620000f76101408c0162000887565b6101608c0151909b906001600160401b0381116200084a57826200011d918301620008b3565b6101808201519092906001600160401b0381116200084a57620001419201620008b3565b815190916001600160401b038211620005485760035490600182811c921680156200083f575b6020831014620005295781601f849311620007cf575b50602090601f831160011462000742575f9262000736575b50508160011b915f199060031b1c1916176003555b8051906001600160401b038211620005485760045490600182811c921680156200072b575b6020831014620005295781601f849311620006bb575b50602090601f83116001146200062e575f9262000622575b50508160011b915f199060031b1c1916176004555b6200021d816200091b565b901562000619575b60a052806080523315620006015760058054336001600160a01b03198216811790925560405191906001600160a01b03167f8be0079c531659141344cd1fd0a4f28419497f9722a3daafe3b4186f6b6457e05f80a3603c601555610e10601b5561ffff88168015908115620005f4575b50620005e5575061ffff86168015908115620005d8575b50620005c657600980546001600160a01b0319166001600160a01b03909216918217905560405163313ce56760e01b815290602090829060049082905afa908115620005bb575f9162000570575b5060ff16604d81116200055c57600a90810a60145580546001600160a01b03199081166001600160a01b0393841617909155600d80548216938316939093179092556016805483169382169390931790925560178054909116928216929092179091556006805460a09490941b61ffff60a01b166001600160c01b031990941694909116939093179190911760b09190911b61ffff60b01b1617905542600e558051906001600160401b0382116200054857601054600181811c911680156200053d575b60208210146200052957601f8111620004d3575b50602090601f8311600114620004575761ffff9392915f91836200044b575b50508160011b915f199060031b1c1916176010555b8180199316836011541617601155169060135416176013556040516146ac9081620009e182396080518181816124a10152818161330101526144c8015260a051815050f35b015190505f80620003f1565b60105f9081525f805160206200508d833981519152929190601f198516905b818110620004ba575091600193918561ffff97969410620004a1575b505050811b0160105562000406565b01515f1960f88460031b161c191690555f808062000492565b9293602060018192878601518155019501930162000476565b60105f525f805160206200508d833981519152601f840160051c810191602085106200051e575b601f0160051c01905b818110620005125750620003d2565b5f815560010162000503565b9091508190620004fa565b634e487b7160e01b5f52602260045260245ffd5b90607f1690620003be565b634e487b7160e01b5f52604160045260245ffd5b634e487b7160e01b5f52601160045260245ffd5b6020813d602011620005b2575b816200058c602093836200084e565b81010312620005ae57519060ff82168203620005ab575060ff620002fa565b80fd5b5080fd5b3d91506200057d565b6040513d5f823e3d90fd5b604051631f3b85d360e01b8152600490fd5b6127109150115f620002ac565b631f3b85d360e01b8152600490fd5b6127109150115f62000295565b604051631e4fbdf760e01b81525f6004820152602490fd5b50601262000225565b015190505f80620001fd565b60045f90815293507f8a35acfbc15ff81a39ae7d344fd709f28e8600b4aa8c65c6b64bfe7fe36bd19b91905b601f19841685106200069f576001945083601f1981161062000686575b505050811b0160045562000212565b01515f1960f88460031b161c191690555f808062000677565b818101518355602094850194600190930192909101906200065a565b60045f529091507f8a35acfbc15ff81a39ae7d344fd709f28e8600b4aa8c65c6b64bfe7fe36bd19b601f840160051c81016020851062000723575b90849392915b601f830160051c8201811062000714575050620001e5565b5f8155859450600101620006fc565b5080620006f6565b91607f1691620001cf565b015190505f8062000195565b60035f90815293507fc2575a0e9e593c00f959f8c92f12db2869c3395a3b0502d05e2516446f71f85b91905b601f1984168510620007b3576001945083601f198116106200079a575b505050811b01600355620001aa565b01515f1960f88460031b161c191690555f80806200078b565b818101518355602094850194600190930192909101906200076e565b60035f529091507fc2575a0e9e593c00f959f8c92f12db2869c3395a3b0502d05e2516446f71f85b601f840160051c81016020851062000837575b90849392915b601f830160051c82018110620008285750506200017d565b5f815585945060010162000810565b50806200080a565b91607f169162000167565b5f80fd5b601f909101601f19168101906001600160401b038211908210176200054857604052565b51906001600160a01b03821682036200084a57565b519061ffff821682036200084a57565b6001600160401b0381116200054857601f01601f191660200190565b919080601f840112156200084a57825190620008cf8262000897565b91620008df60405193846200084e565b8083526020918282870101116200084a575f5b818110620009075750825f9394955001015290565b8581018301518482018401528201620008f2565b6040805163313ce56760e01b60208201908152600482529293929181016001600160401b038111828210176200054857604052515f9384928392916001600160a01b03165afa3d15620009d7573d90620009758262000897565b916200098560405193846200084e565b82523d84602084013e5b80620009ca575b620009a1575b508190565b602081805181010312620009c6576020015160ff81116200099c576001925060ff1690565b8280fd5b5060208151101562000996565b6060906200098f56fe60806040526004361015610011575f80fd5b5f803560e01c806301e1d11414612d775780630419b45a14612c9f57806306fdde0314612ba657806307a2d13a1461232c57806308bb5f7b14612b35578063095ea7b314612a825780630a22d68c14612a645780630a28a477146129f95780630ce6b419146129ab5780631348ed5e1461298d578063173693241461296457806318160ddd146129465780631ba46cfd1461291d5780631be4c4d4146127965780631d6bdb5b1461269a57806320124bce1461267f57806323b872dd146126465780632d896b2a146126285780632f3183e714612587578063313ce567146124f557806335659fb8146124d057806338d52e0f1461248b5780633eacd2f814612469578063402d267d14610eb357806344fcb5cc14612350578063483a9310146123315780634cdad5061461232c5780635056d47514611f3957806356984d9f14611ef5578063591e178814611ec35780635e20bfc814611ea55780636e553f6514611e425780636f31ab3414611e27578063706a3f7d14611de057806370a0823114610ce1578063715018a614611d8357806372c5c14414611d6857806375797cef14611d3f57806376138f5514611a4d5780637ca1087914611a325780637fbc962214611a09578063800120fa1461199b5780638795cccb146118775780638da5cb5b1461184e5780638e73836c14611833578063910398ab1461181857806394bf804d146117eb578063951e4bee146117c157806395d89b41146116b85780639948ff451461168f57806399530b0614611674578063a20d272c14611605578063a31cd6b914611314578063a36e9fe714611211578063a3d1612c146111de578063a85f5714146111b5578063a9059cbb14611183578063aa98e16314611165578063ac27a24f146110dd578063b3311086146110bf578063b3d7f6b91461107c578063b460af9414611058578063b73afe8c14610fee578063ba08765214610f96578063be37b12c14610eff578063c42f18f514610eb8578063c63d75b614610eb3578063c6e6f59214610e89578063ce96cb7714610e50578063cec5a55814610e02578063cf0160f914610d94578063d0f5a9bc14610d1a578063d905777e14610ce1578063dc2dc8ff14610928578063dd0a12bc14610906578063dd62ed3e146108b9578063e300a0f414610880578063e6f0681c1461085b578063e72f0f051461083d578063e9ff17ef14610811578063ec23368414610686578063ef4cadc514610668578063ef8b30f714610609578063efe0707b14610586578063f00db2601461055d578063f2fde38b146104d3578063f3466dfa1461049f5763fa1fc2e9146103e2575f80fd5b3461049c5760c036600319011261049c57600435906103ff612e04565b604435916001600160a01b038316830361049857606036606319011261049c575061042c91839133614392565b604051918252806020830152606435604083015260843560ff811680910361049857606083015260a4359160ff83168093036104985760209260808201527f8b96c40bd23d041868dce7135e6994e68df1b292276db8f707c6c35873c1e20160a03392a2604051908152f35b5f80fd5b80fd5b503461049c578060031936011261049c576104cf6104bb613019565b604051918291602083526020830190612d92565b0390f35b503461049c57602036600319011261049c576104ed612dee565b6104f5613101565b6001600160a01b0390811690811561054457600554826001600160601b0360a01b821617600555167f8be0079c531659141344cd1fd0a4f28419497f9722a3daafe3b4186f6b6457e05f80a380f35b604051631e4fbdf760e01b815260048101849052602490fd5b503461049c578060031936011261049c57600d546040516001600160a01b039091168152602090f35b503461049c57602036600319011261049c576105a0612dee565b6105a8613101565b6001600160a01b031680156105f7578082600654826001600160601b0360a01b82161760065516177f2e7dcd5549bd379d2c481c56fc3dbe7db94761cb60cbbc301f807e31cc4a99448380a380f35b60405163e6c4247b60e01b8152600490fd5b503461049c57602036600319011261049c5760025460018101809111610654576106316132e6565b90600182018092116106545760209161064c91600435613593565b604051908152f35b634e487b7160e01b5f52601160045260245ffd5b503461049c578060031936011261049c576020601454604051908152f35b503461049c578060031936011261049c576101406040516106a681612ea8565b606081528260208201528260408201528260608201528260808201528260a08201528260c08201528260e0820152826101008201528261012082015201526106ec614309565b6106f4614263565b906106fd6138fa565b91610706613a33565b9261070f613a64565b610717614352565b90600e549561ffff60065460b01c1693600f549561ffff6013541697604051996107408b612ea8565b610748613019565b8b5260208b015260408a01526060890152608088015260a087015260c086015260e08501526101008401526101208301526101408201526040518091602082526101406107a382516101606020860152610180850190612d92565b91602081015160408501526040810151606085015260608101516080850152608081015160a085015260a081015160c085015260c081015160e085015260e081015161010085015261ffff610100820151166101208501526101208101518285015201516101608301520390f35b503461049c57602036600319011261049c57602061064c6004355f52601a602052600c60405f20015490565b503461049c578060031936011261049c576020600f54604051908152f35b503461049c578060031936011261049c57602061ffff60065460b01c16604051908152f35b503461049c57602036600319011261049c5760043590601c5482101561049c5760206108ab83612fe4565b90546040519160031b1c8152f35b503461049c57604036600319011261049c576108d3612dee565b60406108dd612e04565b9260018060a01b03809316815260016020522091165f52602052602060405f2054604051908152f35b503461049c578060031936011261049c57602061ffff60135416604051908152f35b503461049c57602080600319360112610cdd576004359061094882614001565b610ccb578183526019815260408320546001600160a01b03908116338103610cb957600f92848652601a81526040862060405161098481612ea8565b60ff8254161515815261099960018301612f03565b8382015260088201546040820152600982015490816060820152600a8301549261ffff8481809616608085015260101c1660a08301526018603c80610a1b600b8501549660c08701978852600c8601549c8d9660e08901978852600d8101549a6101008a019b8c52600e820154166101208a01520154610140880152426136aa565b0404049260018401809411610ca557610a6f93610a629593610a52610a4a610a6795610a5895519051906136aa565b8651906136aa565b50613817565b948186929a613208565b613208565b905190613208565b6009546040516323b872dd60e01b8082526001600160a01b0387166004830152306024830152604482018490529296918590829060649082908e9087165af1908115610c9a578a91610c61575b5015610c235790816004858b94600a541660405192838092631e328b4160e11b82525afa908115610c18578491610bdf575b5016803b15610bdb576040519182523060048301526001600160a01b03861660248301526044820189905282908290606490829084905af18015610bd057610bb4575b5050936019610bae92610b6f7ff1393a0dad2b2c7b857c1f3f0c9f0f03ea447faec793d97041eb5ad4bce81bde97610b688a6141e1565b848a6140ea565b87895252604080882080546001600160a01b031916905580516001600160a01b0390941684526020840194909452928201929092529081906060820190565b0390a280f35b610bc090969296612e94565b610bcc5793865f610b31565b8680fd5b6040513d84823e3d90fd5b8280fd5b90508581813d8311610c11575b610bf68183612ee1565b81010312610c0d57610c0790613613565b5f610aee565b8380fd5b503d610bec565b6040513d86823e3d90fd5b60405162461bcd60e51b81526004810185905260166024820152751499599d5b99081d1c985b9cd9995c8819985a5b195960521b6044820152606490fd5b90508481813d8311610c93575b610c788183612ee1565b81010312610c8f57610c8990613627565b5f610abc565b8980fd5b503d610c6e565b6040513d8c823e3d90fd5b634e487b7160e01b8b52601160045260248bfd5b6040516398c1b40760e01b8152600490fd5b604051631915f32960e11b8152600490fd5b5080fd5b503461049c57602036600319011261049c57602061064c610d00612dee565b6001600160a01b03165f9081526020819052604090205490565b503461049c57602036600319011261049c5761ffff610d37612e50565b610d3f613101565b166127108111610d825780826011548261ffff1982161760115516177fe1a4ea7f5e6e02cfb3b314fa7050128838a1dd7cca9e85e07ffef5aa4568150a8380a380f35b604051631f3b85d360e01b8152600490fd5b503461049c57602036600319011261049c577ff6a412f75fe107fb805f9acb0408b3ac23ff1d0381fc83f6ef4352a8c9727f896020610dd1612dee565b610dd9613101565b601680546001600160a01b0319166001600160a01b03929092169182179055604051908152a180f35b503461049c57602036600319011261049c577f6afefcb7619ccdb73c8fdd4304d507509f1d2327b6f29ff2b9c77a1fa760687d6020600435610e42613101565b80601b55604051908152a180f35b503461049c57602036600319011261049c5760209061064c906040906001600160a01b03610e7c612dee565b1681528084522054613375565b503461049c57602036600319011261049c57602061064c610ea8613a64565b601454600435613593565b612e1a565b503461049c57604036600319011261049c5760a0610edf610ed7612e3f565b600435613c5b565b926040929192519485526020850152604084015260608301526080820152f35b503461049c57602036600319011261049c57610f19612e50565b610f21613101565b61ffff908181169182158015610f8b575b610d82577f2ea630a8e6f6f7590aa81eb8993a1c4a49a0913effd00467ddd761d45867a3ee926040926006549061ffff60a01b9060a01b169061ffff60a01b191617918260065583519260a01c1682526020820152a180f35b506127108311610f32565b503461049c576020610fb4610faa36612f66565b8293929133614392565b9060405190815281838201527ff18a1e0eb1d585d2194cdc081f34e04df407e94de5238f45531482467e31705f60403392a2604051908152f35b503461049c57602036600319011261049c5761ffff61100b612e50565b611013613101565b166127108111610d82576020817f70804697a7389a86ccbf4594ad23c117ecf0a1ffb94ae9516dc15f85ac7c29c89261ffff196013541617601355604051908152a180f35b503461049c5761106736612f66565b50506040516369bd111d60e11b815260049150fd5b503461049c57602036600319011261049c576110966132e6565b600181018091116106545760025490600182018092116106545760209161064c916004356133a3565b503461049c578060031936011261049c576020600e54604051908152f35b503461049c57602036600319011261049c576110f7612e50565b6110ff613101565b61ffff808216918215801561115a575b610d82576006805461ffff60b01b191660b092831b61ffff60b01b161790819055901c167fcc9b1d1e60d76e8755bd2ceaeb3d3ccfe5e5bb556097b7ce618b0a60480ef3e18380a380f35b50612710831161110f565b503461049c578060031936011261049c576020601254604051908152f35b503461049c57604036600319011261049c576111aa6111a0612dee565b602435903361312d565b602060405160018152f35b503461049c578060031936011261049c576017546040516001600160a01b039091168152602090f35b503461049c57602036600319011261049c57602090600435815260198252604060018060a01b0391205416604051908152f35b503461049c57602036600319011261049c576040610220916004358152601a6020522060ff8154169061124660018201612f03565b906008810154600982015490600a83015490600b84015490600c85015492600d8601549461ffff9260c0600f85600e8b015416990154996040519b15158c52805160208d015260018060a01b038c6040826020850151169101528c6060826040850151169101528c6080606084015191015260808201511660a08d015260a0810151828d01520151151560e08b01526101008a015261012089015281811661014089015260101c166101608701526101808601526101a08501526101c08401526101e0830152610200820152f35b503461049c57608036600319011261049c5761132e612e3f565b60443561ffff811681036104985760643561ffff811681036104985761ffff82161580156115f6575b610d8257600d546001600160a01b031633036115e457611379601b5442613208565b600a5460405163484d384560e11b815260048035908201529060e090829060249082906001600160a01b03165afa9384156115d95761ffff94859288916115aa575b506113cc815160a0830151906136aa565b604051916113d983612ea8565b600183526020830152846040830152886060830152838816608083015283831660a08301528860c08301528860e0830152886101008301528386166101208301526101408201526004358852601a602052600f61014060408a209261144d81511515859060ff801983541691151516179055565b6114e160c06020830151805160018801556002870160018060a01b03602083015116906001600160601b0360a01b91828254161790556003880160018060a01b036040840151168282541617905560608201516004890155600588019060018060a01b036080840151169082541617905560a0810151600688015501511515600786019060ff801983541691151516179055565b6040810151600885015560608101516009850155600a840161152e8760808401511691881992838254161781558860a08501511663ffff000082549160101b169063ffff00001916179055565b60c0820151600b86015560e0820151600c860155610100820151600d860155600e8501908761012084015116908254161790550151910155816040519616865216602085015260408401521660608201527f582952bb580f603774d9c537b553a9262ca26cd579550a2812bc91a3fec3198d608060043592a280f35b6115cc915060e03d60e0116115d2575b6115c48183612ee1565b810190613634565b5f6113bb565b503d6115ba565b6040513d88823e3d90fd5b604051632e83528960e01b8152600490fd5b5061271061ffff831611611357565b503461049c57602036600319011261049c576004356001600160a01b03811690819003610cdd5760207f9afcd56845fc7cd28934b2a4732fbdc7fcaea5ccea5f656e9973128f3273d64991611658613101565b600a80546001600160a01b03191682179055604051908152a180f35b503461049c578060031936011261049c57602061064c613a64565b503461049c578060031936011261049c576006546040516001600160a01b039091168152602090f35b503461049c578060031936011261049c5760405160045460018082169180821c915f9184156117b7575b60209485851081146117a3578487528693929186908215611783575050600114611728575b5061171492500383612ee1565b6104cf604051928284938452830190612d92565b84915060045f527f8a35acfbc15ff81a39ae7d344fd709f28e8600b4aa8c65c6b64bfe7fe36bd19b905f915b85831061176b575050611714935082010185611707565b80548389018501528794508693909201918101611754565b60ff19168582015261171495151560051b85010192508791506117079050565b634e487b7160e01b84526022600452602484fd5b92607f16926116e2565b503461049c57602036600319011261049c5760406020916004358152601883522054604051908152f35b503461049c57604036600319011261049c57611805612e04565b506040516369bd111d60e11b8152600490fd5b503461049c578060031936011261049c57602061064c614263565b503461049c578060031936011261049c57602061064c613a33565b503461049c578060031936011261049c576005546040516001600160a01b039091168152602090f35b503461049c578060031936011261049c576006546001600160a01b0390811690338290036119895760075491821561197757600784905560095460405163a9059cbb60e01b81526001600160a01b039290921660048301526024820184905260209082906044908290889087165af1908115610c1857849161193e575b501561192d5760207fa087657e3d85162090ffd700fbfdf5070d816f63aa5da00063f6ffd369c8a6db916006541692604051908152a280f35b604051620b587d60e91b8152600490fd5b90506020813d821161196f575b8161195860209383612ee1565b81010312610c0d5761196990613627565b5f6118f4565b3d915061194b565b604051630d00db4d60e31b8152600490fd5b6040516307c68f0f60e11b8152600490fd5b503461049c57602036600319011261049c577fbc05deec4ecd4d9295d36f7434b1feee89ac308d4040e0133f06bff4635cf70a60206119d8612dee565b6119e0613101565b601780546001600160a01b0319166001600160a01b03929092169182179055604051908152a180f35b503461049c578060031936011261049c57600a546040516001600160a01b039091168152602090f35b503461049c578060031936011261049c57602061064c6142af565b503461049c578060031936011261049c57611a66613ea2565b50815b8151811015611cff578192611a8182611a9694613e8e565b5193611a8c856136b7565b90879692966140ea565b84825260196020908152604083205490946001600160a01b039182169181611bfa575b505050848252601f80855260029160ff83604086200154165f14611be357835b601e80549081831015611bcf5789611af084612f9b565b919054600392831b1c14611b0f57505050611b0a906138b9565b611ad9565b5f9a9298979a999391969594991998898101908111611bbb57611b5c9291611b39611b4492612f9b565b9054911b1c91612f9b565b90919082549060031b91821b915f19901b1916179055565b8454948515611ba757611ba2978a960190611b89611b7983612f9b565b8154905f199060031b1b19169055565b555b845252604082205f81555f600182015501556138b9565b611a69565b634e487b7160e01b5f52603160045260245ffd5b634e487b7160e01b8c52601160045260248cfd5b5050509490839691611ba295949392611b8b565b945050509290611bf5611ba2926141e1565b6138b9565b60095460405163a9059cbb60e01b81526001600160a01b038516600482015260248101849052918891839160449183918a91165af1908115611cf4578591611cbb575b5015611c76577ff0552a3665368b7e77abbd2bbfe72b2615793841acfd3da5b7df5f330cc00eae868892604051908152a35f8080611ab9565b60405162461bcd60e51b815260048101879052601860248201527f4b69636b6261636b207472616e73666572206661696c656400000000000000006044820152606490fd5b90508681813d8311611ced575b611cd28183612ee1565b81010312611ce957611ce390613627565b5f611c3d565b8480fd5b503d611cc8565b6040513d87823e3d90fd5b50611d397f71c060a755cff9c84db9f4be3b4fac0b83f3ffe4e7ff3ebc0be0420d28fb1de091604051918291602083526020830190612e61565b0390a180f35b503461049c57602036600319011261049c57604060209160043581528280522054604051908152f35b503461049c578060031936011261049c57602061064c6138fa565b503461049c578060031936011261049c57611d9c613101565b600580546001600160a01b031981169091555f906001600160a01b03167f8be0079c531659141344cd1fd0a4f28419497f9722a3daafe3b4186f6b6457e08280a380f35b503461049c57602036600319011261049c5760406060916004358152601f6020522080549060ff600260018301549201541690604051928352602083015215156040820152f35b503461049c578060031936011261049c57602061064c614352565b503461049c57604036600319011261049c576020600435611e6b81611e65612e04565b33613a89565b9060405190815281838201527f0b05f0d1cd0819f155b8a61f60baf7767c1ee49d04aeaab701df236140eb93f960403392a2604051908152f35b503461049c578060031936011261049c576020601b54604051908152f35b503461049c57602036600319011261049c576060611ee26004356136b7565b9060405192835260208301526040820152f35b503461049c578060031936011261049c57611f2b6104cf611f14613ea2565b604092919251938493604085526040850190612e61565b908382036020850152612e61565b503461049c57604036600319011261049c57600435611f56612e3f565b60175460405163babcc53960e01b8152336004820152602094929392916001600160a01b03919086908290602490829086165afa90811561221e5783916122f7575b50156122df57828252601a9384865260ff604084205416156122cd5783835284865261ffff80600a60408620015460101c169082169081119081156122c4575b50610d8257838352848652600860408420015442116122b257602460e083600a54166040519283809263484d384560e11b82528960048301525afa908115610c18578491612293575b5060c081015161228157848452858752600660408520015460a08201510361226f57848452858752828781600260408820015416920151160361225d5780600a61206e6120ad9387613c5b565b9a9150508888528a526040872091600b83015588600c830155426009830155600d820155019063ffff000082549160101b169063ffff00001916179055565b60095460405163a9059cbb60e01b81523360048201526024810186905290869082906044908290879087165af1801561221e57612229575b5060048582600a541660405192838092631e328b4160e11b82525afa90811561221e5783916121e9575b5016803b15610cdd576040516323b872dd60e01b8152336004820152306024820152604481018490529082908290606490829084905af18015610bd05790604092916121da575b50828152601985522080546001600160a01b03191633179055601c54600160401b8110156121c65781611b448260016121929401601c55612fe4565b604051908282527f97d46c18045986c4f6dbf2482a3034fe9652263d6b07817879304ef25f5d86da843393a3604051908152f35b634e487b7160e01b5f52604160045260245ffd5b6121e390612e94565b5f612156565b90508581813d8311612217575b6122008183612ee1565b81010312610bdb5761221190613613565b5f61210f565b503d6121f6565b6040513d85823e3d90fd5b8581813d8311612256575b61223e8183612ee1565b81010312610bdb5761224f90613627565b505f6120e5565b503d612234565b60405163f18c77f960e01b8152600490fd5b60405163971ccc7760e01b8152600490fd5b604051637ccc2bd960e11b8152600490fd5b6122ac915060e03d60e0116115d2576115c48183612ee1565b5f612021565b604051634aad99a560e11b8152600490fd5b9050155f611fd8565b60405163649ac74160e11b8152600490fd5b604051637190a79560e11b8152336004820152602490fd5b90508581813d8311612325575b61230e8183612ee1565b81010312610bdb5761231f90613627565b5f611f98565b503d612304565b612dd0565b503461049c57602036600319011261049c57602061064c6004356141c2565b503461049c57602080600319360112610cdd576004359061236f613101565b600f5480831061245757816123c86123888693866136aa565b6009546040516323b872dd60e01b81523360048201523060248201526044810192909252909384926001600160a01b039092169183919082906064820190565b03925af1908115610c18578491612422575b501561241057817f96ef0ad874bac1a0f28dd6bb42d3cd79816d65910307ac7d95d97bb464cbb94a92600f55604051908152a180f35b6040516312171d8360e31b8152600490fd5b90508181813d8311612450575b6124398183612ee1565b81010312610c0d5761244a90613627565b5f6123da565b503d61242f565b604051631506ed4b60e01b8152600490fd5b503461049c578060031936011261049c57602061ffff60115416604051908152f35b503461049c578060031936011261049c576040517f00000000000000000000000000000000000000000000000000000000000000006001600160a01b03168152602090f35b503461049c578060031936011261049c57602061ffff60065460a01c16604051908152f35b503461049c578060031936011261049c5760095460405163313ce56760e01b815290602090829060049082906001600160a01b03165afa908115610bd0578291612548575b60208260ff60405191168152f35b90506020813d821161257f575b8161256260209383612ee1565b81010312610cdd575160ff81168103610cdd57602091505f61253a565b3d9150612555565b503461049c5760a036600319011261049c576004356125a4612e04565b6060366043190112610bdb57816125bb9133613a89565b90604051908152816020820152604435604082015260643560ff8116809103610c0d57606082015260843560ff8116809103610c0d576020935060808201527f393f5b2cbcf0aa47eaec63eb01049e213dc0a29e5bf9b323471be5f5125fc50c60a03392a2604051908152f35b503461049c578060031936011261049c576020600854604051908152f35b503461049c57606036600319011261049c576111aa612663612dee565b61266b612e04565b6044359161267a833383613215565b61312d565b503461049c578060031936011261049c57602061064c614309565b503461049c578060031936011261049c576126b3613101565b601254801561278457601282905560095460405163a9059cbb60e01b815233600482015260248101839052906020908290604490829087906001600160a01b03165af190811561221e57839161274b575b5015612739576040519081527fc1d14d5488f3efbb6db97da278fa305488c34be0b9fb57e21dd6140359c323c160203392a280f35b6040516399088e5360e01b8152600490fd5b90506020813d821161277c575b8161276560209383612ee1565b81010312610bdb5761277690613627565b5f612704565b3d9150612758565b6040516384bdc80f60e01b8152600490fd5b503461049c57602080600319360112610cdd57600435906127b5613101565b600f54801561290b576127c783614066565b156128f957828452601f825260ff6002604086200154166128e757828452601a8252600c604085200154916128008260011c80936136aa565b600f5561280c846141e1565b601e54600160401b8110156128d35784611b4482600161282f9401601e55612f9b565b6040516060810181811067ffffffffffffffff8211176128bf57916128b3604094927ff95dd13343beabbe284b7f97d54b2d4fda5841bab502d60164e8ede601fbe3ac96948652838152600283820186815287830190600182528a8c52601f8652888c209351845551600184015551151591019060ff801983541691151516179055565b8351928352820152a280f35b634e487b7160e01b87526041600452602487fd5b634e487b7160e01b86526041600452602486fd5b604051633235e0c760e21b8152600490fd5b604051632d9bb54f60e11b8152600490fd5b6040516357154c3f60e01b8152600490fd5b503461049c578060031936011261049c576009546040516001600160a01b039091168152602090f35b503461049c578060031936011261049c576020600254604051908152f35b503461049c578060031936011261049c576016546040516001600160a01b039091168152602090f35b503461049c578060031936011261049c576020601554604051908152f35b503461049c57602036600319011261049c577fe595c99430465234d1ec90ffa3458590c544d5349139442d6911452a7b8e82fa60206004356129eb613101565b80601555604051908152a180f35b503461049c57602036600319011261049c5760025460018101809111612a5057612a216132e6565b9160018301809311612a3c57602061064c84846004356133a3565b634e487b7160e01b81526011600452602490fd5b634e487b7160e01b82526011600452602482fd5b503461049c578060031936011261049c576020600754604051908152f35b503461049c57604036600319011261049c57612a9c612dee565b602435903315612b1c576001600160a01b0316918215612b045760408291338152600160205281812085825260205220556040519081527f8c5be1e5ebec7d5bd14f71427d1e84f3dd0314c0f7b2291e5b200ac8c7c3b92560203392a3602060405160018152f35b60249060405190634a1406b160e11b82526004820152fd5b60405163e602df0560e01b815260048101849052602490fd5b503461049c57602036600319011261049c57612b4f612dee565b612b57613101565b6001600160a01b039081169081156105f757600d54826001600160601b0360a01b821617600d55167fae536502f25a82de70abed467008489d54fa0cbf58cdc51718efe6d49406724f8380a380f35b503461049c578060031936011261049c57604051908060035491600183811c92818516948515612c95575b6020958686108114612c8157858852879493929187908215612c5f575050600114612c05575b505061171492500383612ee1565b90859250600382527fc2575a0e9e593c00f959f8c92f12db2869c3395a3b0502d05e2516446f71f85b5b858310612c4757505061171493508201015f80612bf7565b80548389018501528794508693909201918101612c2f565b925093505061171494915060ff191682840152151560051b8201015f80612bf7565b634e487b7160e01b83526022600452602483fd5b93607f1693612bd1565b503461049c578060031936011261049c57612cb8613101565b600854801561197757600882905560095460405163a9059cbb60e01b815233600482015260248101839052906020908290604490829087906001600160a01b03165af190811561221e578391612d3e575b501561192d576040519081527fcdcaff67ac16639664e5f9343c9223a1dc9c972ec367b69ae9fc1325c7be547460203392a280f35b90506020813d8211612d6f575b81612d5860209383612ee1565b81010312610bdb57612d6990613627565b5f612d09565b3d9150612d4b565b503461049c578060031936011261049c57602061064c6132e6565b91908251928382525f5b848110612dbc575050825f602080949584010152601f8019910116010190565b602081830181015184830182015201612d9c565b3461049857602036600319011261049857602061064c600435613375565b600435906001600160a01b038216820361049857565b602435906001600160a01b038216820361049857565b3461049857602036600319011261049857612e33612dee565b5060206040515f198152f35b6024359061ffff8216820361049857565b6004359061ffff8216820361049857565b9081518082526020808093019301915f5b828110612e80575050505090565b835185529381019392810192600101612e72565b67ffffffffffffffff81116121c657604052565b610160810190811067ffffffffffffffff8211176121c657604052565b60e0810190811067ffffffffffffffff8211176121c657604052565b90601f8019910116810190811067ffffffffffffffff8211176121c657604052565b90604051612f1081612ec5565b8254815260018301546001600160a01b039081166020830152600284015481166040830152600384015460608301526004840154166080820152600583015460a082015260069092015460ff16151560c0830152565b606090600319011261049857600435906001600160a01b03906024358281168103610498579160443590811681036104985790565b601e54811015612fd057601e5f527f50bb669a95c7b50b7e8a6f09454034b2b14cf2b85c730dca9a539ca82cb6e35001905f90565b634e487b7160e01b5f52603260045260245ffd5b601c54811015612fd057601c5f527f0e4562a10381dec21b205ed72637e6b1b523bdd0e4d4d50af5cd23dd4500a21101905f90565b604051905f60105490600182811c908084169384156130f7575b60209485841081146130e357838852879493929181156130c35750600114613066575b505061306492500383612ee1565b565b9093915060105f527f1b6847dc741a1b0cd08d278845f9d819d87b734759afb55fe2de5cb82a9ae672935f915b8183106130ab57505061306493508201015f80613056565b85548884018501529485019487945091830191613093565b91505061306494925060ff191682840152151560051b8201015f80613056565b634e487b7160e01b85526022600452602485fd5b91607f1691613033565b6005546001600160a01b0316330361311557565b60405163118cdaa760e01b8152336004820152602490fd5b916001600160a01b038084169283156131f057169283156131d8575f90838252816020526040822054908382106131a6575091604082827fddf252ad1be2c89b69c2b068fc378daa952ba7f163c4a11628f55a4df523b3ef958760209652828652038282205586815220818154019055604051908152a3565b60405163391434e360e21b81526001600160a01b03919091166004820152602481019190915260448101839052606490fd5b60405163ec442f0560e01b81525f6004820152602490fd5b604051634b637e8f60e11b81525f6004820152602490fd5b9190820180921161065457565b9160018060a01b03809316915f9383855260016020526040938486209183169182875260205284862054925f198403613252575b50505050505050565b8484106132b65750801561329e5781156132865785526001602052838520908552602052039120555f808080808080613249565b8451634a1406b160e11b815260048101879052602490fd5b845163e602df0560e01b815260048101879052602490fd5b8551637dc7a0d960e11b81526001600160a01b039190911660048201526024810184905260448101859052606490fd5b6040516370a0823160e01b81523060048201526020816024817f00000000000000000000000000000000000000000000000000000000000000006001600160a01b03165afa90811561336a575f9161333c575090565b906020823d8211613362575b8161335560209383612ee1565b8101031261049c57505190565b3d9150613348565b6040513d5f823e3d90fd5b61337d6132e6565b60018101809111610654576002549060018201809211610654576133a092613593565b90565b91906133b0828285613593565b9282156133cd57096133bf5790565b600181018091116106545790565b634e487b7160e01b5f52601260045260245ffd5b81156133cd570490565b90808202905f19818409908280831092039180831461344b5761016d9203821115613439577f4ff4c73064ff4c73064ff4c73064ff4c73064ff4c73064ff4c73064ff4c73065930990030290565b60405163227bc15360e01b8152600490fd5b50505061016d91500490565b90808202905f19818409908280831092039180830392146134b4576127109082821115613439577fbc01a36e2eb1c432ca57a786c226809d495182a9930be0ded288ce703afb7e91940990828211900360fc1b910360041c170290565b505061271091500490565b90808202905f198184099082808310920391808303921461351d57629896809082821115613439577f5fb648fcc913daa857a27e44a97d3c6bc1193a63a91cc45be5032477ae8d46a5940990828211900360f91b910360071c170290565b50506298968091500490565b90808202905f198184099082808310920391808303921461358757620f42409082821115613439577fde8f6cefed634549b62c77574f722e1ac57e23f24d8fd5cb790fb65668c26139940990828211900360fa1b910360061c170290565b5050620f424091500490565b9091828202915f1984820993838086109503948086039514613606578483111561343957829109815f038216809204600280826003021880830282030280830282030280830282030280830282030280830282030280920290030293600183805f03040190848311900302920304170290565b5050906133a092506133e1565b51906001600160a01b038216820361049857565b5190811515820361049857565b908160e0910312610498576136a260c06040519261365184612ec5565b8051845261366160208201613613565b602085015261367260408201613613565b60408501526060810151606085015261368d60808201613613565b608085015260a081015160a085015201613627565b60c082015290565b9190820391821161065457565b5f908152601a6020526040812091604051916136d283612ea8565b60ff845416151583526136e760018501612f03565b602084015260088401546040840152600984015493846060850152600a8101549361ffff8581809716608084015260101c1660a0820152600b82015460c0820152600c8201549160e08201928352600d810154956101008301968752600f81600e8401541692610120850193845201549761014084019889528042115f146137fc57603c80613778601893426136aa565b040404915b600183018093116137e8576137bf936137ba9899936137ba936137ac9351168082115f146137e0575090613817565b9781998994519051906136aa565b6136aa565b905190818111156137d9576137d492506136aa565b929190565b5050929190565b905090613817565b634e487b7160e01b86526011600452602486fd5b50849161377d565b8181029291811591840414171561065457565b608081015161ffff93926103e891851682810292811591840414171561065457613840916133eb565b928060065460a01c166127100191818311610654576138676138aa926133a0941686613457565b906138998260c061389161388561014086015160e0870151906136aa565b610100860151906136aa565b9301516134bf565b808210156138b15750945b85613593565b80936136aa565b9050946138a4565b5f1981146106545760010190565b9190915f838201938412911290801582169115161761065457565b81810392915f13801582851316918412161761065457565b5f80601d545b8082106139ee575050601e545f5b8181106139bf5750601c545f5b81811061396d5750505f905b80821061393357505090565b90916139616139679161394585612f9b565b90549060031b1c5f52601f602052600160405f200154906138e2565b926138b9565b90613927565b61397681612fe4565b90549060031b1c61398681614066565b61399a575b50613995906138b9565b61391b565b61399591946139b8915f52601a602052600c60405f200154906138e2565b939061398b565b916139616139e9916139d085612f9b565b90549060031b1c5f52601f60205260405f2054906138c7565b61390e565b9091613961613a2d91847f6d4407e7be21f808e6509aa9fa9143369579dd7d760fe20a2c09680fc146134f01545f52601860205260405f2054906138c7565b90613900565b613a52613a3e6138fa565b613a4d600b54600c54906138e2565b6138c7565b5f80821315613a5f575090565b905090565b6002548015613a82576133a090613a79613a33565b60145490613593565b5060145490565b929160018060a01b0380601654169060409586519263babcc53960e01b8452838383169182600483015281602460209788935afa908115613c05575f91613c26575b5015613c0f5750613ada613a33565b60025460095489516323b872dd60e01b81526001600160a01b0394909416600485015230602485015260448401879052919290918590829060649082905f9089165af18015613c0557613bd1575b5080613bac57505082935b16908115613b95577fddf252ad1be2c89b69c2b068fc378daa952ba7f163c4a11628f55a4df523b3ef5f91859697613b70613b8f97600254613208565b60025584845283825280842088815401905551878152a3600b54613208565b600b5590565b855163ec442f0560e01b81525f6004820152602490fd5b613bc6613bcb9260145492613bc18489613804565b613593565b6133e1565b93613b33565b8481813d8311613bfe575b613be68183612ee1565b8101031261049857613bf790613627565b505f613b28565b503d613bdc565b89513d5f823e3d90fd5b602490885190635ebb5e2160e11b82526004820152fd5b908582813d8311613c54575b613c3c8183612ee1565b8101031261049c5750613c4e90613627565b5f613acb565b503d613c32565b600a546040805163484d384560e11b8152600481018490529492909160e090869060249082906001600160a01b03165afa948515613e3a575f95613e1a575b505f52601a602052805f20815190613cb182612ea8565b60ff81541615158252613cc660018201612f03565b602083015260088101548383015260098101546060830152600a81015491608081019361ffff9384811686528460a084019160101c168152600b84015460c0840152600c84015460e0840152600d840154610100840152600f85600e8601541694610120850195865201549261014081019384525115613e09575196841696841687118015613e01575b613df157509082915195613d649087613457565b938260065497818960b01c16613d7991613457565b986060015142613d88916136aa565b603c9004603c900460189004925116908183115f1494613dbe93613db893613dc997613de95750915b51166133eb565b84613457565b9460a01c1684613457565b91613de1613ddb84610a628789613208565b836136aa565b919493929190565b905091613db1565b51631f3b85d360e01b8152600490fd5b508615613d50565b815163649ac74160e11b8152600490fd5b613e3391955060e03d81116115d2576115c48183612ee1565b935f613c9a565b82513d5f823e3d90fd5b67ffffffffffffffff81116121c65760051b60200190565b90613e6682613e44565b613e736040519182612ee1565b8281528092613e84601f1991613e44565b0190602036910137565b8051821015612fd05760209160051b010190565b601c5490601e54613ebb613eb68285613208565b613e5c565b92613ec581613e5c565b5f92839284905b808210613f8e5750505f5b818110613f47575050613ee983613e5c565b92613ef383613e5c565b955f5b828110613f34575050505f5b828110613f10575050509190565b80613f1e613f2f9284613e8e565b51613f298289613e8e565b526138b9565b613f02565b80613f1e613f429284613e8e565b613ef6565b613f5081612f9b565b90549060031b1c613f6081614001565b613f74575b50613f6f906138b9565b613ed7565b85613f8791613f29613f6f94988b613e8e565b9490613f65565b9094613f9986612fe4565b90549060031b1c613fa981614001565b15613fcc5781613fc091613f29613fc6948c613e8e565b956138b9565b90613ecc565b613fd881979297614066565b613fe7575b50613fc6906138b9565b85613ffa91613f29613fc6949888613e8e565b9490613fdd565b600a5460405163484d384560e11b8152600481019290925260e090829060249082906001600160a01b03165afa90811561336a575f91614048575b5060a081519101511490565b614060915060e03d81116115d2576115c48183612ee1565b5f61403c565b600a5460405163484d384560e11b8152600481019290925260e090829060249082906001600160a01b03165afa801561336a576060915f916140cc575b5001516015546201518090818102918183041490151715610654576140c791613208565b421190565b6140e4915060e03d81116115d2576115c48183612ee1565b5f6140a3565b9161414f906141445f93858552601a60205261410f600d604087200154600854613208565b60085561412561411e826141c2565b80926136aa565b8686526018602052604086205560208052806040862055601254613208565b601255600754613208565b600755601d5490600160401b8210156141ae576001820180601d5582101561419a57601d90527f6d4407e7be21f808e6509aa9fa9143369579dd7d760fe20a2c09680fc146134f0155565b634e487b7160e01b81526032600452602490fd5b634e487b7160e01b81526041600452602490fd5b61ffff6103e8816011541602908116908103610654576133a091613529565b5f5b601c80548083101561425d57836141f984612fe4565b919054600392831b1c1461421857505050614213906138b9565b6141e3565b9193505f1992908381019081116106545761424492614239611b4492612fe4565b9054911b1c91612fe4565b81548015611ba757019061425a611b7983612fe4565b55565b50505050565b5f80601c545b80821061427557505090565b90916139616142a9916142a361428a86612fe4565b90549060031b1c5f52601a602052600c60405f20015490565b90613208565b90614269565b5f8080601c54905b8183106142c45750505090565b9091926142fc614302916142d786612fe4565b90549060031b1c8452601a6020526142a360408520600c600b820154910154906136aa565b936138b9565b91906142b7565b6133a061434961434061431a6132e6565b61433a6143316143286142af565b60075490613208565b60085490613208565b906136aa565b600f54906136aa565b601254906136aa565b61435a614309565b614362613a33565b801561438c576143826133a09261437c6014548092613804565b92613804565b9060025490613593565b50505f90565b92909261439d614352565b91828111156143cd57506143bb926143b3614309565b948592614409565b6143c781600c54613208565b600c5590565b9150614404926143b3601454613bc681613bc66143ea8289613804565b6143fb836143f6613a33565b613804565b60025491613593565b6143bb565b6001600160a01b03808416958183169493919281888703614602575b505086156131f0575f87815260209080825260409586822054908482106145d1575083908a83528284520386822055826002540360025580897fddf252ad1be2c89b69c2b068fc378daa952ba7f163c4a11628f55a4df523b3ef848951878152a3855163a9059cbb60e01b8382019081526001600160a01b038616602483015260448083018b90528252909190601f1990829081906144c5606487612ee1565b897f00000000000000000000000000000000000000000000000000000000000000001695519082875af13d156145c4573d67ffffffffffffffff81116145b0579061452d929161451e878c5194601f8401160184612ee1565b82523d848784013e5b84614613565b9081519084821515928361458d575b50505090506145765750845196875286015216927ffbde797d201c681b91056529119e0b02407c7bb96a4a2c75c01fc9667232c8db9190a4565b602490865190635274afe760e01b82526004820152fd5b84809293945001031261049c5750826145a69101613627565b15805f848161453c565b634e487b7160e01b84526041600452602484fd5b61452d9150606090614527565b875163391434e360e21b81526001600160a01b03919091166004820152602481019190915260448101849052606490fd5b61460c9186613215565b5f81614425565b9061463a575080511561462857805190602001fd5b604051630a12f52160e11b8152600490fd5b8151158061466d575b61464b575090565b604051639996b31560e01b81526001600160a01b039091166004820152602490fd5b50803b1561464356fea26469706673582212207e71b3a9102b11ae8d464418ece4ce73919fc5072216b0151c0f9b91582dd94664736f6c634300081400331b6847dc741a1b0cd08d278845f9d819d87b734759afb55fe2de5cb82a9ae672",
  "devdoc": {
    "author": "@solidoracle",
    "errors": {
      "AddressEmptyCode(address)": [
        {
          "details": "There's no code at `target` (it is not a contract)."
        }
      ],
      "AddressInsufficientBalance(address)": [
        {
          "details": "The ETH balance of the account is not enough to perform the operation."
        }
      ],
      "ERC20InsufficientAllowance(address,uint256,uint256)": [
        {
          "details": "Indicates a failure with the `spender`s `allowance`. Used in transfers.",
          "params": {
            "allowance": "Amount of tokens a `spender` is allowed to operate with.",
            "needed": "Minimum amount required to perform a transfer.",
            "spender": "Address that may be allowed to operate on tokens without being their owner."
          }
        }
      ],
      "ERC20InsufficientBalance(address,uint256,uint256)": [
        {
          "details": "Indicates an error related to the current `balance` of a `sender`. Used in transfers.",
          "params": {
            "balance": "Current balance for the interacting account.",
            "needed": "Minimum amount required to perform a transfer.",
            "sender": "Address whose tokens are being transferred."
          }
        }
      ],
      "ERC20InvalidApprover(address)": [
        {
          "details": "Indicates a failure with the `approver` of a token to be approved. Used in approvals.",
          "params": {
            "approver": "Address initiating an approval operation."
          }
        }
      ],
      "ERC20InvalidReceiver(address)": [
        {
          "details": "Indicates a failure with the token `receiver`. Used in transfers.",
          "params": {
            "receiver": "Address to which tokens are being transferred."
          }
        }
      ],
      "ERC20InvalidSender(address)": [
        {
          "details": "Indicates a failure with the token `sender`. Used in transfers.",
          "params": {
            "sender": "Address whose tokens are being transferred."
          }
        }
      ],
      "ERC20InvalidSpender(address)": [
        {
          "details": "Indicates a failure with the `spender` to be approved. Used in approvals.",
          "params": {
            "spender": "Address that may be allowed to operate on tokens without being their owner."
          }
        }
      ],
      "ERC4626ExceededMaxDeposit(address,uint256,uint256)": [
        {
          "details": "Attempted to deposit more assets than the max amount for `receiver`."
        }
      ],
      "ERC4626ExceededMaxMint(address,uint256,uint256)": [
        {
          "details": "Attempted to mint more shares than the max amount for `receiver`."
        }
      ],
      "ERC4626ExceededMaxRedeem(address,uint256,uint256)": [
        {
          "details": "Attempted to redeem more shares than the max amount for `receiver`."
        }
      ],
      "ERC4626ExceededMaxWithdraw(address,uint256,uint256)": [
        {
          "details": "Attempted to withdraw more assets than the max amount for `receiver`."
        }
      ],
      "FailedInnerCall()": [
        {
          "details": "A call to an address target failed. The target may have reverted."
        }
      ],
      "MathOverflowedMulDiv()": [
        {
          "details": "Muldiv operation overflow."
        }
      ],
      "OwnableInvalidOwner(address)": [
        {
          "details": "The owner is not a valid owner account. (eg. `address(0)`)"
        }
      ],
      "OwnableUnauthorizedAccount(address)": [
        {
          "details": "The caller account is not authorized to perform an operation."
        }
      ],
      "SafeERC20FailedOperation(address)": [
        {
          "details": "An operation with an ERC20 token failed."
        }
      ]
    },
    "events": {
      "Approval(address,address,uint256)": {
        "details": "Emitted when the allowance of a `spender` for an `owner` is set by a call to {approve}. `value` is the new allowance."
      },
      "Transfer(address,address,uint256)": {
        "details": "Emitted when `value` tokens are moved from one account (`from`) to another (`to`). Note that `value` may be zero."
      }
    },
    "kind": "dev",
    "methods": {
      "allowance(address,address)": {
        "details": "See {IERC20-allowance}."
      },
      "approve(address,uint256)": {
        "details": "See {IERC20-approve}. NOTE: If `value` is the maximum `uint256`, the allowance is not updated on `transferFrom`. This is semantically equivalent to an infinite approval. Requirements: - `spender` cannot be the zero address."
      },
      "approveInvoice(uint256,uint16,uint16,uint16)": {
        "params": {
          "invoiceId": "The ID of the invoice to approve"
        }
      },
      "asset()": {
        "details": "See {IERC4626-asset}. "
      },
      "availableAssets()": {
        "returns": {
          "_0": "The amount of assets available for withdrawal or new investments, excluding funds allocated to active invoices"
        }
      },
      "balanceOf(address)": {
        "details": "See {IERC20-balanceOf}."
      },
      "calculateCapitalAccount()": {
        "returns": {
          "_0": "The calculated capital account balance"
        }
      },
      "calculateKickbackAmount(uint256)": {
        "params": {
          "invoiceId": "The ID of the invoice for which to calculate the kickback amount"
        },
        "returns": {
          "kickbackAmount": "The calculated kickback amount",
          "trueInterest": "The true interest amount",
          "trueProtocolFee": "The true protocol fee amount"
        }
      },
      "calculateRealizedGainLoss()": {
        "returns": {
          "_0": "The total realized gain adjusted for losses"
        }
      },
      "calculateTargetFees(uint256,uint16)": {
        "params": {
          "factorerUpfrontBps": "The upfront bps specified by the factorer",
          "invoiceId": "The ID of the invoice for which to calculate the fees"
        },
        "returns": {
          "adminFee": "The calculated admin fee",
          "fundedAmountGross": "The gross amount to be funded to the factorer",
          "netFundedAmount": "The net amount that will be funded to the factorer after deducting fees",
          "targetInterest": "The calculated interest fee",
          "targetProtocolFee": "The calculated protocol fee"
        }
      },
      "calculateTax(uint256)": {
        "params": {
          "amount": "The amount of the payment on which tax is to be calculated."
        },
        "returns": {
          "_0": "The calculated tax amount."
        }
      },
      "constructor": {
        "params": {
          "_asset": "underlying supported stablecoin asset for deposit ",
          "_invoiceProviderAdapter": "adapter for invoice provider",
          "_underwriter": "address of the underwriter"
        }
      },
      "convertToAssets(uint256)": {
        "details": "See {IERC4626-convertToAssets}. "
      },
      "convertToShares(uint256)": {
        "params": {
          "assets": "The amount of assets to convert"
        },
        "returns": {
          "_0": "The equivalent amount of shares"
        }
      },
      "decimals()": {
        "returns": {
          "_0": "The number of decimals for this token"
        }
      },
      "deposit(uint256,address)": {
        "params": {
          "assets": "The amount of assets to deposit",
          "receiver": "The address to receive the fund shares"
        },
        "returns": {
          "_0": "The number of shares issued for the deposit"
        }
      },
      "depositWithAttachment(uint256,address,(bytes32,uint8,uint8))": {
        "params": {
          "assets": "The amount of assets to deposit",
          "attachment": "The attachment data for the deposit",
          "receiver": "The address to receive the fund shares"
        },
        "returns": {
          "_0": "The number of shares issued for the deposit"
        }
      },
      "fundInvoice(uint256,uint16)": {
        "params": {
          "factorerUpfrontBps": "factorer specified upfront bps",
          "invoiceId": "The ID of the invoice to fund"
        }
      },
      "maxDeposit(address)": {
        "details": "See {IERC4626-maxDeposit}. "
      },
      "maxMint(address)": {
        "details": "See {IERC4626-maxMint}. "
      },
      "maxRedeem()": {
        "returns": {
          "_0": "The maximum number of shares that can be redeemed"
        }
      },
      "maxRedeem(address)": {
        "details": "See {IERC4626-maxRedeem}. "
      },
      "maxWithdraw(address)": {
        "details": "See {IERC4626-maxWithdraw}. "
      },
      "name()": {
        "details": "Returns the name of the token."
      },
      "owner()": {
        "details": "Returns the address of the current owner."
      },
      "previewDeposit(uint256)": {
        "details": "See {IERC4626-previewDeposit}. "
      },
      "previewMint(uint256)": {
        "details": "See {IERC4626-previewMint}. "
      },
      "previewRedeem(uint256)": {
        "details": "See {IERC4626-previewRedeem}. "
      },
      "previewWithdraw(uint256)": {
        "details": "See {IERC4626-previewWithdraw}. "
      },
      "pricePerShare()": {
        "returns": {
          "_0": "The current price per share"
        }
      },
      "reconcileActivePaidInvoices()": {
        "details": "This function should be called when viewPoolStatus returns some updates, to ensure accurate accounting"
      },
      "redeem(uint256,address,address)": {
        "params": {
          "owner": "The owner of the shares being redeemed",
          "receiver": "The address to receive the redeemed assets",
          "shares": "The number of shares to redeem"
        },
        "returns": {
          "_0": "The amount of assets redeemed"
        }
      },
      "redeemWithAttachment(uint256,address,address,(bytes32,uint8,uint8))": {
        "params": {
          "attachment": "The attachment data for the redemption",
          "owner": "The owner of the shares being redeemed",
          "receiver": "The address to receive the redeemed assets",
          "shares": "The number of shares to redeem"
        },
        "returns": {
          "_0": "The amount of assets redeemed"
        }
      },
      "renounceOwnership()": {
        "details": "Leaves the contract without owner. It will not be possible to call `onlyOwner` functions. Can only be called by the current owner. NOTE: Renouncing ownership will leave the contract without an owner, thereby disabling any functionality that is only available to the owner."
      },
      "setAdminFeeBps(uint16)": {
        "params": {
          "_newAdminFeeBps": "The new admin fee in basis points"
        }
      },
      "setApprovalDuration(uint256)": {
        "details": "This function can only be called by the contract owner",
        "params": {
          "_duration": "The new duration in seconds"
        }
      },
      "setBullaDaoAddress(address)": {
        "params": {
          "_newBullaDao": "The new address for the Bulla DAO"
        }
      },
      "setDepositPermissions(address)": {
        "params": {
          "_newDepositPermissionsAddress": "The new deposit permissions contract address"
        }
      },
      "setFactoringPermissions(address)": {
        "params": {
          "_newFactoringPermissionsAddress": "The address of the new factoring permissions contract"
        }
      },
      "setGracePeriodDays(uint256)": {
        "details": "This function can only be called by the contract owner",
        "params": {
          "_days": "The number of days for the grace period"
        }
      },
      "setImpairReserve(uint256)": {
        "params": {
          "_impairReserve": "The new impair reserve amount"
        }
      },
      "setInvoiceProviderAdapter(address)": {
        "params": {
          "_newInvoiceProviderAdapter": "The address of the new invoice provider adapter"
        }
      },
      "setProtocolFeeBps(uint16)": {
        "params": {
          "_newProtocolFeeBps": "The new protocol fee in basis points"
        }
      },
      "setTargetYield(uint16)": {
        "params": {
          "_targetYieldBps": "The new target yield in basis points"
        }
      },
      "setTaxBps(uint16)": {
        "details": "This function can only be called by the contract owner",
        "params": {
          "_newTaxBps": "The new tax rate in basis points"
        }
      },
      "setUnderwriter(address)": {
        "params": {
          "_newUnderwriter": "The address of the new underwriter"
        }
      },
      "sumTargetFeesForActiveInvoices()": {
        "returns": {
          "targetFees": "The total fees for all active invoices"
        }
      },
      "symbol()": {
        "details": "Returns the symbol of the token, usually a shorter version of the name."
      },
      "totalAssets()": {
        "details": "See {IERC4626-totalAssets}. "
      },
      "totalFundedAmountForActiveInvoices()": {
        "returns": {
          "_0": "The total funded amount for all active invoices"
        }
      },
      "totalSupply()": {
        "details": "See {IERC20-totalSupply}."
      },
      "transfer(address,uint256)": {
        "details": "See {IERC20-transfer}. Requirements: - `to` cannot be the zero address. - the caller must have a balance of at least `value`."
      },
      "transferFrom(address,address,uint256)": {
        "details": "See {IERC20-transferFrom}. Emits an {Approval} event indicating the updated allowance. This is not required by the EIP. See the note at the beginning of {ERC20}. NOTE: Does not update the allowance if the current allowance is the maximum `uint256`. Requirements: - `from` and `to` cannot be the zero address. - `from` must have a balance of at least `value`. - the caller must have allowance for ``from``'s tokens of at least `value`."
      },
      "transferOwnership(address)": {
        "details": "Transfers ownership of the contract to a new account (`newOwner`). Can only be called by the current owner."
      },
      "unfactorInvoice(uint256)": {
        "params": {
          "invoiceId": "The ID of the invoice to unfactor"
        }
      },
      "viewPoolStatus()": {
        "returns": {
          "impairedInvoices": "An array of impaired invoice IDs",
          "paidInvoices": "An array of paid invoice IDs"
        }
      },
      "withdrawTaxBalance()": {
        "details": "This function can only be called by the contract owner"
      }
    },
    "title": "Bulla Factoring Fund",
    "version": 1
  },
  "userdoc": {
    "errors": {
      "CallerNotUnderwriter()": [
        {
          "notice": "Errors"
        }
      ]
    },
    "kind": "user",
    "methods": {
      "activeInvoices(uint256)": {
        "notice": "Array to hold the IDs of all active invoices"
      },
      "approveInvoice(uint256,uint16,uint16,uint16)": {
        "notice": "Approves an invoice for funding, can only be called by the underwriter"
      },
      "availableAssets()": {
        "notice": "Calculates the available assets in the fund net of fees, impair reserve and tax"
      },
      "calculateCapitalAccount()": {
        "notice": "Calculates the capital account balance, including deposits, withdrawals, and realized gains/losses"
      },
      "calculateKickbackAmount(uint256)": {
        "notice": "Calculates the kickback amount for a given funded amount allowing early payment"
      },
      "calculateRealizedGainLoss()": {
        "notice": "Calculates the total realized gain or loss from paid and impaired invoices"
      },
      "calculateTargetFees(uint256,uint16)": {
        "notice": "Calculates the true fees and net funded amount for a given invoice and factorer's upfront bps"
      },
      "calculateTax(uint256)": {
        "notice": "Calculates the tax amount based on a specified payment amount and the current tax basis points (bps)."
      },
      "convertToShares(uint256)": {
        "notice": "Converts an asset amount into shares based on the current price per share"
      },
      "decimals()": {
        "notice": "Returns the number of decimals the token uses, same as the underlying asset"
      },
      "deposit(uint256,address)": {
        "notice": "Allows for the deposit of assets in exchange for fund shares"
      },
      "depositWithAttachment(uint256,address,(bytes32,uint8,uint8))": {
        "notice": "Allows for the deposit of assets in exchange for fund shares with an attachment"
      },
      "fundInvoice(uint256,uint16)": {
        "notice": "Funds a single invoice, transferring the funded amount from the fund to the caller and transferring the invoice NFT to the fund"
      },
      "impairments(uint256)": {
        "notice": "Mapping from invoice ID to impairment details"
      },
      "maxRedeem()": {
        "notice": "Calculates the maximum amount of shares that can be redeemed based on the total assets in the fund"
      },
      "originalCreditors(uint256)": {
        "notice": "Mapping from invoice ID to original creditor's address"
      },
      "paidInvoiceTax(uint256)": {
        "notice": "Mapping from invoice ID to tax amount"
      },
      "paidInvoicesGain(uint256)": {
        "notice": "Mapping of paid invoices ID to track gains/losses"
      },
      "pricePerShare()": {
        "notice": "Calculates the current price per share of the fund"
      },
      "reconcileActivePaidInvoices()": {
        "notice": "Reconciles the list of active invoices with those that have been paid, updating the fund's records"
      },
      "redeem(uint256,address,address)": {
        "notice": "Redeems shares for underlying assets, transferring the assets to the specified receiver"
      },
      "redeemWithAttachment(uint256,address,address,(bytes32,uint8,uint8))": {
        "notice": "Redeems shares for underlying assets with an attachment, transferring the assets to the specified receiver"
      },
      "setAdminFeeBps(uint16)": {
        "notice": "Sets the admin fee in basis points"
      },
      "setApprovalDuration(uint256)": {
        "notice": "Sets the duration for which invoice approvals are valid"
      },
      "setBullaDaoAddress(address)": {
        "notice": "Updates the Bulla DAO address"
      },
      "setDepositPermissions(address)": {
        "notice": "Updates the deposit permissions contract"
      },
      "setFactoringPermissions(address)": {
        "notice": "Updates the factoring permissions contract"
      },
      "setGracePeriodDays(uint256)": {
        "notice": "Sets the grace period in days for determining if an invoice is impaired"
      },
      "setImpairReserve(uint256)": {
        "notice": "Sets the impair reserve amount"
      },
      "setInvoiceProviderAdapter(address)": {
        "notice": "Sets a new invoice provider adapter"
      },
      "setProtocolFeeBps(uint16)": {
        "notice": "Updates the protocol fee in basis points (bps)"
      },
      "setTargetYield(uint16)": {
        "notice": "Sets the target yield in basis points"
      },
      "setTaxBps(uint16)": {
        "notice": "Sets the tax basis points (bps)"
      },
      "setUnderwriter(address)": {
        "notice": "Sets a new underwriter for the contract"
      },
      "sumTargetFeesForActiveInvoices()": {
        "notice": "Sums the target fees for all active invoices"
      },
      "totalFundedAmountForActiveInvoices()": {
        "notice": "Calculates the total funded amount for all active invoices"
      },
      "unfactorInvoice(uint256)": {
        "notice": "Unfactors an invoice, returning the invoice NFT to the original creditor and refunding the funded amount"
      },
      "viewPoolStatus()": {
        "notice": "Provides a view of the pool's status, listing paid and impaired invoices, to be called by Gelato or alike"
      },
      "withdrawAdminFees()": {
        "notice": "Allows the Pool Owner to withdraw accumulated admin fees."
      },
      "withdrawProtocolFees()": {
        "notice": "Allows the Bulla DAO to withdraw accumulated protocol fees."
      },
      "withdrawTaxBalance()": {
        "notice": "Withdraws the accumulated tax balance to the pool owner"
      }
    },
    "version": 1
  },
  "storageLayout": {
    "storage": [
      {
        "astId": 477,
        "contract": "contracts/BullaFactoring.sol:BullaFactoring",
        "label": "_balances",
        "offset": 0,
        "slot": "0",
        "type": "t_mapping(t_address,t_uint256)"
      },
      {
        "astId": 483,
        "contract": "contracts/BullaFactoring.sol:BullaFactoring",
        "label": "_allowances",
        "offset": 0,
        "slot": "1",
        "type": "t_mapping(t_address,t_mapping(t_address,t_uint256))"
      },
      {
        "astId": 485,
        "contract": "contracts/BullaFactoring.sol:BullaFactoring",
        "label": "_totalSupply",
        "offset": 0,
        "slot": "2",
        "type": "t_uint256"
      },
      {
        "astId": 487,
        "contract": "contracts/BullaFactoring.sol:BullaFactoring",
        "label": "_name",
        "offset": 0,
        "slot": "3",
        "type": "t_string_storage"
      },
      {
        "astId": 489,
        "contract": "contracts/BullaFactoring.sol:BullaFactoring",
        "label": "_symbol",
        "offset": 0,
        "slot": "4",
        "type": "t_string_storage"
      },
      {
        "astId": 8,
        "contract": "contracts/BullaFactoring.sol:BullaFactoring",
        "label": "_owner",
        "offset": 0,
        "slot": "5",
        "type": "t_address"
      },
      {
        "astId": 3577,
        "contract": "contracts/BullaFactoring.sol:BullaFactoring",
        "label": "bullaDao",
        "offset": 0,
        "slot": "6",
        "type": "t_address"
      },
      {
        "astId": 3579,
        "contract": "contracts/BullaFactoring.sol:BullaFactoring",
        "label": "protocolFeeBps",
        "offset": 20,
        "slot": "6",
        "type": "t_uint16"
      },
      {
        "astId": 3581,
        "contract": "contracts/BullaFactoring.sol:BullaFactoring",
        "label": "adminFeeBps",
        "offset": 22,
        "slot": "6",
        "type": "t_uint16"
      },
      {
        "astId": 3583,
        "contract": "contracts/BullaFactoring.sol:BullaFactoring",
        "label": "protocolFeeBalance",
        "offset": 0,
        "slot": "7",
        "type": "t_uint256"
      },
      {
        "astId": 3585,
        "contract": "contracts/BullaFactoring.sol:BullaFactoring",
        "label": "adminFeeBalance",
        "offset": 0,
        "slot": "8",
        "type": "t_uint256"
      },
      {
        "astId": 3588,
        "contract": "contracts/BullaFactoring.sol:BullaFactoring",
        "label": "assetAddress",
        "offset": 0,
        "slot": "9",
        "type": "t_contract(IERC20)1047"
      },
      {
        "astId": 3591,
        "contract": "contracts/BullaFactoring.sol:BullaFactoring",
        "label": "invoiceProviderAdapter",
        "offset": 0,
        "slot": "10",
        "type": "t_contract(IInvoiceProviderAdapter)6831"
      },
      {
        "astId": 3593,
        "contract": "contracts/BullaFactoring.sol:BullaFactoring",
        "label": "totalDeposits",
        "offset": 0,
        "slot": "11",
        "type": "t_uint256"
      },
      {
        "astId": 3595,
        "contract": "contracts/BullaFactoring.sol:BullaFactoring",
        "label": "totalWithdrawals",
        "offset": 0,
        "slot": "12",
        "type": "t_uint256"
      },
      {
        "astId": 3597,
        "contract": "contracts/BullaFactoring.sol:BullaFactoring",
        "label": "underwriter",
        "offset": 0,
        "slot": "13",
        "type": "t_address"
      },
      {
        "astId": 3599,
        "contract": "contracts/BullaFactoring.sol:BullaFactoring",
        "label": "creationTimestamp",
        "offset": 0,
        "slot": "14",
        "type": "t_uint256"
      },
      {
        "astId": 3601,
        "contract": "contracts/BullaFactoring.sol:BullaFactoring",
        "label": "impairReserve",
        "offset": 0,
        "slot": "15",
        "type": "t_uint256"
      },
      {
        "astId": 3603,
        "contract": "contracts/BullaFactoring.sol:BullaFactoring",
        "label": "poolName",
        "offset": 0,
        "slot": "16",
        "type": "t_string_storage"
      },
      {
        "astId": 3605,
        "contract": "contracts/BullaFactoring.sol:BullaFactoring",
        "label": "taxBps",
        "offset": 0,
        "slot": "17",
        "type": "t_uint16"
      },
      {
        "astId": 3607,
        "contract": "contracts/BullaFactoring.sol:BullaFactoring",
        "label": "taxBalance",
        "offset": 0,
        "slot": "18",
        "type": "t_uint256"
      },
      {
        "astId": 3609,
        "contract": "contracts/BullaFactoring.sol:BullaFactoring",
        "label": "targetYieldBps",
        "offset": 0,
        "slot": "19",
        "type": "t_uint16"
      },
      {
        "astId": 3611,
        "contract": "contracts/BullaFactoring.sol:BullaFactoring",
        "label": "SCALING_FACTOR",
        "offset": 0,
        "slot": "20",
        "type": "t_uint256"
      },
      {
        "astId": 3614,
        "contract": "contracts/BullaFactoring.sol:BullaFactoring",
        "label": "gracePeriodDays",
        "offset": 0,
        "slot": "21",
        "type": "t_uint256"
      },
      {
        "astId": 3617,
        "contract": "contracts/BullaFactoring.sol:BullaFactoring",
        "label": "depositPermissions",
        "offset": 0,
        "slot": "22",
        "type": "t_contract(Permissions)6505"
      },
      {
        "astId": 3620,
        "contract": "contracts/BullaFactoring.sol:BullaFactoring",
        "label": "factoringPermissions",
        "offset": 0,
        "slot": "23",
        "type": "t_contract(Permissions)6505"
      },
      {
        "astId": 3625,
        "contract": "contracts/BullaFactoring.sol:BullaFactoring",
        "label": "paidInvoicesGain",
        "offset": 0,
        "slot": "24",
        "type": "t_mapping(t_uint256,t_uint256)"
      },
      {
        "astId": 3630,
        "contract": "contracts/BullaFactoring.sol:BullaFactoring",
        "label": "originalCreditors",
        "offset": 0,
        "slot": "25",
        "type": "t_mapping(t_uint256,t_address)"
      },
      {
        "astId": 3635,
        "contract": "contracts/BullaFactoring.sol:BullaFactoring",
        "label": "approvedInvoices",
        "offset": 0,
        "slot": "26",
        "type": "t_mapping(t_uint256,t_struct(InvoiceApproval)6536_storage)"
      },
      {
        "astId": 3638,
        "contract": "contracts/BullaFactoring.sol:BullaFactoring",
        "label": "approvalDuration",
        "offset": 0,
        "slot": "27",
        "type": "t_uint256"
      },
      {
        "astId": 3642,
        "contract": "contracts/BullaFactoring.sol:BullaFactoring",
        "label": "activeInvoices",
        "offset": 0,
        "slot": "28",
        "type": "t_array(t_uint256)dyn_storage"
      },
      {
        "astId": 3646,
        "contract": "contracts/BullaFactoring.sol:BullaFactoring",
        "label": "paidInvoicesIds",
        "offset": 0,
        "slot": "29",
        "type": "t_array(t_uint256)dyn_storage"
      },
      {
        "astId": 3650,
        "contract": "contracts/BullaFactoring.sol:BullaFactoring",
        "label": "impairedByFundInvoicesIds",
        "offset": 0,
        "slot": "30",
        "type": "t_array(t_uint256)dyn_storage"
      },
      {
        "astId": 3656,
        "contract": "contracts/BullaFactoring.sol:BullaFactoring",
        "label": "impairments",
        "offset": 0,
        "slot": "31",
        "type": "t_mapping(t_uint256,t_struct(ImpairmentDetails)6573_storage)"
      },
      {
        "astId": 3661,
        "contract": "contracts/BullaFactoring.sol:BullaFactoring",
        "label": "paidInvoiceTax",
        "offset": 0,
        "slot": "32",
        "type": "t_mapping(t_uint256,t_uint256)"
      }
    ],
    "types": {
      "t_address": {
        "encoding": "inplace",
        "label": "address",
        "numberOfBytes": "20"
      },
      "t_array(t_uint256)dyn_storage": {
        "base": "t_uint256",
        "encoding": "dynamic_array",
        "label": "uint256[]",
        "numberOfBytes": "32"
      },
      "t_bool": {
        "encoding": "inplace",
        "label": "bool",
        "numberOfBytes": "1"
      },
      "t_contract(IERC20)1047": {
        "encoding": "inplace",
        "label": "contract IERC20",
        "numberOfBytes": "20"
      },
      "t_contract(IInvoiceProviderAdapter)6831": {
        "encoding": "inplace",
        "label": "contract IInvoiceProviderAdapter",
        "numberOfBytes": "20"
      },
      "t_contract(Permissions)6505": {
        "encoding": "inplace",
        "label": "contract Permissions",
        "numberOfBytes": "20"
      },
      "t_mapping(t_address,t_mapping(t_address,t_uint256))": {
        "encoding": "mapping",
        "key": "t_address",
        "label": "mapping(address => mapping(address => uint256))",
        "numberOfBytes": "32",
        "value": "t_mapping(t_address,t_uint256)"
      },
      "t_mapping(t_address,t_uint256)": {
        "encoding": "mapping",
        "key": "t_address",
        "label": "mapping(address => uint256)",
        "numberOfBytes": "32",
        "value": "t_uint256"
      },
      "t_mapping(t_uint256,t_address)": {
        "encoding": "mapping",
        "key": "t_uint256",
        "label": "mapping(uint256 => address)",
        "numberOfBytes": "32",
        "value": "t_address"
      },
      "t_mapping(t_uint256,t_struct(ImpairmentDetails)6573_storage)": {
        "encoding": "mapping",
        "key": "t_uint256",
        "label": "mapping(uint256 => struct IBullaFactoring.ImpairmentDetails)",
        "numberOfBytes": "32",
        "value": "t_struct(ImpairmentDetails)6573_storage"
      },
      "t_mapping(t_uint256,t_struct(InvoiceApproval)6536_storage)": {
        "encoding": "mapping",
        "key": "t_uint256",
        "label": "mapping(uint256 => struct IBullaFactoring.InvoiceApproval)",
        "numberOfBytes": "32",
        "value": "t_struct(InvoiceApproval)6536_storage"
      },
      "t_mapping(t_uint256,t_uint256)": {
        "encoding": "mapping",
        "key": "t_uint256",
        "label": "mapping(uint256 => uint256)",
        "numberOfBytes": "32",
        "value": "t_uint256"
      },
      "t_string_storage": {
        "encoding": "bytes",
        "label": "string",
        "numberOfBytes": "32"
      },
      "t_struct(ImpairmentDetails)6573_storage": {
        "encoding": "inplace",
        "label": "struct IBullaFactoring.ImpairmentDetails",
        "members": [
          {
            "astId": 6568,
            "contract": "contracts/BullaFactoring.sol:BullaFactoring",
            "label": "gainAmount",
            "offset": 0,
            "slot": "0",
            "type": "t_uint256"
          },
          {
            "astId": 6570,
            "contract": "contracts/BullaFactoring.sol:BullaFactoring",
            "label": "lossAmount",
            "offset": 0,
            "slot": "1",
            "type": "t_uint256"
          },
          {
            "astId": 6572,
            "contract": "contracts/BullaFactoring.sol:BullaFactoring",
            "label": "isImpaired",
            "offset": 0,
            "slot": "2",
            "type": "t_bool"
          }
        ],
        "numberOfBytes": "96"
      },
      "t_struct(Invoice)6817_storage": {
        "encoding": "inplace",
        "label": "struct IInvoiceProviderAdapter.Invoice",
        "members": [
          {
            "astId": 6804,
            "contract": "contracts/BullaFactoring.sol:BullaFactoring",
            "label": "faceValue",
            "offset": 0,
            "slot": "0",
            "type": "t_uint256"
          },
          {
            "astId": 6806,
            "contract": "contracts/BullaFactoring.sol:BullaFactoring",
            "label": "creditor",
            "offset": 0,
            "slot": "1",
            "type": "t_address"
          },
          {
            "astId": 6808,
            "contract": "contracts/BullaFactoring.sol:BullaFactoring",
            "label": "debtor",
            "offset": 0,
            "slot": "2",
            "type": "t_address"
          },
          {
            "astId": 6810,
            "contract": "contracts/BullaFactoring.sol:BullaFactoring",
            "label": "dueDate",
            "offset": 0,
            "slot": "3",
            "type": "t_uint256"
          },
          {
            "astId": 6812,
            "contract": "contracts/BullaFactoring.sol:BullaFactoring",
            "label": "tokenAddress",
            "offset": 0,
            "slot": "4",
            "type": "t_address"
          },
          {
            "astId": 6814,
            "contract": "contracts/BullaFactoring.sol:BullaFactoring",
            "label": "paidAmount",
            "offset": 0,
            "slot": "5",
            "type": "t_uint256"
          },
          {
            "astId": 6816,
            "contract": "contracts/BullaFactoring.sol:BullaFactoring",
            "label": "isCanceled",
            "offset": 0,
            "slot": "6",
            "type": "t_bool"
          }
        ],
        "numberOfBytes": "224"
      },
      "t_struct(InvoiceApproval)6536_storage": {
        "encoding": "inplace",
        "label": "struct IBullaFactoring.InvoiceApproval",
        "members": [
          {
            "astId": 6514,
            "contract": "contracts/BullaFactoring.sol:BullaFactoring",
            "label": "approved",
            "offset": 0,
            "slot": "0",
            "type": "t_bool"
          },
          {
            "astId": 6517,
            "contract": "contracts/BullaFactoring.sol:BullaFactoring",
            "label": "invoiceSnapshot",
            "offset": 0,
            "slot": "1",
            "type": "t_struct(Invoice)6817_storage"
          },
          {
            "astId": 6519,
            "contract": "contracts/BullaFactoring.sol:BullaFactoring",
            "label": "validUntil",
            "offset": 0,
            "slot": "8",
            "type": "t_uint256"
          },
          {
            "astId": 6521,
            "contract": "contracts/BullaFactoring.sol:BullaFactoring",
            "label": "fundedTimestamp",
            "offset": 0,
            "slot": "9",
            "type": "t_uint256"
          },
          {
            "astId": 6523,
            "contract": "contracts/BullaFactoring.sol:BullaFactoring",
            "label": "interestApr",
            "offset": 0,
            "slot": "10",
            "type": "t_uint16"
          },
          {
            "astId": 6525,
            "contract": "contracts/BullaFactoring.sol:BullaFactoring",
            "label": "upfrontBps",
            "offset": 2,
            "slot": "10",
            "type": "t_uint16"
          },
          {
            "astId": 6527,
            "contract": "contracts/BullaFactoring.sol:BullaFactoring",
            "label": "fundedAmountGross",
            "offset": 0,
            "slot": "11",
            "type": "t_uint256"
          },
          {
            "astId": 6529,
            "contract": "contracts/BullaFactoring.sol:BullaFactoring",
            "label": "fundedAmountNet",
            "offset": 0,
            "slot": "12",
            "type": "t_uint256"
          },
          {
            "astId": 6531,
            "contract": "contracts/BullaFactoring.sol:BullaFactoring",
            "label": "adminFee",
            "offset": 0,
            "slot": "13",
            "type": "t_uint256"
          },
          {
            "astId": 6533,
            "contract": "contracts/BullaFactoring.sol:BullaFactoring",
            "label": "minDaysInterestApplied",
            "offset": 0,
            "slot": "14",
            "type": "t_uint16"
          },
          {
            "astId": 6535,
            "contract": "contracts/BullaFactoring.sol:BullaFactoring",
            "label": "trueFaceValue",
            "offset": 0,
            "slot": "15",
            "type": "t_uint256"
          }
        ],
        "numberOfBytes": "512"
      },
      "t_uint16": {
        "encoding": "inplace",
        "label": "uint16",
        "numberOfBytes": "2"
      },
      "t_uint256": {
        "encoding": "inplace",
        "label": "uint256",
        "numberOfBytes": "32"
      }
    }
  }
}