{
  "address": "0xC1a9F48Db6E873E52848DeA2904d4Eff3c55A8A0",
  "abi": [
    {
      "inputs": [
        {
          "internalType": "contract IERC20",
          "name": "_asset",
          "type": "address"
        },
        {
          "internalType": "contract IInvoiceProviderAdapterV2",
          "name": "_invoiceProviderAdapter",
          "type": "address"
        },
        {
          "internalType": "contract IBullaFrendLend",
          "name": "_bullaFrendLend",
          "type": "address"
        },
        {
          "internalType": "address",
          "name": "_underwriter",
          "type": "address"
        },
        {
          "internalType": "contract Permissions",
          "name": "_depositPermissions",
          "type": "address"
        },
        {
          "internalType": "contract Permissions",
          "name": "_redeemPermissions",
          "type": "address"
        },
        {
          "internalType": "contract Permissions",
          "name": "_factoringPermissions",
          "type": "address"
        },
        {
          "internalType": "address",
          "name": "_bullaDao",
          "type": "address"
        },
        {
          "internalType": "uint16",
          "name": "_protocolFeeBps",
          "type": "uint16"
        },
        {
          "internalType": "uint16",
          "name": "_adminFeeBps",
          "type": "uint16"
        },
        {
          "internalType": "string",
          "name": "_poolName",
          "type": "string"
        },
        {
          "internalType": "uint16",
          "name": "_targetYieldBps",
          "type": "uint16"
        },
        {
          "internalType": "string",
          "name": "_tokenName",
          "type": "string"
        },
        {
          "internalType": "string",
          "name": "_tokenSymbol",
          "type": "string"
        }
      ],
      "stateMutability": "nonpayable",
      "type": "constructor"
    },
    {
      "inputs": [],
      "name": "ApprovalExpired",
      "type": "error"
    },
    {
      "inputs": [],
      "name": "CallerNotBullaDao",
      "type": "error"
    },
    {
      "inputs": [],
      "name": "CallerNotBullaFrendLend",
      "type": "error"
    },
    {
      "inputs": [],
      "name": "CallerNotOriginalCreditor",
      "type": "error"
    },
    {
      "inputs": [],
      "name": "CallerNotUnderwriter",
      "type": "error"
    },
    {
      "inputs": [],
      "name": "DeductionsExceedsRealisedGains",
      "type": "error"
    },
    {
      "inputs": [
        {
          "internalType": "address",
          "name": "spender",
          "type": "address"
        },
        {
          "internalType": "uint256",
          "name": "allowance",
          "type": "uint256"
        },
        {
          "internalType": "uint256",
          "name": "needed",
          "type": "uint256"
        }
      ],
      "name": "ERC20InsufficientAllowance",
      "type": "error"
    },
    {
      "inputs": [
        {
          "internalType": "address",
          "name": "sender",
          "type": "address"
        },
        {
          "internalType": "uint256",
          "name": "balance",
          "type": "uint256"
        },
        {
          "internalType": "uint256",
          "name": "needed",
          "type": "uint256"
        }
      ],
      "name": "ERC20InsufficientBalance",
      "type": "error"
    },
    {
      "inputs": [
        {
          "internalType": "address",
          "name": "approver",
          "type": "address"
        }
      ],
      "name": "ERC20InvalidApprover",
      "type": "error"
    },
    {
      "inputs": [
        {
          "internalType": "address",
          "name": "receiver",
          "type": "address"
        }
      ],
      "name": "ERC20InvalidReceiver",
      "type": "error"
    },
    {
      "inputs": [
        {
          "internalType": "address",
          "name": "sender",
          "type": "address"
        }
      ],
      "name": "ERC20InvalidSender",
      "type": "error"
    },
    {
      "inputs": [
        {
          "internalType": "address",
          "name": "spender",
          "type": "address"
        }
      ],
      "name": "ERC20InvalidSpender",
      "type": "error"
    },
    {
      "inputs": [
        {
          "internalType": "address",
          "name": "receiver",
          "type": "address"
        },
        {
          "internalType": "uint256",
          "name": "assets",
          "type": "uint256"
        },
        {
          "internalType": "uint256",
          "name": "max",
          "type": "uint256"
        }
      ],
      "name": "ERC4626ExceededMaxDeposit",
      "type": "error"
    },
    {
      "inputs": [
        {
          "internalType": "address",
          "name": "receiver",
          "type": "address"
        },
        {
          "internalType": "uint256",
          "name": "shares",
          "type": "uint256"
        },
        {
          "internalType": "uint256",
          "name": "max",
          "type": "uint256"
        }
      ],
      "name": "ERC4626ExceededMaxMint",
      "type": "error"
    },
    {
      "inputs": [
        {
          "internalType": "address",
          "name": "owner",
          "type": "address"
        },
        {
          "internalType": "uint256",
          "name": "shares",
          "type": "uint256"
        },
        {
          "internalType": "uint256",
          "name": "max",
          "type": "uint256"
        }
      ],
      "name": "ERC4626ExceededMaxRedeem",
      "type": "error"
    },
    {
      "inputs": [
        {
          "internalType": "address",
          "name": "owner",
          "type": "address"
        },
        {
          "internalType": "uint256",
          "name": "assets",
          "type": "uint256"
        },
        {
          "internalType": "uint256",
          "name": "max",
          "type": "uint256"
        }
      ],
      "name": "ERC4626ExceededMaxWithdraw",
      "type": "error"
    },
    {
      "inputs": [],
      "name": "FunctionNotSupported",
      "type": "error"
    },
    {
      "inputs": [],
      "name": "ImpairReserveMustBeGreater",
      "type": "error"
    },
    {
      "inputs": [],
      "name": "ImpairReserveNotSet",
      "type": "error"
    },
    {
      "inputs": [
        {
          "internalType": "uint256",
          "name": "available",
          "type": "uint256"
        },
        {
          "internalType": "uint256",
          "name": "required",
          "type": "uint256"
        }
      ],
      "name": "InsufficientFunds",
      "type": "error"
    },
    {
      "inputs": [],
      "name": "InvalidAddress",
      "type": "error"
    },
    {
      "inputs": [],
      "name": "InvalidPercentage",
      "type": "error"
    },
    {
      "inputs": [],
      "name": "InvoiceAlreadyFunded",
      "type": "error"
    },
    {
      "inputs": [],
      "name": "InvoiceAlreadyImpairedByFund",
      "type": "error"
    },
    {
      "inputs": [],
      "name": "InvoiceAlreadyPaid",
      "type": "error"
    },
    {
      "inputs": [],
      "name": "InvoiceCanceled",
      "type": "error"
    },
    {
      "inputs": [],
      "name": "InvoiceCannotBePaid",
      "type": "error"
    },
    {
      "inputs": [],
      "name": "InvoiceCreditorChanged",
      "type": "error"
    },
    {
      "inputs": [],
      "name": "InvoiceNotApproved",
      "type": "error"
    },
    {
      "inputs": [],
      "name": "InvoiceNotImpaired",
      "type": "error"
    },
    {
      "inputs": [],
      "name": "InvoicePaidAmountChanged",
      "type": "error"
    },
    {
      "inputs": [],
      "name": "InvoiceTokenMismatch",
      "type": "error"
    },
    {
      "inputs": [],
      "name": "LoanOfferAlreadyAccepted",
      "type": "error"
    },
    {
      "inputs": [],
      "name": "LoanOfferNotExists",
      "type": "error"
    },
    {
      "inputs": [],
      "name": "NoFeesToWithdraw",
      "type": "error"
    },
    {
      "inputs": [
        {
          "internalType": "address",
          "name": "owner",
          "type": "address"
        }
      ],
      "name": "OwnableInvalidOwner",
      "type": "error"
    },
    {
      "inputs": [
        {
          "internalType": "address",
          "name": "account",
          "type": "address"
        }
      ],
      "name": "OwnableUnauthorizedAccount",
      "type": "error"
    },
    {
      "inputs": [
        {
          "internalType": "address",
          "name": "token",
          "type": "address"
        }
      ],
      "name": "SafeERC20FailedOperation",
      "type": "error"
    },
    {
      "inputs": [
        {
          "internalType": "address",
          "name": "caller",
          "type": "address"
        }
      ],
      "name": "UnauthorizedDeposit",
      "type": "error"
    },
    {
      "inputs": [
        {
          "internalType": "address",
          "name": "caller",
          "type": "address"
        }
      ],
      "name": "UnauthorizedFactoring",
      "type": "error"
    },
    {
      "inputs": [],
      "name": "UnpaidInvoice",
      "type": "error"
    },
    {
      "anonymous": false,
      "inputs": [
        {
          "indexed": false,
          "internalType": "uint256[]",
          "name": "paidInvoiceIds",
          "type": "uint256[]"
        }
      ],
      "name": "ActivePaidInvoicesReconciled",
      "type": "event"
    },
    {
      "anonymous": false,
      "inputs": [
        {
          "indexed": true,
          "internalType": "uint16",
          "name": "oldFeeBps",
          "type": "uint16"
        },
        {
          "indexed": true,
          "internalType": "uint16",
          "name": "newFeeBps",
          "type": "uint16"
        }
      ],
      "name": "AdminFeeBpsChanged",
      "type": "event"
    },
    {
      "anonymous": false,
      "inputs": [
        {
          "indexed": true,
          "internalType": "address",
          "name": "bullaDao",
          "type": "address"
        },
        {
          "indexed": false,
          "internalType": "uint256",
          "name": "amount",
          "type": "uint256"
        }
      ],
      "name": "AdminFeesWithdrawn",
      "type": "event"
    },
    {
      "anonymous": false,
      "inputs": [
        {
          "indexed": true,
          "internalType": "address",
          "name": "owner",
          "type": "address"
        },
        {
          "indexed": true,
          "internalType": "address",
          "name": "spender",
          "type": "address"
        },
        {
          "indexed": false,
          "internalType": "uint256",
          "name": "value",
          "type": "uint256"
        }
      ],
      "name": "Approval",
      "type": "event"
    },
    {
      "anonymous": false,
      "inputs": [
        {
          "indexed": false,
          "internalType": "uint256",
          "name": "newDuration",
          "type": "uint256"
        }
      ],
      "name": "ApprovalDurationChanged",
      "type": "event"
    },
    {
      "anonymous": false,
      "inputs": [
        {
          "indexed": true,
          "internalType": "address",
          "name": "oldAddress",
          "type": "address"
        },
        {
          "indexed": true,
          "internalType": "address",
          "name": "newAddress",
          "type": "address"
        }
      ],
      "name": "BullaDaoAddressChanged",
      "type": "event"
    },
    {
      "anonymous": false,
      "inputs": [
        {
          "indexed": true,
          "internalType": "address",
          "name": "sender",
          "type": "address"
        },
        {
          "indexed": true,
          "internalType": "address",
          "name": "owner",
          "type": "address"
        },
        {
          "indexed": false,
          "internalType": "uint256",
          "name": "assets",
          "type": "uint256"
        },
        {
          "indexed": false,
          "internalType": "uint256",
          "name": "shares",
          "type": "uint256"
        }
      ],
      "name": "Deposit",
      "type": "event"
    },
    {
      "anonymous": false,
      "inputs": [
        {
          "indexed": true,
          "internalType": "address",
          "name": "depositor",
          "type": "address"
        },
        {
          "indexed": false,
          "internalType": "uint256",
          "name": "assets",
          "type": "uint256"
        },
        {
          "indexed": false,
          "internalType": "uint256",
          "name": "shares",
          "type": "uint256"
        },
        {
          "components": [
            {
              "internalType": "bytes32",
              "name": "hash",
              "type": "bytes32"
            },
            {
              "internalType": "uint8",
              "name": "hashFunction",
              "type": "uint8"
            },
            {
              "internalType": "uint8",
              "name": "size",
              "type": "uint8"
            }
          ],
          "indexed": false,
          "internalType": "struct IBullaFactoringV2.Multihash",
          "name": "attachment",
          "type": "tuple"
        }
      ],
      "name": "DepositMadeWithAttachment",
      "type": "event"
    },
    {
      "anonymous": false,
      "inputs": [
        {
          "indexed": false,
          "internalType": "address",
          "name": "newAddress",
          "type": "address"
        }
      ],
      "name": "DepositPermissionsChanged",
      "type": "event"
    },
    {
      "anonymous": false,
      "inputs": [
        {
          "indexed": false,
          "internalType": "address",
          "name": "newAddress",
          "type": "address"
        }
      ],
      "name": "FactoringPermissionsChanged",
      "type": "event"
    },
    {
      "anonymous": false,
      "inputs": [
        {
          "indexed": false,
          "internalType": "uint256",
          "name": "newGracePeriodDays",
          "type": "uint256"
        }
      ],
      "name": "GracePeriodDaysChanged",
      "type": "event"
    },
    {
      "anonymous": false,
      "inputs": [
        {
          "indexed": false,
          "internalType": "uint256",
          "name": "newImpairReserve",
          "type": "uint256"
        }
      ],
      "name": "ImpairReserveChanged",
      "type": "event"
    },
    {
      "anonymous": false,
      "inputs": [
        {
          "indexed": true,
          "internalType": "uint256",
          "name": "invoiceId",
          "type": "uint256"
        },
        {
          "indexed": false,
          "internalType": "uint256",
          "name": "validUntil",
          "type": "uint256"
        },
        {
          "components": [
            {
              "internalType": "uint16",
              "name": "targetYieldBps",
              "type": "uint16"
            },
            {
              "internalType": "uint16",
              "name": "spreadBps",
              "type": "uint16"
            },
            {
              "internalType": "uint16",
              "name": "upfrontBps",
              "type": "uint16"
            },
            {
              "internalType": "uint16",
              "name": "protocolFeeBps",
              "type": "uint16"
            },
            {
              "internalType": "uint16",
              "name": "adminFeeBps",
              "type": "uint16"
            },
            {
              "internalType": "uint16",
              "name": "minDaysInterestApplied",
              "type": "uint16"
            }
          ],
          "indexed": false,
          "internalType": "struct IBullaFactoringV2.FeeParams",
          "name": "feeParams",
          "type": "tuple"
        }
      ],
      "name": "InvoiceApproved",
      "type": "event"
    },
    {
      "anonymous": false,
      "inputs": [
        {
          "indexed": true,
          "internalType": "uint256",
          "name": "invoiceId",
          "type": "uint256"
        },
        {
          "indexed": false,
          "internalType": "uint256",
          "name": "fundedAmount",
          "type": "uint256"
        },
        {
          "indexed": true,
          "internalType": "address",
          "name": "originalCreditor",
          "type": "address"
        },
        {
          "indexed": false,
          "internalType": "uint256",
          "name": "dueDate",
          "type": "uint256"
        },
        {
          "indexed": false,
          "internalType": "uint16",
          "name": "upfrontBps",
          "type": "uint16"
        }
      ],
      "name": "InvoiceFunded",
      "type": "event"
    },
    {
      "anonymous": false,
      "inputs": [
        {
          "indexed": true,
          "internalType": "uint256",
          "name": "invoiceId",
          "type": "uint256"
        },
        {
          "indexed": false,
          "internalType": "uint256",
          "name": "lossAmount",
          "type": "uint256"
        },
        {
          "indexed": false,
          "internalType": "uint256",
          "name": "gainAmount",
          "type": "uint256"
        }
      ],
      "name": "InvoiceImpaired",
      "type": "event"
    },
    {
      "anonymous": false,
      "inputs": [
        {
          "indexed": true,
          "internalType": "uint256",
          "name": "invoiceId",
          "type": "uint256"
        },
        {
          "indexed": false,
          "internalType": "uint256",
          "name": "kickbackAmount",
          "type": "uint256"
        },
        {
          "indexed": true,
          "internalType": "address",
          "name": "originalCreditor",
          "type": "address"
        }
      ],
      "name": "InvoiceKickbackAmountSent",
      "type": "event"
    },
    {
      "anonymous": false,
      "inputs": [
        {
          "indexed": true,
          "internalType": "uint256",
          "name": "invoiceId",
          "type": "uint256"
        },
        {
          "indexed": false,
          "internalType": "uint256",
          "name": "trueInterest",
          "type": "uint256"
        },
        {
          "indexed": false,
          "internalType": "uint256",
          "name": "trueSpreadAmount",
          "type": "uint256"
        },
        {
          "indexed": false,
          "internalType": "uint256",
          "name": "trueProtocolFee",
          "type": "uint256"
        },
        {
          "indexed": false,
          "internalType": "uint256",
          "name": "trueAdminFee",
          "type": "uint256"
        },
        {
          "indexed": false,
          "internalType": "uint256",
          "name": "fundedAmountNet",
          "type": "uint256"
        },
        {
          "indexed": false,
          "internalType": "uint256",
          "name": "kickbackAmount",
          "type": "uint256"
        },
        {
          "indexed": true,
          "internalType": "address",
          "name": "originalCreditor",
          "type": "address"
        }
      ],
      "name": "InvoicePaid",
      "type": "event"
    },
    {
      "anonymous": false,
      "inputs": [
        {
          "indexed": true,
          "internalType": "uint256",
          "name": "invoiceId",
          "type": "uint256"
        },
        {
          "indexed": false,
          "internalType": "address",
          "name": "originalCreditor",
          "type": "address"
        },
        {
          "indexed": false,
          "internalType": "int256",
          "name": "totalRefundOrPaymentAmount",
          "type": "int256"
        },
        {
          "indexed": false,
          "internalType": "uint256",
          "name": "interestToCharge",
          "type": "uint256"
        },
        {
          "indexed": false,
          "internalType": "uint256",
          "name": "spreadAmount",
          "type": "uint256"
        },
        {
          "indexed": false,
          "internalType": "uint256",
          "name": "protocolFee",
          "type": "uint256"
        },
        {
          "indexed": false,
          "internalType": "uint256",
          "name": "adminFee",
          "type": "uint256"
        }
      ],
      "name": "InvoiceUnfactored",
      "type": "event"
    },
    {
      "anonymous": false,
      "inputs": [
        {
          "indexed": true,
          "internalType": "address",
          "name": "previousOwner",
          "type": "address"
        },
        {
          "indexed": true,
          "internalType": "address",
          "name": "newOwner",
          "type": "address"
        }
      ],
      "name": "OwnershipTransferred",
      "type": "event"
    },
    {
      "anonymous": false,
      "inputs": [
        {
          "indexed": false,
          "internalType": "uint16",
          "name": "oldProtocolFeeBps",
          "type": "uint16"
        },
        {
          "indexed": false,
          "internalType": "uint16",
          "name": "newProtocolFeeBps",
          "type": "uint16"
        }
      ],
      "name": "ProtocolFeeBpsChanged",
      "type": "event"
    },
    {
      "anonymous": false,
      "inputs": [
        {
          "indexed": true,
          "internalType": "address",
          "name": "bullaDao",
          "type": "address"
        },
        {
          "indexed": false,
          "internalType": "uint256",
          "name": "amount",
          "type": "uint256"
        }
      ],
      "name": "ProtocolFeesWithdrawn",
      "type": "event"
    },
    {
      "anonymous": false,
      "inputs": [
        {
          "indexed": false,
          "internalType": "address",
          "name": "newAddress",
          "type": "address"
        }
      ],
      "name": "RedeemPermissionsChanged",
      "type": "event"
    },
    {
      "anonymous": false,
      "inputs": [
        {
          "indexed": true,
          "internalType": "address",
          "name": "redeemer",
          "type": "address"
        },
        {
          "indexed": false,
          "internalType": "uint256",
          "name": "shares",
          "type": "uint256"
        },
        {
          "indexed": false,
          "internalType": "uint256",
          "name": "assets",
          "type": "uint256"
        },
        {
          "components": [
            {
              "internalType": "bytes32",
              "name": "hash",
              "type": "bytes32"
            },
            {
              "internalType": "uint8",
              "name": "hashFunction",
              "type": "uint8"
            },
            {
              "internalType": "uint8",
              "name": "size",
              "type": "uint8"
            }
          ],
          "indexed": false,
          "internalType": "struct IBullaFactoringV2.Multihash",
          "name": "attachment",
          "type": "tuple"
        }
      ],
      "name": "SharesRedeemedWithAttachment",
      "type": "event"
    },
    {
      "anonymous": false,
      "inputs": [
        {
          "indexed": true,
          "internalType": "address",
          "name": "owner",
          "type": "address"
        },
        {
          "indexed": false,
          "internalType": "uint256",
          "name": "amount",
          "type": "uint256"
        }
      ],
      "name": "SpreadGainsWithdrawn",
      "type": "event"
    },
    {
      "anonymous": false,
      "inputs": [
        {
          "indexed": false,
          "internalType": "uint16",
          "name": "newTargetYield",
          "type": "uint16"
        }
      ],
      "name": "TargetYieldChanged",
      "type": "event"
    },
    {
      "anonymous": false,
      "inputs": [
        {
          "indexed": true,
          "internalType": "address",
          "name": "from",
          "type": "address"
        },
        {
          "indexed": true,
          "internalType": "address",
          "name": "to",
          "type": "address"
        },
        {
          "indexed": false,
          "internalType": "uint256",
          "name": "value",
          "type": "uint256"
        }
      ],
      "name": "Transfer",
      "type": "event"
    },
    {
      "anonymous": false,
      "inputs": [
        {
          "indexed": true,
          "internalType": "address",
          "name": "oldUnderwriter",
          "type": "address"
        },
        {
          "indexed": true,
          "internalType": "address",
          "name": "newUnderwriter",
          "type": "address"
        }
      ],
      "name": "UnderwriterChanged",
      "type": "event"
    },
    {
      "anonymous": false,
      "inputs": [
        {
          "indexed": true,
          "internalType": "address",
          "name": "sender",
          "type": "address"
        },
        {
          "indexed": true,
          "internalType": "address",
          "name": "receiver",
          "type": "address"
        },
        {
          "indexed": true,
          "internalType": "address",
          "name": "owner",
          "type": "address"
        },
        {
          "indexed": false,
          "internalType": "uint256",
          "name": "assets",
          "type": "uint256"
        },
        {
          "indexed": false,
          "internalType": "uint256",
          "name": "shares",
          "type": "uint256"
        }
      ],
      "name": "Withdraw",
      "type": "event"
    },
    {
      "inputs": [
        {
          "internalType": "uint256",
          "name": "",
          "type": "uint256"
        }
      ],
      "name": "activeInvoices",
      "outputs": [
        {
          "internalType": "uint256",
          "name": "",
          "type": "uint256"
        }
      ],
      "stateMutability": "view",
      "type": "function"
    },
    {
      "inputs": [],
      "name": "adminFeeBalance",
      "outputs": [
        {
          "internalType": "uint256",
          "name": "",
          "type": "uint256"
        }
      ],
      "stateMutability": "view",
      "type": "function"
    },
    {
      "inputs": [],
      "name": "adminFeeBps",
      "outputs": [
        {
          "internalType": "uint16",
          "name": "",
          "type": "uint16"
        }
      ],
      "stateMutability": "view",
      "type": "function"
    },
    {
      "inputs": [
        {
          "internalType": "address",
          "name": "owner",
          "type": "address"
        },
        {
          "internalType": "address",
          "name": "spender",
          "type": "address"
        }
      ],
      "name": "allowance",
      "outputs": [
        {
          "internalType": "uint256",
          "name": "",
          "type": "uint256"
        }
      ],
      "stateMutability": "view",
      "type": "function"
    },
    {
      "inputs": [],
      "name": "approvalDuration",
      "outputs": [
        {
          "internalType": "uint256",
          "name": "",
          "type": "uint256"
        }
      ],
      "stateMutability": "view",
      "type": "function"
    },
    {
      "inputs": [
        {
          "internalType": "address",
          "name": "spender",
          "type": "address"
        },
        {
          "internalType": "uint256",
          "name": "value",
          "type": "uint256"
        }
      ],
      "name": "approve",
      "outputs": [
        {
          "internalType": "bool",
          "name": "",
          "type": "bool"
        }
      ],
      "stateMutability": "nonpayable",
      "type": "function"
    },
    {
      "inputs": [
        {
          "internalType": "uint256",
          "name": "invoiceId",
          "type": "uint256"
        },
        {
          "internalType": "uint16",
          "name": "_targetYieldBps",
          "type": "uint16"
        },
        {
          "internalType": "uint16",
          "name": "_spreadBps",
          "type": "uint16"
        },
        {
          "internalType": "uint16",
          "name": "_upfrontBps",
          "type": "uint16"
        },
        {
          "internalType": "uint16",
          "name": "minDaysInterestApplied",
          "type": "uint16"
        }
      ],
      "name": "approveInvoice",
      "outputs": [],
      "stateMutability": "nonpayable",
      "type": "function"
    },
    {
      "inputs": [
        {
          "internalType": "uint256",
          "name": "",
          "type": "uint256"
        }
      ],
      "name": "approvedInvoices",
      "outputs": [
        {
          "internalType": "bool",
          "name": "approved",
          "type": "bool"
        },
        {
          "internalType": "address",
          "name": "creditor",
          "type": "address"
        },
        {
          "internalType": "uint256",
          "name": "validUntil",
          "type": "uint256"
        },
        {
          "internalType": "uint256",
          "name": "invoiceDueDate",
          "type": "uint256"
        },
        {
          "internalType": "uint256",
          "name": "fundedTimestamp",
          "type": "uint256"
        },
        {
          "components": [
            {
              "internalType": "uint16",
              "name": "targetYieldBps",
              "type": "uint16"
            },
            {
              "internalType": "uint16",
              "name": "spreadBps",
              "type": "uint16"
            },
            {
              "internalType": "uint16",
              "name": "upfrontBps",
              "type": "uint16"
            },
            {
              "internalType": "uint16",
              "name": "protocolFeeBps",
              "type": "uint16"
            },
            {
              "internalType": "uint16",
              "name": "adminFeeBps",
              "type": "uint16"
            },
            {
              "internalType": "uint16",
              "name": "minDaysInterestApplied",
              "type": "uint16"
            }
          ],
          "internalType": "struct IBullaFactoringV2.FeeParams",
          "name": "feeParams",
          "type": "tuple"
        },
        {
          "internalType": "uint256",
          "name": "fundedAmountGross",
          "type": "uint256"
        },
        {
          "internalType": "uint256",
          "name": "fundedAmountNet",
          "type": "uint256"
        },
        {
          "internalType": "uint256",
          "name": "initialFullInvoiceAmount",
          "type": "uint256"
        },
        {
          "internalType": "uint256",
          "name": "initialPaidAmount",
          "type": "uint256"
        },
        {
          "internalType": "address",
          "name": "receiverAddress",
          "type": "address"
        }
      ],
      "stateMutability": "view",
      "type": "function"
    },
    {
      "inputs": [],
      "name": "asset",
      "outputs": [
        {
          "internalType": "address",
          "name": "",
          "type": "address"
        }
      ],
      "stateMutability": "view",
      "type": "function"
    },
    {
      "inputs": [],
      "name": "assetAddress",
      "outputs": [
        {
          "internalType": "contract IERC20",
          "name": "",
          "type": "address"
        }
      ],
      "stateMutability": "view",
      "type": "function"
    },
    {
      "inputs": [
        {
          "internalType": "address",
          "name": "account",
          "type": "address"
        }
      ],
      "name": "balanceOf",
      "outputs": [
        {
          "internalType": "uint256",
          "name": "",
          "type": "uint256"
        }
      ],
      "stateMutability": "view",
      "type": "function"
    },
    {
      "inputs": [],
      "name": "bullaDao",
      "outputs": [
        {
          "internalType": "address",
          "name": "",
          "type": "address"
        }
      ],
      "stateMutability": "view",
      "type": "function"
    },
    {
      "inputs": [],
      "name": "bullaFrendLend",
      "outputs": [
        {
          "internalType": "contract IBullaFrendLend",
          "name": "",
          "type": "address"
        }
      ],
      "stateMutability": "view",
      "type": "function"
    },
    {
      "inputs": [],
      "name": "calculateAccruedProfits",
      "outputs": [
        {
          "internalType": "uint256",
          "name": "accruedProfits",
          "type": "uint256"
        }
      ],
      "stateMutability": "view",
      "type": "function"
    },
    {
      "inputs": [],
      "name": "calculateCapitalAccount",
      "outputs": [
        {
          "internalType": "uint256",
          "name": "",
          "type": "uint256"
        }
      ],
      "stateMutability": "view",
      "type": "function"
    },
    {
      "inputs": [
        {
          "internalType": "uint256",
          "name": "invoiceId",
          "type": "uint256"
        }
      ],
      "name": "calculateKickbackAmount",
      "outputs": [
        {
          "internalType": "uint256",
          "name": "kickbackAmount",
          "type": "uint256"
        },
        {
          "internalType": "uint256",
          "name": "trueInterest",
          "type": "uint256"
        },
        {
          "internalType": "uint256",
          "name": "trueSpreadAmount",
          "type": "uint256"
        },
        {
          "internalType": "uint256",
          "name": "trueProtocolFee",
          "type": "uint256"
        },
        {
          "internalType": "uint256",
          "name": "trueAdminFee",
          "type": "uint256"
        }
      ],
      "stateMutability": "view",
      "type": "function"
    },
    {
      "inputs": [],
      "name": "calculateRealizedGainLoss",
      "outputs": [
        {
          "internalType": "int256",
          "name": "",
          "type": "int256"
        }
      ],
      "stateMutability": "view",
      "type": "function"
    },
    {
      "inputs": [
        {
          "internalType": "uint256",
          "name": "invoiceId",
          "type": "uint256"
        },
        {
          "internalType": "uint16",
          "name": "factorerUpfrontBps",
          "type": "uint16"
        }
      ],
      "name": "calculateTargetFees",
      "outputs": [
        {
          "internalType": "uint256",
          "name": "fundedAmountGross",
          "type": "uint256"
        },
        {
          "internalType": "uint256",
          "name": "adminFee",
          "type": "uint256"
        },
        {
          "internalType": "uint256",
          "name": "targetInterest",
          "type": "uint256"
        },
        {
          "internalType": "uint256",
          "name": "targetSpreadAmount",
          "type": "uint256"
        },
        {
          "internalType": "uint256",
          "name": "targetProtocolFee",
          "type": "uint256"
        },
        {
          "internalType": "uint256",
          "name": "netFundedAmount",
          "type": "uint256"
        }
      ],
      "stateMutability": "view",
      "type": "function"
    },
    {
      "inputs": [
        {
          "internalType": "uint256",
          "name": "shares",
          "type": "uint256"
        }
      ],
      "name": "convertToAssets",
      "outputs": [
        {
          "internalType": "uint256",
          "name": "",
          "type": "uint256"
        }
      ],
      "stateMutability": "view",
      "type": "function"
    },
    {
      "inputs": [
        {
          "internalType": "uint256",
          "name": "assets",
          "type": "uint256"
        }
      ],
      "name": "convertToShares",
      "outputs": [
        {
          "internalType": "uint256",
          "name": "",
          "type": "uint256"
        }
      ],
      "stateMutability": "view",
      "type": "function"
    },
    {
      "inputs": [],
      "name": "creationTimestamp",
      "outputs": [
        {
          "internalType": "uint256",
          "name": "",
          "type": "uint256"
        }
      ],
      "stateMutability": "view",
      "type": "function"
    },
    {
      "inputs": [],
      "name": "decimals",
      "outputs": [
        {
          "internalType": "uint8",
          "name": "",
          "type": "uint8"
        }
      ],
      "stateMutability": "view",
      "type": "function"
    },
    {
      "inputs": [],
      "name": "deployedCapitalForActiveInvoicesExcludingImpaired",
      "outputs": [
        {
          "internalType": "uint256",
          "name": "",
          "type": "uint256"
        }
      ],
      "stateMutability": "view",
      "type": "function"
    },
    {
      "inputs": [
        {
          "internalType": "uint256",
          "name": "assets",
          "type": "uint256"
        },
        {
          "internalType": "address",
          "name": "receiver",
          "type": "address"
        }
      ],
      "name": "deposit",
      "outputs": [
        {
          "internalType": "uint256",
          "name": "",
          "type": "uint256"
        }
      ],
      "stateMutability": "nonpayable",
      "type": "function"
    },
    {
      "inputs": [],
      "name": "depositPermissions",
      "outputs": [
        {
          "internalType": "contract Permissions",
          "name": "",
          "type": "address"
        }
      ],
      "stateMutability": "view",
      "type": "function"
    },
    {
      "inputs": [
        {
          "internalType": "uint256",
          "name": "assets",
          "type": "uint256"
        },
        {
          "internalType": "address",
          "name": "receiver",
          "type": "address"
        },
        {
          "components": [
            {
              "internalType": "bytes32",
              "name": "hash",
              "type": "bytes32"
            },
            {
              "internalType": "uint8",
              "name": "hashFunction",
              "type": "uint8"
            },
            {
              "internalType": "uint8",
              "name": "size",
              "type": "uint8"
            }
          ],
          "internalType": "struct IBullaFactoringV2.Multihash",
          "name": "attachment",
          "type": "tuple"
        }
      ],
      "name": "depositWithAttachment",
      "outputs": [
        {
          "internalType": "uint256",
          "name": "",
          "type": "uint256"
        }
      ],
      "stateMutability": "nonpayable",
      "type": "function"
    },
    {
      "inputs": [],
      "name": "factoringPermissions",
      "outputs": [
        {
          "internalType": "contract Permissions",
          "name": "",
          "type": "address"
        }
      ],
      "stateMutability": "view",
      "type": "function"
    },
    {
      "inputs": [
        {
          "internalType": "uint256",
          "name": "invoiceId",
          "type": "uint256"
        },
        {
          "internalType": "uint16",
          "name": "factorerUpfrontBps",
          "type": "uint16"
        },
        {
          "internalType": "address",
          "name": "receiverAddress",
          "type": "address"
        }
      ],
      "name": "fundInvoice",
      "outputs": [
        {
          "internalType": "uint256",
          "name": "",
          "type": "uint256"
        }
      ],
      "stateMutability": "nonpayable",
      "type": "function"
    },
    {
      "inputs": [],
      "name": "getFundInfo",
      "outputs": [
        {
          "components": [
            {
              "internalType": "string",
              "name": "name",
              "type": "string"
            },
            {
              "internalType": "uint256",
              "name": "creationTimestamp",
              "type": "uint256"
            },
            {
              "internalType": "uint256",
              "name": "fundBalance",
              "type": "uint256"
            },
            {
              "internalType": "uint256",
              "name": "deployedCapital",
              "type": "uint256"
            },
            {
              "internalType": "uint256",
              "name": "capitalAccount",
              "type": "uint256"
            },
            {
              "internalType": "uint256",
              "name": "price",
              "type": "uint256"
            },
            {
              "internalType": "uint256",
              "name": "tokensAvailableForRedemption",
              "type": "uint256"
            },
            {
              "internalType": "uint16",
              "name": "adminFeeBps",
              "type": "uint16"
            },
            {
              "internalType": "uint256",
              "name": "impairReserve",
              "type": "uint256"
            },
            {
              "internalType": "uint256",
              "name": "targetYieldBps",
              "type": "uint256"
            }
          ],
          "internalType": "struct IBullaFactoringV2.FundInfo",
          "name": "",
          "type": "tuple"
        }
      ],
      "stateMutability": "view",
      "type": "function"
    },
    {
      "inputs": [
        {
          "internalType": "uint256",
          "name": "invoiceId",
          "type": "uint256"
        }
      ],
      "name": "getFundedAmount",
      "outputs": [
        {
          "internalType": "uint256",
          "name": "",
          "type": "uint256"
        }
      ],
      "stateMutability": "view",
      "type": "function"
    },
    {
      "inputs": [],
      "name": "gracePeriodDays",
      "outputs": [
        {
          "internalType": "uint256",
          "name": "",
          "type": "uint256"
        }
      ],
      "stateMutability": "view",
      "type": "function"
    },
    {
      "inputs": [
        {
          "internalType": "uint256",
          "name": "invoiceId",
          "type": "uint256"
        }
      ],
      "name": "impairInvoice",
      "outputs": [],
      "stateMutability": "nonpayable",
      "type": "function"
    },
    {
      "inputs": [],
      "name": "impairReserve",
      "outputs": [
        {
          "internalType": "uint256",
          "name": "",
          "type": "uint256"
        }
      ],
      "stateMutability": "view",
      "type": "function"
    },
    {
      "inputs": [
        {
          "internalType": "uint256",
          "name": "",
          "type": "uint256"
        }
      ],
      "name": "impairments",
      "outputs": [
        {
          "internalType": "uint256",
          "name": "gainAmount",
          "type": "uint256"
        },
        {
          "internalType": "uint256",
          "name": "lossAmount",
          "type": "uint256"
        },
        {
          "internalType": "bool",
          "name": "isImpaired",
          "type": "bool"
        }
      ],
      "stateMutability": "view",
      "type": "function"
    },
    {
      "inputs": [],
      "name": "invoiceProviderAdapter",
      "outputs": [
        {
          "internalType": "contract IInvoiceProviderAdapterV2",
          "name": "",
          "type": "address"
        }
      ],
      "stateMutability": "view",
      "type": "function"
    },
    {
      "inputs": [
        {
          "internalType": "address",
          "name": "",
          "type": "address"
        }
      ],
      "name": "maxDeposit",
      "outputs": [
        {
          "internalType": "uint256",
          "name": "",
          "type": "uint256"
        }
      ],
      "stateMutability": "view",
      "type": "function"
    },
    {
      "inputs": [
        {
          "internalType": "address",
          "name": "",
          "type": "address"
        }
      ],
      "name": "maxMint",
      "outputs": [
        {
          "internalType": "uint256",
          "name": "",
          "type": "uint256"
        }
      ],
      "stateMutability": "view",
      "type": "function"
    },
    {
      "inputs": [],
      "name": "maxRedeem",
      "outputs": [
        {
          "internalType": "uint256",
          "name": "",
          "type": "uint256"
        }
      ],
      "stateMutability": "view",
      "type": "function"
    },
    {
      "inputs": [
        {
          "internalType": "address",
          "name": "_owner",
          "type": "address"
        }
      ],
      "name": "maxRedeem",
      "outputs": [
        {
          "internalType": "uint256",
          "name": "",
          "type": "uint256"
        }
      ],
      "stateMutability": "view",
      "type": "function"
    },
    {
      "inputs": [
        {
          "internalType": "address",
          "name": "_owner",
          "type": "address"
        }
      ],
      "name": "maxWithdraw",
      "outputs": [
        {
          "internalType": "uint256",
          "name": "",
          "type": "uint256"
        }
      ],
      "stateMutability": "view",
      "type": "function"
    },
    {
      "inputs": [
        {
          "internalType": "uint256",
          "name": "",
          "type": "uint256"
        },
        {
          "internalType": "address",
          "name": "",
          "type": "address"
        }
      ],
      "name": "mint",
      "outputs": [
        {
          "internalType": "uint256",
          "name": "",
          "type": "uint256"
        }
      ],
      "stateMutability": "pure",
      "type": "function"
    },
    {
      "inputs": [],
      "name": "name",
      "outputs": [
        {
          "internalType": "string",
          "name": "",
          "type": "string"
        }
      ],
      "stateMutability": "view",
      "type": "function"
    },
    {
      "inputs": [
        {
          "internalType": "address",
          "name": "debtor",
          "type": "address"
        },
        {
          "internalType": "uint16",
          "name": "_targetYieldBps",
          "type": "uint16"
        },
        {
          "internalType": "uint16",
          "name": "spreadBps",
          "type": "uint16"
        },
        {
          "internalType": "uint256",
          "name": "principalAmount",
          "type": "uint256"
        },
        {
          "internalType": "uint256",
          "name": "termLength",
          "type": "uint256"
        },
        {
          "internalType": "uint16",
          "name": "numberOfPeriodsPerYear",
          "type": "uint16"
        },
        {
          "internalType": "string",
          "name": "description",
          "type": "string"
        }
      ],
      "name": "offerLoan",
      "outputs": [
        {
          "internalType": "uint256",
          "name": "loanOfferId",
          "type": "uint256"
        }
      ],
      "stateMutability": "nonpayable",
      "type": "function"
    },
    {
      "inputs": [
        {
          "internalType": "uint256",
          "name": "loanOfferId",
          "type": "uint256"
        },
        {
          "internalType": "uint256",
          "name": "loanId",
          "type": "uint256"
        }
      ],
      "name": "onLoanOfferAccepted",
      "outputs": [],
      "stateMutability": "nonpayable",
      "type": "function"
    },
    {
      "inputs": [
        {
          "internalType": "uint256",
          "name": "",
          "type": "uint256"
        }
      ],
      "name": "originalCreditors",
      "outputs": [
        {
          "internalType": "address",
          "name": "",
          "type": "address"
        }
      ],
      "stateMutability": "view",
      "type": "function"
    },
    {
      "inputs": [],
      "name": "owner",
      "outputs": [
        {
          "internalType": "address",
          "name": "",
          "type": "address"
        }
      ],
      "stateMutability": "view",
      "type": "function"
    },
    {
      "inputs": [
        {
          "internalType": "uint256",
          "name": "",
          "type": "uint256"
        }
      ],
      "name": "paidInvoicesGain",
      "outputs": [
        {
          "internalType": "uint256",
          "name": "",
          "type": "uint256"
        }
      ],
      "stateMutability": "view",
      "type": "function"
    },
    {
      "inputs": [
        {
          "internalType": "uint256",
          "name": "",
          "type": "uint256"
        }
      ],
      "name": "paidInvoicesSpreadGain",
      "outputs": [
        {
          "internalType": "uint256",
          "name": "",
          "type": "uint256"
        }
      ],
      "stateMutability": "view",
      "type": "function"
    },
    {
      "inputs": [
        {
          "internalType": "uint256",
          "name": "",
          "type": "uint256"
        }
      ],
      "name": "pendingLoanOffersByLoanOfferId",
      "outputs": [
        {
          "internalType": "bool",
          "name": "exists",
          "type": "bool"
        },
        {
          "internalType": "uint256",
          "name": "offeredAt",
          "type": "uint256"
        },
        {
          "internalType": "uint256",
          "name": "principalAmount",
          "type": "uint256"
        },
        {
          "internalType": "uint256",
          "name": "termLength",
          "type": "uint256"
        },
        {
          "components": [
            {
              "internalType": "uint16",
              "name": "targetYieldBps",
              "type": "uint16"
            },
            {
              "internalType": "uint16",
              "name": "spreadBps",
              "type": "uint16"
            },
            {
              "internalType": "uint16",
              "name": "upfrontBps",
              "type": "uint16"
            },
            {
              "internalType": "uint16",
              "name": "protocolFeeBps",
              "type": "uint16"
            },
            {
              "internalType": "uint16",
              "name": "adminFeeBps",
              "type": "uint16"
            },
            {
              "internalType": "uint16",
              "name": "minDaysInterestApplied",
              "type": "uint16"
            }
          ],
          "internalType": "struct IBullaFactoringV2.FeeParams",
          "name": "feeParams",
          "type": "tuple"
        }
      ],
      "stateMutability": "view",
      "type": "function"
    },
    {
      "inputs": [
        {
          "internalType": "uint256",
          "name": "",
          "type": "uint256"
        }
      ],
      "name": "pendingLoanOffersIds",
      "outputs": [
        {
          "internalType": "uint256",
          "name": "",
          "type": "uint256"
        }
      ],
      "stateMutability": "view",
      "type": "function"
    },
    {
      "inputs": [],
      "name": "poolName",
      "outputs": [
        {
          "internalType": "string",
          "name": "",
          "type": "string"
        }
      ],
      "stateMutability": "view",
      "type": "function"
    },
    {
      "inputs": [
        {
          "internalType": "uint256",
          "name": "assets",
          "type": "uint256"
        }
      ],
      "name": "previewDeposit",
      "outputs": [
        {
          "internalType": "uint256",
          "name": "",
          "type": "uint256"
        }
      ],
      "stateMutability": "view",
      "type": "function"
    },
    {
      "inputs": [
        {
          "internalType": "uint256",
          "name": "shares",
          "type": "uint256"
        }
      ],
      "name": "previewMint",
      "outputs": [
        {
          "internalType": "uint256",
          "name": "",
          "type": "uint256"
        }
      ],
      "stateMutability": "view",
      "type": "function"
    },
    {
      "inputs": [
        {
          "internalType": "uint256",
          "name": "shares",
          "type": "uint256"
        }
      ],
      "name": "previewRedeem",
      "outputs": [
        {
          "internalType": "uint256",
          "name": "",
          "type": "uint256"
        }
      ],
      "stateMutability": "view",
      "type": "function"
    },
    {
      "inputs": [
        {
          "internalType": "uint256",
          "name": "assets",
          "type": "uint256"
        }
      ],
      "name": "previewWithdraw",
      "outputs": [
        {
          "internalType": "uint256",
          "name": "",
          "type": "uint256"
        }
      ],
      "stateMutability": "view",
      "type": "function"
    },
    {
      "inputs": [],
      "name": "pricePerShare",
      "outputs": [
        {
          "internalType": "uint256",
          "name": "",
          "type": "uint256"
        }
      ],
      "stateMutability": "view",
      "type": "function"
    },
    {
      "inputs": [],
      "name": "protocolFeeBalance",
      "outputs": [
        {
          "internalType": "uint256",
          "name": "",
          "type": "uint256"
        }
      ],
      "stateMutability": "view",
      "type": "function"
    },
    {
      "inputs": [],
      "name": "protocolFeeBps",
      "outputs": [
        {
          "internalType": "uint16",
          "name": "",
          "type": "uint16"
        }
      ],
      "stateMutability": "view",
      "type": "function"
    },
    {
      "inputs": [],
      "name": "reconcileActivePaidInvoices",
      "outputs": [],
      "stateMutability": "nonpayable",
      "type": "function"
    },
    {
      "inputs": [
        {
          "internalType": "uint256",
          "name": "shares",
          "type": "uint256"
        },
        {
          "internalType": "address",
          "name": "receiver",
          "type": "address"
        },
        {
          "internalType": "address",
          "name": "_owner",
          "type": "address"
        }
      ],
      "name": "redeem",
      "outputs": [
        {
          "internalType": "uint256",
          "name": "",
          "type": "uint256"
        }
      ],
      "stateMutability": "nonpayable",
      "type": "function"
    },
    {
      "inputs": [],
      "name": "redeemPermissions",
      "outputs": [
        {
          "internalType": "contract Permissions",
          "name": "",
          "type": "address"
        }
      ],
      "stateMutability": "view",
      "type": "function"
    },
    {
      "inputs": [
        {
          "internalType": "uint256",
          "name": "shares",
          "type": "uint256"
        },
        {
          "internalType": "address",
          "name": "receiver",
          "type": "address"
        },
        {
          "internalType": "address",
          "name": "_owner",
          "type": "address"
        },
        {
          "components": [
            {
              "internalType": "bytes32",
              "name": "hash",
              "type": "bytes32"
            },
            {
              "internalType": "uint8",
              "name": "hashFunction",
              "type": "uint8"
            },
            {
              "internalType": "uint8",
              "name": "size",
              "type": "uint8"
            }
          ],
          "internalType": "struct IBullaFactoringV2.Multihash",
          "name": "attachment",
          "type": "tuple"
        }
      ],
      "name": "redeemWithAttachment",
      "outputs": [
        {
          "internalType": "uint256",
          "name": "",
          "type": "uint256"
        }
      ],
      "stateMutability": "nonpayable",
      "type": "function"
    },
    {
      "inputs": [],
      "name": "renounceOwnership",
      "outputs": [],
      "stateMutability": "nonpayable",
      "type": "function"
    },
    {
      "inputs": [
        {
          "internalType": "uint16",
          "name": "_newAdminFeeBps",
          "type": "uint16"
        }
      ],
      "name": "setAdminFeeBps",
      "outputs": [],
      "stateMutability": "nonpayable",
      "type": "function"
    },
    {
      "inputs": [
        {
          "internalType": "uint256",
          "name": "_duration",
          "type": "uint256"
        }
      ],
      "name": "setApprovalDuration",
      "outputs": [],
      "stateMutability": "nonpayable",
      "type": "function"
    },
    {
      "inputs": [
        {
          "internalType": "address",
          "name": "_newBullaDao",
          "type": "address"
        }
      ],
      "name": "setBullaDaoAddress",
      "outputs": [],
      "stateMutability": "nonpayable",
      "type": "function"
    },
    {
      "inputs": [
        {
          "internalType": "address",
          "name": "_newDepositPermissionsAddress",
          "type": "address"
        }
      ],
      "name": "setDepositPermissions",
      "outputs": [],
      "stateMutability": "nonpayable",
      "type": "function"
    },
    {
      "inputs": [
        {
          "internalType": "address",
          "name": "_newFactoringPermissionsAddress",
          "type": "address"
        }
      ],
      "name": "setFactoringPermissions",
      "outputs": [],
      "stateMutability": "nonpayable",
      "type": "function"
    },
    {
      "inputs": [
        {
          "internalType": "uint256",
          "name": "_days",
          "type": "uint256"
        }
      ],
      "name": "setGracePeriodDays",
      "outputs": [],
      "stateMutability": "nonpayable",
      "type": "function"
    },
    {
      "inputs": [
        {
          "internalType": "uint256",
          "name": "_impairReserve",
          "type": "uint256"
        }
      ],
      "name": "setImpairReserve",
      "outputs": [],
      "stateMutability": "nonpayable",
      "type": "function"
    },
    {
      "inputs": [
        {
          "internalType": "uint16",
          "name": "_newProtocolFeeBps",
          "type": "uint16"
        }
      ],
      "name": "setProtocolFeeBps",
      "outputs": [],
      "stateMutability": "nonpayable",
      "type": "function"
    },
    {
      "inputs": [
        {
          "internalType": "address",
          "name": "_newRedeemPermissionsAddress",
          "type": "address"
        }
      ],
      "name": "setRedeemPermissions",
      "outputs": [],
      "stateMutability": "nonpayable",
      "type": "function"
    },
    {
      "inputs": [
        {
          "internalType": "uint16",
          "name": "_targetYieldBps",
          "type": "uint16"
        }
      ],
      "name": "setTargetYield",
      "outputs": [],
      "stateMutability": "nonpayable",
      "type": "function"
    },
    {
      "inputs": [
        {
          "internalType": "address",
          "name": "_newUnderwriter",
          "type": "address"
        }
      ],
      "name": "setUnderwriter",
      "outputs": [],
      "stateMutability": "nonpayable",
      "type": "function"
    },
    {
      "inputs": [],
      "name": "spreadGainsBalance",
      "outputs": [
        {
          "internalType": "uint256",
          "name": "",
          "type": "uint256"
        }
      ],
      "stateMutability": "view",
      "type": "function"
    },
    {
      "inputs": [],
      "name": "symbol",
      "outputs": [
        {
          "internalType": "string",
          "name": "",
          "type": "string"
        }
      ],
      "stateMutability": "view",
      "type": "function"
    },
    {
      "inputs": [],
      "name": "targetYieldBps",
      "outputs": [
        {
          "internalType": "uint16",
          "name": "",
          "type": "uint16"
        }
      ],
      "stateMutability": "view",
      "type": "function"
    },
    {
      "inputs": [],
      "name": "totalAssets",
      "outputs": [
        {
          "internalType": "uint256",
          "name": "",
          "type": "uint256"
        }
      ],
      "stateMutability": "view",
      "type": "function"
    },
    {
      "inputs": [],
      "name": "totalSupply",
      "outputs": [
        {
          "internalType": "uint256",
          "name": "",
          "type": "uint256"
        }
      ],
      "stateMutability": "view",
      "type": "function"
    },
    {
      "inputs": [
        {
          "internalType": "address",
          "name": "to",
          "type": "address"
        },
        {
          "internalType": "uint256",
          "name": "value",
          "type": "uint256"
        }
      ],
      "name": "transfer",
      "outputs": [
        {
          "internalType": "bool",
          "name": "",
          "type": "bool"
        }
      ],
      "stateMutability": "nonpayable",
      "type": "function"
    },
    {
      "inputs": [
        {
          "internalType": "address",
          "name": "from",
          "type": "address"
        },
        {
          "internalType": "address",
          "name": "to",
          "type": "address"
        },
        {
          "internalType": "uint256",
          "name": "value",
          "type": "uint256"
        }
      ],
      "name": "transferFrom",
      "outputs": [
        {
          "internalType": "bool",
          "name": "",
          "type": "bool"
        }
      ],
      "stateMutability": "nonpayable",
      "type": "function"
    },
    {
      "inputs": [
        {
          "internalType": "address",
          "name": "newOwner",
          "type": "address"
        }
      ],
      "name": "transferOwnership",
      "outputs": [],
      "stateMutability": "nonpayable",
      "type": "function"
    },
    {
      "inputs": [],
      "name": "underwriter",
      "outputs": [
        {
          "internalType": "address",
          "name": "",
          "type": "address"
        }
      ],
      "stateMutability": "view",
      "type": "function"
    },
    {
      "inputs": [
        {
          "internalType": "uint256",
          "name": "invoiceId",
          "type": "uint256"
        }
      ],
      "name": "unfactorInvoice",
      "outputs": [],
      "stateMutability": "nonpayable",
      "type": "function"
    },
    {
      "inputs": [],
      "name": "viewPoolStatus",
      "outputs": [
        {
          "internalType": "uint256[]",
          "name": "paidInvoices",
          "type": "uint256[]"
        },
        {
          "internalType": "uint256[]",
          "name": "impairedInvoices",
          "type": "uint256[]"
        }
      ],
      "stateMutability": "view",
      "type": "function"
    },
    {
      "inputs": [
        {
          "internalType": "uint256",
          "name": "assets",
          "type": "uint256"
        },
        {
          "internalType": "address",
          "name": "receiver",
          "type": "address"
        },
        {
          "internalType": "address",
          "name": "_owner",
          "type": "address"
        }
      ],
      "name": "withdraw",
      "outputs": [
        {
          "internalType": "uint256",
          "name": "",
          "type": "uint256"
        }
      ],
      "stateMutability": "nonpayable",
      "type": "function"
    },
    {
      "inputs": [],
      "name": "withdrawAdminFeesAndSpreadGains",
      "outputs": [],
      "stateMutability": "nonpayable",
      "type": "function"
    },
    {
      "inputs": [],
      "name": "withdrawProtocolFees",
      "outputs": [],
      "stateMutability": "nonpayable",
      "type": "function"
    }
  ],
  "transactionHash": "0x6b64c0711037a885feff822e5935c2a673aa9760552e720ee02d57144eb9fc18",
  "args": [
    "0x3894374b3ffd1DB45b760dD094963Dd1167e5568",
    "0x15ef2BD80BE2247C9007A35c761Ea9aDBe1063C5",
    "0x0000000000000000000000000000000000000000",
    "0x5d72984B2e1170EAA0DA4BC22B25C87729C5EBB3",
    "0xB39bF6Fcd9bd97F7616FAD7b6118Fc2E911eA1d8",
    "0x0000000000000000000000000000000000000000",
    "0x996e2beFD170CeB741b0072AE97E524Bdf410E9e",
    "0x89e03e7980c92fd81ed3a9b72f5c73fdf57e5e6d",
    25,
    50,
    "Bulla Fudorra Factoring Pool Sepolia Test",
    730,
    "Fundorra Sepolia Test Token",
    "BFT-FNDRA"
  ],
  "numDeployments": 2,
  "solcInputHash": "778af986bd67d2936abbd8f331791e64",
  "bytecode": "0x60c0806040523461070157615c71803803809161001c8285610705565b833981016101c0828203126107015781516001600160a01b0381168082036107015760208401516001600160a01b03811692908390036107015760408501516001600160a01b038116908190036107015761007960608701610728565b61008560808801610728565b61009160a08901610728565b9161009e60c08a01610728565b936100ab60e08b01610728565b976100b96101008c0161073c565b976100c76101208d0161073c565b6101408d01519b9098906001600160401b038d11610701576100fb6101608f9e8f6100f491859101610766565b9f0161073c565b6101808e0151909d906001600160401b038111610701578261011e918301610766565b6101a08201519092906001600160401b0381116107015761013f9201610766565b815190916001600160401b0382116104d95760035490600182811c921680156106f7575b60208310146104bb5781601f849311610689575b50602090601f8311600114610623575f92610618575b50508160011b915f199060031b1c1916176003555b8051906001600160401b0382116104d95760045490600182811c9216801561060e575b60208310146104bb5781601f8493116105a0575b50602090601f831160011461053a575f9261052f575b50508160011b915f199060031b1c1916176004555b61020d816107ac565b9015610527575b60a05260805233156105145760058054336001600160a01b0319821681179092556001600160a01b03167f8be0079c531659141344cd1fd0a4f28419497f9722a3daafe3b4186f6b6457e05f80a3603c601455610e10601c5561ffff89168015908115610508575b506104ed5761ffff881680159081156104fc575b506104ed57600a80546001600160a01b0319908116929092179055600b8054821692909217909155600e8054821692909217909155600f805482166001600160a01b03938416179055601580548216938316939093179092556016805483169382169390931790925560178054909116928216929092179091556006805460a09490941b61ffff60a01b166001600160c01b031990941694909116939093179190911760b09190911b61ffff60b01b16179055426010558151916001600160401b0383116104d957601254600181811c911680156104cf575b60208210146104bb57601f8111610458575b50602090601f84116001146103f05761ffff93915f91836103e5575b50508160011b915f199060031b1c1916176012555b1661ffff1960135416176013556040516154219081610850823960805181818161118001528181614ce6015261534e015260a051815050f35b015190505f80610397565b90601f1984169160125f52815f20925f5b818110610440575091600193918661ffff979410610428575b505050811b016012556103ac565b01515f1960f88460031b161c191690555f808061041a565b92936020600181928786015181550195019301610401565b60125f527fbb8a6a4669ba250d26cd7a459eca9d215f8307e33aebe50379bc5a3617ec3444601f850160051c810191602086106104b1575b601f0160051c01905b8181106104a6575061037b565b5f8155600101610499565b9091508190610490565b634e487b7160e01b5f52602260045260245ffd5b90607f1690610369565b634e487b7160e01b5f52604160045260245ffd5b631f3b85d360e01b5f5260045ffd5b6127109150115f610290565b6127109150115f61027c565b631e4fbdf760e01b5f525f60045260245ffd5b506012610214565b015190505f806101ef565b60045f9081528281209350601f198516905b8181106105885750908460019594939210610570575b505050811b01600455610204565b01515f1960f88460031b161c191690555f8080610562565b9293602060018192878601518155019501930161054c565b60045f529091507f8a35acfbc15ff81a39ae7d344fd709f28e8600b4aa8c65c6b64bfe7fe36bd19b601f840160051c81019160208510610604575b90601f859493920160051c01905b8181106105f657506101d9565b5f81558493506001016105e9565b90915081906105db565b91607f16916101c5565b015190505f8061018d565b60035f9081528281209350601f198516905b8181106106715750908460019594939210610659575b505050811b016003556101a2565b01515f1960f88460031b161c191690555f808061064b565b92936020600181928786015181550195019301610635565b60035f529091507fc2575a0e9e593c00f959f8c92f12db2869c3395a3b0502d05e2516446f71f85b601f840160051c810191602085106106ed575b90601f859493920160051c01905b8181106106df5750610177565b5f81558493506001016106d2565b90915081906106c4565b91607f1691610163565b5f80fd5b601f909101601f19168101906001600160401b038211908210176104d957604052565b51906001600160a01b038216820361070157565b519061ffff8216820361070157565b6001600160401b0381116104d957601f01601f191660200190565b81601f820112156107015780519061077d8261074b565b9261078b6040519485610705565b8284526020838301011161070157815f9260208093018386015e8301015290565b5f8091604051602081019063313ce56760e01b8252600481526107d0602482610705565b51916001600160a01b03165afa3d15610847573d906107ee8261074b565b916107fc6040519384610705565b82523d5f602084013e5b8061083b575b610818575b505f905f90565b602081805181010312610701576020015160ff8111610811579060ff6001921690565b5060208151101561080c565b60609061080656fe60806040526004361015610011575f80fd5b5f3560e01c8063015995ad1461058a57806301e1d1141461058557806306fdde031461058057806307a2d13a1461050d57806308bb5f7b1461057b578063095ea7b3146105765780630a22d68c146105715780630a28a4771461056c5780630ce6b419146105675780631348ed5e14610562578063173693241461055d57806318160ddd146105585780631859caa8146105535780631ba46cfd1461054e5780631be4c4d41461054957806323b872dd146105445780632d896b2a1461053f5780632f3183e71461053a5780632f5d8aa914610535578063313ce5671461053057806335659fb81461052b57806338d52e0f14610526578063402d267d1461044a57806342b3b12b1461052157806344fcb5cc1461051c57806345b3677314610517578063494112ac146105125780634cdad5061461050d57806353a3417b1461050857806356984d9f14610503578063591e1788146104fe5780635e20bfc8146104f95780636e553f65146104f45780636f31ab34146104ef578063706a3f7d146104ea57806370a08231146104e5578063715018a6146104e057806372c5c144146104db57806376138f55146104d65780637fbc9622146104d1578063800120fa146104cc57806383de3aed146104c75780638795cccb146104c25780638c335f9b146104bd5780638da5cb5b146104b85780638e73836c146104b357806394bf804d146104ae578063951e4bee146104a957806395d89b41146104a4578063987699261461049f5780639948ff451461049a57806399530b0614610495578063a36e9fe714610490578063a3d1612c1461048b578063a85f571414610486578063a9059cbb14610481578063ac27a24f1461047c578063b331108614610477578063b3d7f6b914610472578063b460af941461046d578063b73afe8c14610468578063b9b060b014610463578063ba0876521461045e578063be37b12c14610459578063c42f18f514610454578063c5c1d2461461044f578063c63d75b61461044a578063c6e6f59214610445578063ce96cb7714610440578063cec5a5581461043b578063cf0160f914610436578063d8cf9e3814610431578063d905777e1461042c578063dc2dc8ff14610427578063dd0a12bc14610422578063dd62ed3e1461041d578063e22ddb5214610418578063e300a0f414610413578063e6f0681c1461040e578063e72f0f0514610409578063e9ff17ef14610404578063ec233684146103ff578063ef8b30f7146103fa578063efe0707b146103f5578063f00db260146103f0578063f2fde38b146103eb578063f3466dfa146103e65763fa1fc2e9146103e1575f80fd5b6130df565b6130b0565b612f65565b612f3d565b612ec4565b612ea6565b612dd6565b612d26565b612d09565b612ce5565b612ca8565b612c80565b612c21565b612c00565b6128f1565b6128b6565b612866565b61277d565b612731565b61270a565b6126ec565b6111af565b6126c4565b61266d565b6125dd565b6125c4565b612514565b6124ac565b612389565b612342565b612325565b6122ac565b612282565b61225a565b612228565b6121a6565b612113565b6120eb565b6120d1565b61201c565b611ff2565b611fc7565b611fad565b611f85565b611a9e565b6119fc565b6119e2565b611972565b61194a565b611763565b611749565b6116ee565b6116b2565b61166d565b611653565b611629565b61160c565b6115ce565b61158b565b6114ed565b610a1c565b61135f565b61127f565b6111f3565b6111d6565b61116b565b611147565b611122565b6110b2565b61103b565b61101e565b610fd3565b610e98565b610e70565b610c77565b610c5a565b610c32565b610c15565b610bc9565b610bab565b610b8e565b610ad1565b610a4b565b610929565b6108cf565b6105f9565b6024359061ffff821682036105a057565b5f80fd5b6044359061ffff821682036105a057565b6064359061ffff821682036105a057565b6084359061ffff821682036105a057565b60a4359061ffff821682036105a057565b6004359061ffff821682036105a057565b346105a05760a03660031901126105a05760043561061561058f565b61061d6105a4565b906106266105b5565b9161062f6105c6565b61ffff841680159081156108b9575b506108aa57600f54610660906001600160a01b03165b6001600160a01b031690565b330361089b57610672601c544261316d565b600b5490949061068a906001600160a01b0316610654565b60405163484d384560e11b815260048101889052929061010090849060249082905afa928315610896575f93610865575b508251936106cf60a0850195865190613225565b15610856576020840180519093906001600160a01b03166001600160a01b031630146108475760808501516001600160a01b0316600a5461071a90610654906001600160a01b031681565b6001600160a01b0390911603610838576006549060a082901c61ffff169160b01c61ffff1692610748611301565b61ffff909916895261ffff16602089015261ffff16604088015261ffff16606087015261ffff16608086015261ffff1660a0850152516001600160a01b031691815190519160600151610799611312565b60018152936001600160a01b031660208501528560408501526060840152608083015f90528360a084015260c083015f905260e083015f905261010083015261012082015261014081015f90526107f8845f52601b60205260405f2090565b9061080291613232565b60405191829161081291836133a2565b037f9a6de9d77d72a8097b391e8a8de244f0be5f1344b06d6c4f000bd98f08c7b16691a2005b6322b96ac960e01b5f5260045ffd5b639c20501360e01b5f5260045ffd5b63c627ace960e01b5f5260045ffd5b6108889193506101003d811161088f575b61088081836112df565b810190613192565b915f6106bb565b503d610876565b61321a565b632e83528960e01b5f5260045ffd5b631f3b85d360e01b5f5260045ffd5b6127109150115f61063e565b5f9103126105a057565b346105a0575f3660031901126105a05760206108e96133b8565b604051908152f35b805180835260209291819084018484015e5f828201840152601f01601f1916010190565b9060206109269281815201906108f1565b90565b346105a0575f3660031901126105a0576040515f6003548060011c9060018116908115610a12575b6020831082146109fe5782855260208501919081156109e55750600114610993575b61098f84610983818603826112df565b60405191829182610915565b0390f35b60035f9081529250907fc2575a0e9e593c00f959f8c92f12db2869c3395a3b0502d05e2516446f71f85b5b8184106109d15750500161098382610973565b8054848401526020909301926001016109be565b60ff191682525090151560051b01905061098382610973565b634e487b7160e01b5f52602260045260245ffd5b91607f1691610951565b346105a05760203660031901126105a05760206108e960043561440d565b6001600160a01b038116036105a057565b346105a05760203660031901126105a057600435610a6881610a3a565b610a70614446565b6001600160a01b03168015610ac257600f80546001600160a01b0319811683179091556001600160a01b03167fae536502f25a82de70abed467008489d54fa0cbf58cdc51718efe6d49406724f5f80a3005b63e6c4247b60e01b5f5260045ffd5b346105a05760403660031901126105a057600435610aee81610a3a565b6024353315610b7b576001600160a01b038216918215610b6857610b2e8291335f52600160205260405f209060018060a01b03165f5260205260405f2090565b5560405190815233907f8c5be1e5ebec7d5bd14f71427d1e84f3dd0314c0f7b2291e5b200ac8c7c3b92590602090a3602060405160018152f35b634a1406b160e11b5f525f60045260245ffd5b63e602df0560e01b5f525f60045260245ffd5b346105a0575f3660031901126105a0576020600754604051908152f35b346105a05760203660031901126105a05760206108e960043561446d565b346105a05760203660031901126105a0577fe595c99430465234d1ec90ffa3458590c544d5349139442d6911452a7b8e82fa6020600435610c08614446565b80601455604051908152a1005b346105a0575f3660031901126105a0576020601454604051908152f35b346105a0575f3660031901126105a0576015546040516001600160a01b039091168152602090f35b346105a0575f3660031901126105a0576020600254604051908152f35b346105a05760403660031901126105a057600435602435600e54610ca590610654906001600160a01b031681565b3303610e6157610cc5610cc0835f52602160205260405f2090565b613434565b610cd6610cd28251151590565b1590565b610e5257610cf6610cef835f52601b60205260405f2090565b5460ff1690565b610e435782610e246040610e197f35284f4a1ce24397c38a20540fd2ed28844bd658c44b1f0bd206c8fd3861262494610d47610d3d610d76995f52602160205260405f2090565b805460ff19169055565b610d50856144a2565b610dd26020820151610dcd6080840197885194878101956060875192019d8e514261316d565b610d7e611312565b6001815295306020880152868b0152606086015242608086015260a085015260c0840181905260e084018190526101008401525f610120840152306101408401525f52601b60205260405f2090565b613232565b610e0730610de8895f52601a60205260405f2090565b80546001600160a01b0319166001600160a01b03909216919091179055565b610e108761348d565b5196514261316d565b9251015161ffff1690565b60408051958652602086019290925261ffff16908401523092606090a3005b631df7d2dd60e01b5f5260045ffd5b632c0d11d960e01b5f5260045ffd5b6332d10c3f60e01b5f5260045ffd5b346105a0575f3660031901126105a057600a546040516001600160a01b039091168152602090f35b346105a05760203660031901126105a057600435610eb4614446565b6011548015610fc457610ec9610cd283614587565b610fb557610eeb6002610ee3845f526020805260405f2090565b015460ff1690565b610fa6577ff95dd13343beabbe284b7f97d54b2d4fda5841bab502d60164e8ede601fbe3ac906006610f25845f52601b60205260405f2090565b0154610f43610f3e610f378460011c90565b8094613225565b601155565b610f4c84614600565b610f55846134c3565b610f8c610f60611322565b838152826020820152610f766040820160019052565b610f87865f526020805260405f2090565b613578565b60408051918252602082019290925290819081015b0390a2005b633235e0c760e21b5f5260045ffd5b632d9bb54f60e11b5f5260045ffd5b6357154c3f60e01b5f5260045ffd5b346105a05760603660031901126105a057611013600435610ff381610a3a565b602435610fff81610a3a565b6044359161100e8333836146a1565b614749565b602060405160018152f35b346105a0575f3660031901126105a0576020600854604051908152f35b346105a05760a03660031901126105a05760243560043561105b82610a3a565b60603660431901126105a05761107360209282613e33565b907f393f5b2cbcf0aa47eaec63eb01049e213dc0a29e5bf9b323471be5f5125fc50c604051806110a76044863396846135b0565b0390a2604051908152f35b346105a05760203660031901126105a0577f93e489c437f6f04520047095a2da3d2f1ee89075b945d9283437bd175a6a79a160206004356110f281610a3a565b6110fa614446565b601680546001600160a01b0319166001600160a01b03929092169182179055604051908152a1005b346105a0575f3660031901126105a057602061113c6135f3565b60ff60405191168152f35b346105a0575f3660031901126105a057602061ffff60065460a01c16604051908152f35b346105a0575f3660031901126105a0576040517f00000000000000000000000000000000000000000000000000000000000000006001600160a01b03168152602090f35b346105a05760203660031901126105a0576111cb600435610a3a565b60206040515f198152f35b346105a0575f3660031901126105a0576020600954604051908152f35b346105a05760203660031901126105a05760043561120f614446565b60115480821061127057810381811161126b577f96ef0ad874bac1a0f28dd6bb42d3cd79816d65910307ac7d95d97bb464cbb94a9161125e60209260018060a01b03600a541630903390614845565b80601155604051908152a1005b613159565b631506ed4b60e01b5f5260045ffd5b346105a05760203660031901126105a0576004355f526019602052602060405f2054604051908152f35b634e487b7160e01b5f52604160045260245ffd5b610100810190811067ffffffffffffffff8211176112da57604052565b6112a9565b90601f8019910116810190811067ffffffffffffffff8211176112da57604052565b6040519061131060c0836112df565b565b60405190611310610160836112df565b604051906113106060836112df565b60405190611310610140836112df565b604051906113106040836112df565b6040519061131060a0836112df565b346105a05760e03660031901126105a05760043561137c81610a3a565b61138461058f565b9061138d6105a4565b9060643560843561139c6105d7565b9160c4359467ffffffffffffffff86116105a057366023870112156105a05785600401359667ffffffffffffffff88116112da57604051956113e8601f8a01601f1916602001886112df565b8887523660248a8a0101116105a0575f60208a61098f9b60246114139c01838c0137890101526138a4565b6040519081529081906020820190565b9060405160c081019080821067ffffffffffffffff8311176112da576113109160405260a061149f82955461ffff8116845261ffff8160101c16602085015261ffff8160201c16604085015261148761ffff8260301c16606086019061ffff169052565b61ffff604082901c16608085015260501c61ffff1690565b61ffff16910152565b61ffff60a08092828151168552826020820151166020860152826040820151166040860152826060820151166060860152826080820151166080860152015116910152565b346105a05760203660031901126105a0576004355f52602160205261014060405f2061155660ff825416916001810154906002810154611534600460038401549301611423565b92604051951515865260208601526040850152606084015260808301906114a8565bf35b90602080835192838152019201905f5b8181106115755750505090565b8251845260209384019390920191600101611568565b346105a0575f3660031901126105a0576115c061098f6115a9613b8e565b604092919251938493604085526040850190611558565b908382036020850152611558565b346105a05760203660031901126105a05760a06115ec600435613d47565b926040929192519485526020850152604084015260608301526080820152f35b346105a0575f3660031901126105a0576020601c54604051908152f35b346105a05760403660031901126105a05760206108e960243560043561164e82610a3a565b613e33565b346105a0575f3660031901126105a05760206108e9613eb3565b346105a05760203660031901126105a0576004355f5260208052606060405f2080549060ff600260018301549201541690604051928352602083015215156040820152f35b346105a05760203660031901126105a05760206108e96004356116d481610a3a565b6001600160a01b03165f9081526020819052604090205490565b346105a0575f3660031901126105a057611706614446565b600580546001600160a01b031981169091555f906001600160a01b03167f8be0079c531659141344cd1fd0a4f28419497f9722a3daafe3b4186f6b6457e08280a3005b346105a0575f3660031901126105a05760206108e9613f09565b346105a0575f3660031901126105a05761177b613b8e565b505f5b8151811015611915578061189f61179760019385613b7a565b517ff4b7ee7b3c866d6de6f4e7e344e9be6acc18862b774122bedba082657a30e8d16117c282613d47565b92969193906117d48482878b8b614dbb565b6117f960096117eb895f52601b60205260405f2090565b01546001600160a01b031690565b93826118b6575b6118166002610ee38a5f526020805260405f2090565b156118a85761182488614e89565b611849611838895f526020805260405f2090565b60025f918281558260018201550155565b60e06118656118608a5f52601b60205260405f2090565b613c83565b0151916040519687968d8060a01b03169a879260a094919796959260c0850198855260208501526040840152606083015260808201520152565b0390a30161177e565b6118b188614600565b611849565b600a546118cf90849087906001600160a01b0316614e50565b604051887ff0552a3665368b7e77abbd2bbfe72b2615793841acfd3da5b7df5f330cc00eae8d8060a01b038816928061190d88829190602083019252565b0390a3611800565b6040517f71c060a755cff9c84db9f4be3b4fac0b83f3ffe4e7ff3ebc0be0420d28fb1de090806119458582613ffb565b0390a1005b346105a0575f3660031901126105a057600b546040516001600160a01b039091168152602090f35b346105a05760203660031901126105a0577fbc05deec4ecd4d9295d36f7434b1feee89ac308d4040e0133f06bff4635cf70a60206004356119b281610a3a565b6119ba614446565b601780546001600160a01b0319166001600160a01b03929092169182179055604051908152a1005b346105a0575f3660031901126105a05760206108e961400c565b346105a0575f3660031901126105a0576006546001600160a01b031633819003611a8f57600754908115611a80575f600755600a54611a459183916001600160a01b0316614e50565b6006546040519182526001600160a01b0316907fa087657e3d85162090ffd700fbfdf5070d816f63aa5da00063f6ffd369c8a6db90602090a2005b630d00db4d60e31b5f5260045ffd5b6307c68f0f60e11b5f5260045ffd5b346105a05760603660031901126105a057600435611aba61058f565b60443590611ac782610a3a565b601754611adc906001600160a01b0316610654565b60405163babcc53960e01b815233600482015290602090829060249082905afa908115610896575f91611f56575b5015611f4357611b28610cd2610cef855f52601b60205260405f2090565b611f3457611b59611b526004611b46865f52601b60205260405f2090565b015460201c61ffff1690565b61ffff1690565b61ffff8216908111908115611f2b575b506108aa576001611b82845f52601b60205260405f2090565b01544211611f1c57600b54611b9f906001600160a01b0316610654565b60405163484d384560e11b8152600481018590529061010090829060249082905afa908115610896575f91611efd575b5060c0810151611eee576008611bed855f52601b60205260405f2090565b015460a082015103611edf57611c356106546020611c26611c16885f52601b60205260405f2090565b5460081c6001600160a01b031690565b9301516001600160a01b031690565b6001600160a01b0390911603611ed057611c4f8184614203565b96949350505050611c5e6133b8565b808511611eba57506005611c7a865f52601b60205260405f2090565b0155826006611c91865f52601b60205260405f2090565b0155426003611ca8865f52601b60205260405f2090565b0155611ce1826004611cc2875f52601b60205260405f2090565b019065ffff0000000082549160201b169065ffff000000001916179055565b826001600160a01b038216611eb157611d409150335b611d2f816009611d0f895f52601b60205260405f2090565b0180546001600160a01b0319166001600160a01b03909216919091179055565b600a546001600160a01b0316614e50565b600b54611d55906001600160a01b0316610654565b604051631d14b7f760e31b81526004810185905290602090829060249082905afa908115610896575f91611e82575b506001600160a01b031692833b156105a0576040516323b872dd60e01b815233600482015230602482015260448101829052935f908590606490829084905af19384156108965761098f94611e68575b50611deb33610de8835f52601a60205260405f2090565b611df48161348d565b7f35284f4a1ce24397c38a20540fd2ed28844bd658c44b1f0bd206c8fd38612624611e556002611e2c845f52601b60205260405f2090565b0154936040519182913396888491604091949361ffff9160608501968552602085015216910152565b0390a36040519081529081906020820190565b80611e765f611e7c936112df565b806108c5565b5f611dd4565b611ea4915060203d602011611eaa575b611e9c81836112df565b810190614076565b5f611d84565b503d611e92565b611d4091611cf7565b62fae2d560e21b5f52600452602484905260445ffd5b63f18c77f960e01b5f5260045ffd5b63971ccc7760e01b5f5260045ffd5b637ccc2bd960e11b5f5260045ffd5b611f1691506101003d811161088f5761088081836112df565b5f611bcf565b634aad99a560e11b5f5260045ffd5b9050155f611b69565b63649ac74160e11b5f5260045ffd5b637190a79560e11b5f523360045260245ffd5b611f78915060203d602011611f7e575b611f7081836112df565b810190613e1f565b5f611b0a565b503d611f66565b346105a0575f3660031901126105a0576005546040516001600160a01b039091168152602090f35b346105a0575f3660031901126105a05760206108e961408b565b346105a05760403660031901126105a057611fe3602435610a3a565b6369bd111d60e11b5f5260045ffd5b346105a05760203660031901126105a0576004355f526018602052602060405f2054604051908152f35b346105a0575f3660031901126105a0576040515f6004548060011c90600181169081156120c7575b6020831082146109fe5782855260208501919081156109e557506001146120755761098f84610983818603826112df565b60045f9081529250907f8a35acfbc15ff81a39ae7d344fd709f28e8600b4aa8c65c6b64bfe7fe36bd19b5b8184106120b35750500161098382610973565b8054848401526020909301926001016120a0565b91607f1691612044565b346105a0575f3660031901126105a05760206108e96140b5565b346105a0575f3660031901126105a0576006546040516001600160a01b039091168152602090f35b346105a0575f3660031901126105a05760206108e96121386121336135f3565b614118565b61440d565b999693612180936101e09a97939d9c9996929d6102008d019e15158d5260018060a01b031660208d015260408c015260608b015260808a015260a08901906114a8565b6101608701526101808601526101a08501526101c08401526001600160a01b0316910152565b346105a05760203660031901126105a0576004355f52601b60205260405f20805461098f60018301549260028101549060038101546121e760048301611423565b6005830154600684015491600785015493600886015495600960018060a01b0391015416966040519a8b9a60ff60018060a01b038260081c1691168c61213d565b346105a05760203660031901126105a0576004355f52601a602052602060018060a01b0360405f205416604051908152f35b346105a0575f3660031901126105a0576017546040516001600160a01b039091168152602090f35b346105a05760403660031901126105a0576110136004356122a281610a3a565b6024359033614749565b346105a05760203660031901126105a0576122c56105e8565b6122cd614446565b61ffff81169061271082116108aa576006805461ffff60b01b19811660b093841b61ffff60b01b1617909155901c61ffff167fcc9b1d1e60d76e8755bd2ceaeb3d3ccfe5e5bb556097b7ce618b0a60480ef3e15f80a3005b346105a0575f3660031901126105a0576020601054604051908152f35b346105a05760203660031901126105a05760206108e960043561442e565b60609060031901126105a0576004359060243561237c81610a3a565b9060443561092681610a3a565b346105a05761239736612360565b601654909291906123b0906001600160a01b0316610654565b60405163babcc53960e01b8152336004820152602081602481855afa908115610896575f9161248d575b501561247a5760405163babcc53960e01b81526001600160a01b038516600482015290602090829060249082905afa908115610896575f9161245b575b501561243f5761243a61243161098f946114139385614f3d565b92600d5461316d565b600d55565b635ebb5e2160e11b5f526001600160a01b03831660045260245ffd5b612474915060203d602011611f7e57611f7081836112df565b5f612417565b635ebb5e2160e11b5f523360045260245ffd5b6124a6915060203d602011611f7e57611f7081836112df565b5f6123da565b346105a05760203660031901126105a05761ffff6124c86105e8565b6124d0614446565b1661271081116108aa576020817f70804697a7389a86ccbf4594ad23c117ecf0a1ffb94ae9516dc15f85ac7c29c89261ffff196013541617601355604051908152a1005b346105a0575f3660031901126105a05761252c614446565b6008546009549081810180821161126b578015611a80575f6008819055600955600a54612564919033906001600160a01b0316614e50565b6040519081527fcdcaff67ac16639664e5f9343c9223a1dc9c972ec367b69ae9fc1325c7be547460203392a260405190815233907f0af619ed8af584dcf5cc78faac4031c6286187dd1d2d7a82e466a0e6242e3b35908060208101610fa1565b346105a05760206108e96125d736612360565b91614129565b346105a05760203660031901126105a0576125f66105e8565b600654906001600160a01b0382163303611a8f5761ffff81169161271083116108aa5761ffff60a01b19811660a092831b61ffff60a01b1617600655604080519190921c61ffff16815260208101929092527f2ea630a8e6f6f7590aa81eb8993a1c4a49a0913effd00467ddd761d45867a3ee91a1005b346105a05760403660031901126105a05761098f61269560043561268f61058f565b90614203565b604080519687526020870195909552938501929092526060840152608083015260a082015290819060c0820190565b346105a0575f3660031901126105a057600e546040516001600160a01b039091168152602090f35b346105a05760203660031901126105a05760206108e960043561448b565b346105a05760203660031901126105a05760206108e960043561272c81610a3a565b614342565b346105a05760203660031901126105a0577f6afefcb7619ccdb73c8fdd4304d507509f1d2327b6f29ff2b9c77a1fa760687d6020600435612770614446565b80601c55604051908152a1005b346105a05760203660031901126105a0577ff6a412f75fe107fb805f9acb0408b3ac23ff1d0381fc83f6ef4352a8c9727f8960206004356127bd81610a3a565b6127c5614446565b601580546001600160a01b0319166001600160a01b03929092169182179055604051908152a1005b634e487b7160e01b5f52603260045260245ffd5b601d5481101561281957601d5f5260205f2001905f90565b6127ed565b601f5481101561281957601f5f5260205f2001905f90565b601e5481101561281957601e5f5260205f2001905f90565b6022548110156128195760225f5260205f2001905f90565b346105a05760203660031901126105a0576004356022548110156105a05760209060225f527f61035b26e3e9eee00e0d72fd1ee8ddca6894550dca6916ea2ac6baa90d11e5100154604051908152f35b346105a05760203660031901126105a05760206128d86004356116d481610a3a565b6128e0613eb3565b908180821091180218604051908152f35b346105a05760203660031901126105a05760043561290e816149d3565b612bf157612934612927825f52601a60205260405f2090565b546001600160a01b031690565b336001600160a01b03821603612be257612959611860835f52601b60205260405f2090565b600b54909190612971906001600160a01b0316610654565b60405163484d384560e11b815260048101859052919061010090839060249082905afa918215610896576129f3612a076129f86129e36129f3966129f3955f91612bc3575b5060e08901519860808101518042115f14612bbb576129d86129dd9142613225565b614a38565b90614ab7565b509582829a8589969a959d61316d565b61316d565b612a01886151a2565b90613ef1565b935f851315612b8e57600a54612a2a9086906001600160a01b0316863091614845565b600b54612a3f906001600160a01b0316610654565b604051631d14b7f760e31b81526004810189905290602090829060249082905afa908115610896575f91612b6f575b506001600160a01b031695863b156105a0576040516323b872dd60e01b81523060048201526001600160a01b038616602482015260448101899052965f908890606490829084905af1938415610896577f7b7fc0959014b873972d408951ea66a16dde2b5e376c2ce9b0eb3bc7b6d30b3297610fa195612b5b575b50612af389614600565b612b00848484848d614dbb565b612b25612b158a5f52601a60205260405f2090565b80546001600160a01b0319169055565b604051968796879260a094919796959260c0850198600180881b0316855260208501526040840152606083015260808201520152565b80611e765f612b69936112df565b5f612ae9565b612b88915060203d602011611eaa57611e9c81836112df565b5f612a6e565b5f851215612a2a57600a54612bb6906001600160a01b031685612bb088614371565b91614e50565b612a2a565b505f90614ab7565b612bdc91506101003d811161088f5761088081836112df565b5f6129b6565b6398c1b40760e01b5f5260045ffd5b631915f32960e11b5f5260045ffd5b346105a0575f3660031901126105a057602061ffff60135416604051908152f35b346105a05760403660031901126105a0576020612c77600435612c4381610a3a565b60243590612c5082610a3a565b60018060a01b03165f526001835260405f209060018060a01b03165f5260205260405f2090565b54604051908152f35b346105a0575f3660031901126105a0576016546040516001600160a01b039091168152602090f35b346105a05760203660031901126105a057600435601d548110156105a057602090601d5f525f5160206153cc5f395f51905f520154604051908152f35b346105a0575f3660031901126105a057602061ffff60065460b01c16604051908152f35b346105a0575f3660031901126105a0576020601154604051908152f35b346105a05760203660031901126105a05760206108e96004355f52601b602052600660405f20015490565b60208152610140610120612d7184518360208601526101608501906108f1565b93602081015160408501526040810151606085015260608101516080850152608081015160a085015260a081015160c085015260c081015160e0850152612dc460e082015161010086019061ffff169052565b61010081015182850152015191015290565b346105a0575f3660031901126105a057612dee614381565b5061098f612dfa6133b8565b61ffff612e0561400c565b91612e0e61408b565b92612e8d612e206121386121336135f3565b94612e29613eb3565b60105496612e3e60065461ffff9060b01c1690565b9260115495612e5060135461ffff1690565b97612e59611331565b9a612e62612fef565b8c5260208c015260408b015260608a0152608089015260a088015260c087015261ffff1660e0860152565b6101008401521661012082015260405191829182612d51565b346105a05760203660031901126105a05760206108e96004356143de565b346105a05760203660031901126105a057600435612ee181610a3a565b600654906001600160a01b0382169033829003611a8f576001600160a01b0316918215610ac2576001600160a01b03191682176006557f2e7dcd5549bd379d2c481c56fc3dbe7db94761cb60cbbc301f807e31cc4a99445f80a3005b346105a0575f3660031901126105a057600f546040516001600160a01b039091168152602090f35b346105a05760203660031901126105a057600435612f8281610a3a565b612f8a614446565b6001600160a01b03168015612fdc57600580546001600160a01b0319811683179091556001600160a01b03167f8be0079c531659141344cd1fd0a4f28419497f9722a3daafe3b4186f6b6457e05f80a3005b631e4fbdf760e01b5f525f60045260245ffd5b604051905f6012548060011c916001821680156130a6575b6020841081146109fe578386528592602084019190811561308d5750600114613038575b50611310925003836112df565b60125f90815291507fbb8a6a4669ba250d26cd7a459eca9d215f8307e33aebe50379bc5a3617ec34445b84831061307657506113109350015f61302b565b805482840152869350602090920191600101613062565b60ff191682525061131093151560051b0190505f61302b565b92607f1692613007565b346105a0575f3660031901126105a05761098f6130cb612fef565b6040519182916020835260208301906108f1565b346105a05760c03660031901126105a0576024356004356130ff82610a3a565b6044359161310c83610a3a565b60603660631901126105a0576020926131259183614129565b907f8b96c40bd23d041868dce7135e6994e68df1b292276db8f707c6c35873c1e201604051806110a76064863396846135b0565b634e487b7160e01b5f52601160045260245ffd5b9190820180921161126b57565b519061131082610a3a565b519081151582036105a057565b90816101009103126105a05761321260e0604051926131b0846112bd565b805184526131c06020820161317a565b60208501526131d16040820161317a565b6040850152606081015160608501526131ec6080820161317a565b608085015260a081015160a085015261320760c08201613185565b60c085015201613185565b60e082015290565b6040513d5f823e3d90fd5b9190820391821161126b57565b60096133816101406113109461325d61324b8251151590565b869060ff801983541691151516179055565b6020810151613291906001600160a01b03168654610100600160a81b03191660089190911b610100600160a81b0316178655565b60408101516001860155606081015160028601556080810151600386015561334960a082015160048701815181546020808501516040808701516060880151608089015160a0909901519890921b61ffff60401b1660309290921b67ffff00000000000016931b65ffff000000001660109290921b63ffff00001661ffff9095166bffffffffffffffffffffffff19909416939093179390931792909217919091171760509290921b61ffff60501b16919091179055565b60c0810151600586015560e081015160068601556101008101516007860155610120810151600886015501516001600160a01b031690565b910180546001600160a01b0319166001600160a01b03909216919091179055565b90815260e08101929161131091602001906114a8565b6133c061408b565b6133c861400c565b810390811161126b57601d545f929091835b83851015613427575f5160206153cc5f395f51905f528501545f908152601b6020526040902060058101549060060154810390811161126b57810180911161126b576001909401936133da565b9193506109269250613225565b9060405160a0810181811067ffffffffffffffff8211176112da5760405260806134886004839560ff8154161515855260018101546020860152600281015460408601526003810154606086015201611423565b910152565b601d54600160401b8110156112da5760018101601d55601d5481101561281957601d5f525f5160206153cc5f395f51905f520155565b601f54600160401b8110156112da5760018101601f55601f5481101561281957601f5f527fa03837a25210ee280c2113ff4b77ca23440b19d4866cca721c801278fd08d8070155565b602254600160401b8110156112da57600181016022556022548110156128195760225f527f61035b26e3e9eee00e0d72fd1ee8ddca6894550dca6916ea2ac6baa90d11e5100155565b634e487b7160e01b5f52601260045260245ffd5b8115613573570490565b613555565b600260406113109380518455602081015160018501550151151591019060ff801983541691151516179055565b60ff8116036105a057565b916040608092959460ff9260a0860197865260208601528035828601528260208201356135dc816135a5565b16606086015201356135ed816135a5565b16910152565b600a5460405163313ce56760e01b815290602090829060049082906001600160a01b03165afa908115610896575f9161362a575090565b90506020813d602011613657575b81613645602093836112df565b810103126105a05751610926816135a5565b3d9150613638565b9061ffff8091169116019061ffff821161126b57565b906201518082029180830462015180149015171561126b57565b906103e88202918083046103e8149015171561126b57565b908160209103126105a0575190565b602080825282518183015282810151805161ffff9081166040850152910151166060820152610926906040830151608082015260608301516001600160a01b031660a082015260808301516001600160a01b031660c082015261018061014061372e60a08601518360e08601526101a08501906108f1565b60c08601516001600160a01b03166101008501529460e081015161012085810191909152610100820151838601528101516001600160a01b031661016085015201516001600160e01b031916910152565b9061388860a060806004611310956137a686511515829060ff801983541691151516179055565b602086015160018201556040860151600282015560608601516003820155019301516137e361ffff825116859061ffff1661ffff19825416179055565b6020818101518554604084015165ffffffff00001990911660109290921b63ffff00001691909117911b65ffff000000001617845561384c61382a606083015161ffff1690565b855467ffff000000000000191660309190911b67ffff00000000000016178555565b61387f61385e608083015161ffff1690565b855469ffff0000000000000000191660409190911b61ffff60401b16178555565b015161ffff1690565b815461ffff60501b191660509190911b61ffff60501b16179055565b600f549296959394919391926138c2906001600160a01b0316610654565b330361089b5761016d61ffff8316116108aa57826139f1865f98602095613a239561393d61391d6138f38f8d61365f565b61390c6139126006549261390c8461ffff9060b01c1690565b9061365f565b9160a01c61ffff1690565b92613933613929611341565b61ffff9095168552565b61ffff16838a0152565b600a546139b6906001600160a01b0316936001600160a01b038516906139a1613967601454613675565b94613974601c544261316d565b9661397d611312565b9b8c528d8c015260408b018990523060608c01526001600160a01b031660808b0152565b60a08901526001600160a01b031660c0880152565b60e08601526101008501523061012085015263030b395560e31b610140850152600e546139eb906001600160a01b0316610654565b90614896565b600e54613a06906001600160a01b0316610654565b9060405197888094819363a15c24f360e01b8352600483016136b6565b03925af1938415610896575f94613aeb575b50613aa3613ae29495613a98600654613a85613a64613a598361ffff9060a01c1690565b9260b01c61ffff1690565b93613a7a613a70611301565b61ffff9099168952565b61ffff166020880152565b612710604087015261ffff166060860152565b61ffff166080840152565b5f60a0830152613ab1611350565b6001815292426020850152604084015260608301526080820152613add835f52602160205260405f2090565b61377f565b6109268161350c565b613ae29450613b14613aa39160203d602011613b1b575b613b0c81836112df565b8101906136a7565b9450613a35565b503d613b02565b67ffffffffffffffff81116112da5760051b60200190565b90613b4482613b22565b613b5160405191826112df565b8281528092613b62601f1991613b22565b0190602036910137565b5f19811461126b5760010190565b80518210156128195760209160051b010190565b601d5490601f5491613ba8613ba3848361316d565b613b3a565b90613bb281613b3a565b935f905f925f5b818110613c1d5750505f5b818110613bd5575050825283529190565b80613bee613be460019361281e565b90549060031b1c90565b613bf7816149d3565b613c03575b5001613bc4565b613c16613c0f86613b6c565b9588613b7a565b525f613bfc565b80613c2c613be4600193612801565b613c35816149d3565b15613c5557613c4d613c4687613b6c565b9689613b7a565b525b01613bb9565b613c5e81614587565b613c69575b50613c4f565b613c7c613c7588613b6c565b978b613b7a565b525f613c63565b90611310613d366009613c94611312565b94613ccf613cbf8254613cb0613caa8260ff1690565b15158a52565b60081c6001600160a01b031690565b6001600160a01b03166020880152565b600181015460408701526002810154606087015260038101546080870152613cf960048201611423565b60a0870152600581015460c0870152600681015460e08701526007810154610100870152600881015461012087015201546001600160a01b031690565b6001600160a01b0316610140840152565b613d9b90610100613d63611860835f52601b60205260405f2090565b600b54909290613d7b906001600160a01b0316610654565b604051808096819463484d384560e11b8352600483019190602083019252565b03915afa90811561089657613df1925f92613dfe575b5060808101518042115f14613df457613dd06129d86129dd9242613225565b60a0838101510151613de59061ffff16611b52565b90818082119118021890565b94565b506129dd5f613dd0565b613e189192506101003d811161088f5761088081836112df565b905f613db1565b908160209103126105a05761092690613185565b60155460405163babcc53960e01b815233600482015291929190602090829060249082906001600160a01b03165afa908115610896575f91613e94575b501561247a57613e8f613e866109269284614cd3565b92600c5461316d565b600c55565b613ead915060203d602011611f7e57611f7081836112df565b5f613e70565b613ebb6133b8565b613ec361408b565b15613ed1576109269061448b565b505f90565b9190915f838201938412911290801582169115161761126b57565b81810392915f13801582851316918412161761126b57565b5f5f601e545b808210613fce5750505f601f545b808210613f84575050601d545f5b818110613f3757505090565b613f43613be482612801565b613f4c81614587565b613f5a575b50600101613f2b565b600191936006613f75613f7d935f52601b60205260405f2090565b015490613ef1565b9290613f51565b9091613fc660019182613f75613fb8613f9f613be48961281e565b93613fb1855f526020805260405f2090565b5490613ed6565b925f526020805260405f2090565b920190613f1d565b9091613ff3600191613fb1613fe5613be487612836565b5f52601860205260405f2090565b920190613f0f565b906020610926928181520190611558565b601d545f91825b8284101561407057601d5f52835f5160206153cc5f395f51905f52015461403981614587565b1561405557505f5b810180911161126b57600190930192614013565b61406b905f52601b602052600660405f20015490565b614041565b92509050565b908160209103126105a0575161092681610a3a565b6140aa614096613f09565b6140a5600c54600d5490613ef1565b613ed6565b5f811315613ed15790565b601d545f91825b8281101561411357601d5f52805f5160206153cc5f395f51905f5201546140e281614587565b156140f1575b506001016140bc565b6140fd90949194613d47565b5050509050810180911161126b579260016140e8565b509050565b60ff16604d811161126b57600a0a90565b60165461413e906001600160a01b0316610654565b60405163babcc53960e01b8152336004820152602081602481855afa908115610896575f916141e4575b501561247a5760405163babcc53960e01b81526001600160a01b038516600482015290602090829060249082905afa908115610896575f916141c5575b501561243f57906141b69291614f8d565b61092661243a82600d5461316d565b6141de915060203d602011611f7e57611f7081836112df565b5f6141a5565b6141fd915060203d602011611f7e57611f7081836112df565b5f614168565b9190614258610100614220611860865f52601b60205260405f2090565b600b54909590614238906001600160a01b0316610654565b604051808095819463484d384560e11b8352600483019190602083019252565b03915afa908115610896575f91614323575b50614278610cd28551151590565b611f345760a084019361ffff614297611b5260408851015161ffff1690565b9316928311801561431b575b6108aa576129dd6142cb6142f1946142c661010085015161012086015190613225565b614ffa565b95613de5611b5260a06142e66129d860608801514290613225565b9351015161ffff1690565b50949091929361431261430c846129f3876129f38a8c61316d565b83613225565b91959493929190565b5082156142a3565b61433c91506101003d811161088f5761088081836112df565b5f61426a565b60018060a01b03165f525f60205261435d60405f205461440d565b6143656133b8565b90818082109118021890565b600160ff1b811461126b575f0390565b60405190610140820182811067ffffffffffffffff8211176112da576040525f61012083606081528260208201528260408201528260608201528260808201528260a08201528260c08201528260e0820152826101008201520152565b6143e661408b565b600254806143f357505090565b6143fb6140b5565b820180921161126b5761092692615117565b600254801561442a575f906109269261442461408b565b90614a59565b5090565b600254801561442a576001906109269261442461408b565b6005546001600160a01b0316330361445a57565b63118cdaa760e01b5f523360045260245ffd5b600254801561442a576109269160019161448561408b565b91614a59565b600254801561442a57610926915f9161448561408b565b5f5b602254808210156145825760225f5282827f61035b26e3e9eee00e0d72fd1ee8ddca6894550dca6916ea2ac6baa90d11e5100154146144e657506001016144a4565b5f1981019250821161126b5761450e6145016145269361284e565b90549060031b1c9161284e565b90919082549060031b91821b915f19901b1916179055565b602254801561456e575f198101906022548210156128195760225f9081527f61035b26e3e9eee00e0d72fd1ee8ddca6894550dca6916ea2ac6baa90d11e50f90910155602255565b634e487b7160e01b5f52603160045260245ffd5b505050565b600b5460405163484d384560e11b8152600481019290925261010090829060249082906001600160a01b03165afa8015610896576060915f916145e1575b5001516145d3601454613675565b810180911161126b57421190565b6145fa91506101003d811161088f5761088081836112df565b5f6145c5565b5f5b601d548082101561458257601d5f5282825f5160206153cc5f395f51905f520154146146315750600101614602565b5f1981019250821161126b5761450e61464c61465993612801565b90549060031b1c91612801565b601d54801561456e575f19810190601d5482101561281957601d5f9081527f6d4407e7be21f808e6509aa9fa9143369579dd7d760fe20a2c09680fc146134e90910155601d55565b6001600160a01b039081165f81815260016020908152604080832094861683529390529190912091929091545f1981106146dc575b50505050565b818110614728578215610b7b576001600160a01b03841615610b685761471e925f526001602052039160405f209060018060a01b03165f5260205260405f2090565b555f8080806146d6565b83637dc7a0d960e11b5f5260018060a01b031660045260245260445260645ffd5b916001600160a01b038316918215614832576001600160a01b03811693841561481f576001600160a01b0381165f908152602081905260409020548381106147fa57916147e8916147ce857fddf252ad1be2c89b69c2b068fc378daa952ba7f163c4a11628f55a4df523b3ef9695039160018060a01b03165f525f60205260405f2090565b556001600160a01b03165f90815260208190526040902090565b805482019055604051908152602090a3565b63391434e360e21b5f526001600160a01b03909116600452602452604482905260645ffd5b63ec442f0560e01b5f525f60045260245ffd5b634b637e8f60e11b5f525f60045260245ffd5b6040516323b872dd60e01b60208201526001600160a01b03928316602482015292909116604483015260648201929092526113109161489182608481015b03601f1981018452836112df565b615225565b604051636eb1769f60e11b81523060048201526001600160a01b038084166024830152929390926020908490604490829086165afa928315610896575f936149b2575b50820180921161126b5760405163095ea7b360e01b60208083019182526001600160a01b03861660248401526044808401959095529382529092905f906149216064866112df565b84519082855af15f51903d81614986575b501590505b61494057505050565b60405163095ea7b360e01b60208201526001600160a01b039390931660248401525f604480850191909152835261131092614891906149806064826112df565b82615225565b151590506149a657506149376001600160a01b0382163b15155b5f614932565b600161493791146149a0565b6149cc91935060203d602011613b1b57613b0c81836112df565b915f6148d9565b600b5460405163484d384560e11b8152600481019290925261010090829060249082906001600160a01b03165afa80156108965760e0915f91614a19575b500151151590565b614a3291506101003d811161088f5761088081836112df565b5f614a11565b620151806001614a49828285615117565b92091515810180911161126b5790565b9190614a66828285615117565b936004811015614aa3576001809116149283614a8e575b5050501515810180911161126b5790565b909180935015613573570915155f8080614a7d565b634e487b7160e01b5f52602160045260245ffd5b60a08101805151929490928590614ad19061ffff1661368f565b90614adb91615061565b9185845160200151614aee9061ffff1690565b61ffff16614afb9061368f565b90614b0591615061565b9580855160800151614b189061ffff1690565b61ffff16614b259061368f565b90614b2f91615061565b945160600151614b429061ffff1661368f565b90614b4c91615061565b84614b57888661316d565b90614b619161316d565b90614b6b9161316d565b9261010082015195846101208401978851614b8591613225565b9360e001938451898183115f1493614be094614cba57614bcf614bda91614bc9614bc1614bb5613de59789613225565b955b8a51905190613225565b8b5190613225565b956150b4565b808518818610021890565b92613225565b95851590868215614ca75750505f809781945b888415614c935750505f9a8b9889945b15614c655750505f9a614c2f614c4096614c2f614c348f614c2f614c2f99614c2f839a614c2f9a613225565b613225565b9d8e9851905190613225565b905180821115614c5c57614c5391613225565b915b9493929190565b50505f91614c55565b614c6f9183615117565b9a614c2f614c4096614c2f614c348f614c2f614c2f99614c2f839a614c2f9a613225565b614c9d9183615117565b9a8b988994614c03565b614cb19189615117565b80978194614bf3565b613de59250614bcf614bda91614bc9614bc15f95614bb7565b90614cdd826143de565b91614d138130337f00000000000000000000000000000000000000000000000000000000000000006001600160a01b0316614845565b6001600160a01b03821691821561481f576002549084820180921161126b57614d4e9160025560018060a01b03165f525f60205260405f2090565b80548401905560405183815282905f907fddf252ad1be2c89b69c2b068fc378daa952ba7f163c4a11628f55a4df523b3ef90602090a3604080519182526020820184905233917fdcbc1c05240f31ff3ad067ef1ee35ce4997762752e3a095284754544f4c709d79190a390565b9360085490810180911161126b57600855835f52601860205260405f2055825f5260196020528060405f205560095490810180911161126b5760095560075490810180911161126b57600755601e54600160401b8110156112da5760018101601e55601e5481101561281957601e5f527f50bb669a95c7b50b7e8a6f09454034b2b14cf2b85c730dca9a539ca82cb6e3500155565b60405163a9059cbb60e01b60208201526001600160a01b0390921660248301526044820192909252611310916148918260648101614883565b5f5b601f548082101561458257601f5f5282827fa03837a25210ee280c2113ff4b77ca23440b19d4866cca721c801278fd08d807015414614ecd5750600101614e8b565b5f1981019250821161126b5761450e614ee8614ef59361281e565b90549060031b1c9161281e565b601f54801561456e575f19810190601f5482101561281957601f5f9081527fa03837a25210ee280c2113ff4b77ca23440b19d4866cca721c801278fd08d80690910155601f55565b929190614f4982614342565b93848111614f6a5761092692939450614f618161446d565b9384923361527d565b925050633fa733bb60e21b5f5260018060a01b031660045260245260445260645ffd5b90614fa88360018060a01b03165f525f60205260405f205490565b614fb0613eb3565b908180821091180218808311614fd857509061092691614fcf8261440d565b9384913361527d565b8284632e52afbb60e21b5f5260018060a01b031660045260245260445260645ffd5b61500482826153a8565b9181156150565781612710111561504f577fbc01a36e2eb1c432ca57a786c226809d495182a9930be0ded288ce703afb7e9193612710910990828211900360fc1b910360041c170290565b60116153bb565b506127109250500490565b61506b82826153a8565b919080156150a95761016d111561504f577f4ff4c73064ff4c73064ff4c73064ff4c73064ff4c73064ff4c73064ff4c730659261016d910990030290565b5061016d9250500490565b6150be82826153a8565b91811561510b578162989680111561504f577f5fb648fcc913daa857a27e44a97d3c6bc1193a63a91cc45be5032477ae8d46a59362989680910990828211900360f91b910360071c170290565b50629896809250500490565b9161512282846153a8565b929093841561519557848311156151885790829109815f0382168092046002816003021880820260020302808202600203028082026002030280820260020302808202600203028091026002030293600183805f03040190848311900302920304170290565b60116003841502186153bb565b5050906109269250613569565b600b5460405163484d384560e11b8152600481018390529061010090829060249082906001600160a01b03165afa80156108965760a06151f8916008935f91615206575b500151925f52601b60205260405f2090565b0154810390811161126b5790565b61521f91506101003d811161088f5761088081836112df565b5f6151e6565b905f602091828151910182855af11561321a575f513d61527457506001600160a01b0381163b155b6152545750565b635274afe760e01b5f9081526001600160a01b0391909116600452602490fd5b6001141561524d565b6001600160a01b03808416959082169390929183878603615397575b50508515614832576001600160a01b0381165f908152602081905260409020548381106147fa5790615300847ffbde797d201c681b91056529119e0b02407c7bb96a4a2c75c01fc9667232c8db959493039160018060a01b03165f525f60205260405f2090565b5561530e8260025403600255565b5f867fddf252ad1be2c89b69c2b068fc378daa952ba7f163c4a11628f55a4df523b3ef6040518061534487829190602083019252565b0390a361537b85827f00000000000000000000000000000000000000000000000000000000000000006001600160a01b0316614e50565b6040805195865260208601929092526001600160a01b031693a4565b6153a191836146a1565b5f83615299565b905f198183099102908180821091030391565b634e487b715f526020526024601cfdfe6d4407e7be21f808e6509aa9fa9143369579dd7d760fe20a2c09680fc146134fa2646970667358221220035768f4e527cbc27ded9145b279b6c3465a98cb92e32bece8e0208f7dde8d5d64736f6c634300081e0033",
  "devdoc": {
    "author": "@solidoracle",
    "errors": {
      "ERC20InsufficientAllowance(address,uint256,uint256)": [
        {
          "details": "Indicates a failure with the `spender`s `allowance`. Used in transfers.",
          "params": {
            "allowance": "Amount of tokens a `spender` is allowed to operate with.",
            "needed": "Minimum amount required to perform a transfer.",
            "spender": "Address that may be allowed to operate on tokens without being their owner."
          }
        }
      ],
      "ERC20InsufficientBalance(address,uint256,uint256)": [
        {
          "details": "Indicates an error related to the current `balance` of a `sender`. Used in transfers.",
          "params": {
            "balance": "Current balance for the interacting account.",
            "needed": "Minimum amount required to perform a transfer.",
            "sender": "Address whose tokens are being transferred."
          }
        }
      ],
      "ERC20InvalidApprover(address)": [
        {
          "details": "Indicates a failure with the `approver` of a token to be approved. Used in approvals.",
          "params": {
            "approver": "Address initiating an approval operation."
          }
        }
      ],
      "ERC20InvalidReceiver(address)": [
        {
          "details": "Indicates a failure with the token `receiver`. Used in transfers.",
          "params": {
            "receiver": "Address to which tokens are being transferred."
          }
        }
      ],
      "ERC20InvalidSender(address)": [
        {
          "details": "Indicates a failure with the token `sender`. Used in transfers.",
          "params": {
            "sender": "Address whose tokens are being transferred."
          }
        }
      ],
      "ERC20InvalidSpender(address)": [
        {
          "details": "Indicates a failure with the `spender` to be approved. Used in approvals.",
          "params": {
            "spender": "Address that may be allowed to operate on tokens without being their owner."
          }
        }
      ],
      "ERC4626ExceededMaxDeposit(address,uint256,uint256)": [
        {
          "details": "Attempted to deposit more assets than the max amount for `receiver`."
        }
      ],
      "ERC4626ExceededMaxMint(address,uint256,uint256)": [
        {
          "details": "Attempted to mint more shares than the max amount for `receiver`."
        }
      ],
      "ERC4626ExceededMaxRedeem(address,uint256,uint256)": [
        {
          "details": "Attempted to redeem more shares than the max amount for `receiver`."
        }
      ],
      "ERC4626ExceededMaxWithdraw(address,uint256,uint256)": [
        {
          "details": "Attempted to withdraw more assets than the max amount for `receiver`."
        }
      ],
      "OwnableInvalidOwner(address)": [
        {
          "details": "The owner is not a valid owner account. (eg. `address(0)`)"
        }
      ],
      "OwnableUnauthorizedAccount(address)": [
        {
          "details": "The caller account is not authorized to perform an operation."
        }
      ],
      "SafeERC20FailedOperation(address)": [
        {
          "details": "An operation with an ERC-20 token failed."
        }
      ]
    },
    "events": {
      "Approval(address,address,uint256)": {
        "details": "Emitted when the allowance of a `spender` for an `owner` is set by a call to {approve}. `value` is the new allowance."
      },
      "Transfer(address,address,uint256)": {
        "details": "Emitted when `value` tokens are moved from one account (`from`) to another (`to`). Note that `value` may be zero."
      }
    },
    "kind": "dev",
    "methods": {
      "allowance(address,address)": {
        "details": "See {IERC20-allowance}."
      },
      "approve(address,uint256)": {
        "details": "See {IERC20-approve}. NOTE: If `value` is the maximum `uint256`, the allowance is not updated on `transferFrom`. This is semantically equivalent to an infinite approval. Requirements: - `spender` cannot be the zero address."
      },
      "approveInvoice(uint256,uint16,uint16,uint16,uint16)": {
        "params": {
          "_spreadBps": "The spread in basis points to add on top of target yield",
          "_targetYieldBps": "The target yield in basis points",
          "_upfrontBps": "The maximum upfront percentage the factorer can request",
          "invoiceId": "The ID of the invoice to approve",
          "minDaysInterestApplied": "The minimum number of days interest must be applied"
        }
      },
      "asset()": {
        "details": "See {IERC4626-asset}. "
      },
      "balanceOf(address)": {
        "details": "See {IERC20-balanceOf}."
      },
      "calculateAccruedProfits()": {
        "details": "Iterates through all active invoices, calculates interest for each and sums the net accrued interest",
        "returns": {
          "accruedProfits": "The total net accrued profits across all active invoices"
        }
      },
      "calculateCapitalAccount()": {
        "returns": {
          "_0": "The calculated capital account balance"
        }
      },
      "calculateKickbackAmount(uint256)": {
        "params": {
          "invoiceId": "The ID of the invoice for which to calculate the kickback amount"
        },
        "returns": {
          "kickbackAmount": "The calculated kickback amount",
          "trueAdminFee": "The true admin fee amount",
          "trueInterest": "The true interest amount",
          "trueProtocolFee": "The true protocol fee amount",
          "trueSpreadAmount": "The true spread amount"
        }
      },
      "calculateRealizedGainLoss()": {
        "returns": {
          "_0": "The total realized gain adjusted for losses"
        }
      },
      "calculateTargetFees(uint256,uint16)": {
        "params": {
          "factorerUpfrontBps": "The upfront bps specified by the factorer",
          "invoiceId": "The ID of the invoice for which to calculate the fees"
        },
        "returns": {
          "adminFee": "The target calculated admin fee",
          "fundedAmountGross": "The gross amount to be funded to the factorer",
          "netFundedAmount": "The net amount that will be funded to the factorer after deducting fees",
          "targetInterest": "The calculated interest fee",
          "targetProtocolFee": "The calculated protocol fee",
          "targetSpreadAmount": "The calculated spread amount"
        }
      },
      "constructor": {
        "params": {
          "_asset": "underlying supported stablecoin asset for deposit ",
          "_invoiceProviderAdapter": "adapter for invoice provider",
          "_underwriter": "address of the underwriter"
        }
      },
      "convertToAssets(uint256)": {
        "details": "See {IERC4626-convertToAssets}. "
      },
      "convertToShares(uint256)": {
        "details": "See {IERC4626-convertToShares}. "
      },
      "decimals()": {
        "returns": {
          "_0": "The number of decimals for this token"
        }
      },
      "deployedCapitalForActiveInvoicesExcludingImpaired()": {
        "returns": {
          "_0": "The total funded amount for all active invoices"
        }
      },
      "deposit(uint256,address)": {
        "params": {
          "assets": "The amount of assets to deposit",
          "receiver": "The address to receive the fund shares"
        },
        "returns": {
          "_0": "The number of shares issued for the deposit"
        }
      },
      "depositWithAttachment(uint256,address,(bytes32,uint8,uint8))": {
        "params": {
          "assets": "The amount of assets to deposit",
          "attachment": "The attachment data for the deposit",
          "receiver": "The address to receive the fund shares"
        },
        "returns": {
          "_0": "The number of shares issued for the deposit"
        }
      },
      "fundInvoice(uint256,uint16,address)": {
        "details": "No checks needed for the creditor, as transferFrom will revert unless it gets executed by the nft owner (i.e. claim creditor)",
        "params": {
          "factorerUpfrontBps": "factorer specified upfront bps",
          "invoiceId": "The ID of the invoice to fund",
          "receiverAddress": "Address to receive the funds, if address(0) then funds go to msg.sender"
        }
      },
      "getFundInfo()": {
        "returns": {
          "_0": "FundInfo The fund information"
        }
      },
      "impairInvoice(uint256)": {
        "params": {
          "invoiceId": "The ID of the invoice to impair"
        }
      },
      "maxDeposit(address)": {
        "details": "See {IERC4626-maxDeposit}. "
      },
      "maxMint(address)": {
        "details": "See {IERC4626-maxMint}. "
      },
      "maxRedeem()": {
        "returns": {
          "_0": "The maximum number of shares that can be redeemed"
        }
      },
      "maxRedeem(address)": {
        "params": {
          "_owner": "The owner of the shares being redeemed"
        },
        "returns": {
          "_0": "The maximum number of shares that can be redeemed"
        }
      },
      "maxWithdraw(address)": {
        "params": {
          "_owner": "The owner of the assets to be withdrawn"
        },
        "returns": {
          "_0": "The maximum number of assets that can be withdrawn"
        }
      },
      "name()": {
        "details": "Returns the name of the token."
      },
      "owner()": {
        "details": "Returns the address of the current owner."
      },
      "previewDeposit(uint256)": {
        "details": "See {IERC4626-previewDeposit}. "
      },
      "previewMint(uint256)": {
        "details": "See {IERC4626-previewMint}. "
      },
      "previewRedeem(uint256)": {
        "details": "See {IERC4626-previewRedeem}. "
      },
      "previewWithdraw(uint256)": {
        "details": "See {IERC4626-previewWithdraw}. "
      },
      "pricePerShare()": {
        "returns": {
          "_0": "The current price per share, scaled to the underlying asset's decimal places"
        }
      },
      "reconcileActivePaidInvoices()": {
        "details": "This function should be called when viewPoolStatus returns some updates, to ensure accurate accounting"
      },
      "redeem(uint256,address,address)": {
        "params": {
          "_owner": "The owner of the shares being redeemed",
          "receiver": "The address to receive the assets",
          "shares": "The number of shares to redeem"
        },
        "returns": {
          "_0": "The number of shares redeemed"
        }
      },
      "redeemWithAttachment(uint256,address,address,(bytes32,uint8,uint8))": {
        "params": {
          "_owner": "The owner of the shares being redeemed",
          "attachment": "The attachment data for the redemption",
          "receiver": "The address to receive the redeemed assets",
          "shares": "The number of shares to redeem"
        },
        "returns": {
          "_0": "The amount of assets redeemed"
        }
      },
      "renounceOwnership()": {
        "details": "Leaves the contract without owner. It will not be possible to call `onlyOwner` functions. Can only be called by the current owner. NOTE: Renouncing ownership will leave the contract without an owner, thereby disabling any functionality that is only available to the owner."
      },
      "setAdminFeeBps(uint16)": {
        "params": {
          "_newAdminFeeBps": "The new admin fee in basis points"
        }
      },
      "setApprovalDuration(uint256)": {
        "details": "This function can only be called by the contract owner",
        "params": {
          "_duration": "The new duration in seconds"
        }
      },
      "setBullaDaoAddress(address)": {
        "params": {
          "_newBullaDao": "The new address for the Bulla DAO"
        }
      },
      "setDepositPermissions(address)": {
        "params": {
          "_newDepositPermissionsAddress": "The new deposit permissions contract address"
        }
      },
      "setFactoringPermissions(address)": {
        "params": {
          "_newFactoringPermissionsAddress": "The address of the new factoring permissions contract"
        }
      },
      "setGracePeriodDays(uint256)": {
        "details": "This function can only be called by the contract owner",
        "params": {
          "_days": "The number of days for the grace period"
        }
      },
      "setImpairReserve(uint256)": {
        "params": {
          "_impairReserve": "The new impair reserve amount"
        }
      },
      "setProtocolFeeBps(uint16)": {
        "params": {
          "_newProtocolFeeBps": "The new protocol fee in basis points"
        }
      },
      "setRedeemPermissions(address)": {
        "params": {
          "_newRedeemPermissionsAddress": "The new redeem permissions contract address"
        }
      },
      "setTargetYield(uint16)": {
        "params": {
          "_targetYieldBps": "The new target yield in basis points"
        }
      },
      "setUnderwriter(address)": {
        "params": {
          "_newUnderwriter": "The address of the new underwriter"
        }
      },
      "symbol()": {
        "details": "Returns the symbol of the token, usually a shorter version of the name."
      },
      "totalAssets()": {
        "returns": {
          "_0": "The amount of assets available for withdrawal or new investments, excluding funds allocated to active invoices"
        }
      },
      "totalSupply()": {
        "details": "See {IERC20-totalSupply}."
      },
      "transfer(address,uint256)": {
        "details": "See {IERC20-transfer}. Requirements: - `to` cannot be the zero address. - the caller must have a balance of at least `value`."
      },
      "transferFrom(address,address,uint256)": {
        "details": "See {IERC20-transferFrom}. Skips emitting an {Approval} event indicating an allowance update. This is not required by the ERC. See {xref-ERC20-_approve-address-address-uint256-bool-}[_approve]. NOTE: Does not update the allowance if the current allowance is the maximum `uint256`. Requirements: - `from` and `to` cannot be the zero address. - `from` must have a balance of at least `value`. - the caller must have allowance for ``from``'s tokens of at least `value`."
      },
      "transferOwnership(address)": {
        "details": "Transfers ownership of the contract to a new account (`newOwner`). Can only be called by the current owner."
      },
      "unfactorInvoice(uint256)": {
        "params": {
          "invoiceId": "The ID of the invoice to unfactor"
        }
      },
      "viewPoolStatus()": {
        "returns": {
          "impairedInvoices": "An array of impaired invoice IDs",
          "paidInvoices": "An array of paid invoice IDs"
        }
      },
      "withdraw(uint256,address,address)": {
        "params": {
          "_owner": "The address who owns the shares to redeem",
          "assets": "The amount of assets to withdraw",
          "receiver": "The address to receive the assets"
        },
        "returns": {
          "_0": "The number of shares redeemed"
        }
      }
    },
    "title": "Bulla Factoring Fund",
    "version": 1
  },
  "userdoc": {
    "errors": {
      "CallerNotUnderwriter()": [
        {
          "notice": "Errors"
        }
      ]
    },
    "kind": "user",
    "methods": {
      "activeInvoices(uint256)": {
        "notice": "Array to hold the IDs of all active invoices"
      },
      "adminFeeBalance()": {
        "notice": "Accumulated admin fee balance"
      },
      "adminFeeBps()": {
        "notice": "Admin fee in basis points"
      },
      "approvalDuration()": {
        "notice": "The duration of invoice approval before it expires"
      },
      "approveInvoice(uint256,uint16,uint16,uint16,uint16)": {
        "notice": "Approves an invoice for funding, can only be called by the underwriter"
      },
      "approvedInvoices(uint256)": {
        "notice": "Mapping from invoice ID to invoice approval details"
      },
      "assetAddress()": {
        "notice": "Address of the underlying asset token (e.g., USDC)"
      },
      "bullaDao()": {
        "notice": "Address of the Bulla DAO, a trusted multisig"
      },
      "bullaFrendLend()": {
        "notice": "Address of the bulla frendlend contract"
      },
      "calculateAccruedProfits()": {
        "notice": "Calculates the total accrued profits from all active invoices"
      },
      "calculateCapitalAccount()": {
        "notice": "Calculates the capital account balance, including deposits, withdrawals, and realized gains/losses"
      },
      "calculateKickbackAmount(uint256)": {
        "notice": "Calculates the kickback amount for a given funded amount allowing early payment"
      },
      "calculateRealizedGainLoss()": {
        "notice": "Calculates the total realized gain or loss from paid and impaired invoices"
      },
      "calculateTargetFees(uint256,uint16)": {
        "notice": "Calculates the true fees and net funded amount for a given invoice and factorer's upfront bps, annualised"
      },
      "creationTimestamp()": {
        "notice": "Timestamp of the fund's creation"
      },
      "decimals()": {
        "notice": "Returns the number of decimals the token uses, same as the underlying asset"
      },
      "deployedCapitalForActiveInvoicesExcludingImpaired()": {
        "notice": "Calculates the total funded amount for all active invoices."
      },
      "deposit(uint256,address)": {
        "notice": "Helper function to handle the logic of depositing assets in exchange for fund shares"
      },
      "depositPermissions()": {
        "notice": "Permissions contracts for deposit and factoring"
      },
      "depositWithAttachment(uint256,address,(bytes32,uint8,uint8))": {
        "notice": "Allows for the deposit of assets in exchange for fund shares with an attachment"
      },
      "fundInvoice(uint256,uint16,address)": {
        "notice": "Funds a single invoice, transferring the funded amount from the fund to the caller and transferring the invoice NFT to the fund"
      },
      "getFundInfo()": {
        "notice": "Retrieves the fund information"
      },
      "gracePeriodDays()": {
        "notice": "Grace period for invoices"
      },
      "impairInvoice(uint256)": {
        "notice": "Impairs an invoice, using the impairment reserve to cover the loss"
      },
      "impairReserve()": {
        "notice": "Reserve amount for impairment"
      },
      "impairments(uint256)": {
        "notice": "Mapping from invoice ID to impairment details"
      },
      "invoiceProviderAdapter()": {
        "notice": "Address of the invoice provider contract adapter"
      },
      "maxRedeem()": {
        "notice": "Calculates the maximum amount of shares that can be redeemed based on the total assets in the fund"
      },
      "maxRedeem(address)": {
        "notice": "Calculates the maximum amount of shares that can be redeemed based on the total assets in the fund"
      },
      "maxWithdraw(address)": {
        "notice": "Calculates the maximum amount of assets that can be withdrawn"
      },
      "originalCreditors(uint256)": {
        "notice": "Mapping from invoice ID to original creditor's address"
      },
      "paidInvoicesGain(uint256)": {
        "notice": "Mapping of paid invoices ID to track gains/losses"
      },
      "paidInvoicesSpreadGain(uint256)": {
        "notice": "Mapping of paid invoices ID to track spread gains, that belong to pool owner and are not part of the pool's yield"
      },
      "pendingLoanOffersByLoanOfferId(uint256)": {
        "notice": "Mapping from loan offer ID to pending loan offer details"
      },
      "pendingLoanOffersIds(uint256)": {
        "notice": "Array to track IDs of pending loan offers"
      },
      "poolName()": {
        "notice": "Name of the factoring pool"
      },
      "pricePerShare()": {
        "notice": "Calculates the current price per share of the fund, "
      },
      "protocolFeeBalance()": {
        "notice": "Accumulated protocol fee balance"
      },
      "protocolFeeBps()": {
        "notice": "Protocol fee in basis points"
      },
      "reconcileActivePaidInvoices()": {
        "notice": "Reconciles the list of active invoices with those that have been paid, updating the fund's records"
      },
      "redeem(uint256,address,address)": {
        "notice": "Helper function to handle the logic of redeeming shares in exchange for assets"
      },
      "redeemWithAttachment(uint256,address,address,(bytes32,uint8,uint8))": {
        "notice": "Redeems shares for underlying assets with an attachment, transferring the assets to the specified receiver"
      },
      "setAdminFeeBps(uint16)": {
        "notice": "Sets the admin fee in basis points"
      },
      "setApprovalDuration(uint256)": {
        "notice": "Sets the duration for which invoice approvals are valid"
      },
      "setBullaDaoAddress(address)": {
        "notice": "Updates the Bulla DAO address"
      },
      "setDepositPermissions(address)": {
        "notice": "Updates the deposit permissions contract"
      },
      "setFactoringPermissions(address)": {
        "notice": "Updates the factoring permissions contract"
      },
      "setGracePeriodDays(uint256)": {
        "notice": "Sets the grace period in days for determining if an invoice is impaired"
      },
      "setImpairReserve(uint256)": {
        "notice": "Sets the impair reserve amount"
      },
      "setProtocolFeeBps(uint16)": {
        "notice": "Updates the protocol fee in basis points (bps)"
      },
      "setRedeemPermissions(address)": {
        "notice": "Updates the redeem permissions contract"
      },
      "setTargetYield(uint16)": {
        "notice": "Sets the target yield in basis points"
      },
      "setUnderwriter(address)": {
        "notice": "Sets a new underwriter for the contract"
      },
      "spreadGainsBalance()": {
        "notice": "Accumulated spread gains balance"
      },
      "targetYieldBps()": {
        "notice": "Target yield in basis points"
      },
      "totalAssets()": {
        "notice": "Calculates the available assets in the fund net of fees and impair reserve"
      },
      "underwriter()": {
        "notice": "Address of the underwriter, trusted to approve invoices"
      },
      "unfactorInvoice(uint256)": {
        "notice": "Unfactors an invoice, returning the invoice NFT to the original creditor and refunding the funded amount"
      },
      "viewPoolStatus()": {
        "notice": "Provides a view of the pool's status, listing paid and impaired invoices, to be called by Gelato or alike"
      },
      "withdraw(uint256,address,address)": {
        "notice": "Helper function to handle the logic of withdrawing assets in exchange for fund shares"
      },
      "withdrawAdminFeesAndSpreadGains()": {
        "notice": "Allows the Pool Owner to withdraw accumulated admin fees and spread gains."
      },
      "withdrawProtocolFees()": {
        "notice": "Allows the Bulla DAO to withdraw accumulated protocol fees."
      }
    },
    "notice": "Bulla Factoring Fund is a ERC4626 compatible fund that allows for the factoring of invoices",
    "version": 1
  },
  "storageLayout": {
    "storage": [
      {
        "astId": 4820,
        "contract": "contracts/BullaFactoring.sol:BullaFactoringV2",
        "label": "_balances",
        "offset": 0,
        "slot": "0",
        "type": "t_mapping(t_address,t_uint256)"
      },
      {
        "astId": 4826,
        "contract": "contracts/BullaFactoring.sol:BullaFactoringV2",
        "label": "_allowances",
        "offset": 0,
        "slot": "1",
        "type": "t_mapping(t_address,t_mapping(t_address,t_uint256))"
      },
      {
        "astId": 4828,
        "contract": "contracts/BullaFactoring.sol:BullaFactoringV2",
        "label": "_totalSupply",
        "offset": 0,
        "slot": "2",
        "type": "t_uint256"
      },
      {
        "astId": 4830,
        "contract": "contracts/BullaFactoring.sol:BullaFactoringV2",
        "label": "_name",
        "offset": 0,
        "slot": "3",
        "type": "t_string_storage"
      },
      {
        "astId": 4832,
        "contract": "contracts/BullaFactoring.sol:BullaFactoringV2",
        "label": "_symbol",
        "offset": 0,
        "slot": "4",
        "type": "t_string_storage"
      },
      {
        "astId": 4257,
        "contract": "contracts/BullaFactoring.sol:BullaFactoringV2",
        "label": "_owner",
        "offset": 0,
        "slot": "5",
        "type": "t_address"
      },
      {
        "astId": 10604,
        "contract": "contracts/BullaFactoring.sol:BullaFactoringV2",
        "label": "bullaDao",
        "offset": 0,
        "slot": "6",
        "type": "t_address"
      },
      {
        "astId": 10607,
        "contract": "contracts/BullaFactoring.sol:BullaFactoringV2",
        "label": "protocolFeeBps",
        "offset": 20,
        "slot": "6",
        "type": "t_uint16"
      },
      {
        "astId": 10610,
        "contract": "contracts/BullaFactoring.sol:BullaFactoringV2",
        "label": "adminFeeBps",
        "offset": 22,
        "slot": "6",
        "type": "t_uint16"
      },
      {
        "astId": 10613,
        "contract": "contracts/BullaFactoring.sol:BullaFactoringV2",
        "label": "protocolFeeBalance",
        "offset": 0,
        "slot": "7",
        "type": "t_uint256"
      },
      {
        "astId": 10616,
        "contract": "contracts/BullaFactoring.sol:BullaFactoringV2",
        "label": "adminFeeBalance",
        "offset": 0,
        "slot": "8",
        "type": "t_uint256"
      },
      {
        "astId": 10619,
        "contract": "contracts/BullaFactoring.sol:BullaFactoringV2",
        "label": "spreadGainsBalance",
        "offset": 0,
        "slot": "9",
        "type": "t_uint256"
      },
      {
        "astId": 10623,
        "contract": "contracts/BullaFactoring.sol:BullaFactoringV2",
        "label": "assetAddress",
        "offset": 0,
        "slot": "10",
        "type": "t_contract(IERC20)5390"
      },
      {
        "astId": 10627,
        "contract": "contracts/BullaFactoring.sol:BullaFactoringV2",
        "label": "invoiceProviderAdapter",
        "offset": 0,
        "slot": "11",
        "type": "t_contract(IInvoiceProviderAdapterV2)15464"
      },
      {
        "astId": 10629,
        "contract": "contracts/BullaFactoring.sol:BullaFactoringV2",
        "label": "totalDeposits",
        "offset": 0,
        "slot": "12",
        "type": "t_uint256"
      },
      {
        "astId": 10631,
        "contract": "contracts/BullaFactoring.sol:BullaFactoringV2",
        "label": "totalWithdrawals",
        "offset": 0,
        "slot": "13",
        "type": "t_uint256"
      },
      {
        "astId": 10635,
        "contract": "contracts/BullaFactoring.sol:BullaFactoringV2",
        "label": "bullaFrendLend",
        "offset": 0,
        "slot": "14",
        "type": "t_contract(IBullaFrendLend)1338"
      },
      {
        "astId": 10638,
        "contract": "contracts/BullaFactoring.sol:BullaFactoringV2",
        "label": "underwriter",
        "offset": 0,
        "slot": "15",
        "type": "t_address"
      },
      {
        "astId": 10641,
        "contract": "contracts/BullaFactoring.sol:BullaFactoringV2",
        "label": "creationTimestamp",
        "offset": 0,
        "slot": "16",
        "type": "t_uint256"
      },
      {
        "astId": 10644,
        "contract": "contracts/BullaFactoring.sol:BullaFactoringV2",
        "label": "impairReserve",
        "offset": 0,
        "slot": "17",
        "type": "t_uint256"
      },
      {
        "astId": 10647,
        "contract": "contracts/BullaFactoring.sol:BullaFactoringV2",
        "label": "poolName",
        "offset": 0,
        "slot": "18",
        "type": "t_string_storage"
      },
      {
        "astId": 10650,
        "contract": "contracts/BullaFactoring.sol:BullaFactoringV2",
        "label": "targetYieldBps",
        "offset": 0,
        "slot": "19",
        "type": "t_uint16"
      },
      {
        "astId": 10654,
        "contract": "contracts/BullaFactoring.sol:BullaFactoringV2",
        "label": "gracePeriodDays",
        "offset": 0,
        "slot": "20",
        "type": "t_uint256"
      },
      {
        "astId": 10658,
        "contract": "contracts/BullaFactoring.sol:BullaFactoringV2",
        "label": "depositPermissions",
        "offset": 0,
        "slot": "21",
        "type": "t_contract(Permissions)14905"
      },
      {
        "astId": 10661,
        "contract": "contracts/BullaFactoring.sol:BullaFactoringV2",
        "label": "redeemPermissions",
        "offset": 0,
        "slot": "22",
        "type": "t_contract(Permissions)14905"
      },
      {
        "astId": 10664,
        "contract": "contracts/BullaFactoring.sol:BullaFactoringV2",
        "label": "factoringPermissions",
        "offset": 0,
        "slot": "23",
        "type": "t_contract(Permissions)14905"
      },
      {
        "astId": 10669,
        "contract": "contracts/BullaFactoring.sol:BullaFactoringV2",
        "label": "paidInvoicesGain",
        "offset": 0,
        "slot": "24",
        "type": "t_mapping(t_uint256,t_uint256)"
      },
      {
        "astId": 10674,
        "contract": "contracts/BullaFactoring.sol:BullaFactoringV2",
        "label": "paidInvoicesSpreadGain",
        "offset": 0,
        "slot": "25",
        "type": "t_mapping(t_uint256,t_uint256)"
      },
      {
        "astId": 10679,
        "contract": "contracts/BullaFactoring.sol:BullaFactoringV2",
        "label": "originalCreditors",
        "offset": 0,
        "slot": "26",
        "type": "t_mapping(t_uint256,t_address)"
      },
      {
        "astId": 10685,
        "contract": "contracts/BullaFactoring.sol:BullaFactoringV2",
        "label": "approvedInvoices",
        "offset": 0,
        "slot": "27",
        "type": "t_mapping(t_uint256,t_struct(InvoiceApproval)15071_storage)"
      },
      {
        "astId": 10689,
        "contract": "contracts/BullaFactoring.sol:BullaFactoringV2",
        "label": "approvalDuration",
        "offset": 0,
        "slot": "28",
        "type": "t_uint256"
      },
      {
        "astId": 10693,
        "contract": "contracts/BullaFactoring.sol:BullaFactoringV2",
        "label": "activeInvoices",
        "offset": 0,
        "slot": "29",
        "type": "t_array(t_uint256)dyn_storage"
      },
      {
        "astId": 10697,
        "contract": "contracts/BullaFactoring.sol:BullaFactoringV2",
        "label": "paidInvoicesIds",
        "offset": 0,
        "slot": "30",
        "type": "t_array(t_uint256)dyn_storage"
      },
      {
        "astId": 10701,
        "contract": "contracts/BullaFactoring.sol:BullaFactoringV2",
        "label": "impairedByFundInvoicesIds",
        "offset": 0,
        "slot": "31",
        "type": "t_array(t_uint256)dyn_storage"
      },
      {
        "astId": 10707,
        "contract": "contracts/BullaFactoring.sol:BullaFactoringV2",
        "label": "impairments",
        "offset": 0,
        "slot": "32",
        "type": "t_mapping(t_uint256,t_struct(ImpairmentDetails)15106_storage)"
      },
      {
        "astId": 10713,
        "contract": "contracts/BullaFactoring.sol:BullaFactoringV2",
        "label": "pendingLoanOffersByLoanOfferId",
        "offset": 0,
        "slot": "33",
        "type": "t_mapping(t_uint256,t_struct(PendingLoanOfferInfo)15047_storage)"
      },
      {
        "astId": 10717,
        "contract": "contracts/BullaFactoring.sol:BullaFactoringV2",
        "label": "pendingLoanOffersIds",
        "offset": 0,
        "slot": "34",
        "type": "t_array(t_uint256)dyn_storage"
      }
    ],
    "types": {
      "t_address": {
        "encoding": "inplace",
        "label": "address",
        "numberOfBytes": "20"
      },
      "t_array(t_uint256)dyn_storage": {
        "base": "t_uint256",
        "encoding": "dynamic_array",
        "label": "uint256[]",
        "numberOfBytes": "32"
      },
      "t_bool": {
        "encoding": "inplace",
        "label": "bool",
        "numberOfBytes": "1"
      },
      "t_contract(IBullaFrendLend)1338": {
        "encoding": "inplace",
        "label": "contract IBullaFrendLend",
        "numberOfBytes": "20"
      },
      "t_contract(IERC20)5390": {
        "encoding": "inplace",
        "label": "contract IERC20",
        "numberOfBytes": "20"
      },
      "t_contract(IInvoiceProviderAdapterV2)15464": {
        "encoding": "inplace",
        "label": "contract IInvoiceProviderAdapterV2",
        "numberOfBytes": "20"
      },
      "t_contract(Permissions)14905": {
        "encoding": "inplace",
        "label": "contract Permissions",
        "numberOfBytes": "20"
      },
      "t_mapping(t_address,t_mapping(t_address,t_uint256))": {
        "encoding": "mapping",
        "key": "t_address",
        "label": "mapping(address => mapping(address => uint256))",
        "numberOfBytes": "32",
        "value": "t_mapping(t_address,t_uint256)"
      },
      "t_mapping(t_address,t_uint256)": {
        "encoding": "mapping",
        "key": "t_address",
        "label": "mapping(address => uint256)",
        "numberOfBytes": "32",
        "value": "t_uint256"
      },
      "t_mapping(t_uint256,t_address)": {
        "encoding": "mapping",
        "key": "t_uint256",
        "label": "mapping(uint256 => address)",
        "numberOfBytes": "32",
        "value": "t_address"
      },
      "t_mapping(t_uint256,t_struct(ImpairmentDetails)15106_storage)": {
        "encoding": "mapping",
        "key": "t_uint256",
        "label": "mapping(uint256 => struct IBullaFactoringV2.ImpairmentDetails)",
        "numberOfBytes": "32",
        "value": "t_struct(ImpairmentDetails)15106_storage"
      },
      "t_mapping(t_uint256,t_struct(InvoiceApproval)15071_storage)": {
        "encoding": "mapping",
        "key": "t_uint256",
        "label": "mapping(uint256 => struct IBullaFactoringV2.InvoiceApproval)",
        "numberOfBytes": "32",
        "value": "t_struct(InvoiceApproval)15071_storage"
      },
      "t_mapping(t_uint256,t_struct(PendingLoanOfferInfo)15047_storage)": {
        "encoding": "mapping",
        "key": "t_uint256",
        "label": "mapping(uint256 => struct IBullaFactoringV2.PendingLoanOfferInfo)",
        "numberOfBytes": "32",
        "value": "t_struct(PendingLoanOfferInfo)15047_storage"
      },
      "t_mapping(t_uint256,t_uint256)": {
        "encoding": "mapping",
        "key": "t_uint256",
        "label": "mapping(uint256 => uint256)",
        "numberOfBytes": "32",
        "value": "t_uint256"
      },
      "t_string_storage": {
        "encoding": "bytes",
        "label": "string",
        "numberOfBytes": "32"
      },
      "t_struct(FeeParams)15035_storage": {
        "encoding": "inplace",
        "label": "struct IBullaFactoringV2.FeeParams",
        "members": [
          {
            "astId": 15024,
            "contract": "contracts/BullaFactoring.sol:BullaFactoringV2",
            "label": "targetYieldBps",
            "offset": 0,
            "slot": "0",
            "type": "t_uint16"
          },
          {
            "astId": 15026,
            "contract": "contracts/BullaFactoring.sol:BullaFactoringV2",
            "label": "spreadBps",
            "offset": 2,
            "slot": "0",
            "type": "t_uint16"
          },
          {
            "astId": 15028,
            "contract": "contracts/BullaFactoring.sol:BullaFactoringV2",
            "label": "upfrontBps",
            "offset": 4,
            "slot": "0",
            "type": "t_uint16"
          },
          {
            "astId": 15030,
            "contract": "contracts/BullaFactoring.sol:BullaFactoringV2",
            "label": "protocolFeeBps",
            "offset": 6,
            "slot": "0",
            "type": "t_uint16"
          },
          {
            "astId": 15032,
            "contract": "contracts/BullaFactoring.sol:BullaFactoringV2",
            "label": "adminFeeBps",
            "offset": 8,
            "slot": "0",
            "type": "t_uint16"
          },
          {
            "astId": 15034,
            "contract": "contracts/BullaFactoring.sol:BullaFactoringV2",
            "label": "minDaysInterestApplied",
            "offset": 10,
            "slot": "0",
            "type": "t_uint16"
          }
        ],
        "numberOfBytes": "32"
      },
      "t_struct(ImpairmentDetails)15106_storage": {
        "encoding": "inplace",
        "label": "struct IBullaFactoringV2.ImpairmentDetails",
        "members": [
          {
            "astId": 15101,
            "contract": "contracts/BullaFactoring.sol:BullaFactoringV2",
            "label": "gainAmount",
            "offset": 0,
            "slot": "0",
            "type": "t_uint256"
          },
          {
            "astId": 15103,
            "contract": "contracts/BullaFactoring.sol:BullaFactoringV2",
            "label": "lossAmount",
            "offset": 0,
            "slot": "1",
            "type": "t_uint256"
          },
          {
            "astId": 15105,
            "contract": "contracts/BullaFactoring.sol:BullaFactoringV2",
            "label": "isImpaired",
            "offset": 0,
            "slot": "2",
            "type": "t_bool"
          }
        ],
        "numberOfBytes": "96"
      },
      "t_struct(InvoiceApproval)15071_storage": {
        "encoding": "inplace",
        "label": "struct IBullaFactoringV2.InvoiceApproval",
        "members": [
          {
            "astId": 15049,
            "contract": "contracts/BullaFactoring.sol:BullaFactoringV2",
            "label": "approved",
            "offset": 0,
            "slot": "0",
            "type": "t_bool"
          },
          {
            "astId": 15051,
            "contract": "contracts/BullaFactoring.sol:BullaFactoringV2",
            "label": "creditor",
            "offset": 1,
            "slot": "0",
            "type": "t_address"
          },
          {
            "astId": 15053,
            "contract": "contracts/BullaFactoring.sol:BullaFactoringV2",
            "label": "validUntil",
            "offset": 0,
            "slot": "1",
            "type": "t_uint256"
          },
          {
            "astId": 15055,
            "contract": "contracts/BullaFactoring.sol:BullaFactoringV2",
            "label": "invoiceDueDate",
            "offset": 0,
            "slot": "2",
            "type": "t_uint256"
          },
          {
            "astId": 15057,
            "contract": "contracts/BullaFactoring.sol:BullaFactoringV2",
            "label": "fundedTimestamp",
            "offset": 0,
            "slot": "3",
            "type": "t_uint256"
          },
          {
            "astId": 15060,
            "contract": "contracts/BullaFactoring.sol:BullaFactoringV2",
            "label": "feeParams",
            "offset": 0,
            "slot": "4",
            "type": "t_struct(FeeParams)15035_storage"
          },
          {
            "astId": 15062,
            "contract": "contracts/BullaFactoring.sol:BullaFactoringV2",
            "label": "fundedAmountGross",
            "offset": 0,
            "slot": "5",
            "type": "t_uint256"
          },
          {
            "astId": 15064,
            "contract": "contracts/BullaFactoring.sol:BullaFactoringV2",
            "label": "fundedAmountNet",
            "offset": 0,
            "slot": "6",
            "type": "t_uint256"
          },
          {
            "astId": 15066,
            "contract": "contracts/BullaFactoring.sol:BullaFactoringV2",
            "label": "initialFullInvoiceAmount",
            "offset": 0,
            "slot": "7",
            "type": "t_uint256"
          },
          {
            "astId": 15068,
            "contract": "contracts/BullaFactoring.sol:BullaFactoringV2",
            "label": "initialPaidAmount",
            "offset": 0,
            "slot": "8",
            "type": "t_uint256"
          },
          {
            "astId": 15070,
            "contract": "contracts/BullaFactoring.sol:BullaFactoringV2",
            "label": "receiverAddress",
            "offset": 0,
            "slot": "9",
            "type": "t_address"
          }
        ],
        "numberOfBytes": "320"
      },
      "t_struct(PendingLoanOfferInfo)15047_storage": {
        "encoding": "inplace",
        "label": "struct IBullaFactoringV2.PendingLoanOfferInfo",
        "members": [
          {
            "astId": 15037,
            "contract": "contracts/BullaFactoring.sol:BullaFactoringV2",
            "label": "exists",
            "offset": 0,
            "slot": "0",
            "type": "t_bool"
          },
          {
            "astId": 15039,
            "contract": "contracts/BullaFactoring.sol:BullaFactoringV2",
            "label": "offeredAt",
            "offset": 0,
            "slot": "1",
            "type": "t_uint256"
          },
          {
            "astId": 15041,
            "contract": "contracts/BullaFactoring.sol:BullaFactoringV2",
            "label": "principalAmount",
            "offset": 0,
            "slot": "2",
            "type": "t_uint256"
          },
          {
            "astId": 15043,
            "contract": "contracts/BullaFactoring.sol:BullaFactoringV2",
            "label": "termLength",
            "offset": 0,
            "slot": "3",
            "type": "t_uint256"
          },
          {
            "astId": 15046,
            "contract": "contracts/BullaFactoring.sol:BullaFactoringV2",
            "label": "feeParams",
            "offset": 0,
            "slot": "4",
            "type": "t_struct(FeeParams)15035_storage"
          }
        ],
        "numberOfBytes": "160"
      },
      "t_uint16": {
        "encoding": "inplace",
        "label": "uint16",
        "numberOfBytes": "2"
      },
      "t_uint256": {
        "encoding": "inplace",
        "label": "uint256",
        "numberOfBytes": "32"
      }
    }
  }
}