{"abi":[{"type":"function","name":"disableModule","inputs":[{"name":"prevModule","type":"address","internalType":"address"},{"name":"module","type":"address","internalType":"address"}],"outputs":[],"stateMutability":"nonpayable"},{"type":"function","name":"enableModule","inputs":[{"name":"module","type":"address","internalType":"address"}],"outputs":[],"stateMutability":"nonpayable"},{"type":"function","name":"execTransactionFromModule","inputs":[{"name":"to","type":"address","internalType":"address"},{"name":"value","type":"uint256","internalType":"uint256"},{"name":"data","type":"bytes","internalType":"bytes"},{"name":"operation","type":"uint8","internalType":"enum Enum.Operation"}],"outputs":[{"name":"success","type":"bool","internalType":"bool"}],"stateMutability":"nonpayable"},{"type":"function","name":"execTransactionFromModuleReturnData","inputs":[{"name":"to","type":"address","internalType":"address"},{"name":"value","type":"uint256","internalType":"uint256"},{"name":"data","type":"bytes","internalType":"bytes"},{"name":"operation","type":"uint8","internalType":"enum Enum.Operation"}],"outputs":[{"name":"success","type":"bool","internalType":"bool"},{"name":"returnData","type":"bytes","internalType":"bytes"}],"stateMutability":"nonpayable"},{"type":"function","name":"getModulesPaginated","inputs":[{"name":"start","type":"address","internalType":"address"},{"name":"pageSize","type":"uint256","internalType":"uint256"}],"outputs":[{"name":"array","type":"address[]","internalType":"address[]"},{"name":"next","type":"address","internalType":"address"}],"stateMutability":"view"},{"type":"function","name":"isModuleEnabled","inputs":[{"name":"module","type":"address","internalType":"address"}],"outputs":[{"name":"","type":"bool","internalType":"bool"}],"stateMutability":"view"},{"type":"event","name":"DisabledModule","inputs":[{"name":"module","type":"address","indexed":false,"internalType":"address"}],"anonymous":false},{"type":"event","name":"EnabledModule","inputs":[{"name":"module","type":"address","indexed":false,"internalType":"address"}],"anonymous":false},{"type":"event","name":"ExecutionFromModuleFailure","inputs":[{"name":"module","type":"address","indexed":true,"internalType":"address"}],"anonymous":false},{"type":"event","name":"ExecutionFromModuleSuccess","inputs":[{"name":"module","type":"address","indexed":true,"internalType":"address"}],"anonymous":false}],"bytecode":{"object":"0x6080806040523460155761086f908161001a8239f35b5f80fdfe60806040526004361015610011575f80fd5b5f3560e01c80632d9ad53d14610074578063468721a71461006f5780635229073f1461006a578063610b592514610065578063cc2f8452146100605763e009cfde1461005b575f80fd5b610510565b610418565b610272565b610213565b6101ed565b346100cf5760203660031901126100cf576001600160a01b036100956100d3565b16806001141590816100ae575b50151560805260206080f35b5f908152602081905260409020546001600160a01b031615159050816100a2565b5f80fd5b600435906001600160a01b03821682036100cf57565b602435906001600160a01b03821682036100cf57565b35906001600160a01b03821682036100cf57565b634e487b7160e01b5f52604160045260245ffd5b6040519190601f01601f1916820167ffffffffffffffff81118382101761014d57604052565b610113565b359060028210156100cf57565b60806003198201126100cf5761017560046100ff565b916024359160443567ffffffffffffffff81116100cf57816023820112156100cf5780600401359067ffffffffffffffff821161014d576101bf601f8301601f1916602001610127565b92828452602483830101116100cf57815f926024602093018386013783010152906101ea6064610152565b90565b346100cf5760206102096102003661015f565b92919091610635565b6040519015158152f35b346100cf576102246102003661015f565b60606040519160203d8401016040523d83523d60208401905f823e60405193849215158352604060208401525180918160408501528484015e5f828201840152601f01601f19168101030190f35b346100cf5760203660031901126100cf577fecdf3a3effea5783a3c4c2140e677577666428d44ed9d474a0b3a4c9943f84406103b16102af6100d3565b6102b7610803565b6001600160a01b038116801515806103b6575b6102d3906106f6565b5f525f6020526102ef60018060a01b0360405f2054161561072a565b60015f90815260205261036461032d7fada5013122d395ba3c54772283fb069b10426056ef8ca54750cb9bb552a59e7d5b546001600160a01b031690565b6001600160a01b0383165f9081526020819052604090205b80546001600160a01b0319166001600160a01b03909216919091179055565b60015f908152602052610397817fada5013122d395ba3c54772283fb069b10426056ef8ca54750cb9bb552a59e7d610345565b6040516001600160a01b0390911681529081906020820190565b0390a1005b5060018114156102ca565b9092919260408201906040835280518092526020606084019101915f5b8181106103f9575050602091509360018060a01b0316910152565b83516001600160a01b03168352602093840193909201916001016103de565b346100cf5760403660031901126100cf576104316100d3565b6024356104456104408261075e565b610127565b818152601f196104548361075e565b013660208301376001600160a01b039283165f908152602081905260408120549093165b6001600160a01b0381168015159081610504575b50806104fb575b156104e4576104d8610320826104bf6104de946104b08988610776565b6001600160a01b039091169052565b6001600160a01b03165f90815260208190526040902090565b9361079e565b92610478565b908381526104f7604051928392836103c1565b0390f35b50828410610493565b6001915014155f61048c565b346100cf5760403660031901126100cf576105296100d3565b6105316100e9565b9061053a610803565b6001600160a01b0382168015158061062a575b610556906106f6565b6001600160a01b038281165f9081526020819052604090205416036105fd57816105d36103b1926103456105bd6103207faab4fa2b463f581b2b32cb3b7e3b704b9ce37cc209b5fb4d77e593ace40542769760018060a01b03165f525f60205260405f2090565b9160018060a01b03165f525f60205260405f2090565b6001600160a01b0381165f90815260208190526040902080546001600160a01b0319169055610397565b60405162461bcd60e51b8152602060048201526005602482015264475331303360d81b6044820152606490fd5b50600181141561054d565b919290926001331415806106d6575b156106a957610654935a936107c0565b90811561068257337f6895c13664aa4f67288b25d7a21d7aaa34916e355fb9b6fae0a139a9085becb85f80a2565b337facd2c8702804128fdb0db2bb49f6d127dd0181c13fd45dbfe16de0930e2bd3755f80a2565b60405162461bcd60e51b815260206004820152600560248201526411d4cc4c0d60da1b6044820152606490fd5b50335f908152602081905260409020546001600160a01b03161515610644565b156106fd57565b60405162461bcd60e51b8152602060048201526005602482015264475331303160d81b6044820152606490fd5b1561073157565b60405162461bcd60e51b815260206004820152600560248201526423a998981960d91b6044820152606490fd5b67ffffffffffffffff811161014d5760051b60200190565b805182101561078a5760209160051b010190565b634e487b7160e01b5f52603260045260245ffd5b5f1981146107ac5760010190565b634e487b7160e01b5f52601160045260245ffd5b93909360028410156107ef575f9485946001036107e3575060208351930191f490565b9060208451940192f190565b634e487b7160e01b5f52602160045260245ffd5b30330361080c57565b60405162461bcd60e51b8152602060048201526005602482015264475330333160d81b6044820152606490fdfea2646970667358221220c72668bcd89a59a0ee621d97eef1ebcaa8b6ec3552ec65422ca1fbdd2c183c6864736f6c634300081e0033","linkReferences":{}},"methodIdentifiers":{"disableModule(address,address)":"e009cfde","enableModule(address)":"610b5925","execTransactionFromModule(address,uint256,bytes,uint8)":"468721a7","execTransactionFromModuleReturnData(address,uint256,bytes,uint8)":"5229073f","getModulesPaginated(address,uint256)":"cc2f8452","isModuleEnabled(address)":"2d9ad53d"},"id":76}