{"abi":[{"type":"function","name":"getPermitCreateClaimDigest","inputs":[{"name":"controllerRegistry","type":"IBullaControllerRegistry","internalType":"contract IBullaControllerRegistry"},{"name":"user","type":"address","internalType":"address"},{"name":"controller","type":"address","internalType":"address"},{"name":"approvalType","type":"CreateClaimApprovalType","internalType":"enum CreateClaimApprovalType"},{"name":"approvalCount","type":"uint64","internalType":"uint64"},{"name":"isBindingAllowed","type":"bool","internalType":"bool"},{"name":"nonce","type":"uint64","internalType":"uint64"}],"outputs":[{"name":"","type":"bytes32","internalType":"bytes32"}],"stateMutability":"view"},{"type":"function","name":"getPermitCreateClaimMessage","inputs":[{"name":"controllerRegistry","type":"IBullaControllerRegistry","internalType":"contract IBullaControllerRegistry"},{"name":"controller","type":"address","internalType":"address"},{"name":"approvalType","type":"CreateClaimApprovalType","internalType":"enum CreateClaimApprovalType"},{"name":"approvalCount","type":"uint64","internalType":"uint64"},{"name":"isBindingAllowed","type":"bool","internalType":"bool"}],"outputs":[{"name":"","type":"string","internalType":"string"}],"stateMutability":"view"},{"type":"event","name":"CreateClaimApproved","inputs":[{"name":"user","type":"address","indexed":true,"internalType":"address"},{"name":"controller","type":"address","indexed":true,"internalType":"address"},{"name":"approvalType","type":"uint8","indexed":true,"internalType":"enum CreateClaimApprovalType"},{"name":"approvalCount","type":"uint256","indexed":false,"internalType":"uint256"},{"name":"isBindingAllowed","type":"bool","indexed":false,"internalType":"bool"},{"name":"nonce","type":"uint256","indexed":false,"internalType":"uint256"}],"anonymous":false},{"type":"error","name":"InvalidApproval","inputs":[]},{"type":"error","name":"InvalidSignature","inputs":[]},{"type":"error","name":"StringsInsufficientHexLength","inputs":[{"name":"value","type":"uint256","internalType":"uint256"},{"name":"length","type":"uint256","internalType":"uint256"}]}],"bytecode":{"object":"0x60808060405234601b57610fc190816100208239308160070152f35b5f80fdfe6080604052307f0000000000000000000000000000000000000000000000000000000000000000146004361015610034575f80fd5b5f3560e01c80634bec051c14610434578063b0a531a9146103bb578063b2f4bc39146102145763f920569514610068575f80fd5b61021057610100366003190112610210576004356100846104b8565b5061008d6104ce565b6100956104e4565b9160a435926004841015610210576100ab6104fa565b916100b4610510565b916100be866105f5565b85610193576001600160401b0384161580159061018c575b61017d575f516020610f6c5f395f51905f52926001600160401b038361012e610106836060975460501c16610cc9565b825467ffffffffffffffff60501b191660509190911b67ffffffffffffffff60501b16178255565b805469ffffffffffffffffffff191681555b5460501c169061014f886105f5565b604080516001600160401b0397909716875290151560208701528501526001600160a01b03908116941692a4005b6303e7c1bd60e31b5f5260045ffd5b50826100d6565b6001600160401b0384161561017d575f516020610f6c5f395f51905f52926001600160401b03836101ce610106836060975460501c16610cc9565b80546101d98a6105f5565b69ffffffffffffffff00008860101b169060ff851515169069ffffffffffffffffffff19161761ff008b60081b1617178155610140565b5f80fd5b5061021057610120366003190112610210576004356102316104b8565b6102396104ce565b906102426104e4565b9060a435936004851015610210576102586104fa565b92610261610510565b9261010435906001600160401b0382116102105736602383011215610210578160040135916001600160401b0383116102105736602484830101116102105787925f60206102c6610321958a8c8f8b6001600160401b038e5460501c169b8c95610b71565b6040518281019161190160f01b835260443560228301526042820152604281526102f1606282610543565b5190209280602461030182610578565b9661030f6040519889610543565b82885201838701378401015288610dc1565b156103ac5761032f876105f5565b8661037757506001600160401b0384161580159061018c5761017d575f516020610f6c5f395f51905f52926001600160401b038361012e610106836060975460501c16610cc9565b926001600160401b0385161561017d576001600160401b036060936101ce6101065f516020610f6c5f395f51905f5297610cc9565b638baa579f60e01b5f5260045ffd5b60e0366003190112610210576103cf6104a2565b6103d76104b8565b604435916001600160a01b0383168303610210576064356004811015610210576084356001600160401b03811681036102105760a4359182151583036102105760209561042c956104266104fa565b95610b71565b604051908152f35b60a0366003190112610210576104486104a2565b6104506104b8565b906044356004811015610210576064356001600160401b0381168103610210576084359182151583036102105761049e9461048a94610613565b60405191829160208352602083019061051f565b0390f35b600435906001600160a01b038216820361021057565b602435906001600160a01b038216820361021057565b606435906001600160a01b038216820361021057565b608435906001600160a01b038216820361021057565b60c435906001600160401b038216820361021057565b60e43590811515820361021057565b805180835260209291819084018484015e5f828201840152601f01601f1916010190565b90601f801991011681019081106001600160401b0382111761056457604052565b634e487b7160e01b5f52604160045260245ffd5b6001600160401b03811161056457601f01601f191660200190565b602081830312610210578051906001600160401b038211610210570181601f82011215610210578051906105c682610578565b926105d46040519485610543565b8284526020838301011161021057815f9260208093018386015e8301015290565b600411156105ff57565b634e487b7160e01b5f52602160045260245ffd5b9193926001600160401b0316918215610a535760405163da84f08160e01b81526001600160a01b0380841660048301529092915f9184916024918391165afa918215610a48575f92610a20575b5061066a90610cfa565b936001600160401b0383146109f6578293835f9472184f03e93ff9f4daa797ed6e38ed64bf6a1f0160401b8110156109d0575b50806d04ee2d6d415b85acef8100000000600a9210156109b5575b662386f26fc100008110156109a1575b6305f5e100811015610990575b612710811015610981575b6064811015610973575b1015610969575b6001840194600a602161071c61070689610578565b986107146040519a8b610543565b808a52610578565b602089019790601f19013689378801015b5f1901916f181899199a1a9b1b9c1cb0b131b232b360811b8282061a83530490811561075b57600a9061072d565b5050602095600287600c948194600160149961079e82866109239e6040519485915180918484015e8101600160fd1b838201520301601e19810184520182610543565b925b6107a9816105f5565b1461094f5715610926576042828061085e60596040516107ca604082610543565b6016815275103a3430ba10249031b0b73737ba103932b532b1ba1760511b848201525b6040519384917f20492061636b6e6f776c656467652074686174207468697320636f6e74726163828401527f74206d617920696e64656274206d65206f6e20636c61696d730000000000000060408401528051918291018484015e81015f838201520301601f198101835282610543565b955b6040519c8d9a7f4920617070726f76652074686520666f6c6c6f77696e6720636f6e7472616374828d01526101d160f51b60408d0152805191829101858d015e8a019061040560f31b84830152805192839101604483015e01019061014960f51b848301526903a379031b932b0ba32960b51b6004830152805192839101600e83015e0101907331b630b4b6b99037b71036bc903132b430b6331760611b84830152805192839101602083015e01015f838201520301601f198101835282610543565b90565b6042828061085e605960405161093d604082610543565b60018152601760f91b848201526107ed565b506042826040516109608282610543565b5f815295610860565b92600101926106f1565b6064600291049501946106ea565b612710600491049501946106e0565b6305f5e100600891049501946106d5565b662386f26fc10000601091049501946106c8565b6d04ee2d6d415b85acef8100000000602091049501946106b8565b6040955072184f03e93ff9f4daa797ed6e38ed64bf6a1f0160401b90049050600a61069d565b6014925060208095600282600c94610923986001604051610a178582610543565b5f8152926107a0565b61066a919250610a41903d805f833e610a398183610543565b810190610593565b9190610660565b6040513d5f823e3d90fd5b60405163da84f08160e01b81526001600160a01b0380841660048301529095509193505f925084916024918391165afa908115610a48576002610923926020949285935f92610b4c575b5083610aaa604e92610cfa565b6040519788947f49207265766f6b6520617070726f76616c20666f722074686520666f6c6c6f77828701526d034b7339031b7b73a3930b1ba1d160951b60408701528051918291018587015e84019061040560f31b84830152805192839101605083015e010161014960f51b838201527f746f2063726561746520636c61696d73206f6e206d7920626568616c662e0000600482015203018084520182610543565b604e919250610aaa610b6886923d805f833e610a398183610543565b93925050610a9d565b9592936001600160401b039485929693610c61858484846098604051610b9860c082610543565b8181527f6e67416c6c6f7765642c75696e74323536206e6f6e636529000000000000000060a060208301927f417070726f7665437265617465436c61696d457874656e73696f6e286164647284527f65737320757365722c6164647265737320636f6e74726f6c6c65722c7374726960408201527f6e67206d6573736167652c75696e743820617070726f76616c547970652c756960608201527f6e7432353620617070726f76616c436f756e742c626f6f6c20697342696e646960808201520152209d610613565b8051602091820120604080519283019b8c526001600160a01b039a8b16908301529190981660608901526080880152610c99816105f5565b60a08701521660c0850152151560e0840152166101008201526101008152610cc361012082610543565b51902090565b6001600160401b03166001600160401b038114610ce65760010190565b634e487b7160e01b5f52601160045260245ffd5b604051906001600160a01b031680610d13606084610543565b602a8352602083016040368237835115610dad5760309053825160011015610dad576078602184015360295b60018111610d675750610d50575090565b63e22e27eb60e01b5f52600452601460245260445ffd5b90600f81166010811015610dad578451831015610dad576f181899199a1a9b1b9c1cb0b131b232b360811b901a8483016020015360041c908015610ce6575f1901610d3f565b634e487b7160e01b5f52603260045260245ffd5b9190823b610dfc5790610dd391610eaf565b50610ddd816105f5565b159182610de957505090565b6001600160a01b03918216911614919050565b915f92610e32610e4085946040519283916020830195630b135d3f60e11b8752602484015260406044840152606483019061051f565b03601f198101835282610543565b51915afa3d15610ea8573d610e5481610578565b90610e626040519283610543565b81523d5f602083013e5b81610e9a575b81610e7b575090565b90506020818051810103126102105760200151630b135d3f60e11b1490565b905060208151101590610e72565b6060610e6c565b8151919060418303610edf57610ed89250602082015190606060408401519301515f1a90610ee9565b9192909190565b50505f9160029190565b91907f7fffffffffffffffffffffffffffffff5d576e7357a4501ddfe92f46681b20a08411610f60579160209360809260ff5f9560405194855216868401526040830152606082015282805260015afa15610a48575f516001600160a01b03811615610f5657905f905f90565b505f906001905f90565b5050505f916003919056fe41133cb9ff74fcb4b207e90c7d8629aa505d6145e4c491b7806f45731fd2a2cea2646970667358221220dd3e068b720e84b986b55ec9c55ce6883d51e1db1287426ab9da73f22b03fd5464736f6c634300081e0033","linkReferences":{}},"methodIdentifiers":{"approveCreateClaim(Approvals storage,IBullaControllerRegistry,bytes32,address,address,CreateClaimApprovalType,uint64,bool)":"f9205695","getPermitCreateClaimDigest(IBullaControllerRegistry,address,address,CreateClaimApprovalType,uint64,bool,uint64)":"b0a531a9","getPermitCreateClaimMessage(IBullaControllerRegistry,address,CreateClaimApprovalType,uint64,bool)":"4bec051c","permitCreateClaim(Approvals storage,IBullaControllerRegistry,bytes32,address,address,CreateClaimApprovalType,uint64,bool,bytes)":"b2f4bc39"},"id":67}