{"abi":[{"type":"constructor","inputs":[{"name":"_approvalRegistry","type":"address","internalType":"address"},{"name":"_lockState","type":"uint8","internalType":"enum LockState"},{"name":"_coreProtocolFee","type":"uint256","internalType":"uint256"},{"name":"_feeExemptions","type":"address","internalType":"address"}],"stateMutability":"nonpayable"},{"type":"function","name":"CORE_PROTOCOL_FEE","inputs":[],"outputs":[{"name":"","type":"uint256","internalType":"uint256"}],"stateMutability":"view"},{"type":"function","name":"approvalRegistry","inputs":[],"outputs":[{"name":"","type":"address","internalType":"contract IBullaApprovalRegistry"}],"stateMutability":"view"},{"type":"function","name":"approve","inputs":[{"name":"to","type":"address","internalType":"address"},{"name":"claimId","type":"uint256","internalType":"uint256"}],"outputs":[],"stateMutability":"nonpayable"},{"type":"function","name":"approveFrom","inputs":[{"name":"from","type":"address","internalType":"address"},{"name":"to","type":"address","internalType":"address"},{"name":"claimId","type":"uint256","internalType":"uint256"}],"outputs":[],"stateMutability":"nonpayable"},{"type":"function","name":"balanceOf","inputs":[{"name":"owner","type":"address","internalType":"address"}],"outputs":[{"name":"","type":"uint256","internalType":"uint256"}],"stateMutability":"view"},{"type":"function","name":"cancelClaim","inputs":[{"name":"claimId","type":"uint256","internalType":"uint256"},{"name":"note","type":"string","internalType":"string"}],"outputs":[],"stateMutability":"nonpayable"},{"type":"function","name":"cancelClaimFrom","inputs":[{"name":"from","type":"address","internalType":"address"},{"name":"claimId","type":"uint256","internalType":"uint256"},{"name":"note","type":"string","internalType":"string"}],"outputs":[],"stateMutability":"nonpayable"},{"type":"function","name":"claimMetadata","inputs":[{"name":"","type":"uint256","internalType":"uint256"}],"outputs":[{"name":"tokenURI","type":"string","internalType":"string"},{"name":"attachmentURI","type":"string","internalType":"string"}],"stateMutability":"view"},{"type":"function","name":"claimMetadataGenerator","inputs":[],"outputs":[{"name":"","type":"address","internalType":"contract IClaimMetadataGenerator"}],"stateMutability":"view"},{"type":"function","name":"createClaim","inputs":[{"name":"params","type":"tuple","internalType":"struct CreateClaimParams","components":[{"name":"creditor","type":"address","internalType":"address"},{"name":"debtor","type":"address","internalType":"address"},{"name":"claimAmount","type":"uint256","internalType":"uint256"},{"name":"description","type":"string","internalType":"string"},{"name":"token","type":"address","internalType":"address"},{"name":"binding","type":"uint8","internalType":"enum ClaimBinding"},{"name":"dueBy","type":"uint256","internalType":"uint256"},{"name":"impairmentGracePeriod","type":"uint256","internalType":"uint256"}]}],"outputs":[{"name":"","type":"uint256","internalType":"uint256"}],"stateMutability":"payable"},{"type":"function","name":"createClaimFrom","inputs":[{"name":"from","type":"address","internalType":"address"},{"name":"params","type":"tuple","internalType":"struct CreateClaimParams","components":[{"name":"creditor","type":"address","internalType":"address"},{"name":"debtor","type":"address","internalType":"address"},{"name":"claimAmount","type":"uint256","internalType":"uint256"},{"name":"description","type":"string","internalType":"string"},{"name":"token","type":"address","internalType":"address"},{"name":"binding","type":"uint8","internalType":"enum ClaimBinding"},{"name":"dueBy","type":"uint256","internalType":"uint256"},{"name":"impairmentGracePeriod","type":"uint256","internalType":"uint256"}]}],"outputs":[{"name":"","type":"uint256","internalType":"uint256"}],"stateMutability":"payable"},{"type":"function","name":"createClaimWithMetadata","inputs":[{"name":"params","type":"tuple","internalType":"struct CreateClaimParams","components":[{"name":"creditor","type":"address","internalType":"address"},{"name":"debtor","type":"address","internalType":"address"},{"name":"claimAmount","type":"uint256","internalType":"uint256"},{"name":"description","type":"string","internalType":"string"},{"name":"token","type":"address","internalType":"address"},{"name":"binding","type":"uint8","internalType":"enum ClaimBinding"},{"name":"dueBy","type":"uint256","internalType":"uint256"},{"name":"impairmentGracePeriod","type":"uint256","internalType":"uint256"}]},{"name":"metadata","type":"tuple","internalType":"struct ClaimMetadata","components":[{"name":"tokenURI","type":"string","internalType":"string"},{"name":"attachmentURI","type":"string","internalType":"string"}]}],"outputs":[{"name":"","type":"uint256","internalType":"uint256"}],"stateMutability":"payable"},{"type":"function","name":"createClaimWithMetadataFrom","inputs":[{"name":"from","type":"address","internalType":"address"},{"name":"params","type":"tuple","internalType":"struct CreateClaimParams","components":[{"name":"creditor","type":"address","internalType":"address"},{"name":"debtor","type":"address","internalType":"address"},{"name":"claimAmount","type":"uint256","internalType":"uint256"},{"name":"description","type":"string","internalType":"string"},{"name":"token","type":"address","internalType":"address"},{"name":"binding","type":"uint8","internalType":"enum ClaimBinding"},{"name":"dueBy","type":"uint256","internalType":"uint256"},{"name":"impairmentGracePeriod","type":"uint256","internalType":"uint256"}]},{"name":"metadata","type":"tuple","internalType":"struct ClaimMetadata","components":[{"name":"tokenURI","type":"string","internalType":"string"},{"name":"attachmentURI","type":"string","internalType":"string"}]}],"outputs":[{"name":"","type":"uint256","internalType":"uint256"}],"stateMutability":"payable"},{"type":"function","name":"currentClaimId","inputs":[],"outputs":[{"name":"","type":"uint256","internalType":"uint256"}],"stateMutability":"view"},{"type":"function","name":"feeExemptions","inputs":[],"outputs":[{"name":"","type":"address","internalType":"contract IPermissions"}],"stateMutability":"view"},{"type":"function","name":"getApproved","inputs":[{"name":"tokenId","type":"uint256","internalType":"uint256"}],"outputs":[{"name":"","type":"address","internalType":"address"}],"stateMutability":"view"},{"type":"function","name":"getClaim","inputs":[{"name":"claimId","type":"uint256","internalType":"uint256"}],"outputs":[{"name":"claim","type":"tuple","internalType":"struct Claim","components":[{"name":"claimAmount","type":"uint256","internalType":"uint256"},{"name":"paidAmount","type":"uint256","internalType":"uint256"},{"name":"dueBy","type":"uint256","internalType":"uint256"},{"name":"impairmentGracePeriod","type":"uint256","internalType":"uint256"},{"name":"originalCreditor","type":"address","internalType":"address"},{"name":"debtor","type":"address","internalType":"address"},{"name":"creditor","type":"address","internalType":"address"},{"name":"token","type":"address","internalType":"address"},{"name":"controller","type":"address","internalType":"address"},{"name":"status","type":"uint8","internalType":"enum Status"},{"name":"binding","type":"uint8","internalType":"enum ClaimBinding"}]}],"stateMutability":"view"},{"type":"function","name":"impairClaim","inputs":[{"name":"claimId","type":"uint256","internalType":"uint256"}],"outputs":[],"stateMutability":"nonpayable"},{"type":"function","name":"impairClaimFrom","inputs":[{"name":"from","type":"address","internalType":"address"},{"name":"claimId","type":"uint256","internalType":"uint256"}],"outputs":[],"stateMutability":"nonpayable"},{"type":"function","name":"isApprovedForAll","inputs":[{"name":"owner","type":"address","internalType":"address"},{"name":"operator","type":"address","internalType":"address"}],"outputs":[{"name":"","type":"bool","internalType":"bool"}],"stateMutability":"view"},{"type":"function","name":"lockState","inputs":[],"outputs":[{"name":"","type":"uint8","internalType":"enum LockState"}],"stateMutability":"view"},{"type":"function","name":"markClaimAsPaid","inputs":[{"name":"claimId","type":"uint256","internalType":"uint256"}],"outputs":[],"stateMutability":"nonpayable"},{"type":"function","name":"markClaimAsPaidFrom","inputs":[{"name":"from","type":"address","internalType":"address"},{"name":"claimId","type":"uint256","internalType":"uint256"}],"outputs":[],"stateMutability":"nonpayable"},{"type":"function","name":"name","inputs":[],"outputs":[{"name":"","type":"string","internalType":"string"}],"stateMutability":"view"},{"type":"function","name":"owner","inputs":[],"outputs":[{"name":"","type":"address","internalType":"address"}],"stateMutability":"view"},{"type":"function","name":"ownerOf","inputs":[{"name":"claimId","type":"uint256","internalType":"uint256"}],"outputs":[{"name":"","type":"address","internalType":"address"}],"stateMutability":"view"},{"type":"function","name":"payClaim","inputs":[{"name":"claimId","type":"uint256","internalType":"uint256"},{"name":"amount","type":"uint256","internalType":"uint256"}],"outputs":[],"stateMutability":"payable"},{"type":"function","name":"payClaimFrom","inputs":[{"name":"from","type":"address","internalType":"address"},{"name":"claimId","type":"uint256","internalType":"uint256"},{"name":"amount","type":"uint256","internalType":"uint256"}],"outputs":[],"stateMutability":"payable"},{"type":"function","name":"payClaimFromControllerWithoutTransfer","inputs":[{"name":"from","type":"address","internalType":"address"},{"name":"claimId","type":"uint256","internalType":"uint256"},{"name":"amount","type":"uint256","internalType":"uint256"}],"outputs":[],"stateMutability":"nonpayable"},{"type":"function","name":"renounceOwnership","inputs":[],"outputs":[],"stateMutability":"nonpayable"},{"type":"function","name":"safeTransferFrom","inputs":[{"name":"from","type":"address","internalType":"address"},{"name":"to","type":"address","internalType":"address"},{"name":"tokenId","type":"uint256","internalType":"uint256"}],"outputs":[],"stateMutability":"nonpayable"},{"type":"function","name":"safeTransferFrom","inputs":[{"name":"from","type":"address","internalType":"address"},{"name":"to","type":"address","internalType":"address"},{"name":"claimId","type":"uint256","internalType":"uint256"},{"name":"data","type":"bytes","internalType":"bytes"}],"outputs":[],"stateMutability":"nonpayable"},{"type":"function","name":"safeTransferFromFrom","inputs":[{"name":"fromAkaOriginalMsgSender","type":"address","internalType":"address"},{"name":"fromAkaNftOwner","type":"address","internalType":"address"},{"name":"to","type":"address","internalType":"address"},{"name":"claimId","type":"uint256","internalType":"uint256"},{"name":"data","type":"bytes","internalType":"bytes"}],"outputs":[],"stateMutability":"nonpayable"},{"type":"function","name":"setApprovalForAll","inputs":[{"name":"","type":"address","internalType":"address"},{"name":"","type":"bool","internalType":"bool"}],"outputs":[],"stateMutability":"pure"},{"type":"function","name":"setClaimMetadataGenerator","inputs":[{"name":"_metadataGenerator","type":"address","internalType":"address"}],"outputs":[],"stateMutability":"nonpayable"},{"type":"function","name":"setCoreProtocolFee","inputs":[{"name":"_coreProtocolFee","type":"uint256","internalType":"uint256"}],"outputs":[],"stateMutability":"nonpayable"},{"type":"function","name":"setFeeExemptions","inputs":[{"name":"_feeExemptions","type":"address","internalType":"address"}],"outputs":[],"stateMutability":"nonpayable"},{"type":"function","name":"setLockState","inputs":[{"name":"_lockState","type":"uint8","internalType":"enum LockState"}],"outputs":[],"stateMutability":"nonpayable"},{"type":"function","name":"supportsInterface","inputs":[{"name":"interfaceId","type":"bytes4","internalType":"bytes4"}],"outputs":[{"name":"","type":"bool","internalType":"bool"}],"stateMutability":"view"},{"type":"function","name":"symbol","inputs":[],"outputs":[{"name":"","type":"string","internalType":"string"}],"stateMutability":"view"},{"type":"function","name":"tokenURI","inputs":[{"name":"claimId","type":"uint256","internalType":"uint256"}],"outputs":[{"name":"","type":"string","internalType":"string"}],"stateMutability":"view"},{"type":"function","name":"transferFrom","inputs":[{"name":"from","type":"address","internalType":"address"},{"name":"to","type":"address","internalType":"address"},{"name":"claimId","type":"uint256","internalType":"uint256"}],"outputs":[],"stateMutability":"nonpayable"},{"type":"function","name":"transferFromFrom","inputs":[{"name":"fromAkaOriginalMsgSender","type":"address","internalType":"address"},{"name":"fromAkaNftOwner","type":"address","internalType":"address"},{"name":"to","type":"address","internalType":"address"},{"name":"claimId","type":"uint256","internalType":"uint256"}],"outputs":[],"stateMutability":"nonpayable"},{"type":"function","name":"transferOwnership","inputs":[{"name":"newOwner","type":"address","internalType":"address"}],"outputs":[],"stateMutability":"nonpayable"},{"type":"function","name":"updateBinding","inputs":[{"name":"claimId","type":"uint256","internalType":"uint256"},{"name":"binding","type":"uint8","internalType":"enum ClaimBinding"}],"outputs":[],"stateMutability":"nonpayable"},{"type":"function","name":"updateBindingFrom","inputs":[{"name":"from","type":"address","internalType":"address"},{"name":"claimId","type":"uint256","internalType":"uint256"},{"name":"binding","type":"uint8","internalType":"enum ClaimBinding"}],"outputs":[],"stateMutability":"nonpayable"},{"type":"function","name":"withdrawAllFees","inputs":[],"outputs":[],"stateMutability":"nonpayable"},{"type":"event","name":"Approval","inputs":[{"name":"owner","type":"address","indexed":true,"internalType":"address"},{"name":"approved","type":"address","indexed":true,"internalType":"address"},{"name":"tokenId","type":"uint256","indexed":true,"internalType":"uint256"}],"anonymous":false},{"type":"event","name":"ApprovalForAll","inputs":[{"name":"owner","type":"address","indexed":true,"internalType":"address"},{"name":"operator","type":"address","indexed":true,"internalType":"address"},{"name":"approved","type":"bool","indexed":false,"internalType":"bool"}],"anonymous":false},{"type":"event","name":"BindingUpdated","inputs":[{"name":"claimId","type":"uint256","indexed":true,"internalType":"uint256"},{"name":"from","type":"address","indexed":true,"internalType":"address"},{"name":"binding","type":"uint8","indexed":true,"internalType":"enum ClaimBinding"}],"anonymous":false},{"type":"event","name":"ClaimCreated","inputs":[{"name":"claimId","type":"uint256","indexed":true,"internalType":"uint256"},{"name":"from","type":"address","indexed":false,"internalType":"address"},{"name":"creditor","type":"address","indexed":true,"internalType":"address"},{"name":"debtor","type":"address","indexed":true,"internalType":"address"},{"name":"claimAmount","type":"uint256","indexed":false,"internalType":"uint256"},{"name":"dueBy","type":"uint256","indexed":false,"internalType":"uint256"},{"name":"description","type":"string","indexed":false,"internalType":"string"},{"name":"token","type":"address","indexed":false,"internalType":"address"},{"name":"controller","type":"address","indexed":false,"internalType":"address"},{"name":"binding","type":"uint8","indexed":false,"internalType":"enum ClaimBinding"}],"anonymous":false},{"type":"event","name":"ClaimImpaired","inputs":[{"name":"claimId","type":"uint256","indexed":true,"internalType":"uint256"}],"anonymous":false},{"type":"event","name":"ClaimMarkedAsPaid","inputs":[{"name":"claimId","type":"uint256","indexed":true,"internalType":"uint256"}],"anonymous":false},{"type":"event","name":"ClaimPayment","inputs":[{"name":"claimId","type":"uint256","indexed":true,"internalType":"uint256"},{"name":"paidBy","type":"address","indexed":true,"internalType":"address"},{"name":"paymentAmount","type":"uint256","indexed":false,"internalType":"uint256"},{"name":"totalPaidAmount","type":"uint256","indexed":false,"internalType":"uint256"}],"anonymous":false},{"type":"event","name":"ClaimRejected","inputs":[{"name":"claimId","type":"uint256","indexed":true,"internalType":"uint256"},{"name":"from","type":"address","indexed":true,"internalType":"address"},{"name":"note","type":"string","indexed":false,"internalType":"string"}],"anonymous":false},{"type":"event","name":"ClaimRescinded","inputs":[{"name":"claimId","type":"uint256","indexed":true,"internalType":"uint256"},{"name":"from","type":"address","indexed":true,"internalType":"address"},{"name":"note","type":"string","indexed":false,"internalType":"string"}],"anonymous":false},{"type":"event","name":"FeeWithdrawn","inputs":[{"name":"owner","type":"address","indexed":true,"internalType":"address"},{"name":"amount","type":"uint256","indexed":false,"internalType":"uint256"}],"anonymous":false},{"type":"event","name":"MetadataAdded","inputs":[{"name":"claimId","type":"uint256","indexed":true,"internalType":"uint256"},{"name":"tokenURI","type":"string","indexed":false,"internalType":"string"},{"name":"attachmentURI","type":"string","indexed":false,"internalType":"string"}],"anonymous":false},{"type":"event","name":"OwnershipTransferred","inputs":[{"name":"previousOwner","type":"address","indexed":true,"internalType":"address"},{"name":"newOwner","type":"address","indexed":true,"internalType":"address"}],"anonymous":false},{"type":"event","name":"Transfer","inputs":[{"name":"from","type":"address","indexed":true,"internalType":"address"},{"name":"to","type":"address","indexed":true,"internalType":"address"},{"name":"tokenId","type":"uint256","indexed":true,"internalType":"uint256"}],"anonymous":false},{"type":"error","name":"ApprovalExpired","inputs":[]},{"type":"error","name":"CannotBindClaim","inputs":[]},{"type":"error","name":"ClaimBound","inputs":[]},{"type":"error","name":"ClaimNotPending","inputs":[]},{"type":"error","name":"ClaimPending","inputs":[]},{"type":"error","name":"ERC721IncorrectOwner","inputs":[{"name":"sender","type":"address","internalType":"address"},{"name":"tokenId","type":"uint256","internalType":"uint256"},{"name":"owner","type":"address","internalType":"address"}]},{"type":"error","name":"ERC721InsufficientApproval","inputs":[{"name":"operator","type":"address","internalType":"address"},{"name":"tokenId","type":"uint256","internalType":"uint256"}]},{"type":"error","name":"ERC721InvalidApprover","inputs":[{"name":"approver","type":"address","internalType":"address"}]},{"type":"error","name":"ERC721InvalidOperator","inputs":[{"name":"operator","type":"address","internalType":"address"}]},{"type":"error","name":"ERC721InvalidOwner","inputs":[{"name":"owner","type":"address","internalType":"address"}]},{"type":"error","name":"ERC721InvalidReceiver","inputs":[{"name":"receiver","type":"address","internalType":"address"}]},{"type":"error","name":"ERC721InvalidSender","inputs":[{"name":"sender","type":"address","internalType":"address"}]},{"type":"error","name":"ERC721NonexistentToken","inputs":[{"name":"tokenId","type":"uint256","internalType":"uint256"}]},{"type":"error","name":"IncorrectFee","inputs":[]},{"type":"error","name":"IncorrectMsgValue","inputs":[]},{"type":"error","name":"InvalidInterface","inputs":[]},{"type":"error","name":"Locked","inputs":[]},{"type":"error","name":"MustBeControlledClaim","inputs":[]},{"type":"error","name":"NotApproved","inputs":[]},{"type":"error","name":"NotController","inputs":[{"name":"sender","type":"address","internalType":"address"}]},{"type":"error","name":"NotCreditor","inputs":[]},{"type":"error","name":"NotCreditorOrDebtor","inputs":[]},{"type":"error","name":"NotMinted","inputs":[]},{"type":"error","name":"NotOwner","inputs":[]},{"type":"error","name":"NotSupported","inputs":[]},{"type":"error","name":"OverPaying","inputs":[{"name":"paymentAmount","type":"uint256","internalType":"uint256"}]},{"type":"error","name":"OwnableInvalidOwner","inputs":[{"name":"owner","type":"address","internalType":"address"}]},{"type":"error","name":"OwnableUnauthorizedAccount","inputs":[{"name":"account","type":"address","internalType":"address"}]},{"type":"error","name":"PastApprovalDeadline","inputs":[]},{"type":"error","name":"PayingZero","inputs":[]},{"type":"error","name":"PaymentUnderApproved","inputs":[]},{"type":"error","name":"WithdrawalFailed","inputs":[]}],"bytecode":{"object":"0x6080604052346103fa576134df6080813803918261001c816103fe565b9384928339810103126103fa5761003281610423565b9060208101519060038210156103fa57610053606060408301519201610423565b9161005e60406103fe565b600c81526b213ab63630a1b630b4b6ab1960a11b602082015261008160406103fe565b6005815264434c41494d60d81b6020820152815190916001600160401b038211610301575f5490600182811c921680156103f0575b60208310146102e35781601f849311610383575b50602090601f8311600114610320575f92610315575b50508160011b915f199060031b1c1916175f555b8051906001600160401b0382116103015760015490600182811c921680156102f7575b60208310146102e35781601f849311610275575b50602090601f831160011461020f575f92610204575b50508160011b915f199060031b1c1916176001555b33156101f15760068054336001600160a01b0319821681179092556040519591906001600160a01b03167f8be0079c531659141344cd1fd0a4f28419497f9722a3daafe3b4186f6b6457e05f80a360018060a01b031660018060a01b0319600b541617600b5560ff801960095416911617600955600d5560018060a01b031660018060a01b0319600e541617600e556130a790816104388239f35b631e4fbdf760e01b5f525f60045260245ffd5b015190505f80610141565b60015f9081528281209350601f198516905b81811061025d5750908460019594939210610245575b505050811b01600155610156565b01515f1960f88460031b161c191690555f8080610237565b92936020600181928786015181550195019301610221565b60015f529091507fb10e2d527612073b26eecdfd717e6a320cf44b4afac2b0732d9fcbe2b7fa0cf6601f840160051c810191602085106102d9575b90601f859493920160051c01905b8181106102cb575061012b565b5f81558493506001016102be565b90915081906102b0565b634e487b7160e01b5f52602260045260245ffd5b91607f1691610117565b634e487b7160e01b5f52604160045260245ffd5b015190505f806100e0565b5f8080528281209350601f198516905b81811061036b5750908460019594939210610353575b505050811b015f556100f4565b01515f1960f88460031b161c191690555f8080610346565b92936020600181928786015181550195019301610330565b5f80529091507f290decd9548b62a8d60345a988386fc84ba6bc95484008f6362f93160ef3e563601f840160051c810191602085106103e6575b90601f859493920160051c01905b8181106103d857506100ca565b5f81558493506001016103cb565b90915081906103bd565b91607f16916100b6565b5f80fd5b6040519190601f01601f191682016001600160401b0381118382101761030157604052565b51906001600160a01b03821682036103fa5756fe60806040526004361015610011575f80fd5b5f3560e01c80624b3829146103025780628c1075146102fd57806301a2cae8146102f857806301ffc9a7146102f357806306fdde03146102ee578063081812fc146102e9578063083c8182146102e4578063095ea7b3146102df5780631461f126146102da578063185a34f2146102d55780631cecb254146102d057806320d436d3146102cb57806323b872dd146102c657806328f60a7c146102c15780632a982aeb146102bc5780633081ed8a146102b757806342842e0e146102b257806343d073bb146102ad57806346be9c48146102a857806352ec8529146102a35780635aef24471461029e5780635edc84eb146102995780636352211e146102945780636418bde91461028f57806364af66921461028a5780636d92837514610285578063708cf8321461028057806370a082311461027b578063715018a61461027657806372806c5a146102715780638204c6271461026c5780638da5cb5b1461026757806395d89b4114610262578063a22cb4651461025d578063af236af414610258578063af9fe4de14610253578063b88d4fde1461024e578063b8f3426914610249578063ba9a809414610244578063c07cae881461023f578063c1e040451461023a578063c87b56dd14610235578063c99c444814610230578063d3e397501461022b578063e985e9c514610226578063f2fde38b146102215763fcf391e01461021c575f80fd5b611478565b6113ee565b61138a565b611343565b61131e565b6112eb565b611294565b611257565b611224565b6111fc565b6111a5565b6110c6565b61103c565b611006565b610f57565b610f2f565b610f12565b610ef5565b610e9a565b610e45565b610de0565b610d57565b610c1f565b610bce565b610b9c565b610b73565b610b45565b610a3e565b610a15565b6109b2565b610973565b61092e565b6108e9565b6108cc565b6108b4565b610867565b61084a565b61080c565b610745565b61071b565b6106d4565b610698565b6105c5565b61051f565b6104e5565b61046e565b610346565b6001600160a01b0381160361031857565b5f80fd5b359061032782610307565b565b90816101009103126103185790565b908160409103126103185790565b60603660031901126103185760043561035e81610307565b6024356001600160401b0381116103185761037d903690600401610329565b906044356001600160401b0381116103185761039d903690600401610338565b600b546001600160a01b0316926103b3816114f6565b6103bf602083016114f6565b946103cc60a08401611500565b90803b15610318576103fa965f8094604051998a95869485936372d1ce4960e11b8552338d6004870161150a565b03925af192831561044657610428946104189461042c575b50611b5e565b6040519081529081906020820190565b0390f35b8061043a5f61044093610c93565b806104db565b5f610412565b611545565b60609060031901126103185760043561046381610307565b906024359060443590565b346103185761047c3661044b565b90610486816116b0565b610100810180519192916001600160a01b0316156104cc57516001600160a01b031633036104b9576104b793611d38565b005b633338cdbd60e11b5f523360045260245ffd5b630749596360e11b5f5260045ffd5b5f91031261031857565b34610318575f36600319011261031857600e546040516001600160a01b039091168152602090f35b6001600160e01b031981160361031857565b3461031857602036600319011261031857602060043561053e8161050d565b63ffffffff60e01b166380ac58cd60e01b811490811561057c575b811561056b575b506040519015158152f35b6301ffc9a760e01b1490505f610560565b635b5e139f60e01b81149150610559565b805180835260209291819084018484015e5f828201840152601f01601f1916010190565b9060206105c292818152019061058d565b90565b34610318575f366003190112610318576040515f5f546105e481610c47565b80845290600181169081156106745750600114610618575b6104288361060c81850382610c93565b604051918291826105b1565b5f8080527f290decd9548b62a8d60345a988386fc84ba6bc95484008f6362f93160ef3e563939250905b80821061065a5750909150810160200161060c6105fc565b919260018160209254838588010152019101909291610642565b60ff191660208086019190915291151560051b8401909101915061060c90506105fc565b34610318576020366003190112610318576004356106b581611e58565b505f526004602052602060018060a01b0360405f205416604051908152f35b34610318576020366003190112610318576004356106f181610307565b6106f9611e8c565b600e80546001600160a01b0319166001600160a01b0392909216919091179055005b34610318576040366003190112610318576104b760043561073b81610307565b6024359033611eb3565b60403660031901126103185760043561075d81610307565b6024356001600160401b0381116103185761077c903690600401610329565b600b546001600160a01b03169190610793816114f6565b61079f602083016114f6565b936107ac60a08401611500565b90803b15610318576107da955f8094604051988995869485936372d1ce4960e11b8552338c6004870161150a565b03925af19182156104465761042893610418936107f8575b5061217e565b8061043a5f61080693610c93565b5f6107f2565b6020366003190112610318576004356001600160401b0381116103185761084261083c6020923690600401610329565b3361217e565b604051908152f35b34610318576020366003190112610318576104b7600435336124e7565b3461031857602036600319011261031857600435610883611e8c565b600d55005b6060906003190112610318576004356108a081610307565b906024356108ad81610307565b9060443590565b34610318576104b76108c536610888565b9133612607565b34610318576020366003190112610318576104b7600435336126b2565b346103185760403660031901126103185760043561090681610307565b6024356001600160a01b0361010061091d836116b0565b015116156104cc576104b7916124e7565b346103185760403660031901126103185760043561094b81610307565b6024356001600160a01b03610100610962836116b0565b015116156104cc576104b7916126b2565b34610318576104b761098436610888565b9060405192610994602085610c93565b5f845233612ab8565b6003111561031857565b35906103278261099d565b34610318576020366003190112610318576004356109cf8161099d565b6109d7611e8c565b6109e081610a06565b60ff8019600954169116176009555f80f35b634e487b7160e01b5f52602160045260245ffd5b60031115610a1057565b6109f2565b34610318575f36600319011261031857602060ff6009541660405190610a3a81610a06565b8152f35b3461031857610a4c36610888565b906001600160a01b03610100610a61846116b0565b015116156104cc576104b792611eb3565b60061115610a1057565b906006821015610a105752565b90610a9382610a06565b52565b90610140806103279380518452602081015160208501526040810151604085015260608101516060850152610ada6080820151608086019060018060a01b03169052565b60a0818101516001600160a01b03169085015260c0818101516001600160a01b03169085015260e0818101516001600160a01b031690850152610100818101516001600160a01b031690850152610b3b610120820151610120860190610a7c565b0151910190610a89565b3461031857602036600319011261031857610160610b646004356116b0565b610b716040518092610a96565bf35b34610318576040366003190112610318576104b7602435600435610b968261099d565b336127fe565b34610318576020366003190112610318576004355f526002602052602060018060a01b0360405f205416604051908152f35b3461031857606036600319011261031857600435610beb81610307565b604435602435610bfa8261099d565b6001600160a01b03610100610c0e836116b0565b015116156104cc576104b7926127fe565b34610318575f36600319011261031857600b546040516001600160a01b039091168152602090f35b90600182811c92168015610c75575b6020831014610c6157565b634e487b7160e01b5f52602260045260245ffd5b91607f1691610c56565b634e487b7160e01b5f52604160045260245ffd5b90601f801991011681019081106001600160401b03821117610cb457604052565b610c7f565b9060405191825f825492610ccc84610c47565b8084529360018116908115610d355750600114610cf1575b5061032792500383610c93565b90505f9291925260205f20905f915b818310610d19575050906020610327928201015f610ce4565b6020919350806001915483858901015201910190918492610d00565b90506020925061032794915060ff191682840152151560051b8201015f610ce4565b34610318576020366003190112610318576004355f526008602052610da560405f20610428610d916001610d8a84610cb9565b9301610cb9565b60405193849360408552604085019061058d565b90838203602085015261058d565b9181601f84011215610318578235916001600160401b038311610318576020838186019501011161031857565b3461031857606036600319011261031857600435610dfd81610307565b6024356044356001600160401b03811161031857610e1f903690600401610db3565b916001600160a01b03610100610e34836116b0565b015116156104cc576104b793612925565b3461031857602036600319011261031857600435610e6281610307565b6001600160a01b03168015610e87575f526003602052602060405f2054604051908152f35b6322718ad960e21b5f525f60045260245ffd5b34610318575f36600319011261031857610eb2611e8c565b600680546001600160a01b031981169091555f906001600160a01b03167f8be0079c531659141344cd1fd0a4f28419497f9722a3daafe3b4186f6b6457e08280a3005b34610318575f366003190112610318576020600a54604051908152f35b34610318575f366003190112610318576020600d54604051908152f35b34610318575f366003190112610318576006546040516001600160a01b039091168152602090f35b34610318575f366003190112610318576040515f600154610f7781610c47565b80845290600181169081156106745750600114610f9e576104288361060c81850382610c93565b60015f9081527fb10e2d527612073b26eecdfd717e6a320cf44b4afac2b0732d9fcbe2b7fa0cf6939250905b808210610fe25750909150810160200161060c6105fc565b919260018160209254838588010152019101909291610fca565b8015150361031857565b3461031857604036600319011261031857611022600435610307565b61102d602435610ffc565b630280e1e560e61b5f5260045ffd5b34610318575f36600319011261031857611054611e8c565b478061105c57005b5f8080808460018060a01b03600654165af161107661184f565b50156110b7576006546040519182526001600160a01b0316907f78473f3f373f7673597f4f0fa5873cb4d375fea6d4339ad6b56dbd411513cb3f90602090a2005b6327fcd9d160e01b5f5260045ffd5b34610318576080366003190112610318576004356110e381610307565b6024356110ef81610307565b6044356110fb81610307565b606435916001600160a01b03610100611113856116b0565b015116156104cc576104b793612607565b6040519061032761014083610c93565b6040519061032761016083610c93565b6001600160401b038111610cb457601f01601f191660200190565b81601f820112156103185780359061117682611144565b926111846040519485610c93565b8284526020838301011161031857815f926020809301838601378301015290565b34610318576080366003190112610318576004356111c281610307565b602435906111cf82610307565b604435606435926001600160401b038411610318576111f56104b794369060040161115f565b9233612ab8565b34610318575f36600319011261031857600c546040516001600160a01b039091168152602090f35b61122d3661044b565b90611237816116b0565b6101008101519091906001600160a01b0316156104cc576104b793612bb5565b34610318576040366003190112610318576024356004356001600160401b0382116103185761128d6104b7923690600401610db3565b9133612925565b6040366003190112610318576004356001600160401b038111610318576112bf903690600401610329565b6024356001600160401b038111610318576020916112e4610842923690600401610338565b9033611b5e565b346103185760203660031901126103185761042861130a60043561190b565b60405191829160208352602083019061058d565b6040366003190112610318576104b760243560043561133c816116b0565b9033612bb5565b346103185760203660031901126103185760043561136081610307565b611368611e8c565b600c80546001600160a01b0319166001600160a01b0392909216919091179055005b3461031857604036600319011261031857602060ff6113e26004356113ae81610307565b602435906113bb82610307565b60018060a01b03165f526005845260405f209060018060a01b03165f5260205260405f2090565b54166040519015158152f35b346103185760203660031901126103185760043561140b81610307565b611413611e8c565b6001600160a01b0316801561146557600680546001600160a01b0319811683179091556001600160a01b03167f8be0079c531659141344cd1fd0a4f28419497f9722a3daafe3b4186f6b6457e05f80a3005b631e4fbdf760e01b5f525f60045260245ffd5b346103185760a03660031901126103185760043561149581610307565b6024356114a181610307565b6044356114ad81610307565b606435906084356001600160401b038111610318576114d090369060040161115f565b926001600160a01b036101006114e5856116b0565b015116156104cc576104b794612ab8565b356105c281610307565b356105c28161099d565b6001600160a01b039182168152918116602083015291821660408201529116606082015260a0810192919060809061154183610a06565b0152565b6040513d5f823e3d90fd5b6040519061016082018281106001600160401b03821117610cb4576040525f610140838281528260208201528260408201528260608201528260808201528260a08201528260c08201528260e082015282610100820152826101208201520152565b6006821015610a105752565b610a9382610a06565b906103276116a160046115d8611124565b9461161761160782546116016115f4826001600160801b031690565b6001600160801b03168a52565b60801c90565b6001600160801b03166020880152565b60018101546001600160a01b0316604087015260028101546001600160a01b0316606087015260038101546001600160a01b0316608087015201546001600160a01b03811660a086015261167560a082901c60ff1660c087016115b2565b61168960a882901c60ff1660e087016115be565b64ffffffffff60b082901c1661010086015260d81c90565b64ffffffffff16610120840152565b6116b8611550565b50600a54811015611840576116d5815f52600760205260405f2090565b6116de906115c7565b9081516116f1906001600160801b031690565b6001600160801b0316916020810151611710906001600160801b031690565b6001600160801b031660c08201519161172883610a72565b60e08101519361173785610a06565b60608201516001600160a01b031690611758905f52600260205260405f2090565b546001600160a01b031660808301519091906001600160a01b031660a08401519093906001600160a01b031660408201519095906001600160a01b0316916101008101516117aa9064ffffffffff1690565b6101209091015164ffffffffff16916117c1611134565b9a8b5260208b015264ffffffffff90811660408b01521660608901526001600160a01b031660808801526001600160a01b031660a08701526001600160a01b031660c08601526001600160a01b031660e08501526001600160a01b03166101008401526118329061012084016115b2565b6105c29061014083016115be565b634d5e5fb360e01b5f5260045ffd5b3d15611879573d9061186082611144565b9161186e6040519384610c93565b82523d5f602084013e565b606090565b602081830312610318578051906001600160401b038211610318570181601f82011215610318578051906118b182611144565b926118bf6040519485610c93565b8284526020838301011161031857815f9260208093018386015e8301015290565b91926101809194936118f7846101a0810197610a96565b6101608401526001600160a01b0316910152565b805f52600860205261191f60405f20610cb9565b80519091901561192d575090565b61199d91508061193d5f926116b0565b61195f611952835f52600260205260405f2090565b546001600160a01b031690565b600c5490929061197f906001600160a01b03165b6001600160a01b031690565b9160405195869485938493636cc9818f60e11b8552600485016118e0565b03915afa908115610446575f916119b2575090565b6105c291503d805f833e6119c68183610c93565b81019061187e565b903590601e198136030182121561031857018035906001600160401b0382116103185760200191813603831361031857565b601f8211611a0d57505050565b5f5260205f20906020601f840160051c83019310611a45575b601f0160051c01905b818110611a3a575050565b5f8155600101611a2f565b9091508190611a26565b9092916001600160401b038111610cb457611a7481611a6e8454610c47565b84611a00565b5f601f8211600114611ab2578190611aa39394955f92611aa7575b50508160011b915f199060031b1c19161790565b9055565b013590505f80611a8f565b601f19821694611ac5845f5260205f2090565b915f5b878110611aff575083600195969710611ae6575b505050811b019055565b01355f19600384901b60f8161c191690555f8080611adc565b90926020600181928686013581550194019101611ac8565b908060209392818452848401375f828201840152601f01601f1916010190565b9290611b50906105c29593604086526040860191611b17565b926020818503910152611b17565b90611b689161217e565b90815f52600860205260405f20611b7f82806119ce565b9190926001600160401b038311610cb45782611ba68694611ba08554610c47565b85611a00565b5f601f8211600114611c40579080611bf5927f0762a30b2ec82141bc9ec23425f643036567b2e3a0971ed4850a968e10e5e80496975f92611aa75750508160011b915f199060031b1c19161790565b82555b611c1560016020830193611c0c85856119ce565b92909101611a4f565b611c3a611c2d611c2583806119ce565b9490936119ce565b9060405194859485611b37565b0390a290565b94601f19821695611c54855f5260205f2090565b965f5b818110611cb55750917f0762a30b2ec82141bc9ec23425f643036567b2e3a0971ed4850a968e10e5e804969791846001959410611c9c575b505050811b018255611bf8565b01355f19600384901b60f8161c191690555f8080611c8f565b82840135895560019098019789975060209283019201611c57565b919082604091031261031857602082519201516105c281610ffc565b6001600160a01b0390911681526101a081019392916101809190611541906020830190610a96565b906006811015610a1057815460ff60a01b191660a09190911b60ff60a01b16179055565b9091604084611d6492611d49612c8a565b825163cc11e50b60e01b815293849283928760048501611cec565b038173__$8c7a8ea2c745cf0f3428950d07c69423ac$__5af4918215610446577feb324fb7fa5e3c4895f81135dee55dabe780ab78ada3c673cd8d79969a509ac5925f925f91611e23575b50611df590611dc6865f52600760205260405f2090565b80546001600160801b0316608086901b6001600160801b0319161781559015611e195760046002915b01611d14565b6040805195865260208601929092526001600160a01b03169390819081015b0390a3565b6004600191611def565b611df59350611e4a915060403d604011611e51575b611e428183610c93565b810190611cd0565b9092611daf565b503d611e38565b5f818152600260205260409020546001600160a01b0316908115611e7a575090565b637e27328960e01b5f5260045260245ffd5b6006546001600160a01b03163303611ea057565b63118cdaa760e01b5f523360045260245ffd5b9091906001600160a01b03610100611eca846116b0565b0151168015159081611fdc575b506104b957611ee582611e58565b906001600160a01b0381168015159081611fc8575b5080611f8a575b611f6f57506103279291611f509181906001600160a01b0380861691167f8c5be1e5ebec7d5bd14f71427d1e84f3dd0314c0f7b2291e5b200ac8c7c3b9255f80a45f52600460205260405f2090565b80546001600160a01b0319166001600160a01b03909216919091179055565b63a9fbf51f60e01b5f526001600160a01b031660045260245ffd5b5060ff611fc082611fab8560018060a01b03165f52600560205260405f2090565b9060018060a01b03165f5260205260405f2090565b541615611f01565b6001600160a01b038416141590505f611efa565b90503314155f611ed7565b9035601e19823603018112156103185701602081359101916001600160401b03821161031857813603831361031857565b6001600160a01b03909116815260a0602082015291949392608092916120fd90803561204381610307565b6001600160a01b031660a08501526120706120606020830161031c565b6001600160a01b031660c0860152565b604081013560e085015260e061209e61208c6060840184611fe7565b610100808901526101a0880191611b17565b916120be6120ad88830161031c565b6001600160a01b0316610120880152565b6120d86120cd60a083016109a7565b610140880190610a89565b60c081013561016087015201356101808501526001600160a01b039097166040840152565b60608201520152565b9061211081610a06565b815460ff60a81b191660a89190911b60ff60a81b16179055565b94909260c096999897949261215e9460018060a01b031687526020870152604086015260e0606086015260e0850191611b17565b6001600160a01b039687166080840152951660a082015261154183610a06565b60095460ff1661218d81610a06565b6124a157600e54600d5473__$8c7a8ea2c745cf0f3428950d07c69423ac$__92916001600160a01b0316833b1561031857604051636bc7636f60e01b8152935f928592839182916121e59134918b8a60048701612018565b03915af4918215610446576105c29261248d575b50336001600160a01b03821603612483576123a75f935b600a5494859361222260018601600a55565b847f4a3269cbd2349d90096f8883573394f1da2aee3f8c0e5c4b29fbcab5c87efb43612256825f52600760205260405f2090565b8561239f60408201359261228861226c85612ca2565b82546001600160801b0319166001600160801b03909116178255565b60208301976122bc6122998a6114f6565b6002840180546001600160a01b0319166001600160a01b03909216919091179055565b6122eb6122c8856114f6565b6001840180546001600160a01b0319166001600160a01b03909216919091179055565b608084016001600160a01b03612300826114f6565b1661244f575b6001600160a01b03821661242d575b61237960a086019161232683611500565b61232f81610a06565b612413575b60c087013594856123eb575b60e088013590816123ac575b505061237f6123716123666123608a6114f6565b9e6114f6565b9860608101906119ce565b9390926114f6565b93611500565b6040516001600160a01b039889169d9098169b979889989196918961212a565b0390a46114f6565b612cba565b60046123bf6123e49364ffffffffff1690565b910180546001600160d81b031660d89290921b6001600160d81b031916919091179055565b5f8061234c565b60048101805464ffffffffff60b01b191660b088901b64ffffffffff60b01b16179055612340565b61242861241f84611500565b60048701612106565b612334565b6004830180546001600160a01b0319166001600160a01b038416179055612315565b61247e61245b826114f6565b6003850180546001600160a01b0319166001600160a01b03909216919091179055565b612306565b6123a73393612210565b8061043a5f61249b93610c93565b5f6121f9565b6303cb96db60e21b5f5260045ffd5b6001600160a01b0390911681526101a081019392909161018091906124d9906020850190610a96565b6001600160a01b0316910152565b6124ef612c8a565b6124f8826116b0565b9061250e611952845f52600260205260405f2090565b6101008301516001600160a01b031680151590816125f3575b506125e05773__$8c7a8ea2c745cf0f3428950d07c69423ac$__803b156103185761256b935f9360405195869485938493631daeac8b60e11b8552600485016124b0565b03915af48015610446576125cc575b506125a66004612592835f52600760205260405f2090565b01805460ff60a01b1916600160a11b179055565b7f9aef63ece5ceaa834c5017ecc62c1f130ae015e898d014a9e508cdf8d84848045f80a2565b8061043a5f6125da93610c93565b5f61257a565b633338cdbd60e11b5f523360045260245ffd5b6001600160a01b031690503314155f612527565b92919092610100612617846116b0565b01516001600160a01b0316801515908161269e575b506125e0576001600160a01b0382161561268a578261264a92612da2565b916001600160a01b038082169084160361266357505050565b6364283d7b60e01b5f526001600160a01b039081166004526024919091521660445260645ffd5b633250574960e11b5f90815260045260245ffd5b6001600160a01b031690503314155f61262c565b6126ba612c8a565b6126c3826116b0565b906126d9611952845f52600260205260405f2090565b6101008301516001600160a01b031680151590816127ab575b506125e05773__$8c7a8ea2c745cf0f3428950d07c69423ac$__803b1561031857612736935f9360405195869485938493632480405360e11b8552600485016124b0565b03915af4801561044657612797575b50612771600461275d835f52600760205260405f2090565b01805460ff60a01b1916600560a01b179055565b7fbeff20e87296f95eda2707b98ff344c0c9c1dc3900f20dde29098241703286145f80a2565b8061043a5f6127a593610c93565b5f612745565b6001600160a01b031690503314155f6126f2565b6001600160a01b0390911681526101c081019493926101a0926127e6906020840190610a96565b6001600160a01b031661018082015261154183610a06565b612806612c8a565b61280f826116b0565b612824611952845f52600260205260405f2090565b6101008201516001600160a01b03168015159081612900575b506125e05773__$8c7a8ea2c745cf0f3428950d07c69423ac$__91823b15610318576040516340f83c0760e11b8152925f92849283918291612885918b918a600486016127bf565b03915af48015610446576128ec575b506128b38360046128ad855f52600760205260405f2090565b01612106565b6128bc83610a06565b6001600160a01b0316907f3b17ddcb4df9a7a621005f492ba347528e1021e3ff0eb4d2b3040ad0354609c95f80a4565b8061043a5f6128fa93610c93565b5f612894565b6001600160a01b031690503314155f61283d565b9160206105c2938181520191611b17565b92919091612931612c8a565b61293a836116b0565b61294f611952855f52600260205260405f2090565b6101008201516001600160a01b03168015159081612aa4575b506125e05773__$8c7a8ea2c745cf0f3428950d07c69423ac$__803b15610318576129ac915f9160405180809581946320727a0d60e01b8352888d600485016124b0565b03915af48015610446576129d5926119739260a092612a90575b5001516001600160a01b031690565b6001600160a01b03909416938403612a43577f4682ef87b3db3f66192d1dc1efd5d2a314cdd9c61e14219f671c03e6f507823a91612a346004612a20865f52600760205260405f2090565b01805460ff60a01b1916600360a01b179055565b611e1460405192839283612914565b7f84993de43f7886c435a01bf9d72095e6a0a03bad77d5ed2478d043e566e2c77c91612a346004612a7c865f52600760205260405f2090565b01805460ff60a01b1916600160a21b179055565b8061043a5f612a9e93610c93565b5f6129c6565b6001600160a01b031690503314155f612968565b939193612ac784868484612607565b843b612ad5575b5050505050565b612af66020936040519586948594630a85bd0160e11b865260048601612f5a565b03815f6001600160a01b0387165af15f9181612b84575b50612b475750612b1b61184f565b8051919082612b4057633250574960e11b5f526001600160a01b03821660045260245ffd5b9050602001fd5b6001600160e01b03191663757a42ff60e11b01612b6957505f80808080612ace565b633250574960e11b5f526001600160a01b031660045260245ffd5b612ba791925060203d602011612bae575b612b9f8183610c93565b810190612f45565b905f612b0d565b503d612b95565b6101008301519293929091906001600160a01b03168015159081612c76575b506125e057828460e0810192612bf3611973855160018060a01b031690565b15612c56575b61197392612c199492612c0c9287611d38565b516001600160a01b031690565b9081612c3b57505060c0919091015161032791906001600160a01b0316613005565b60c0939093015161032793906001600160a01b031691612f8b565b9190503403612c6757848491612bf9565b6326ea953d60e01b5f5260045ffd5b6001600160a01b031690503314155f612bd4565b600260ff60095416612c9b81610a06565b146124a157565b600160801b811015610318576001600160801b031690565b906001600160a01b038216908115612d8f575f818152600260205260409020546001600160a01b031680151593909290612d249085612d63575b6001600160a01b0381165f90815260036020526040902060018154019055611f50845f52600260205260405f2090565b827fddf252ad1be2c89b69c2b068fc378daa952ba7f163c4a11628f55a4df523b3ef5f80a450612d5057565b6339e3563760e11b5f525f60045260245ffd5b612d6c8461304f565b6001600160a01b0385165f90815260036020526040902080545f19019055612cf4565b633250574960e11b5f525f60045260245ffd5b5f828152600260205260409020546001600160a01b0390811693908116612e72575b506001600160a01b03831680612e46575b6001600160a01b03821691612dfc9083612e23575b611f50855f52600260205260405f2090565b7fddf252ad1be2c89b69c2b068fc378daa952ba7f163c4a11628f55a4df523b3ef5f80a490565b6001600160a01b0381165f90815260036020526040902060018154019055612dea565b612e4f8361304f565b6001600160a01b0384165f90815260036020526040902080545f19019055612dd5565b612e8d6001600160a01b0382168015159081612ed357501590565b15612dc457826001600160a01b038516612eb357637e27328960e01b5f5260045260245ffd5b63177e802f60e01b5f526001600160a01b0390911660045260245260445ffd5b6001600160a01b03871680821492508215612f13575b508115612ef557501590565b5f868152600460205260409020546001600160a01b03161415919050565b9091505f52600560205260ff612f3c8460405f209060018060a01b03165f5260205260405f2090565b5416905f612ee9565b9081602091031261031857516105c28161050d565b6001600160a01b0391821681529116602082015260408101919091526080606082018190526105c29291019061058d565b905f6064926020958295604051946323b872dd60e01b86526004860152602485015260448401525af13d15601f3d1160015f511416171615612fc957565b60405162461bcd60e51b81526020600482015260146024820152731514905394d1915497d19493d357d1905253115160621b6044820152606490fd5b5f80809381935af11561301457565b60405162461bcd60e51b815260206004820152601360248201527211551217d514905394d1915497d19052531151606a1b6044820152606490fd5b613061905f52600460205260405f2090565b80546001600160a01b031916905556fea26469706673582212206b6ad62872feb00b3baca704cbc59367b7d484a829467e029b2a2298d2885e1364736f6c634300081e0033","linkReferences":{"node_modules/@bulla/contracts-v2/src/libraries/BullaClaimValidationLib.sol":{"BullaClaimValidationLib":[{"start":8608,"length":20},{"start":9681,"length":20},{"start":10598,"length":20},{"start":11057,"length":20},{"start":11388,"length":20},{"start":11687,"length":20}]}}},"methodIdentifiers":{"CORE_PROTOCOL_FEE()":"8204c627","approvalRegistry()":"64af6692","approve(address,uint256)":"095ea7b3","approveFrom(address,address,uint256)":"52ec8529","balanceOf(address)":"70a08231","cancelClaim(uint256,string)":"c07cae88","cancelClaimFrom(address,uint256,string)":"708cf832","claimMetadata(uint256)":"6d928375","claimMetadataGenerator()":"b8f34269","createClaim((address,address,uint256,string,address,uint8,uint256,uint256))":"185a34f2","createClaimFrom(address,(address,address,uint256,string,address,uint8,uint256,uint256))":"1461f126","createClaimWithMetadata((address,address,uint256,string,address,uint8,uint256,uint256),(string,string))":"c1e04045","createClaimWithMetadataFrom(address,(address,address,uint256,string,address,uint8,uint256,uint256),(string,string))":"004b3829","currentClaimId()":"72806c5a","feeExemptions()":"01a2cae8","getApproved(uint256)":"081812fc","getClaim(uint256)":"5aef2447","impairClaim(uint256)":"28f60a7c","impairClaimFrom(address,uint256)":"3081ed8a","isApprovedForAll(address,address)":"e985e9c5","lockState()":"46be9c48","markClaimAsPaid(uint256)":"1cecb254","markClaimAsPaidFrom(address,uint256)":"2a982aeb","name()":"06fdde03","owner()":"8da5cb5b","ownerOf(uint256)":"6352211e","payClaim(uint256,uint256)":"c99c4448","payClaimFrom(address,uint256,uint256)":"ba9a8094","payClaimFromControllerWithoutTransfer(address,uint256,uint256)":"008c1075","renounceOwnership()":"715018a6","safeTransferFrom(address,address,uint256)":"42842e0e","safeTransferFrom(address,address,uint256,bytes)":"b88d4fde","safeTransferFromFrom(address,address,address,uint256,bytes)":"fcf391e0","setApprovalForAll(address,bool)":"a22cb465","setClaimMetadataGenerator(address)":"d3e39750","setCoreProtocolFee(uint256)":"20d436d3","setFeeExemptions(address)":"083c8182","setLockState(uint8)":"43d073bb","supportsInterface(bytes4)":"01ffc9a7","symbol()":"95d89b41","tokenURI(uint256)":"c87b56dd","transferFrom(address,address,uint256)":"23b872dd","transferFromFrom(address,address,address,uint256)":"af9fe4de","transferOwnership(address)":"f2fde38b","updateBinding(uint256,uint8)":"5edc84eb","updateBindingFrom(address,uint256,uint8)":"6418bde9","withdrawAllFees()":"af236af4"},"id":55}