{
  "_format": "hh-sol-artifact-1",
  "contractName": "RedemptionQueue",
  "sourceName": "contracts/RedemptionQueue.sol",
  "abi": [
    {
      "inputs": [
        {
          "internalType": "address",
          "name": "owner",
          "type": "address"
        },
        {
          "internalType": "address",
          "name": "_factoringContract",
          "type": "address"
        }
      ],
      "stateMutability": "nonpayable",
      "type": "constructor"
    },
    {
      "inputs": [],
      "name": "AmountExceedsQueuedAssets",
      "type": "error"
    },
    {
      "inputs": [],
      "name": "AmountExceedsQueuedShares",
      "type": "error"
    },
    {
      "inputs": [],
      "name": "InvalidOwner",
      "type": "error"
    },
    {
      "inputs": [],
      "name": "InvalidQueueIndex",
      "type": "error"
    },
    {
      "inputs": [],
      "name": "InvalidReceiver",
      "type": "error"
    },
    {
      "inputs": [],
      "name": "InvalidRedemption",
      "type": "error"
    },
    {
      "inputs": [],
      "name": "InvalidRedemptionType",
      "type": "error"
    },
    {
      "inputs": [],
      "name": "NotAuthorized",
      "type": "error"
    },
    {
      "inputs": [],
      "name": "OnlyFactoringContract",
      "type": "error"
    },
    {
      "inputs": [
        {
          "internalType": "address",
          "name": "owner",
          "type": "address"
        }
      ],
      "name": "OwnableInvalidOwner",
      "type": "error"
    },
    {
      "inputs": [
        {
          "internalType": "address",
          "name": "account",
          "type": "address"
        }
      ],
      "name": "OwnableUnauthorizedAccount",
      "type": "error"
    },
    {
      "inputs": [],
      "name": "QueueEmpty",
      "type": "error"
    },
    {
      "inputs": [],
      "name": "RedemptionAlreadyCancelled",
      "type": "error"
    },
    {
      "anonymous": false,
      "inputs": [
        {
          "indexed": true,
          "internalType": "address",
          "name": "previousOwner",
          "type": "address"
        },
        {
          "indexed": true,
          "internalType": "address",
          "name": "newOwner",
          "type": "address"
        }
      ],
      "name": "OwnershipTransferred",
      "type": "event"
    },
    {
      "anonymous": false,
      "inputs": [
        {
          "indexed": true,
          "internalType": "address",
          "name": "owner",
          "type": "address"
        },
        {
          "indexed": false,
          "internalType": "uint256",
          "name": "queueIndex",
          "type": "uint256"
        }
      ],
      "name": "RedemptionCancelled",
      "type": "event"
    },
    {
      "anonymous": false,
      "inputs": [
        {
          "indexed": true,
          "internalType": "address",
          "name": "owner",
          "type": "address"
        },
        {
          "indexed": true,
          "internalType": "address",
          "name": "receiver",
          "type": "address"
        },
        {
          "indexed": false,
          "internalType": "uint256",
          "name": "shares",
          "type": "uint256"
        },
        {
          "indexed": false,
          "internalType": "uint256",
          "name": "assets",
          "type": "uint256"
        },
        {
          "indexed": false,
          "internalType": "uint256",
          "name": "queueIndex",
          "type": "uint256"
        }
      ],
      "name": "RedemptionProcessed",
      "type": "event"
    },
    {
      "anonymous": false,
      "inputs": [
        {
          "indexed": true,
          "internalType": "address",
          "name": "owner",
          "type": "address"
        },
        {
          "indexed": true,
          "internalType": "address",
          "name": "receiver",
          "type": "address"
        },
        {
          "indexed": false,
          "internalType": "uint256",
          "name": "shares",
          "type": "uint256"
        },
        {
          "indexed": false,
          "internalType": "uint256",
          "name": "assets",
          "type": "uint256"
        },
        {
          "indexed": false,
          "internalType": "uint256",
          "name": "queueIndex",
          "type": "uint256"
        }
      ],
      "name": "RedemptionQueued",
      "type": "event"
    },
    {
      "inputs": [
        {
          "internalType": "uint256",
          "name": "queueIndex",
          "type": "uint256"
        }
      ],
      "name": "cancelQueuedRedemption",
      "outputs": [],
      "stateMutability": "nonpayable",
      "type": "function"
    },
    {
      "inputs": [],
      "name": "clearQueue",
      "outputs": [],
      "stateMutability": "nonpayable",
      "type": "function"
    },
    {
      "inputs": [],
      "name": "compactQueue",
      "outputs": [],
      "stateMutability": "nonpayable",
      "type": "function"
    },
    {
      "inputs": [],
      "name": "factoringContract",
      "outputs": [
        {
          "internalType": "address",
          "name": "",
          "type": "address"
        }
      ],
      "stateMutability": "view",
      "type": "function"
    },
    {
      "inputs": [],
      "name": "getNextRedemption",
      "outputs": [
        {
          "components": [
            {
              "internalType": "address",
              "name": "owner",
              "type": "address"
            },
            {
              "internalType": "address",
              "name": "receiver",
              "type": "address"
            },
            {
              "internalType": "uint256",
              "name": "shares",
              "type": "uint256"
            },
            {
              "internalType": "uint256",
              "name": "assets",
              "type": "uint256"
            }
          ],
          "internalType": "struct IRedemptionQueue.QueuedRedemption",
          "name": "redemption",
          "type": "tuple"
        }
      ],
      "stateMutability": "view",
      "type": "function"
    },
    {
      "inputs": [],
      "name": "getQueueLength",
      "outputs": [
        {
          "internalType": "uint256",
          "name": "queueLength",
          "type": "uint256"
        }
      ],
      "stateMutability": "view",
      "type": "function"
    },
    {
      "inputs": [],
      "name": "getQueueStats",
      "outputs": [
        {
          "internalType": "uint256",
          "name": "queueLength",
          "type": "uint256"
        },
        {
          "internalType": "uint256",
          "name": "totalShares",
          "type": "uint256"
        },
        {
          "internalType": "uint256",
          "name": "totalAssets",
          "type": "uint256"
        }
      ],
      "stateMutability": "view",
      "type": "function"
    },
    {
      "inputs": [
        {
          "internalType": "uint256",
          "name": "queueIndex",
          "type": "uint256"
        }
      ],
      "name": "getQueuedRedemption",
      "outputs": [
        {
          "components": [
            {
              "internalType": "address",
              "name": "owner",
              "type": "address"
            },
            {
              "internalType": "address",
              "name": "receiver",
              "type": "address"
            },
            {
              "internalType": "uint256",
              "name": "shares",
              "type": "uint256"
            },
            {
              "internalType": "uint256",
              "name": "assets",
              "type": "uint256"
            }
          ],
          "internalType": "struct IRedemptionQueue.QueuedRedemption",
          "name": "redemption",
          "type": "tuple"
        }
      ],
      "stateMutability": "view",
      "type": "function"
    },
    {
      "inputs": [
        {
          "internalType": "address",
          "name": "owner",
          "type": "address"
        }
      ],
      "name": "getQueuedRedemptionsForOwner",
      "outputs": [
        {
          "internalType": "uint256[]",
          "name": "queueIndexes",
          "type": "uint256[]"
        }
      ],
      "stateMutability": "view",
      "type": "function"
    },
    {
      "inputs": [
        {
          "internalType": "address",
          "name": "owner",
          "type": "address"
        }
      ],
      "name": "getTotalQueuedForOwner",
      "outputs": [
        {
          "internalType": "uint256",
          "name": "totalShares",
          "type": "uint256"
        },
        {
          "internalType": "uint256",
          "name": "totalAssets",
          "type": "uint256"
        }
      ],
      "stateMutability": "view",
      "type": "function"
    },
    {
      "inputs": [],
      "name": "isQueueEmpty",
      "outputs": [
        {
          "internalType": "bool",
          "name": "isEmpty",
          "type": "bool"
        }
      ],
      "stateMutability": "view",
      "type": "function"
    },
    {
      "inputs": [],
      "name": "owner",
      "outputs": [
        {
          "internalType": "address",
          "name": "",
          "type": "address"
        }
      ],
      "stateMutability": "view",
      "type": "function"
    },
    {
      "inputs": [
        {
          "internalType": "address",
          "name": "owner",
          "type": "address"
        },
        {
          "internalType": "address",
          "name": "receiver",
          "type": "address"
        },
        {
          "internalType": "uint256",
          "name": "shares",
          "type": "uint256"
        },
        {
          "internalType": "uint256",
          "name": "assets",
          "type": "uint256"
        }
      ],
      "name": "queueRedemption",
      "outputs": [
        {
          "internalType": "uint256",
          "name": "queueIndex",
          "type": "uint256"
        }
      ],
      "stateMutability": "nonpayable",
      "type": "function"
    },
    {
      "inputs": [
        {
          "internalType": "uint256",
          "name": "amount",
          "type": "uint256"
        }
      ],
      "name": "removeAmountFromFirstOwner",
      "outputs": [
        {
          "components": [
            {
              "internalType": "address",
              "name": "owner",
              "type": "address"
            },
            {
              "internalType": "address",
              "name": "receiver",
              "type": "address"
            },
            {
              "internalType": "uint256",
              "name": "shares",
              "type": "uint256"
            },
            {
              "internalType": "uint256",
              "name": "assets",
              "type": "uint256"
            }
          ],
          "internalType": "struct IRedemptionQueue.QueuedRedemption",
          "name": "nextRedemption",
          "type": "tuple"
        }
      ],
      "stateMutability": "nonpayable",
      "type": "function"
    },
    {
      "inputs": [],
      "name": "renounceOwnership",
      "outputs": [],
      "stateMutability": "nonpayable",
      "type": "function"
    },
    {
      "inputs": [
        {
          "internalType": "address",
          "name": "_factoringContract",
          "type": "address"
        }
      ],
      "name": "setFactoringContract",
      "outputs": [],
      "stateMutability": "nonpayable",
      "type": "function"
    },
    {
      "inputs": [
        {
          "internalType": "address",
          "name": "newOwner",
          "type": "address"
        }
      ],
      "name": "transferOwnership",
      "outputs": [],
      "stateMutability": "nonpayable",
      "type": "function"
    }
  ],
  "bytecode": "0x6080346100ee57601f6111b838819003918201601f19168301916001600160401b038311848410176100f25780849260409485528339810103126100ee57610052602061004b83610106565b9201610106565b6001600160a01b039091169081156100db575f80546001600160a01b031981168417825560405193916001600160a01b03909116907f8be0079c531659141344cd1fd0a4f28419497f9722a3daafe3b4186f6b6457e09080a3600380546001600160a01b0319166001600160a01b03929092169190911790555f60025561109d908161011b8239f35b631e4fbdf760e01b5f525f60045260245ffd5b5f80fd5b634e487b7160e01b5f52604160045260245ffd5b51906001600160a01b03821682036100ee5756fe60806040526004361015610011575f80fd5b5f3560e01c8063038fc3c7146101245780631c586a6b1461011f5780632bbba8471461011a578063358d761014610115578063452656ab1461011057806347627adb1461010b5780635ff3af6614610106578063715018a6146101015780638da5cb5b146100fc5780638f77d4d6146100f75780639071ffbb146100f2578063b8f77005146100ed578063dac52f2d146100e8578063e7b59816146100e3578063ee9f097e146100de578063f22cb874146100d95763f2fde38b146100d4575f80fd5b610a8e565b6109fb565b6109d3565b6108c7565b6106b2565b610690565b610546565b610494565b610434565b6103dd565b6103bb565b6103a0565b6102f6565b6102b3565b610289565b6101e3565b346101b35760203660031901126101b357600435610140610b72565b506001548110156101a45761016061015a6101a092610ba6565b50610bc7565b6040519182918281516001600160a01b03908116825260208084015190911690820152604080830151908201526060918201519181019190915260800190565b0390f35b630d00062b60e01b5f5260045ffd5b5f80fd5b600435906001600160a01b03821682036101b357565b602435906001600160a01b03821682036101b357565b346101b35760203660031901126101b3576101fc6101b7565b6002546001545f92909183916001600160a01b0316905b83811061022a576040805184815260208101879052f35b8161023482610ba6565b50546001600160a01b03161461024d575b600101610213565b9391600261025a86610ba6565b50015481018091116102845791600361027286610ba6565b50015481018091116102845793610245565b610c00565b346101b3575f3660031901126101b35760206102a9600254600154111590565b6040519015158152f35b346101b35760203660031901126101b3576102cc6101b7565b6102d4610d98565b600380546001600160a01b0319166001600160a01b0392909216919091179055005b346101b3575f3660031901126101b3575f5f610316600254600154111590565b1561038b575f905b6002546001545b80821061034f5750506101a090604051938493846040919493926060820195825260208201520152565b909193600261035d84610ba6565b50015481018091116102845793600361037584610ba6565b5001548101809111610284579160010190610325565b6001546002548103908111610284579061031e565b346101b3575f3660031901126101b3576101a0610160610c21565b346101b3575f3660031901126101b3576103d3610d98565b6103db610e75565b005b346101b3575f3660031901126101b3576103f5610d98565b5f80546001600160a01b0319811682556001600160a01b03167f8be0079c531659141344cd1fd0a4f28419497f9722a3daafe3b4186f6b6457e08280a3005b346101b3575f3660031901126101b3575f546040516001600160a01b039091168152602090f35b60206040818301928281528451809452019201905f5b81811061047e5750505090565b8251845260209384019390920191600101610471565b346101b35760203660031901126101b3576104ad6101b7565b6001546104c16104bc82610c67565b610b4c565b81815290601f196104d182610c67565b013660208401376002546001600160a01b03909316925f91905b81811061050357828452604051806101a0868261045b565b8461050d82610ba6565b50546001600160a01b031614610526575b6001016104eb565b9161053e818461053860019488610c7f565b52610c93565b92905061051e565b346101b35760803660031901126101b35761055f6101b7565b6105676101cd565b6003546044359291606435916001600160a01b03163303610681576001600160a01b038316908115610672576001600160a01b0381169283156106635780151586151514610654576101a0956106137fe1437974534bea6bfe8ca2de839f52f40265621d54061d7593213eec8952bc5a936105e188610f46565b6105e9610e75565b6106036105f4610b27565b6001600160a01b039099168952565b6001600160a01b03166020880152565b80604087015281606087015261062b60015496610ceb565b604080519182526020820192909252908101859052606090a36040519081529081906020820190565b636d0e1ac360e11b5f5260045ffd5b631e4ec46b60e01b5f5260045ffd5b6349e27cff60e01b5f5260045ffd5b63ded1331560e01b5f5260045ffd5b346101b3575f3660031901126101b35760206106aa610d40565b604051908152f35b346101b35760203660031901126101b3576004356106ce610b72565b506003546001600160a01b031633036106815760025460015411156108b8576002546106f981610ba6565b5080546001600160a01b03169182156108a9576001820180546001600160a01b031660028401805491929091156107e1578154948588116107d25787867f3a8d593b76526ca98a9e0b0fa25e3056dd862c1dd42c77c8f8126b3d3463eb5f9782145f146107be57505080546001600160a01b03191690555f9190610788905b80546001600160a01b0319169055565b55610791611025565b604080519586525f60208701528501919091526001600160a01b031692606090a35b6101a0610160610c21565b9091506107cb9250610c14565b9055610791565b631cb4bf5b60e31b5f5260045ffd5b90506003840190815494856107fe575b50505050505050506107b3565b85881161089a5787867f3a8d593b76526ca98a9e0b0fa25e3056dd862c1dd42c77c8f8126b3d3463eb5f9782145f1461088657505080546001600160a01b03191690555f919061084d90610778565b55610856611025565b604080515f815260208101969096528501919091526001600160a01b031692606090a35f808080808080806107f1565b9091506108939250610c14565b9055610856565b63c62a4ed160e01b5f5260045ffd5b631fd92deb60e31b5f5260045ffd5b6375e52f4f60e01b5f5260045ffd5b346101b35760203660031901126101b3576004356001548110156101a4576108ee81610ba6565b5080546001600160a01b0316919033831415806109ad575b61099e57821561098f5780546001600160a01b03191681557f9aec5cafc1451c1485e4a0099bd4dfb4c9d2bb972b4e5c798da07db8323deaa39161097d915f906003906001810180546001600160a01b031916905582600282015501556002548114610982575b6040519081529081906020820190565b0390a2005b61098a611025565b61096d565b630a30f45160e01b5f5260045ffd5b63ea8e4eb560e01b5f5260045ffd5b506003546109cb906001600160a01b03165b6001600160a01b031690565b331415610906565b346101b3575f3660031901126101b3576003546040516001600160a01b039091168152602090f35b346101b3575f3660031901126101b357610a13610d98565b6001545f60015580610a26575b5f600255005b6001600160fe1b03811681036102845760015f5260021b7fb10e2d527612073b26eecdfd717e6a320cf44b4afac2b0732d9fcbe2b7fa0cf6908101905b818110610a705750610a20565b805f600492555f60018201555f60028201555f600382015501610a63565b346101b35760203660031901126101b357610aa76101b7565b610aaf610d98565b6001600160a01b03168015610b00575f80546001600160a01b03198116831782556001600160a01b0316907f8be0079c531659141344cd1fd0a4f28419497f9722a3daafe3b4186f6b6457e09080a3005b631e4fbdf760e01b5f525f60045260245ffd5b634e487b7160e01b5f52604160045260245ffd5b604051906080820182811067ffffffffffffffff821117610b4757604052565b610b13565b6040519190601f01601f1916820167ffffffffffffffff811183821017610b4757604052565b610b7a610b27565b905f82525f60208301525f60408301525f6060830152565b634e487b7160e01b5f52603260045260245ffd5b600154811015610bc25760015f5260205f209060021b01905f90565b610b92565b906003610bd2610b27565b83546001600160a01b0390811682526001850154166020820152600284015460408201529201546060830152565b634e487b7160e01b5f52601160045260245ffd5b9190820391821161028457565b610c29610b72565b506002546001541115610c4757610c4461015a600254610ba6565b90565b610c4f610b27565b5f81525f60208201525f60408201525f606082015290565b67ffffffffffffffff8111610b475760051b60200190565b8051821015610bc25760209160051b010190565b5f1981146102845760010190565b815181546001600160a01b039182166001600160a01b0319918216178355602084015160018401805491909316911617905560408201516002820155606090910151600390910155565b60015490600160401b821015610b475760018201600155600154821015610bc25760015f52610d3e9160021b7fb10e2d527612073b26eecdfd717e6a320cf44b4afac2b0732d9fcbe2b7fa0cf601610ca1565b565b60025460015480821015610d92575f915b818110610d5d57505090565b610d6681610ba6565b50546001600160a01b0316610d7e575b600101610d51565b91610d8a600191610c93565b929050610d76565b50505f90565b5f546001600160a01b03163303610dab57565b63118cdaa760e01b5f523360045260245ffd5b805190600160401b8211610b475760015482600155808310610e15575b5060200160015f5260205f205f915b838310610df75750505050565b6004602082610e096001945186610ca1565b01920192019190610dea565b6001600160fe1b0381168103610284576001600160fe1b03831683036102845760015f5260205f209060021b8101908360021b015b818110610e575750610ddb565b805f600492555f60018201555f60028201555f600382015501610e4a565b600254908115610f4257600154610e8e6104bc82610c67565b81815290601f19610e9e82610c67565b015f5b818110610f2b5750505f935b818110610ecb575050610ec291928152610dbe565b610d3e5f600255565b610ee86109bf610eda83610ba6565b50546001600160a01b031690565b610ef5575b600101610ead565b93610f23600191610f0861015a88610ba6565b610f128287610c7f565b52610f1d8186610c7f565b50610c93565b949050610eed565b602090610f36610b72565b82828701015201610ea1565b9050565b6002545b6001548110156110215780610f63610eda600193610ba6565b60a083901b83900384811691168114610f7e575b5001610f4a565b610f9b610f8a83610ba6565b5080546001600160a01b0319169055565b610fba83610fa884610ba6565b500180546001600160a01b0319169055565b5f6002610fc684610ba6565b5001555f6003610fd584610ba6565b5001556040518281527f9aec5cafc1451c1485e4a0099bd4dfb4c9d2bb972b4e5c798da07db8323deaa390602090a26002548114611014575b5f610f77565b61101c611025565b61100e565b5050565b60025460015481108061104c575b156110495761104190610c93565b600255611025565b50565b5061105681610ba6565b50546001600160a01b03161561103356fea26469706673582212205130fbc9eea42b1128238221471954a6731163ff62d5ffde32d2f2726b3508bd64736f6c634300081e0033",
  "linkReferences": {},
  "deployedLinkReferences": {}
}