{"abi":[{"type":"constructor","inputs":[{"name":"owners","type":"address[]","internalType":"address[]"},{"name":"threshold","type":"uint8","internalType":"uint8"}],"stateMutability":"nonpayable"},{"type":"function","name":"addOwnerWithThreshold","inputs":[{"name":"owner","type":"address","internalType":"address"},{"name":"_threshold","type":"uint256","internalType":"uint256"}],"outputs":[],"stateMutability":"nonpayable"},{"type":"function","name":"changeThreshold","inputs":[{"name":"_threshold","type":"uint256","internalType":"uint256"}],"outputs":[],"stateMutability":"nonpayable"},{"type":"function","name":"disableModule","inputs":[{"name":"","type":"address","internalType":"address"},{"name":"","type":"address","internalType":"address"}],"outputs":[],"stateMutability":"nonpayable"},{"type":"function","name":"enableModule","inputs":[{"name":"_module","type":"address","internalType":"address"}],"outputs":[],"stateMutability":"nonpayable"},{"type":"function","name":"execTransactionFromModule","inputs":[{"name":"to","type":"address","internalType":"address payable"},{"name":"value","type":"uint256","internalType":"uint256"},{"name":"data","type":"bytes","internalType":"bytes"},{"name":"operation","type":"uint8","internalType":"uint8"}],"outputs":[{"name":"success","type":"bool","internalType":"bool"}],"stateMutability":"nonpayable"},{"type":"function","name":"getOwners","inputs":[],"outputs":[{"name":"","type":"address[]","internalType":"address[]"}],"stateMutability":"view"},{"type":"function","name":"getThreshold","inputs":[],"outputs":[{"name":"","type":"uint256","internalType":"uint256"}],"stateMutability":"view"},{"type":"function","name":"isModuleEnabled","inputs":[{"name":"_module","type":"address","internalType":"address"}],"outputs":[{"name":"","type":"bool","internalType":"bool"}],"stateMutability":"view"},{"type":"function","name":"isOwner","inputs":[{"name":"owner","type":"address","internalType":"address"}],"outputs":[{"name":"","type":"bool","internalType":"bool"}],"stateMutability":"view"},{"type":"function","name":"module","inputs":[],"outputs":[{"name":"","type":"address","internalType":"address"}],"stateMutability":"view"},{"type":"function","name":"onERC721Received","inputs":[{"name":"","type":"address","internalType":"address"},{"name":"","type":"address","internalType":"address"},{"name":"","type":"uint256","internalType":"uint256"},{"name":"","type":"bytes","internalType":"bytes"}],"outputs":[{"name":"","type":"bytes4","internalType":"bytes4"}],"stateMutability":"pure"},{"type":"function","name":"removeOwner","inputs":[{"name":"prevOwner","type":"address","internalType":"address"},{"name":"owner","type":"address","internalType":"address"},{"name":"_threshold","type":"uint256","internalType":"uint256"}],"outputs":[],"stateMutability":"nonpayable"},{"type":"function","name":"swapOwner","inputs":[{"name":"prevOwner","type":"address","internalType":"address"},{"name":"oldOwner","type":"address","internalType":"address"},{"name":"newOwner","type":"address","internalType":"address"}],"outputs":[],"stateMutability":"nonpayable"},{"type":"event","name":"AddedOwner","inputs":[{"name":"owner","type":"address","indexed":false,"internalType":"address"}],"anonymous":false},{"type":"event","name":"ChangedThreshold","inputs":[{"name":"threshold","type":"uint256","indexed":false,"internalType":"uint256"}],"anonymous":false},{"type":"event","name":"RemovedOwner","inputs":[{"name":"owner","type":"address","indexed":false,"internalType":"address"}],"anonymous":false}],"bytecode":{"object":"0x60806040523461027957610dde80380380610019816102b1565b9283398101906040818303126102795780516001600160401b03811161027957810182601f82011215610279578051926001600160401b03841161029d578360051b9160208061006a8186016102b1565b80978152019382010191821161027957602001915b81831061027d5784602085015160ff81168091036102795760025461024c578151811161021f57600181106101f2575f9160015b81518410156101bb57600584901b8201602001516001600160a01b0316801515806101b0575b806101a6575b80610193575b15610166575f818152602081905260409020546001600160a01b0316610139576001600160a01b039091165f90815260208190526040902080546001600160a01b03191682179055600193909301926100b3565b60405162461bcd60e51b815260206004820152600560248201526411d4cc8c0d60da1b6044820152606490fd5b60405162461bcd60e51b8152602060048201526005602482015264475332303360d81b6044820152606490fd5b506001600160a01b0382168114156100e5565b50308114156100df565b5060018114156100d9565b60018060a01b03165f525f60205260405f206001808060a01b031982541617905551600155600255604051610b0790816102d78239f35b60405162461bcd60e51b815260206004820152600560248201526423a999181960d91b6044820152606490fd5b60405162461bcd60e51b8152602060048201526005602482015264475332303160d81b6044820152606490fd5b60405162461bcd60e51b8152602060048201526005602482015264047533230360dc1b6044820152606490fd5b5f80fd5b82516001600160a01b03811681036102795781526020928301920161007f565b634e487b7160e01b5f52604160045260245ffd5b6040519190601f01601f191682016001600160401b0381118382101761029d5760405256fe60806040526004361015610011575f80fd5b5f3560e01c80630d582f131461079e578063150b7a02146107475780632d9ad53d146107245780632f54bf6e146106ca578063468721a7146105d4578063610b592514610596578063694e80c31461056c578063a0e67e2b1461044e578063b86d529814610426578063e009cfde146103f1578063e318b52b14610271578063e75235b8146102545763f8dc5dd9146100a8575f80fd5b34610250576060366003190112610250576100c16108b8565b6100c96108ce565b90604435916100d6610a9b565b6001545f19810190811161023157836100f0911015610a1b565b6001600160a01b03169081151580610245575b61010c90610912565b6001600160a01b039081165f81815260208190526040902054909161013391168314610a67565b5f82815260208190526040808220805493835290822080546001600160a01b039094166001600160a01b0319948516179055908390528054909116905560015480156102315760207ff8d49fc529812e9a7c5c50e69c20f0dccc0db8fa95c98bc58cc9a4f1c1299eaf915f19019283600155604051908152a181600254036101b757005b6101cb906101c3610a9b565b821115610a1b565b60018110610204576020817f610f7ff2b304ae8903c3de74c60c6ab1f7d6226b3f52c5161905bb5ad4039c9392600255604051908152a1005b60405162461bcd60e51b815260206004820152600560248201526423a999181960d91b6044820152606490fd5b634e487b7160e01b5f52601160045260245ffd5b506001821415610103565b5f80fd5b34610250575f366003190112610250576020600254604051908152f35b346102505760603660031901126102505761028a6108b8565b6102926108ce565b6044356001600160a01b03811690819003610250577ff8d49fc529812e9a7c5c50e69c20f0dccc0db8fa95c98bc58cc9a4f1c1299eaf60207f9465fa0c962cc76958e6373a993326400c1c94f8be2fe3a952adfa7f60b2ea269481946102f6610a9b565b841515806103e6575b806103dc575b61030e90610912565b5f858152808452604090205461032d906001600160a01b031615610946565b6001600160a01b031690811515806103d1575b61034990610912565b6001600160a01b039081165f8181528085526040902054909161036e91168314610a67565b5f82815280845260408082205487835282865281832080546001600160a01b039092166001600160a01b0319928316179055928252818552808220805484168817905583825281855290819020805490921690915551908152a1604051908152a1005b506001821415610340565b5030851415610305565b5060018514156102ff565b346102505760403660031901126102505761040a6108b8565b506104136108ce565b50600380546001600160a01b0319169055005b34610250575f366003190112610250576003546040516001600160a01b039091168152602090f35b34610250575f3660031901126102505760015461047e61047561047083610a4f565b6109a6565b91808352610a4f565b6020820190601f190136823760015f90815260208190527fada5013122d395ba3c54772283fb069b10426056ef8ca54750cb9bb552a59e7d549091906001600160a01b03165b6001600160a01b03166001811461051f57835183101561050b578060208460051b860101525f525f60205261050560018060a01b0360405f2054169261097a565b916104c4565b634e487b7160e01b5f52603260045260245ffd5b8184604051918291602083019060208452518091526040830191905f5b81811061054a575050500390f35b82516001600160a01b031684528594506020938401939092019160010161053c565b3461025057602036600319011261025057600435610588610a9b565b6101cb600154821115610a1b565b34610250576020366003190112610250576001600160a01b036105b76108b8565b166bffffffffffffffffffffffff60a01b60035416176003555f80f35b34610250576080366003190112610250576004356001600160a01b038116908190036102505760443567ffffffffffffffff81116102505761061a9036906004016108e4565b916064359060ff8216809203610250576003546001600160a01b03163303610694576020935f93849360010361067057816040519283928337810184815203915af46106646109e0565b505b6040519015158152f35b81604051928392833781018481520391602435905af161068e6109e0565b50610666565b60405162461bcd60e51b815260206004820152600e60248201526d139bdd08185d5d1a1bdc9a5e995960921b6044820152606490fd5b34610250576020366003190112610250576001600160a01b036106eb6108b8565b16600181141580610704575b6020906040519015158152f35b505f90815260208181526040909120546001600160a01b031615156106f7565b346102505760203660031901126102505760206106666107426108b8565b610988565b34610250576080366003190112610250576107606108b8565b506107696108ce565b5060643567ffffffffffffffff81116102505761078a9036906004016108e4565b5050604051630a85bd0160e11b8152602090f35b34610250576040366003190112610250576107b76108b8565b602435906107c3610a9b565b6001600160a01b0316801515806108ad575b806108a3575b6107e490610912565b5f81815260208190526040902054610805906001600160a01b031615610946565b5f60208181527fada5013122d395ba3c54772283fb069b10426056ef8ca54750cb9bb552a59e7d80548484526040842080546001600160a01b039092166001600160a01b03199283161790556001938490528154168417905590547f9465fa0c962cc76958e6373a993326400c1c94f8be2fe3a952adfa7f60b2ea26919061088c9061097a565b9283600155604051908152a181600254036101b757005b50308114156107db565b5060018114156107d5565b600435906001600160a01b038216820361025057565b602435906001600160a01b038216820361025057565b9181601f840112156102505782359167ffffffffffffffff8311610250576020838186019501011161025057565b1561091957565b60405162461bcd60e51b8152602060048201526005602482015264475332303360d81b6044820152606490fd5b1561094d57565b60405162461bcd60e51b815260206004820152600560248201526411d4cc8c0d60da1b6044820152606490fd5b5f1981146102315760010190565b6003546001600160a01b039182169116036109a257600190565b5f90565b6040519190601f01601f1916820167ffffffffffffffff8111838210176109cc57604052565b634e487b7160e01b5f52604160045260245ffd5b3d15610a16573d9067ffffffffffffffff82116109cc57610a0a601f8301601f19166020016109a6565b9182523d5f602084013e565b606090565b15610a2257565b60405162461bcd60e51b8152602060048201526005602482015264475332303160d81b6044820152606490fd5b67ffffffffffffffff81116109cc5760051b60200190565b15610a6e57565b60405162461bcd60e51b8152602060048201526005602482015264475332303560d81b6044820152606490fd5b303303610aa457565b60405162461bcd60e51b8152602060048201526005602482015264475330333160d81b6044820152606490fdfea26469706673582212209ebeb64be52b9d2d95b4a26f2043befae6c9378bd4c931e2c6413a13a144502064736f6c634300081e0033","linkReferences":{}},"methodIdentifiers":{"addOwnerWithThreshold(address,uint256)":"0d582f13","changeThreshold(uint256)":"694e80c3","disableModule(address,address)":"e009cfde","enableModule(address)":"610b5925","execTransactionFromModule(address,uint256,bytes,uint8)":"468721a7","getOwners()":"a0e67e2b","getThreshold()":"e75235b8","isModuleEnabled(address)":"2d9ad53d","isOwner(address)":"2f54bf6e","module()":"b86d5298","onERC721Received(address,address,uint256,bytes)":"150b7a02","removeOwner(address,address,uint256)":"f8dc5dd9","swapOwner(address,address,address)":"e318b52b"},"id":21}