{"abi":[{"type":"constructor","inputs":[{"name":"_bullaClaimAddress","type":"address","internalType":"contract IBullaClaim"}],"stateMutability":"nonpayable"},{"type":"function","name":"getImpairTarget","inputs":[{"name":"invoiceId","type":"uint256","internalType":"uint256"}],"outputs":[{"name":"target","type":"address","internalType":"address"},{"name":"selector","type":"bytes4","internalType":"bytes4"}],"stateMutability":"view"},{"type":"function","name":"getInvoiceContractAddress","inputs":[{"name":"","type":"uint256","internalType":"uint256"}],"outputs":[{"name":"","type":"address","internalType":"address"}],"stateMutability":"view"},{"type":"function","name":"getInvoiceDetails","inputs":[{"name":"invoiceId","type":"uint256","internalType":"uint256"}],"outputs":[{"name":"","type":"tuple","internalType":"struct IInvoiceProviderAdapterV2.Invoice","components":[{"name":"invoiceAmount","type":"uint256","internalType":"uint256"},{"name":"creditor","type":"address","internalType":"address"},{"name":"debtor","type":"address","internalType":"address"},{"name":"dueDate","type":"uint256","internalType":"uint256"},{"name":"tokenAddress","type":"address","internalType":"address"},{"name":"paidAmount","type":"uint256","internalType":"uint256"},{"name":"isCanceled","type":"bool","internalType":"bool"},{"name":"isPaid","type":"bool","internalType":"bool"},{"name":"impairmentGracePeriod","type":"uint256","internalType":"uint256"}]}],"stateMutability":"view"},{"type":"function","name":"initializeInvoice","inputs":[{"name":"invoiceId","type":"uint256","internalType":"uint256"}],"outputs":[],"stateMutability":"nonpayable"},{"type":"error","name":"InexistentInvoice","inputs":[]}],"bytecode":{"object":"0x608034606f57601f61051b38819003918201601f19168301916001600160401b03831184841017607357808492602094604052833981010312606f57516001600160a01b03811690819003606f575f80546001600160a01b03191691909117905560405161049390816100888239f35b5f80fd5b634e487b7160e01b5f52604160045260245ffdfe6080806040526004361015610012575f80fd5b5f3560e01c9081630d219c0f146103dd5750806387bb8b3c146103ca578063909a708a146100745763e8a5bfb814610048575f80fd5b34610070576020366003190112610070575f546040516001600160a01b039091168152602090f35b5f80fd5b34610070576020366003190112610070576004355f610100604051610098816103fc565b8281528260208201528260408201528260608201528260808201528260a08201528260c08201528260e0820152015260018060a01b035f54169060405191635aef244760e01b835281600484015261012083602481845afa9283156102a4575f936102be575b5060a0830180519092906001600160a01b0316156102af576020906024604051809481936331a9108f60e11b835260048301525afa9081156102a4575f9161026a575b5082519160018060a01b036080850151169360608101519160018060a01b0390511690604060208201519101918251600581101561024057600314928315610254575b5193600585101561024057610120976101006040516101a2816103fc565b898152602081019860018060a01b0316895260408101928352606081019384526080810194855260a0810195865260c081019615158752600260e082019814885201965f885260405198895260018060a01b03905116602089015260018060a01b03905116604088015251606087015260018060a01b0390511660808601525160a085015251151560c084015251151560e083015251610100820152f35b634e487b7160e01b5f52602160045260245ffd5b8093505160058110156102405760041492610184565b90506020813d60201161029c575b8161028560209383610419565b81010312610070576102969061043b565b83610141565b3d9150610278565b6040513d5f823e3d90fd5b632d34562f60e21b5f5260045ffd5b809193506101203d81116103c3575b6102d78183610419565b810103906101208212610070576040519160e0830183811067ffffffffffffffff8211176103af5760405281518352602082015160208401526040820151906005821015610070576060916040850152818301518285015261033b6080840161043b565b608085015261034c60a0840161043b565b60a085015260bf19011261007057604051906060820182811067ffffffffffffffff8211176103af5761039e916101009160405260c0810151845261039360e0820161044f565b60208501520161044f565b604082015260c082015291836100fe565b634e487b7160e01b5f52604160045260245ffd5b503d6102cd565b3461007057602036600319011261007057005b3461007057602036600319011261007057805f604092525f6020820152f35b610120810190811067ffffffffffffffff8211176103af57604052565b90601f8019910116810190811067ffffffffffffffff8211176103af57604052565b51906001600160a01b038216820361007057565b519060ff821682036100705756fea2646970667358221220f83c998554549a21eb5d941014f64d165aeca892a2b814b881bdf0d82b80310a64736f6c634300081e0033","linkReferences":{}},"methodIdentifiers":{"getImpairTarget(uint256)":"0d219c0f","getInvoiceContractAddress(uint256)":"e8a5bfb8","getInvoiceDetails(uint256)":"909a708a","initializeInvoice(uint256)":"87bb8b3c"},"id":0}