{"abi":[{"type":"constructor","inputs":[{"name":"_safeAddress","type":"address","internalType":"address"}],"stateMutability":"nonpayable"},{"type":"function","name":"isAllowed","inputs":[{"name":"_address","type":"address","internalType":"address"}],"outputs":[{"name":"","type":"bool","internalType":"bool"}],"stateMutability":"view"},{"type":"function","name":"safe","inputs":[],"outputs":[{"name":"","type":"address","internalType":"contract GnosisSafe"}],"stateMutability":"view"},{"type":"event","name":"AccessGranted","inputs":[{"name":"_account","type":"address","indexed":true,"internalType":"address"}],"anonymous":false},{"type":"event","name":"AccessRevoked","inputs":[{"name":"_account","type":"address","indexed":true,"internalType":"address"}],"anonymous":false}],"bytecode":{"object":"0x60803460b957601f61023d38819003918201601f19168301916001600160401b0383118484101760bd5780849260209460405283398101031260b957516001600160a01b0381169081900360b95780156074575f80546001600160a01b03191691909117905560405161016b90816100d28239f35b60405162461bcd60e51b815260206004820152601460248201527f496e76616c6964205361666520616464726573730000000000000000000000006044820152606490fd5b5f80fd5b634e487b7160e01b5f52604160045260245ffdfe6080806040526004361015610012575f80fd5b5f3560e01c908163186f035414610113575063babcc53914610032575f80fd5b346100e95760203660031901126100e9576004356001600160a01b038116908190036100e9575f546040516317aa5fb760e11b81526004810192909252602090829060249082906001600160a01b03165afa8015610108575f9061009e575b6020906040519015158152f35b5060203d602011610101575b601f8101601f1916820167ffffffffffffffff8111838210176100ed576020918391604052810103126100e9575180151581036100e957602090610091565b5f80fd5b634e487b7160e01b5f52604160045260245ffd5b503d6100aa565b6040513d5f823e3d90fd5b346100e9575f3660031901126100e9575f546001600160a01b03168152602090f3fea2646970667358221220653c10434327cda54a09332d9a2e464a91baf27772069c0ad71af45dc97bd53e64736f6c634300081e0033","linkReferences":{}},"methodIdentifiers":{"isAllowed(address)":"babcc539","safe()":"186f0354"},"id":9}