{"abi":[{"type":"function","name":"allow","inputs":[{"name":"_address","type":"address","internalType":"address"}],"outputs":[],"stateMutability":"nonpayable"},{"type":"function","name":"allowedAddresses","inputs":[{"name":"","type":"address","internalType":"address"}],"outputs":[{"name":"","type":"bool","internalType":"bool"}],"stateMutability":"view"},{"type":"function","name":"disallow","inputs":[{"name":"_address","type":"address","internalType":"address"}],"outputs":[],"stateMutability":"nonpayable"},{"type":"function","name":"isAllowed","inputs":[{"name":"_address","type":"address","internalType":"address"}],"outputs":[{"name":"","type":"bool","internalType":"bool"}],"stateMutability":"view"},{"type":"event","name":"AccessGranted","inputs":[{"name":"_account","type":"address","indexed":true,"internalType":"address"}],"anonymous":false},{"type":"event","name":"AccessRevoked","inputs":[{"name":"_account","type":"address","indexed":true,"internalType":"address"}],"anonymous":false}],"bytecode":{"object":"0x6080806040523460155761017a908161001a8239f35b5f80fdfe6080806040526004361015610012575f80fd5b5f3560e01c9081634120657a1461010757508063a9ed9cb8146100cb578063babcc5391461008b5763ff9913e814610048575f80fd5b34610087576020366003190112610087576004356001600160a01b03811690819003610087575f525f60205260405f20600160ff198254161790555f80f35b5f80fd5b34610087576020366003190112610087576004356001600160a01b03811690819003610087575f525f602052602060ff60405f2054166040519015158152f35b34610087576020366003190112610087576004356001600160a01b03811690819003610087575f525f60205260405f2060ff1981541690555f80f35b34610087576020366003190112610087576004356001600160a01b0381169190829003610087576020915f525f825260ff60405f20541615158152f3fea264697066735822122065c10ffa4c628bfe80f8ef43aede577e9ee20d170c7bbdc419c7cb065b15c42564736f6c634300081e0033","linkReferences":{}},"methodIdentifiers":{"allow(address)":"ff9913e8","allowedAddresses(address)":"4120657a","disallow(address)":"a9ed9cb8","isAllowed(address)":"babcc539"},"id":17}