{"abi":[{"type":"constructor","inputs":[{"name":"_bullaClaim","type":"address","internalType":"address"}],"stateMutability":"nonpayable"},{"type":"function","name":"CREATE_CLAIM_TYPEHASH","inputs":[],"outputs":[{"name":"","type":"bytes32","internalType":"bytes32"}],"stateMutability":"view"},{"type":"function","name":"DOMAIN_SEPARATOR","inputs":[],"outputs":[{"name":"","type":"bytes32","internalType":"bytes32"}],"stateMutability":"view"},{"type":"function","name":"EIP712_NAME","inputs":[],"outputs":[{"name":"","type":"string","internalType":"string"}],"stateMutability":"view"},{"type":"function","name":"approvalRegistry","inputs":[],"outputs":[{"name":"","type":"address","internalType":"contract IBullaApprovalRegistry"}],"stateMutability":"view"},{"type":"function","name":"controllerRegistry","inputs":[],"outputs":[{"name":"","type":"address","internalType":"contract IBullaControllerRegistry"}],"stateMutability":"view"},{"type":"function","name":"getERC20PermitDigest","inputs":[{"name":"token","type":"address","internalType":"address"},{"name":"owner","type":"address","internalType":"address"},{"name":"spender","type":"address","internalType":"address"},{"name":"value","type":"uint256","internalType":"uint256"},{"name":"deadline","type":"uint256","internalType":"uint256"}],"outputs":[{"name":"","type":"bytes32","internalType":"bytes32"}],"stateMutability":"view"},{"type":"function","name":"getPermitCreateClaimDigest","inputs":[{"name":"user","type":"address","internalType":"address"},{"name":"controller","type":"address","internalType":"address"},{"name":"approvalType","type":"uint8","internalType":"enum CreateClaimApprovalType"},{"name":"approvalCount","type":"uint64","internalType":"uint64"},{"name":"isBindingAllowed","type":"bool","internalType":"bool"}],"outputs":[{"name":"","type":"bytes32","internalType":"bytes32"}],"stateMutability":"view"},{"type":"function","name":"signCreateClaimPermit","inputs":[{"name":"pk","type":"uint256","internalType":"uint256"},{"name":"user","type":"address","internalType":"address"},{"name":"controller","type":"address","internalType":"address"},{"name":"approvalType","type":"uint8","internalType":"enum CreateClaimApprovalType"},{"name":"approvalCount","type":"uint64","internalType":"uint64"},{"name":"isBindingAllowed","type":"bool","internalType":"bool"}],"outputs":[{"name":"","type":"bytes","internalType":"bytes"}],"stateMutability":"view"},{"type":"function","name":"signERC20Permit","inputs":[{"name":"pk","type":"uint256","internalType":"uint256"},{"name":"token","type":"address","internalType":"address"},{"name":"owner","type":"address","internalType":"address"},{"name":"spender","type":"address","internalType":"address"},{"name":"value","type":"uint256","internalType":"uint256"},{"name":"deadline","type":"uint256","internalType":"uint256"}],"outputs":[{"name":"","type":"bytes","internalType":"bytes"}],"stateMutability":"view"},{"type":"function","name":"signERC20PermitComponents","inputs":[{"name":"pk","type":"uint256","internalType":"uint256"},{"name":"token","type":"address","internalType":"address"},{"name":"owner","type":"address","internalType":"address"},{"name":"spender","type":"address","internalType":"address"},{"name":"value","type":"uint256","internalType":"uint256"},{"name":"deadline","type":"uint256","internalType":"uint256"}],"outputs":[{"name":"v","type":"uint8","internalType":"uint8"},{"name":"r","type":"bytes32","internalType":"bytes32"},{"name":"s","type":"bytes32","internalType":"bytes32"}],"stateMutability":"view"}],"bytecode":{"object":"0x6080806040523461022457602081610dbe803803809161001f82856102c0565b83398101031261022457516001600160a01b0381169081900361022457602060049160405192838092633257b34960e11b82525afa908115610230575f9161027e575b505f80546001600160a01b0319166001600160a01b0392909216918217905560405163bbc4541b60e01b8152602081600481855afa908115610230575f9161023b575b50600180546001600160a01b0319166001600160a01b03909216919091179055604051633644e51560e01b815290602090829060049082905afa908115610230575f916101fa575b5060035560405160c08101906001600160401b038211818310176101e6576098916040528181527f6e67416c6c6f7765642c75696e74323536206e6f6e636529000000000000000060a060208301927f417070726f7665437265617465436c61696d457874656e73696f6e286164647284527f65737320757365722c6164647265737320636f6e74726f6c6c65722c7374726960408201527f6e67206d6573736167652c75696e743820617070726f76616c547970652c756960608201527f6e7432353620617070726f76616c436f756e742c626f6f6c20697342696e64696080820152015220600455604051610ada90816102e48239f35b634e487b7160e01b5f52604160045260245ffd5b90506020813d602011610228575b81610215602093836102c0565b8101031261022457515f6100ed565b5f80fd5b3d9150610208565b6040513d5f823e3d90fd5b90506020813d602011610276575b81610256602093836102c0565b8101031261022457516001600160a01b03811681036102245760046100a5565b3d9150610249565b90506020813d6020116102b8575b81610299602093836102c0565b8101031261022457516001600160a01b0381168103610224575f610062565b3d915061028c565b601f909101601f19168101906001600160401b038211908210176101e65760405256fe6080806040526004361015610012575f80fd5b5f3560e01c9081632c9345f314610500575080633644e515146104e3578063394b4f6b146104a75780633b2fb7a8146103b357806364af66921461038c57806376baf2a3146102fc578063992bc5b6146101d2578063bbc4541b146101aa578063cda2dacf146100f15763d516f5591461008a575f80fd5b346100ed5760a03660031901126100ed576100a361051a565b6100ab610530565b9060443560048110156100ed5760643567ffffffffffffffff811681036100ed576084359182151583036100ed576020946100e5946107fe565b604051908152f35b5f80fd5b346100ed5761010e610102366105b6565b93959495929092610657565b604051916338d07aa960e21b835260048301526024820152606081604481737109709ecfa91a80626ff3989d68f67f5b1dd12d5afa90811561019f576060915f915f905f9261016e575b5060ff6040519316835260208301526040820152f35b9150506101919150823d8411610198575b610189818361055c565b8101906107d9565b9084610158565b503d61017f565b6040513d5f823e3d90fd5b346100ed575f3660031901126100ed576001546040516001600160a01b039091168152602090f35b346100ed5760c03660031901126100ed576101eb610530565b6101f3610546565b60643560048110156100ed576084359067ffffffffffffffff821682036100ed5760a4359283151584036100ed5761022a946107fe565b604051906338d07aa960e21b825260043560048301526024820152606081604481737109709ecfa91a80626ff3989d68f67f5b1dd12d5afa90811561019f576102cb915f5f905f926102cf575b60408051602081019390935282019290925260f89190911b6001600160f81b031916606082015290506102b781606181015b03601f19810183528261055c565b604051918291602083526020830190610592565b0390f35b5050506102b76102f06102a99260603d60601161019857610189818361055c565b91935090915082610277565b346100ed5761030d610102366105b6565b604051916338d07aa960e21b835260048301526024820152606081604481737109709ecfa91a80626ff3989d68f67f5b1dd12d5afa90811561019f576102cb915f5f905f926102cf5760408051602081019390935282019290925260f89190911b6001600160f81b031916606082015290506102b781606181016102a9565b346100ed575f3660031901126100ed575f546040516001600160a01b039091168152602090f35b346100ed575f3660031901126100ed576040515f6002548060011c9060018116801561049d575b602083108114610489578285529081156104655750600114610407575b6102cb836102b78185038261055c565b91905060025f527f405787fa12a823e0f2b7631cc41b3ba8828b3321ca811111fa75cd3aa3bb5ace915f905b80821061044b575090915081016020016102b76103f7565b919260018160209254838588010152019101909291610433565b60ff191660208086019190915291151560051b840190910191506102b790506103f7565b634e487b7160e01b5f52602260045260245ffd5b91607f16916103da565b346100ed5760a03660031901126100ed5760206100e56104c561051a565b6104cd610530565b906104d6610546565b6084359260643592610657565b346100ed575f3660031901126100ed576020600354604051908152f35b346100ed575f3660031901126100ed576020906004548152f35b600435906001600160a01b03821682036100ed57565b602435906001600160a01b03821682036100ed57565b604435906001600160a01b03821682036100ed57565b90601f8019910116810190811067ffffffffffffffff82111761057e57604052565b634e487b7160e01b5f52604160045260245ffd5b805180835260209291819084018484015e5f828201840152601f01601f1916010190565b60c09060031901126100ed57600435906024356001600160a01b03811681036100ed57906044356001600160a01b03811681036100ed57906064356001600160a01b03811681036100ed57906084359060a43590565b67ffffffffffffffff811161057e57601f01601f191660200190565b3d15610652573d906106398261060c565b91610647604051938461055c565b82523d5f602084013e565b606090565b9390925f905f80604051966020880190623f675f60e91b825260018060a01b0316978860248201526024815261068e60448261055c565b5190895afa61069b610628565b90806107cd575b6107b2575b505f8080976040516020810190633644e51560e01b8252600481526106cd60248261055c565b51915afa6106d9610628565b90806107a6575b61077d575b509161077793916102a995936040519360208501957f6e71edae12b1b97f4d1f60370fef10105fa2faae0126114a169c64845d6126c98752604086015260018060a01b03166060850152608084015260a083015260c082015260c0815261074d60e08261055c565b519020604051928391602083019586909160429261190160f01b8352600283015260228201520190565b51902090565b939194929095506020848051810103126100ed57602093909301519491939092916107776106e5565b506020815110156106e0565b9091506020818051810103126100ed5760200151905f6106a7565b506020815110156106a2565b908160609103126100ed57805160ff811681036100ed57916040602083015192015190565b6003545f546040516303b85d3b60e21b81526001600160a01b039384166004820181905294841660248201819052929790969293909160809188916044918391165afa95861561019f575f966109da575b506004549467ffffffffffffffff60018060a01b036001541693604051946312fb014760e21b8652600486015285602486015261088f6044860184610a83565b16918260648501521515928360848201525f8160a48173__$46f1644a4a848422e30082bae652fcef70$__5af490811561019f575f91610938575b506107779695949392916102a99867ffffffffffffffff6060846020610917965191012092015116956040519760208901998a5260408901526060880152608087015260a0860190610a83565b60c084015260e0830152610100820152610100815261074d6101208261055c565b9050959493929190953d805f833e610950818361055c565b8101906020818303126100ed5780519067ffffffffffffffff82116100ed57019681601f890112156100ed578751986109888a61060c565b92610996604051948561055c565b8a845260208b8b0101116100ed5767ffffffffffffffff6060610917945f60208e6102a99f6107779f83018386015e830101529450505098509192939495966108ca565b9095506080813d608011610a66575b816109f66080938361055c565b810103126100ed57604051906080820182811067ffffffffffffffff82111761057e57604052805180151581036100ed578252602081015160048110156100ed57610a5a916060916020850152610a4f60408201610a6e565b604085015201610a6e565b6060820152945f61084f565b3d91506109e9565b519067ffffffffffffffff821682036100ed57565b906004821015610a905752565b634e487b7160e01b5f52602160045260245ffdfea264697066735822122023da8e23b368750f04fd5191d51e86ef4cdeaec05e978ee717b2c26b86e3681f64736f6c634300081e0033","linkReferences":{"node_modules/@bulla/contracts-v2/src/libraries/BullaClaimPermitLib.sol":{"BullaClaimPermitLib":[{"start":2955,"length":20}]}}},"methodIdentifiers":{"CREATE_CLAIM_TYPEHASH()":"2c9345f3","DOMAIN_SEPARATOR()":"3644e515","EIP712_NAME()":"3b2fb7a8","approvalRegistry()":"64af6692","controllerRegistry()":"bbc4541b","getERC20PermitDigest(address,address,address,uint256,uint256)":"394b4f6b","getPermitCreateClaimDigest(address,address,uint8,uint64,bool)":"d516f559","signCreateClaimPermit(uint256,address,address,uint8,uint64,bool)":"992bc5b6","signERC20Permit(uint256,address,address,address,uint256,uint256)":"76baf2a3","signERC20PermitComponents(uint256,address,address,address,uint256,uint256)":"cda2dacf"},"id":160}