{
  "_format": "hh-sol-artifact-1",
  "contractName": "MockDepositPermissions",
  "sourceName": "contracts/mocks/MockDepositPermissions.sol",
  "abi": [
    {
      "anonymous": false,
      "inputs": [
        {
          "indexed": true,
          "internalType": "address",
          "name": "_account",
          "type": "address"
        }
      ],
      "name": "AccessGranted",
      "type": "event"
    },
    {
      "anonymous": false,
      "inputs": [
        {
          "indexed": true,
          "internalType": "address",
          "name": "_account",
          "type": "address"
        }
      ],
      "name": "AccessRevoked",
      "type": "event"
    },
    {
      "inputs": [
        {
          "internalType": "address",
          "name": "_address",
          "type": "address"
        }
      ],
      "name": "allow",
      "outputs": [],
      "stateMutability": "nonpayable",
      "type": "function"
    },
    {
      "inputs": [
        {
          "internalType": "address",
          "name": "",
          "type": "address"
        }
      ],
      "name": "allowedAddresses",
      "outputs": [
        {
          "internalType": "bool",
          "name": "",
          "type": "bool"
        }
      ],
      "stateMutability": "view",
      "type": "function"
    },
    {
      "inputs": [
        {
          "internalType": "address",
          "name": "_address",
          "type": "address"
        }
      ],
      "name": "disallow",
      "outputs": [],
      "stateMutability": "nonpayable",
      "type": "function"
    },
    {
      "inputs": [
        {
          "internalType": "address",
          "name": "_address",
          "type": "address"
        }
      ],
      "name": "isAllowed",
      "outputs": [
        {
          "internalType": "bool",
          "name": "",
          "type": "bool"
        }
      ],
      "stateMutability": "view",
      "type": "function"
    }
  ],
  "bytecode": "0x6080806040523460155761017a908161001a8239f35b5f80fdfe6080806040526004361015610012575f80fd5b5f3560e01c9081634120657a1461010757508063a9ed9cb8146100cb578063babcc5391461008b5763ff9913e814610048575f80fd5b34610087576020366003190112610087576004356001600160a01b03811690819003610087575f525f60205260405f20600160ff198254161790555f80f35b5f80fd5b34610087576020366003190112610087576004356001600160a01b03811690819003610087575f525f602052602060ff60405f2054166040519015158152f35b34610087576020366003190112610087576004356001600160a01b03811690819003610087575f525f60205260405f2060ff1981541690555f80f35b34610087576020366003190112610087576004356001600160a01b0381169190829003610087576020915f525f825260ff60405f20541615158152f3fea264697066735822122008cd9fc99ac5daea97630983f137eb06bb52dd237f1d64118cc3b73d03ac422264736f6c634300081e0033",
  "linkReferences": {},
  "deployedLinkReferences": {}
}