{"abi":[{"type":"constructor","inputs":[{"name":"_asset","type":"address","internalType":"contract IERC20"},{"name":"_invoiceProviderAdapter","type":"address","internalType":"contract IInvoiceProviderAdapterV2"},{"name":"_bullaFrendLend","type":"address","internalType":"contract IBullaFrendLendV2"},{"name":"_underwriter","type":"address","internalType":"address"},{"name":"_depositPermissions","type":"address","internalType":"contract Permissions"},{"name":"_redeemPermissions","type":"address","internalType":"contract Permissions"},{"name":"_factoringPermissions","type":"address","internalType":"contract Permissions"},{"name":"_bullaDao","type":"address","internalType":"address"},{"name":"_protocolFeeBps","type":"uint16","internalType":"uint16"},{"name":"_adminFeeBps","type":"uint16","internalType":"uint16"},{"name":"_poolName","type":"string","internalType":"string"},{"name":"_targetYieldBps","type":"uint16","internalType":"uint16"},{"name":"_tokenName","type":"string","internalType":"string"},{"name":"_tokenSymbol","type":"string","internalType":"string"}],"stateMutability":"nonpayable"},{"type":"function","name":"activeInvoices","inputs":[{"name":"","type":"uint256","internalType":"uint256"}],"outputs":[{"name":"","type":"uint256","internalType":"uint256"}],"stateMutability":"view"},{"type":"function","name":"adminFeeBalance","inputs":[],"outputs":[{"name":"","type":"uint256","internalType":"uint256"}],"stateMutability":"view"},{"type":"function","name":"adminFeeBps","inputs":[],"outputs":[{"name":"","type":"uint16","internalType":"uint16"}],"stateMutability":"view"},{"type":"function","name":"allowance","inputs":[{"name":"owner","type":"address","internalType":"address"},{"name":"spender","type":"address","internalType":"address"}],"outputs":[{"name":"","type":"uint256","internalType":"uint256"}],"stateMutability":"view"},{"type":"function","name":"approvalDuration","inputs":[],"outputs":[{"name":"","type":"uint256","internalType":"uint256"}],"stateMutability":"view"},{"type":"function","name":"approve","inputs":[{"name":"spender","type":"address","internalType":"address"},{"name":"value","type":"uint256","internalType":"uint256"}],"outputs":[{"name":"","type":"bool","internalType":"bool"}],"stateMutability":"nonpayable"},{"type":"function","name":"approveInvoice","inputs":[{"name":"invoiceId","type":"uint256","internalType":"uint256"},{"name":"_targetYieldBps","type":"uint16","internalType":"uint16"},{"name":"_spreadBps","type":"uint16","internalType":"uint16"},{"name":"_upfrontBps","type":"uint16","internalType":"uint16"},{"name":"minDaysInterestApplied","type":"uint16","internalType":"uint16"},{"name":"_initialInvoiceValueOverride","type":"uint256","internalType":"uint256"}],"outputs":[],"stateMutability":"nonpayable"},{"type":"function","name":"approvedInvoices","inputs":[{"name":"","type":"uint256","internalType":"uint256"}],"outputs":[{"name":"approved","type":"bool","internalType":"bool"},{"name":"creditor","type":"address","internalType":"address"},{"name":"validUntil","type":"uint256","internalType":"uint256"},{"name":"invoiceDueDate","type":"uint256","internalType":"uint256"},{"name":"impairmentGracePeriod","type":"uint256","internalType":"uint256"},{"name":"fundedTimestamp","type":"uint256","internalType":"uint256"},{"name":"fundedAmountGross","type":"uint256","internalType":"uint256"},{"name":"fundedAmountNet","type":"uint256","internalType":"uint256"},{"name":"initialInvoiceValue","type":"uint256","internalType":"uint256"},{"name":"initialPaidAmount","type":"uint256","internalType":"uint256"},{"name":"protocolFee","type":"uint256","internalType":"uint256"},{"name":"receiverAddress","type":"address","internalType":"address"},{"name":"feeParams","type":"tuple","internalType":"struct IBullaFactoringV2.FeeParams","components":[{"name":"targetYieldBps","type":"uint16","internalType":"uint16"},{"name":"spreadBps","type":"uint16","internalType":"uint16"},{"name":"upfrontBps","type":"uint16","internalType":"uint16"},{"name":"protocolFeeBps","type":"uint16","internalType":"uint16"},{"name":"adminFeeBps","type":"uint16","internalType":"uint16"},{"name":"minDaysInterestApplied","type":"uint16","internalType":"uint16"}]}],"stateMutability":"view"},{"type":"function","name":"asset","inputs":[],"outputs":[{"name":"","type":"address","internalType":"address"}],"stateMutability":"view"},{"type":"function","name":"assetAddress","inputs":[],"outputs":[{"name":"","type":"address","internalType":"contract IERC20"}],"stateMutability":"view"},{"type":"function","name":"balanceOf","inputs":[{"name":"account","type":"address","internalType":"address"}],"outputs":[{"name":"","type":"uint256","internalType":"uint256"}],"stateMutability":"view"},{"type":"function","name":"bullaDao","inputs":[],"outputs":[{"name":"","type":"address","internalType":"address"}],"stateMutability":"view"},{"type":"function","name":"bullaFrendLend","inputs":[],"outputs":[{"name":"","type":"address","internalType":"contract IBullaFrendLendV2"}],"stateMutability":"view"},{"type":"function","name":"calculateAccruedProfits","inputs":[],"outputs":[{"name":"accruedProfits","type":"uint256","internalType":"uint256"}],"stateMutability":"view"},{"type":"function","name":"calculateCapitalAccount","inputs":[],"outputs":[{"name":"","type":"uint256","internalType":"uint256"}],"stateMutability":"view"},{"type":"function","name":"calculateKickbackAmount","inputs":[{"name":"invoiceId","type":"uint256","internalType":"uint256"}],"outputs":[{"name":"kickbackAmount","type":"uint256","internalType":"uint256"},{"name":"trueInterest","type":"uint256","internalType":"uint256"},{"name":"trueSpreadAmount","type":"uint256","internalType":"uint256"},{"name":"trueAdminFee","type":"uint256","internalType":"uint256"}],"stateMutability":"view"},{"type":"function","name":"calculateRealizedGainLoss","inputs":[],"outputs":[{"name":"","type":"int256","internalType":"int256"}],"stateMutability":"view"},{"type":"function","name":"calculateTargetFees","inputs":[{"name":"invoiceId","type":"uint256","internalType":"uint256"},{"name":"factorerUpfrontBps","type":"uint16","internalType":"uint16"}],"outputs":[{"name":"fundedAmountGross","type":"uint256","internalType":"uint256"},{"name":"adminFee","type":"uint256","internalType":"uint256"},{"name":"targetInterest","type":"uint256","internalType":"uint256"},{"name":"targetSpreadAmount","type":"uint256","internalType":"uint256"},{"name":"protocolFee","type":"uint256","internalType":"uint256"},{"name":"netFundedAmount","type":"uint256","internalType":"uint256"}],"stateMutability":"view"},{"type":"function","name":"convertToAssets","inputs":[{"name":"shares","type":"uint256","internalType":"uint256"}],"outputs":[{"name":"","type":"uint256","internalType":"uint256"}],"stateMutability":"view"},{"type":"function","name":"convertToShares","inputs":[{"name":"assets","type":"uint256","internalType":"uint256"}],"outputs":[{"name":"","type":"uint256","internalType":"uint256"}],"stateMutability":"view"},{"type":"function","name":"creationTimestamp","inputs":[],"outputs":[{"name":"","type":"uint256","internalType":"uint256"}],"stateMutability":"view"},{"type":"function","name":"decimals","inputs":[],"outputs":[{"name":"","type":"uint8","internalType":"uint8"}],"stateMutability":"view"},{"type":"function","name":"deposit","inputs":[{"name":"assets","type":"uint256","internalType":"uint256"},{"name":"receiver","type":"address","internalType":"address"}],"outputs":[{"name":"","type":"uint256","internalType":"uint256"}],"stateMutability":"nonpayable"},{"type":"function","name":"depositPermissions","inputs":[],"outputs":[{"name":"","type":"address","internalType":"contract Permissions"}],"stateMutability":"view"},{"type":"function","name":"factoringPermissions","inputs":[],"outputs":[{"name":"","type":"address","internalType":"contract Permissions"}],"stateMutability":"view"},{"type":"function","name":"fundInvoice","inputs":[{"name":"invoiceId","type":"uint256","internalType":"uint256"},{"name":"factorerUpfrontBps","type":"uint16","internalType":"uint16"},{"name":"receiverAddress","type":"address","internalType":"address"}],"outputs":[{"name":"","type":"uint256","internalType":"uint256"}],"stateMutability":"nonpayable"},{"type":"function","name":"getFundInfo","inputs":[],"outputs":[{"name":"","type":"tuple","internalType":"struct IBullaFactoringV2.FundInfo","components":[{"name":"name","type":"string","internalType":"string"},{"name":"creationTimestamp","type":"uint256","internalType":"uint256"},{"name":"fundBalance","type":"uint256","internalType":"uint256"},{"name":"deployedCapital","type":"uint256","internalType":"uint256"},{"name":"capitalAccount","type":"uint256","internalType":"uint256"},{"name":"price","type":"uint256","internalType":"uint256"},{"name":"tokensAvailableForRedemption","type":"uint256","internalType":"uint256"},{"name":"adminFeeBps","type":"uint16","internalType":"uint16"},{"name":"impairReserve","type":"uint256","internalType":"uint256"},{"name":"targetYieldBps","type":"uint256","internalType":"uint256"}]}],"stateMutability":"view"},{"type":"function","name":"getRedemptionQueue","inputs":[],"outputs":[{"name":"","type":"address","internalType":"contract IRedemptionQueue"}],"stateMutability":"view"},{"type":"function","name":"gracePeriodDays","inputs":[],"outputs":[{"name":"","type":"uint256","internalType":"uint256"}],"stateMutability":"view"},{"type":"function","name":"impairInvoice","inputs":[{"name":"invoiceId","type":"uint256","internalType":"uint256"}],"outputs":[],"stateMutability":"nonpayable"},{"type":"function","name":"impairReserve","inputs":[],"outputs":[{"name":"","type":"uint256","internalType":"uint256"}],"stateMutability":"view"},{"type":"function","name":"impairments","inputs":[{"name":"","type":"uint256","internalType":"uint256"}],"outputs":[{"name":"gainAmount","type":"uint256","internalType":"uint256"},{"name":"lossAmount","type":"uint256","internalType":"uint256"},{"name":"isImpaired","type":"bool","internalType":"bool"}],"stateMutability":"view"},{"type":"function","name":"invoiceProviderAdapter","inputs":[],"outputs":[{"name":"","type":"address","internalType":"contract IInvoiceProviderAdapterV2"}],"stateMutability":"view"},{"type":"function","name":"maxDeposit","inputs":[{"name":"","type":"address","internalType":"address"}],"outputs":[{"name":"","type":"uint256","internalType":"uint256"}],"stateMutability":"view"},{"type":"function","name":"maxMint","inputs":[{"name":"","type":"address","internalType":"address"}],"outputs":[{"name":"","type":"uint256","internalType":"uint256"}],"stateMutability":"view"},{"type":"function","name":"maxRedeem","inputs":[],"outputs":[{"name":"","type":"uint256","internalType":"uint256"}],"stateMutability":"view"},{"type":"function","name":"maxRedeem","inputs":[{"name":"_owner","type":"address","internalType":"address"}],"outputs":[{"name":"","type":"uint256","internalType":"uint256"}],"stateMutability":"view"},{"type":"function","name":"maxWithdraw","inputs":[{"name":"_owner","type":"address","internalType":"address"}],"outputs":[{"name":"","type":"uint256","internalType":"uint256"}],"stateMutability":"view"},{"type":"function","name":"mint","inputs":[{"name":"","type":"uint256","internalType":"uint256"},{"name":"","type":"address","internalType":"address"}],"outputs":[{"name":"","type":"uint256","internalType":"uint256"}],"stateMutability":"pure"},{"type":"function","name":"name","inputs":[],"outputs":[{"name":"","type":"string","internalType":"string"}],"stateMutability":"view"},{"type":"function","name":"offerLoan","inputs":[{"name":"debtor","type":"address","internalType":"address"},{"name":"_targetYieldBps","type":"uint16","internalType":"uint16"},{"name":"spreadBps","type":"uint16","internalType":"uint16"},{"name":"principalAmount","type":"uint256","internalType":"uint256"},{"name":"termLength","type":"uint256","internalType":"uint256"},{"name":"numberOfPeriodsPerYear","type":"uint16","internalType":"uint16"},{"name":"description","type":"string","internalType":"string"}],"outputs":[{"name":"loanOfferId","type":"uint256","internalType":"uint256"}],"stateMutability":"nonpayable"},{"type":"function","name":"onLoanOfferAccepted","inputs":[{"name":"loanOfferId","type":"uint256","internalType":"uint256"},{"name":"loanId","type":"uint256","internalType":"uint256"}],"outputs":[],"stateMutability":"nonpayable"},{"type":"function","name":"originalCreditors","inputs":[{"name":"","type":"uint256","internalType":"uint256"}],"outputs":[{"name":"","type":"address","internalType":"address"}],"stateMutability":"view"},{"type":"function","name":"owner","inputs":[],"outputs":[{"name":"","type":"address","internalType":"address"}],"stateMutability":"view"},{"type":"function","name":"paidInvoicesGain","inputs":[],"outputs":[{"name":"","type":"uint256","internalType":"uint256"}],"stateMutability":"view"},{"type":"function","name":"pendingLoanOffersByLoanOfferId","inputs":[{"name":"","type":"uint256","internalType":"uint256"}],"outputs":[{"name":"offeredAt","type":"uint256","internalType":"uint256"},{"name":"principalAmount","type":"uint256","internalType":"uint256"},{"name":"termLength","type":"uint256","internalType":"uint256"},{"name":"exists","type":"bool","internalType":"bool"},{"name":"feeParams","type":"tuple","internalType":"struct IBullaFactoringV2.FeeParams","components":[{"name":"targetYieldBps","type":"uint16","internalType":"uint16"},{"name":"spreadBps","type":"uint16","internalType":"uint16"},{"name":"upfrontBps","type":"uint16","internalType":"uint16"},{"name":"protocolFeeBps","type":"uint16","internalType":"uint16"},{"name":"adminFeeBps","type":"uint16","internalType":"uint16"},{"name":"minDaysInterestApplied","type":"uint16","internalType":"uint16"}]}],"stateMutability":"view"},{"type":"function","name":"pendingLoanOffersIds","inputs":[{"name":"","type":"uint256","internalType":"uint256"}],"outputs":[{"name":"","type":"uint256","internalType":"uint256"}],"stateMutability":"view"},{"type":"function","name":"poolName","inputs":[],"outputs":[{"name":"","type":"string","internalType":"string"}],"stateMutability":"view"},{"type":"function","name":"previewDeposit","inputs":[{"name":"assets","type":"uint256","internalType":"uint256"}],"outputs":[{"name":"","type":"uint256","internalType":"uint256"}],"stateMutability":"view"},{"type":"function","name":"previewMint","inputs":[{"name":"shares","type":"uint256","internalType":"uint256"}],"outputs":[{"name":"","type":"uint256","internalType":"uint256"}],"stateMutability":"view"},{"type":"function","name":"previewRedeem","inputs":[{"name":"shares","type":"uint256","internalType":"uint256"}],"outputs":[{"name":"","type":"uint256","internalType":"uint256"}],"stateMutability":"view"},{"type":"function","name":"previewWithdraw","inputs":[{"name":"assets","type":"uint256","internalType":"uint256"}],"outputs":[{"name":"","type":"uint256","internalType":"uint256"}],"stateMutability":"view"},{"type":"function","name":"pricePerShare","inputs":[],"outputs":[{"name":"","type":"uint256","internalType":"uint256"}],"stateMutability":"view"},{"type":"function","name":"processRedemptionQueue","inputs":[],"outputs":[],"stateMutability":"nonpayable"},{"type":"function","name":"protocolFeeBalance","inputs":[],"outputs":[{"name":"","type":"uint256","internalType":"uint256"}],"stateMutability":"view"},{"type":"function","name":"protocolFeeBps","inputs":[],"outputs":[{"name":"","type":"uint16","internalType":"uint16"}],"stateMutability":"view"},{"type":"function","name":"reconcileActivePaidInvoices","inputs":[],"outputs":[],"stateMutability":"nonpayable"},{"type":"function","name":"reconcileSingleInvoice","inputs":[{"name":"invoiceId","type":"uint256","internalType":"uint256"}],"outputs":[],"stateMutability":"nonpayable"},{"type":"function","name":"redeem","inputs":[{"name":"shares","type":"uint256","internalType":"uint256"},{"name":"receiver","type":"address","internalType":"address"},{"name":"_owner","type":"address","internalType":"address"}],"outputs":[{"name":"","type":"uint256","internalType":"uint256"}],"stateMutability":"nonpayable"},{"type":"function","name":"redeemPermissions","inputs":[],"outputs":[{"name":"","type":"address","internalType":"contract Permissions"}],"stateMutability":"view"},{"type":"function","name":"redemptionQueue","inputs":[],"outputs":[{"name":"","type":"address","internalType":"contract IRedemptionQueue"}],"stateMutability":"view"},{"type":"function","name":"renounceOwnership","inputs":[],"outputs":[],"stateMutability":"nonpayable"},{"type":"function","name":"setAdminFeeBps","inputs":[{"name":"_newAdminFeeBps","type":"uint16","internalType":"uint16"}],"outputs":[],"stateMutability":"nonpayable"},{"type":"function","name":"setApprovalDuration","inputs":[{"name":"_duration","type":"uint256","internalType":"uint256"}],"outputs":[],"stateMutability":"nonpayable"},{"type":"function","name":"setBullaDaoAddress","inputs":[{"name":"_newBullaDao","type":"address","internalType":"address"}],"outputs":[],"stateMutability":"nonpayable"},{"type":"function","name":"setDepositPermissions","inputs":[{"name":"_newDepositPermissionsAddress","type":"address","internalType":"address"}],"outputs":[],"stateMutability":"nonpayable"},{"type":"function","name":"setFactoringPermissions","inputs":[{"name":"_newFactoringPermissionsAddress","type":"address","internalType":"address"}],"outputs":[],"stateMutability":"nonpayable"},{"type":"function","name":"setGracePeriodDays","inputs":[{"name":"_days","type":"uint256","internalType":"uint256"}],"outputs":[],"stateMutability":"nonpayable"},{"type":"function","name":"setImpairReserve","inputs":[{"name":"_impairReserve","type":"uint256","internalType":"uint256"}],"outputs":[],"stateMutability":"nonpayable"},{"type":"function","name":"setProtocolFeeBps","inputs":[{"name":"_newProtocolFeeBps","type":"uint16","internalType":"uint16"}],"outputs":[],"stateMutability":"nonpayable"},{"type":"function","name":"setRedeemPermissions","inputs":[{"name":"_newRedeemPermissionsAddress","type":"address","internalType":"address"}],"outputs":[],"stateMutability":"nonpayable"},{"type":"function","name":"setRedemptionQueue","inputs":[{"name":"_redemptionQueue","type":"address","internalType":"address"}],"outputs":[],"stateMutability":"nonpayable"},{"type":"function","name":"setTargetYield","inputs":[{"name":"_targetYieldBps","type":"uint16","internalType":"uint16"}],"outputs":[],"stateMutability":"nonpayable"},{"type":"function","name":"setUnderwriter","inputs":[{"name":"_newUnderwriter","type":"address","internalType":"address"}],"outputs":[],"stateMutability":"nonpayable"},{"type":"function","name":"symbol","inputs":[],"outputs":[{"name":"","type":"string","internalType":"string"}],"stateMutability":"view"},{"type":"function","name":"targetYieldBps","inputs":[],"outputs":[{"name":"","type":"uint16","internalType":"uint16"}],"stateMutability":"view"},{"type":"function","name":"totalAssets","inputs":[],"outputs":[{"name":"","type":"uint256","internalType":"uint256"}],"stateMutability":"view"},{"type":"function","name":"totalSupply","inputs":[],"outputs":[{"name":"","type":"uint256","internalType":"uint256"}],"stateMutability":"view"},{"type":"function","name":"transfer","inputs":[{"name":"to","type":"address","internalType":"address"},{"name":"value","type":"uint256","internalType":"uint256"}],"outputs":[{"name":"","type":"bool","internalType":"bool"}],"stateMutability":"nonpayable"},{"type":"function","name":"transferFrom","inputs":[{"name":"from","type":"address","internalType":"address"},{"name":"to","type":"address","internalType":"address"},{"name":"value","type":"uint256","internalType":"uint256"}],"outputs":[{"name":"","type":"bool","internalType":"bool"}],"stateMutability":"nonpayable"},{"type":"function","name":"transferOwnership","inputs":[{"name":"newOwner","type":"address","internalType":"address"}],"outputs":[],"stateMutability":"nonpayable"},{"type":"function","name":"underwriter","inputs":[],"outputs":[{"name":"","type":"address","internalType":"address"}],"stateMutability":"view"},{"type":"function","name":"unfactorInvoice","inputs":[{"name":"invoiceId","type":"uint256","internalType":"uint256"}],"outputs":[],"stateMutability":"nonpayable"},{"type":"function","name":"viewPoolStatus","inputs":[],"outputs":[{"name":"paidInvoiceIds","type":"uint256[]","internalType":"uint256[]"},{"name":"paidInvoices","type":"tuple[]","internalType":"struct IInvoiceProviderAdapterV2.Invoice[]","components":[{"name":"invoiceAmount","type":"uint256","internalType":"uint256"},{"name":"dueDate","type":"uint256","internalType":"uint256"},{"name":"paidAmount","type":"uint256","internalType":"uint256"},{"name":"impairmentGracePeriod","type":"uint256","internalType":"uint256"},{"name":"creditor","type":"address","internalType":"address"},{"name":"isCanceled","type":"bool","internalType":"bool"},{"name":"isPaid","type":"bool","internalType":"bool"},{"name":"debtor","type":"address","internalType":"address"},{"name":"tokenAddress","type":"address","internalType":"address"}]},{"name":"impairedInvoiceIds","type":"uint256[]","internalType":"uint256[]"},{"name":"impairedInvoices","type":"tuple[]","internalType":"struct IInvoiceProviderAdapterV2.Invoice[]","components":[{"name":"invoiceAmount","type":"uint256","internalType":"uint256"},{"name":"dueDate","type":"uint256","internalType":"uint256"},{"name":"paidAmount","type":"uint256","internalType":"uint256"},{"name":"impairmentGracePeriod","type":"uint256","internalType":"uint256"},{"name":"creditor","type":"address","internalType":"address"},{"name":"isCanceled","type":"bool","internalType":"bool"},{"name":"isPaid","type":"bool","internalType":"bool"},{"name":"debtor","type":"address","internalType":"address"},{"name":"tokenAddress","type":"address","internalType":"address"}]}],"stateMutability":"view"},{"type":"function","name":"withdraw","inputs":[{"name":"assets","type":"uint256","internalType":"uint256"},{"name":"receiver","type":"address","internalType":"address"},{"name":"_owner","type":"address","internalType":"address"}],"outputs":[{"name":"","type":"uint256","internalType":"uint256"}],"stateMutability":"nonpayable"},{"type":"function","name":"withdrawAdminFeesAndSpreadGains","inputs":[],"outputs":[],"stateMutability":"nonpayable"},{"type":"function","name":"withdrawProtocolFees","inputs":[],"outputs":[],"stateMutability":"nonpayable"},{"type":"event","name":"ActivePaidInvoicesReconciled","inputs":[{"name":"paidInvoiceIds","type":"uint256[]","indexed":false,"internalType":"uint256[]"}],"anonymous":false},{"type":"event","name":"AdminFeeBpsChanged","inputs":[{"name":"oldFeeBps","type":"uint16","indexed":true,"internalType":"uint16"},{"name":"newFeeBps","type":"uint16","indexed":true,"internalType":"uint16"}],"anonymous":false},{"type":"event","name":"AdminFeesWithdrawn","inputs":[{"name":"bullaDao","type":"address","indexed":true,"internalType":"address"},{"name":"amount","type":"uint256","indexed":false,"internalType":"uint256"}],"anonymous":false},{"type":"event","name":"Approval","inputs":[{"name":"owner","type":"address","indexed":true,"internalType":"address"},{"name":"spender","type":"address","indexed":true,"internalType":"address"},{"name":"value","type":"uint256","indexed":false,"internalType":"uint256"}],"anonymous":false},{"type":"event","name":"ApprovalDurationChanged","inputs":[{"name":"newDuration","type":"uint256","indexed":false,"internalType":"uint256"}],"anonymous":false},{"type":"event","name":"BullaDaoAddressChanged","inputs":[{"name":"oldAddress","type":"address","indexed":true,"internalType":"address"},{"name":"newAddress","type":"address","indexed":true,"internalType":"address"}],"anonymous":false},{"type":"event","name":"Deposit","inputs":[{"name":"sender","type":"address","indexed":true,"internalType":"address"},{"name":"owner","type":"address","indexed":true,"internalType":"address"},{"name":"assets","type":"uint256","indexed":false,"internalType":"uint256"},{"name":"shares","type":"uint256","indexed":false,"internalType":"uint256"}],"anonymous":false},{"type":"event","name":"DepositPermissionsChanged","inputs":[{"name":"newAddress","type":"address","indexed":false,"internalType":"address"}],"anonymous":false},{"type":"event","name":"FactoringPermissionsChanged","inputs":[{"name":"newAddress","type":"address","indexed":false,"internalType":"address"}],"anonymous":false},{"type":"event","name":"GracePeriodDaysChanged","inputs":[{"name":"newGracePeriodDays","type":"uint256","indexed":false,"internalType":"uint256"}],"anonymous":false},{"type":"event","name":"ImpairReserveChanged","inputs":[{"name":"newImpairReserve","type":"uint256","indexed":false,"internalType":"uint256"}],"anonymous":false},{"type":"event","name":"InvoiceApproved","inputs":[{"name":"invoiceId","type":"uint256","indexed":true,"internalType":"uint256"},{"name":"validUntil","type":"uint256","indexed":false,"internalType":"uint256"},{"name":"feeParams","type":"tuple","indexed":false,"internalType":"struct IBullaFactoringV2.FeeParams","components":[{"name":"targetYieldBps","type":"uint16","internalType":"uint16"},{"name":"spreadBps","type":"uint16","internalType":"uint16"},{"name":"upfrontBps","type":"uint16","internalType":"uint16"},{"name":"protocolFeeBps","type":"uint16","internalType":"uint16"},{"name":"adminFeeBps","type":"uint16","internalType":"uint16"},{"name":"minDaysInterestApplied","type":"uint16","internalType":"uint16"}]}],"anonymous":false},{"type":"event","name":"InvoiceFunded","inputs":[{"name":"invoiceId","type":"uint256","indexed":true,"internalType":"uint256"},{"name":"fundedAmount","type":"uint256","indexed":false,"internalType":"uint256"},{"name":"originalCreditor","type":"address","indexed":true,"internalType":"address"},{"name":"dueDate","type":"uint256","indexed":false,"internalType":"uint256"},{"name":"upfrontBps","type":"uint16","indexed":false,"internalType":"uint16"},{"name":"protocolFee","type":"uint256","indexed":false,"internalType":"uint256"}],"anonymous":false},{"type":"event","name":"InvoiceImpaired","inputs":[{"name":"invoiceId","type":"uint256","indexed":true,"internalType":"uint256"},{"name":"lossAmount","type":"uint256","indexed":false,"internalType":"uint256"},{"name":"gainAmount","type":"uint256","indexed":false,"internalType":"uint256"}],"anonymous":false},{"type":"event","name":"InvoiceKickbackAmountSent","inputs":[{"name":"invoiceId","type":"uint256","indexed":true,"internalType":"uint256"},{"name":"kickbackAmount","type":"uint256","indexed":false,"internalType":"uint256"},{"name":"originalCreditor","type":"address","indexed":true,"internalType":"address"}],"anonymous":false},{"type":"event","name":"InvoicePaid","inputs":[{"name":"invoiceId","type":"uint256","indexed":true,"internalType":"uint256"},{"name":"trueInterest","type":"uint256","indexed":false,"internalType":"uint256"},{"name":"trueSpreadAmount","type":"uint256","indexed":false,"internalType":"uint256"},{"name":"trueAdminFee","type":"uint256","indexed":false,"internalType":"uint256"},{"name":"fundedAmountNet","type":"uint256","indexed":false,"internalType":"uint256"},{"name":"kickbackAmount","type":"uint256","indexed":false,"internalType":"uint256"},{"name":"originalCreditor","type":"address","indexed":true,"internalType":"address"}],"anonymous":false},{"type":"event","name":"InvoiceUnfactored","inputs":[{"name":"invoiceId","type":"uint256","indexed":true,"internalType":"uint256"},{"name":"originalCreditor","type":"address","indexed":false,"internalType":"address"},{"name":"totalRefundOrPaymentAmount","type":"int256","indexed":false,"internalType":"int256"},{"name":"interestToCharge","type":"uint256","indexed":false,"internalType":"uint256"},{"name":"spreadAmount","type":"uint256","indexed":false,"internalType":"uint256"},{"name":"adminFee","type":"uint256","indexed":false,"internalType":"uint256"}],"anonymous":false},{"type":"event","name":"OwnershipTransferred","inputs":[{"name":"previousOwner","type":"address","indexed":true,"internalType":"address"},{"name":"newOwner","type":"address","indexed":true,"internalType":"address"}],"anonymous":false},{"type":"event","name":"ProtocolFeeBpsChanged","inputs":[{"name":"oldProtocolFeeBps","type":"uint16","indexed":false,"internalType":"uint16"},{"name":"newProtocolFeeBps","type":"uint16","indexed":false,"internalType":"uint16"}],"anonymous":false},{"type":"event","name":"ProtocolFeesWithdrawn","inputs":[{"name":"bullaDao","type":"address","indexed":true,"internalType":"address"},{"name":"amount","type":"uint256","indexed":false,"internalType":"uint256"}],"anonymous":false},{"type":"event","name":"RedeemPermissionsChanged","inputs":[{"name":"newAddress","type":"address","indexed":false,"internalType":"address"}],"anonymous":false},{"type":"event","name":"RedemptionQueueChanged","inputs":[{"name":"oldQueue","type":"address","indexed":true,"internalType":"address"},{"name":"newQueue","type":"address","indexed":true,"internalType":"address"}],"anonymous":false},{"type":"event","name":"TargetYieldChanged","inputs":[{"name":"newTargetYield","type":"uint16","indexed":false,"internalType":"uint16"}],"anonymous":false},{"type":"event","name":"Transfer","inputs":[{"name":"from","type":"address","indexed":true,"internalType":"address"},{"name":"to","type":"address","indexed":true,"internalType":"address"},{"name":"value","type":"uint256","indexed":false,"internalType":"uint256"}],"anonymous":false},{"type":"event","name":"UnderwriterChanged","inputs":[{"name":"oldUnderwriter","type":"address","indexed":true,"internalType":"address"},{"name":"newUnderwriter","type":"address","indexed":true,"internalType":"address"}],"anonymous":false},{"type":"event","name":"Withdraw","inputs":[{"name":"sender","type":"address","indexed":true,"internalType":"address"},{"name":"receiver","type":"address","indexed":true,"internalType":"address"},{"name":"owner","type":"address","indexed":true,"internalType":"address"},{"name":"assets","type":"uint256","indexed":false,"internalType":"uint256"},{"name":"shares","type":"uint256","indexed":false,"internalType":"uint256"}],"anonymous":false},{"type":"error","name":"ActivePaidInvoicesExist","inputs":[]},{"type":"error","name":"ApprovalExpired","inputs":[]},{"type":"error","name":"CallerNotBullaDao","inputs":[]},{"type":"error","name":"CallerNotBullaFrendLend","inputs":[]},{"type":"error","name":"CallerNotOriginalCreditor","inputs":[]},{"type":"error","name":"CallerNotUnderwriter","inputs":[]},{"type":"error","name":"ERC20InsufficientAllowance","inputs":[{"name":"spender","type":"address","internalType":"address"},{"name":"allowance","type":"uint256","internalType":"uint256"},{"name":"needed","type":"uint256","internalType":"uint256"}]},{"type":"error","name":"ERC20InsufficientBalance","inputs":[{"name":"sender","type":"address","internalType":"address"},{"name":"balance","type":"uint256","internalType":"uint256"},{"name":"needed","type":"uint256","internalType":"uint256"}]},{"type":"error","name":"ERC20InvalidApprover","inputs":[{"name":"approver","type":"address","internalType":"address"}]},{"type":"error","name":"ERC20InvalidReceiver","inputs":[{"name":"receiver","type":"address","internalType":"address"}]},{"type":"error","name":"ERC20InvalidSender","inputs":[{"name":"sender","type":"address","internalType":"address"}]},{"type":"error","name":"ERC20InvalidSpender","inputs":[{"name":"spender","type":"address","internalType":"address"}]},{"type":"error","name":"ERC4626ExceededMaxDeposit","inputs":[{"name":"receiver","type":"address","internalType":"address"},{"name":"assets","type":"uint256","internalType":"uint256"},{"name":"max","type":"uint256","internalType":"uint256"}]},{"type":"error","name":"ERC4626ExceededMaxMint","inputs":[{"name":"receiver","type":"address","internalType":"address"},{"name":"shares","type":"uint256","internalType":"uint256"},{"name":"max","type":"uint256","internalType":"uint256"}]},{"type":"error","name":"ERC4626ExceededMaxRedeem","inputs":[{"name":"owner","type":"address","internalType":"address"},{"name":"shares","type":"uint256","internalType":"uint256"},{"name":"max","type":"uint256","internalType":"uint256"}]},{"type":"error","name":"ERC4626ExceededMaxWithdraw","inputs":[{"name":"owner","type":"address","internalType":"address"},{"name":"assets","type":"uint256","internalType":"uint256"},{"name":"max","type":"uint256","internalType":"uint256"}]},{"type":"error","name":"FunctionNotSupported","inputs":[]},{"type":"error","name":"ImpairReserveMustBeGreater","inputs":[]},{"type":"error","name":"ImpairReserveNotSet","inputs":[]},{"type":"error","name":"InsufficientFunds","inputs":[{"name":"available","type":"uint256","internalType":"uint256"},{"name":"required","type":"uint256","internalType":"uint256"}]},{"type":"error","name":"InvalidAddress","inputs":[]},{"type":"error","name":"InvalidPercentage","inputs":[]},{"type":"error","name":"InvoiceAlreadyFunded","inputs":[]},{"type":"error","name":"InvoiceAlreadyImpairedByFund","inputs":[]},{"type":"error","name":"InvoiceAlreadyPaid","inputs":[]},{"type":"error","name":"InvoiceCanceled","inputs":[]},{"type":"error","name":"InvoiceCannotBePaid","inputs":[]},{"type":"error","name":"InvoiceCreditorChanged","inputs":[]},{"type":"error","name":"InvoiceNotApproved","inputs":[]},{"type":"error","name":"InvoiceNotImpaired","inputs":[]},{"type":"error","name":"InvoicePaidAmountChanged","inputs":[]},{"type":"error","name":"InvoiceTokenMismatch","inputs":[]},{"type":"error","name":"LoanOfferAlreadyAccepted","inputs":[]},{"type":"error","name":"LoanOfferNotExists","inputs":[]},{"type":"error","name":"NoFeesToWithdraw","inputs":[]},{"type":"error","name":"OwnableInvalidOwner","inputs":[{"name":"owner","type":"address","internalType":"address"}]},{"type":"error","name":"OwnableUnauthorizedAccount","inputs":[{"name":"account","type":"address","internalType":"address"}]},{"type":"error","name":"RedemptionQueueNotEmpty","inputs":[]},{"type":"error","name":"SafeERC20FailedOperation","inputs":[{"name":"token","type":"address","internalType":"address"}]},{"type":"error","name":"UnauthorizedDeposit","inputs":[{"name":"caller","type":"address","internalType":"address"}]},{"type":"error","name":"UnauthorizedFactoring","inputs":[{"name":"caller","type":"address","internalType":"address"}]}],"bytecode":{"object":"0x60c08060405234610743576179ef803803809161001c8285610747565b833981016101c0828203126107435781516001600160a01b0381168082036107435760208401516001600160a01b03811692908390036107435760408501516001600160a01b03811690819003610743576100796060870161076a565b6100856080880161076a565b61009160a0890161076a565b9161009e60c08a0161076a565b936100ab60e08b0161076a565b976100b96101008c0161077e565b976100c76101208d0161077e565b6101408d01519b9098906001600160401b038d11610743576100fb6101608f9e8f6100f4918591016107a8565b9f0161077e565b6101808e0151909d906001600160401b038111610743578261011e9183016107a8565b6101a08201519092906001600160401b0381116107435761013f92016107a8565b815190916001600160401b03821161043f5760035490600182811c92168015610739575b60208310146105295781601f8493116106cb575b50602090601f8311600114610665575f9261065a575b50508160011b915f199060031b1c1916176003555b8051906001600160401b03821161043f5760045490600182811c92168015610650575b60208310146105295781601f8493116105e2575b50602090601f831160011461057c575f92610571575b50508160011b915f199060031b1c1916176004555b61020d816107ee565b9015610569575b60a05260805233156105565760058054336001600160a01b0319821681179092556001600160a01b03167f8be0079c531659141344cd1fd0a4f28419497f9722a3daafe3b4186f6b6457e05f80a3603c6013555f601855610e10601b5561271061ffff8a16116105475761271061ffff89161161054757600980546001600160a01b0319908116929092179055600a8054821692909217909155600d8054821692909217909155600e805482166001600160a01b03938416179055601480548216938316939093179092556015805483169382169390931790925560168054909116928216929092179091556006805460a09490941b61ffff60a01b166001600160c01b031990941694909116939093179190911760b09190911b61ffff60b01b1617905542600f558151916001600160401b03831161043f57601154600181811c9116801561053d575b602082101461052957601f81116104c6575b50602090601f841160011461045e5761ffff93915f9183610453575b50508160011b915f199060031b1c1916176011555b1661ffff1960125416176012556040516111b88082019082821060018060401b0383111761043f57604091839161683783393381523060208201520301905ff0801561043457601780546001600160a01b0319166001600160a01b0392909216919091179055604051615fa590816108928239608051818181611686015281816152640152615654015260a051815050f35b6040513d5f823e3d90fd5b634e487b7160e01b5f52604160045260245ffd5b015190505f8061038d565b90601f1984169160115f52815f20925f5b8181106104ae575091600193918661ffff979410610496575b505050811b016011556103a2565b01515f1960f88460031b161c191690555f8080610488565b9293602060018192878601518155019501930161046f565b60115f527f31ecc21a745e3968a04e9570e4425bc18fa8019c68028196b546d1669c200c68601f850160051c8101916020861061051f575b601f0160051c01905b8181106105145750610371565b5f8155600101610507565b90915081906104fe565b634e487b7160e01b5f52602260045260245ffd5b90607f169061035f565b631f3b85d360e01b5f5260045ffd5b631e4fbdf760e01b5f525f60045260245ffd5b506012610214565b015190505f806101ef565b60045f9081528281209350601f198516905b8181106105ca57509084600195949392106105b2575b505050811b01600455610204565b01515f1960f88460031b161c191690555f80806105a4565b9293602060018192878601518155019501930161058e565b60045f529091507f8a35acfbc15ff81a39ae7d344fd709f28e8600b4aa8c65c6b64bfe7fe36bd19b601f840160051c81019160208510610646575b90601f859493920160051c01905b81811061063857506101d9565b5f815584935060010161062b565b909150819061061d565b91607f16916101c5565b015190505f8061018d565b60035f9081528281209350601f198516905b8181106106b3575090846001959493921061069b575b505050811b016003556101a2565b01515f1960f88460031b161c191690555f808061068d565b92936020600181928786015181550195019301610677565b60035f529091507fc2575a0e9e593c00f959f8c92f12db2869c3395a3b0502d05e2516446f71f85b601f840160051c8101916020851061072f575b90601f859493920160051c01905b8181106107215750610177565b5f8155849350600101610714565b9091508190610706565b91607f1691610163565b5f80fd5b601f909101601f19168101906001600160401b0382119082101761043f57604052565b51906001600160a01b038216820361074357565b519061ffff8216820361074357565b6001600160401b03811161043f57601f01601f191660200190565b81601f82011215610743578051906107bf8261078d565b926107cd6040519485610747565b8284526020838301011161074357815f9260208093018386015e8301015290565b5f8091604051602081019063313ce56760e01b825260048152610812602482610747565b51916001600160a01b03165afa3d15610889573d906108308261078d565b9161083e6040519384610747565b82523d5f602084013e5b8061087d575b61085a575b505f905f90565b602081805181010312610743576020015160ff8111610853579060ff6001921690565b5060208151101561084e565b60609061084856fe60806040526004361015610011575f80fd5b5f3560e01c806301e1d1141461057557806306fdde031461057057806307a2d13a146104f857806308bb5f7b1461056b578063095ea7b3146105665780630a22d68c146105615780630a28a4771461055c5780630ce6b419146105575780631348ed5e14610552578063173693241461054d57806318160ddd146105485780631859caa8146105435780631ba46cfd1461053e5780631be4c4d4146105395780631d1c8fe5146105345780631fa4e3ec1461052f57806323b872dd1461052a5780632c591bd7146105255780632d896b2a146105205780632f5d8aa91461051b578063313ce5671461051657806335659fb81461051157806338d52e0f1461050c5780633b4c46d014610507578063402d267d1461043a57806344fcb5cc14610502578063494112ac146104fd5780634cdad506146104f857806353a3417b146104f357806356984d9f146104ee578063591e1788146104e95780635e20bfc8146104e45780636e553f65146104df5780636f31ab34146104da578063706a3f7d146104d557806370a08231146104d0578063715018a6146104cb57806372c5c144146104c657806376138f55146104c15780637fbc9622146104bc578063800120fa146104b75780638795cccb146104b25780638c335f9b146104ad5780638da5cb5b146104a85780638e73836c146104a357806394bf804d1461049e57806395d89b411461049957806397ec19be1461042b57806398769926146104945780639948ff451461048f57806399530b061461048a578063a36e9fe714610485578063a3d1612c14610480578063a85f57141461047b578063a9059cbb14610476578063ac27a24f14610471578063ada100141461046c578063b331108614610467578063b3d7f6b914610462578063b460af941461045d578063b73afe8c14610458578063b9b060b014610453578063ba0876521461044e578063be37b12c14610449578063c42f18f514610444578063c5c1d2461461043f578063c63d75b61461043a578063c6e6f59214610435578063ce96cb7714610430578063cea6a0ee1461042b578063cec5a55814610426578063cf0160f914610421578063d8cf9e381461041c578063d905777e14610417578063dc2dc8ff14610412578063dd0a12bc1461040d578063dd62ed3e14610408578063e22ddb5214610403578063e300a0f4146103fe578063e6f0681c146103f9578063e72f0f05146103f4578063ec233684146103ef578063ef8b30f7146103ea578063efe0707b146103e5578063f00db260146103e0578063f2fde38b146103db5763f3466dfa146103d6575f80fd5b613abd565b613972565b61394a565b6138d1565b6138b3565b613767565b6136c5565b6136a1565b613664565b61363c565b6135dd565b6135bc565b6132a5565b61327e565b61322f565b61315e565b613112565b6126f9565b6130eb565b6130cd565b61172c565b6130a5565b613059565b612fc9565b612dcd565b612d61565b612cf9565b612a8d565b612a46565b612a29565b612998565b61291f565b6128f5565b6128cd565b61289b565b612801565b612763565b61273b565b612721565b612644565b612619565b6125ff565b6125d7565b612061565b611fbf565b611f4f565b611f27565b611e9c565b611e82565b611e27565b611e05565b611dbf565b611d91565b611cd5565b611cb8565b611c05565b611b9e565b611a4f565b6106dd565b6118d1565b611753565b6116b5565b611671565b61164d565b611628565b6115b8565b61159b565b611254565b6111a3565b611186565b610eba565b610ca5565b610c7d565b610938565b61091b565b6108f3565b6108d6565b61088a565b61086c565b61084f565b610792565b61070c565b6105ea565b610588565b5f91031261058457565b5f80fd5b34610584575f3660031901126105845760206105aa6105a5614ac8565b614dd2565b604051908152f35b805180835260209291819084018484015e5f828201840152601f01601f1916010190565b9060206105e79281815201906105b2565b90565b34610584575f366003190112610584576040515f6003548060011c90600181169081156106d3575b6020831082146106bf5782855260208501919081156106a65750600114610654575b6106508461064481860382611815565b604051918291826105d6565b0390f35b60035f9081529250907fc2575a0e9e593c00f959f8c92f12db2869c3395a3b0502d05e2516446f71f85b5b8184106106925750500161064482610634565b80548484015260209093019260010161067f565b60ff191682525090151560051b01905061064482610634565b634e487b7160e01b5f52602260045260245ffd5b91607f1691610612565b346105845760203660031901126105845760206105aa600435614e65565b6001600160a01b0381160361058457565b3461058457602036600319011261058457600435610729816106fb565b610731614e9e565b6001600160a01b0316801561078357600e80546001600160a01b0319811683179091556001600160a01b03167fae536502f25a82de70abed467008489d54fa0cbf58cdc51718efe6d49406724f5f80a3005b63e6c4247b60e01b5f5260045ffd5b34610584576040366003190112610584576004356107af816106fb565b602435331561083c576001600160a01b038216918215610829576107ef8291335f52600160205260405f209060018060a01b03165f5260205260405f2090565b5560405190815233907f8c5be1e5ebec7d5bd14f71427d1e84f3dd0314c0f7b2291e5b200ac8c7c3b92590602090a3602060405160018152f35b634a1406b160e11b5f525f60045260245ffd5b63e602df0560e01b5f525f60045260245ffd5b34610584575f366003190112610584576020600754604051908152f35b346105845760203660031901126105845760206105aa600435614ec5565b34610584576020366003190112610584577fe595c99430465234d1ec90ffa3458590c544d5349139442d6911452a7b8e82fa60206004356108c9614e9e565b80601355604051908152a1005b34610584575f366003190112610584576020601354604051908152f35b34610584575f366003190112610584576014546040516001600160a01b039091168152602090f35b34610584575f366003190112610584576020600254604051908152f35b3461058457604036600319011261058457600435602435600d5461097290610966906001600160a01b031681565b6001600160a01b031690565b3303610c6e5761099261098d835f52601f60205260405f2090565b613aec565b916109a76109a36060850151151590565b1590565b610c5f576109c76109c0835f52601a60205260405f2090565b5460ff1690565b610c50576017546004906020906109e6906001600160a01b0316610966565b604051632bbba84760e01b815292839182905afa908115610bf8575f91610c21575b5015610c1257610a196105a5614ac8565b906020840191825190818110610bfd57505080610a516003610a46610a56945f52601f60205260405f2090565b01805460ff19169055565b614efa565b8251610aef6080850191825160408551970196610a74885142613b85565b610a7f601354613b92565b90610a88611837565b60018152943060208701526040860152606085015260808401524260a084015260c0830181905260e083018190526101008301525f610120830181905261014083015230610160830152610180820152610aea855f52601a60205260405f2090565b613bc4565b610b2430610b05855f52601960205260405f2090565b80546001600160a01b0319166001600160a01b03909216919091179055565b610b2d83613d36565b600a54610b42906001600160a01b0316610966565b91823b15610584576040516321eee2cf60e21b815260048101859052925f908490602490829084905af1928315610bf857610bae610bb9926040927f4e62b86702f721578f90bdd9fa98c47ad4eaabf82718ef4f127878c66b60d5d796610bde575b5051965142613b85565b9251015161ffff1690565b60408051958652602086019290925261ffff16908401525f60608401523092608090a3005b80610bec5f610bf293611815565b8061057a565b5f610ba4565b613b66565b62fae2d560e21b5f5260045260245260445b5ffd5b636ba188b360e01b5f5260045ffd5b610c43915060203d602011610c49575b610c3b8183611815565b810190613b52565b5f610a08565b503d610c31565b631df7d2dd60e01b5f5260045ffd5b632c0d11d960e01b5f5260045ffd5b6332d10c3f60e01b5f5260045ffd5b34610584575f366003190112610584576009546040516001600160a01b039091168152602090f35b3461058457602036600319011261058457600435610cc1614e9e565b6010548015610eab57610cd66109a383614fdf565b610e9c57610cf96002610cf1845f52601e60205260405f2090565b015460ff1690565b610e8d576006610d11835f52601a60205260405f2090565b015490610d30610d2b610d248360011c90565b8093613e21565b601055565b610d39836150c1565b610d4283613d6c565b610d7a610d4d611849565b828152836020820152610d636040820160019052565b610d75855f52601e60205260405f2090565b613e2e565b600a54610d8f906001600160a01b0316610966565b60408051630d219c0f60e01b8152600481018690529391849060249082905afa8015610bf8577ff95dd13343beabbe284b7f97d54b2d4fda5841bab502d60164e8ede601fbe3ac935f905f92610e5b575b506001600160a01b038116610e0c575b505060408051918252602082019290925290819081015b0390a2005b5f8091610e54938260405160208101928352610e4281610e348d602483019190602083019252565b03601f198101835282611815565b51925af1610e4e613e96565b50613ec5565b5f80610df0565b9050610e7f915060403d604011610e86575b610e778183611815565b810190613e66565b905f610de0565b503d610e6d565b633235e0c760e21b5f5260045ffd5b632d9bb54f60e11b5f5260045ffd5b6357154c3f60e01b5f5260045ffd5b34610584575f36600319011261058457610ed2615162565b61117757601754600490608090610ef1906001600160a01b0316610966565b6040516347627adb60e01b815292839182905afa908115610bf8575f91611158575b50610f27610f1f615173565b809291615185565b82516001600160a01b03168015158061114f575b1561108e5760408401805190915f911561109a575050610f62828251818082109118021890565b90811561108e5784518290610f95906001600160a01b03165b6001600160a01b03165f9081526020819052604090205490565b106110905750610ff8610ffe929394610fdd83610fb181614e65565b835190938491610fd7906020906001600160a01b03165b9201516001600160a01b031690565b81615193565b610ff1610fec82600c54613b85565b600c55565b8295613e21565b92613e21565b915b801561108e576017545f916080916110479190611025906001600160a01b0316610966565b9060405194858094819363dac52f2d60e01b8352600483019190602083019252565b03925af1908115610bf8575f91611060575b5091610f27565b611081915060803d8111611087575b6110798183611815565b810190613f06565b5f611059565b503d61106f565b005b9193505051611000565b9092949150606082019081516110b3575b505050611000565b6110d191929593506110c490614ce2565b8251818082109118021890565b93841561108e576110e185614ec5565b815190929083906110fa906001600160a01b0316610f7b565b106111445750846111248361113a95969784610fd76020610fc8610ff8985160018060a01b031690565b611133610fec82600c54613b85565b8095613e21565b915b5f80806110ab565b92945050505161113c565b50821515610f3b565b611171915060803d608011611087576110798183611815565b5f610f13565b6311285b0960e01b5f5260045ffd5b34610584575f366003190112610584576020601854604051908152f35b34610584576060366003190112610584576111e36004356111c3816106fb565b6024356111cf816106fb565b604435916111de8333836152f6565b61539e565b602060405160018152f35b6024359061ffff8216820361058457565b6044359061ffff8216820361058457565b6064359061ffff8216820361058457565b6084359061ffff8216820361058457565b60a4359061ffff8216820361058457565b6004359061ffff8216820361058457565b346105845760c0366003190112610584576004356112706111ee565b6112786111ff565b90611281611210565b611289611221565b60a4359061ffff8316801590811561158f575b5061158057600e546112b6906001600160a01b0316610966565b3303611571576112c8601b5442613b85565b600a549093906112e0906001600160a01b0316610966565b803b15610584576040516321eee2cf60e21b815260048101899052905f908290602490829084905af18015610bf85761155d575b50600a5461132a906001600160a01b0316610966565b60405163484d384560e11b815260048101899052929061012090849060249082905afa928315610bf8575f9361152c575b5082519661136f6040850198895190613e21565b1561151d576080840180519093906001600160a01b03166001600160a01b0316301461150e576101008501516001600160a01b03166009546113bb90610966906001600160a01b031681565b6001600160a01b03909116036114ff576006549060a082901c61ffff169160b01c61ffff16926113e9611858565b61ffff909a168a5261ffff1660208a015261ffff16604089015261ffff16606088015261ffff16608087015261ffff1660a0860152516001600160a01b03167f9a6de9d77d72a8097b391e8a8de244f0be5f1344b06d6c4f000bd98f08c7b166956114dc9391929180156114eb57905b51916060602082015191015190611487611471611837565b60018152955b6001600160a01b03166020870152565b866040860152606085015260808401525f60a08401525f60c08401525f60e08401526101008301526101208201525f6101408201525f61016082015283610180820152610aea865f52601a60205260405f2090565b610e0760405192839283613ff7565b506114f98251825190613e21565b90611459565b6322b96ac960e01b5f5260045ffd5b639c20501360e01b5f5260045ffd5b63c627ace960e01b5f5260045ffd5b61154f9193506101203d8111611556575b6115478183611815565b810190613f67565b915f61135b565b503d61153d565b80610bec5f61156b93611815565b5f611314565b632e83528960e01b5f5260045ffd5b631f3b85d360e01b5f5260045ffd5b6127109150115f61129c565b34610584575f366003190112610584576020600854604051908152f35b34610584576020366003190112610584577f93e489c437f6f04520047095a2da3d2f1ee89075b945d9283437bd175a6a79a160206004356115f8816106fb565b611600614e9e565b601580546001600160a01b0319166001600160a01b03929092169182179055604051908152a1005b34610584575f36600319011261058457602061164261400d565b60ff60405191168152f35b34610584575f36600319011261058457602061ffff60065460a01c16604051908152f35b34610584575f366003190112610584576040517f00000000000000000000000000000000000000000000000000000000000000006001600160a01b03168152602090f35b34610584576020366003190112610584576004356116d2816106fb565b6116da614e9e565b6001600160a01b0316801561078357601780546001600160a01b0319811683179091556001600160a01b03167f3fa8489c18e4f4729542d25708930c13cd4039edffa4a8ae598978af1c3f3f755f80a3005b34610584576020366003190112610584576117486004356106fb565b60206040515f198152f35b346105845760203660031901126105845760043561176f614e9e565b6010548082106117d05781038181116117cb577f96ef0ad874bac1a0f28dd6bb42d3cd79816d65910307ac7d95d97bb464cbb94a916117be60209260018060a01b036009541630903390615462565b80601055604051908152a1005b613b71565b631506ed4b60e01b5f5260045ffd5b634e487b7160e01b5f52604160045260245ffd5b610120810190811067ffffffffffffffff82111761181057604052565b6117df565b90601f8019910116810190811067ffffffffffffffff82111761181057604052565b604051906118476101a083611815565b565b60405190611847606083611815565b6040519061184760c083611815565b6040519061184761014083611815565b6040519061184761012083611815565b60405190611847604083611815565b6040519061184761016083611815565b6040519061184760a083611815565b67ffffffffffffffff811161181057601f01601f191660200190565b346105845760e0366003190112610584576004356118ee816106fb565b6118f66111ee565b906118ff6111ff565b9060643560843561190e611232565b9160c4359467ffffffffffffffff861161058457366023870112156105845785600401359661193c886118b5565b9561194a6040519788611815565b8887523660248a8a010111610584575f60208a6106509b60246119759c01838c013789010152614290565b6040519081529081906020820190565b9060405160c081019080821067ffffffffffffffff831117611810576118479160405260a0611a0182955461ffff8116845261ffff8160101c16602085015261ffff8160201c1660408501526119e961ffff8260301c16606086019061ffff169052565b61ffff604082901c16608085015260501c61ffff1690565b61ffff16910152565b61ffff60a08092828151168552826020820151166020860152826040820151166040860152826060820151166060860152826080820151166080860152015116910152565b34610584576020366003190112610584576004355f52601f60205261014060405f20611ab88154916001810154906002810154611a96600460ff6003850154169301611985565b9260405195865260208601526040850152151560608401526080830190611a0a565bf35b90602080835192838152019201905f5b818110611ad75750505090565b8251845260209384019390920191600101611aca565b90602080835192838152019201905f5b818110611b0a5750505090565b9091926020610120600192611b9361010088518051845285810151868501526040810151604085015260608101516060850152868060a01b03608082015116608085015260a0810151151560a0850152611b6d60c082015160c086019015159052565b60e0818101516001600160a01b03169085015201516001600160a01b0316610100830152565b019401929101611afd565b34610584575f36600319011261058457611bdb611be9610650611bf7611bc26145e9565b9392959091604051978897608089526080890190611aba565b908782036020890152611aed565b908582036040870152611aba565b908382036060850152611aed565b3461058457602036600319011261058457600435600a5460405163484d384560e11b8152600481018390529061012090829060249082906001600160a01b03165afa8015610bf85761065092611c75925f92611c97575b505f52601a602052611c7060405f2061481a565b6155eb565b6040805194855260208501939093529183015260608201529081906080820190565b611cb19192506101203d8111611556576115478183611815565b905f611c5c565b34610584575f366003190112610584576020601b54604051908152f35b3461058457604036600319011261058457602435600435611cf5826106fb565b601454611d0a906001600160a01b0316610966565b60405163babcc53960e01b815233600482015290602090829060249082905afa908115610bf8575f91611d72575b5015611d5f57611975611d5a611d516106509484615641565b92600b54613b85565b600b55565b635ebb5e2160e11b5f523360045260245ffd5b611d8b915060203d602011610c4957610c3b8183611815565b5f611d38565b34610584575f3660031901126105845760206105aa611dae614ac8565b611db96105a5614ac8565b90615185565b34610584576020366003190112610584576004355f52601e602052606060405f2080549060ff600260018301549201541690604051928352602083015215156040820152f35b346105845760203660031901126105845760206105aa600435610f7b816106fb565b34610584575f36600319011261058457611e3f614e9e565b600580546001600160a01b031981169091555f906001600160a01b03167f8be0079c531659141344cd1fd0a4f28419497f9722a3daafe3b4186f6b6457e08280a3005b34610584575f3660031901126105845760206105aa614905565b34610584575f36600319011261058457611eb46145e9565b50505f5b8251811015611ee95780611ee3611ed1600193866145c7565b51611edc83866145c7565b5190615725565b01611eb8565b7f71c060a755cff9c84db9f4be3b4fac0b83f3ffe4e7ff3ebc0be0420d28fb1de0611f2284604051918291602083526020830190611aba565b0390a1005b34610584575f36600319011261058457600a546040516001600160a01b039091168152602090f35b34610584576020366003190112610584577fbc05deec4ecd4d9295d36f7434b1feee89ac308d4040e0133f06bff4635cf70a6020600435611f8f816106fb565b611f97614e9e565b601680546001600160a01b0319166001600160a01b03929092169182179055604051908152a1005b34610584575f366003190112610584576006546001600160a01b03163381900361205257600754908115612043575f6007556009546120089183916001600160a01b031661587f565b6006546040519182526001600160a01b0316907fa087657e3d85162090ffd700fbfdf5070d816f63aa5da00063f6ffd369c8a6db90602090a2005b630d00db4d60e31b5f5260045ffd5b6307c68f0f60e11b5f5260045ffd5b346105845760603660031901126105845760043561207d6111ee565b906044359161208b836106fb565b6016546120a0906001600160a01b0316610966565b60405163babcc53960e01b815233600482015290602090829060249082905afa908115610bf8575f916125b8575b50156125a5576017546004906020906120ef906001600160a01b0316610966565b604051632bbba84760e01b815292839182905afa908115610bf8575f91612586575b5015610c125761212f6109a36109c0845f52601a60205260405f2090565b61257757612160612159600b61214d855f52601a60205260405f2090565b015460201c61ffff1690565b61ffff1690565b61ffff821690811190811561256e575b50611580576001612189835f52601a60205260405f2090565b0154421161255f57600a546121a6906001600160a01b0316610966565b60405163484d384560e11b8152600481018490529061012090829060249082905afa908115610bf8575f91612540575b5060a08101516125315760086121f4845f52601a60205260405f2090565b01546040820151036125225761223c610966608061222d61221d875f52601a60205260405f2090565b5460081c6001600160a01b031690565b9301516001600160a01b031690565b6001600160a01b0390911603612513576122568183614bf3565b96949250969250506122696105a5614ac8565b806122748884613b85565b116124ef575061228e61228987600754613b85565b600755565b60056122a2845f52601a60205260405f2090565b01558360066122b9845f52601a60205260405f2090565b01554260046122d0845f52601a60205260405f2090565b015561230983600b6122ea855f52601a60205260405f2090565b019065ffff0000000082549160201b169065ffff000000001916179055565b84600961231e845f52601a60205260405f2090565b0155836001600160a01b0382166124e65761237f9150335b61236e81600a61234e875f52601a60205260405f2090565b0180546001600160a01b0319166001600160a01b03909216919091179055565b6009546001600160a01b031661587f565b600a54612394906001600160a01b0316610966565b604051631d14b7f760e31b81526004810183905290602090829060249082905afa908115610bf8575f916124b7575b506001600160a01b031693843b15610584576040516323b872dd60e01b815233600482015230602482015260448101839052945f908690606490829084905af1908115610bf857610650957f4e62b86702f721578f90bdd9fa98c47ad4eaabf82718ef4f127878c66b60d5d7926124a3575b5061244c33610b05855f52601960205260405f2090565b61245583613d36565b6002612469845f52601a60205260405f2090565b015460408051878152602081019290925261ffff959095169481019490945260608401523392608090a36040519081529081906020820190565b80610bec5f6124b193611815565b5f612435565b6124d9915060203d6020116124df575b6124d18183611815565b810190614ab3565b5f6123c3565b503d6124c7565b61237f91612336565b6124fc87610c0f93613b85565b62fae2d560e21b5f52600491909152602452604490565b63f18c77f960e01b5f5260045ffd5b63971ccc7760e01b5f5260045ffd5b637ccc2bd960e11b5f5260045ffd5b61255991506101203d8111611556576115478183611815565b5f6121d6565b634aad99a560e11b5f5260045ffd5b9050155f612170565b63649ac74160e11b5f5260045ffd5b61259f915060203d602011610c4957610c3b8183611815565b5f612111565b637190a79560e11b5f523360045260245ffd5b6125d1915060203d602011610c4957610c3b8183611815565b5f6120ce565b34610584575f366003190112610584576005546040516001600160a01b039091168152602090f35b34610584575f3660031901126105845760206105aa614ac8565b34610584576040366003190112610584576126356024356106fb565b6369bd111d60e11b5f5260045ffd5b34610584575f366003190112610584576040515f6004548060011c90600181169081156126ef575b6020831082146106bf5782855260208501919081156106a6575060011461269d576106508461064481860382611815565b60045f9081529250907f8a35acfbc15ff81a39ae7d344fd709f28e8600b4aa8c65c6b64bfe7fe36bd19b5b8184106126db5750500161064482610634565b8054848401526020909301926001016126c8565b91607f169161266c565b34610584575f366003190112610584576017546040516001600160a01b039091168152602090f35b34610584575f3660031901126105845760206105aa614b05565b34610584575f366003190112610584576006546040516001600160a01b039091168152602090f35b34610584575f3660031901126105845760206105aa61278861278361400d565b614be2565b614e65565b9a98969492909d9c9b99979593916102408c019e15158c52600160a01b600190031660208c015260408b015260608a0152608089015260a088015260c087015260e0860152610100850152610120840152610140830152600160a01b60019003166101608201526101800161184791611a0a565b34610584576020366003190112610584576004355f908152601a6020526040902080549060ff9061065090600884901c6001600160a01b0316906001810154600282015460038301546004840154600585015460068601549160078701549360088801549560098901549761288b600b612884600a8d015460018060a01b031690565b9b01611985565b9a6040519e8f9e8f91169061278d565b34610584576020366003190112610584576004355f526019602052602060018060a01b0360405f205416604051908152f35b34610584575f366003190112610584576016546040516001600160a01b039091168152602090f35b34610584576040366003190112610584576111e3600435612915816106fb565b602435903361539e565b3461058457602036600319011261058457612938611243565b612940614e9e565b61ffff8116906127108211611580576006805461ffff60b01b19811660b093841b61ffff60b01b1617909155901c61ffff167fcc9b1d1e60d76e8755bd2ceaeb3d3ccfe5e5bb556097b7ce618b0a60480ef3e15f80a3005b3461058457602036600319011261058457600a5460405163484d384560e11b8152600480359082018190529161012090829060249082906001600160a01b03165afa908115610bf8575f91612a0a575b5060c08101516129fb5761108e91615725565b631915f32960e11b5f5260045ffd5b612a2391506101203d8111611556576115478183611815565b5f6129e8565b34610584575f366003190112610584576020600f54604051908152f35b346105845760203660031901126105845760206105aa600435614e86565b60609060031901126105845760043590602435612a80816106fb565b906044356105e7816106fb565b3461058457612a9b36612a64565b601554919291612ab3906001600160a01b0316610966565b60405163babcc53960e01b8152336004820152602081602481855afa908115610bf8575f91612cda575b5015611d5f5760405163babcc53960e01b81526001600160a01b038316600482015290602090829060249082905afa908115610bf8575f91612cbb575b5015612ca057612b28615162565b61117757601754600490602090612b47906001600160a01b0316610966565b604051632bbba84760e01b815292839182905afa908115610bf8575f91612c81575b5015612c7b57612b86612b7b82614ce2565b808418818510021890565b5f9281612c52575b90612b9891613e21565b9283612baa575b604051838152602090f35b92602091612c09945f612bc761096660175460018060a01b031690565b604051639071ffbb60e01b81526001600160a01b0394851660048201529290931660248301525f60448301526064820193909352948592839182906084820190565b03925af1918215610bf85761065092612c23575b80612b9f565b612c449060203d602011612c4b575b612c3c8183611815565b810190614093565b505f612c1d565b503d612c32565b925080612c638386612b98946158b8565b93612c73610fec83600c54613b85565b909150612b8e565b5f612b86565b612c9a915060203d602011610c4957610c3b8183611815565b5f612b69565b635ebb5e2160e11b5f526001600160a01b031660045260245ffd5b612cd4915060203d602011610c4957610c3b8183611815565b5f612b1a565b612cf3915060203d602011610c4957610c3b8183611815565b5f612add565b346105845760203660031901126105845761ffff612d15611243565b612d1d614e9e565b166127108111611580576020817f70804697a7389a86ccbf4594ad23c117ecf0a1ffb94ae9516dc15f85ac7c29c89261ffff196012541617601255604051908152a1005b34610584575f36600319011261058457612d79614e9e565b6008548015612043575f600855600954612d9f90829033906001600160a01b031661587f565b6040519081527fcdcaff67ac16639664e5f9343c9223a1dc9c972ec367b69ae9fc1325c7be547460203392a2005b3461058457612ddb36612a64565b601554919291612df3906001600160a01b0316610966565b60405163babcc53960e01b8152336004820152602081602481855afa908115610bf8575f91612faa575b5015611d5f5760405163babcc53960e01b81526001600160a01b038316600482015290602090829060249082905afa908115610bf8575f91612f8b575b5015612ca057612e68615162565b61117757601754600490602090612e87906001600160a01b0316610966565b604051632bbba84760e01b815292839182905afa908115610bf8575f91612f6c575b5015612f6657612ebb612b7b82614d14565b5f9281612f3d575b90612ecd91613e21565b9283612ede57604051838152602090f35b92602091612c09945f612efb61096660175460018060a01b031690565b604051639071ffbb60e01b81526001600160a01b03948516600482015292909316602483015260448201939093525f6064820152948592839182906084820190565b925080612f4e8386612ecd94615908565b93612f5e610fec86600c54613b85565b909150612ec3565b5f612ebb565b612f85915060203d602011610c4957610c3b8183611815565b5f612ea9565b612fa4915060203d602011610c4957610c3b8183611815565b5f612e5a565b612fc3915060203d602011610c4957610c3b8183611815565b5f612e1d565b3461058457602036600319011261058457612fe2611243565b600654906001600160a01b03821633036120525761ffff81169161271083116115805761ffff60a01b19811660a092831b61ffff60a01b1617600655604080519190921c61ffff16815260208101929092527f2ea630a8e6f6f7590aa81eb8993a1c4a49a0913effd00467ddd761d45867a3ee91a1005b346105845760403660031901126105845760c061308060043561307a6111ee565b90614bf3565b93604093919351958652602086015260408501526060840152608083015260a0820152f35b34610584575f36600319011261058457600d546040516001600160a01b039091168152602090f35b346105845760203660031901126105845760206105aa600435614ee3565b346105845760203660031901126105845760206105aa60043561310d816106fb565b614ce2565b34610584576020366003190112610584577f6afefcb7619ccdb73c8fdd4304d507509f1d2327b6f29ff2b9c77a1fa760687d6020600435613151614e9e565b80601b55604051908152a1005b34610584576020366003190112610584577ff6a412f75fe107fb805f9acb0408b3ac23ff1d0381fc83f6ef4352a8c9727f89602060043561319e816106fb565b6131a6614e9e565b601480546001600160a01b0319166001600160a01b03929092169182179055604051908152a1005b634e487b7160e01b5f52603260045260245ffd5b601c548110156131fa57601c5f5260205f2001905f90565b6131ce565b601d548110156131fa57601d5f5260205f2001905f90565b6020548110156131fa5760205f5260205f2001905f90565b346105845760203660031901126105845760043560205481101561058457602090815f527fc97bfaf2f8ee708c303a06d134f5ecd8389ae0432af62dc132a24118292866bb0154604051908152f35b346105845760203660031901126105845760206105aa6004356132a0816106fb565b614d14565b3461058457602036600319011261058457600435600a546132ce906001600160a01b0316610966565b60405163484d384560e11b8152600481018390529061012090829060249082905afa908115610bf8575f9161359d575b5060c08101516129fb5761332a61331d835f52601960205260405f2090565b546001600160a01b031690565b90336001600160a01b0383160361358e576040916133b86133d16133be936133cc613365613360895f52601a60205260405f2090565b61481a565b6101406133c360e0830151948060a08501518042115f14613580576133be9161339961339461339f9342613e21565b615a0e565b87615a7b565b509c909d91809b8f938f9601516101208a015190613e21565b99613b85565b613b85565b91015190613b85565b6148ed565b925f841315613553576009546133f49085906001600160a01b0316853091615462565b600a54613409906001600160a01b0316610966565b604051631d14b7f760e31b81526004810188905290602090829060249082905afa908115610bf8575f91613534575b506001600160a01b031694853b15610584576040516323b872dd60e01b81523060048201526001600160a01b038516602482015260448101889052955f908790606490829084905af1928315610bf8577f6a8a209d72b87a986d123b27e304960d90a732c6c639bd2b7c9194c18d7a8d6596610e0794613520575b506134bd886150c1565b6134c8838383615c4b565b6134ed6134dd895f52601960205260405f2090565b80546001600160a01b0319169055565b604051958695869192608093969594919660a084019760018060a01b031684526020840152604083015260608201520152565b80610bec5f61352e93611815565b5f6134b3565b61354d915060203d6020116124df576124d18183611815565b5f613438565b5f8412156133f45760095461357b906001600160a01b03168461357587614d36565b9161587f565b6133f4565b5061339f6133be915f613399565b6398c1b40760e01b5f5260045ffd5b6135b691506101203d8111611556576115478183611815565b5f6132fe565b34610584575f36600319011261058457602061ffff60125416604051908152f35b346105845760403660031901126105845760206136336004356135ff816106fb565b6024359061360c826106fb565b60018060a01b03165f526001835260405f209060018060a01b03165f5260205260405f2090565b54604051908152f35b34610584575f366003190112610584576015546040516001600160a01b039091168152602090f35b3461058457602036600319011261058457600435601c5481101561058457602090601c5f525f516020615f505f395f51905f520154604051908152f35b34610584575f36600319011261058457602061ffff60065460b01c16604051908152f35b34610584575f366003190112610584576020601054604051908152f35b6020815261014061012061370284518360208601526101608501906105b2565b93602081015160408501526040810151606085015260608101516080850152608081015160a085015260a081015160c085015260c081015160e085015261375560e082015161010086019061ffff169052565b61010081015182850152015191015290565b34610584575f3660031901126105845761377f614d46565b505f5f90601c545b808310613852576106508261ffff6137b66137bb6137a3614ac8565b936137ad85614dd2565b92839186613e21565b613e21565b6138396137cc61278861278361400d565b946137d56148e2565b600f54966137ea60065461ffff9060b01c1690565b92601054956137fc60125461ffff1690565b97613805611867565b9a61380e6139fc565b8c5260208c015260408b015260608a0152608089015260a088015260c087015261ffff1660e0860152565b61010084015216610120820152604051918291826136e2565b906138aa6001916138a4613872613868876131e2565b90549060031b1c90565b600661389c600561388b845f52601a60205260405f2090565b0154925f52601a60205260405f2090565b015490613e21565b90613b85565b92019190613787565b346105845760203660031901126105845760206105aa600435614da3565b34610584576020366003190112610584576004356138ee816106fb565b600654906001600160a01b0382169033829003612052576001600160a01b0316918215610783576001600160a01b03191682176006557f2e7dcd5549bd379d2c481c56fc3dbe7db94761cb60cbbc301f807e31cc4a99445f80a3005b34610584575f36600319011261058457600e546040516001600160a01b039091168152602090f35b346105845760203660031901126105845760043561398f816106fb565b613997614e9e565b6001600160a01b031680156139e957600580546001600160a01b0319811683179091556001600160a01b03167f8be0079c531659141344cd1fd0a4f28419497f9722a3daafe3b4186f6b6457e05f80a3005b631e4fbdf760e01b5f525f60045260245ffd5b604051905f6011548060011c91600182168015613ab3575b6020841081146106bf5783865285926020840191908115613a9a5750600114613a45575b5061184792500383611815565b60115f90815291507f31ecc21a745e3968a04e9570e4425bc18fa8019c68028196b546d1669c200c685b848310613a8357506118479350015f613a38565b805482840152869350602090920191600101613a6f565b60ff191682525061184793151560051b0190505f613a38565b92607f1692613a14565b34610584575f36600319011261058457610650613ad86139fc565b6040519182916020835260208301906105b2565b9060405160a0810181811067ffffffffffffffff821117611810576040526080613b406004839580548552600181015460208601526002810154604086015260ff6003820154161515606086015201611985565b910152565b5190811515820361058457565b90816020910312610584576105e790613b45565b6040513d5f823e3d90fd5b634e487b7160e01b5f52601160045260245ffd5b919082018092116117cb57565b90620151808202918083046201518014901517156117cb57565b906103e88202918083046103e814901517156117cb57565b600b61018061184793613bec613bda8251151590565b859060ff801983541691151516179055565b6020810151613c20906001600160a01b03168554610100600160a81b03191660089190911b610100600160a81b0316178555565b60408101516001850155606081015160028501556080810151600385015560a0810151600485015560c0810151600585015560e08101516006850155610100810151600785015561012081015160088501556101408101516009850155610160810151600a850180546001600160a01b0319166001600160a01b0390921691909117905501519101815181546020808501516040808701516060880151608089015160a0909901519890921b61ffff60401b1660309290921b67ffff00000000000016931b65ffff000000001660109290921b63ffff00001661ffff9095166bffffffffffffffffffffffff19909416939093179390931792909217919091171760509290921b61ffff60501b16919091179055565b601c54600160401b8110156118105760018101601c55601c548110156131fa57601c5f525f516020615f505f395f51905f520155565b601d54600160401b8110156118105760018101601d55601d548110156131fa57601d5f527f6d4407e7be21f808e6509aa9fa9143369579dd7d760fe20a2c09680fc146134f0155565b602054600160401b81101561181057600181016020556020548110156131fa5760205f527fc97bfaf2f8ee708c303a06d134f5ecd8389ae0432af62dc132a24118292866bb0155565b634e487b7160e01b5f52601260045260245ffd5b8115613e1c570490565b613dfe565b919082039182116117cb57565b600260406118479380518455602081015160018501550151151591019060ff801983541691151516179055565b5190611847826106fb565b91908260409103126105845760208251613e7f816106fb565b9201516001600160e01b0319811681036105845790565b3d15613ec0573d90613ea7826118b5565b91613eb56040519384611815565b82523d5f602084013e565b606090565b15613ecc57565b60405162461bcd60e51b8152602060048201526012602482015271125b5c185a5c8818d85b1b0819985a5b195960721b6044820152606490fd5b908160809103126105845760405190608082019082821067ffffffffffffffff831117611810576060916040528051613f3e816106fb565b83526020810151613f4e816106fb565b6020840152604081015160408401520151606082015290565b908161012091031261058457613fee610100613f81611877565b9280518452602081015160208501526040810151604085015260608101516060850152613fb060808201613e5b565b6080850152613fc160a08201613b45565b60a0850152613fd260c08201613b45565b60c0850152613fe360e08201613e5b565b60e085015201613e5b565b61010082015290565b90815260e0810192916118479160200190611a0a565b60095460405163313ce56760e01b815290602090829060049082906001600160a01b03165afa908115610bf8575f91614044575090565b90506020813d602011614075575b8161405f60209383611815565b81010312610584575160ff811681036105845790565b3d9150614052565b9061ffff8091169116019061ffff82116117cb57565b90816020910312610584575190565b602080825282518183015282810151805161ffff90811660408501529101511660608201526105e7906040830151608082015260608301516001600160a01b031660a082015260808301516001600160a01b031660c082015261018061014061411a60a08601518360e08601526101a08501906105b2565b60c08601516001600160a01b03166101008501529460e081015161012085810191909152610100820151838601528101516001600160a01b031661016085015201516001600160e01b031916910152565b9061427460a060806004611847958551815560208601516001820155604086015160028201556141b060608701511515600383019060ff801983541691151516179055565b019301516141cf61ffff825116859061ffff1661ffff19825416179055565b6020818101518554604084015165ffffffff00001990911660109290921b63ffff00001691909117911b65ffff0000000016178455614238614216606083015161ffff1690565b855467ffff000000000000191660309190911b67ffff00000000000016178555565b61426b61424a608083015161ffff1690565b855469ffff0000000000000000191660409190911b61ffff60401b16178555565b015161ffff1690565b815461ffff60501b191660509190911b61ffff60501b16179055565b600e549296959394919391926142ae906001600160a01b0316610966565b330361157157826143d0865f986020956144029561431c6142fc6142d28f8d61407d565b6142eb6142f1600654926142eb8461ffff9060b01c1690565b9061407d565b9160a01c61ffff1690565b92614312614308611887565b61ffff9095168552565b61ffff16838a0152565b600954614395906001600160a01b0316936001600160a01b03851690614380614346601354613b92565b94614353601b5442613b85565b9661435c611896565b9b8c528d8c015260408b018990523060608c01526001600160a01b031660808b0152565b60a08901526001600160a01b031660c0880152565b60e08601526101008501523061012085015263030b395560e31b610140850152600d546143ca906001600160a01b0316610966565b906154b3565b600d546143e5906001600160a01b0316610966565b9060405197888094819363a15c24f360e01b8352600483016140a2565b03925af1938415610bf8575f946144d0575b506144826144c794956144776006546144646144436144388361ffff9060a01c1690565b9260b01c61ffff1690565b9361445961444f611858565b61ffff9099168952565b61ffff166020880152565b612710604087015261ffff166060860152565b61ffff166080840152565b5f60a08301526144906118a6565b92428452602084015260408301526144ab6060830160019052565b60808201526144c2835f52601f60205260405f2090565b61416b565b6105e781613db5565b6144c794506144f06144829160203d602011612c4b57612c3c8183611815565b9450614414565b67ffffffffffffffff81116118105760051b60200190565b90614519826144f7565b6145266040519182611815565b8281528092614537601f19916144f7565b0190602036910137565b9061454b826144f7565b6145586040519182611815565b8281528092614569601f19916144f7565b01905f5b82811061457957505050565b602090604051614588816117f3565b5f81525f838201525f60408201525f60608201525f60808201525f60a08201525f60c08201525f60e08201525f6101008201528282850101520161456d565b80518210156131fa5760209160051b010190565b5f1981146117cb5760010190565b601c54601d54906146026145fd8383613b85565b61450f565b926146156146108484613b85565b614541565b9361461f8361450f565b9361462984614541565b600a5490945f928392839290614647906001600160a01b0316610966565b925b8181106147275750505f5b81811061466e575050508083528652808552835293929190565b61467a613868826131ff565b60405163484d384560e11b8152600481018290529061012082602481885afa908115610bf8578c925f92614706575b50886146b860c0840151151590565b6146c9575b50505050600101614654565b916146f3886146ed936146e3600198979b6146fa976145c7565b52809384916145db565b996145c7565b528c6145c7565b509050895f80886146bd565b6147209192506101203d8111611556576115478183611815565b905f6146a9565b614733613868826131e2565b60405163484d384560e11b8152600481018290529561012087602481895afa918215610bf8578d975f936147f9575b50898c61477260c0860151151590565b156147a657509261479783614791936146e361479e96600199986145c7565b9a6145c7565b528d6145c7565b505b01614649565b93929850508c6147b582614fdf565b6147c6575b505050506001906147a0565b916147e68a6147e0936146e3600198979d6147ed976145c7565b9b6145c7565b528b6145c7565b509050885f808c6147ba565b6148139193506101203d8111611556576115478183611815565b915f614762565b906148da600b614828611837565b93614853611477825461484461483e8260ff1690565b15158952565b60081c6001600160a01b031690565b600181015460408601526002810154606086015260038101546080860152600481015460a0860152600581015460c0860152600681015460e0860152600781015461010086015260088101546101208601526009810154610140860152600a8101546148d4906001600160a01b03165b6001600160a01b0316610160870152565b01611985565b610180830152565b6105e7611dae614ac8565b81810392915f1380158285131691841216176117cb57565b601854601d54600a545f90614922906001600160a01b0316610966565b915b8082106149f5575050601c54905f5b8281106149405750505090565b61494c613868826131e2565b61495581614fdf565b614963575b50600101614933565b60405163484d384560e11b815260048101829052919490919061012082602481875afa918215610bf8576001936149c960406149cf956149c9945f916149d6575b5001519160066149c1600861388b845f52601a60205260405f2090565b015492613e21565b906148ed565b939061495a565b6149ef91506101203d8111611556576115478183611815565b5f6149a4565b9092614a03613868856131ff565b906008614a18835f52601a60205260405f2090565b015460405163484d384560e11b815260048101849052919061012083602481895afa938415610bf857614a85614a766149c9936149c96040600199614a8c995f91614a94575b5001519160066149c1875f52601a60205260405f2090565b915f52601e60205260405f2090565b54906148ed565b930190614924565b614aad91506101203d8111611556576115478183611815565b5f614a5e565b9081602091031261058457516105e7816106fb565b614ad0614905565b614adf600b54600c54906148ed565b5f82820192831291129080158216911516176117cb575f811315614b005790565b505f90565b5f5f601c54905b818110614b1857505090565b614b24613868826131e2565b614b306109a382614fdf565b614b3e575b50600101614b0c565b600a54919391614b56906001600160a01b0316610966565b60405163484d384560e11b815260048101839052929061012090849060249082905afa928315610bf857600193614bb293614ba8925f92614bb9575b50613360611c70915f52601a60205260405f2090565b5050919050613b85565b9290614b35565b611c70919250614bda613360916101203d8111611556576115478183611815565b929150614b92565b60ff16604d81116117cb57600a0a90565b614c4791610120614c0f613360845f52601a60205260405f2090565b600a54909390614c27906001600160a01b0316610966565b604051808097819463484d384560e11b8352600483019190602083019252565b03915afa928315610bf8575f93614cc1575b50614c676109a38351151590565b61257757614c826121596040610180850151015161ffff1690565b61ffff8216908111908115614cb8575b5061158057600654614cac939060a01c61ffff1692615953565b94959394929391929091565b9050155f614c92565b614cdb9193506101203d8111611556576115478183611815565b915f614c59565b60018060a01b03165f525f602052614cfd60405f2054614e65565b614d086105a5614ac8565b90818082109118021890565b6001600160a01b03165f90815260208190526040902054614d08611dae614ac8565b600160ff1b81146117cb575f0390565b60405190610140820182811067ffffffffffffffff821117611810576040525f61012083606081528260208201528260408201528260608201528260808201528260a08201528260c08201528260e0820152826101008201520152565b60025480614daf575090565b614db7614ac8565b90614dc0614b05565b82018092116117cb576105e792615ea1565b5f91601c54915b82841015614e5f575f516020615f505f395f51905f528401545f818152601a60205260409020614e1290614e0c9061481a565b91614fdf565b15614e54575f915b61014082015160c083015181018091116117cb576001936138a4614e469260e0614e4c96015190613e21565b90613e21565b930192614dd9565b60e081015191614e1a565b92509050565b6002548015614e82575f906105e792614e7c614ac8565b90615a1d565b5090565b6002548015614e82576001906105e792614e7c614ac8565b6005546001600160a01b03163303614eb257565b63118cdaa760e01b5f523360045260245ffd5b6002548015614e82576105e791600191614edd614ac8565b91615a1d565b6002548015614e82576105e7915f91614edd614ac8565b5f5b60205480821015614fda5760205f5282827fc97bfaf2f8ee708c303a06d134f5ecd8389ae0432af62dc132a24118292866bb015414614f3e5750600101614efc565b5f198101925082116117cb57614f66614f59614f7e93613217565b90549060031b1c91613217565b90919082549060031b91821b915f19901b1916179055565b6020548015614fc6575f198101906020548210156131fa5760205f9081527fc97bfaf2f8ee708c303a06d134f5ecd8389ae0432af62dc132a24118292866ba90910155602055565b634e487b7160e01b5f52603160045260245ffd5b505050565b5f52601a60205260405f20614ff2611837565b61501d61500d83546148446150078260ff1690565b15158552565b6001600160a01b03166020830152565b600182015460408201526002820154906060810191825261018061509e600b60038601549560808501968752600481015460a0860152600581015460c0860152600681015460e08601526007810154610100860152600881015461012086015260098101546101408601526148d46148c3600a83015460018060a01b031690565b9101525180151591826150b057505090565b6150bc92505190613b85565b421190565b5f5b601c5480821015614fda57601c5f5282825f516020615f505f395f51905f520154146150f257506001016150c3565b5f198101925082116117cb57614f6661510d61511a936131e2565b90549060031b1c916131e2565b601c548015614fc6575f19810190601c548210156131fa57601c5f9081527f0e4562a10381dec21b205ed72637e6b1b523bdd0e4d4d50af5cd23dd4500a21090910155601c55565b61516a6145e9565b50505051151590565b61517b614ac8565b906105e782614dd2565b15614b00576105e790614ee3565b6001600160a01b038084169590821693909291838786036152e5575b505085156152d2576001600160a01b0381165f908152602081905260409020548381106152ad5790615216847ffbde797d201c681b91056529119e0b02407c7bb96a4a2c75c01fc9667232c8db959493039160018060a01b03165f525f60205260405f2090565b556152248260025403600255565b5f867fddf252ad1be2c89b69c2b068fc378daa952ba7f163c4a11628f55a4df523b3ef6040518061525a87829190602083019252565b0390a361529185827f00000000000000000000000000000000000000000000000000000000000000006001600160a01b031661587f565b6040805195865260208601929092526001600160a01b031693a4565b63391434e360e21b5f526001600160a01b03909116600452602452604482905260645ffd5b634b637e8f60e11b5f525f60045260245ffd5b6152ef91836152f6565b5f836151af565b6001600160a01b039081165f81815260016020908152604080832094861683529390529190912091929091545f198110615331575b50505050565b81811061537d57821561083c576001600160a01b0384161561082957615373925f526001602052039160405f209060018060a01b03165f5260205260405f2090565b555f80808061532b565b83637dc7a0d960e11b5f5260018060a01b031660045260245260445260645ffd5b916001600160a01b0383169182156152d2576001600160a01b03811693841561544f576001600160a01b0381165f908152602081905260409020548381106152ad579161543d91615423857fddf252ad1be2c89b69c2b068fc378daa952ba7f163c4a11628f55a4df523b3ef9695039160018060a01b03165f525f60205260405f2090565b556001600160a01b03165f90815260208190526040902090565b805482019055604051908152602090a3565b63ec442f0560e01b5f525f60045260245ffd5b6040516323b872dd60e01b60208201526001600160a01b0392831660248201529290911660448301526064820192909252611847916154ae82608481015b03601f198101845283611815565b615c78565b604051636eb1769f60e11b81523060048201526001600160a01b038084166024830152929390926020908490604490829086165afa928315610bf8575f936155ca575b5082018092116117cb5760405163095ea7b360e01b60208083019182526001600160a01b03861660248401526044808401959095529382529092905f9061553e606486611815565b84519082855af15f51903d8161559e575b501590505b61555d57505050565b60405163095ea7b360e01b60208201526001600160a01b0390931660248401525f6044840152611847926154ae906155988160648101610e34565b82615c78565b151590506155be57506155546001600160a01b0382163b15155b5f61554f565b600161555491146155b8565b6155e491935060203d602011612c4b57612c3c8183611815565b915f6154f6565b9060a08201518042115f14615636574203914283116117cb5761561662015180600161563395615ea1565b61ffff60a061018084015101511690818082119118021890615a7b565b93565b50615633915f615616565b9061564b82614da3565b916156818130337f00000000000000000000000000000000000000000000000000000000000000006001600160a01b0316615462565b6001600160a01b03821691821561544f57600254908482018092116117cb576156bc9160025560018060a01b03165f525f60205260405f2090565b838154019055815f7fddf252ad1be2c89b69c2b068fc378daa952ba7f163c4a11628f55a4df523b3ef6020604051878152a3604080519182526020820184905233917fdcbc1c05240f31ff3ad067ef1ee35ce4997762752e3a095284754544f4c709d79190a390565b7f2bc6d87cf553310ee13e0d3270f4a621bb33785b64765662507746e56734142c615815615768615761613360855f52601a60205260405f2090565b94856155eb565b6157788183859a96949795615c4b565b61016084015160e0906001600160a01b03169483615828575b6157a86002610cf18b5f52601e60205260405f2090565b1561581a576157b689615cd0565b6157dc6157cb8a5f52601e60205260405f2090565b60025f918281558260018201550155565b015160408051998a5260208a019690965294880152606087019390935260808601929092526001600160a01b03169390819060a0820190565b0390a3565b615823896150c1565b6157dc565b60095461584190859088906001600160a01b031661587f565b6040518481526001600160a01b038716908a907ff0552a3665368b7e77abbd2bbfe72b2615793841acfd3da5b7df5f330cc00eae90602090a3615791565b60405163a9059cbb60e01b60208201526001600160a01b0390921660248301526044820192909252611847916154ae82606481016154a0565b9291906158c482614ce2565b938481116158e5576105e7929394506158dc81614ec5565b93849233615193565b925050633fa733bb60e21b5f5260018060a01b031660045260245260445260645ffd5b9061591283614d14565b8083116159315750906105e79161592882614e65565b93849133615193565b8284632e52afbb60e21b5f5260018060a01b031660045260245260445260645ffd5b9092939161596d61010083019561ffff8751911690615d84565b94518581039081116117cb5761ffff615987921690615d84565b926060820151914283039283116117cb576159d06159ad6201518060016159d696615ea1565b6159c461215960a0610180860151015161ffff1690565b90818082119118021890565b90615a7b565b5094919390926159ea846133be8789613b85565b80831115615a06576159fc9083613e21565b915b959493929190565b505f916159fe565b6201518060016105e792615ea1565b9190615a2a828285615ea1565b936004811015615a67576001809116149283615a52575b505050151581018091116117cb5790565b909180935015613e1c570915155f8080615a41565b634e487b7160e01b5f52602160045260245ffd5b926133be929193615ae86101808201615adf615aae88615aa9615aa461215986515161ffff1690565b613bac565b615deb565b97615aa9615aa46121596080615ad485615aa9615aa461215960208c51015161ffff1690565b9651015161ffff1690565b95869188613b85565b94615b816101008301615b76615b4082519560e08101968751908181115f14615c3c57615b28615b1e61014093615b3793613e21565b8385015190613e21565b9a5b5161012084015190613e21565b91015190613e21565b9685518089115f14615c3457615b569089613e21565b905b8a81831115615c2857615b6e614d089284613e21565b945b51615e3e565b818082119118021890565b95801580968282159283615c20575b15615c105750505f965b90615c08575b15615bf85750505f925b615bb8846137b68789613e21565b9580821115615bef57615bca91613e21565b905b5180821115615be657615bde91613e21565b915b93929190565b50505f91615be0565b50505f90615bcc565b615c029187615ea1565b92615baa565b508615615ba0565b615c1a918a615ea1565b96615b9a565b508915615b90565b614d0891505f94615b70565b505f90615b58565b5050610140615b375f9a615b2a565b919081018091116117cb576008549081018091116117cb576008556018549081018091116117cb57601855565b905f602091828151910182855af115613b66575f513d615cc757506001600160a01b0381163b155b615ca75750565b635274afe760e01b5f9081526001600160a01b0391909116600452602490fd5b60011415615ca0565b5f5b601d5480821015614fda57601d5f5282827f6d4407e7be21f808e6509aa9fa9143369579dd7d760fe20a2c09680fc146134f015414615d145750600101615cd2565b5f198101925082116117cb57614f66615d2f615d3c936131ff565b90549060031b1c916131ff565b601d548015614fc6575f19810190601d548210156131fa57601d5f9081527f6d4407e7be21f808e6509aa9fa9143369579dd7d760fe20a2c09680fc146134e90910155601d55565b615d8e8282615f2c565b918115615de057816127101115615dd9577fbc01a36e2eb1c432ca57a786c226809d495182a9930be0ded288ce703afb7e9193612710910990828211900360fc1b910360041c170290565b6011615f3f565b506127109250500490565b615df58282615f2c565b91908015615e335761016d1115615dd9577f4ff4c73064ff4c73064ff4c73064ff4c73064ff4c73064ff4c73064ff4c730659261016d910990030290565b5061016d9250500490565b615e488282615f2c565b918115615e955781629896801115615dd9577f5fb648fcc913daa857a27e44a97d3c6bc1193a63a91cc45be5032477ae8d46a59362989680910990828211900360f91b910360071c170290565b50629896809250500490565b91615eac8284615f2c565b9290938415615f1f5784831115615f125790829109815f0382168092046002816003021880820260020302808202600203028082026002030280820260020302808202600203028091026002030293600183805f03040190848311900302920304170290565b6011600384150218615f3f565b5050906105e79250613e12565b905f198183099102908180821091030391565b634e487b715f526020526024601cfdfe0e4562a10381dec21b205ed72637e6b1b523bdd0e4d4d50af5cd23dd4500a211a264697066735822122039ce3fe19d43af8e910e43cd962283d67124e4d72ded7b2bd1236b40a944987664736f6c634300081e00336080346100ee57601f6111b838819003918201601f19168301916001600160401b038311848410176100f25780849260409485528339810103126100ee57610052602061004b83610106565b9201610106565b6001600160a01b039091169081156100db575f80546001600160a01b031981168417825560405193916001600160a01b03909116907f8be0079c531659141344cd1fd0a4f28419497f9722a3daafe3b4186f6b6457e09080a3600380546001600160a01b0319166001600160a01b03929092169190911790555f60025561109d908161011b8239f35b631e4fbdf760e01b5f525f60045260245ffd5b5f80fd5b634e487b7160e01b5f52604160045260245ffd5b51906001600160a01b03821682036100ee5756fe60806040526004361015610011575f80fd5b5f3560e01c8063038fc3c7146101245780631c586a6b1461011f5780632bbba8471461011a578063358d761014610115578063452656ab1461011057806347627adb1461010b5780635ff3af6614610106578063715018a6146101015780638da5cb5b146100fc5780638f77d4d6146100f75780639071ffbb146100f2578063b8f77005146100ed578063dac52f2d146100e8578063e7b59816146100e3578063ee9f097e146100de578063f22cb874146100d95763f2fde38b146100d4575f80fd5b610a8e565b6109fb565b6109d3565b6108c7565b6106b2565b610690565b610546565b610494565b610434565b6103dd565b6103bb565b6103a0565b6102f6565b6102b3565b610289565b6101e3565b346101b35760203660031901126101b357600435610140610b72565b506001548110156101a45761016061015a6101a092610ba6565b50610bc7565b6040519182918281516001600160a01b03908116825260208084015190911690820152604080830151908201526060918201519181019190915260800190565b0390f35b630d00062b60e01b5f5260045ffd5b5f80fd5b600435906001600160a01b03821682036101b357565b602435906001600160a01b03821682036101b357565b346101b35760203660031901126101b3576101fc6101b7565b6002546001545f92909183916001600160a01b0316905b83811061022a576040805184815260208101879052f35b8161023482610ba6565b50546001600160a01b03161461024d575b600101610213565b9391600261025a86610ba6565b50015481018091116102845791600361027286610ba6565b50015481018091116102845793610245565b610c00565b346101b3575f3660031901126101b35760206102a9600254600154111590565b6040519015158152f35b346101b35760203660031901126101b3576102cc6101b7565b6102d4610d98565b600380546001600160a01b0319166001600160a01b0392909216919091179055005b346101b3575f3660031901126101b3575f5f610316600254600154111590565b1561038b575f905b6002546001545b80821061034f5750506101a090604051938493846040919493926060820195825260208201520152565b909193600261035d84610ba6565b50015481018091116102845793600361037584610ba6565b5001548101809111610284579160010190610325565b6001546002548103908111610284579061031e565b346101b3575f3660031901126101b3576101a0610160610c21565b346101b3575f3660031901126101b3576103d3610d98565b6103db610e75565b005b346101b3575f3660031901126101b3576103f5610d98565b5f80546001600160a01b0319811682556001600160a01b03167f8be0079c531659141344cd1fd0a4f28419497f9722a3daafe3b4186f6b6457e08280a3005b346101b3575f3660031901126101b3575f546040516001600160a01b039091168152602090f35b60206040818301928281528451809452019201905f5b81811061047e5750505090565b8251845260209384019390920191600101610471565b346101b35760203660031901126101b3576104ad6101b7565b6001546104c16104bc82610c67565b610b4c565b81815290601f196104d182610c67565b013660208401376002546001600160a01b03909316925f91905b81811061050357828452604051806101a0868261045b565b8461050d82610ba6565b50546001600160a01b031614610526575b6001016104eb565b9161053e818461053860019488610c7f565b52610c93565b92905061051e565b346101b35760803660031901126101b35761055f6101b7565b6105676101cd565b6003546044359291606435916001600160a01b03163303610681576001600160a01b038316908115610672576001600160a01b0381169283156106635780151586151514610654576101a0956106137fe1437974534bea6bfe8ca2de839f52f40265621d54061d7593213eec8952bc5a936105e188610f46565b6105e9610e75565b6106036105f4610b27565b6001600160a01b039099168952565b6001600160a01b03166020880152565b80604087015281606087015261062b60015496610ceb565b604080519182526020820192909252908101859052606090a36040519081529081906020820190565b636d0e1ac360e11b5f5260045ffd5b631e4ec46b60e01b5f5260045ffd5b6349e27cff60e01b5f5260045ffd5b63ded1331560e01b5f5260045ffd5b346101b3575f3660031901126101b35760206106aa610d40565b604051908152f35b346101b35760203660031901126101b3576004356106ce610b72565b506003546001600160a01b031633036106815760025460015411156108b8576002546106f981610ba6565b5080546001600160a01b03169182156108a9576001820180546001600160a01b031660028401805491929091156107e1578154948588116107d25787867f3a8d593b76526ca98a9e0b0fa25e3056dd862c1dd42c77c8f8126b3d3463eb5f9782145f146107be57505080546001600160a01b03191690555f9190610788905b80546001600160a01b0319169055565b55610791611025565b604080519586525f60208701528501919091526001600160a01b031692606090a35b6101a0610160610c21565b9091506107cb9250610c14565b9055610791565b631cb4bf5b60e31b5f5260045ffd5b90506003840190815494856107fe575b50505050505050506107b3565b85881161089a5787867f3a8d593b76526ca98a9e0b0fa25e3056dd862c1dd42c77c8f8126b3d3463eb5f9782145f1461088657505080546001600160a01b03191690555f919061084d90610778565b55610856611025565b604080515f815260208101969096528501919091526001600160a01b031692606090a35f808080808080806107f1565b9091506108939250610c14565b9055610856565b63c62a4ed160e01b5f5260045ffd5b631fd92deb60e31b5f5260045ffd5b6375e52f4f60e01b5f5260045ffd5b346101b35760203660031901126101b3576004356001548110156101a4576108ee81610ba6565b5080546001600160a01b0316919033831415806109ad575b61099e57821561098f5780546001600160a01b03191681557f9aec5cafc1451c1485e4a0099bd4dfb4c9d2bb972b4e5c798da07db8323deaa39161097d915f906003906001810180546001600160a01b031916905582600282015501556002548114610982575b6040519081529081906020820190565b0390a2005b61098a611025565b61096d565b630a30f45160e01b5f5260045ffd5b63ea8e4eb560e01b5f5260045ffd5b506003546109cb906001600160a01b03165b6001600160a01b031690565b331415610906565b346101b3575f3660031901126101b3576003546040516001600160a01b039091168152602090f35b346101b3575f3660031901126101b357610a13610d98565b6001545f60015580610a26575b5f600255005b6001600160fe1b03811681036102845760015f5260021b7fb10e2d527612073b26eecdfd717e6a320cf44b4afac2b0732d9fcbe2b7fa0cf6908101905b818110610a705750610a20565b805f600492555f60018201555f60028201555f600382015501610a63565b346101b35760203660031901126101b357610aa76101b7565b610aaf610d98565b6001600160a01b03168015610b00575f80546001600160a01b03198116831782556001600160a01b0316907f8be0079c531659141344cd1fd0a4f28419497f9722a3daafe3b4186f6b6457e09080a3005b631e4fbdf760e01b5f525f60045260245ffd5b634e487b7160e01b5f52604160045260245ffd5b604051906080820182811067ffffffffffffffff821117610b4757604052565b610b13565b6040519190601f01601f1916820167ffffffffffffffff811183821017610b4757604052565b610b7a610b27565b905f82525f60208301525f60408301525f6060830152565b634e487b7160e01b5f52603260045260245ffd5b600154811015610bc25760015f5260205f209060021b01905f90565b610b92565b906003610bd2610b27565b83546001600160a01b0390811682526001850154166020820152600284015460408201529201546060830152565b634e487b7160e01b5f52601160045260245ffd5b9190820391821161028457565b610c29610b72565b506002546001541115610c4757610c4461015a600254610ba6565b90565b610c4f610b27565b5f81525f60208201525f60408201525f606082015290565b67ffffffffffffffff8111610b475760051b60200190565b8051821015610bc25760209160051b010190565b5f1981146102845760010190565b815181546001600160a01b039182166001600160a01b0319918216178355602084015160018401805491909316911617905560408201516002820155606090910151600390910155565b60015490600160401b821015610b475760018201600155600154821015610bc25760015f52610d3e9160021b7fb10e2d527612073b26eecdfd717e6a320cf44b4afac2b0732d9fcbe2b7fa0cf601610ca1565b565b60025460015480821015610d92575f915b818110610d5d57505090565b610d6681610ba6565b50546001600160a01b0316610d7e575b600101610d51565b91610d8a600191610c93565b929050610d76565b50505f90565b5f546001600160a01b03163303610dab57565b63118cdaa760e01b5f523360045260245ffd5b805190600160401b8211610b475760015482600155808310610e15575b5060200160015f5260205f205f915b838310610df75750505050565b6004602082610e096001945186610ca1565b01920192019190610dea565b6001600160fe1b0381168103610284576001600160fe1b03831683036102845760015f5260205f209060021b8101908360021b015b818110610e575750610ddb565b805f600492555f60018201555f60028201555f600382015501610e4a565b600254908115610f4257600154610e8e6104bc82610c67565b81815290601f19610e9e82610c67565b015f5b818110610f2b5750505f935b818110610ecb575050610ec291928152610dbe565b610d3e5f600255565b610ee86109bf610eda83610ba6565b50546001600160a01b031690565b610ef5575b600101610ead565b93610f23600191610f0861015a88610ba6565b610f128287610c7f565b52610f1d8186610c7f565b50610c93565b949050610eed565b602090610f36610b72565b82828701015201610ea1565b9050565b6002545b6001548110156110215780610f63610eda600193610ba6565b60a083901b83900384811691168114610f7e575b5001610f4a565b610f9b610f8a83610ba6565b5080546001600160a01b0319169055565b610fba83610fa884610ba6565b500180546001600160a01b0319169055565b5f6002610fc684610ba6565b5001555f6003610fd584610ba6565b5001556040518281527f9aec5cafc1451c1485e4a0099bd4dfb4c9d2bb972b4e5c798da07db8323deaa390602090a26002548114611014575b5f610f77565b61101c611025565b61100e565b5050565b60025460015481108061104c575b156110495761104190610c93565b600255611025565b50565b5061105681610ba6565b50546001600160a01b03161561103356fea26469706673582212208d73284642018f23774276db10b8eacb9bbc18508f04708e84d3ffc185f97e8264736f6c634300081e0033","linkReferences":{}},"methodIdentifiers":{"activeInvoices(uint256)":"e300a0f4","adminFeeBalance()":"2d896b2a","adminFeeBps()":"e6f0681c","allowance(address,address)":"dd62ed3e","approvalDuration()":"5e20bfc8","approve(address,uint256)":"095ea7b3","approveInvoice(uint256,uint16,uint16,uint16,uint16,uint256)":"2c591bd7","approvedInvoices(uint256)":"a36e9fe7","asset()":"38d52e0f","assetAddress()":"1ba46cfd","balanceOf(address)":"70a08231","bullaDao()":"9948ff45","bullaFrendLend()":"c5c1d246","calculateAccruedProfits()":"98769926","calculateCapitalAccount()":"8e73836c","calculateKickbackAmount(uint256)":"591e1788","calculateRealizedGainLoss()":"72c5c144","calculateTargetFees(uint256,uint16)":"c42f18f5","convertToAssets(uint256)":"07a2d13a","convertToShares(uint256)":"c6e6f592","creationTimestamp()":"b3311086","decimals()":"313ce567","deposit(uint256,address)":"6e553f65","depositPermissions()":"17369324","factoringPermissions()":"a85f5714","fundInvoice(uint256,uint16,address)":"8c335f9b","getFundInfo()":"ec233684","getRedemptionQueue()":"cea6a0ee","gracePeriodDays()":"1348ed5e","impairInvoice(uint256)":"1be4c4d4","impairReserve()":"e72f0f05","impairments(uint256)":"706a3f7d","invoiceProviderAdapter()":"7fbc9622","maxDeposit(address)":"402d267d","maxMint(address)":"c63d75b6","maxRedeem()":"6f31ab34","maxRedeem(address)":"d905777e","maxWithdraw(address)":"ce96cb77","mint(uint256,address)":"94bf804d","name()":"06fdde03","offerLoan(address,uint16,uint16,uint256,uint256,uint16,string)":"494112ac","onLoanOfferAccepted(uint256,uint256)":"1859caa8","originalCreditors(uint256)":"a3d1612c","owner()":"8da5cb5b","paidInvoicesGain()":"1fa4e3ec","pendingLoanOffersByLoanOfferId(uint256)":"53a3417b","pendingLoanOffersIds(uint256)":"d8cf9e38","poolName()":"f3466dfa","previewDeposit(uint256)":"ef8b30f7","previewMint(uint256)":"b3d7f6b9","previewRedeem(uint256)":"4cdad506","previewWithdraw(uint256)":"0a28a477","pricePerShare()":"99530b06","processRedemptionQueue()":"1d1c8fe5","protocolFeeBalance()":"0a22d68c","protocolFeeBps()":"35659fb8","reconcileActivePaidInvoices()":"76138f55","reconcileSingleInvoice(uint256)":"ada10014","redeem(uint256,address,address)":"ba087652","redeemPermissions()":"e22ddb52","redemptionQueue()":"97ec19be","renounceOwnership()":"715018a6","setAdminFeeBps(uint16)":"ac27a24f","setApprovalDuration(uint256)":"cec5a558","setBullaDaoAddress(address)":"efe0707b","setDepositPermissions(address)":"cf0160f9","setFactoringPermissions(address)":"800120fa","setGracePeriodDays(uint256)":"0ce6b419","setImpairReserve(uint256)":"44fcb5cc","setProtocolFeeBps(uint16)":"be37b12c","setRedeemPermissions(address)":"2f5d8aa9","setRedemptionQueue(address)":"3b4c46d0","setTargetYield(uint16)":"b73afe8c","setUnderwriter(address)":"08bb5f7b","symbol()":"95d89b41","targetYieldBps()":"dd0a12bc","totalAssets()":"01e1d114","totalSupply()":"18160ddd","transfer(address,uint256)":"a9059cbb","transferFrom(address,address,uint256)":"23b872dd","transferOwnership(address)":"f2fde38b","underwriter()":"f00db260","unfactorInvoice(uint256)":"dc2dc8ff","viewPoolStatus()":"56984d9f","withdraw(uint256,address,address)":"b460af94","withdrawAdminFeesAndSpreadGains()":"b9b060b0","withdrawProtocolFees()":"8795cccb"},"id":2}