{"abi":[{"type":"function","name":"checker","inputs":[{"name":"poolAddress","type":"address","internalType":"address"}],"outputs":[{"name":"canExec","type":"bool","internalType":"bool"},{"name":"execPayload","type":"bytes","internalType":"bytes"}],"stateMutability":"view"}],"bytecode":{"object":"0x6080806040523460155761039d908161001a8239f35b5f80fdfe6080806040526004361015610012575f80fd5b5f3560e01c63016c683c14610025575f80fd5b34610188576020366003190112610188576004356001600160a01b0381169081900361018857816004815f936356984d9f60e01b82525afa90811561018c575f905f926100e4575b5051905181018091116100d057606060405191602083016376138f5560e01b81526004845261009d602485610197565b60405193849215158352604060208401525180918160408501528484015e5f828201840152601f01601f19168101030190f35b634e487b7160e01b5f52601160045260245ffd5b9150503d805f833e6100f68183610197565b81019060808183031261018857805167ffffffffffffffff811161018857826101209183016101e5565b90602081015167ffffffffffffffff81116101885783610141918301610263565b50604081015167ffffffffffffffff811161018857836101629183016101e5565b92606082015167ffffffffffffffff8111610188576101819201610263565b505f61006d565b5f80fd5b6040513d5f823e3d90fd5b90601f8019910116810190811067ffffffffffffffff8211176101b957604052565b634e487b7160e01b5f52604160045260245ffd5b67ffffffffffffffff81116101b95760051b60200190565b9080601f830112156101885781516101fc816101cd565b9261020a6040519485610197565b81845260208085019260051b82010192831161018857602001905b8282106102325750505090565b8151815260209182019101610225565b51906001600160a01b038216820361018857565b5190811515820361018857565b81601f820112156101885780519061027a826101cd565b926102886040519485610197565b828452602061012081860194028301019181831161018857602001925b8284106102b3575050505090565b61012084830312610188576040519061012082019082821067ffffffffffffffff8311176101b95761012092602092604052865181528287015183820152604087015160408201526060870151606082015261031160808801610242565b608082015261032260a08801610256565b60a082015261033360c08801610256565b60c082015261034460e08801610242565b60e08201526103566101008801610242565b6101008201528152019301926102a556fea2646970667358221220d98d51981c62d5136ce9a8748568e5693c7d2b7cb6858b6428b4836972377f7364736f6c634300081e0033","linkReferences":{}},"methodIdentifiers":{"checker(address)":"016c683c"},"id":3}