{
  "_format": "hh-sol-artifact-1",
  "contractName": "StorageAccessible",
  "sourceName": "@gnosis.pm/safe-contracts/contracts/common/StorageAccessible.sol",
  "abi": [
    {
      "inputs": [
        {
          "internalType": "uint256",
          "name": "offset",
          "type": "uint256"
        },
        {
          "internalType": "uint256",
          "name": "length",
          "type": "uint256"
        }
      ],
      "name": "getStorageAt",
      "outputs": [
        {
          "internalType": "bytes",
          "name": "",
          "type": "bytes"
        }
      ],
      "stateMutability": "view",
      "type": "function"
    },
    {
      "inputs": [
        {
          "internalType": "address",
          "name": "targetContract",
          "type": "address"
        },
        {
          "internalType": "bytes",
          "name": "calldataPayload",
          "type": "bytes"
        }
      ],
      "name": "simulateAndRevert",
      "outputs": [],
      "stateMutability": "nonpayable",
      "type": "function"
    }
  ],
  "bytecode": "0x6080806040523461001657610262908161001c8239f35b600080fdfe6080604052600436101561001257600080fd5b6000803560e01c9081635624b25b1461003a575063b4faba091461003557600080fd5b610174565b346100cb5760403660031901126100cb57602435600581811b92602090600435908415858704841417156100c65761007961007487610158565b61012d565b95808752610089601f1991610158565b0136848801375b8481106100a957604051806100a588826100ce565b0390f35b8181015481851b870184015260001981146100c657600101610090565b6101f3565b80fd5b6020808252825181830181905290939260005b82811061010357505060409293506000838284010152601f8019910116010190565b8181018601518482016040015285016100e1565b634e487b7160e01b600052604160045260246000fd5b6040519190601f01601f1916820167ffffffffffffffff81118382101761015357604052565b610117565b67ffffffffffffffff811161015357601f01601f191660200190565b346101ee5760403660031901126101ee576004356001600160a01b03811681036101ee576024359067ffffffffffffffff82116101ee57366023830112156101ee5781600401356101c761007482610158565b9281845236602483830101116101ee57816000926024602093018387013784010152610209565b600080fd5b634e487b7160e01b600052601160045260246000fd5b6000918291602082519201905af46000523d6020523d600060403e60403d016000fdfea264697066735822122015ac1b68d1ec435465ae8cba880f2da7bc9450f9156653f58ed6c9d047304c1f64736f6c63430008140033",
  "linkReferences": {},
  "deployedLinkReferences": {}
}