{
  "_format": "hh-sol-artifact-1",
  "contractName": "OwnerManager",
  "sourceName": "@gnosis.pm/safe-contracts/contracts/base/OwnerManager.sol",
  "abi": [
    {
      "anonymous": false,
      "inputs": [
        {
          "indexed": false,
          "internalType": "address",
          "name": "owner",
          "type": "address"
        }
      ],
      "name": "AddedOwner",
      "type": "event"
    },
    {
      "anonymous": false,
      "inputs": [
        {
          "indexed": false,
          "internalType": "uint256",
          "name": "threshold",
          "type": "uint256"
        }
      ],
      "name": "ChangedThreshold",
      "type": "event"
    },
    {
      "anonymous": false,
      "inputs": [
        {
          "indexed": false,
          "internalType": "address",
          "name": "owner",
          "type": "address"
        }
      ],
      "name": "RemovedOwner",
      "type": "event"
    },
    {
      "inputs": [
        {
          "internalType": "address",
          "name": "owner",
          "type": "address"
        },
        {
          "internalType": "uint256",
          "name": "_threshold",
          "type": "uint256"
        }
      ],
      "name": "addOwnerWithThreshold",
      "outputs": [],
      "stateMutability": "nonpayable",
      "type": "function"
    },
    {
      "inputs": [
        {
          "internalType": "uint256",
          "name": "_threshold",
          "type": "uint256"
        }
      ],
      "name": "changeThreshold",
      "outputs": [],
      "stateMutability": "nonpayable",
      "type": "function"
    },
    {
      "inputs": [],
      "name": "getOwners",
      "outputs": [
        {
          "internalType": "address[]",
          "name": "",
          "type": "address[]"
        }
      ],
      "stateMutability": "view",
      "type": "function"
    },
    {
      "inputs": [],
      "name": "getThreshold",
      "outputs": [
        {
          "internalType": "uint256",
          "name": "",
          "type": "uint256"
        }
      ],
      "stateMutability": "view",
      "type": "function"
    },
    {
      "inputs": [
        {
          "internalType": "address",
          "name": "owner",
          "type": "address"
        }
      ],
      "name": "isOwner",
      "outputs": [
        {
          "internalType": "bool",
          "name": "",
          "type": "bool"
        }
      ],
      "stateMutability": "view",
      "type": "function"
    },
    {
      "inputs": [
        {
          "internalType": "address",
          "name": "prevOwner",
          "type": "address"
        },
        {
          "internalType": "address",
          "name": "owner",
          "type": "address"
        },
        {
          "internalType": "uint256",
          "name": "_threshold",
          "type": "uint256"
        }
      ],
      "name": "removeOwner",
      "outputs": [],
      "stateMutability": "nonpayable",
      "type": "function"
    },
    {
      "inputs": [
        {
          "internalType": "address",
          "name": "prevOwner",
          "type": "address"
        },
        {
          "internalType": "address",
          "name": "oldOwner",
          "type": "address"
        },
        {
          "internalType": "address",
          "name": "newOwner",
          "type": "address"
        }
      ],
      "name": "swapOwner",
      "outputs": [],
      "stateMutability": "nonpayable",
      "type": "function"
    }
  ],
  "bytecode": "0x6080806040523461001657610838908161001c8239f35b600080fdfe60406080815260048036101561001457600080fd5b600091823560e01c80630d582f13146105885780632f54bf6e14610531578063694e80c3146104cc578063a0e67e2b14610398578063e318b52b14610240578063e75235b81461021d5763f8dc5dd91461006d57600080fd5b3461021957606036600319011261021957610086610678565b9161008f610693565b926044359361009c6107cc565b600154600019919082810190811161020657866100ba911015610736565b6001600160a01b03908116928190841515806101fb575b6100da906106a9565b1690818852876020526100f38482888b2054161461076a565b8388528760205285882054169087528487206001600160601b0360a01b918282541617905582875284872090815416905560015480156101e8577ff8d49fc529812e9a7c5c50e69c20f0dccc0db8fa95c98bc58cc9a4f1c1299eaf916020910192836001558551908152a1836002540361016b578480f35b61017f906101776107cc565b841115610736565b600183106101be5750816020917f610f7ff2b304ae8903c3de74c60c6ab1f7d6226b3f52c5161905bb5ad4039c939360025551908152a1388080808480f35b6020606492519162461bcd60e51b8352820152600560248201526423a999181960d91b6044820152fd5b634e487b7160e01b875260118452602487fd5b5060018514156100d1565b634e487b7160e01b885260118552602488fd5b8280fd5b83823461023c578160031936011261023c576020906002549051908152f35b5080fd5b83823461023c57606036600319011261023c5761025b610678565b90610264610693565b6001600160a01b039160443583811692908690849003610395577f9465fa0c962cc76958e6373a993326400c1c94f8be2fe3a952adfa7f60b2ea26958580807ff8d49fc529812e9a7c5c50e69c20f0dccc0db8fa95c98bc58cc9a4f1c1299eaf956102fd60209a898c986102d66107cc565b8c15158061038a575b80610380575b6102ee906106a9565b8c8152808a52205416156106dd565b169283151580610375575b610311906106a9565b1690818a528984526103298382888d2054161461076a565b828a52898452858a20541690868a52858a206001600160601b0360a01b9283825416179055895284892086828254161790558189528489209081541690558351908152a151908152a180f35b506001841415610308565b50308d14156102e5565b5060018d14156102df565b80fd5b509034610219578260031936011261021957600192601f8454916103bb8361079e565b9285519383199384910116840184811067ffffffffffffffff8211176104b957926103ee8795928995875280845261079e565b956020918284019701368837848452838252858420546001600160a01b03919085908316875b610454575b505050855195828701938388525180945286019693905b83821061043d5786880387f35b845181168852968201969382019390850190610430565b969896949593948316808a146104ad57865182101561049a5790818a92878360051b8a010152855284865261048e848a8720541691610711565b91979996959496610414565b634e487b7160e01b855260328352602485fd5b98969895949395610419565b634e487b7160e01b835260418652602483fd5b5034610219576020366003190112610219578135916104e96107cc565b6104f7600154841115610736565b600183106101be5750816020917f610f7ff2b304ae8903c3de74c60c6ab1f7d6226b3f52c5161905bb5ad4039c939360025551908152a180f35b83823461023c57602036600319011261023c576020916001600160a01b0380610558610678565b169160018314159283610572575b50505090519015158152f35b8492935081528085522054161515838080610566565b50346102195780600319360112610219576105a1610678565b91602435926105ae6107cc565b6001600160a01b03908116908115158061066d575b80610663575b6105d2906106a9565b818652856020526105e8818588205416156106dd565b600186528560205283862054168186528386206001600160601b0360a01b91828254161790556001865281848720918254161790557f9465fa0c962cc76958e6373a993326400c1c94f8be2fe3a952adfa7f60b2ea26602061064b600154610711565b92836001558551908152a1836002540361016b578480f35b50308214156105c9565b5060018214156105c3565b600435906001600160a01b038216820361068e57565b600080fd5b602435906001600160a01b038216820361068e57565b156106b057565b60405162461bcd60e51b8152602060048201526005602482015264475332303360d81b6044820152606490fd5b156106e457565b60405162461bcd60e51b815260206004820152600560248201526411d4cc8c0d60da1b6044820152606490fd5b60001981146107205760010190565b634e487b7160e01b600052601160045260246000fd5b1561073d57565b60405162461bcd60e51b8152602060048201526005602482015264475332303160d81b6044820152606490fd5b1561077157565b60405162461bcd60e51b8152602060048201526005602482015264475332303560d81b6044820152606490fd5b67ffffffffffffffff81116107b65760051b60200190565b634e487b7160e01b600052604160045260246000fd5b3033036107d557565b60405162461bcd60e51b8152602060048201526005602482015264475330333160d81b6044820152606490fdfea2646970667358221220849a7926bee9b7e6a84f8e10cd1df0d6d2d1c07bd244cc9e1d8a54091e962b0c64736f6c63430008140033",
  "linkReferences": {},
  "deployedLinkReferences": {}
}