{"abi":[{"type":"constructor","inputs":[{"name":"_asset","type":"address","internalType":"contract IERC20"}],"stateMutability":"nonpayable"},{"type":"function","name":"activeInvoices","inputs":[{"name":"","type":"uint256","internalType":"uint256"}],"outputs":[{"name":"","type":"uint256","internalType":"uint256"}],"stateMutability":"view"},{"type":"function","name":"allowance","inputs":[{"name":"owner","type":"address","internalType":"address"},{"name":"spender","type":"address","internalType":"address"}],"outputs":[{"name":"","type":"uint256","internalType":"uint256"}],"stateMutability":"view"},{"type":"function","name":"approve","inputs":[{"name":"spender","type":"address","internalType":"address"},{"name":"value","type":"uint256","internalType":"uint256"}],"outputs":[{"name":"","type":"bool","internalType":"bool"}],"stateMutability":"nonpayable"},{"type":"function","name":"asset","inputs":[],"outputs":[{"name":"","type":"address","internalType":"address"}],"stateMutability":"view"},{"type":"function","name":"assetAddress","inputs":[],"outputs":[{"name":"","type":"address","internalType":"contract IERC20"}],"stateMutability":"view"},{"type":"function","name":"balanceOf","inputs":[{"name":"account","type":"address","internalType":"address"}],"outputs":[{"name":"","type":"uint256","internalType":"uint256"}],"stateMutability":"view"},{"type":"function","name":"calculateCapitalAccount","inputs":[],"outputs":[{"name":"","type":"uint256","internalType":"uint256"}],"stateMutability":"view"},{"type":"function","name":"convertToAssets","inputs":[{"name":"shares","type":"uint256","internalType":"uint256"}],"outputs":[{"name":"","type":"uint256","internalType":"uint256"}],"stateMutability":"view"},{"type":"function","name":"convertToShares","inputs":[{"name":"assets","type":"uint256","internalType":"uint256"}],"outputs":[{"name":"","type":"uint256","internalType":"uint256"}],"stateMutability":"view"},{"type":"function","name":"decimals","inputs":[],"outputs":[{"name":"","type":"uint8","internalType":"uint8"}],"stateMutability":"view"},{"type":"function","name":"declareInvoiceImpaired","inputs":[{"name":"invoiceId","type":"uint256","internalType":"uint256"}],"outputs":[],"stateMutability":"nonpayable"},{"type":"function","name":"deposit","inputs":[{"name":"assets","type":"uint256","internalType":"uint256"},{"name":"receiver","type":"address","internalType":"address"}],"outputs":[{"name":"","type":"uint256","internalType":"uint256"}],"stateMutability":"nonpayable"},{"type":"function","name":"fundInvoice","inputs":[{"name":"invoiceId","type":"uint256","internalType":"uint256"},{"name":"faceValue","type":"uint256","internalType":"uint256"}],"outputs":[],"stateMutability":"nonpayable"},{"type":"function","name":"invoices","inputs":[{"name":"","type":"uint256","internalType":"uint256"}],"outputs":[{"name":"faceValue","type":"uint256","internalType":"uint256"},{"name":"fundedAmount","type":"uint256","internalType":"uint256"},{"name":"isPaid","type":"bool","internalType":"bool"},{"name":"isImpaired","type":"bool","internalType":"bool"},{"name":"owner","type":"address","internalType":"address"}],"stateMutability":"view"},{"type":"function","name":"maxDeposit","inputs":[{"name":"","type":"address","internalType":"address"}],"outputs":[{"name":"","type":"uint256","internalType":"uint256"}],"stateMutability":"view"},{"type":"function","name":"maxMint","inputs":[{"name":"","type":"address","internalType":"address"}],"outputs":[{"name":"","type":"uint256","internalType":"uint256"}],"stateMutability":"view"},{"type":"function","name":"maxRedeem","inputs":[],"outputs":[{"name":"","type":"uint256","internalType":"uint256"}],"stateMutability":"view"},{"type":"function","name":"maxRedeem","inputs":[{"name":"owner","type":"address","internalType":"address"}],"outputs":[{"name":"","type":"uint256","internalType":"uint256"}],"stateMutability":"view"},{"type":"function","name":"maxWithdraw","inputs":[{"name":"owner","type":"address","internalType":"address"}],"outputs":[{"name":"","type":"uint256","internalType":"uint256"}],"stateMutability":"view"},{"type":"function","name":"mint","inputs":[{"name":"shares","type":"uint256","internalType":"uint256"},{"name":"receiver","type":"address","internalType":"address"}],"outputs":[{"name":"","type":"uint256","internalType":"uint256"}],"stateMutability":"nonpayable"},{"type":"function","name":"name","inputs":[],"outputs":[{"name":"","type":"string","internalType":"string"}],"stateMutability":"view"},{"type":"function","name":"owner","inputs":[],"outputs":[{"name":"","type":"address","internalType":"address"}],"stateMutability":"view"},{"type":"function","name":"paidInvoicesGainLoss","inputs":[{"name":"","type":"uint256","internalType":"uint256"}],"outputs":[{"name":"","type":"int256","internalType":"int256"}],"stateMutability":"view"},{"type":"function","name":"payInvoice","inputs":[{"name":"invoiceId","type":"uint256","internalType":"uint256"}],"outputs":[],"stateMutability":"nonpayable"},{"type":"function","name":"previewDeposit","inputs":[{"name":"assets","type":"uint256","internalType":"uint256"}],"outputs":[{"name":"","type":"uint256","internalType":"uint256"}],"stateMutability":"view"},{"type":"function","name":"previewMint","inputs":[{"name":"shares","type":"uint256","internalType":"uint256"}],"outputs":[{"name":"","type":"uint256","internalType":"uint256"}],"stateMutability":"view"},{"type":"function","name":"previewRedeem","inputs":[{"name":"shares","type":"uint256","internalType":"uint256"}],"outputs":[{"name":"","type":"uint256","internalType":"uint256"}],"stateMutability":"view"},{"type":"function","name":"previewWithdraw","inputs":[{"name":"assets","type":"uint256","internalType":"uint256"}],"outputs":[{"name":"","type":"uint256","internalType":"uint256"}],"stateMutability":"view"},{"type":"function","name":"pricePerShare","inputs":[],"outputs":[{"name":"","type":"uint256","internalType":"uint256"}],"stateMutability":"view"},{"type":"function","name":"redeem","inputs":[{"name":"shares","type":"uint256","internalType":"uint256"},{"name":"receiver","type":"address","internalType":"address"},{"name":"owner","type":"address","internalType":"address"}],"outputs":[{"name":"","type":"uint256","internalType":"uint256"}],"stateMutability":"nonpayable"},{"type":"function","name":"renounceOwnership","inputs":[],"outputs":[],"stateMutability":"nonpayable"},{"type":"function","name":"symbol","inputs":[],"outputs":[{"name":"","type":"string","internalType":"string"}],"stateMutability":"view"},{"type":"function","name":"totalAssets","inputs":[],"outputs":[{"name":"","type":"uint256","internalType":"uint256"}],"stateMutability":"view"},{"type":"function","name":"totalDeposits","inputs":[],"outputs":[{"name":"","type":"uint256","internalType":"uint256"}],"stateMutability":"view"},{"type":"function","name":"totalSupply","inputs":[],"outputs":[{"name":"","type":"uint256","internalType":"uint256"}],"stateMutability":"view"},{"type":"function","name":"totalWithdrawals","inputs":[],"outputs":[{"name":"","type":"uint256","internalType":"uint256"}],"stateMutability":"view"},{"type":"function","name":"transfer","inputs":[{"name":"to","type":"address","internalType":"address"},{"name":"value","type":"uint256","internalType":"uint256"}],"outputs":[{"name":"","type":"bool","internalType":"bool"}],"stateMutability":"nonpayable"},{"type":"function","name":"transferFrom","inputs":[{"name":"from","type":"address","internalType":"address"},{"name":"to","type":"address","internalType":"address"},{"name":"value","type":"uint256","internalType":"uint256"}],"outputs":[{"name":"","type":"bool","internalType":"bool"}],"stateMutability":"nonpayable"},{"type":"function","name":"transferOwnership","inputs":[{"name":"newOwner","type":"address","internalType":"address"}],"outputs":[],"stateMutability":"nonpayable"},{"type":"function","name":"withdraw","inputs":[{"name":"assets","type":"uint256","internalType":"uint256"},{"name":"receiver","type":"address","internalType":"address"},{"name":"owner","type":"address","internalType":"address"}],"outputs":[{"name":"","type":"uint256","internalType":"uint256"}],"stateMutability":"nonpayable"},{"type":"event","name":"Approval","inputs":[{"name":"owner","type":"address","indexed":true,"internalType":"address"},{"name":"spender","type":"address","indexed":true,"internalType":"address"},{"name":"value","type":"uint256","indexed":false,"internalType":"uint256"}],"anonymous":false},{"type":"event","name":"Deposit","inputs":[{"name":"sender","type":"address","indexed":true,"internalType":"address"},{"name":"owner","type":"address","indexed":true,"internalType":"address"},{"name":"assets","type":"uint256","indexed":false,"internalType":"uint256"},{"name":"shares","type":"uint256","indexed":false,"internalType":"uint256"}],"anonymous":false},{"type":"event","name":"OwnershipTransferred","inputs":[{"name":"previousOwner","type":"address","indexed":true,"internalType":"address"},{"name":"newOwner","type":"address","indexed":true,"internalType":"address"}],"anonymous":false},{"type":"event","name":"Transfer","inputs":[{"name":"from","type":"address","indexed":true,"internalType":"address"},{"name":"to","type":"address","indexed":true,"internalType":"address"},{"name":"value","type":"uint256","indexed":false,"internalType":"uint256"}],"anonymous":false},{"type":"event","name":"Withdraw","inputs":[{"name":"sender","type":"address","indexed":true,"internalType":"address"},{"name":"receiver","type":"address","indexed":true,"internalType":"address"},{"name":"owner","type":"address","indexed":true,"internalType":"address"},{"name":"assets","type":"uint256","indexed":false,"internalType":"uint256"},{"name":"shares","type":"uint256","indexed":false,"internalType":"uint256"}],"anonymous":false},{"type":"error","name":"AddressEmptyCode","inputs":[{"name":"target","type":"address","internalType":"address"}]},{"type":"error","name":"AddressInsufficientBalance","inputs":[{"name":"account","type":"address","internalType":"address"}]},{"type":"error","name":"ERC20InsufficientAllowance","inputs":[{"name":"spender","type":"address","internalType":"address"},{"name":"allowance","type":"uint256","internalType":"uint256"},{"name":"needed","type":"uint256","internalType":"uint256"}]},{"type":"error","name":"ERC20InsufficientBalance","inputs":[{"name":"sender","type":"address","internalType":"address"},{"name":"balance","type":"uint256","internalType":"uint256"},{"name":"needed","type":"uint256","internalType":"uint256"}]},{"type":"error","name":"ERC20InvalidApprover","inputs":[{"name":"approver","type":"address","internalType":"address"}]},{"type":"error","name":"ERC20InvalidReceiver","inputs":[{"name":"receiver","type":"address","internalType":"address"}]},{"type":"error","name":"ERC20InvalidSender","inputs":[{"name":"sender","type":"address","internalType":"address"}]},{"type":"error","name":"ERC20InvalidSpender","inputs":[{"name":"spender","type":"address","internalType":"address"}]},{"type":"error","name":"ERC4626ExceededMaxDeposit","inputs":[{"name":"receiver","type":"address","internalType":"address"},{"name":"assets","type":"uint256","internalType":"uint256"},{"name":"max","type":"uint256","internalType":"uint256"}]},{"type":"error","name":"ERC4626ExceededMaxMint","inputs":[{"name":"receiver","type":"address","internalType":"address"},{"name":"shares","type":"uint256","internalType":"uint256"},{"name":"max","type":"uint256","internalType":"uint256"}]},{"type":"error","name":"ERC4626ExceededMaxRedeem","inputs":[{"name":"owner","type":"address","internalType":"address"},{"name":"shares","type":"uint256","internalType":"uint256"},{"name":"max","type":"uint256","internalType":"uint256"}]},{"type":"error","name":"ERC4626ExceededMaxWithdraw","inputs":[{"name":"owner","type":"address","internalType":"address"},{"name":"assets","type":"uint256","internalType":"uint256"},{"name":"max","type":"uint256","internalType":"uint256"}]},{"type":"error","name":"FailedInnerCall","inputs":[]},{"type":"error","name":"MathOverflowedMulDiv","inputs":[]},{"type":"error","name":"OwnableInvalidOwner","inputs":[{"name":"owner","type":"address","internalType":"address"}]},{"type":"error","name":"OwnableUnauthorizedAccount","inputs":[{"name":"account","type":"address","internalType":"address"}]},{"type":"error","name":"SafeERC20FailedOperation","inputs":[{"name":"token","type":"address","internalType":"address"}]}],"bytecode":{"object":"0x60c06040523480156200001157600080fd5b506040516200224e3803806200224e83398101604081905262000034916200026c565b33816040518060400160405280601081526020016f213ab6363090233ab732102a37b5b2b760811b8152506040518060400160405280600381526020016210919560ea1b81525081600390816200008c919062000343565b5060046200009b828262000343565b505050600080620000b2836200013560201b60201c565b9150915081620000c4576012620000c6565b805b60ff1660a05250506001600160a01b0390811660805281166200010357604051631e4fbdf760e01b81526000600482015260240160405180910390fd5b6200010e816200021a565b50600680546001600160a01b0319166001600160a01b03929092169190911790556200045a565b60408051600481526024810182526020810180516001600160e01b031663313ce56760e01b17905290516000918291829182916001600160a01b038716916200017e916200040f565b600060405180830381855afa9150503d8060008114620001bb576040519150601f19603f3d011682016040523d82523d6000602084013e620001c0565b606091505b5091509150818015620001d557506020815110155b156200020d57600081806020019051810190620001f3919062000440565b905060ff81116200020b576001969095509350505050565b505b5060009485945092505050565b600580546001600160a01b038381166001600160a01b0319831681179093556040519116919082907f8be0079c531659141344cd1fd0a4f28419497f9722a3daafe3b4186f6b6457e090600090a35050565b6000602082840312156200027f57600080fd5b81516001600160a01b03811681146200029757600080fd5b9392505050565b634e487b7160e01b600052604160045260246000fd5b600181811c90821680620002c957607f821691505b602082108103620002ea57634e487b7160e01b600052602260045260246000fd5b50919050565b601f8211156200033e57600081815260208120601f850160051c81016020861015620003195750805b601f850160051c820191505b818110156200033a5782815560010162000325565b5050505b505050565b81516001600160401b038111156200035f576200035f6200029e565b6200037781620003708454620002b4565b84620002f0565b602080601f831160018114620003af5760008415620003965750858301515b600019600386901b1c1916600185901b1785556200033a565b600085815260208120601f198616915b82811015620003e057888601518255948401946001909101908401620003bf565b5085821015620003ff5787850151600019600388901b60f8161c191681555b5050505050600190811b01905550565b6000825160005b8181101562000432576020818601810151858301520162000416565b506000920191825250919050565b6000602082840312156200045357600080fd5b5051919050565b60805160a051611dbc62000492600039600050506000818161031d015281816105de0152818161105501526113150152611dbc6000f3fe608060405234801561001057600080fd5b50600436106102485760003560e01c80638da5cb5b1161013b578063bb2f84aa116100b8578063dd62ed3e1161007c578063dd62ed3e14610534578063e300a0f41461056d578063ef8b30f714610580578063f2fde38b14610593578063f39a25eb146105a657600080fd5b8063bb2f84aa146104e8578063c63d75b614610341578063c6e6f592146104fb578063ce96cb771461050e578063d905777e1461052157600080fd5b8063a9059cbb116100ff578063a9059cbb14610489578063ac60a6cd1461049c578063b3d7f6b9146104af578063b460af94146104c2578063ba087652146104d557600080fd5b80638da5cb5b1461044d5780638e73836c1461045e57806394bf804d1461046657806395d89b411461047957806399530b061461048157600080fd5b8063402d267d116101c95780636e553f651161018d5780636e553f65146103f85780636f31ab341461040b57806370a0823114610413578063715018a61461043c5780637d8820971461044457600080fd5b8063402d267d146103415780634cdad5061461027d5780634e6d14051461035657806356878512146103da57806360464627146103ef57600080fd5b806318160ddd1161021057806318160ddd146102c65780631ba46cfd146102ce57806323b872dd146102f9578063313ce5671461030c57806338d52e0f1461031b57600080fd5b806301e1d1141461024d57806306fdde031461026857806307a2d13a1461027d578063095ea7b3146102905780630a28a477146102b3575b600080fd5b6102556105c6565b6040519081526020015b60405180910390f35b610270610656565b60405161025f919061193f565b61025561028b366004611972565b6106e8565b6102a361029e3660046119a7565b6106fb565b604051901515815260200161025f565b6102556102c1366004611972565b610713565b600254610255565b6006546102e1906001600160a01b031681565b6040516001600160a01b03909116815260200161025f565b6102a36103073660046119d1565b610720565b6040516012815260200161025f565b7f00000000000000000000000000000000000000000000000000000000000000006102e1565b61025561034f366004611a0d565b5060001990565b6103a3610364366004611972565b60096020526000908152604090208054600182015460029092015490919060ff808216916101008104909116906201000090046001600160a01b031685565b6040805195865260208601949094529115159284019290925290151560608301526001600160a01b0316608082015260a00161025f565b6103ed6103e8366004611972565b610746565b005b61025560085481565b610255610406366004611a28565b61081a565b610255610853565b610255610421366004611a0d565b6001600160a01b031660009081526020819052604090205490565b6103ed610889565b61025560075481565b6005546001600160a01b03166102e1565b61025561089d565b610255610474366004611a28565b6108c7565b6102706108e5565b6102556108f4565b6102a36104973660046119a7565b610940565b6103ed6104aa366004611972565b61094e565b6102556104bd366004611972565b610b4d565b6102556104d0366004611a54565b610b5a565b6102556104e3366004611a54565b610bc5565b6103ed6104f6366004611a90565b610cb9565b610255610509366004611972565b610e02565b61025561051c366004611a0d565b610e22565b61025561052f366004611a0d565b610e46565b610255610542366004611ab2565b6001600160a01b03918216600090815260016020908152604080832093909416825291909152205490565b61025561057b366004611972565b610e64565b61025561058e366004611972565b610e85565b6103ed6105a1366004611a0d565b610e92565b6102556105b4366004611972565b600a6020526000908152604090205481565b6040516370a0823160e01b81523060048201526000907f00000000000000000000000000000000000000000000000000000000000000006001600160a01b0316906370a0823190602401602060405180830381865afa15801561062d573d6000803e3d6000fd5b505050506040513d601f19601f820116820180604052508101906106519190611adc565b905090565b60606003805461066590611af5565b80601f016020809104026020016040519081016040528092919081815260200182805461069190611af5565b80156106de5780601f106106b3576101008083540402835291602001916106de565b820191906000526020600020905b8154815290600101906020018083116106c157829003601f168201915b5050505050905090565b60006106f5826000610ed0565b92915050565b600033610709818585610f0a565b5060019392505050565b60006106f5826001610f1c565b60003361072e858285610f4c565b610739858585610fc4565b60019150505b9392505050565b61074e611023565b6000818152600960205260409020600281015460ff16156107ad5760405162461bcd60e51b8152602060048201526014602482015273125b9d9bda58d948185b1c9958591e481c185a5960621b60448201526064015b60405180910390fd5b6002810154610100900460ff16156108075760405162461bcd60e51b815260206004820152601860248201527f496e766f69636520616c726561647920696d706169726564000000000000000060448201526064016107a4565b600201805461ff00191661010017905550565b60008061082684610e02565b905061083433848684611050565b83600760008282546108469190611b3f565b9091555090949350505050565b60008061085e6105c6565b9050600061086a6108f4565b9050600061088183670de0b6b3a7640000846110e2565b949350505050565b610891611023565b61089b60006111a6565b565b6000806108a86111f8565b90506000816008546007546108bd9190611b52565b61073f9190611b79565b600060001960006108d785610b4d565b905061088133858388611050565b60606004805461066590611af5565b6000806108ff61089d565b9050600061090c60025490565b90508060000361092657670de0b6b3a76400009250505090565b61093982670de0b6b3a7640000836110e2565b9250505090565b600033610709818585610fc4565b6000818152600960205260409020600281015460ff16156109a85760405162461bcd60e51b8152602060048201526014602482015273125b9d9bda58d948185b1c9958591e481c185a5960621b60448201526064016107a4565b60065481546040516323b872dd60e01b815233600482015230602482015260448101919091526001600160a01b03909116906323b872dd906064016020604051808303816000875af1158015610a02573d6000803e3d6000fd5b505050506040513d601f19601f82011682018060405250810190610a269190611ba1565b5060028101805460ff191660019081179091558101548154600091610a4a91611bc3565b6000848152600a60205260408120829055600c80546001810182559082527fdf6966c971051c3d54ec59162606531493a51404a002842f56009d7e5cf4a8c7018590559091505b600b54811015610b475783600b8281548110610aaf57610aaf611bd6565b906000526020600020015403610b3557600b8054610acf90600190611bc3565b81548110610adf57610adf611bd6565b9060005260206000200154600b8281548110610afd57610afd611bd6565b600091825260209091200155600b805480610b1a57610b1a611bec565b60019003818190600052602060002001600090559055610b47565b80610b3f81611c02565b915050610a91565b50505050565b60006106f5826001610ed0565b600080610b6683610e22565b905080851115610ba257604051633fa733bb60e21b81526001600160a01b038416600482015260248101869052604481018290526064016107a4565b6000610bad86610713565b9050610bbc33868689856112e2565b95945050505050565b600080610bd183610e46565b9050600081861115610c2a57610bf1338686610beb6105c6565b866112e2565b610c0b82610bfd6108f4565b670de0b6b3a76400006110e2565b90508060086000828254610c1f9190611b3f565b90915550610bbc9050565b6000610c346108f4565b9050610c6c6040518060400160405280601581526020017431bab93932b73a283934b1b2a832b929b430b9329d60591b8152506113a2565b610c75816113e5565b610c888782670de0b6b3a76400006110e2565b9150610c97338787858b6112e2565b8160086000828254610ca99190611b3f565b9091555050509150509392505050565b6000610cc882605a60646110e2565b6040805160a081018252848152602080820184815260008385018181526060850182815233608087018181528c8552600990965292879020955186559251600186015551600290940180549251935161ffff1990931694151561ff00191694909417610100931515939093029290921762010000600160b01b031916620100006001600160a01b039283160217909255600654925163a9059cbb60e01b8152600481019190915260248101849052929350169063a9059cbb906044016020604051808303816000875af1158015610da3573d6000803e3d6000fd5b505050506040513d601f19601f82011682018060405250810190610dc79190611ba1565b5050600b80546001810182556000919091527f0175b7a638427703f0dbe7bb9bbf987a2551717b34e79f33b5b1008d1fa01db9019190915550565b600080610e0d6108f4565b905061073f83670de0b6b3a7640000836110e2565b6001600160a01b0381166000908152602081905260408120546106f5906000610ed0565b6001600160a01b0381166000908152602081905260408120546106f5565b600b8181548110610e7457600080fd5b600091825260209091200154905081565b60006106f5826000610f1c565b610e9a611023565b6001600160a01b038116610ec457604051631e4fbdf760e01b8152600060048201526024016107a4565b610ecd816111a6565b50565b600061073f610edd6105c6565b610ee8906001611b3f565b610ef46000600a611cff565b600254610f019190611b3f565b8591908561142a565b610f178383836001611479565b505050565b600061073f610f2c82600a611cff565b600254610f399190611b3f565b610f416105c6565b610f01906001611b3f565b6001600160a01b038381166000908152600160209081526040808320938616835292905220546000198114610b475781811015610fb557604051637dc7a0d960e11b81526001600160a01b038416600482015260248101829052604481018390526064016107a4565b610b4784848484036000611479565b6001600160a01b038316610fee57604051634b637e8f60e11b8152600060048201526024016107a4565b6001600160a01b0382166110185760405163ec442f0560e01b8152600060048201526024016107a4565b610f17838383611540565b6005546001600160a01b0316331461089b5760405163118cdaa760e01b81523360048201526024016107a4565b61107c7f000000000000000000000000000000000000000000000000000000000000000085308561166a565b61108683826116d1565b826001600160a01b0316846001600160a01b03167fdcbc1c05240f31ff3ad067ef1ee35ce4997762752e3a095284754544f4c709d784846040516110d4929190918252602082015260400190565b60405180910390a350505050565b60008383028160001985870982811083820303915050806000036111195783828161110f5761110f611d0e565b049250505061073f565b8084116111395760405163227bc15360e01b815260040160405180910390fd5b6000848688096000868103871696879004966002600389028118808a02820302808a02820302808a02820302808a02820302808a02820302808a02909103029181900381900460010186841190950394909402919094039290920491909117919091029150509392505050565b600580546001600160a01b038381166001600160a01b0319831681179093556040519116919082907f8be0079c531659141344cd1fd0a4f28419497f9722a3daafe3b4186f6b6457e090600090a35050565b600080805b600b5481101561127757600060096000600b848154811061122057611220611bd6565b9060005260206000200154815260200190815260200160002090508060020160019054906101000a900460ff16156112645760018101546112619084611b52565b92505b508061126f81611c02565b9150506111fd565b5060005b600c548110156112dc576000600c828154811061129a5761129a611bd6565b90600052602060002001549050600a600082815260200190815260200160002054836112c69190611b79565b92505080806112d490611c02565b91505061127b565b50919050565b826001600160a01b0316856001600160a01b03161461130657611306838683610f4c565b611310838261170b565b61133b7f00000000000000000000000000000000000000000000000000000000000000008584611741565b826001600160a01b0316846001600160a01b0316866001600160a01b03167ffbde797d201c681b91056529119e0b02407c7bb96a4a2c75c01fc9667232c8db8585604051611393929190918252602082015260400190565b60405180910390a45050505050565b610ecd816040516024016113b6919061193f565b60408051601f198184030181529190526020810180516001600160e01b031663104c13eb60e21b179052611772565b610ecd816040516024016113fb91815260200190565b60408051601f198184030181529190526020810180516001600160e01b031663f5b1bba960e01b179052611772565b6000806114388686866110e2565b905061144383611793565b801561145f57506000848061145a5761145a611d0e565b868809115b15610bbc5761146f600182611b3f565b9695505050505050565b6001600160a01b0384166114a35760405163e602df0560e01b8152600060048201526024016107a4565b6001600160a01b0383166114cd57604051634a1406b160e11b8152600060048201526024016107a4565b6001600160a01b0380851660009081526001602090815260408083209387168352929052208290558015610b4757826001600160a01b0316846001600160a01b03167f8c5be1e5ebec7d5bd14f71427d1e84f3dd0314c0f7b2291e5b200ac8c7c3b925846040516110d491815260200190565b6001600160a01b03831661156b5780600260008282546115609190611b3f565b909155506115dd9050565b6001600160a01b038316600090815260208190526040902054818110156115be5760405163391434e360e21b81526001600160a01b038516600482015260248101829052604481018390526064016107a4565b6001600160a01b03841660009081526020819052604090209082900390555b6001600160a01b0382166115f957600280548290039055611618565b6001600160a01b03821660009081526020819052604090208054820190555b816001600160a01b0316836001600160a01b03167fddf252ad1be2c89b69c2b068fc378daa952ba7f163c4a11628f55a4df523b3ef8360405161165d91815260200190565b60405180910390a3505050565b6040516001600160a01b038481166024830152838116604483015260648201839052610b479186918216906323b872dd906084015b604051602081830303815290604052915060e01b6020820180516001600160e01b0383818316178352505050506117c0565b6001600160a01b0382166116fb5760405163ec442f0560e01b8152600060048201526024016107a4565b61170760008383611540565b5050565b6001600160a01b03821661173557604051634b637e8f60e11b8152600060048201526024016107a4565b61170782600083611540565b6040516001600160a01b03838116602483015260448201839052610f1791859182169063a9059cbb9060640161169f565b80516a636f6e736f6c652e6c6f67602083016000808483855afa5050505050565b600060028260038111156117a9576117a9611d24565b6117b39190611d3a565b60ff166001149050919050565b60006117d56001600160a01b03841683611823565b905080516000141580156117fa5750808060200190518101906117f89190611ba1565b155b15610f1757604051635274afe760e01b81526001600160a01b03841660048201526024016107a4565b606061073f8383600084600080856001600160a01b031684866040516118499190611d6a565b60006040518083038185875af1925050503d8060008114611886576040519150601f19603f3d011682016040523d82523d6000602084013e61188b565b606091505b509150915061146f8683836060826118ab576118a6826118f2565b61073f565b81511580156118c257506001600160a01b0384163b155b156118eb57604051639996b31560e01b81526001600160a01b03851660048201526024016107a4565b508061073f565b8051156119025780518082602001fd5b604051630a12f52160e11b815260040160405180910390fd5b60005b8381101561193657818101518382015260200161191e565b50506000910152565b602081526000825180602084015261195e81604085016020870161191b565b601f01601f19169190910160400192915050565b60006020828403121561198457600080fd5b5035919050565b80356001600160a01b03811681146119a257600080fd5b919050565b600080604083850312156119ba57600080fd5b6119c38361198b565b946020939093013593505050565b6000806000606084860312156119e657600080fd5b6119ef8461198b565b92506119fd6020850161198b565b9150604084013590509250925092565b600060208284031215611a1f57600080fd5b61073f8261198b565b60008060408385031215611a3b57600080fd5b82359150611a4b6020840161198b565b90509250929050565b600080600060608486031215611a6957600080fd5b83359250611a796020850161198b565b9150611a876040850161198b565b90509250925092565b60008060408385031215611aa357600080fd5b50508035926020909101359150565b60008060408385031215611ac557600080fd5b611ace8361198b565b9150611a4b6020840161198b565b600060208284031215611aee57600080fd5b5051919050565b600181811c90821680611b0957607f821691505b6020821081036112dc57634e487b7160e01b600052602260045260246000fd5b634e487b7160e01b600052601160045260246000fd5b808201808211156106f5576106f5611b29565b8181036000831280158383131683831282161715611b7257611b72611b29565b5092915050565b8082018281126000831280158216821582161715611b9957611b99611b29565b505092915050565b600060208284031215611bb357600080fd5b8151801515811461073f57600080fd5b818103818111156106f5576106f5611b29565b634e487b7160e01b600052603260045260246000fd5b634e487b7160e01b600052603160045260246000fd5b600060018201611c1457611c14611b29565b5060010190565b600181815b80851115611c56578160001904821115611c3c57611c3c611b29565b80851615611c4957918102915b93841c9390800290611c20565b509250929050565b600082611c6d575060016106f5565b81611c7a575060006106f5565b8160018114611c905760028114611c9a57611cb6565b60019150506106f5565b60ff841115611cab57611cab611b29565b50506001821b6106f5565b5060208310610133831016604e8410600b8410161715611cd9575081810a6106f5565b611ce38383611c1b565b8060001904821115611cf757611cf7611b29565b029392505050565b600061073f60ff841683611c5e565b634e487b7160e01b600052601260045260246000fd5b634e487b7160e01b600052602160045260246000fd5b600060ff831680611d5b57634e487b7160e01b600052601260045260246000fd5b8060ff84160691505092915050565b60008251611d7c81846020870161191b565b919091019291505056fea2646970667358221220e13e67bb8a35ca3c0fc0ed38b8711ae506c2ee4d936bf8bd6fdf13446c565fd464736f6c63430008140033","linkReferences":{}},"methodIdentifiers":{"activeInvoices(uint256)":"e300a0f4","allowance(address,address)":"dd62ed3e","approve(address,uint256)":"095ea7b3","asset()":"38d52e0f","assetAddress()":"1ba46cfd","balanceOf(address)":"70a08231","calculateCapitalAccount()":"8e73836c","convertToAssets(uint256)":"07a2d13a","convertToShares(uint256)":"c6e6f592","decimals()":"313ce567","declareInvoiceImpaired(uint256)":"56878512","deposit(uint256,address)":"6e553f65","fundInvoice(uint256,uint256)":"bb2f84aa","invoices(uint256)":"4e6d1405","maxDeposit(address)":"402d267d","maxMint(address)":"c63d75b6","maxRedeem()":"6f31ab34","maxRedeem(address)":"d905777e","maxWithdraw(address)":"ce96cb77","mint(uint256,address)":"94bf804d","name()":"06fdde03","owner()":"8da5cb5b","paidInvoicesGainLoss(uint256)":"f39a25eb","payInvoice(uint256)":"ac60a6cd","previewDeposit(uint256)":"ef8b30f7","previewMint(uint256)":"b3d7f6b9","previewRedeem(uint256)":"4cdad506","previewWithdraw(uint256)":"0a28a477","pricePerShare()":"99530b06","redeem(uint256,address,address)":"ba087652","renounceOwnership()":"715018a6","symbol()":"95d89b41","totalAssets()":"01e1d114","totalDeposits()":"7d882097","totalSupply()":"18160ddd","totalWithdrawals()":"60464627","transfer(address,uint256)":"a9059cbb","transferFrom(address,address,uint256)":"23b872dd","transferOwnership(address)":"f2fde38b","withdraw(uint256,address,address)":"b460af94"},"id":0}